:100000000C94740D0C94A50D0C94A50D0C94A50DD9
:100010000C94A50D0C94A50D0C94A50D0C94A50D98
:100020000C94A50D0C94A50D0C94A50D0C94A50D88
:100030000C94A50D0C94A50D0C94A50D0C94A50D78
:100040000C94A50D0C9408F50C94A50D0C94A50D1D
:100050000C94A50D0C94A50D0D9421080D94E5109C
:100060000C94A50D0D940E150D9444150C94A50D2E
:100070000C94A50D0C94A50D0C94A50D0C94A50D38
:100080000C94A50D0C94A50D0C94A50D0C94A50D28
:100090000C94A50D0C94A50D0C94A50D0D94B40F06
:1000A0000C94A50D0C94A50D0C94A50D0C94A50D08
:1000B0000C94A50D0C94A50D0C94A50D0C94A50DF8
:1000C0000C94A50D0C94A50D0C94A50D0D94BB15C9
:1000D0000D94F1150C94A50D0C94A50D0C94A50D83
:1000E0000C94A50DF700E9001F010B014701FB006F
:1000F000F300FD0001012B013701D9002F0113018D
:10010000E500D7003D012D01D1000501EB004301C1
:10011000EF00350131013D0125011101E700ED003E
:100120004101DB001B0115014D0127013B010701C6
:10013000C700F500CD003F01F1004D01030123018F
:10014000E300084AD73B3BCE016E84BCBFFDC12F04
:100150003D6C74319ABD56833DDA3D00C77F11BEB8
:10016000D9E4BB4C3E916BAAAABE000000803F05BB
:10017000A84CCDB2D44EB93836A9020C50B99186EC
:1001800088083CA6AAAA2ABE000000803F000D9461
:10019000DC120D9447140D94870F0D94E6120D9404
:1001A0000B0F0D943E120C94C2750C94AE750D9409
:1001B0002C120D940E120D94B9120D9425160D9457
:1001C0006E150D941A0F0D94FC120D9422120D94BD
:1001D0009B120D94B6080D9450120D94C7120D94F5
:1001E00064120D94EE120D9420090D94E0120D94FA
:1001F000A9080D941B0F0D9406090D9422090C9467
:10020000AD450D9424090D94F4120D9446120D94ED
:10021000D8120D949A130D94DF080D94F80E0D94D6
:100220001B160D9491120D9418120D94C3120D9477
:10023000480F0D94A5130D94BD120D9425140D9423
:10024000D2080D94B3130D94F8120D9487120D94E7
:10025000CE120D94C7130D9426090D9436120D94E9
:1002600013120D947D120D94F00E0D9473120D94D3
:100270002E090C947B240D94D2120D94A5120D948A
:10028000EA120D94CA120D945A120D9478150D9419
:10029000F9080C94A8EF0D9478160D9401134D38BD
:1002A0003420582059205A2045004D313037005411
:1002B00030004D3234004D323320257300617574A7
:1002C0006F25692E67006572726F7220777269748C
:1002D000696E6720746F2066696C65004E6F7420CC
:1002E0005344207072696E74696E67002F00534426
:1002F000207072696E74696E67206279746520007F
:100300002E0044656C6574696F6E206661696C656A
:10031000642C2046696C653A200046696C6520644F
:10032000656C657465643A002E006F70656E2066BA
:1003300061696C65642C2046696C653A20005772CF
:100340006974696E6720746F2066696C653A200075
:100350002E006F70656E206661696C65642C2046A6
:10036000696C653A20002E006F70656E20666169C9
:100370006C65642C2046696C653A200046696C65A2
:100380002073656C6563746564002053697A653A0F
:10039000200046696C65206F70656E65643A2000C8
:1003A0002E006F70656E206661696C65642C204656
:1003B000696C653A20004E6F77206672657368201D
:1003C00066696C653A20004E6F7720646F696E67CE
:1003D0002066696C653A20002220706F730022202D
:1003E000706172656E743A2200535542524F5554F3
:1003F000494E452043414C4C207461726765743A04
:100400002200747279696E6720746F2063616C6C6E
:10041000207375622D67636F64652066696C657310
:10042000207769746820746F6F206D616E79206C1D
:100430006576656C732E204D4158206C6576656C31
:100440002069733A0053442063617264206F6B002B
:100450006F70656E526F6F74206661696C656400C1
:10046000766F6C756D652E696E6974206661696C56
:10047000656400534420696E6974206661696C008C
:100480006563686F3A004572726F723A0048617234
:1004900064636F6465642044656661756C742053A1
:1004A000657474696E6773204C6F61646564005392
:1004B000746F7265642073657474696E67732072FB
:1004C000657472696576656400205A2000205920A1
:1004D00000205820004F66667365747320286D6D88
:1004E000293A002044002049002020204D3330319B
:1004F0002050005049442073657474696E67733AE4
:1005000000205A0020590020204D3230362058005B
:10051000486F6D65206F666673657420286D6D2960
:100520003A00204500205A00205800204200205464
:100530000020204D323035205300416476616E63D7
:100540006564207661726961626C65733A20533D1F
:100550004D696E20666565647261746520286D6DF5
:100560002F73292C20543D4D696E2074726176657D
:100570006C20666565647261746520286D6D2F73EB
:10058000292C20423D6D696E696D756D207365671C
:100590006D656E742074696D6520286D73292C203B
:1005A000583D6D6178696D756D205859206A657286
:1005B0006B20286D6D2F73292C20205A3D6D61789A
:1005C000696D756D205A206A65726B20286D6D2FDC
:1005D00073292C2020453D6D6178696D756D20452E
:1005E000206A65726B20286D6D2F732900205400DE
:1005F00020204D323034205300416363656C6572B6
:100600006174696F6E3A20533D616363656C657216
:100610006174696F6E2C20543D72657472616374ED
:1006200020616363656C65726174696F6E0020455B
:1006300000205A0020590020204D3230312058002F
:100640004D6178696D756D20416363656C6572619C
:1006500074696F6E20286D6D2F7332293A00204522
:1006600000205A0020590020204D323033205800FD
:100670004D6178696D756D2066656564726174653C
:100680007320286D6D2F73293A00204500205A00F1
:1006900020590020204D3932205800537465707362
:1006A0002070657220756E69743A005365747469C0
:1006B0006E67732053746F726564006563686F3A88
:1006C000004732382058004732382058205900500F
:1006D00072696E7465722068616C7465642E206B3B
:1006E000696C6C28292063616C6C656421006F6BF8
:1006F00000526573656E643A20000A00207A3A2041
:100700000020793A200020783A20004265640022D7
:1007100000556E6B6E6F776E20636F6D6D616E64EA
:100720003A202200486F74656E64206F66667365B8
:1007300074733A005A204F6666736574203A20003D
:100740007A5F6D61783A20007A5F6D696E3A2000B9
:100750005A204F6666736574005A204F666673654B
:1007600074206F6B00486F74656E64206F666673EB
:100770006574733A007A5F6D696E3A2000795F6D37
:1007800061783A2000785F6D61783A2000785F6D7B
:10079000696E3A2000205A3A0020593A0020436FEF
:1007A000756E7420583A200020453A00205A3A00CD
:1007B00020593A00583A004649524D574152455F38
:1007C0004E414D453A4D61726C696E2056313B2069
:1007D000537072696E7465722F6772626C206D61FE
:1007E0007368757020666F722067656E36204649A3
:1007F000524D574152455F55524C3A68747470736C
:100800003A2F2F6769746875622E636F6D2F45727A
:10081000696B5A616C6D2F4D61726C696E2F20503F
:10082000524F544F434F4C5F56455253494F4E3AE7
:10083000312E30204D414348494E455F5459504573
:100840003A4D656E64656C20455854525544455286
:100850005F434F554E543A3220555549443A303053
:100860003030303030302D303030302D303030308E
:100870002D303030302D303030303030303030307E
:1008800030300A0020423A0020453A00543A002015
:10089000573A0020453A00543A002042403A00209E
:1008A000403A00202F003A00205400202F00204220
:1008B0003A00202F006F6B20543A000A0A0053744C
:1008C000616E6461726420446576696174696F6EFB
:1008D0003A20000A004D65616E3A20000A0020208F
:1008E000207A3A200000793A2000783A20003F53DD
:1008F0007065636966696564206E756D62657220F6
:100900006F66206C65677320696E206D6F76656D0C
:10091000656E74206E6F7420706C61757361626CAB
:10092000652E0A003F5370656369666965642059E6
:1009300020706F736974696F6E206F7574206F66B5
:100940002072616E67652E0A003F537065636966A9
:10095000696564205820706F736974696F6E206FC9
:100960007574206F662072616E67652E0A003F53B2
:1009700070656369666965642073616D706C65207C
:1009800073697A65206E6F7420706C617573616233
:100990006C652E0A0046756C6C20737570706F72F2
:1009A000742061743A20687474703A2F2F33647025
:1009B00072696E74626F6172642E636F6D2F666F01
:1009C00072756D2E7068700A004D3438205A2D50A3
:1009D000726F6265205265706561746162696C69ED
:1009E000747920746573742E2020205665727369A3
:1009F0006F6E20322E30300A003F566572626F7380
:100A000065204C6576656C206E6F7420706C617526
:100A10007361626C652E0A002569206D696E2C2059
:100A200025692073656300456E642066696C6520E6
:100A30006C69737400426567696E2066696C652035
:100A40006C697374000A00205A3A200020593A2039
:100A50000020583A200042656400486F6D652058B8
:100A60002F59206265666F7265205A000A00206166
:100A70006E7469686F726172690A3A200020686F4B
:100A8000726172690A20002F3800766F6C7465738A
:100A9000200020566F6C74657320636172676F6C01
:100AA00020333A200020616E7469686F7261726948
:100AB0000A3A200020686F726172690A20002F389C
:100AC00000766F6C746573200020566F6C746573CC
:100AD00020636172676F6C20323A200020616E746F
:100AE00069686F726172690A3A200020686F7261EA
:100AF00072690A20002F3800766F6C7465732000CD
:100B000020566F6C74657320636172676F6C20315F
:100B10003A20000A0020647A333A200020647A32B6
:100B20003A200020647A313A20000A00207A633AA1
:100B30002000486F6D6520582F59206265666F72DE
:100B400065205A00486F6D6520582F5920626566F0
:100B50006F7265205A0047323820583020593000D3
:100B6000256920686F757273202569206D696E751F
:100B700074657300446F6E65207072696E74696E7F
:100B8000672066696C6500473639005072696E747B
:100B900065722073746F707065642064756520746D
:100BA0006F206572726F72732E20466978207468A8
:100BB00065206572726F7220616E642075736520A6
:100BC0004D39393920746F20726573746172742ED7
:100BD000202854656D706572617475726520697343
:100BE0002072657365742E205365742069742061CA
:100BF000667465722072657374617274696E6729B8
:100C0000006F6B004E6F204C696E65204E756D62F3
:100C10006572207769746820636865636B73756DAE
:100C20002C204C617374204C696E653A20004E6F25
:100C300020436865636B73756D2077697468206CF9
:100C4000696E65206E756D6265722C204C617374DF
:100C5000204C696E653A2000636865636B73756D3F
:100C6000206D69736D617463682C204C617374200E
:100C70004C696E653A20004C696E65204E756D6258
:100C80006572206973206E6F74204C617374204C00
:100C9000696E65204E756D6265722B312C204C613A
:100CA0007374204C696E653A20004D313130004438
:100CB0006F6E6520736176696E672066696C652E5C
:100CC000006F6B004D3239004D3530300073746168
:100CD00072740030312D312E302E30002200656EBE
:100CE000717565696E672022002200656E717565F9
:100CF000696E672022004D383420582059205A2030
:100D000045004733340047323800473238205A0014
:100D1000473430005430004D3530300047323820F1
:100D20005A0047343000543000473238205A0047C8
:100D30003430005430004D353030005431005430E0
:100D4000004D353030005430005431004D353030D6
:100D5000005431005430004D3530300054300054D0
:100D600031004D353030004D353030004D353030AC
:100D700000473433005431004D35303000473431B2
:100D800000473431004D35303000473431004D35A7
:100D90003030004D353030004D353030004D35307D
:100DA00030004D353030004D353030004D3530306D
:100DB000004D353030004D353030004D353030008D
:100DC0004D3530300047343000473430004D353039
:100DD0003000473430004D35303000473431004D5D
:100DE00035303000473431004D3530300047343134
:100DF000004D35303000473431004D35303000473C
:100E00003431004D35303000473431004D3530300D
:100E100000473431004D35303000473431004D3516
:100E2000303000473431004D353030004734310028
:100E30004D353030005430005430004733340054C6
:100E400030004732382058300047333400543000E7
:100E5000473238205830004733340054300047328E
:100E600038205830004733340054300047323800BF
:100E70004734330047323820580047333400473274
:100E80003800473238205830205930004732382057
:100E9000583020593000473238205830205930001F
:100EA0004D3234004D3233202573004D38342058F4
:100EB0002059205A2045004D31303700543000472A
:100EC0003238205830205930005430005431004717
:100ED0003730004D383420582059205A2045004DD5
:100EE00031303700543000473238205830205930E4
:100EF0000047323800FF01FF0000A0400000A04082
:100F00000000004033F397430080934300005243B6
:100F100000000000008093430000000033F397437B
:100F200000809343000052430000000000000000D6
:100F3000000000006563686F3A004572726F723A94
:100F40000020636F6C6420657874727573696F6ECE
:100F50002070726576656E746564006563686F3ACB
:100F6000007C3C3E5E2B3D3F2F5B5D3B2C2A225C90
:100F700000205A3A0020593A0020583A00656E6421
:100F800073746F7073206869743A200024F4D4304D
:100F900050C38E20C2A24017828B7011127A910D1D
:100FA000816CD90AA861E108C758660761514306F8
:100FB0001E4B5D05C145A7041A411104093D980364
:100FC000713931034036DB0265339102D43054026B
:100FD000802E1D02632CEE01752AC501B028A001E8
:100FE000102781018F2564012B244B01E02234015D
:100FF000AC211F018D200D01801FFC00841EED001F
:10100000971DDF00B81CD200E61BC600201BBC00E9
:10101000641AB200B219A8000A19A0006A1899004F
:10102000D117910040178B00B516840031167E0051
:10103000B31579003A157300C7146F0058146A008D
:10104000EE1366008813630025135E00C7125B0071
:101050006C12570015125400C111510070114F004D
:1010600021114B00D61049008D1047004610440056
:1010700002104200C00F4000800F3E00420F3C00B3
:10108000060F3B00CB0E3800930E37005C0E350088
:10109000270E3400F30D3200C10D3100900D3000E9
:1010A000600D2E00320D2D00050D2C00D90C2B00EB
:1010B000AE0C2900850C29005C0C2700350C27009C
:1010C0000E0C2600E80B2400C40B2400A00B230008
:1010D0007D0B23005A0B2100390B2100180B200037
:1010E000F80A1F00D90A1E00BB0A1E009D0A1D0037
:1010F000800A1D00630A1C00470A1B002C0A1B0003
:10110000110A1A00F7091A00DD091900C4091900AB
:10111000AB091900920917007B0918006309170031
:101120004C09160036091600200916000A09150098
:10113000F5081500E0081400CC081400B8081400E5
:10114000A4081400900813007D0812006B08130017
:101150005808120046081200340811002308110034
:101160001208110001081100F0071000E00710003C
:10117000D0071000C0071000B0070F00A107100033
:1011800091070E0083070F0074070F0065070E001C
:1011900057070E0049070E003B070D002E070E00F3
:1011A00020070D0013070D0006070D00F9060C00BF
:1011B000ED060D00E0060C00D4060C00C8060C007D
:1011C000BC060C00B0060C00A4060B0099060C002F
:1011D0008D060B0082060B0077060B006C060B00D9
:1011E00061060A0057060B004C060A0042060A0078
:1011F00038060A002E060A0024060A001A060A000B
:101200001006090007060A00FD050900F40509009B
:10121000EB050900E2050900D9050900D005090020
:10122000C7050900BE050900B5050800AD050800A1
:10123000A50509009C050800940508008C05080018
:10124000840508007C050800740508006C0507008B
:10125000650508005D050700560508004E050700F6
:10126000470507004005080038050700310507005D
:101270002A050700230507001C05060016050700C0
:101280000F0507000805060002050700FB0406001D
:10129000F5040700EE040600E8040600E204070077
:1012A000DB040600D5040600CF040600C9040600CE
:1012B000C3040600BD040600B7040600B10405001F
:1012C000AC040600A6040600A00405009B0406006A
:1012D00095040500900406008A04050085040500B5
:1012E000800406007A0405007504050070040500FA
:1012F0006B04050066040500610405005C0405003C
:1013000057040500520405004D040500480405007B
:10131000430405003E0404003A04050035040500BA
:10132000300404002C0405002704040023040500F5
:101330001E0404001A04040016040500110404002D
:101340000D04040009040500040404000004040062
:10135000FC030400F8030400F4030400F003040099
:10136000EC030400E8030400E4030400E0030400C9
:10137000DC030400D8030400D4030400D0030400F9
:10138000CC030400C8030300C503030024F404D9FC
:10139000201BC40C5C0E9804C4095F026507710130
:1013A000F405F900FB04B30048048700C103690099
:1013B0005803550003034500BE023A008402310081
:1013C00053022A002902250004022000E4011C0027
:1013D000C8011900AF01170098011400840113001F
:1013E000710110006101100051010E0043010D0058
:1013F00036010B002B010B0020010B001501090029
:101400000C01090003010800FB000800F3000800BC
:10141000EB000700E4000600DE000600D80006002E
:10142000D2000600CC000500C7000500C200050080
:10143000BD000400B9000400B5000400B1000400C0
:10144000AD000400A9000400A5000300A2000300F1
:101450009F0004009B000300980003009500020019
:1014600093000300900003008D0002008B00030036
:101470008800020086000200840003008100020050
:101480007F0002007D0002007B0002007900020064
:101490007700010076000200740002007200010073
:1014A000710002006F0002006D0001006C0002007C
:1014B0006A00010069000200670001006600010087
:1014C000650001006400020062000100610001008B
:1014D000600001005F0002005D0001005C0001008F
:1014E0005B0001005A000100590001005800010092
:1014F0005700010056000100550001005400010092
:10150000530000005300010052000100510001008F
:10151000500001004F0001004E0000004E0001008D
:101520004D0001004C0001004B0000004B00010089
:101530004A00010049000100480000004800010085
:101540004700010046000000460001004500000081
:101550004500010044000100430000004300010079
:101560004200000042000100410000004100010073
:10157000400001003F0000003F0001003E0000006D
:101580003E0001003D0000003D0001003C00000065
:101590003C0000003C0001003B0000003B0001005B
:1015A0003A0000003A000100390000003900010053
:1015B000380000003800000038000100370000004B
:1015C0003700010036000000360000003600010040
:1015D0003500000035000000350001003400000037
:1015E000340000003400010033000000330000002C
:1015F0003300010032000000320000003200010020
:101600003100000031000000310001003000000016
:1016100030000000300001002F0000002F0000000B
:101620002F0000002F0001002E0000002E000000FF
:101630002E0001002D0000002D0000002D000000F4
:101640002D0001002C0000002C0000002C000000E8
:101650002C0001002B0000002B0000002B000000DC
:101660002B0001002A0000002A0000002A000000D0
:101670002A000100290000002900000029000000C4
:1016800029000000290001002800000028000000B7
:1016900028000000280000002800010027000000AA
:1016A000270000002700000027000000270001009D
:1016B0002600000026000000260000002600000092
:1016C0002600010025000000250000002500000084
:1016D0002500000025000000250001002400000076
:1016E0002400000024000000240000002400010069
:1016F000230000002300000023000000230000005E
:10170000230000002300000023000100220000004D
:101710002200000022000000220000002200000041
:101720002200010021000000210000002100000033
:101730002100000021000000210000002100010024
:101740002000000020000000200000002000000019
:101750002000000020000000200000002000010008
:101760001F0000001F0000001F0000001F000000FD
:101770001F0000001F0000001F0001001E000000ED
:101780001E0000001E0000001E0000006563686F60
:101790003A00504944204175746F74756E65206637
:1017A000696E69736865642120507574207468657A
:1017B000206C617374204B702C204B6920616E6427
:1017C000204B6420636F6E7374616E747320667255
:1017D0006F6D2061626F766520696E746F20436F54
:1017E0006E66696775726174696F6E2E6800504924
:1017F00044204175746F74756E65206661696C650F
:1018000064212074696D656F75740020403A006F23
:101810006B20543A006F6B20423A005049442041FB
:1018200075746F74756E65206661696C65642120DE
:1018300054656D706572617475726520746F6F2088
:101840006869676800204B643A2000204B693A20A1
:1018500000204B703A200020436C61737369632051
:1018600050494420002054753A2000204B753A20FE
:1018700000206D61783A2000206D696E3A200020CA
:10188000643A200020626961733A200070012C01E3
:1018900090012701B0012201C0011D01F0011801D2
:1018A0001002130130020E016002090190020401CE
:1018B000C002FF000003FA004003F5008003F000BF
:1018C000D003EB002004E6007004E100E004DC003B
:1018D0004005D700C005D2004006CD00D006C800A4
:1018E0008007C3003008BE00F008B900C009B4008A
:1018F000B00AAF00B00BAA00D00CA500000EA000EB
:10190000500F9B00C01096005012910000148C00E4
:10191000C0158700B0178200B0197D00D01B780079
:10192000001E730040206E0090226900F0246400C5
:1019300040275F0090295A00E02B5500102E5000E0
:1019400020304B0010324600E033410090353C001F
:101950001037370070383200A0392D00B03A280017
:10196000A03B2300603C1E00103D1900903D140078
:10197000103E0F00703E0A00C03E0500003F000010
:1019800000000A0B02090C0D0E08070304010000F9
:101990000000000000000000000000000000000047
:1019A0000000000000000000000000001211100004
:1019B0000000000000000000000000000000000027
:1019C0000000000000000102102020080810204044
:1019D00010204080020102010804020101020408F3
:1019E0001020408080402010080402018004020181
:1019F00080402010080402010804020101020408CA
:101A000010204080010204081020408005050505D3
:101A1000070508080808020202020A0A0808040466
:101A20000404010101010101010103030303030394
:101A30000303040707070C0C0C0C0C0C0C0C020223
:101A4000020206060606060606060B0B0B0B0B0B20
:101A50000B0B000020002300260029002C002F0083
:101A6000320000010000030106010901000022000C
:101A7000250028002B002E00310034000201000058
:101A8000050108010B0100002100240027002A00A5
:101A90002D003000330001010000040107010A019C
:101AA0004E414E494E495459494E46CDCCCC3D0A43
:101AB000D7233C17B7D13877CC2B329595E6241F26
:101AC000B14F0A000020410000C84200401C4620DF
:101AD000BCBE4CCA1B0E5AAEC59D74007B24AE75AD
:101AE000CB004501DD00C27511241FBECFEFD1E24E
:101AF000DEBFCDBF00E00CBF1CE0A0E0B2E0EEE333
:101B0000FEE402E00BBF02C007900D92A830B107BF
:101B1000D9F72CE1A8E0BCE001C01D92A434B207C3
:101B2000E1F71AE1C6EEDAE100E006C0229701090A
:101B3000FE010BBF0F948B1ECC3DD10780E0080740
:101B4000A9F70F9469160D940D270C940000DC0181
:101B5000ED91FC910190F081E02D1994FC0114822B
:101B600017821382128281E89BE09183808308951B
:101B700021E83BE0FC01318320832781222319F0F7
:101B800004960C9402EB0895CF92DF92EF92FF92AD
:101B90000F931F93CF93DF93EC01895A9F4F0E94BD
:101BA000AE0DCE0188589F4F0E94AE0D7E0127E9F1
:101BB000E20EF11C87016E0133E3C31A3EEFD30A34
:101BC000C8010E94AE0D015E1F4F0C151D05C1F727
:101BD000FE01E153FE4F89E1818314823596178A15
:101BE000CE018E509E4F0E94AE0DFE01ED55FD4F71
:101BF0001082118212821382389610821182128210
:101C000013821A821B821C82188219826E0189E556
:101C1000C81A8DEFD80AF60110821182128213823F
:101C2000F80111821082FE01EF5EFD4F108286E303
:101C300091E0F7019C01119221503040E1F7FE0143
:101C4000E155FD4F81E08083CB5ADF4F1982188226
:101C50000F942F1168577C4E8F4F9F4FF601608372
:101C6000718382839383DF91CF911F910F91FF90B6
:101C7000EF90DF90CF900895FC0120E03EE2DB0181
:101C80004C91403241F0283011F430833196DB0121
:101C90004C91408331962F5F6F5F7F4F2B3079F7E8
:101CA000108208952F923F924F925F926F927F928F
:101CB0008F929F92AF92BF92CF92DF92EF92FF925C
:101CC0000F931F93CF93DF93CDB7DEB7C858D109D9
:101CD0000FB6F894DEBF0FBECDBF8C016B017A0149
:101CE000CA57DF4F1882C658D04084E0E80EF11C76
:101CF000180192E1290E311CF801EC5AFF4FC95727
:101D0000DF4FF983E883C758D0405801F0E5AF1A98
:101D1000FDEFBF0A38018EE4681A8DEF780A80E47F
:101D2000482E512C4C0E5D1E94E0490E511CA10111
:101D3000BE016F5F7F4FC7010E9467E918160CF064
:101D400013C12C85322F3871303109F099C0F5015B
:101D5000808191810197029708F492C0BE016F5F64
:101D60007F4FCE0187589F4F0E943C0EA0961FAE1A
:101D7000A097F6018081811107C063EF72E0CE0168
:101D8000815A9F4F0F94B223B601CE01815A9F4FC3
:101D90000F94B223BE0167587F4FCE01815A9F4FE7
:101DA0000F94B22363EF72E0CE01815A9F4F0F94DC
:101DB000B223CE01805C9F4F0E94AE0D21E0AE01A8
:101DC00047585F4FB701C2010E940BED811131C02E
:101DD000F50180819181892B61F5E0E8F4E064915F
:101DE0004F01662369F0772767FD709584E09BE1DA
:101DF0000E94A70DFFEF8F1A9F0AF4016491F1CFA3
:101E000065EF72E084E09BE10F94B6166AE070E043
:101E100084E09BE10E94A70DBE0167587F4F84E0DC
:101E20009BE10F94B6166AE070E084E09BE10E94AB
:101E3000A70D8BE1FE01EC5BFF4FDE019596019053
:101E40000D928A95E1F724968EAD9FAD24979CA3C1
:101E50008BA381E89BE09AA389A3AE014F5D5F4FFE
:101E6000BE01615A7F4FC8010E94520ECE01819679
:101E70000E94B80DCE01805C9F4F0E94B80D57CFD5
:101E80008981882309F470C0853E09F450CF8E32D1
:101E900009F44DCF8F3509F44ACFF80182898823A0
:101EA00031F08E3209F443CF8F3509F440CF23FD52
:101EB0003ECF81E0303109F080E0C957DF4FE88143
:101EC000F981C758D0408083811108C08985873443
:101ED00009F02DCF8A858E3709F429CF4801F5E026
:101EE0008F0E911CBE016F5F7F4FC4010E943C0E9C
:101EF000F50180819181009789F4B60184E09BE12E
:101F00000F94B616B40184E09BE10F94B6166AE014
:101F100070E084E09BE10E94A70D09CF813091051C
:101F200039F4F30180819181019691838083FFCE02
:101F3000029709F0FCCECA57DF4FF881C658D0404F
:101F40002F2F30E0F301808191812817390761F04C
:101F5000CA57DF4FF881C658D040FF5FCA57DF4FDE
:101F6000F883C658D040E3CEC857DF4F0FB6F89479
:101F7000DEBF0FBECDBFDF91CF911F910F91FF90BC
:101F8000EF90DF90CF90BF90AF909F908F907F9019
:101F90006F905F904F903F902F9008950F931F93F5
:101FA000CF93DF93CDB7DEB76F970FB6F894DEBF50
:101FB0000FBECDBF8C01FC01E055FD4F1182108298
:101FC00040E050E0BA01855A9F4F0E941CEAC801C8
:101FD000895A9F4F2BE1FC013496DE011596019042
:101FE0000D922A95E1F7FC01828193819C838B837A
:101FF00081E89BE09A838983AE014F5F5F4F61EB7D
:102000007AE0C8010E94520ECE0101960E94B80DDE
:102010006F960FB6F894DEBF0FBECDBFDF91CF91A4
:102020001F910F9108952BE1FB013496DC0114966A
:1020300001900D922A95E1F7FB0122813381FC0189
:10204000338322830895EF92FF920F931F93CF93D0
:10205000DF93EC011C82FC01E25AFF4F8081882350
:1020600029F0CE01855A9F4F0E9402EB7E0181E349
:10207000E81A8EEFF80A45E360E0C7010E945AE5CE
:1020800081113EC0E0E8F4E064918F01662361F0C5
:10209000772767FD709584E09BE10E94A70D0F5F95
:1020A0001F4FF8016491F2CFE3E7F4E064918F01F0
:1020B000662361F0772767FD709584E09BE10E94BD
:1020C000A70D0F5F1F4FF8016491F2CF6AE070E037
:1020D00084E09BE10E94A70D8E01095A1F4FB801B1
:1020E000CE0188589F4F0E941310CA58DF4F1983A2
:1020F0000883DF91CF911F910F91FF90EF9008958A
:102100008E010C521E4F41E0B701C8010E941CF322
:1021100081112CC040E0B701C8010E941CF381115D
:1021200025C0E6E8F4E064918F01662361F077272B
:1021300067FD709584E09BE10E94A70D0F5F1F4F24
:10214000F8016491F2CFE0E6F4E064918F01662338
:1021500009F4BCCF772767FD709584E09BE10E946E
:10216000A70D0F5F1F4FF8016491F1CFB801CE01A9
:10217000855A9F4F0E9407E8811125C0E6E8F4E0E8
:1021800064918F01662361F0772767FD709584E085
:102190009BE10E94A70D0F5F1F4FF8016491F2CFE2
:1021A000E0E5F4E064918F01662309F48FCF77278F
:1021B00067FD709584E09BE10E94A70D0F5F1F4FA4
:1021C000F8016491F1CF81E08C83E0E8F4E0649160
:1021D0008F01662361F0772767FD709584E09BE1AE
:1021E0000E94A70D0F5F1F4FF8016491F2CFE5E445
:1021F000F4E064918F01662309F468CF772767FDC7
:10220000709584E09BE10E94A70D0F5F1F4FF801BE
:102210006491F1CFFC01128214820895FC01848143
:10222000882319F081E0828313820895FC01828162
:10223000882319F0128281E083830895AF92BF92C0
:10224000CF92DF92EF92FF920F931F93CF93DF9382
:102250001F92CDB7DEB78C018FE2FB0181935F0146
:10226000D12C41E07801F3E3EF1AFEEFFF0A9FE182
:10227000C92E2D2D30E0F701808191812817390773
:10228000D8F4C29EC001C39E900D112485569F4F65
:10229000B501800F911F49830E94ACE7C5014981B8
:1022A0005C010196F5012081222321F04D3810F4C4
:1022B0004F5FF6CFD394DDCF47FD11C0B501C80104
:1022C0008A509E4F0F90DF91CF911F910F91FF90F9
:1022D000EF90DF90CF90BF90AF900C94ACE7F501FA
:1022E00010820F90DF91CF911F910F91FF90EF908F
:1022F000DF90CF90BF90AF9008953F924F925F9242
:102300006F927F928F929F92AF92BF92CF92DF9205
:10231000EF92FF920F931F93CF93DF93CDB7DEB76A
:10232000AC970FB6F894DEBF0FBECDBF8C016B012A
:10233000342EFC018481882309F4EEC2E750FE4F5D
:102340008081882309F413C12111DAC07801FFEEDE
:10235000EF1AFDEFFF0AF7018081882309F435C0E9
:10236000E6E8F4E064918F01662361F0772767FD6A
:10237000709584E09BE10E94A70D0F5F1F4FF8014D
:102380006491F2CFE2E0F4E064918F01662361F0A2
:10239000772767FD709584E09BE10E94A70D0F5F92
:1023A0001F4FF8016491F2CF4AE050E061E070E025
:1023B00084E09BE10F9488176AE070E084E09BE181
:1023C0000E94A70D0E943639A7C2E0E8F4E06491AC
:1023D0005F01662369F0772767FD709584E09BE1D4
:1023E0000E94A70DFFEFAF1ABF0AF5016491F1CF6C
:1023F000E9EEF3E064915F01662369F0772767FDFA
:10240000709584E09BE10E94A70DFFEFAF1ABF0A11
:10241000F5016491F1CFB60184E09BE10F94B6160B
:10242000EEEDF3E064915F01662369F0772767FDC5
:10243000709584E09BE10E94A70DFFEFAF1ABF0AE1
:10244000F5016491F1CFF70180812DE8B22EB8013A
:10245000B89E600D711D11246A5E7D4FC8010E94F7
:102460001E11F7018081B801B89E600D711D112405
:102470006A5E7D4F84E09BE10F94B616E8EDF3E0D1
:1024800064915F01662369F0772767FD709584E0AA
:102490009BE10E94A70DFFEFAF1ABF0AF5016491FF
:1024A000F1CF5801F5E5AF1AFDEFBF0AF501408104
:1024B0005181628173812AE030E084E09BE10F94D6
:1024C000A8176AE070E084E09BE10E94A70DF70185
:1024D0002081F80184E0289FE00DF11D1124AF0157
:1024E0004E5E5D4FF50180819181A281B381FA0139
:1024F00080839183A283B3832F5FF701208331C050
:10250000E0E8F4E064917F01662369F0772767FDD6
:10251000709584E09BE10E94A70DFFEFEF1AFF0A80
:10252000F7016491F1CFE7ECF3E064917F0166235A
:1025300069F0772767FD709584E09BE10E94A70D05
:10254000FFEFEF1AFF0AF7016491F1CFB60184E0C3
:102550009BE10F94B6166AE070E084E09BE10E9474
:10256000A70DC8018A509E4F0E9402EB35C0F801AA
:10257000EF5EFD4F1082E0E8F4E064917F01662396
:1025800069F0772767FD709584E09BE10E94A70DB5
:10259000FFEFEF1AFF0AF7016491F1CFE6EBF3E0EA
:1025A00064917F01662369F0772767FD709584E069
:1025B0009BE10E94A70DFFEFEF1AFF0AF70164915C
:1025C000F1CFB60184E09BE10F94B6166AE070E0AB
:1025D00084E09BE10E94A70DF8011282CE010196D2
:1025E0005C010E94AE0D280196E7490E511CC801FE
:1025F000895A9F4FF20191838083F60180818F3247
:1026000009F07EC06FE270E0C6010F94BD23019611
:102610007C01E114F10409F479C06FE270E0C701B4
:102620000F94BD234C01009709F471C0E816F90618
:1026300008F06DC03C016E187F08A301B701CE0100
:1026400080960F94E623E0E2F0E0EC0FFD1FE60D2C
:10265000F71D1082BE01605E7F4F84E09BE10F9406
:10266000B6166AE070E084E09BE10E94A70DF201DB
:10267000608171816115710519F06C5F7F4F02C037
:1026800060E070E021E0AE01405E5F4FCE01059654
:102690000E940BED81112CC0E2EAF3E064918F01FE
:1026A000662361F0772767FD709584E09BE10E94C7
:1026B000A70D0F5F1F4FF8016491F2CFBE01605E5E
:1026C0007F4F84E09BE10F94B616E0EAF3E064915B
:1026D0008F01662309F417C1772767FD709584E0A1
:1026E0009BE10E94A70D0F5F1F4FF8016491F1CF8E
:1026F000F201B182A0827401FFEFEF1AFF0A89CFC5
:10270000C80188589F4FF201918380837601C801E8
:102710008A509E4F4C01F20160817181332009F48F
:10272000A0C06115710519F06C5F7F4F02C060E0B9
:1027300070E021E0A701C4010E940BED882309F499
:1027400066C0F40181899289A389B489F801ED55A5
:10275000FD4F80839183A283B383E2E9F3E0649128
:102760004F01C8018D559D4F6C01662369F0772795
:1027700067FD709584E09BE10E94A70D9FEF891A89
:10278000990AF4016491F1CFB70184E09BE10F94C1
:10279000B616EAE8F3E064917F01662369F07727D3
:1027A00067FD709584E09BE10E94A70DFFEFEF1A93
:1027B000FF0AF7016491F1CFF601408151816281F6
:1027C00073812AE030E084E09BE10F94A8176AE06F
:1027D00070E084E09BE10E94A70DF801E555FD4FF4
:1027E0001082118212821382ECE7F3E064918F0170
:1027F000662309F488C0772767FD709584E09BE124
:102800000E94A70D0F5F1F4FF8016491F1CFE8E61A
:10281000F3E064918F01662361F0772767FD70957F
:1028200084E09BE10E94A70D0F5F1F4FF8016491A8
:10283000F2CFB70184E09BE10F94B616E6E6F3E031
:1028400064918F01662309F45EC0772767FD709558
:1028500084E09BE10E94A70D0F5F1F4FF801649178
:10286000F1CF6115710519F06C5F7F4F02C060E018
:1028700070E026E5A701C4010E940BED811129C07B
:10288000E2E5F3E064918F01662361F0772767FD4D
:10289000709584E09BE10E94A70D0F5F1F4FF80128
:1028A0006491F2CFB70184E09BE10F94B616E0E5A6
:1028B000F3E064918F01662331F1772767FD70950E
:1028C00084E09BE10E94A70D0F5F1F4FF801649108
:1028D000F2CF81E0F8018083EEE3F3E064918F01B1
:1028E000662361F0772767FD709584E09BE10E9485
:1028F000A70D0F5F1F4FF8016491F2CFB60184E07E
:102900009BE10F94B6166AE070E084E09BE10E94C0
:10291000A70DC5010E94B80DAC960FB6F894DEBFA6
:102920000FBECDBFDF91CF911F910F91FF90EF9020
:10293000DF90CF90BF90AF909F908F907F906F90DF
:102940005F904F903F90089521E0FC01218340E08B
:102950000C947D114F925F926F927F928F929F9213
:10296000AF92BF92CF92DF92EF92FF920F931F939D
:10297000CF93DF93CDB7DEB7AC970FB6F894DEBF39
:102980000FBECDBF7C015B01FC018481882309F46B
:1029900003C1C7018A509E4F0E9402EBF7011282C9
:1029A000CE0101966C010E94AE0D270196E7490EFB
:1029B000511CC701895A9F4FF20191838083F50111
:1029C00080818F3209F07AC06FE270E0C5010F9408
:1029D000BD238C010F5F1F4F09F476C06FE270E0DA
:1029E000C8010F94BD234C01009709F46EC008176D
:1029F000190708F06AC03C01601A710AA301B80106
:102A0000CE0180960F94E623E0E2F0E0EC0FFD1F8C
:102A1000E60DF71D1082BE01605E7F4F84E09BE1F2
:102A20000F94B6166AE070E084E09BE10E94A70D67
:102A3000F201608171816115710519F06C5F7F4F42
:102A400002C060E070E021E0AE01405E5F4FCE0169
:102A500005960E940BED81112CC0EAE2F3E064912F
:102A60008F01662361F0772767FD709584E09BE115
:102A70000E94A70D0F5F1F4FF8016491F2CFBE01B6
:102A8000605E7F4F84E09BE10F94B616E8E2F3E0CE
:102A900064918F01662309F476C0772767FD7095EE
:102AA00084E09BE10E94A70D0F5F1F4FF801649126
:102AB000F1CFF201D182C08284018CCFC701885846
:102AC0009F4FF201918380838501F2018081918182
:102AD000009711F0049602C080E090E0B8010E94D7
:102AE000EBED882331F1EAE1F3E064915F016623C5
:102AF00069F0772767FD709584E09BE10E94A70D40
:102B0000FFEFAF1ABF0AF5016491F1CFB80184E07D
:102B10009BE10F94B6166AE070E084E09BE10E94AE
:102B2000A70DF701E555FD4F108211821282138225
:102B300030C0E2E0F3E064917F01662369F077271B
:102B400067FD709584E09BE10E94A70DFFEFEF1AEF
:102B5000FF0AF7016491F1CFB80184E09BE10F9483
:102B6000B616E0E0F3E064918F01662361F0772709
:102B700067FD709584E09BE10E94A70D0F5F1F4FDA
:102B8000F8016491F2CF6AE070E084E09BE10E947A
:102B9000A70DC6010E94B80DAC960FB6F894DEBF23
:102BA0000FBECDBFDF91CF911F910F91FF90EF909E
:102BB000DF90CF90BF90AF909F908F907F906F905D
:102BC0005F904F9008950F931F93CF93DF93EC0185
:102BD0008C81882309F43EC0EEEEF2E064918F010F
:102BE000662361F0772767FD709584E09BE10E9482
:102BF000A70D0F5F1F4FF8016491F2CFFE01E5555D
:102C0000FD4F40815181628173812AE030E084E090
:102C10009BE10F94A817ECEEF2E064918F0166231C
:102C200061F0772767FD709584E09BE10E94A70D16
:102C30000F5F1F4FF8016491F2CFCD55DD4F4881F2
:102C400059816A817B812AE030E084E09BE10F9426
:102C5000A81711C0ECEDF2E06491EF01662359F082
:102C6000772767FD709584E09BE10E94A70D219670
:102C7000FE016491F3CF6AE070E084E09BE1DF91B4
:102C8000CF911F910F910C94A70DAF92BF92CF924D
:102C9000DF92EF92FF920F931F93CF93DF935C012C
:102CA000EB01FB0101900020E9F78F0101501109B0
:102CB000061B170B6C01FAE0CF1AFEEFDF0AF601D4
:102CC00010826EE470E0CE010F94BD237C0100976A
:102CD00029F4F8013197EC0FFD1F0DC060E270E0A0
:102CE0000F94BD23EC0121966AE270E0C7010F94B6
:102CF000BD23FC0131978DE081838AE082831382BA
:102D0000BE01C5018E509E4F0E94BAEFF601808130
:102D1000882391F1E6E8F4E06491EF01662359F02D
:102D2000772767FD709584E09BE10E94A70D2196AF
:102D3000FE016491F3CFE6ECF2E06491EF016623CB
:102D400059F0772767FD709584E09BE10E94A70DFD
:102D50002196FE016491F3CF6AE070E084E09BE18C
:102D6000DF91CF911F910F91FF90EF90DF90CF9067
:102D7000BF90AF900C94A70DDF91CF911F910F9151
:102D8000FF90EF90DF90CF90BF90AF9008952F927B
:102D90003F924F925F926F927F928F929F92AF92EB
:102DA000BF92CF92DF92EF92FF920F931F93CF9338
:102DB000DF93CDB7DEB7CC55D1090FB6F894DEBF9F
:102DC0000FBECDBF4C018C0101551D4F662339F05C
:102DD000F8011082F401848181111EC015C0F80130
:102DE0008081882309F4B0C0F401E955FD4FC0800B
:102DF000D180E280F3800F942F11C616D706E80623
:102E0000F90608F4A1C0E4CFC4010E942310F40124
:102E10008481882309F498C07401F5E5EF0EF11C54
:102E2000F70181818F9380818F938DEB92E09F9347
:102E30008F938E01015C1F4F1F930F930F942424D7
:102E40000F900F900F900F900F900F90B12CF801F2
:102E500001900020E9F73197E01BF10BBE1684F4D6
:102E60006801CB0CD11CB7FCDA94F601808199275C
:102E700087FD90950F945B23F6018083B394E7CF91
:102E8000FBE58F0E911C40E050E0BA01C4010E94A6
:102E90001CEA512CCE0101966C0136EB632E32E018
:102EA000732E5E0191E2A90EB11C40E050E0B60124
:102EB000C4010E9467E91816DCF5412CF601019067
:102EC0000020E9F73197EC19FD094E1674F416014C
:102ED000240C311C47FC3A94F101808190E00F945E
:102EE0005B23F10180834394E9CF8A858E37E9F231
:102EF00045E050E0B801C6010F94D823892BA9F60C
:102F00001F930F937F926F92BF92AF920F942424DE
:102F1000C5010E94E62782EB92E00E9462280F9092
:102F20000F900F900F900F900F9055245394BDCF9A
:102F3000511004C08FEF9FEFF70104C0F7018081AB
:102F40009181019691838083C45ADF4F0FB6F89424
:102F5000DEBF0FBECDBFDF91CF911F910F91FF90CC
:102F6000EF90DF90CF90BF90AF909F908F907F9029
:102F70006F905F904F903F902F9008950F931F9305
:102F8000CF93DF93EC018C010A501E4FC8010E94C1
:102F9000B6EAC8010E9402EB18821982DF91CF9134
:102FA0001F910F910895EF92FF920F931F93CF936C
:102FB000DF93CDB7DEB76F970FB6F894DEBF0FBEC5
:102FC000CDBF8C017C0186E7E80EF11CC801885852
:102FD0009F4FF70191838083E65CFD4F22E030E054
:102FE00031832083329670E07183608340E050E04B
:102FF000BA0104960E941CEAF701808191812BE1BD
:10300000FC013496DE01159601900D922A95E1F7A8
:10301000FC01828193819C838B8381E89BE09A836E
:103020008983AE014F5F5F4F61EB7AE0C8010E9478
:10303000520ECE0101960E94B80D6F960FB6F8940D
:10304000DEBF0FBECDBFDF91CF911F910F91FF90DB
:10305000EF900895CF92DF92EF92FF920F931F931C
:10306000CF93DF93CDB7DEB76F970FB6F894DEBF7F
:103070000FBECDBF8C016C0126E7C20ED11C885853
:103080009F4FF60191838083E65CFD4F21E030E0A5
:10309000318320837801FEE4EF1AFDEFFF0AF70188
:1030A0001182108240E050E0BA0104960E941CEAAE
:1030B000F601808191812BE1FC013496DE011596A9
:1030C00001900D922A95E1F7FC01828193819C8306
:1030D0008B8381E89BE09A838983AE014F5F5F4FCA
:1030E00061EB7AE0C8010E94520ECE0101960E9467
:1030F000B80DF701808191816F960FB6F894DEBF0D
:103100000FBECDBFDF91CF911F910F91FF90EF9038
:10311000DF90CF900895EF92FF920F931F93CF937C
:10312000DF93EC010E949CFC8E010F5E1D4FF801A5
:1031300080819E012A503E4F79018823A9F1C9015F
:103140000E9402EBF801808181508083BE01FDE87E
:103150008F9F600D711D11246A5E7D4F21E041E05B
:10316000CE010E947D11F8018081FE0124E0829F42
:10317000E00DF11D1124EE5EFD4F40815181628111
:103180007381FE01E555FD4F408351836283738354
:10319000C7010E941CEACE01DF91CF911F910F91D0
:1031A000FF90EF900C940E110E942FFDC7010E941A
:1031B00002EB1A8221E030E045E050E06AE070E086
:1031C00088E691E10E94D3228FEA92E00E94622871
:1031D0008AEA92E00E9462280E949CFC8EE992E0BA
:1031E0000E9462288091C5168823F9F01092C516B6
:1031F000C091440ED0E0CC0FDD1FC85CD54E688175
:103200007981882777FD8095982F0F94FC1A20915B
:103210006702309168024091690250916A020F94EE
:103220005D1C181614F419821882DF91CF911F913A
:103230000F91FF90EF900895EF92FF920F931F93DD
:10324000CF93DF931F92CDB7DEB78C017B01460F82
:10325000F70161917F01F8018081918149830F9489
:103260005626F8018081918101969183808349815E
:103270004E11EECF0F90DF91CF911F910F91FF90E4
:10328000EF900895EF92FF920F931F93CF93DF93E8
:103290001F92CDB7DEB78C017B01460FF80180810C
:1032A000918149830F944E26F70181937F01F801A4
:1032B0008081918101969183808349814E11EECF67
:1032C0000F90DF91CF911F910F91FF90EF90089594
:1032D0000F931F93CF93DF93CDB7DEB768970FB6E9
:1032E000F894DEBF0FBECDBF80E390E3A0E3B0E073
:1032F0008D839E83AF83B88704E610E0188F0F8B11
:1033000044E0BE016B5F7F4FCE0147960E941C19BF
:1033100040E166E277E1CE0147960E941C1940E148
:1033200066E377E1CE0147960E941C1940E166E111
:1033300077E1CE0147960E941C1944E06EE077E1E8
:10334000CE0147960E941C1944E06AE077E1CE0165
:1033500047960E941C1944E062E177E1CE0147964E
:103360000E941C1944E06AEF76E1CE0147960E9464
:103370001C1944E066E477E1CE0147960E941C19CF
:1033800044E066E077E1CE0147960E941C1944E0D4
:1033900062E077E1CE0147960E941C1944E06EEF8F
:1033A00076E1CE0147960E941C194CE06BE57EE069
:1033B000CE0147960E941C1987ED90E09E8B8D8B65
:1033C0008DE290E09C8B8B8B1A8A198A80EF90E0BB
:1033D000988B8F8786E490E09E878D871C861B865E
:1033E00042E0BE016B5E7F4FCE0147960E941C19E2
:1033F00042E0BE016D5E7F4FCE0147960E941C19D0
:1034000042E0BE016F5E7F4FCE0147960E941C19BD
:1034100042E0BE01615F7F4FCE0147960E941C19BA
:1034200042E0BE01635F7F4FCE0147960E941C19A8
:1034300042E0BE01655F7F4FCE0147960E941C1996
:1034400044E068E47EE0CE0147960E941C1944E007
:103450006EE172E0CE0147960E941C1944E066E2DC
:1034600072E0CE0147960E941C1944E06EE272E0C1
:10347000CE0147960E941C1941E063E97EE0CE012F
:1034800047960E941C1944E06AEB72E0CE01479611
:103490000E941C1944E066EB72E0CE0147960E9440
:1034A0001C1944E062EB72E0CE0147960E941C19A1
:1034B00080E290E09A87898742E0BE01675F7F4F94
:1034C000CE0147960E941C1986E591E3A0E3B0E087
:1034D00089839A83AB83BC83188F0F8B44E0BE0132
:1034E0006F5F7F4FCE0147960E941C19EBEBF6E011
:1034F00064918F01662361F0772767FD709584E002
:103500009BE10E94A70D0F5F1F4FF8016491F2CF5E
:10351000EBEAF6E064918F01662361F0772767FD9F
:10352000709584E09BE10E94A70D0F5F1F4FF8018B
:103530006491F2CF6AE070E084E09BE10E94A70D05
:1035400068960FB6F894DEBF0FBECDBFDF91CF9166
:103550001F910F9108950F931F93CF93DF93CBEBA0
:10356000D6E0FE0164918E01662361F0772767FD46
:10357000709584E09BE10E94A70D0F5F1F4FF8013B
:103580006491F2CFEBE9F6E064918F01662361F07C
:10359000772767FD709584E09BE10E94A70D0F5F80
:1035A0001F4FF8016491F2CF6AE070E084E09BE184
:1035B0000E94A70DFE0164910BEB16E0662361F0FB
:1035C000772767FD709584E09BE10E94A70D0F5F50
:1035D0001F4FF8016491F2CF4091261750912717A1
:1035E000609128177091291783E996E00E947A2745
:1035F00040912A1750912B1760912C1770912D171D
:1036000080E996E00E947A2740912E1750912F175B
:1036100060913017709131178DE896E00E947A27FB
:1036200040913217509133176091341770913517CC
:103630008AE896E00E947A2761EB7AE084E09BE1D9
:103640000F94B6166AE070E084E09BE10E94A70D3B
:10365000FE0164910BEB16E0662361F0772767FDAE
:10366000709584E09BE10E94A70D0F5F1F4FF8014A
:103670006491F2CFE0E7F6E064918F01662361F098
:10368000772767FD709584E09BE10E94A70D0F5F8F
:103690001F4FF8016491F2CF6AE070E084E09BE193
:1036A0000E94A70DFE0164910BEB16E0662361F00A
:1036B000772767FD709584E09BE10E94A70D0F5F5F
:1036C0001F4FF8016491F2CF409136175091371790
:1036D000609138177091391787E696E00E947A2733
:1036E00040913A1750913B1760913C1770913D17EC
:1036F00084E696E00E947A2740913E1750913F174A
:10370000609140177091411781E696E00E947A27F8
:10371000409142175091431760914417709145179B
:103720008EE596E00E947A2761EB7AE084E09BE1E7
:103730000F94B6166AE070E084E09BE10E94A70D4A
:10374000FE0164910BEB16E0662361F0772767FDBD
:10375000709584E09BE10E94A70D0F5F1F4FF80159
:103760006491F2CFE0E4F6E064918F01662361F0AA
:10377000772767FD709584E09BE10E94A70D0F5F9E
:103780001F4FF8016491F2CF6AE070E084E09BE1A2
:103790000E94A70DFE0164910BEB16E0662361F019
:1037A000772767FD709584E09BE10E94A70D0F5F6E
:1037B0001F4FF8016491F2CF4091161750911717DF
:1037C000609118177091191787E396E00E94C2273D
:1037D00040911A1750911B1760911C1770911D177B
:1037E00084E396E00E94C22740911E1750911F1754
:1037F000609120177091211781E396E00E94C22703
:10380000409122175091231760912417709125172A
:103810008EE296E00E94C22761EB7AE084E09BE1B1
:103820000F94B6166AE070E084E09BE10E94A70D59
:10383000FE0164910BEB16E0662361F0772767FDCC
:10384000709584E09BE10E94A70D0F5F1F4FF80168
:103850006491F2CFE9EFF5E064918F01662361F0A6
:10386000772767FD709584E09BE10E94A70D0F5FAD
:103870001F4FF8016491F2CF6AE070E084E09BE1B1
:103880000E94A70DFE0164910BEB16E0662361F028
:10389000772767FD709584E09BE10E94A70D0F5F7D
:1038A0001F4FF8016491F2CF40910E1750910F17FE
:1038B000609110177091111780EF95E00E947A27A0
:1038C00040910A1750910B1760910C1770910D17CA
:1038D0008DEE95E00E947A2761EB7AE084E09BE12F
:1038E0000F94B6166AE070E084E09BE10E94A70D99
:1038F000FE0164910BEB16E0662361F0772767FD0C
:10390000709584E09BE10E94A70D0F5F1F4FF801A7
:103910006491F2CFEAE3F5E064918F01662361F0F0
:10392000772767FD709584E09BE10E94A70D0F5FEC
:103930001F4FF8016491F2CF6AE070E084E09BE1F0
:103940000E94A70DFE0164910BEB16E0662361F067
:10395000772767FD709584E09BE10E94A70D0F5FBC
:103960001F4FF8016491F2CF409112175091131735
:10397000609114177091151781E395E00E947A27E2
:103980004091FA165091FB166091FC167091FD164D
:103990008EE295E00E947A27409146175091471792
:1039A00060914817709149178BE295E00E94C227F9
:1039B00040910617509107176091081770910917E9
:1039C00088E295E00E947A274091021750910317F0
:1039D000609104177091051785E295E00E947A279F
:1039E0004091FE165091FF166091001770910117DB
:1039F00082E295E00E947A2761EB7AE084E09BE125
:103A00000F94B6166AE070E084E09BE10E94A70D77
:103A1000FE0164910BEB16E0662361F0772767FDEA
:103A2000709584E09BE10E94A70D0F5F1F4FF80186
:103A30006491F2CFE0E1F5E064918F01662361F0DB
:103A4000772767FD709584E09BE10E94A70D0F5FCB
:103A50001F4FF8016491F2CF6AE070E084E09BE1CF
:103A60000E94A70DFE0164910BEB16E0662361F046
:103A7000772767FD709584E09BE10E94A70D0F5F9B
:103A80001F4FF8016491F2CF40915B0E50915C0E94
:103A900060915D0E70915E0E87E095E00E947A273E
:103AA00040915F0E5091600E6091610E7091620EB8
:103AB00084E095E00E947A274091630E5091640E55
:103AC0006091650E7091660E81E095E00E947A2704
:103AD00061EB7AE084E09BE10F94B6166AE070E057
:103AE00084E09BE10E94A70DFE0164910BEB16E0C0
:103AF000662361F0772767FD709584E09BE10E9463
:103B0000A70D0F5F1F4FF8016491F2CFE3EFF4E0D0
:103B100064918F01662361F0772767FD709584E0DB
:103B20009BE10E94A70D0F5F1F4FF8016491F2CF38
:103B30006AE070E084E09BE10E94A70DFE016491C1
:103B40000BEB16E0662361F0772767FD709584E044
:103B50009BE10E94A70D0F5F1F4FF8016491F2CF08
:103B60004091BA025091BB026091BC027091BD02BB
:103B700089EE94E00E947A276091B6027091B702B4
:103B80008091B8029091B9020F949B09AB01BC01DE
:103B900086EE94E00E947A276091B2027091B3029F
:103BA0008091B4029091B5020F94A909AB01BC01B8
:103BB00083EE94E00E947A2761EB7AE084E09BE157
:103BC0000F94B6166AE070E084E09BE10E94A70DB6
:103BD000FE0164910BEB16E0662361F0772767FD29
:103BE000709584E09BE10E94A70D0F5F1F4FF801C5
:103BF0006491F2CFE5EDF4E064918F01662361F00A
:103C0000772767FD709584E09BE10E94A70D0F5F09
:103C10001F4FF8016491F2CF6AE070E084E09BE10D
:103C20000E94A70DFE01C4910BEB16E0CC2369F0B6
:103C30006C2F772767FD709584E09BE10E94A70DAC
:103C40000F5F1F4FF801C491F1CF40911E025091B8
:103C50001F02609120027091210281ED94E00E9488
:103C60007A27409126025091270260912802709194
:103C700029028DEC94E00E947A2740912E02509107
:103C80002F02609130027091310289EC94E00E9421
:103C90007A2761EB7AE084E09BE10F94B6166AE044
:103CA00070E084E09BE1DF91CF911F910F910C9424
:103CB000A70DAF92BF92CF92DF92EF92FF920F9338
:103CC0001F93CF93DF93CDB7DEB7E0970FB6F8948D
:103CD000DEBF0FBECDBF80E1EEEBF2E0DE019196DC
:103CE00001900D928A95E1F780E1EEECF2E0DE01C1
:103CF000519601900D928A95E1F780E1EEEDF2E0A8
:103D0000DE01119601900D928A95E1F76E0181E234
:103D1000C80ED11C86E2E82E87E1F82E8E010F5ED8
:103D20001F4F66E377E1AE014F5F5F4F96E1A92E2B
:103D300097E1B92E20E030E0F60181919191A191B7
:103D4000B1916F01F70181939193A193B1937F0199
:103D5000F80181919191A191B1918F01FB01819322
:103D60009193A193B193BF01FA0181919191A19196
:103D7000B191AF01F50181939193A193B1935F014B
:103D80002F5F3F4F24303105B9F60E9418E480E0E0
:103D900090E8ABEBB4E480930E1790930F17A093C9
:103DA0001017B093111780E090E0AAEFB4E480936D
:103DB0000A1790930B17A0930C17B0930D1710923E
:103DC000121710921317109214171092151780E201
:103DD0009EE4A0E0B0E08093461790934717A0932D
:103DE0004817B09349171092FA161092FB161092CA
:103DF000FC161092FD1680E090E0A0EAB0E48093FB
:103E0000061790930717A0930817B09309174DEC66
:103E10005CEC6CEC7EE340930217509303176093C5
:103E20000417709305178093FE169093FF16A093C6
:103E30000017B09301171092630E1092640E109247
:103E4000650E1092660E10925F0E1092600E109228
:103E5000610E1092620E10925B0E10925C0E109228
:103E60005D0E10925E0E81E08093930E8AE999E9CF
:103E7000A9E3B0EC8093480E9093490EA0934A0EAC
:103E8000B0934B0E83E393EFA7E9B3E480931E0254
:103E900090931F02A0932002B09321028AE999E92E
:103EA000A9E1BEEB8093260290932702A0932802FB
:103EB000B09329028DEC9CECACECBDEB80932E0210
:103EC00090932F02A0933002B09331028CE59FE8CB
:103ED000A2E7B1E48093BA029093BB02A093BC0224
:103EE000B093BD0261EE7AE784E99FE30F949409F1
:103EF0006093B6027093B7028093B8029093B902B0
:103F00006FE175E885E492E40F94A2096093B20230
:103F10007093B3028093B4029093B5020E9418FF8D
:103F200080E090E0A0E8BFE38093AE029093AF0200
:103F3000A093B002B093B102EBEBF6E064918F0175
:103F4000662361F0772767FD709584E09BE10E940E
:103F5000A70D0F5F1F4FF8016491F2CFEDE8F4E079
:103F600064918F01662361F0772767FD709584E087
:103F70009BE10E94A70D0F5F1F4FF8016491F2CFE4
:103F80006AE070E084E09BE1E0960FB6F894DEBF53
:103F90000FBECDBFDF91CF911F910F91FF90EF909A
:103FA000DF90CF90BF90AF900C94A70D0F931F930D
:103FB000CF93DF93CDB7DEB768970FB6F894DEBF27
:103FC0000FBECDBF84E690E0988F8F8B86E591E39E
:103FD000A0E3B0E089839A83AB83BC8344E0BE0155
:103FE0006B5F7F4FCE0147960E94421943E050E03D
:103FF000BE016B5F7F4FCE0101960F94D823892BB2
:1040000009F0F3C040E166E277E1CE0147960E94F5
:10401000421940E166E377E1CE0147960E944219DA
:1040200040E166E177E1CE0147960E9442190E9485
:1040300018E444E06EE077E1CE0147960E94421911
:1040400044E06AE077E1CE0147960E94421944E0DD
:1040500062E177E1CE0147960E94421944E06AEF9F
:1040600076E1CE0147960E94421944E066E477E18A
:10407000CE0147960E94421944E066E077E1CE0106
:1040800047960E94421944E062E077E1CE014796EC
:104090000E94421944E06EEF76E1CE0147960E94FD
:1040A00042194CE06BE57EE0CE0147960E94421932
:1040B00042E0BE016B5E7F4FCE0147960E944219DF
:1040C00042E0BE016D5E7F4FCE0147960E944219CD
:1040D00042E0BE016F5E7F4FCE0147960E944219BB
:1040E00042E0BE01615F7F4FCE0147960E944219B8
:1040F00042E0BE01635F7F4FCE0147960E944219A6
:1041000042E0BE01655F7F4FCE0147960E94421993
:1041100044E068E47EE0CE0147960E94421944E004
:104120006EE172E0CE0147960E94421944E066E2D9
:1041300072E0CE0147960E94421944E06EE272E0BE
:10414000CE0147960E94421941E063E97EE0CE012C
:1041500047960E94421944E06AEB72E0CE0147960E
:104160000E94421944E066EB72E0CE0147960E943D
:10417000421944E062EB72E0CE0147960E94421978
:1041800042E0BE01675F7F4FCE0147960E94421911
:104190000E9418FFEBEBF6E064918F01662361F05B
:1041A000772767FD709584E09BE10E94A70D0F5F64
:1041B0001F4FF8016491F2CFEFEAF4E064918F01B0
:1041C000662361F0772767FD709584E09BE10E948C
:1041D000A70D0F5F1F4FF8016491F2CF6AE070E006
:1041E00084E09BE10E94A70D02C00E94591E6896C0
:1041F0000FB6F894DEBF0FBECDBFDF91CF911F91F8
:104200000F910895FC01EB58FF4F118210823D97EA
:104210009C012D593F4F31832083329628EE33E0A5
:10422000318320833296118210823296118210825D
:10423000329610823196118210820895FB0183819B
:1042400090E0982F88272481820F911D0895FC010A
:10425000E859FF4FA081B1818D599F4F8A179B0765
:1042600080F48FEF8C93808191810197918380837B
:1042700080910F0C9091100C01979093100C8093EB
:104280000F0C08950F931F93CF93DF938C01EC01D4
:10429000CD58DF4F88819981DC01ED91FC9104803C
:1042A000F581E02D1995892B41F4F801E259FF4F72
:1042B0008DEF9FEF918380830AC088819981DC0113
:1042C000ED91FC910680F781E02D19959927DF91FA
:1042D000CF911F910F910895FC01E259FF4F118278
:1042E00010820E9442210895CF93DF93EC01CE59B2
:1042F000DF4F28812223D1F09C01205A3F4FF90142
:10430000508146E0FC01459FE00DF11D1124DB01C9
:1043100001900D924A95E1F7F90180818F5F8F70CE
:10432000808388818150888381E001C080E0DF91B3
:10433000CF910895CF93DF93EC01CE59DF4F2881C1
:104340002E30D0F49C012F593F4FF901508146E0A7
:10435000DC01459FA00DB11D1124FB0101900D92C0
:104360004A95E1F7F90180818F5F8F7080838881A2
:104370008F5F888381E008C0FC01E259FF4F2BEF7B
:104380003FEF3183208380E0DF91CF910895FC01DE
:10439000E859FF4F0190F081E02D6083635071096F
:1043A0006230710520F4FC01E059FF4F108208953E
:1043B00020910F0C3091100C2F5F3F4F3093100C59
:1043C00020930F0CFC01E859FF4F208131812F5FB2
:1043D0003F4F3183208370E00C94C721CF92DF924E
:1043E000EF92FF921F93CF93DF93EC010E946C2119
:1043F000182F6E018EE6C80ED11CD6012D913C916E
:104400002D3F3F4F81F4FE01EE59FF4F80818823FD
:1044100009F45EC0C958DF4FE881F981309709F48B
:1044200057C0199555C07E01E8E6EE0EF11CD70184
:10443000ED91FC918081813021F0B0F0823091F0DB
:104440001EC0173099F0153121F0163009F04AC01E
:104450003BC0CE010E9427218CEF9FEFF601918394
:10446000808340C0153021F01730E1F564E004C0CE
:10447000CE010E94272163E0CE010E94D821D701FE
:10448000ED91FC9180818350823008F030C07E0134
:10449000F0E7EF0EF11CD7012C91222331F180912E
:1044A0000E0C812780930E0CE22FF0E0E85FF34FB3
:1044B00010832530A1F481110DC068E07CE0CE01AD
:1044C0000E949A21F7011082CE010E9427210AC082
:1044D00080E009C088EF9FEFD6018D939C932F5FFA
:1044E000F701208381E090E002C0812FDBCFDF91D4
:1044F000CF911F91FF90EF90DF90CF900895AF92F2
:10450000BF92CF92DF92EF92FF920F931F93CF93C0
:10451000DF93EC010F942F116B017C018E01065982
:104520001F4FD8018D919C91AA2797FDA095BA2F76
:10453000C80ED91EEA1EFB1E5E01B8E6AB0EB11C0A
:104540000F942F116C157D058E059F05D8F4CE01B3
:104550000E94EE21019779F40F942F116B017C01D9
:10456000F80180819181AA2797FDA095BA2FC80EE6
:10457000D91EEA1EFB1ED501ED91FC9180818111AF
:10458000DFCF06C0C259DF4F8FEF9FEF998388833B
:10459000DF91CF911F910F91FF90EF90DF90CF901F
:1045A000BF90AF900895BF92CF92DF92EF92FF92AB
:1045B0000F931F93CF93DF938C01D62EC42E7901D6
:1045C0000E947F22F801E259FF4F11821082E80118
:1045D000CD58DF4F88819981DC01ED91FC910190EC
:1045E000F081E02D61E0199588819981DC01ED91E0
:1045F000FC910190F081E02D6D2D199588819981B4
:10460000DC01ED91FC910190F081E02D6C2D19956C
:10461000BB24B394BC24BD2488819981DC01ED9135
:10462000FC910190F081E02D6F2D1995BF248881B8
:104630009981FF24DC01ED91FC910190F081E02D46
:104640006E2D199588819981DC01ED91FC916B2D7E
:104650006E250190F081E02D199561E0C8010E945E
:10466000D821DF91CF911F910F91FF90EF90DF90B4
:10467000CF90BF900895AF92BF92CF92DF92EF920A
:10468000FF920F931F93CF93DF935C016B017A012D
:10469000EA0109900020E9F72197C41BD50BCF3F11
:1046A000D10511F00CF04AC00E947F2285010D58FF
:1046B0001F4FD8018D919C91DC01ED91FC910190EF
:1046C000F081E02D62E01995F80180819181DC0193
:1046D000ED91FC910190F081E02D6C2D1995B2E0E7
:1046E000CB26F80180819181DC01ED91FC91019054
:1046F000F081E02D6C2F1995CC26DD26D7016C9129
:10470000F80180819181DC01ED91FC910190F081B3
:10471000E02D662351F01995F70181917F019927CA
:1047200087FD9095C826D926E9CF6C2D199561E0B3
:10473000C5010E94D82180E090E002C08FEF9FEF7A
:10474000DF91CF911F910F91FF90EF90DF90CF906D
:10475000BF90AF90089589589F4FFC01718360838B
:104760000895CF93DF93EC01FC01ED58FF4F718367
:10477000608360E00E94D821FE01E05AFF4F108262
:1047800031961082CE59DF4F1882DF91CF91089574
:104790000F931F93CF93DF938C01C6E2D7E1F8010B
:1047A00061917191819191918F01299139914991F3
:1047B00059910F942F1D0F94C91AF80164877587BA
:1047C00086879787F7E1C633DF0749F7DF91CF91F7
:1047D0001F910F9108952F923F924F925F926F9287
:1047E0007F928F929F92AF92BF92CF92DF92EF9281
:1047F000FF920F931F93CF93DF93CDB7DEB73C01AA
:10480000CB01BA0118012901F3016083718382830E
:1048100093830483158326833783C086D186E286FB
:10482000F38684869586A686B78611E020E030E080
:10483000A9010F945A1A811101C010E020E030E064
:10484000A901C201B1010F945A1A882311F092E014
:1048500001C090E0192B20E030E0A901C701B601AA
:104860000F945A1A882311F094E001C090E0192B9C
:1048700020E030E0A901C501B4010F945A1A882341
:1048800011F088E001C080E0182BF30111A3C301EF
:10489000DF91CF911F910F91FF90EF90DF90CF901C
:1048A000BF90AF909F908F907F906F905F904F9050
:1048B0003F902F900C94C8238F929F92AF92BF92FB
:1048C000CF92DF92EF92FF920F931F93CF93DF93DC
:1048D000CDB7DEB7FC0110A20E94EB23DF91CF9190
:1048E0001F910F91FF90EF90DF90CF90BF90AF900E
:1048F0009F908F9008958F929F92AF92BF92CF9288
:10490000DF92EF92FF920F931F93812C912C540111
:10491000750164010AE919E929E13EE3B501A40141
:1049200081E19CE00E945C241F910F91FF90EF9029
:10493000DF90CF90BF90AF909F908F900895FC0133
:10494000659175918591949108954F925F926F92C0
:104950007F928F929F92AF92BF92CF92DF92EF920F
:10496000FF920F931F934090150250901602609093
:10497000170270901802812CE0E89E2EEBE3AE2E19
:10498000E6E4BE2E8092150290921602A0921702C3
:10499000B09218026093770E7093780E8093790E20
:1049A00090937A0E20937B0E30937C0E40937D0E75
:1049B00050937E0EE0927F0EF092800E0093810E57
:1049C0001093820EE4E4FEE0FF93EF93812C912C90
:1049D000F8E4AF2EF3E4BF2EA3E8CA2EAEE0DA2E41
:1049E0000E94B1D80E949CFC40921502509216027F
:1049F00060921702709218020F900F901F910F9102
:104A0000FF90EF90DF90CF90BF90AF909F908F90EE
:104A10007F906F905F904F900895809115029091D4
:104A20001602A0911702B09118028093180E90936D
:104A3000190EA0931A0EB0931B0E80914C02909108
:104A40004D029093880E8093870E84E690E09093B9
:104A50004D0280934C020F942F116093770C70934A
:104A6000780C8093790C90937A0C81E00C94FFF48D
:104A700080E00E94FFF48091180E9091190EA09191
:104A80001A0EB0911B0E8093150290931602A093FC
:104A90001702B09318028091870E9091880E909320
:104AA0004D0280934C020F942F116093770C7093FA
:104AB000780C8093790C90937A0C08952F923F9202
:104AC0004F925F926F927F928F929F92AF92BF921E
:104AD000CF92DF92EF92FF920F931F93CF93DF93CA
:104AE0008FE692E00F94010DE6E5F2E060817181BE
:104AF000828193816093150270931602809317024E
:104B00009093180220E030E040E752E40F94611ADD
:104B10004B015C01CBE7DEE0288139814A815B8172
:104B2000E7E7FEE06081718182819381B4E42B2EFE
:104B3000BEE03B2E3F922F9213E8C12E1EE0D12EF5
:104B4000E12CF12C00E211EC0E94B1D80E949CFCF7
:104B500082E00E9405FD4B015C01288139814A8178
:104B60005B81E7E7FEE0608171818281938185014D
:104B700074010E9411E380E09FE00E949F2420E0E6
:104B800030E040E05FE30F942F1D9B01AC01C501B5
:104B9000B4010F9481192B013C0120E030E040EC7E
:104BA0005FE3609115027091160280911702909157
:104BB00018020F942F1D20E030E040E752E40F94DC
:104BC000611A4B015C01288139814A815B81E7E7E9
:104BD000FEE060817181828193813F922F928301F7
:104BE00072010E94B1D80E949CFC20E030E040E8B5
:104BF0005EE3E6E5F2E060817181828193810F944A
:104C00002F1D4B015C016093150270931602809377
:104C100017029093180280E09FE00E949F246B018E
:104C20007C0120E030E040EC5FE3C501B4010F946B
:104C30002F1D20E030E040E752E40F94611A4B0151
:104C40005C01A7019601C701B6010F9481199B0170
:104C5000AC01C301B2010F9480197B018C01288142
:104C600039814A815B81E7E7FEE060817181828161
:104C700093813F922F92F3E8CF2EFEE0DF2E0E9429
:104C8000B1D80E949CFC82E00E9405FD7B018C0152
:104C900060937F0E7093800E8093810E9093820EAE
:104CA000288139814A815B81E7E7FEE0608171817B
:104CB000828193810E9411E30F900F900F900F90CB
:104CC0000F900F90DF91CF911F910F91FF90EF9078
:104CD000DF90CF90BF90AF909F908F907F906F901C
:104CE0005F904F903F902F90089580E19FE00E9449
:104CF0009F2420915B0E30915C0E40915D0E50918F
:104D00005E0E0F94811908954F925F926F927F9279
:104D10008F929F92AF92BF92CF92DF92EF92FF92CB
:104D20000F931F93CF93DF9300D01F92CDB7DEB7C1
:104D30002B013C0149015A0120917B0E30917C0EE0
:104D400040917D0E50917E0E6091770E7091780E9D
:104D50008091790E90917A0E0E94A5248091440E44
:104D6000C0907F0ED090800EE090810EF090820E69
:104D700020E030E040EC51E4811111C0C501B401E4
:104D80000F94801969837A838B839C8320E030E0C1
:104D900044E951E4C301B2010F94801910C0C50168
:104DA000B4010F94801969837A838B839C8320E0FC
:104DB00030E04CE851E4C301B2010F94811987013E
:104DC000760129813A814B815C810E94A5240E9451
:104DD0005E25C0907F0ED090800EE090810EF09006
:104DE000820EEBE0F7E064918F01662361F0772794
:104DF00067FD709584E09BE10E94A70D0F5F1F4F38
:104E0000F8016491F2CFE6E0F7E064918F01662348
:104E100061F0772767FD709584E09BE10E94A70D04
:104E20000F5F1F4FF8016491F2CF22E030E0B30131
:104E3000A20184E09BE10F94CF18E1E0F7E06491D8
:104E40008F01662361F0772767FD709584E09BE111
:104E50000E94A70D0F5F1F4FF8016491F2CF22E06F
:104E600030E0B501A40184E09BE10F94CF18ECEF92
:104E7000F6E064918F01662361F0772767FD7095F6
:104E800084E09BE10E94A70D0F5F1F4FF801649122
:104E9000F2CF22E030E0B701A60184E09BE10F945D
:104EA000CF18EAEFF6E064918F01662361F077276F
:104EB00067FD709584E09BE10E94A70D0F5F1F4F77
:104EC000F8016491F2CFC701B6010F900F900F90D7
:104ED0000F90DF91CF911F910F91FF90EF90DF9096
:104EE000CF90BF90AF909F908F907F906F905F908A
:104EF0004F900895CF92DF92EF92FF92CF93DF937E
:104F0000EC016A017B01FE016491662349F0772779
:104F100067FD709584E09BE10E94A70D2196F3CF79
:104F200022E030E0B701A60184E09BE1DF91CF9160
:104F3000FF90EF90DF90CF900D94CF18CF92DF923B
:104F4000EF92FF92CF93DF93EC016A017B01FE01A8
:104F50006491662349F0772767FD709584E09BE1B3
:104F60000E94A70D2196F3CF22E030E0B701A60101
:104F700084E09BE1DF91CF91FF90EF90DF90CF90A5
:104F80000D94CF18CF92DF92EF92FF92CF93DF93E1
:104F9000EC016A017B01FE016491662349F07727E9
:104FA00067FD709584E09BE10E94A70D2196F3CFE9
:104FB0002AE030E0B701A60184E09BE1DF91CF91C8
:104FC000FF90EF90DF90CF900D94A817CF93DF93D1
:104FD0002091810C3091820C243031050CF06FC08F
:104FE0004091830C5091840C60E6649F9001659F12
:104FF000300D1124BC01C9018557934F0F94D12363
:10500000E4E3FFE06491EF01662359F0772767FD41
:10501000709584E09BE10E94A70D2196FE016491AA
:10502000F3CFEBEEFCE06491EF01662359F07727B4
:1050300067FD709584E09BE10E94A70D2196FE011B
:105040006491F3CF8091830C9091840C20E6289F8B
:10505000B001299F700D11246557734F84E09BE1C7
:105060000F94B616E9EEFCE06491EF01662359F067
:10507000772767FD709584E09BE10E94A70D21963C
:10508000FE016491F3CF6AE070E084E09BE10E944E
:10509000A70D8091830C9091840C019664E070E0E0
:1050A0000F941D1E9093840C8093830C8091810C2F
:1050B0009091820C01969093820C8093810CDF91E9
:1050C000CF910895CF93DF932091810C3091820C82
:1050D000243031050CF06FC04091830C5091840C4A
:1050E00060E6649F9001659F300D1124BC01C901E9
:1050F0008557934F0F946323E4E3FFE06491EF013E
:10510000662359F0772767FD709584E09BE10E9444
:10511000A70D2196FE016491F3CFEEEDFCE06491C2
:10512000EF01662359F0772767FD709584E09BE1D6
:105130000E94A70D2196FE016491F3CF8091830C0C
:105140009091840C20E6289FB001299F700D1124B6
:105150006557734F84E09BE10F94B616ECEDFCE0CD
:105160006491EF01662359F0772767FD709584E01D
:105170009BE10E94A70D2196FE016491F3CF6AE0A6
:1051800070E084E09BE10E94A70D8091830C9091D8
:10519000840C019664E070E00F941D1E9093840CC3
:1051A0008093830C8091810C9091820C0196909356
:1051B000820C8093810CDF91CF910895CF93DF9380
:1051C00026E040E950ED63E070E084E09BE10F945D
:1051D000AC14E3EDFCE06491EF01662359F077270E
:1051E00067FD709584E09BE10E94A70D2196FE016A
:1051F0006491F3CF6AE070E084E09BE10E94A70D28
:10520000E4E3FFE06491EF01662359F0772767FD3F
:10521000709584E09BE10E94A70D2196FE016491A8
:10522000F3CFEDECFCE06491EF01662359F07727B2
:1052300067FD709584E09BE10E94A70D2196FE0119
:105240006491F3CF6AE070E084E09BE10E94A70DD7
:105250006FE273E084E09BE10F94D31626E040E414
:105260005DE063E070E081EA9BE10F94AC1461EAD9
:105270007BE188E691E10E94B1236DEA75E488E65E
:1052800091E10E94AB2361E089E00F94021360E09A
:1052900089E00F943B1364E670E080E090E00F94A7
:1052A0005E1161E089E00F943B1364E971E180E0F5
:1052B00090E00F945E110E94D61F8091930E4BE3F5
:1052C00053E063E070E0882309F45DC088E691E173
:1052D0000E943B2364EC79E080E090E00F945E1143
:1052E00064E473E084E09BE10F94D31688EC9CE0C7
:1052F0000E94622820E030E04FE050E06AE070E079
:1053000088E691E10E94D32281E08093B10E109251
:10531000870C1092880C1092890C10928A0C0E94B3
:10532000D61F0F9456020E94F6D60E94FCFB61E045
:105330008CE00F94021361E08BE00F94021361E0A4
:105340008DE00F94021361E08CE00F943B1361E059
:105350008BE00F943B1361E08DE00F943B1361E011
:105360008AE00F94021360E08AE00F943B1361E03F
:1053700070E080E090E00F945E1161E08AE0DF91E0
:10538000CF910D943B1388E691E10E943B2364EC9E
:1053900079E080E090E00F945E1120E030E045E09D
:1053A00050E06AE070E088E691E10E94D322AFCF3E
:1053B0008F929F92AF92BF92CF92DF92EF92FF9225
:1053C0000F931F93CF93DF93CDB7DEB7DA950FB668
:1053D000F894DEBF0FBECDBF8091600C81110DC06F
:1053E0000F942F1160933A0C70933B0C80933C0CFC
:1053F00090933D0C81E08093600C8091B40E8823E3
:1054000009F4D5C00F942F1100913A0C10913B0C68
:1054100020913C0C30913D0C601771078207930777
:1054200008F452C260912E1A70912F1A8091301A8E
:105430009091311A0F94C91AD62EC72E20E030E071
:1054400040E05FE36091241A7091251A8091261A3A
:105450009091271A0F9481190F94C91AB62EA72E6E
:1054600060912A1A70912B1A80912C1A90912D1A02
:105470000F94C91A7F936F9313E6E12E13E0F12E78
:10548000FF92EF928E010F5F1F4F1F930F930F94A8
:10549000F523A80160E070E088E691E10E943B23DB
:1054A000CF92DF92FF92EF921F930F930F94F52309
:1054B000A80162E270E088E691E10E943B23AF928E
:1054C000BF9288E693E09F938F931F930F930F945F
:1054D000F523A80169E070E088E691E10E943B2392
:1054E0000FB6F894DEBF0FBECDBF8091AB108823FE
:1054F00019F18091551190915611A0915711B091C9
:1055000058110097A105B105B9F0BC01CD016D5945
:105510007F4F8F4F9F4F24E630E040E050E00F94E4
:10552000311E60915D1170915E1180915F119091BB
:1055300060110F94311E01C020E01F922F93BDE631
:10554000EB2EB3E0FB2EFF92EF921F930F930F947D
:10555000F523A80165E270E088E691E10E943B2313
:1055600080914D028F9380914C028F93FF92EF9226
:105570001F930F930F94F523A80164E270E088E66F
:1055800091E10E943B230F942F1168577C4E8F4F5F
:105590009F4F60933A0C70933B0C80933C0C90931C
:1055A0003D0C0FB6F894DEBF0FBECDBF8DC180910C
:1055B000470E8823E9F10F942F11DC01CB014091B4
:1055C0003A0C50913B0C60913C0C70913D0C84174F
:1055D0009507A607B70708F477C12AE030E084E012
:1055E0009BE10F94D2172091380C3091390C42E096
:1055F00050E06BE170E088E691E10E94D322809157
:10560000380C9091390C009719F481E090E005C0B6
:10561000019663E070E00F941D1E9093390C809307
:10562000380C0F942F1168537F4F8F4F9F4F44C1F9
:105630008091B10E882309F447C10F942F11009176
:105640003A0C10913B0C20913C0C30913D0C6017B2
:1056500071078207930708F437C160912A1A709185
:105660002B1A80912C1A90912D1A0F94C91AB62ECC
:10567000A72E60912E1A70912F1A8091301A909156
:10568000311A0F94C91AD62EC72E20E030E040E020
:105690005FE36091241A7091251A8091261A9091E7
:1056A000271A0F9481190F94C91A962E872EAF923C
:1056B000BF92A3E6EA2EA3E0FA2EFF92EF928E01AC
:1056C0000F5F1F4F1F930F930F94F523A80168E2FC
:1056D00070E088E691E10E943B23CF92DF92FF9237
:1056E000EF921F930F930F94F523A8016AE270E0E5
:1056F00088E691E10E943B238F929F9288E693E097
:105700009F938F931F930F930F94F523A80169E242
:1057100070E088E691E10E943B236091770E7091E2
:10572000780E8091790E90917A0E0F94CE1A9B018B
:1057300040E050E06FE070E088E691E10E94D32203
:1057400060917B0E70917C0E80917D0E90917E0E0B
:105750000F94CE1A9B0141E050E06FE070E088E6C4
:1057600091E10E94D32260917F0E7091800E809112
:10577000810E9091820E0F94CE1A9B0142E050E070
:105780006FE070E088E691E10E94D322AF92BF9271
:10579000FF92EF921F930F930F94F523A8016AE0F5
:1057A00070E088E691E10E943B23CF92DF92FF9266
:1057B000EF921F930F930F94F523A80161E170E01E
:1057C00088E691E10E943B236091381A7091391A62
:1057D000882777FD8095982F0F94FC1A20E030E001
:1057E00040EA50E40F9480199B01AC010FB6F89485
:1057F000DEBF0FBECDBF60912A1A70912B1A809127
:105800002C1A90912D1A0F945D1C87FD4FC060914A
:105810003A1A70913B1A882777FD8095982F0F943C
:10582000FC1A20E030E040EA50E40F9480199B011C
:10583000AC0160912E1A70912F1A8091301A9091BC
:10584000311A0F945D1C87FD31C08091A60E88230C
:1058500069F165E174E084E09BE10F94D3166DE19A
:1058600074E084E09BE10F94D31680915E0289344A
:1058700009F041C045E753E06BE070E088E691E154
:105880000E943B2320E030E043E150E06AE070E01A
:1058900088E691E10E94D32245E753E06BE070E097
:1058A00088E691E10E943B231092A60E0F942F11DF
:1058B00068517C4F8F4F9F4F60933A0C70933B0C15
:1058C00080933C0C90933D0C88E691E10E94EE2180
:1058D000D3950FB6F894DEBF0FBECDBFDF91CF9149
:1058E0001F910F91FF90EF90DF90CF90BF90AF90FE
:1058F0009F908F9008958235A9F448EB53E06BE0B8
:1059000070E088E691E10E943B2320E030E043E133
:1059100050E06AE070E088E691E10E94D32248EB13
:1059200053E0BCCF4AEF53E06BE070E088E691E1D2
:105930000E943B2320E030E043E150E06AE070E069
:1059400088E691E10E94D322AFCF80917B0C9091A9
:105950007C0C60E070E001960D94AE2080917B0C91
:1059600090917C0C4AE050E060E070E001960D946C
:105970001F22682F772767FD70952091850C309145
:10598000860C40E6429FC001439F900D112485572D
:10599000934F0F94BD2390937C0C80937B0C21E05C
:1059A000892B09F420E0822F0895CF92DF92EF92A5
:1059B000FF92892B31F4FF90EF90DF90CF900C9401
:1059C0007526C0901E02D0901F02E0902002F09039
:1059D000210220E030E0A901C701B6010F945D1C4F
:1059E000181644F083E3C82E83EFD82E87E9E82EFB
:1059F00083E4F82EC701B601FF90EF90DF90CF90BF
:105A000008958F929F92AF92BF92CF92DF92EF92C2
:105A1000FF920F931F93CF93DF93009709F0CEC0AF
:105A20002091440E222329F1822F90E00E94D52C50
:105A30006093770E7093780E8093790E90937A0E20
:105A400010924F0E1092500E1092510E1092520E54
:105A500080911E0290911F02A0912002B09121021C
:105A60008093320290933302A0933402B0933502B4
:105A7000E9C020910E0230910F022230310509F069
:105A80009DC080E19FE00E949F2420915B0E309199
:105A90005C0E40915D0E50915E0E0F9481196093E3
:105AA000770E7093780E8093790E90937A0E88E239
:105AB0009FE00E949F2420915B0E30915C0E4091EC
:105AC0005D0E50915E0E0F94811960934F0E70938E
:105AD000500E8093510E9093520E8CE19FE00E94E5
