:100000000C9425160C9456160C9456160C945616F1
:100010000C9456160C9456160C9456160C945616B0
:100020000C9456160C9456160C9456160C945616A0
:100030000C9456160C9456160C9456160C94561690
:100040000C9456160D94E58D0C9456160C94561679
:100050000C9456160C9456160D94DBAB0D94A0B26E
:100060000C9456160D94D0B60D9406B70C945616F3
:100070000C9456160C9456160C9456160C94561650
:100080000C9456160C9456160C9456160C94561640
:100090000C9456160C9456160C9456160C9419176C
:1000A0000C9456160C9456160C9456160C94561620
:1000B0000C9456160C9456160C9456160C94561610
:1000C0000C9456160C9456160C9456160D947BB739
:1000D0000D94B1B70C9456160C9456160C945616F3
:1000E0000C94561609011F01F1002F01CF00F300F7
:1000F000DB00FB001101EF003101C700F90007012F
:100100000D01C90025011701E500EB0021013301B4
:1001100019012D01E10025010B01DD00E7000301BC
:100120003701D9001B0105013901D1002B01ED0078
:100130001D0123013B01F50013013901FF002901D5
:100140000F01084AD73B3BCE016E84BCBFFDC12FD7
:100150003D6C74319ABD56833DDA3D00C77F11BEB8
:10016000D9E4BB4C3E916BAAAABE000000803F05BB
:10017000A84CCDB2D44EB93836A9020C50B99186EC
:1001800088083CA6AAAA2ABE000000803F000D9461
:10019000D6B30D94F4B30D946BB50D940AB60D94CB
:1001A000B3AC0D9496B40D944F4E0D94E9B50D94E7
:1001B0008DB50D9481B40D94DAAC0D9459B40D94B1
:1001C00079B50D9445B40D9433B80D9406B40D94DF
:1001D00063B40D94DAB70D940EB40D94A0B40D94DD
:1001E000E0AC0D948CAC0D94C0AC0D94B2B40D94F5
:1001F00093880D94DBB30D94DCAC0D94E3B70D94B0
:10020000BCB40D9438B70D948FB40D948BB40D9489
:10021000E0B30D9463AC0D944FB40D94EAB30D9418
:10022000C4B40D94DEAC0D94B6B40D94374E0D9459
:10023000FEB30D942CB40D9485B40D94A4B40D9418
:1002400070AC0D9418B40D94A8B40D946DB40D94C5
:100250002FB70D94C0B40D949AB40D943BB40D9483
:1002600099AC0D94E8AC0D9422B40D9460B50D9446
:1002700092B40D94C9B40D94AEB44D3834205820C6
:1002800059205A2045004D313037005430004D314F
:1002900030370043616E6E6F7420656E7465722036
:1002A0007375626469723A20005341564544205088
:1002B00052494E54004D3234004D323320257300E4
:1002C0006175746F25692E67006572726F72207791
:1002D000726974696E6720746F2066696C65004E80
:1002E0006F74205344207072696E74696E67002FBA
:1002F000005344207072696E74696E67206279746D
:100300006520002E0044656C6574696F6E2066611F
:10031000696C65642C2046696C653A200046696CFE
:10032000652064656C657465643A002E006F7065C5
:100330006E206661696C65642C2046696C653A20A4
:100340000057726974696E6720746F2066696C6506
:100350003A20002E006F70656E206661696C6564DE
:100360002C2046696C653A20002E006F70656E2067
:100370006661696C65642C2046696C653A200046AC
:10038000696C652073656C656374656400205369EE
:100390007A653A200046696C65206F70656E656409
:1003A0003A20002E006F70656E206661696C65648E
:1003B0002C2046696C653A20004E6F772066726586
:1003C00073682066696C653A20004E6F7720646F11
:1003D000696E672066696C653A20002220706F7331
:1003E000002220706172656E743A220053554252A9
:1003F0004F5554494E452043414C4C20746172671F
:1004000065743A2200747279696E6720746F206394
:10041000616C6C207375622D67636F64652066691B
:100420006C6573207769746820746F6F206D616EDE
:1004300079206C6576656C732E204D4158206C6573
:1004400076656C2069733A007A70726F62653A2043
:100450000053442063617264206F6B006F70656E9F
:10046000526F6F74206661696C656400766F6C759D
:100470006D652E696E6974206661696C65640053F0
:100480004420696E6974206661696C006563686FF9
:100490003A004572726F723A0053554343455353C5
:1004A0000056616C756573206F7574206F662072DD
:1004B000616E67650056616C756573206F75742099
:1004C0006F662072616E67650056616C756573209A
:1004D0006F7574206F662072616E67650056616C7F
:1004E000756573206F7574206F662072616E676525
:1004F00000535543434553530056616C7565732053
:100500006F7574206F662072616E67650056616C4E
:10051000756573206F7574206F662072616E6765F4
:100520000056616C756573206F7574206F6620725C
:10053000616E67650056616C756573206F75742018
:100540006F662072616E676500535441544953547D
:100550004943532052455345540048617264636FC8
:100560006465642043616C696220616E6420504957
:10057000442044656661756C742053657474696EBB
:100580006773204C6F616465640048617264636FD7
:100590006465642044656661756C74205365747489
:1005A000696E6773204C6F616465640053746F7289
:1005B00065642073657474696E6773207265747204
:1005C0006965766564002C2073617665645F666595
:1005D0006564726174653A20002C207361766564ED
:1005E0005F66616E6C617965723A20002C207361E0
:1005F0007665645F74656D706265643A20002C20D6
:1006000073617665645F74656D70303A20002C20EC
:1006100073617665645F74656D70313A20002C20DB
:1006200073617665645F66696C65706F7369746920
:100630006F6E3A20002C2073617665645F655F7091
:100640006F736974696F6E3A20002C207361766550
:10065000645F746F6F6C5F6163746976653A2000E4
:100660002C2073617665645F7A5F706F736974695B
:100670006F6E3A20002C2073617665645F795F703D
:100680006F736974696F6E3A20002C207361766510
:10069000645F785F706F736974696F6E3A2000539E
:1006A000415645205052494E54204C4F473A002065
:1006B0004D696E75746573203A00204C6173742027
:1006C0007072696E742074696D652D3E20486F7577
:1006D0007273203A004C617374207072696E7420DA
:1006E0006475726174696F6E002C2054686972645D
:1006F000204944206E756D62657220002C20536580
:10070000636F6E64204944206E756D6265723A2095
:1007100000204669727374204944206E756D6265CD
:10072000723A2000554920496E666F726D61746996
:100730006F6E2053657269616C204E756D626572D3
:100740003A00206D2C204531207072696E7420644F
:10075000697374616E63653A2000206B6D2C2045CF
:1007600030207072696E742064697374616E6365A1
:100770003A2000206B6D2C2059207072696E742015
:1007800064697374616E63653A2000206B6D2C2080
:100790005831207072696E742064697374616E637D
:1007A000653A200020432C0A205830207072696E70
:1007B000742064697374616E63653A200020432C71
:1007C000206D61782074656D7020423A20002043CE
:1007D0002C206D61782074656D7020523A20002CB9
:1007E000206D61782074656D70204C3A2000682C73
:1007F000207072696E74732066696E6973686564CF
:100800003A20002C207072696E74696E67207469DA
:100810006D653A2000207072696E74733A2000533F
:10082000544154533A0020432C20525F5052494EB9
:10083000543A200020432C20525F4245443A200085
:1008400020432C20525F52454D4F56453A20002000
:10085000525F494E534552543A200054656D702002
:100860002843293A0020432C204C5F5052494E54D3
:100870003A200020432C204C5F4245443A2000207F
:10088000432C204C5F52454D4F56453A2000204C9A
:100890005F494E534552543A200054656D702028EC
:1008A00043293A00204265642072696768742073A6
:1008B00063726577200020426564206C6566742051
:1008C00073637265772000426564204F66667365C6
:1008D000747320286D6D293A00205A2070726F625F
:1008E0006500205A200020592000205820004F6623
:1008F000667365747320286D6D293A0020440020CA
:100900004900202D204D3330312052494748542092
:100910005000204400204900204D333031204C4508
:1009200046542050005049442073657474696E67C2
:10093000733A00205A0020590020204D32303620D2
:100940005800486F6D65206F666673657420286D6A
:100950006D293A00204500205A002058002042000E
:1009600020540020204D3230352053004164766100
:100970006E636564207661726961626C65733A20AA
:10098000533D4D696E20666565647261746520280B
:100990006D6D2F73292C20543D4D696E207472614A
:1009A00076656C20666565647261746520286D6D7E
:1009B0002F73292C20423D6D696E696D756D207312
:1009C00065676D656E742074696D6520286D732987
:1009D0002C20583D6D6178696D756D205859206ADD
:1009E00065726B20286D6D2F73292C20205A3D6D68
:1009F0006178696D756D205A206A65726B20286D6B
:100A00006D2F73292C2020453D6D6178696D756DC2
:100A10002045206A65726B20286D6D2F7329002098
:100A2000540020204D323034205300416363656C04
:100A300065726174696F6E3A20533D616363656CE2
:100A400065726174696F6E2C20543D7265747261B9
:100A5000637420616363656C65726174696F6E00B5
:100A6000204500205A0020590020204D32303120EE
:100A700058004D6178696D756D20416363656C65E3
:100A8000726174696F6E20286D6D2F7332293A0080
:100A9000204500205A0020590020204D32303320BC
:100AA00058004D6178696D756D2066656564726189
:100AB00074657320286D6D2F73293A00204500203E
:100AC0005A0020590020204D3932205800537465B7
:100AD00070732070657220756E69743A0053657486
:100AE00074696E67732053746F7265640065636820
:100AF0006F3A00204500205A00205900483D580018
:100B000045787472756465722072656C6561736591
:100B100064206163746976653A20005A205349471E
:100B20004D4120486F6D6564004578747275646549
:100B300072206163746976653A20005072696E7440
:100B400065722068616C7465642E206B696C6C281A
:100B5000292063616C6C65642100436F6F6C696E62
:100B60006720446F776E20486561746572006F6B13
:100B700000526573656E643A2000504F53495449E2
:100B80004F4E20484F4D453A200054696D6520690D
:100B90006E6163746976650050757267652064697B
:100BA0007374616E636500486F74656E64206F6670
:100BB00066736574733A005A204F666673657420D5
:100BC0003A20007A5F6D61783A20007A5F6D696E35
:100BD0003A20005A204F6666736574005A204F66AB
:100BE00066736574206F6B004E6F74207072696E4F
:100BF00074207265636F766572792075700050722B
:100C0000696E74207265636F766572792075700005
:100C1000486F74656E64206F6666736574733A001E
:100C20007A5F6D696E3A2000795F6D61783A2000D5
:100C3000785F6D61783A2000785F6D696E3A2000C8
:100C4000205A3A0020593A0020436F756E7420589C
:100C50003A200020453A00205A3A0020593A0058DC
:100C60003A004649524D574152455F4E414D453A33
:100C70004D61726C696E2056313B20537072696E03
:100C80007465722F6772626C206D61736875702075
:100C9000666F722067656E36204649524D57415245
:100CA000455F55524C3A68747470733A2F2F6769D8
:100CB000746875622E636F6D2F4572696B5A616C33
:100CC0006D2F4D61726C696E2F2050524F544F43FF
:100CD0004F4C5F56455253494F4E3A312E30204DBE
:100CE000414348494E455F545950453A4D656E64FD
:100CF000656C2045585452554445525F434F554EFC
:100D0000543A3220555549443A3030303030303042
:100D1000302D303030302D303030302D30303030DC
:100D20002D3030303030303030303030300A00420A
:100D30006564204865617465640020423A0020457E
:100D40003A00543A004578747275646572204865BB
:100D5000617465640020573A0020453A00543A0017
:100D60002042403A0020403A00202F003A00205410
:100D700000202F0020423A00202F006F6B20543AB1
:100D8000000A0A005374616E6461726420446576DF
:100D9000696174696F6E3A20000A004D65616E3AB0
:100DA00020000A002020207A3A200000793A200012
:100DB000783A20003F537065636966696564206E08
:100DC000756D626572206F66206C65677320696E51
:100DD000206D6F76656D656E74206E6F7420706C1B
:100DE00061757361626C652E0A003F5370656369BB
:100DF00066696564205920706F736974696F6E202D
:100E00006F7574206F662072616E67652E0A003FF1
:100E1000537065636966696564205820706F7369F3
:100E200074696F6E206F7574206F662072616E67D3
:100E3000652E0A003F5370656369666965642073B7
:100E4000616D706C652073697A65206E6F742070B7
:100E50006C61757361626C652E0A0046756C6C205E
:100E6000737570706F72742061743A206874747056
:100E70003A2F2F33647072696E74626F6172642EE0
:100E8000636F6D2F666F72756D2E7068700A004DFE
:100E90003438205A2D50726F62652052657065613A
:100EA000746162696C69747920746573742E202092
:100EB0002056657273696F6E20322E30300A003F03
:100EC000566572626F7365204C6576656C206E6F37
:100ED0007420706C61757361626C652E0A002569FF
:100EE000206D696E2C2025692073656300473238B8
:100EF00020583020593000627566666572206F7523
:100F0000743A2000427566666572313A200043618A
:100F10007264204E616D653A2000456E64206669FA
:100F20006C65206C69737400426567696E20666940
:100F30006C65206C697374000A00205A3A20002006
:100F4000593A200020583A2000426564004736395B
:100F500020414354495641544544000A0020616EE3
:100F60007469686F726172690A3A200020686F7252
:100F70006172690A20002F3800766F6C74657320E7
:100F80000020566F6C74657320636172676F6C200C
:100F9000333A200020616E7469686F726172690A69
:100FA0003A200020686F726172690A20002F3800B1
:100FB000766F6C746573200020566F6C74657320B7
:100FC000636172676F6C20323A20000A0020647AF5
:100FD000333A200020647A323A2000543000005620
:100FE000756974656E73333A2020004170726F78B2
:100FF000333A202000566F6C746573333A2020001A
:101000000056756974656E73323A20200041707223
:101010006F78323A202000566F6C746573323A2034
:10102000200056616C6F7220645A333A20200056BB
:10103000616C6F7220645A323A20200050726F62E5
:101040006520333A200050726F626520323A2000EA
:1010500050726F626520313A20005A76616C756576
:1010600020616674657220686F6D653A00486F6D27
:101070006520582F59206265666F7265205A002CD2
:10108000205A3A002C20593A0053657474696E67EF
:1010900020566563746F723320583A002C205A3AF8
:1010A000002C20593A0053657474696E67205665A8
:1010B00063746F723220583A002C205A3A002C2068
:1010C000593A0053657474696E6720566563746F8E
:1010D000723120583A000A00207A3A200020793AEA
:1010E000200020783A2000426564004578747275CB
:1010F000646572206163746976653A200043757295
:1011000072656E74205A206166746572207365740E
:1011100074696E673A20005265616C5F5A3A20002C
:1011200050726F626520333A200050726F62652002
:10113000323A200050726F626520313A20005A76B0
:10114000616C75652061667465723A005A76616CEF
:101150007565206265666F72653A005A76616C75D6
:10116000652061742073746172743A005A76616C00
:10117000756520616674657220686F6D653A004818
:101180006F6D6520582F59206265666F7265205A11
:10119000004572726F723A204C656674204578740F
:1011A0007275646572204D55535420424520414369
:1011B00054495645005374617274696E67205A2011
:1011C00043616C6962726174696F6E2057697A61FC
:1011D0007264004D38340057652061726520726575
:1011E00073746F72696E6720526574726163740004
:1011F0005374617274696E6720592043616C69622F
:10120000726174696F6E2057697A617264004D383B
:1012100034005374617274696E6720582043616CA6
:101220006962726174696F6E2057697A61726400D5
:1012300045787472756465722072656C656173655A
:1012400064206163746976653A20005A20534947E7
:101250004D4120486F6D6564004578747275646512
:1012600072206163746976653A20002200556E6BC6
:101270006E6F776E20636F6D6D616E643A20220031
:10128000504F534954494F4E20484F4D453A200046
:1012900020004D6F766520746F3A20002569206824
:1012A0006F757273202569206D696E7574657300A2
:1012B000446F6E65207072696E74696E672066692E
:1012C0006C65004D3333007061757365206465741F
:1012D0006563746564200A00473639005072696E90
:1012E0007465722073746F70706564206475652016
:1012F000746F206572726F72732E20466978207445
:101300006865206572726F7220616E642075736506
:10131000204D39393920746F20726573746172748D
:101320002E202854656D7065726174757265206930
:10133000732072657365742E205365742069742060
:1013400061667465722072657374617274696E6728
:1013500029006F6B004E6F204C696E65204E756DD5
:10136000626572207769746820636865636B737562
:101370006D2C204C617374204C696E653A20004ED0
:101380006F20436865636B73756D2077697468209F
:101390006C696E65206E756D6265722C204C617390
:1013A00074204C696E653A2000636865636B7375E1
:1013B0006D206D69736D617463682C204C6173746A
:1013C000204C696E653A20004C696E65204E756D43
:1013D000626572206973206E6F74204C6173742093
:1013E0004C696E65204E756D6265722B312C204CF8
:1013F000617374204C696E653A20004D31313000C4
:101400004D383420582059205A20450053757266B3
:10141000696E672030200A0043616C6962726174F2
:10142000696F6E205375636365737366756C2C20EA
:10143000676F696E67206261636B20746F206D61F6
:10144000696E206D656E75200A0054300025642099
:101450006974656D73002564206974656D73004659
:101460006F726D203221002564206974656D7300F0
:101470002534643A252E326468202F2025646700C5
:101480002564206974656D73005265616479207408
:101490006F20496E736572742F52656D6F7665208B
:1014A0000A0074656D70206F6B200A002564252585
:1014B00000253364202563430025336420256343DE
:1014C00000253364256343202F202533642563439F
:1014D00000253364256343202F202533642563438F
:1014E00000253364256343202F202533642563437F
:1014F00000252033642025250025642068202564EC
:10150000206D002520336420252500253264202508
:10151000634300253364202563430025336420257D
:10152000634300526561647920746F20496E73656E
:1015300072742F52656D6F7665200A0074656D7048
:10154000206F6B200A002533642025634300253378
:101550006420256343002053544F50205052494E7D
:1015600054200A00473238205830205930004D337B
:101570003500526573756D652064657465637465C7
:1015800064200A0047373000EFBFBD524553554D28
:101590004521200A00EFBFBD504155534521200A87
:1015A00000253364202563430025336420256343ED
:1015B00000253364202563430025336420256343DD
:1015C00000253364202563430025336420256343CD
:1015D00000253364202563430025336420256343BD
:1015E0000025336420256343005052494E54205354
:1015F000455454494E4753200A00446F6E6520738A
:101600006176696E672066696C652E006F6B004DB0
:1016100032390067636F646520666F756E640042DF
:10162000434E3344205369676D6100737461727473
:101630000030312D312E322E335243002200656EA0
:10164000717565696E672022002200656E7175658F
:10165000696E672022002534643A252E32646820A2
:101660002F2025646700002534643A252E326468F3
:10167000202F2025646700002534643A252E32642B
:1016800068202F2025646700002534643A252E3217
:101690006468202F2025646700002534643A252ED5
:1016A000326468202F2025646700002533642025DC
:1016B0006343002533642025634300456E746572DF
:1016C00020696E207075726765206D6F6465200AF1
:1016D0000053757266696E672031200A0053757277
:1016E00066696E672030200A0047333400494E4651
:1016F0004F3A204245442043414C4942202D20008E
:1017000053757266696E672030200A0047323820B0
:1017100058302059300054300053757266696E6736
:101720002030200A00473433004734330047343137
:1017300000473430005431005430005431005430EC
:1017400000473433004734330047343100473430E6
:10175000004D3834004D3834004D3834005A3220B2
:101760004F66667365743A20004F4B207365636F54
:101770006E6420457874727564657221005A207019
:101780006F736974696F6E3A20005A20706F7369C5
:1017900074696F6E3A20004D3834005A312050720F
:1017A0006F6265206F66667365743A20004F4B2048
:1017B000666972737420457874727564657221204D
:1017C0000A005A20706F736974696F6E3A20005A6C
:1017D00020706F736974696F6E3A200043616C63A7
:1017E000756C75733A20200043616C63756C75737A
:1017F0003A20200043616C63756C75733A202000B9
:1018000043616C63756C75733A20200043616C63AF
:10181000756C75733A20200043616C63756C757349
:101820003A20200043616C63756C75733A20200088
:1018300043616C63756C75733A20200043616C637F
:10184000756C75733A20200043616C63756C757319
:101850003A20200043616C63756C75733A20200058
:1018600043616C63756C75733A20200043616C634F
:10187000756C75733A20200043616C63756C7573E9
:101880003A20200043616C63756C75733A20200028
:1018900043616C63756C75733A20200043616C631F
:1018A000756C75733A20200043616C63756C7573B9
:1018B0003A20200043616C63756C75733A202000F8
:1018C00043616C63756C75733A20200043616C63EF
:1018D000756C75733A20200043616C63756C757389
:1018E0003A20200043616C63756C75733A202000C8
:1018F00043616C63756C75733A20200043616C63BF
:10190000756C75733A20200043616C63756C757358
:101910003A20200043616C63756C75733A20200097
:1019200043616C63756C75733A20200043616C638E
:10193000756C75733A20200043616C63756C757328
:101940003A20200043616C63756C75733A20200067
:1019500043616C63756C75733A20200043616C635E
:10196000756C75733A20200043616C63756C7573F8
:101970003A20200046696C616D656E742052656D79
:101980006F7665642C20474F494E4720544F2043C3
:101990004C45414E20544845204E4F5A5A4C452004
:1019A0000A0046696C616D656E7420496E736572DC
:1019B0007465642F52656D6F7665642C2072657452
:1019C00075726E696E6720746F204D61696E204D6F
:1019D000656E75200A0054300046696C616D656E55
:1019E0007420496E7365727465642F52656D6F76ED
:1019F00065642C20676F696E6720746F2043616C8B
:101A00006962200A0054300046696C616D656E742D
:101A100020496E7365727465642F52656D6F7665CB
:101A2000642C20676F696E6720746F20746865206E
:101A30006E657874206578747275646572200A002A
:101A400054300043616C6962726174696F6E205337
:101A500075636365737366756C2C20676F696E6759
:101A6000206261636B20746F206D61696E206D650B
:101A70006E75200A005430004A756D70206F7665CF
:101A8000722073637265773120616E6420736372B4
:101A9000657732200A004A756D70206F7665722076
:101AA000736372657731200A00473334004733345B
:101AB000004733340054300047333400494E464F1A
:101AC0003A204245442043414C4942202D200036D3
:101AD000302064656772656573200A00496E73651E
:101AE0007274696E67203A2020200A00537572666E
:101AF000696E672030200A0053757266696E672030
:101B000030200A0053757266696E672030200A0023
:101B10002533642025634300253364202563430077
:101B20002533642025634300456E74657220696E19
:101B3000207075726765206D6F6465200A0025331B
:101B40006420256343002533642025634300253347
:101B50006420256343002533642025634300253337
:101B60006420256343002533642025634300253327
:101B700064202563430025336420256343004669C0
:101B80006C616D656E742052656D6F7665642C2096
:101B9000474F494E4720544F20434C45414E205417
:101BA0004845204E4F5A5A4C45200A0053757266DC
:101BB000696E672030200A0053757266696E67206F
:101BC00030200A0054300054652070696C6C650048
:101BD0004D33340053757266696E672030200A00F9
:101BE0004D3234004D3233202573005375726669CF
:101BF0006E672030200A0053656C656374203400E2
:101C000053656C65637420330053656C65637420A1
:101C1000320053656C65637420310053656C6563F5
:101C20007420300053757266696E672030200A0098
:101C300053554343455353200A00253364202563FD
:101C40004300253364202563430025336420256346
:101C50004300253364202563430025336420256336
:101C60004300253364202563430025336420256326
:101C70004300253364202563430025336420256316
:101C80004300496E73657274696E67203A202020A4
:101C90000A0025336420256343002533642025632F
:101CA00043002533642025634300456E746572202C
:101CB000696E207075726765206D6F6465200A001B
:101CC000FF01FF0000A0400000A04000000040CD48
:101CD000CC98430080934300005243000000000072
:101CE00080934300000000CDCC98430080934300D4
:101CF00000524300000000000000000000000065EA
:101D000063686F3A004572726F723A0020636F6CBD
:101D10006420657874727573696F6E207072657671
:101D2000656E746564006563686F3A003B2020202F
:101D3000506C6173746963207765696768743A20D1
:101D400025642E256467003B46696C616D656E7481
:101D500020757365643A2025642E25646D20256402
:101D60002E256467003B2020204275696C64207436
:101D7000696D653A20256420686F7572202564209E
:101D80006D696E757465003B2020204275696C6436
:101D90002074696D653A20256420686F757220256E
:101DA00064206D696E75746573003B202020427558
:101DB000696C642074696D653A20256420686F75CC
:101DC0007273202564206D696E757465003B202058
:101DD000204275696C642074696D653A2025642021
:101DE000686F757273202564206D696E75746573F4
:101DF000003B5072696E742074696D653A202564E9
:101E0000206D696E75746573003B5072696E742045
:101E100074696D653A20256420686F7572202564A9
:101E2000206D696E75746573003B5072696E742025
:101E300074696D653A20256420686F75727320257A
:101E400064206D696E75746573003B5072696E74C1
:101E50002074696D653A20256420646179732025BA
:101E60006420686F7572202564206D696E757465D5
:101E700073003B5072696E742074696D653A202559
:101E8000642064617920256420686F757220256460
:101E9000206D696E75746573003B5072696E7420B5
:101EA00074696D653A202564206461792025642079
:101EB000686F757273202564206D696E7574657323
:101EC000003B5072696E742074696D653A20256418
:101ED000206461797320256420686F7572732025F2
:101EE00064206D696E75746573003B20472D436FE8
:101EF00064652067656E657261746564206279202F
:101F000053696D706C69667933442852292056658F
:101F10007273696F6E202564007C3C3E5E2B3D3FF2
:101F20002F5B5D3B2C2A225C00205A3A0020593A54
:101F30000020583A00656E6473746F70732068698E
:101F4000743A200024F4D43050C38E20C2A240172B
:101F5000828B7011127A910D816CD90AA861E10807
:101F6000C7586607615143061E4B5D05C145A7046E
:101F70001A411104093D9803713931034036DB02DF
:101F800065339102D4305402802E1D02632CEE0181
:101F9000752AC501B028A001102781018F25640191
:101FA0002B244B01E0223401AC211F018D200D01B7
:101FB000801FFC00841EED00971DDF00B81CD200BE
:101FC000E61BC600201BBC00641AB200B219A800B0
:101FD0000A19A0006A189900D117910040178B00C8
:101FE000B516840031167E00B31579003A157300DA
:101FF000C7146F0058146A00EE136600881363005C
:1020000025135E00C7125B006C12570015125400B6
:10201000C111510070114F0021114B00D610490021
:102020008D1047004610440002104200C00F4000CF
:10203000800F3E00420F3C00060F3B00CB0E3800E5
:10204000930E37005C0E3500270E3400F30D32007E
:10205000C10D3100900D3000600D2E00320D2D00AD
:10206000050D2C00D90C2B00AE0C2900850C290085
:102070005C0C2700350C27000E0C2600E80B240012
:10208000C40B2400A00B23007D0B23005A0B21005E
:10209000390B2100180B2000F80A1F00D90A1E0076
:1020A000BB0A1E009D0A1D00800A1D00630A1C0059
:1020B000470A1B002C0A1B00110A1A00F7091A0014
:1020C000DD091900C4091900AB09190092091700AC
:1020D0007B091800630917004C0916003609160021
:1020E000200916000A091500F5081500E00814007B
:1020F000CC081400B8081400A408140090081300B9
:102100007D0812006B0813005808120046081200E0
:1021100034081100230811001208110001081100F1
:10212000F0071000E0071000D0071000C0071000F3
:10213000B0070F00A107100091070E0083070F00E2
:1021400074070F0065070E0057070E0049070E00C1
:102150003B070D002E070E0020070D0013070D0092
:1021600006070D00F9060C00ED060D00E0060C0058
:10217000D4060C00C8060C00BC060C00B0060C000F
:10218000A4060B0099060C008D060B0082060B00BE
:1021900077060B006C060B0061060A0057060B0061
:1021A0004C060A0042060A0038060A002E060A00FB
:1021B00024060A001A060A001006090007060A008B
:1021C000FD050900F4050900EB050900E205090019
:1021D000D9050900D0050900C7050900BE05090099
:1021E000B5050800AD050800A50509009C05080017
:1021F000940508008C050800840508007C0508008B
:10220000740508006C050700650508005D050700FA
:10221000560508004E050700470507004005080061
:1022200038050700310507002A05070023050700C8
:102230001C050600160507000F0507000805060027
:1022400002050700FB040600F5040700EE04060083
:10225000E8040600E2040700DB040600D5040600DB
:10226000CF040600C9040600C3040600BD0406002E
:10227000B7040600B1040500AC040600A60406007D
:10228000A00405009B0406009504050090040600C8
:102290008A04050085040500800406007A04050010
:1022A00075040500700405006B0405006604050054
:1022B000610405005C040500570405005204050094
:1022C0004D04050048040500430405003E040400D5
:1022D0003A04050035040500300404002C04050010
:1022E00027040400230405001E0404001A0404004B
:1022F00016040500110404000D040400090405007F
:102300000404040000040400FC030400F8030400B7
:10231000F4030400F0030400EC030400E8030400E9
:10232000E4030400E0030400DC030400D803040019
:10233000D4030400D0030400CC030400C80303004A
:10234000C503030024F404D9201BC40C5C0E9804BC
:10235000C4095F0265077101F405F900FB04B300CD
:1023600048048700C1036900580355000303450072
:10237000BE023A008402310053022A0029022500DD
:1023800004022000E4011C00C8011900AF0117007D
:102390009801140084011300710110006101100004
:1023A00051010E0043010D0036010B002B010B0003
:1023B00020010B00150109000C01090003010800B0
:1023C000FB000800F3000800EB000700E400060033
:1023D000DE000600D8000600D2000600CC00050092
:1023E000C7000500C2000500BD000400B9000400DC
:1023F000B5000400B1000400AD000400A900040011
:10240000A5000300A20003009F0004009B0003003E
:102410009800030095000200930003009000030061
:102420008D0002008B00030088000200860002007D
:1024300084000300810002007F0002007D00020092
:102440007B000200790002007700010076000200A4
:102450007400020072000100710002006F000200AF
:102460006D0001006C0002006A00010069000200BA
:1024700067000100660001006500010064000200C1
:102480006200010061000100600001005F000200C5
:102490005D0001005C0001005B0001005A000100CA
:1024A00059000100580001005700010056000100CA
:1024B00055000100540001005300000053000100CA
:1024C0005200010051000100500001004F000100C6
:1024D0004E0000004E0001004D0001004C000100C4
:1024E0004B0000004B0001004A00010049000100C0
:1024F00048000000480001004700010046000000BD
:1025000046000100450000004500010044000100B4
:1025100043000000430001004200000042000100AF
:102520004100000041000100400001003F000000A8
:102530003F0001003E0000003E0001003D000000A1
:102540003D0001003C0000003C0000003C00010098
:102550003B0000003B0001003A0000003A0001008F
:102560003900000039000100380000003800000088
:10257000380001003700000037000100360000007D
:102580003600000036000100350000003500000074
:102590003500010034000000340000003400010068
:1025A000330000003300000033000100320000005F
:1025B0003200000032000100310000003100000054
:1025C0003100010030000000300000003000010048
:1025D0002F0000002F0000002F0000002F0001003E
:1025E0002E0000002E0000002E0001002D00000033
:1025F0002D0000002D0000002D0001002C00000027
:102600002C0000002C0000002C0001002B0000001A
:102610002B0000002B0000002B0001002A0000000E
:102620002A0000002A0000002A0001002900000002
:1026300029000000290000002900000029000100F5
:1026400028000000280000002800000028000000EA
:1026500028000100270000002700000027000000DC
:1026600027000000270001002600000026000000CF
:1026700026000000260000002600010025000000C2
:1026800025000000250000002500000025000000B6
:1026900025000100240000002400000024000000A8
:1026A000240000002400010023000000230000009B
:1026B000230000002300000023000000230000008E
:1026C0002300010022000000220000002200000080
:1026D0002200000022000000220001002100000072
:1026E0002100000021000000210000002100000066
:1026F0002100000021000100200000002000000057
:102700002000000020000000200000002000000049
:1027100020000000200001001F0000001F0000003A
:102720001F0000001F0000001F0000001F0000002D
:102730001F0001001E0000001E0000001E0000001F
:102740001E0000006563686F3A0048797374657213
:10275000657369732074656D7065726174757265F7
:1027600000546865726D616C2072756E6177617975
:102770002070726F74656374696F6E20627920488F
:1027800065617465725F49443A002053544F50208C
:102790005052494E54200A002053544F502050525A
:1027A000494E54200A002053544F50205052494E55
:1027B00054200A004572726F72283833293A204239
:1027C000656420746865726D6973746F72206E6FD2
:1027D00074206465746563746564004572726F7219
:1027E000283832293A205269676874207468657203
:1027F0006D6973746F72206E6F74206465746563A5
:10280000746564004572726F72283831293A204C21
:1028100065667420746865726D6973746F72206E7A
:102820006F74202064657465637465640050494466
:10283000204175746F74756E652066696E69736882
:1028400065642100504944204175746F74756E654C
:10285000206661696C6564212074696D656F7574AB
:102860000020403A006F6B20543A006F6B20423AD0
:1028700000504944204175746F74756E652066611F
:10288000696C6564212054656D7065726174757240
:102890006520746F6F206869676800204B643A2078
:1028A00000204B693A2000204B703A200020436CF6
:1028B00061737369632050494420002054753A20A5
:1028C00000204B753A2000206D61783A2000206D81
:1028D000696E3A200020643A200020626961733AF0
:1028E0002000504944204175746F74756E652066F0
:1028F000696E697368656421205075742074686519
:10290000206C617374204B702C204B6920616E64C5
:10291000204B6420636F6E7374616E7473206672F3
:102920006F6D2061626F766520696E746F20436FF2
:102930006E66696775726174696F6E2E68005049C2
:1029400044204175746F74756E65206661696C65AD
:1029500064212074696D656F75740020403A006FC2
:102960006B20543A006F6B20423A0050494420419A
:1029700075746F74756E65206661696C656421207D
:1029800054656D706572617475726520746F6F2027
:102990006869676800204B643A2000204B693A2040
:1029A00000204B703A200020436C617373696320F0
:1029B00050494420002054753A2000204B753A209D
:1029C00000206D61783A2000206D696E3A20002069
:1029D000643A200020626961733A20004572726F88
:1029E000723A0070012C0190012701B0012201C050
:1029F000011D01F00118011002130130020E0160E7
:102A000002090190020401C002FF000003FA004025
:102A100003F5008003F000D003EB002004E6007013
:102A200004E100E004DC004005D700C005D200400E
:102A300006CD00D006C8008007C3003008BE00F0F5
:102A400008B900C009B400B00AAF00B00BAA00D0AA
:102A50000CA500000EA000500F9B00C01096005067
:102A600012910000148C00C0158700B0178200B0CE
:102A7000197D00D01B7800001E730040206E00906E
:102A8000226900F024640040275F0090295A00E08A
:102A90002B5500102E500020304B0010324600E025
:102AA00033410090353C001037370070383200A0B9
:102AB000392D00B03A2800A03B2300603C1E0010D6
:102AC0003D1900903D1400103E0F00703E0A00C0FA
:102AD0003E0500003F000000000A0B02090C0D0E2D
:102AE00008070304010000000000000000000000CF
:102AF00000000000000000000000000000000000D6
:102B00000000001211100000000000000000000092
:102B100000000000000000000000000000010210A2
:102B200020200808102040102040800201020108E7
:102B30000402010102040810204080804020100897
:102B400004020180040201804020100804020108F0
:102B50000402010102040810204080010204081050
:102B6000204080050505050705080808080202023F
:102B7000020A0A0808040404040101010101010118
:102B8000010303030303030303040707070C0C0CEF
:102B90000C0C0C0C0C0202020206060606060606C7
:102BA000060B0B0B0B0B0B0B0B000020002300265E
:102BB0000029002C002F0032000001000003010654
:102BC00001090100002200250028002B002E003101
:102BD00000340002010000050108010B0100002182
:102BE00000240027002A002D0030003300010100DE
:102BF00000040107010A014E414E494E495459490A
:102C00004E46CDCCCC3D0AD7233C17B7D13877CC34
:102C10002B329595E6241FB14F0A00002041000099
:102C2000C84200401C4620BCBE4CCA1B0E5AAEC552
:102C30009D746364696E6F70737578585B00ED16F0
:102C4000B54415010101FD00D30011241FBECFEFD3
:102C5000D1E2DEBFCDBF00E00CBF17E0A0E0B2E0E4
:102C6000ECE4FAE903E00BBF02C007900D92A23337
:102C7000B107D9F72AE1A2E3B7E001C01D92A23162
:102C8000B207E1F71CE2C8E4DCE200E006C02297EC
:102C90000109FE010BBF0F9462C1CE33D10780E062
:102CA0000807A9F70F9427B80D9414CD0C940000D1
:102CB0008091610790E020916207821B910908953D
:102CC0002091620780916107281750F4E22FF0E00D
:102CD000ED59F84F808190E02F5F209362070895AF
:102CE0008FEF9FEF0895E091620780916107E817E9
:102CF00030F4F0E0ED59F84F808190E008958FEFC7
:102D00009FEF08950895CF92DF92EF92FF920F9375
:102D10001F93CF93DF937C01CB018A0120913E0763
:102D2000222389F0EB016B01C40ED51ECC15DD0505
:102D300061F06991D701ED91FC910190F081E02D56
:102D4000C7011995F3CF642F4BD0C801DF91CF9104
:102D50001F910F91FF90EF90DF90CF900895CF9348
:102D6000DF931F92CDB7DEB7698320913E07222300
:102D7000D1F020913F07203240F021E030E0FC010B
:102D80003383228380E090E014C080914007E82FD5
:102D9000F0E0EF5BF84F998190838F5F809340075D
:102DA00080933F0704C061E0CE01019619D081E015
:102DB00090E00F90DF91CF910895FC011382128271
:102DC00048EE53E060E070E0448355836683778388
:102DD00082E593E091838083089582E397E0EDCFCD
:102DE000613298F42091F007243089F46093A507AC
:102DF000FC0187EA97E0DC012A2F281B261718F42C
:102E000021912D93F9CF80E0089581E0089582E02B
:102E1000089585ED8093BC008091BC0084FDFCCFBB
:102E20001092F007089585EC8093BC001092F00793
:102E300008951F920F920FB60F9211240BB60F92A6
:102E40002F933F934F935F936F937F938F939F93B2
:102E5000AF93BF93EF93FF938091B900887F803643
:102E600009F49DC070F5883209F45CC090F480319B
:102E700009F455C038F4882309F4F3C0883009F404
:102E80004EC0F2C0883109F44DC0803209F45EC0F2
:102E9000EBC0803409F469C050F4803309F456C0A3
:102EA000883309F0E1C080938307BDDFDDC0803542
:102EB00009F44FC0883509F45DC0883409F0D4C0E6
:102EC000D2C0883909F4C3C0A8F4883709F467C0B0
:102ED00038F4883609F463C0803709F460C0C4C090
:102EE000883809F4B4C0803909F45FC0803809F02B
:102EF000BBC05BC0803B09F482C038F4803A09F45F
:102F000066C0883A09F47BC0AFC0803C09F4A3C016
:102F1000883C09F4A0C0883B09F486C0A5C0809114
:102F2000EF0710C09091C8078091C707981770F5F8
:102F3000E091C80781E08E0F8093C807F0E0E75367
:102F4000F84F80818093BB0085EC82C0809383071B
:102F50008AC0E091C80781E08E0F8093C8078091F6
:102F6000BB00F0E0E753F84F80839091C807809151
:102F7000C7076AC0E091C80781E08E0F8093C80739
:102F80008091BB00F0E0E753F84F80838091EE071B
:102F9000811169C081E08093ED0784EA5DC083E020
:102FA0008093F00710928407CFCF809184078032FE
:102FB00008F04DC0E091840781E08E0F8093840774
:102FC0008091BB00F0E0EB57F84F8083BDCF2BDF43
:102FD00080918407803230F4E0918407F0E0EB5771
:102FE000F84F10826091840770E0E091E907F0915A
:102FF000EA0785E897E019951092840735C084E0C8
:103000008093F0071092A6071092A507E091EB07B6
:10301000F091EC0719958091A507811105C081E019
:103020008093A5071092A707E091A60781E08E0F75
:103030008093A607F0E0E955F84F80818093BB00AC
:103040009091A6078091A507981708F47DCF85E891
:103050008093BC0009C085EC8093BC001092F007FF
:1030600003C010928307D5DEFF91EF91BF91AF911E
:103070009F918F917F916F915F914F913F912F9190
:103080000F900BBE0F900FBE0F901F90189540E051
:1030900050E0BA010D942E83FC0114821782138232
:1030A00012828AE096E0918380830895DC01ED919D
:1030B000FC910190F081E02D19942AE036E0FC01AA
:1030C000318320832781222319F004960D941184E3
:1030D0000895CF92DF92EF92FF920F931F93CF93B9
:1030E000DF93EC01895A9F4FD7DFCE0188589F4F5D
:1030F000D3DF7E0127E9E20EF11C87016E0133E385
:10310000C31A3EEFD30AC801C7DF015E1F4F0C157B
:103110001D05C9F7FE01E153FE4F89E18183148249
:103120003596178ACE018E509E4FB6DFFE01ED55C3
:10313000FD4F108211821282138238961082118202
:10314000128213821A821B821C82188219826E01DB
:1031500089E5C81A8DEFD80AF60110821182128211
:103160001382F80111821082FE01EF5EFD4F108282
:1031700086E391E0F7019C01119221503040E1F784
:10318000FE01E155FD4F81E08083CB5ADF4F19826C
:1031900018820F94EAB268577C4E8F4F9F4FF6010A
:1031A0006083718382839383DF91CF911F910F910D
:1031B000FF90EF90DF90CF900895FC0120E03EE279
:1031C000DB014C91403241F0283011F430833196CC
:1031D000DB014C91408331962F5F6F5F7F4F2B3027
:1031E00079F7108208952BE1FB013496DC011496E7
:1031F00001900D922A95E1F7FB0122813381FC01B8
:10320000338322832AE036E03183208308952F928E
:103210003F924F925F926F927F928F929F92AF9266
:10322000BF92CF92DF92EF92FF920F931F93CF93B3
:10323000DF93CDB7DEB7CA58D1090FB6F894DEBF19
:103240000FBECDBF8C016B017A01CA57DF4F1882C8
:10325000C658D04084E0E80EF11C180192E1290E16
:10326000311CF801EC5AFF4FC957DF4FF983E8834F
:10327000C758D0403801F5E06F0E711C580180E549
:10328000A81A8DEFB80A48019EE4891A9DEF990AA1
:1032900080E4482E512C4C0E5D1EE4E04E0E511C75
:1032A000A101BE016F5F7F4FC7010F947B8218168B
:1032B0000CF00BC12C85322F3871303109F097C0DA
:1032C000F501808191810197029708F490C0BE01B9
:1032D0006F5F7F4FCE0187589F4F6FDFA0961FAE65
:1032E000A097F6018081811107C06EE573E0CE01E1
:1032F000815A9F4F0F948CC6B601CE01815A9F4FC1
:103300000F948CC6BE0167587F4FCE01815A9F4FE4
:103310000F948CC66EE573E0CE01815A9F4F0F94D7
:103320008CC6CE01805C9F4FB7DE21E0AE014758CE
:103330005F4FB701C2010F940886811142C0F501A9
:1033400080819181892B09F03CC0ECE8F4E0649124
:103350009F016623F9F0772767FD709582ED98E16C
:10336000C757DF4F2883C958D040C657DF4F38832F
:10337000CA58D0409BDEC757DF4F2881C958D0407C
:10338000C657DF4F3881CA58D0402F5F3F4FF901F1
:103390006491DFCF60E673E082ED98E10F9471B83D
:1033A0006AE070E082ED98E181DEBE0167587F4FF0
:1033B00082ED98E10F9471B86AE070E082ED98E1D7
:1033C00075DEBE01605C7F4FCE0181960CDFAE01E1
:1033D0004F5D5F4FBE01615A7F4FC80118DFCE01BC
:1033E00081966BDECE01805C9F4F67DE59CF89816D
:1033F000882309F46AC0853E09F452CF8E3209F45D
:103400004FCF8F3509F44CCFF8018289882331F0F2
:103410008E3209F445CF8F3509F442CF23FD40CFDA
:1034200081E0303109F080E0C957DF4FE881F98150
:10343000C758D0408083811108C08985873409F03E
:103440002FCF8A858E3709F42BCFBE016F5F7F4F58
:10345000C301B3DEF50180819181009781F4B6014B
:1034600082ED98E10F9471B8B30182ED98E10F9469
:1034700071B86AE070E082ED98E118DE11CF81301A
:10348000910539F4F40180819181019691838083C3
:1034900007CF029709F004CFCA57DF4FF881C6580B
:1034A000D0402F2F30E0F401808191812817390717
:1034B00061F0CA57DF4FF881C658D040FF5FCA5746
:1034C000DF4FF883C658D040EBCEC657DF4F0FB65C
:1034D000F894DEBF0FBECDBFDF91CF911F910F914A
:1034E000FF90EF90DF90CF90BF90AF909F908F9024
:1034F0007F906F905F904F903F902F9008950F9323
:103500001F93CF93DF93CDB7DEB76F970FB6F894C5
:10351000DEBF0FBECDBF8C01FC01E055FD4F118217
:103520001082855A9F4FB3DDB801695A7F4FCE0193
:10353000019659DEAE014F5F5F4F64E277E0C8014C
:1035400066DECE010196B9DD6F960FB6F894DEBF48
:103550000FBECDBFDF91CF911F910F9108952BE149
:10356000FB013496DC01149601900D922A95E1F747
:10357000FB0122813381FC01338322830895EF9282
:10358000FF920F931F93CF93DF93EC011C82FC01FA
:10359000E25AFF4F8081882329F0CE01855A9F4F40
:1035A0000F9411847E0181E3E81A8EEFF80A45E357
:1035B00060E0C7010F94927E81113AC0ECE8F4E01C
:1035C00064918F01662359F0772767FD709582ED2E
:1035D00098E16CDD0F5F1F4FF8016491F3CFEFE7C7
:1035E000F4E064918F01662359F0772767FD7095A9
:1035F00082ED98E15BDD0F5F1F4FF8016491F3CF1F
:103600006AE070E082ED98E151DD8E01095A1F4FAA
:10361000B801CE0188589F4FA2DFCA58DF4F1983E7
:103620000883DF91CF911F910F91FF90EF90089544
:103630008E010C521E4F41E0B701C8010F94FB8B65
:1036400081112AC040E0B701C8010F94FB8B8111A2
:1036500023C0E2E9F4E064918F01662359F07727F3
:1036600067FD709582ED98E121DD0F5F1F4FF80136
:103670006491F3CFECE6F4E064918F01662309F4E2
:10368000BFCF772767FD709582ED98E10FDD0F5F63
:103690001F4FF8016491F2CFB801CE01855A9F4FB8
:1036A0000F941F81811123C0E2E9F4E064918F013E
:1036B000662359F0772767FD709582ED98E1F6DC77
:1036C0000F5F1F4FF8016491F3CFECE5F4E06491D4
:1036D0008F01662309F494CF772767FD709582EDFB
:1036E00098E1E4DC0F5F1F4FF8016491F2CF81E0B5
:1036F0008C83ECE8F4E064918F01662359F077271E
:1037000067FD709582ED98E1D1DC0F5F1F4FF801E6
:103710006491F3CFE1E5F4E064918F01662309F44D
:103720006FCF772767FD709582ED98E1BFDC0F5F63
:103730001F4FF8016491F2CFFC01128214820895A8
:103740000F931F93CF93DF93EC018C81882311F1AA
:10375000E8E4F4E064918F01662359F0772767FD70
:10376000709582ED98E1A2DC0F5F1F4FF801649124
:10377000F3CF4091360B5091370B6091380B70911D
:10378000390B22E030E082ED98E10F944BBA81E0F2
:103790008A831B82DF91CF911F910F910895FC01C5
:1037A0008281882319F0128281E083830895AF9289
:1037B000BF92CF92DF92EF92FF920F931F93CF931E
:1037C000DF931F92CDB7DEB78C018FE2FB018193AF
:1037D0005F01D12C41E07801F3E3EF1AFEEFFF0A1D
:1037E0009FE1C92E2D2D30E0F701808191812817AE
:1037F0003907D8F4C29EC001C39E900D112485568E
:103800009F4FB501800F911F49830F94C680C5015A
:1038100049815C010196F5012081222321F04D3878
:1038200010F44F5FF6CFD394DDCF47FD11C0B50143
:10383000C8018A509E4F0F90DF91CF911F910F9139
:10384000FF90EF90DF90CF90BF90AF900D94C68027
:10385000F50110820F90DF91CF911F910F91FF9092
:10386000EF90DF90CF90BF90AF9008954F925F920E
:103870006F927F928F929F92AF92BF92CF92DF9280
:10388000EF92FF920F931F93CF93DF93CDB7DEB7E5
:10389000AC970FB6F894DEBF0FBECDBF7C015B01C5
:1038A000FC018481882309F4F9C0C7018A509E4F26
:1038B0000F941184F7011282CE0101966C01ECDBAA
:1038C000270196E7490E511CC701895A9F4FF20103
:1038D00091838083F50180818F3209F077C06FE298
:1038E00070E0C5010F9497C68C010F5F1F4F09F45C
:1038F00073C06FE270E0C8010F9497C64C01009747
:1039000009F46BC00817190708F067C03C01601A7A
:10391000710AA301B801CE0180960F94C0C6E0E2FF
:10392000F0E0EC0FFD1FE60DF71D1082BE01605E9A
:103930007F4F82ED98E10F9471B86AE070E082EDFC
:1039400098E1B4DBF201608171816115710519F0B4
:103950006C5F7F4F02C060E070E021E0AE01405E2E
:103960005F4FCE0105960F94088681112AC0EDE2C3
:10397000F3E064918F01662359F0772767FD709516
:1039800082ED98E193DB0F5F1F4FF8016491F3CF55
:10399000BE01605E7F4F82ED98E10F9471B8EBE25B
:1039A000F3E064918F01662309F471C0772767FD06
:1039B000709582ED98E17ADB0F5F1F4FF8016491FB
:1039C000F2CFF201D182C08284018FCFC701885823
:1039D0009F4FF201918380838501F2018081918163
:1039E000009711F0049602C080E090E0B8010F94B7
:1039F000DE86882321F1EDE1F3E064915F01662327
:103A000061F0772767FD709582ED98E14FDBFFEF5E
:103A1000AF1ABF0AF5016491F2CFB80182ED98E1C7
:103A20000F9471B86AE070E082ED98E13FDBF70136
:103A3000E555FD4F10821182128213822DC0E5E000
:103A4000F3E064917F01662361F0772767FD70954D
:103A500082ED98E12BDBFFEFEF1AFF0AF70164918B
:103A6000F2CFB80182ED98E10F9471B8E3E0F3E092
:103A700064918F01662359F0772767FD709582ED79
:103A800098E114DB0F5F1F4FF8016491F3CF6AE0F8
:103A900070E082ED98E10ADBC6010FDBAC960FB651
:103AA000F894DEBF0FBECDBFDF91CF911F910F9174
:103AB000FF90EF90DF90CF90BF90AF909F908F904E
:103AC0007F906F905F904F9008950F931F93CF93C7
:103AD000DF93EC018C81882309F43CC0E1EFF2E034
:103AE00064918F01662359F0772767FD709582ED09
:103AF00098E1DCDA0F5F1F4FF8016491F3CFFE010C
:103B0000E555FD4F40815181628173812AE030E0AB
:103B100082ED98E10F944DB9EFEEF2E064918F01E0
:103B2000662359F0772767FD709582ED98E1BEDA3C
:103B30000F5F1F4FF8016491F3CFCD55DD4F4881E2
:103B400059816A817B812AE030E082ED98E10F940F
:103B50004DB910C0EFEDF2E06491EF01662351F032
:103B6000772767FD709582ED98E1A0DA2196FE0136
:103B70006491F4CF6AE070E082ED98E1DF91CF913B
:103B80001F910F9193CAAF92BF92CF92DF92EF92A3
:103B9000FF920F931F93CF93DF935C01EB01FB0127
:103BA00001900020E9F78F0101501109061B170B46
:103BB0006C01FAE0CF1AFEEFDF0AF60110826EE424
:103BC00070E0CE010F9497C67C01009729F4F801AC
:103BD0003197EC0FFD1F0DC060E270E00F9497C6A7
:103BE000EC0121966AE270E0C7010F9497C6FC01D0
:103BF00031978DE081838AE082831382BE01C50103
:103C00008E509E4F0F94A488F6018081882379F10D
:103C1000E2E9F4E06491EF01662351F0772767FD54
:103C2000709582ED98E142DA2196FE016491F4CF1D
:103C3000E9ECF2E06491EF01662351F0772767FD2C
:103C4000709582ED98E132DA2196FE016491F4CF0D
:103C50006AE070E082ED98E1DF91CF911F910F91C2
:103C6000FF90EF90DF90CF90BF90AF901FCADF9191
:103C7000CF911F910F91FF90EF90DF90CF90BF9069
:103C8000AF9008952F923F924F925F926F927F92E2
:103C90008F929F92AF92BF92CF92DF92EF92FF925C
:103CA0000F931F93CF93DF93CDB7DEB7CC55D109D8
:103CB0000FB6F894DEBF0FBECDBF4C018C0101558D
:103CC0001D4F662339F0F8011082F40184818111BF
:103CD0001DC015C0F8018081882309F4ABC0F40130
:103CE000E955FD4FC080D180E280F3800F94EAB2A5
:103CF000C616D706E806F90608F49CC0E4CFC4014E
:103D00003EDCF4018481882309F494C07401F5E554
:103D1000EF0EF11CF70181818F9380818F9380ECEE
:103D200092E09F938F938E01015C1F4F1F930F931F
:103D30000F94FDC60F900F900F900F900F900F9063
:103D4000B12CF80101900020E9F73197E01BF10B4D
:103D5000BE1684F46801CB0CD11CB7FCDA94F601D2
:103D60008081992787FD90950F9435C6F601808351
:103D7000B394E7CFFBE58F0E911CC40188D9512C79
:103D8000CE0101966C0129EB622E22E0722E5E01BB
:103D900091E2A90EB11C40E050E0B601C4010F94BD
:103DA0007B821816DCF5412CF60101900020E9F722
:103DB0003197EC19FD094E1674F41601240C311CD0
:103DC00047FC3A94F101808190E00F9435C6F101EF
:103DD00080834394E9CF8A858E37E9F245E050E04D
:103DE000B801C6010F94B2C6892BA9F61F930F9391
:103DF0007F926F92BF92AF920F94FDC6C5010E9451
:103E00001E5385EB92E00E949A530F900F900F90F3
:103E10000F900F900F9055245394BDCF511004C0B4
:103E20008FEF9FEFF70104C0F70180819181019628
:103E300091838083C45ADF4F0FB6F894DEBF0FBE64
:103E4000CDBFDF91CF911F910F91FF90EF90DF9049
:103E5000CF90BF90AF909F908F907F906F905F902A
:103E60004F903F902F900895EF92FF920F931F93E2
:103E7000CF93DF931F92CDB7DEB78C017C018AE030
:103E8000E81A8EEFF80AC70169830F94C783C70148
:103E90000F941184F801108211826981662309F45C
:103EA000EDC08091650B9091660BA091670BB0916E
:103EB000680B8093F90B9093FA0BA093FB0BB093D4
:103EC000FC0B8091690B90916A0BA0916B0BB091E8
:103ED0006C0B8093F50B9093F60BA093F70BB093BC
:103EE000F80B80916D0B90916E0BA0916F0BB091C0
:103EF000700B8093F10B9093F20BA093F30BB093A4
:103F0000F40B8091B30A90E09093F00B8093EF0B49
:103F10004091710B5091720B6091730B7091740B07
:103F20004093EB0B5093EC0B6093ED0B7093EE0B07
:103F3000F70180859185A285B3858093E70B9093E7
:103F4000E80BA093E90BB093EA0B8091AC18909129
:103F5000AD189093E40B8093E30B8091AE18909191
:103F6000AF189093E60B8093E50B8091AA1890917F
:103F7000AB189093E20B8093E10B80915C029091DF
:103F80005D029093DE0B8093DD0B8091B10A9091DE
:103F9000B20A9093E00B8093DF0B8091B30B809378
:103FA000C80B8091B40B9091B50B9093CA0B809382
:103FB000C90B8091B60B9091B70B9093CC0B80936B
:103FC000CB0B8091B80B9091B90B9093CE0B809353
:103FD000CD0B8091BA0B9091BB0B9093D00B80933B
:103FE000CF0B8091BC0B9091BD0B9093D20B809323
:103FF000D10B8091BE0B9091BF0B9093D40B80930B
:10400000D30B8091C00B9091C10B9093D60B8093F2
:10401000D50B8091C20B9091C30B9093D80B8093DA
:10402000D70B8091C40B9091C50B9093DA0B8093C2
:10403000D90B8091C60B9091C70B9093DC0B8093AA
:10404000DB0BE9EAF2E064918F01662359F07727F0
:1040500067FD709582ED98E129D80F5F1F4FF80139
:104060006491F3CF6AE070E082ED98E10F90DF9108
:10407000CF911F910F91FF90EF9018C80F90DF9193
:10408000CF911F910F91FF90EF900895EF92FF92C3
:104090000F931F93CF93DF93CDB7DEB76F970FB614
:1040A000F894DEBF0FBECDBF8C017C0186E7E80E21
:1040B000F11CC80188589F4FF70191838083E65C0B
:1040C000FD4F22E030E031832083329670E071832F
:1040D000608304960E944718F70160817181CE01C8
:1040E000019681D8AE014F5F5F4F64E277E0C8016F
:1040F0008ED8CE0101960E945D186F960FB6F89487
:10410000DEBF0FBECDBFDF91CF911F910F91FF900A
:10411000EF900895CF92DF92EF92FF920F931F934B
:10412000CF93DF93CDB7DEB76F970FB6F894DEBFAE
:104130000FBECDBF8C016C0126E7C20ED11C885882
:104140009F4FF60191838083E65CFD4F21E030E0D4
:10415000318320837801FEE4EF1AFDEFFF0AF701B7
:104160001182108204960E944718F60160817181C5
:10417000CE01019638D8AE014F5F5F4F64E277E021
:10418000C80145D8CE0101960E945D18F7018081D3
:1041900091816F960FB6F894DEBF0FBECDBFDF9151
:1041A000CF911F910F91FF90EF90DF90CF900895E6
:1041B0002F923F924F925F926F927F928F929F9237
:1041C000AF92BF92CF92DF92EF92FF920F931F9325
:1041D000CF93DF93CDB7DEB7C457D1090FB6F894AC
:1041E000DEBF0FBECDBF8C013B01E3964FAFE3971F
:1041F000FC018481882309F42EC4E750FE4F80819E
:10420000882309F412C12111D9C07801FFEEEF1AF9
:10421000FDEFFF0AF7018081882309F435C0E2E948
:10422000F4E064918F01662361F0772767FD709554
:1042300082ED98E10E9456180F5F1F4FF8016491BC
:10424000F2CFE5E0F4E064918F01662361F0772717
:1042500067FD709582ED98E10E9456180F5F1F4F21
:10426000F8016491F2CF4AE050E061E070E082ED45
:1042700098E10F9420B96AE070E082ED98E10E9425
:1042800056180E94E4AFE7C3ECE8F4E064916F01D4
:10429000662369F0772767FD709582ED98E10E94AB
:1042A0005618FFEFCF1ADF0AF6016491F1CFECEE5A
:1042B000F3E064916F01662369F0772767FD7095DD
:1042C00082ED98E10E945618FFEFCF1ADF0AF6013F
:1042D0006491F1CFB30182ED98E10F9471B8E1EEF2
:1042E000F3E064916F01662369F0772767FD7095AD
:1042F00082ED98E10E945618FFEFCF1ADF0AF6010F
:104300006491F1CFF70180813DE8D32EB801D89EAA
:10431000600D711D11246A5E7D4FC80148DAF701F6
:104320008081B801D89E600D711D11246A5E7D4F99
:1043300082ED98E10F9471B8EBEDF3E064916F01B9
:10434000662369F0772767FD709582ED98E10E94FA
:104350005618FFEFCF1ADF0AF6016491F1CF68011A
:10436000F5E5CF1AFDEFDF0AF60140815181628148
:1043700073812AE030E082ED98E10F944DB96AE054
:1043800070E082ED98E10E945618F7012081F80153
:1043900084E0289FE00DF11D1124AF014E5E5D4FBA
:1043A000F60180819181A281B381FA01808391839A
:1043B000A283B3832F5FF701208331C0ECE8F4E0E0
:1043C00064917F01662369F0772767FD709582ED20
:1043D00098E10E945618FFEFEF1AFF0AF701649167
:1043E000F1CFEAECF3E064917F01662369F077276F
:1043F00067FD709582ED98E10E945618FFEFEF1A65
:10440000FF0AF7016491F1CFB30182ED98E10F94B7
:1044100071B86AE070E082ED98E10E945618C80118
:104420008A509E4F0F94118435C0F801EF5EFD4F06
:104430001082ECE8F4E064917F01662369F077274D
:1044400067FD709582ED98E10E945618FFEFEF1A14
:10445000FF0AF7016491F1CFE9EBF3E064917F018A
:10446000662369F0772767FD709582ED98E10E94D9
:104470005618FFEFEF1AFF0AF7016491F1CFB3016D
:1044800082ED98E10F9471B86AE070E082ED98E1F6
:104490000E945618F80112822E01F0E24F0E511CB4
:1044A000C2010E944C18180186E7280E311CC80171
:1044B000895A9F4FF10191838083F30180818F326C
:1044C00009F04FC16FE270E0C3010F9497C60196E7
:1044D0007C01C80180559D4FE0969FAF8EAFE0975D
:1044E000F801EE54FD4FAC96FFAFEEAFAC974E0126
:1044F000FFE38F0E911C8B5A9240AE969FAF8EAF0A
:10450000AE97E114F10409F49DC16FE270E0C701B8
:104510000F9497C66C01009709F495C1E816F90647
:1045200008F091C15C01AE18BF08A501B701CE012A
:10453000835A9F4F0F94C0C6EDE5F0E0EC0FFD1FCE
:10454000EA0DFB1D1082BE01635A7F4F82ED98E198
:104550000F9471B86AE070E082ED98E10E945618FD
:10456000F101608171816115710519F06C5F7F4FF8
:1045700002C060E070E021E0AE01435A5F4FCE011F
:1045800084960F94088681112CC0E5EAF3E06491CB
:104590008F01662361F0772767FD709582ED98E1C2
:1045A0000E9456180F5F1F4FF8016491F2CFBE01B1
:1045B000635A7F4F82ED98E10F9471B8E3EAF3E01C
:1045C00064918F01662309F43DC2772767FD7095DA
:1045D00082ED98E10E9456180F5F1F4FF801649119
:1045E000F1CFF101518240827601FFEFEF1AFF0A0D
:1045F0008091220C811185CF81E090E0E096EEADB4
:10460000FFADE09791838083AC96EEADFFADAC97A4
:1046100011821082CE0184960E944718B201CE0109
:1046200001960E94F318AE014F5F5F4F64E277E09E
:10463000C8010E940719CE0101960E945D18AC9630
:10464000EEADFFADAC970190F081E02DE296FFAFAB
:10465000EEAFE2978EE1F40111928A95E9F7AE96FA
:10466000FFADAE97FF93AD968FADAD978F939F92B1
:104670008F920F94CFC60F900F900F900F90640100
:10468000F6018081882349F0992787FD90950F9442
:1046900035C6F60181936F01F3CFA12CB12CB70180
:1046A000C4010F94A2C6892B09F454C0E2968EADC2
:1046B0009FADE297A816B9060CF04CC082E090E0DE
:1046C000E096EEADFFADE09791838083AC96EEADC2
:1046D000FFADAC97B182A082F101808191810496F7
:1046E0000E944718B201CE0101960E94F318AE0154
:1046F0004F5F5F4F64E277E0C8010E940719CE0167
:1047000001960E945D18F4018EE111928A95E9F7F5
:10471000AE969FADAE979F93AD96EFADAD97EF93ED
:104720009F928F920F94CFC60F900F900F900F9083
:104730006401F6018081882349F0992787FD9095CF
:104740000F9435C6F60181936F01F3CFFFEFAF1AD7
:10475000BF0AA5CFAC96EEADFFADAC97118210822B
:10476000D0CEC80188589F4FF101918380838091FA
:10477000220C811167C0C801CDDC4C01CE0101962D
:104780007C018EE1F70111928A95E9F75801F5E075
:10479000AF0EB11CBF92AF92FF92EF920F94CFC6B3
:1047A0000F900F900F900F906701F6018081882382
:1047B00049F0992787FD90950F9435C6F6018193AE
:1047C0006F01F3CFC12CD12CB301C7010F94A2C646
:1047D000892B99F1C814D90484F56C2DC80156DCD5
:1047E000F7018EE111928A95E9F7BF92AF92FF929D
:1047F000EF920F94CFC60F900F900F900F909701EC
:10480000F90180818823A9F0992787FD9095E49686
:104810002FAFE497E5963FAFE5970F9435C6E49642
:104820002FADE497E5963FADE597F90181939F01A0
:10483000E7CFFFEFCF1ADF0AC7CFF801EE54FD4FE5
:10484000118210827301C8018A509E4F6C01E39659
:104850009FADE397F10160817181992309F4A0C0B4
:104860006115710519F06C5F7F4F02C060E070E068
:1048700021E0A701C6010F940886882309F466C0C9
:10488000F60181899289A389B489F801ED55FD4F1C
:1048900080839183A283B383E5E9F3E064915F01B0
:1048A000C8018D559D4F6C01662369F0772767FD20
:1048B000709582ED98E10E9456189FEFA91AB90AE7
:1048C000F5016491F1CFB70182ED98E10F9471B8D1
:1048D000EDE8F3E064917F01662369F0772767FDD7
:1048E000709582ED98E10E945618FFEFEF1AFF0ACB
:1048F000F7016491F1CFF6014081518162817381AA
:104900002AE030E082ED98E10F944DB96AE070E062
:1049100082ED98E10E945618F801E555FD4F10828E
:10492000118212821382EFE7F3E064918F01662314
:1049300009F488C0772767FD709582ED98E10E94A1
:1049400056180F5F1F4FF8016491F1CFEBE6F3E0CB
:1049500064918F01662361F0772767FD709582ED82
:1049600098E10E9456180F5F1F4FF8016491F2CF33
:10497000B70182ED98E10F9471B8E9E6F3E0649134
:104980008F01662309F45EC0772767FD709582ED7D
:1049900098E10E9456180F5F1F4FF8016491F1CF04
:1049A0006115710519F06C5F7F4F02C060E070E027
:1049B00026E5A701C6010F940886811129C0E5E507
:1049C000F3E064918F01662361F0772767FD7095AE
:1049D00082ED98E10E9456180F5F1F4FF801649115
:1049E000F2CFB70182ED98E10F9471B8E3E5F3E0FF
:1049F00064918F01662331F1772767FD709582ED11
:104A000098E10E9456180F5F1F4FF8016491F2CF92
:104A100081E0F8018083E1E4F3E064918F01662393
:104A200061F0772767FD709582ED98E10E94561836
:104A30000F5F1F4FF8016491F2CFB30182ED98E14F
:104A40000F9471B86AE070E082ED98E10E94561808
:104A5000C2010E945D18CC58DF4F0FB6F894DEBF3C
:104A60000FBECDBFDF91CF911F910F91FF90EF90BF
:104A7000DF90CF90BF90AF909F908F907F906F907E
:104A80005F904F903F902F90089521E0FC0121838B
:104A900040E08ECBAF92BF92CF92DF92EF92FF9227
:104AA0000F931F93CF93DF93CDB7DEB76F970FB6FA
:104AB000F894DEBF0FBECDBF8C017B01CE01019605
:104AC0000E944C18F801E158FF4F80816801811164
:104AD00004C027E5C20ED11C03C088E7C80ED11C54
:104AE00021E0A701B6016C5F7F4FCE0105960F94C0
:104AF0000886811136C0ECE8F4E064918F016623EA
:104B000061F0772767FD709582ED98E10E94561855
:104B10000F5F1F4FF8016491F2CFE3E9F2E0649177
:104B20008F01662361F0772767FD709582ED98E12C
:104B30000E9456180F5F1F4FF8016491F2CFB70122
:104B400082ED98E10F9471B86AE070E082ED98E12F
:104B50000E945618CE0101960E945D188FEF9FEFBC
:104B60003AC0F801E353FE4F808191818A3091056C
:104B700030F59C012F5F3F4F318320832FE1289F29
:104B80007001299FF00C1124F7E9EF0EF11CE00EE3
:104B9000F11E5C01B701C7014F960E94AF1A21E0D8
:104BA000A21AB1088FE1E81AF108EFEFAE16BE06BF
:104BB00089F7B601C80189569F4F0E94AF1ABE01FE
:104BC0006F5F7F4FC80188589F4F0E94AF1ACE0178
:104BD00001960E945D186F960FB6F894DEBF0FBE67
:104BE000CDBFDF91CF911F910F91FF90EF90DF909C
:104BF000CF90BF90AF900895EF92FF920F931F93C5
:104C0000CF93DF93EC01C353DE4F28813981211507
:104C1000310529F121503109398328838C01095646
:104C20001F4FB80188589F4F0E94AF1AC80100E07B
:104C300010E0288139817C014FE1E40EF11C02175C
:104C4000130738F40F5F1F4FB7010E94AF1AC70157
:104C5000F0CF81E090E0232B21F080E002C08FEFC5
:104C60009FEFDF91CF911F910F91FF90EF900895EB
:104C70008F929F92AF92BF92CF92DF92EF92FF926C
:104C80000F931F93CF93DF93EC011092810B8091D0
:104C9000E20A9091E30A01969093E30A8093E20A74
:104CA000DFD24091411550914215609143157091AA
:104CB00044154093451550934615609347157093DE
:104CC00048158EE892E00E949A530F9479957E01E0
:104CD0008FEEE81A8DEFF80AF70180818E010A50F5
:104CE0001E4F8823D1F1C8010F941184F7018081F0
:104CF00081508083BE01FDE88F9F600D711D1124DE
:104D00006A5E7D4F21E041E0CE0152DAF7018081F9
:104D1000FE0194E0899FE00DF11D1124EE5EFD4F30
:104D20004081518162817381FE01E555FD4F4083D1
:104D3000518362837383C8010F942E83CE01DF9168
:104D4000CF911F910F91FF90EF90DF90CF90BF9088
:104D5000AF909F908F900C94A01B0F940A96C8015F
:104D60000F9411841A8220E030E045E050E06AE0C0
:104D700070E08DE39FE00E9401408BE892E00E948A
:104D80009A530F94799586E892E00E949A53109274
:104D9000AD181092AC181092AF181092AE18109275
:104DA000AB181092AA181092220C1092210C10929B
:104DB000200C6091E80A7091E90A8091EA0A9091CA
:104DC000EB0A2CE330E040E050E00F944DC030930C
:104DD000E50A2093E40A7093E70A6093E60AC0901C
:104DE0005D15D0905E15E0905F15F09060152091F4
:104DF000D40A3091D50A4091D60A5091D70A6091D1
:104E0000D80A7091D90A8091DA0A9091DB0A0F943E
:104E1000A4BC4B015C012091A1153091A2154091D9
:104E2000A3155091A4156091A5157091A6158091B8
:104E3000A7159091A8150F94E5BCA70196010F94B2
:104E4000D1BB9B01AC01C501B4010F94F1BA0F9421
:104E500039BC2093D40A3093D50A4093D60A509394
:104E6000D70A6093D80A7093D90A8093DA0A90938C
:104E7000DB0A2091CC0A3091CD0A4091CE0A5091A4
:104E8000CF0A6091D00A7091D10A8091D20A909194
:104E9000D30A0F94A4BC4B015C0120919915309169
:104EA0009A1540919B1550919C1560919D1570919C
:104EB0009E1580919F159091A0150F94E5BCA701B8
:104EC00096010F94D1BB9B01AC01C501B4010F94B5
:104ED000F1BA0F9439BC2093CC0A3093CD0A409399
:104EE000CE0A5093CF0A6093D00A7093D10A809370
:104EF000D20A9093D30A2091C40A3091C50A4091F6
:104F0000C60A5091C70A6091C80A7091C90A809177
:104F1000CA0A9091CB0A0F94A4BC6B017C0120912A
:104F2000911530919215409193155091941560917F
:104F300095157091961580919715909198150F94ED
:104F4000E5BC209161153091621540916315509137
:104F500064150F94D1BB9B01AC01C701B6010F943E
:104F6000F1BA0F9439BC2093C40A3093C50A409318
:104F7000C60A5093C70A6093C80A7093C90A8093FF
:104F8000CA0A9093CB0AC0906915D0906A15E09038
:104F90006B15F0906C152091BC0A3091BD0A4091C0
:104FA000BE0A5091BF0A6091C00A7091C10A8091F7
:104FB000C20A9091C30A0F94A4BC4B015C012091DA
:104FC000891530918A1540918B1550918C156091FF
:104FD0008D1570918E1580918F15909190150F946D
:104FE000E5BCA70196010F94D1BB9B01AC01C501A3
:104FF000B4010F94F1BA0F9439BC2093BC0A3093DA
:10500000BD0A4093BE0A5093BF0A6093C00A7093D2
:10501000C10A8093C20A9093C30A2091B40A3091C6
:10502000B50A4091B60A5091B70A6091B80A7091DA
:10503000B90A8091BA0A9091BB0A0F94A4BC4B01A3
:105040005C0120918115309182154091831550911A
:1050500084156091851570918615809187159091C2
:1050600088150F94E5BCA70196010F94D1BB9B0155
:10507000AC01C501B4010F94F1BA0F9439BC20936F
:10508000B40A3093B50A4093B60A5093B70A6093B6
:10509000B80A7093B90A8093BA0A9093BB0A109227
:1050A000A1151092A2151092A3151092A41510929A
:1050B000A5151092A6151092A7151092A81510927A
:1050C000991510929A1510929B1510929C1510929A
:1050D0009D1510929E1510929F151092A01510927A
:1050E000911510929215109293151092941510929A
:1050F000951510929615109297151092981510927A
:10510000891510928A1510928B1510928C15109299
:105110008D1510928E1510928F1510929015109279
:105120008115109282151092831510928415109299
:10513000851510928615109287151092881590D0BB
:105140008AE792E00E949A538091F8148823F9F03C
:105150001092F814C091B30AD0E0CC0FDD1FC455F3
:10516000D74E68817981882777FD8095982F0F9495
:10517000AABC2091B2023091B3024091B402509186
:10518000B5020F9459BE181614F419821882DF91D3
:10519000CF911F910F91FF90EF90DF90CF90BF9034
:1051A000AF909F908F9008958D559D4FFC01608129
:1051B000718182819381089585559D4FFC016081A5
:1051C0007181828193810895EF92FF920F931F93D3
:1051D000CF93DF931F92CDB7DEB78C017B01460FD3
:1051E000F70161917F01F8018081918149830F94DA
:1051F000FBCBF80180819181019691838083498165
:105200004E11EECF0F90DF91CF911F910F91FF9034
:10521000EF900895EF92FF920F931F93CF93DF9338
:105220001F92CDB7DEB78C017B01460FF80180815C
:10523000918149830F94F3CBF70181937F01F801AA
:105240008081918101969183808349814E11EECFB7
:105250000F90DF91CF911F910F91FF90EF900895E4
:105260000F931F93CF93DF93CDB7DEB768970FB639
:10527000F894DEBF0FBECDBF80E390E3A0E3B0E0C3
:105280008D839E83AF83B88704E610E0188F0F8B61
:1052900044E0BE016B5F7F4FCE01479695DF40E152
:1052A0006DE575E1CE0147968FDF40E16DE675E172
:1052B000CE01479689DF40E16DE475E1CE01479666
:1052C00083DF44E065E475E1CE0147967DDF44E08D
:1052D0006DE375E1CE01479677DF44E069E475E15F
:1052E000CE01479671DF44E06DE275E1CE0147964D
:1052F0006BDF44E06DE775E1CE01479665DF44E082
:1053000069E375E1CE0147965FDF44E065E375E14F
:10531000CE01479659DF44E061E375E1CE0147963F
:1053200053DF4CE069E47BE0CE0147964DDF87ED2B
:1053300090E09E8B8D8B8DE290E09C8B8B8B1A8AFC
:10534000198A80EF90E0988B8F8786E490E09E87A3
:105350008D871C861B8642E0BE016B5E7F4FCE01AF
:10536000479632DF42E0BE016D5E7F4FCE01479629
:105370002BDF42E0BE016F5E7F4FCE01479624DFF8
:1053800042E0BE01615F7F4FCE0147961DDF42E0E4
:10539000BE01635F7F4FCE01479616DF42E0BE013C
:1053A000655F7F4FCE0147960FDF44E066E37BE009
:1053B000CE01479609DF44E06BE272E0CE014796EA
:1053C00003DF44E063E372E0CE014796FDDE44E094
:1053D0006BE372E0CE014796F7DE42E06CEA7BE0D9
:1053E000CE014796F1DE42E060EB7BE0CE014796CE
:1053F000EBDE42E06EEA7BE0CE014796E5DE42E07E
:105400006AEA7BE0CE014796DFDE42E06CE97BE0B2
:10541000CE014796D9DE42E060EA7BE0CE014796B6
:10542000D3DE42E06EE97BE0CE014796CDDE42E07E
:105430006AE97BE0CE014796C7DE42E064EA7BE0A2
:10544000CE014796C1DE42E068EA7BE0CE01479696
:10545000BBDE42E066EA7BE0CE014796B5DE42E085
:1054600062EA7BE0CE014796AFDE42E064E97BE092
:10547000CE014796A9DE42E068E97BE0CE0147967F
:10548000A3DE42E066E97BE0CE0147969DDE42E086
:1054900062E97BE0CE01479697DE44E061E173E08C
:1054A000CE01479691DE44E069E073E0CE01479675
:1054B0008BDE44E061E073E0CE01479685DE44E098
:1054C00065E173E0CE0147967FDE44E06DE073E076
:1054D000CE01479679DE44E065E073E0CE01479661
:1054E00073DE42E06EEE7AE0CE0147966DDE42E07A
:1054F00062EE7AE0CE01479667DE42E060EE7AE047
:10550000CE01479661DE42E06EED7AE0CE0147962D
:105510005BDE42E06CEE7AE0CE01479655DE42E07B
:105520006CED7AE0CE0147964FDE80E290E09A87FC
:10553000898742E0BE01675F7F4FCE01479644DE18
:1055400042E06AE27CE0CE0147963EDE44E066E25D
:105550007CE0CE01479638DE42E064E27CE0CE019A
:10556000479632DE42E066EE7AE0CE0147962CDEC8
:1055700042E064EE7AE0CE01479626DE48E064ED34
:105580007AE0CE01479620DE48E06CEC7AE0CE016E
:1055900047961ADE48E064EC7AE0CE01479614DEC6
:1055A00048E06CEB7AE0CE0147960EDE48E064EB13
:1055B0007AE0CE01479608DE42E06EE672E0CE0168
:1055C000479602DE42E060E772E0CE014796FCDDDE
:1055D00044E069EF7BE0CE014796F6DD44E065EFFD
:1055E0007BE0CE014796F0DD44E061EF7BE0CE0149
:1055F0004796EADD42E06FEE7BE0CE014796E4DDC0
:1056000044E06BEE7BE0CE014796DEDD44E067EEE2
:105610007BE0CE014796D8DD42E065EE7BE0CE012F
:105620004796D2DD42E063EE7BE0CE014796CCDDCB
:1056300042E061EE7BE0CE014796C6DD42E06FEDD1
:105640007BE0CE014796C0DD42E06DED7BE0CE0110
:105650004796BADD41E068EC7BE0CE014796B4DDC9
:1056600042E069EC7BE0CE014796AEDD42E06BECB8
:105670007BE0CE014796A8DD42E06DEC7BE0CE01F9
:105680004796A2DD42E06FEC7BE0CE0147969CDDC1
:1056900042E061ED7BE0CE01479696DD42E063EDAE
:1056A0007BE0CE01479690DD42E065ED7BE0CE01E8
:1056B00047968ADD42E067ED7BE0CE01479684DDC8
:1056C00042E069ED7BE0CE0147967EDD42E06BED86
:1056D0007BE0CE01479678DD44E061E475E1CE01E0
:1056E000479672DD42E06DEF7BE0CE0147966CDDC0
:1056F00044E062E37BE0CE01479666DD44E06EE283
:105700007BE0CE01479660DD44E060EF7AE0CE01B9
:1057100047965ADD44E064EF7AE0CE01479654DDC7
:1057200044E068EF7AE0CE0147964EDD44E06CEF4E
:105730007AE0CE01479648DD86E591E3A2E3B0E04A
:1057400089839A83AB83BC83188F0F8B44E0BE019F
:105750006F5F7F4FCE01479637DDEDEEFAE0649143
:105760008F01662361F0772767FD709582ED98E1E0
:105770000E9456180F5F1F4FF8016491F2CFEDEDB4
:10578000FAE064918F01662361F0772767FD7095D9
:1057900082ED98E10E9456180F5F1F4FF801649147
:1057A000F2CF6AE070E082ED98E10E9456186896A8
:1057B0000FB6F894DEBF0FBECDBFDF91CF911F9122
:1057C0000F9108950F931F93CF93DF93CDEEDAE0FF
:1057D000FE0164918E01662361F0772767FD709565
:1057E00082ED98E10E9456180F5F1F4FF8016491F7
:1057F000F2CFEDECFAE064918F01662361F0772738
:1058000067FD709582ED98E10E9456180F5F1F4F5B
:10581000F8016491F2CF6AE070E082ED98E10E94B5
:105820005618FE0164910DEE1AE0662361F07727A9
:1058300067FD709582ED98E10E9456180F5F1F4F2B
:10584000F8016491F2CF40915D1550915E15609121
:105850005F157091601585EC9AE00E94B2524091FC
:10586000611550916215609163157091641582EC19
:105870009AE00E94B2524091651550916615609170
:105880006715709168158FEB9AE00E94B2524091B3
:10589000691550916A1560916B1570916C158CEBC0
:1058A0009AE00E94B25264E277E082ED98E10F94B0
:1058B00071B86AE070E082ED98E10E945618FE012E
:1058C00064910DEE1AE0662361F0772767FD70950D
:1058D00082ED98E10E9456180F5F1F4FF801649106
:1058E000F2CFE2EAFAE064918F01662361F0772754
:1058F00067FD709582ED98E10E9456180F5F1F4F6B
:10590000F8016491F2CF6AE070E082ED98E10E94C4
:105910005618FE0164910DEE1AE0662361F07727B8
:1059200067FD709582ED98E10E9456180F5F1F4F3A
:10593000F8016491F2CF40916D1550916E15609110
:105940006F157091701589E99AE00E94B2524091EA
:10595000711550917215609173157091741586E9E7
:105960009AE00E94B252409175155091761560915F
:1059700077157091781583E99AE00E94B2524091B0
:10598000791550917A1560917B1570917C1580E99D
:105990009AE00E94B25264E277E082ED98E10F94BF
:1059A00071B86AE070E082ED98E10E945618FE013D
:1059B00064910DEE1AE0662361F0772767FD70951C
:1059C00082ED98E10E9456180F5F1F4FF801649115
:1059D000F2CFE2E7FAE064918F01662361F0772766
:1059E00067FD709582ED98E10E9456180F5F1F4F7A
:1059F000F8016491F2CF6AE070E082ED98E10E94D4
:105A00005618FE0164910DEE1AE0662361F07727C7
:105A100067FD709582ED98E10E9456180F5F1F4F49
:105A2000F8016491F2CF40914D1550914E1560915F
:105A30004F157091501589E69AE00E94FA524091F4
:105A4000511550915215609153157091541586E679
:105A50009AE00E94FA524091551550915615609166
:105A600057157091581583E69AE00E94FA524091BA
:105A7000591550915A1560915B1570915C1580E62F
:105A80009AE00E94FA5264E277E082ED98E10F9486
:105A900071B86AE070E082ED98E10E945618FE014C
:105AA00064910DEE1AE0662361F0772767FD70952B
:105AB00082ED98E10E9456180F5F1F4FF801649124
:105AC000F2CFEBE2FAE064918F01662361F0772771
:105AD00067FD709582ED98E10E9456180F5F1F4F89
