:100000000C945D160C948E160C948E160C948E1611
:100010000C948E160C948E160C948E160C948E16D0
:100020000C948E160C948E160C948E160C948E16C0
:100030000C948E160C948E160C948E160C94C4ACE4
:100040000C948E160C948E160C948E160C948E16A0
:100050000C948E160C948E160C949DD10C9476CF25
:100060000C948E160C94AFCD0C9486CD0C948E16F9
:100070000C948E160C948E160C948E160C948E1670
:100080000C9468B50C948E160C948E160C948E16E7
:100090000C948E160C948E160C948E160C948E1650
:1000A0000C948E160C948E160C948E160C948E1640
:1000B0000C948E160C948E160C948E160C948E1630
:1000C0000C948E160C948E160C948E160C945DCD9A
:1000D0000C9434CD0C948E160C948E160C948E16B3
:1000E0000C948E161F30B7523730142DB7524C2750
:1000F000B7525627B752B752CF3C9527B752B7528F
:1001000096269126B752D53DB752B752B752E04125
:10011000E84142474A47414AB7522F426D42AB42FB
:10012000844308431C3E0E3E072D4643B7525127D9
:10013000EE26B752DB2CF23FFC2C2B47B752F12CAA
:10014000E62C33473B47B7522930F041D838994025
:100150005E27A5269B26B752EC3685282A4AB75239
:10016000324ACE295247F832B752674BA537464D2F
:100170005933A247F841494AD428C131C1317331BA
:10018000BA331F34EE29AC27C32772271D2A8C26C9
:10019000A026B752B752B7526930832AA52AEE2754
:1001A000943F713F004208420F4217421F422742CC
:1001B000B942C142C942D142D942E142E842F04289
:1001C000F8420043F84392436E442F46B9455345E5
:1001D000B7523A4A452AC82ADC2B69308031883127
:1001E000A6312347A949CF491E4A1B478839CD2646
:1001F0007052F82FB752B752AF50B7523B3F2A3E1A
:10020000FC345635AF35873429358235DC356236D6
:100210003636302F1C2FD33E212DE42DAE2EE52E69
:10022000B650412FE72F0A36B752B752B752B752DE
:10023000B752B752B752B752B752F23FF427FC2722
:100240002228FB513752BC49EE4952471E4A514AB7
:100250004F4BB752D14C2E4D6E4CBB4C674C534D4F
:10026000B752333B613AFD4ED73CAE3D404FB7529B
:10027000B752D34D1C4E674EB24ECC4D604D8B4D98
:10028000834F8450DA51B752B7529151B752B75297
:10029000EA51B752DC28D073AE749B757675D27470
:1002A00051752C75F5731A743F7416763B7660762B
:1002B0008576897464740775D4CCD7CCC6CCCACC87
:1002C000D0CC0ECDDBCCDFCCE5CCE9CCEDCCF3CC87
:1002D000F7CCFBCC0ECD01CD05CD09CD92CE97CE7E
:1002E0009CCEA6CEB0CE29CFBACEC2CECACED4CE68
:1002F000DECEE8CEF7CE01CF29CF0BCF15CF1FCF63
:1003000027D234D250D25DD277D284D29ED2A0D21C
:10031000A2D2A4D2ACD2084AD73B3BCE016E84BC59
:10032000BFFDC12F3D6C74319ABD56833DDA3D004F
:10033000C77F11BED9E4BB4C3E916BAAAABE000098
:1003400000803F05A84CCDB2D44EB93836A9020C76
:1003500050B9918688083CA6AAAA2ABE000000804F
:100360003F000D9494520D9422760D9421760D94B5
:10037000BB800D94BF520D94AF824E414E494E4901
:100380005459494E46CDCCCC3D0AD7233C17B7D162
:100390003877CC2B329595E6241FB14F0A00002008
:1003A000410000C84200401C4620BCBE4CCA1B0E87
:1003B0005AAEC59D746364696E6F70737578585BCF
:1003C0000047333400494E464F3A204245442043CB
:1003D000414C4942202D200053757266696E67209A
:1003E000300A00473238205830205930005430004D
:1003F00054310054300054300053757266696E6792
:1004000020300A004734330047343300473431008A
:100410004734300047343300473433004734310029
:10042000473430004D3834004D3834004D383400F6
:100430005A32204F66667365743A20004F4B207322
:1004400065636F6E6420457874727564657221000F
:100450005A20706F736974696F6E3A20005A207069
:100460006F736974696F6E3A20004D3834005A31E9
:100470002050726F6265206F66667365743A200063
:100480004F4B206669727374204578747275646589
:100490007221200A005A20706F736974696F6E3A76
:1004A00020005A20706F736974696F6E3A200043A0
:1004B000616C63756C75733A20200043616C6375E1
:1004C0006C75733A20200043616C63756C75733AE8
:1004D00020200043616C63756C75733A20200054D2
:1004E000300054300054300043616C6962726174B2
:1004F000696F6E205375636365737366756C0A006C
:100500005430004A756D70206F7665722073637287
:1005100065773120616E6420736372657732200ADB
:10052000004A756D70206F7665722073637265770F
:1005300031200A0047333400473334004733340056
:1005400054300047333400494E464F3A2042454428
:100550002043414C4942202D2000363020646567FD
:1005600072656573200A004C6F6164696E670A00EA
:1005700053757266696E6720300A0053757266693A
:100580006E6720300A0053757266696E6720300A04
:10059000002533642025634300253364202563430D
:1005A000002533642025634300507572676520463B
:1005B000696C616D656E740A0025336420256343A0
:1005C00000253364202563430025336420256343DD
:1005D00000253364202563430025336420256343CD
:1005E00000253364202563430025336420256343BD
:1005F00000253364202563430053757266696E6776
:1006000020300A0053757266696E6720300A005404
:100610003000466F756E640053757266696E6720B0
:10062000300A004D33340053757266696E672030AE
:100630000A004D3234004D32332025730053757259
:1006400066696E6720300A0053757266696E6720AE
:10065000300A0053757266696E6720300A00535580
:1006600043434553530A0025336420256343002543
:10067000336420256343002533642025634300252C
:10068000336420256343002533642025634300251C
:10069000336420256343002533642025634300250C
:1006A0003364202563430025336420256343004CD5
:1006B0006F6164696E673A0A0025336420256343DD
:1006C00000253364202563430025336420256343DC
:1006D0000050757267652046696C616D656E7420A7
:1006E0000A0045787472756465722072656C656184
:1006F000736564206163746976653A20005A2053FB
:1007000049474D4120486F6D6564004578747275A6
:10071000646572206163746976653A2000473639F2
:1007200020414354495641544544004649524D578F
:100730004152455F4E414D453A4D61726C696E20A4
:1007400056313B20537072696E7465722F67726206
:100750006C206D617368757020666F722067656EBE
:1007600036204649524D574152455F55524C3A68E2
:10077000747470733A2F2F6769746875622E636F93
:100780006D2F4572696B5A616C6D2F4D61726C698A
:100790006E2F2050524F544F434F4C5F564552538B
:1007A000494F4E3A312E30204D414348494E455F26
:1007B000545950453A4D656E64656C204558545205
:1007C000554445525F434F554E543A322055554992
:1007D000443A30303030303030302D303030302D01
:1007E000303030302D303030302D3030303030300F
:1007F0003030303030300A00205A3A0020593A0068
:1008000020436F756E7420583A200020453A00202E
:100810005A3A0020593A00583A007A5F6D696E3AA8
:100820002000795F6D61783A2000785F6D61783AD9
:100830002000785F6D696E3A20004D6F646520324C
:10084000203A206379636C652020202D3E2052479A
:10085000423A203620737461746573002A2A2D3E53
:1008600020004D6F64652031203A2072616E646F04
:100870006D20202D3E205247423A202B31202B3232
:10088000202B332C20647572696E67207072696E3C
:1008900074696E67002A2A2D3E20004D6F64652022
:1008A00030203A2064656661756C74202D3E2052BC
:1008B00047423A2032353520323535203235350041
:1008C0002A2A2D3E20004C6564206D6F64657320DC
:1008D0003A004D353336204C5B6D6F64655D005AD0
:1008E000204F6666736574206F6B005A204F6666F2
:1008F000736574203A20007A5F6D61783A20007A3F
:100900005F6D696E3A20005A204F66667365740009
:10091000486F74656E64206F6666736574733A0021
:1009200054696D6520696E61637469766500507500
:100930007267652064697374616E636500504F531C
:100940004954494F4E20484F4D453A20002200550A
:100950006E6B6E6F776E20636F6D6D616E643A20A3
:10096000220053757266696E672030200A00436169
:100970006C6962726174696F6E205375636365732D
:100980007366756C0A005430004D38342058205975
:10099000205A204500466F726D2032210052656159
:1009A000647920746F204C6F61642F556E6C6F6199
:1009B00064200A002564252500253364202563432F
:1009C00000253364202563430025336425634320D9
:1009D0002F2025336425634300253364256343209A
:1009E0002F2025336425634300253364256343208A
:1009F0002F20253364256343005072696E74204AAA
:100A00006F622046696E6973686564004D383420F2
:100A1000582059205A2045004D31303700543000BD
:100A20002569206D696E2C20256920736563000A95
:100A30000A005374616E6461726420446576696172
:100A400074696F6E3A20000A004D65616E3A2000AD
:100A50000A002020207A3A200000793A2000783AD3
:100A600020003F537065636966696564206E756D2B
:100A7000626572206F66206C65677320696E206DF9
:100A80006F76656D656E74206E6F7420706C617525
:100A90007361626C652E0A003F5370656369666915
:100AA0006564205920706F736974696F6E206F756B
:100AB00074206F662072616E67652E0A003F537066
:100AC00065636966696564205820706F736974692D
:100AD0006F6E206F7574206F662072616E67652E71
:100AE0000A003F5370656369666965642073616DD0
:100AF000706C652073697A65206E6F7420706C610C
:100B0000757361626C652E0A0046756C6C20737596
:100B100070706F72742061743A20687474703A2F28
:100B20002F33647072696E74626F6172642E636FCA
:100B30006D2F666F72756D2E7068700A004D3438B7
:100B4000205A2D50726F6265205265706561746124
:100B500062696C69747920746573742E2020205644
:100B6000657273696F6E20322E30300A003F566511
:100B700072626F7365204C6576656C206E6F7420B1
:100B8000706C61757361626C652E0A002042403A98
:100B90000020403A00202F003A00205400202F006F
:100BA00020423A00202F006F6B20543A00426564C7
:100BB000204865617465640020423A0020453A008F
:100BC000543A0045787472756465722048656174A2
:100BD00065640020573A0020453A00543A00CDCCD5
:100BE000984300809343000052430000000000003F
:100BF0000000000000000A00207A3A200020793A24
:100C0000200020783A2000426564004D38340053BB
:100C100074617274696E6720582043616C696272F6
:100C20006174696F6E2057697A617264004D38345F
:100C3000005374617274696E6720592043616C6956
:100C400062726174696F6E2057697A6172640053D1
:100C500074617274696E67205A2043616C696272B4
:100C60006174696F6E2057697A617264002564202F
:100C70006974656D73002534643A252E32646820EA
:100C80002F20256467000043616C63756C75733AAF
:100C900020200043616C63756C75733A202000431B
:100CA000616C63756C75733A2020002533642025D0
:100CB00063430025336420256343005075726765E4
:100CC0002046696C616D656E740A005375726669C1
:100CD0006E6720310A0053757266696E6720300AAC
:100CE000002200656E717565696E67202200202DF7
:100CF00020496E76616C69642065787472756465EC
:100D000072206E756D6265722021004572726F727D
:100D10003A0067636F646520666F756E64002074C7
:100D20006F20537461727420446973706C61792010
:100D300066726F6D20526573657400546F6F6B201F
:100D400000646973706C6179206F6E6C696E6521E7
:100D5000002E00646973706C6179206F66666C693F
:100D60006E650042434E3344205369676D610073E2
:100D700074617274006563686F3A0030312D312EF2
:100D8000322E375243006572726F72207772697427
:100D9000696E6720746F2066696C6500205A3A009E
:100DA00020593A0020583A00656E6473746F70736E
:100DB000206869743A20006563686F3A00446F6E7A
:100DC0006520736176696E672066696C652E006FB9
:100DD0006B004D32390024F4D43050C38E20C2A2AF
:100DE0004017828B7011127A910D816CD90AA8611B
:100DF000E108C7586607615143061E4B5D05C145B2
:100E0000A7041A411104093D980371393103403692
:100E1000DB0265339102D4305402802E1D02632C14
:100E2000EE01752AC501B028A001102781018F2588
:100E300064012B244B01E0223401AC211F018D20E1
:100E40000D01801FFC00841EED00971DDF00B81C03
:100E5000D200E61BC600201BBC00641AB200B21907
:100E6000A8000A19A0006A189900D117910040172C
:100E70008B00B516840031167E00B31579003A1543
:100E80007300C7146F0058146A00EE1366008813CD
:100E9000630025135E00C7125B006C125700151229
:100EA0005400C111510070114F0021114B00D61098
:100EB00049008D1047004610440002104200C00F48
:100EC0004000800F3E00420F3C00060F3B00CB0E5F
:100ED0003800930E37005C0E3500270E3400F30DFA
:100EE0003200C10D3100900D3000600D2E00320D2A
:100EF0002D00050D2C00D90C2B00AE0C2900850C03
:100F000029005C0C2700350C27000E0C2600E80B8E
:100F10002400C40B2400A00B23007D0B23005A0BDC
:100F20002100390B2100180B2000F80A1F00D90AF4
:100F30001E00BB0A1E009D0A1D00800A1D00630AD8
:100F40001C00470A1B002C0A1B00110A1A00F70993
:100F50001A00DD091900C4091900AB09190092092A
:100F600017007B091800630917004C0916003609A1
:100F70001600200916000A091500F5081500E008FA
:100F80001400CC081400B8081400A4081400900839
:100F900013007D0812006B08130058081200460861
:100FA0001200340811002308110012081100010872
:100FB0001100F0071000E0071000D0071000C00774
:100FC0001000B0070F00A107100091070E00830763
:100FD0000F0074070F0065070E0057070E00490742
:100FE0000E003B070D002E070E0020070D00130713
:100FF0000D0006070D00F9060C00ED060D00E006D9
:101000000C00D4060C00C8060C00BC060C00B00690
:101010000C00A4060B0099060C008D060B0082063E
:101020000B0077060B006C060B0061060A005706E2
:101030000B004C060A0042060A0038060A002E067B
:101040000A0024060A001A060A001006090007060C
:101050000A00FD050900F4050900EB050900E20599
:101060000900D9050900D0050900C7050900BE051A
:101070000900B5050800AD050800A50509009C0597
:101080000800940508008C050800840508007C050C
:101090000800740508006C050700650508005D057B
:1010A0000700560508004E050700470507004005E4
:1010B000080038050700310507002A050700230549
:1010C00007001C050600160507000F0507000805A8
:1010D000060002050700FB040600F5040700EE0405
:1010E0000600E8040600E2040700DB040600D5045D
:1010F0000600CF040600C9040600C3040600BD04B0
:101100000600B7040600B1040500AC040600A604FE
:101110000600A00405009B04060095040500900449
:1011200006008A04050085040500800406007A0490
:10113000050075040500700405006B0405006604D5
:101140000500610405005C04050057040500520415
:1011500005004D04050048040500430405003E0455
:1011600004003A04050035040500300404002C0492
:10117000050027040400230405001E0404001A04CB
:10118000040016040500110404000D040400090401
:1011900005000404040000040400FC030400F80338
:1011A0000400F4030400F0030400EC030400E8036B
:1011B0000400E4030400E0030400DC030400D8039B
:1011C0000400D4030400D0030400CC030400C803CB
:1011D0000300C503030024F404D9201BC40C5C0ED7
:1011E0009804C4095F0265077101F405F900FB0466
:1011F000B30048048700C103690058035500030386
:101200004500BE023A008402310053022A0029023E
:10121000250004022000E4011C00C8011900AF01F0
:10122000170098011400840113007101100061017E
:10123000100051010E0043010D0036010B002B017F
:101240000B0020010B00150109000C01090003012E
:101250000800FB000800F3000800EB000700E400B2
:101260000600DE000600D8000600D2000600CC0012
:101270000500C7000500C2000500BD000400B9005C
:101280000400B5000400B1000400AD000400A90092
:101290000400A5000300A20003009F0004009B00BF
:1012A00003009800030095000200930003009000E3
:1012B00003008D0002008B000300880002008600FE
:1012C000020084000300810002007F0002007D0014
:1012D00002007B0002007900020077000100760026
:1012E00002007400020072000100710002006F0031
:1012F00002006D0001006C0002006A00010069003C
:101300000200670001006600010065000100640042
:1013100002006200010061000100600001005F0046
:1013200002005D0001005C0001005B0001005A004A
:10133000010059000100580001005700010056004B
:10134000010055000100540001005300000053004B
:1013500001005200010051000100500001004F0047
:1013600001004E0000004E0001004D0001004C0045
:1013700001004B0000004B0001004A000100490041
:10138000010048000000480001004700010046003D
:101390000000460001004500000045000100440037
:1013A0000100430000004300010042000000420031
:1013B00001004100000041000100400001003F0029
:1013C00000003F0001003E0000003E0001003D0023
:1013D00000003D0001003C0000003C0000003C001B
:1013E00001003B0000003B0001003A0000003A0011
:1013F0000100390000003900010038000000380009
:1014000000003800010037000000370001003600FE
:1014100000003600000036000100350000003500F5
:1014200000003500010034000000340000003400EA
:1014300001003300000033000000330001003200DF
:1014400000003200000032000100310000003100D5
:1014500000003100010030000000300000003000CA
:1014600001002F0000002F0000002F0000002F00BF
:1014700001002E0000002E0000002E0001002D00B3
:1014800000002D0000002D0000002D0001002C00A8
:1014900000002C0000002C0000002C0001002B009C
:1014A00000002B0000002B0000002B0001002A0090
:1014B00000002A0000002A0000002A000100290084
:1014C0000000290000002900000029000000290078
:1014D000010028000000280000002800000028006B
:1014E000000028000100270000002700000027005E
:1014F0000000270000002700010026000000260051
:101500000000260000002600000026000100250043
:101510000000250000002500000025000000250037
:101520000000250001002400000024000000240029
:10153000000024000000240001002300000023001C
:10154000000023000000230000002300000023000F
:101550000000230001002200000022000000220001
:1015600000002200000022000000220001002100F3
:1015700000002100000021000000210000002100E7
:1015800000002100000021000100200000002000D8
:1015900000002000000020000000200000002000CB
:1015A000000020000000200001001F0000001F00BC
:1015B00000001F0000001F0000001F0000001F00AF
:1015C00000001F0001001E0000001E0000001E00A1
:1015D00000001E00000053657474696E6773205329
:1015E000746F72656400204D696E75746573203A7E
:1015F0000020204C617374207072696E74207469CD
:101600006D652D3E20486F757273203A004C6173F2
:1016100074207072696E74206475726174696F6E83
:10162000002C205468697264204944206E756D62F4
:10163000657220002C205365636F6E64204944203E
:101640006E756D6265723A2000202046697273746F
:10165000204944206E756D6265723A20005549201C
:10166000496E666F726D6174696F6E205365726941
:10167000616C204E756D6265723A00206D2C2045BC
:1016800031207072696E742064697374616E636571
:101690003A2000206B6D2C204530207072696E74EA
:1016A0002064697374616E63653A2000206B6D2C51
:1016B0002059207072696E742064697374616E635E
:1016C000653A2000206B6D2C205831207072696EB5
:1016D000742064697374616E63653A200020432C42
:1016E0000A205830207072696E74206469737461C6
:1016F0006E63653A200020432C206D61782074656C
:101700006D7020423A200020432C206D61782074B7
:10171000656D7020523A20002C206D617820746530
:101720006D70204C3A2000682C207072696E7473C2
:101730002066696E69736865643A20002C207072B7
:10174000696E74696E672074696D653A20002020A7
:101750007072696E74733A200053544154533A00C6
:1017600020432C20525F5052494E543A20002043CF
:101770002C20525F4245443A200020432C20525FE7
:1017800052454D4F56453A20002020525F494E5356
:101790004552543A200054656D70202843293A0080
:1017A00020432C204C5F5052494E543A2000204395
:1017B0002C204C5F4245443A200020432C204C5FB3
:1017C00052454D4F56453A200020204C5F494E531C
:1017D0004552543A200054656D70202843293A0040
:1017E00020562856657273696F6E29200020522892
:1017F0004265642072696768742073637265772933
:10180000200020204D353331204C28426564206C67
:1018100065667420736372657729200042656420D1
:101820004F66667365747320286D6D293A002050E9
:10183000285A2070726F62652900205A20002059B2
:10184000200020204D353330205820004F6666732D
:1018500065747320286D6D293A00204400204900EA
:10186000202D204D3330312052494748542050001C
:1018700020440020490020204D333031204C454683
:10188000542050005049442073657474696E677326
:101890003A00205A0020590020204D32303620587E
:1018A00000486F6D65206F666673657420286D6DE6
:1018B000293A00204500205A0020580020420020EC
:1018C000540020204D323035205300416476616E43
:1018D000636564207661726961626C65733A205356
:1018E0003D4D696E20666565647261746520286D82
:1018F0006D2F73292C20543D4D696E2074726176D2
:10190000656C20666565647261746520286D6D2F55
:1019100073292C20423D6D696E696D756D2073656C
:10192000676D656E742074696D6520286D73292C50
:1019300020583D6D6178696D756D205859206A6534
:10194000726B20286D6D2F73292C20205A3D6D61FC
:1019500078696D756D205A206A65726B20286D6DEF
:101960002F73292C2020453D6D6178696D756D20A0
:1019700045206A65726B20286D6D2F7329002054F5
:101980000020204D323034205300416363656C6584
:10199000726174696F6E3A20533D616363656C6573
:1019A000726174696F6E2C20543D7265747261634C
:1019B0007420616363656C65726174696F6E002089
:1019C0004500205A0020590020204D323031205847
:1019D000004D6178696D756D20416363656C65725A
:1019E0006174696F6E20286D6D2F7332293A002063
:1019F0004500205A0020590020204D323033205815
:101A0000004D6178696D756D2066656564726174FD
:101A1000657320286D6D2F73293A00204500205AE8
:101A20000020590020204D39322058005374657031
:101A3000732070657220756E69743A0070012C0114
:101A400090012701B0012201C0011D01F001180120
:101A50001002130130020E0160020901900204011C
:101A6000C002FF000003FA004003F5008003F0000D
:101A7000D003EB002004E6007004E100E004DC0089
:101A80004005D700C005D2004006CD00D006C800F2
:101A90008007C3003008BE00F008B900C009B400D8
:101AA000B00AAF00B00BAA00D00CA500000EA00039
:101AB000500F9B00C01096005012910000148C0033
:101AC000C0158700B0178200B0197D00D01B7800C8
:101AD000001E730040206E0090226900F024640014
:101AE00040275F0090295A00E02B5500102E50002F
:101AF00020304B0010324600E033410090353C006E
:101B00001037370070383200A0392D00B03A280065
:101B1000A03B2300603C1E00103D1900903D1400C6
:101B2000103E0F00703E0A00C03E0500003F00005E
:101B30004572726F72283833293A204265642074E6
:101B40006865726D6973746F72206E6F742064655E
:101B5000746563746564004572726F722838322947
:101B60003A20526967687420746865726D6973748D
:101B70006F72206E6F7420646574656374656400B1
:101B80004572726F72283831293A204C656674208C
:101B9000746865726D6973746F72206E6F74202043
:101BA0006465746563746564002053544F5020501D
:101BB00052494E54200A004572726F7228383329F8
:101BC0003A2042656420746865726D6973746F723F
:101BD000206E6F74206465746563746564002053BF
:101BE000544F50205052494E54200A004572726F93
:101BF00072283832293A20526967687420746865FF
:101C0000726D6973746F72206E6F74206465746591
:101C100063746564002053544F50205052494E5411
:101C2000200A004572726F72283831293A204C65BB
:101C3000667420746865726D6973746F72206E6F5C
:101C4000742020646574656374656400000021007D
:101C5000240027002A002D0030003300010100007D
:101C6000040107010A0100002200250028002B00C2
:101C70002E003100340002010000050108010B01B3
:101C8000000020002300260029002C002F00320035
:101C9000000100000301060109010505050507050E
:101CA00008080808020202020A0A080804040404D8
:101CB0000101010101010101030303030303030304
:101CC000040707070C0C0C0C0C0C0C0C0202020293
:101CD00006060606060606060B0B0B0B0B0B0B0B7C
:101CE000010210202008081020401020408002012E
:101CF0000201080402010102040810204080804013
:101D00002010080402018004020180402010080411
:101D100002010804020101020408102040800102AF
:101D200004081020408000000A0B02090C0D0E0868
:101D30000703040100000000000000000000000094
:101D40000000000000000000000000000000000093
:101D50000000121110000000000000000000000050
:101D60000000000000000000000000005341564544
:101D700044205052494E54007A70726F62653A2086
:101D80000053442063617264206F6B006F70656E56
:101D9000526F6F74206661696C656400766F6C7554
:101DA0006D652E696E6974206661696C65640045B5
:101DB00072726F723A00534420696E6974206661D2
:101DC000696C006563686F3A004D3234004D323300
:101DD000202573006175746F25692E67000A002045
:101DE000616E7469686F726172690A3A20002068D6
:101DF0006F726172690A20002F3800766F6C74650B
:101E000073200020566F6C74657320636172676F76
:101E10006C20333A200020616E7469686F726172C1
:101E2000690A3A200020686F726172690A20002FE7
:101E30003800766F6C746573200020566F6C746583
:101E40007320636172676F6C20323A20000A0020B1
:101E5000647A333A200020647A323A200054310008
:101E60005430005430005430000056756974656E6B
:101E700073333A2020004170726F78333A2020008B
:101E8000566F6C746573333A202000005675697480
:101E9000656E73323A2020004170726F78323A20BA
:101EA0002000566F6C746573323A20200056616CC6
:101EB0006F7220645A333A20200056616C6F722092
:101EC000645A323A2020004E6577206F666673654B
:101ED000742076657273696F6E3A20007A335F31D1
:101EE0003A20007A325F313A20005A7363726F6C85
:101EF0006C5F313A20007A335F303A20007A325FEB
:101F0000303A20005A7363726F6C6C5F303A200075
:101F1000706C616E654E6F726D616C5F312E7A3AD6
:101F20002000706C616E654E6F726D616C5F312E5A
:101F3000793A2000706C616E654E6F726D616C5FF6
:101F4000312E783A2000706C616E654E6F726D6153
:101F50006C5F302E7A3A2000706C616E654E6F7245
:101F60006D616C5F302E793A2000706C616E654E49
:101F70006F726D616C5F302E783A20005A76616C1A
:101F8000756520616674657220686F6D653A0048FA
:101F90006F6D6520582F59206265666F7265205AF3
:101FA000002200656E717565696E67202200000071
:101FB000000000809343000000000000A0400000EB
:101FC000A0400000004020004D6F766520746F3AFD
:101FD0002000CDCC98430080934300005243FF0182
:101FE000FF20636F6C6420657874727573696F6E1F
:101FF0002070726576656E746564006563686F3A1B
:10200000002E2E2E2054696D656F757421002A2ACA
:102010002A2047656E69652057726974654F626A48
:10202000656374202A2A2A202D2D2D3E002E2E2E67
:10203000204E414B2021002A2A2A2047656E6965DF
:102040002057726974654F626A656374202A2A2A70
:10205000202D2D2D3E002E2E2E2041434B202100E1
:102060002A2A2A2047656E69652057726974654F70
:10207000626A656374202A2A2A202D2D2D3E002AAB
:102080002A2A2047656E696520426164204279747E
:1020900065202A2A2A202D2D2D3E2030780020561A
:1020A000616C75653A200020496E6465783A2000BD
:1020B0002A2A2A2047656E6965205265706F7274FE
:1020C000204F626A656374202A2A2A204F626A655B
:1020D00063743A20002A2A2A2047656E69652043E6
:1020E0006F6E6E6563746564202F2053796E632173
:1020F000202A2A2A002056616C75653A2000204962
:102100006E6465783A20002A2A2A2047656E696540
:10211000205265706F7274204576656E74202A2A8D
:102120002A204F626A6563743A2000204C656E670E
:1021300074683A20002A2A2A2047656E6965205271
:1021400065636569766564204D6167696320446FE6
:1021500075626C65204279746573202A2A2A2049A9
:102160006E6465783A2000204C656E6774683A208A
:10217000002A2A2A2047656E6965205265636569D1
:10218000766564204D6167696320427974657320C8
:102190002A2A2A20496E6465783A20002A2A2A20B1
:1021A00047656E6965204E414B205265636F7665C9
:1021B000727920212121202A2A2A002A2A2A20472E
:1021C000656E696520446973636F6E6E65637465DF
:1021D000642066726F6D20446F4576656E7473215E
:1021E000202A2A2A002A2A2A2047656E6965205457
:1021F0006F6F6B20746F6F206C6F6E6720746F2031
:1022000072652D656E74657220446F4576656E74D7
:102210007328292C207265647563652064656C6180
:10222000797320696E20636F64652C2073656C661A
:102230002D70726F74656374696F6E20656E616274
:102240006C65642E202A2A2A002A2A2A2047656ED5
:10225000696520446973636F6E6E6563746564209D
:1022600066726F6D204765744E6578744279746547
:1022700021202A2A2A0025203364202525002564D0
:102280002068202564206D0025203364202525004A
:1022900025326420256343002533642025634300F1
:1022A0002533642025634300526561647920746F8F
:1022B000204C6F61642F556E6C6F6164200A00259D
:1022C00064252500253364202563430025336420DD
:1022D000256343002053544F50205052494E542000
:1022E0000A00473238205830205930004D3335002D
:1022F000526573756D6520646574656374656420EB
:102300000A0047373000A1524553554D4521200A58
:1023100000A1504155534521200A00253364202552
:10232000634300253364202563430025336420255F
:10233000634300253364202563430025336420254F
:10234000634300253364202563430025336420253F
:10235000634300253364202563430025336420252F
:102360006343005052494E542053455454494E47FC
:1023700053200A00204500205A00205900483D58AB
:1023800000486F74656E64206F6666736574733A97
:1023900000504944204175746F74756E65206669FC
:1023A0006E697368656421205075742074686520B7
:1023B0006C617374204B702C204B6920616E64201B
:1023C0004B6420636F6E7374616E74732066726FFA
:1023D0006D2061626F766520696E746F20436F6E49
:1023E00066696775726174696F6E2E680050494442
:1023F000204175746F74756E65206661696C6564E3
:10240000212074696D656F75740020403A006F6B10
:1024100020543A006F6B20423A00504944204175E5
:10242000746F74756E65206661696C6564212054F3
:10243000656D706572617475726520746F6F206868
:1024400069676800204B643A2000204B693A2000FD
:10245000204B703A200020436C61737369632050F5
:10246000494420002054753A2000204B753A200042
:10247000206D61783A2000206D696E3A200020645A
:102480003A200020626961733A2000526573656EDC
:10249000643A20006F6B004475616C204D6F646579
:1024A000204F464600436F6F6C696E6720446F771C
:1024B0006E20486561746572005072696E74657251
:1024C0002068616C7465642E206B696C6C2829200F
:1024D00063616C6C656421004572726F723A0045ED
:1024E000787472756465722072656C656173656479
:1024F000206163746976653A20005A205349474D3C
:102500004120486F6D65640045787472756465722A
:10251000206163746976653A20007C3C3E5E2B3D09
:102520003F2F5B5D3B2C2A225C002F005344207020
:1025300072696E74696E67206279746520004E6FEF
:1025400074205344207072696E74696E67002E00A7
:1025500044656C6574696F6E206661696C65642C96
:102560002046696C653A200046696C652064656C9C
:10257000657465643A002E006F70656E206661694F
:102580006C65642C2046696C653A2000473238201F
:1025900058302059300053544154495354494353FF
:1025A000205245534554002C2073617665645F4684
:1025B0006C61675F66616E6C617965725F6D69728F
:1025C000726F723A20002C2073617665645F6665D5
:1025D0006564726174653A20002C207361766564CD
:1025E0005F66616E6C617965723A20002C207361C0
:1025F0007665645F74656D706265643A20002C20B6
:1026000073617665645F74656D70303A20002C20CC
:1026100073617665645F74656D70313A20002C20BB
:1026200073617665645F66696C65706F7369746900
:102630006F6E3A20002C2073617665645F655F7071
:102640006F736974696F6E3A20002C207361766530
:10265000645F746F6F6C5F6163746976653A2000C4
:102660002C2073617665645F7A5F706F736974693B
:102670006F6E3A20002C2073617665645F795F701D
:102680006F736974696F6E3A20002C2073617665F0
:10269000645F785F706F736974696F6E3A2000537E
:1026A000415645205052494E54204C4F473A006500
:1026B00063686F3A005072696E74207265636F765A
:1026C000657279207570004E6F74207072696E7437
:1026D000207265636F76657279207570005355437B
:1026E000434553530056616C756573206F757420B4
:1026F0006F662072616E67650056616C7565732048
:102700006F7574206F662072616E67650056616C2C
:10271000756573206F7574206F662072616E6765D2
:102720000056616C756573206F7574206F6620723A
:10273000616E676500535543434553530056616CC2
:10274000756573206F7574206F662072616E6765A2
:102750000056616C756573206F7574206F6620720A
:10276000616E67650056616C756573206F757420C6
:102770006F662072616E67650056616C75657320C7
:102780006F7574206F662072616E676500504F53DD
:102790004954494F4E20484F4D453A20002A2A2A95
:1027A0002047656E696520456E61626C65204174E5
:1027B000746163684576656E7448616E646C6572B9
:1027C00020212121202A2A2A0043616E6E6F742065
:1027D000656E746572207375626469723A20005781
:1027E000726974696E6720746F2066696C653A203F
:1027F000002E006F70656E206661696C65642C2028
:1028000046696C653A20002E006F70656E20666127
:10281000696C65642C2046696C653A200046696CD9
:10282000652073656C6563746564002053697A651F
:102830003A200046696C65206F70656E65643A20C9
:10284000002E006F70656E206661696C65642C20D7
:1028500046696C653A20004E6F7720667265736832
:102860002066696C653A20004E6F7720646F696E50
:10287000672066696C653A20002220706F73002221
:1028800020706172656E743A2200535542524F5562
:1028900054494E452043414C4C2074617267657425
:1028A0003A2200747279696E6720746F2063616CDC
:1028B0006C207375622D67636F64652066696C6553
:1028C00073207769746820746F6F206D616E792052
:1028D0006C6576656C732E204D4158206C6576656D
:1028E0006C2069733A00504944204175746F7475C7
:1028F0006E652066696E697368656421005049449D
:10290000204175746F74756E65206661696C6564CD
:10291000212074696D656F75740020403A006F6BFB
:1029200020543A006F6B20423A00504944204175D0
:10293000746F74756E65206661696C6564212054DE
:10294000656D706572617475726520746F6F206853
:1029500069676800204B643A2000204B693A2000E8
:10296000204B703A200020436C61737369632050E0
:10297000494420002054753A2000204B753A20002D
:10298000206D61783A2000206D696E3A2000206445
:102990003A200020626961733A200053746F7265B7
:1029A000642073657474696E6773207265747269EC
:1029B000657665640048617264636F646564204491
:1029C000656661756C742053657474696E677320F5
:1029D0004C6F616465640048617264636F64656430
:1029E0002043616C696220616E6420504944204438
:1029F000656661756C742053657474696E677320C5
:102A00004C6F6164656400487973746572657369BD
:102A1000732074656D7065726174757265005468B9
:102A200065726D616C2072756E617761792070726C
:102A30006F74656374696F6E206279204865617494
:102A400065725F49443A003B20472D436F6465201F
:102A500067656E6572617465642062792053696D83
:102A6000706C6966793344285229205665727369FF
:102A70006F6E202564003B5072696E742074696D1E
:102A8000653A2025642025732025642025732025A0
:102A900064202573003B54494D453A256C64003B46
:102AA0002020204275696C642074696D653A202588
:102AB00064202573202564202573003B20202050AE
:102AC0006C6173746963207765696768743A20255F
:102AD000642E256467003B46696C616D656E7420E9
:102AE000757365643A2025642E25646D2025642E57
:102AF000256467003B46696C616D656E7420757373
:102B000065643A20256C642E256C646D004D31306F
:102B10003700256920686F757273202569206D69FB
:102B20006E7574657300446F6E65207072696E74A3
:102B3000696E672066696C65004D3333007061759E
:102B40007365206465746563746564200A004736A4
:102B500039005072696E7465722073746F7070659D
:102B6000642064756520746F206572726F72732EB5
:102B70002046697820746865206572726F722061E2
:102B80006E6420757365204D39393920746F207259
:102B90006573746172742E202854656D706572615E
:102BA000747572652069732072657365742E205385
:102BB000657420697420616674657220726573742F
:102BC000617274696E6729006F6B004E6F204C69EB
:102BD0006E65204E756D626572207769746820633A
:102BE0006865636B73756D2C204C617374204C6940
:102BF0006E653A20004E6F20436865636B73756D98
:102C00002077697468206C696E65206E756D6265E9
:102C1000722C204C617374204C696E653A200063FD
:102C20006865636B73756D206D69736D617463683E
:102C30002C204C617374204C696E653A20004C69FD
:102C40006E65204E756D626572206973206E6F74BB
:102C5000204C617374204C696E65204E756D626501
:102C6000722B312C204C617374204C696E653A20B4
:102C7000004D313130000A00205A3A200020593AE4
:102C8000200020583A200042656400456E642066AA
:102C9000696C65206C69737400426567696E2066B3
:102CA000696C65206C6973740043617264204E61C5
:102CB0006D653A200000B701BB0111241FBECFEFA4
:102CC000D1E2DEBFCDBF00E00CBF17E0A0E0B2E074
:102CD000E8E0F6E303E00BBF02C007900D92AA38CC
:102CE000B107D9F729E1AAE8B7E001C01D92A13BDD
:102CF000B207E1F716E1CCE5D6E100E006C0219786
:102D00000109802FFE010F946798CB35D10780E031
:102D10000807A9F70F948A770D94F39A0C94000092
:102D20002F923F924F925F926F927F928F929F92DB
:102D3000AF92BF92CF92DF92EF92FF920F931F93C9
:102D4000CF93DF93CDB7DEB7C153D1400FB6F89420
:102D5000DEBF0FBECDBF2DB63EB611E010933808D2
:102D60008091C00781110CC00E946ACF6093BC079C
:102D70007093BD078093BE079093BF071093C00761
:102D80008091B40781110DC00E946ACF6093B00793
:102D90007093B1078093B2079093B30781E080935B
:102DA000B4078091E61340911D0250911E0260917C
:102DB0001F0270912002811106C09091E7139923A0
:102DC00011F40C9453244E3851056105710509F432
:102DD0005FC60CF0D5C04D3351056105710509F48E
:102DE000D2C10CF05AC0403251056105710511F491
:102DF0000C944C2234F5403151056105710509F4FC
:102E000073C174F4413051056105710509F4A6C11F
:102E1000423051056105710509F42FC30C94B75276
:102E2000423151056105710509F442C214F40C9454
:102E3000AB21433151056105710509F40BC20C94B6
:102E4000B752423351056105710509F416C37CF48C
:102E5000413251056105710511F40C943B22413357
:102E600051056105710509F4D7C10C94B75245337A
:102E700051056105710511F40C9404234A33510581
:102E80006105710509F4FBC74433510561057105FE
:102E900011F00C94B7520C94FC2048355105610593
:102EA000710509F49AC154F546345105610571055F
:102EB00009F488C47CF4413451056105710509F4B5
:102EC0000EC4443451056105710511F40C94B71F0B
:102ED0000C94B7524F3451056105710509F45CC576
:102EE000473551056105710509F4C4C14E345105DA
:102EF0006105710511F00C94B752D7C44B375105D9
:102F00006105710509F4DFC274F44A3551056105A4
:102F1000710509F4D8C2463751056105710509F4F8
:102F2000D6C10C94B752483851056105710509F4B2
:102F3000E5C0493851056105710509F4EAC04C370F
:102F400051056105710511F00C94B75240E050E055
:102F50006AE28AE00F94400640E050E06DE781E2CB
:102F60000F94400611E010938C181092E11861EE56
:102F700077E086E20F9445071093E0070C94B75270
:102F80004D3951056105710511F40C94A3220CF023
:102F90004FC0453951056105710509F4E0C6F4F4E7
:102FA000413951056105710509F46AC574F44F385A
:102FB00051056105710509F4C4C540395105610524
:102FC000710509F419C60C94B752433951056105CE
:102FD000710509F4E3C50CF487C53AC648395105B3
:102FE0006105710511F40C94D9227CF44639510520
:102FF0006105710509F486C64739510561057105FA
:1030000011F40C94EA220C94B7524B395105610526
:10301000710511F40C94632214F00C946C224A395B
:1030200051056105710511F40C945A220C94B752A4
:10303000463A51056105710509F406C21CF5423A8C
:1030400051056105710509F454C07CF4403A5105FD
:103050006105710511F40C94FB22413A510561059B
:10306000710509F422C60C94B752443A5105610522
:10307000710509F4FDC10CF0F1C181E080930718DE
:103080000C94B752493A51056105710509F4EBC139
:1030900094F4473A51056105710509F4DAC1483ADB
:1030A00051056105710511F00C94B75281E08093D0
:1030B00001180C94B7524E3B51056105710509F496
:1030C0009EC0433D51056105710511F40C94152412
:1030D0004A3A51056105710511F00C94B75281E02F
:1030E000809300180C94B75281E080930A180C94D6
:1030F000B75281E0809309180C94B75281E0809315
:103100000A1841E050E069E881E20F9440060C940F
:10311000B75280910E02833411F00C94B75282E4BE
:1031200080930E0240E050E067E581E20F94400694
:1031300040E050E066E781E20F94400640E050E056
:1031400068E881E20F94400640E050E069E881E2DF
:103150000F9440061092E1180C94B75210928C18FC
:1031600080E00E94D5D981E08093FD1780939F0F66
:1031700040E050E068E08AE00F94400681E48093EC
:10318000A00F0C94B75280910E0240E050E08134C1
:1031900091F469E08AE00F94400611E010938C18D6
:1031A00061EE77E082E00F9445071093E0071092FC
:1031B000E1180C94B7526AE28AE00F94400611E0DD
:1031C00010938C1861EE77E086E20F944507109318
:1031D000E0071092E1180C94B75280918008811199
:1031E0000C94B7528091E71381110C94B75240E0D0
:1031F00050E069E38AE00F9440060C94B752809146
:10320000800881110C94B75240E050E061E08AE000
:103210000F9440060C94B7528091800881110C9451
:10322000B75200910E02013411F00C94B752109273
:103230008C181092E61311E01093E71340E050E071
:1032400068E08AE00F9440060093A00F1093921953
:103250000C94B75280910E02813411F00C94B75245
:1032600040E050E061E08AE00F94400610928C1834
:103270000C94B75280910E02823491F3833411F092
:103280000C94B75240E050E066E18AE00F944006AB
:1032900041E050E06DE781E20F94400682E58093C3
:1032A000150281E08093E11810928C180C94B752AB
:1032B000882311F40C94B75280910E02813411F0DE
:1032C0000C94B75281E08093FF170C94B752809111
:1032D000E713882311F40C94B75280910E028234C4
:1032E00029F481E08093FE170C94B752833411F0D7
:1032F0000C94B75211E010932F0840E050E068E9B9
:1033000081E20F94400640E050E067E981E20F94CB
:10331000400640E050E06CE981E20F94400640E056
:1033200050E06DE981E20F94400641E050E067E82B
:1033300081E20F94400640E050E06CE28AE00F9496
:1033400040061093E1188FEF9FEF909365028093F2
:103350006402E1EDF6E084918F01882351F0082E9C
:10336000000C990B0E9447D70F5F1F4FF801849103
:10337000F4CF40E050E06AE981E20F94400640E07B
:1033800050E06BE981E20F9440061F9210EBF12EA2
:10339000FF926091C6187091C7188091C8189091DB
:1033A000C9180F949C957F936F9389EC96E09F9337
:1033B0008F938E010F5F1F4F1F930F930F94268DD6
:1033C000B8018AE00F944507C8010F949C6B1F92C7
:1033D000FF926091CA187091CB188091CC1890918F
:1033E000CD180F949C957F936F9381EC96E09F93FB
:1033F0008F931F930F930F94268DB80181E10F9443
:103400004507C8010F949C6B1F92FF921F921F9259
:1034100089EB96E09F938F931F930F930F94268DC4
:10342000B80185E00F944507C8010F949C6B10927A
:103430008C182DB73EB7285E3F4F0FB6F8943EBFAD
:103440000FBE2DBF0C94B75281E0809304180C94EA
:10345000B75281E0809303180C94B75281E08093B7
:1034600006180C94B75281E0809302180C94B7525E
:1034700081E0809305180C94B752423051056105E4
:10348000710511F489E406C04233510561057105E7
:1034900019F482E58093150240E050E06CE481E28B
:1034A0000F94400640E050E06BE481E20F94400648
:1034B00040E050E064E18AE00F9440068FEF809393
:1034C000DC170C94B7524A3551056105710519F4A2
:1034D0001092DC1703C081E08093DC178091DC1729
:1034E000082F10E0000F111FF801ED5FFF4E208143
:1034F00031813093AF072093AE0781111EC08091B8
:10350000BD189091BE186091940770919507681747
:1035100079072CF4BC01990F880B990B04C0072E76
:10352000000C880B990B0F947C8D0D5F1F4E0F9430
:103530009C95D8016D937C931DC08091C11890918A
:10354000C2186091920770919307681779072CF45D
:10355000BC01990F880B990B04C0072E000C880B37
:10356000990B0F947C8D0D5F1F4E0F949C95F80165
:103570007183608381E48093A00F40E050E068E0B5
:103580008AE00F94400640E050E06DE781E20F943E
:10359000400680E090E0A3E4B3E48093261090938B
:1035A0002710A0932810B09329108090C8179090EE
:1035B000C917A090CA17B090CB1720912210309154
:1035C0002310409124105091251060911E1070918D
:1035D0001F108091201090912110E1E16E2EE0E10A
:1035E0007E2E7F926F92FAE2CF2EF0E1DF2EE12C59
:1035F000F12C03E413E40E94B9ED0F94A36680E07C
:1036000090E0A0E2B1E48093221090932310A09365
:103610002410B09325108090C4179090C517A090E7
:10362000C617B090C717E0902610F09027100091B1
:1036300028101091291060911E1070911F10809118
:103640002010909121107F926F9220E030E040E2B4
:1036500051E40E94B9ED0F94A3660F900F900F9064
:103660000F908091A00F8E3411F40C94AC2810921E
:10367000A00F0E94A3726FEF73E08DE20F944507D5
:1036800040E050E068E28AE00F9440060091DC17C9
:1036900010E0F801EE0FFF1FEE0FFF1FEA53F74E89
:1036A00060817181828193810F949C9570932D0824
:1036B00060932C08000F111FF801ED5FFF4E808111
:1036C000918190932B0880932A0888E48093A00F1F
:1036D0000E94A37281E080932E080C94B7528091CF
:1036E000DC178130B1F540E050E068E08AE00F94EB
:1036F000400687ED90E09093DD088093DC0890937E
:10370000C4188093C3188AEA90E09093C2188093FB
:10371000C11881E490E09093D9088093D8080E9462
:1037200037C88091C3189091C41890930610809365
:1037300005100E94E6B140E050E06EE781E20F9490
:10374000400640E050E06DE481E20F9440060C94A6
:10375000B75281110C94B75240E050E068E08AE023
:103760000F94400687ED90E09093DF088093DE0889
:103770009093C0188093BF188AEA90E09093BE1887
:103780008093BD1881E490E09093DB088093DA0881
:103790000E9437C88091BF189091C0189093041070
:1037A000809303100E94E6B140E050E06EE781E2B2
:1037B0000F94400640E050E06DE481E20F94400633
:1037C0000C94B7528091DC178130B1F540E050E0A5
:1037D00068E08AE00F94400684E091E09093DD0871
:1037E0008093DC089093C4188093C31886EE90E011
:1037F0009093C2188093C1188AE590E09093D908FD
:103800008093D8080E9437C88091C3189091C4183B
:1038100090930610809305100E94E6B140E050E0BE
:103820006EE781E20F94400640E050E06DE481E2F3
:103830000F9440060C94B75281110C94B75240E09B
:1038400050E068E08AE00F94400684E091E09093B5
:10385000DF088093DE089093C0188093BF1886EE2F
:1038600090E09093BE188093BD188AE590E0909305
:10387000DB088093DA080E9437C88091BF189091C6
:10388000C01890930410809303100E94E6B140E0AA
:1038900050E06EE781E20F94400640E050E06DE4B6
:1038A00081E20F9440060C94B7528091DC1781306E
:1038B000C1F540E050E068E08AE00F9440068CEDEE
:1038C00090E09093DD088093DC0886EE90E0909382
:1038D000C4188093C31880EA90E09093C218809334
:1038E000C1188CE390E09093D9088093D8080E9487
:1038F00037C88091C3189091C41890930610809394
:1039000005100E94E6B140E050E06EE781E20F94BE
:10391000400640E050E06DE481E20F9440060C94D4
:10392000B75281110C94B75240E050E068E08AE051
:103930000F9440068CED90E09093DF088093DE08B2
:1039400086EE90E09093C0188093BF1880EA90E0D4
:103950009093BE188093BD188CE390E09093DB08A1
:103960008093DA080E9437C88091BF189091C018E0
:1039700090930410809303100E94E6B140E050E061
:103980006EE781E20F94400640E050E06DE481E292
:103990000F9440060C94B7528091DC17823010F0DF
:1039A0000C94B75240E050E064E38AE00F94400684
:1039B0001F9250EBF52EFF9280910D028F93809114
:1039C0000C028F9302E014E01F930F936E01FCED45
:1039D000CF1AFEEFDF0ADF92CF920F94C39AB6019F
:1039E0008DE00F9445071F92FF9280910B028F93F9
:1039F00080910A028F931F930F936E0126EEC21AD5
:103A00002EEFD20ADF92CF920F94C39AB6018EE0C6
:103A10000F9445071F92FF92809109028F93809126
:103A200008028F931F930F936E0131E0C30ED31ED4
:103A3000DF92CF920F94C39AB6018FE00F9445079F
:103A40001F92FF92809107028F93809106028F93BD
:103A50001F930F938E010F5F1F4F1F930F930F94B0
:103A6000C39A4DB75EB7405E5F4F0FB6F8945EBF26
:103A70000FBE4DBFB80182E10F9445070C94B752B9
:103A800040E050E064E18AE00F9440060C94B752A5
:103A900080910C0290910D021816190614F00C94E6
:103AA000B7520A9790930D0280930C021F9220EB5D
:103AB0002F939F938F9389E094E09F938F938E0130
:103AC0000F5F1F4F1F930F930F94C39AB8018DE0A0
:103AD0000F9445078DB79EB708960FB6F8949EBF12
:103AE0000FBE8DBF0C94B75280910C0290910D02C5
:103AF0008633A1E09A0714F00C94B7520A9690937B
:103B00000D0280930C021F9220EB2F939F938F93B3
:103B100089E094E09F938F938E010F5F1F4F1F9357
:103B20000F930F94C39AB8018DE00F944507EDB73A
:103B3000FEB738960FB6F894FEBF0FBEEDBF0C94DB
:103B4000B75280910A0290910B021816190614F0D0
:103B50000C94B7520A9790930B0280930A021F921B
:103B600020EB2F939F938F9389E094E09F938F9303
:103B70008E010F5F1F4F1F930F930F94C39AB801CD
:103B80008EE00F9445072DB73EB7285F3F4F0FB625
:103B9000F8943EBF0FBE2DBF0C94B75280910A021D
:103BA00090910B02863331E0930714F00C94B752D6
:103BB0000A9690930B0280930A021F9220EB2F9398
:103BC0009F938F9389E094E09F938F938E010F5F73
:103BD0001F4F1F930F930F94C39AB8018EE00F9459
:103BE00045074DB75EB7485F5F4F0FB6F8945EBFAD
:103BF0000FBE4DBF0C94B7528091080290910902FC
:103C00001816190614F00C94B7520A9790930902EB
:103C1000809308021F9220EB2F939F938F9389E04C
:103C200094E09F938F938E010F5F1F4F1F930F930D
:103C30000F94C39AB8018FE00F9445078DB79EB7D4
:103C400008960FB6F8949EBF0FBE8DBF0C94B75266
:103C500080910802909109028633A1E09A0714F03E
:103C60000C94B7520A9690930902809308021F920F
:103C700020EB2F939F938F9389E094E09F938F93F2
:103C80008E010F5F1F4F1F930F930F94C39AB801BC
:103C90008FE00F944507EDB7FEB738960FB6F8944E
:103CA000FEBF0FBEEDBF0C94B752809106029091FB
:103CB00007021816190614F00C94B7520A9790933D
:103CC0000702809306021F9220EB2F939F938F93FE
:103CD00089E094E09F938F938E010F5F1F4F1F9396
:103CE0000F930F94C39AB80182E10F9445072DB743
:103CF0003EB7285F3F4F0FB6F8943EBF0FBE2DBFB3
:103D00000C94B75280910602909107028936910572
:103D100014F00C94B7520A9690930702809306020F
:103D20001F9220EB2F939F938F9389E094E09F93B2
:103D30008F938E010F5F1F4F1F930F930F94C39AA2
:103D4000B80182E10F9445074DB75EB7485F5F4FFA
:103D50000FB6F8945EBF0FBE4DBF0C94B75240E053
:103D600050E068E08AE00F944006E091DC17409153
:103D70000C0250910D0220910A0230910B026091C9
:103D80000802709109028091060290910702E111E8
:103D900030C06C33A1E07A0714F06BE371E07093EC
:103DA000DF086093DE084C33B1E05B0714F04BE3AF
:103DB00051E05093C0184093BF182C33E1E03E0708
:103DC00014F02BE331E03093BE182093BD188F36EA
:103DD000910514F08EE690E09093DB088093DA086A
:103DE0008091BF189091C018909304108093031095
:103DF00034C06C33F1E07F0714F06BE371E0709333
:103E0000DD086093DC084C3361E056072CF45093D6
:103E1000C4184093C31806C04BE351E05093DD082B
:103E20004093DC082C33A1E03A0714F02BE331E097
:103E30003093C2182093C1188F36910514F08EE686
:103E400090E09093D9088093D8088091C3189091FE
:103E5000C41890930610809305100E9437C80E94E2
:103E6000E6B140E050E06EE781E20F94400640E0AA
:103E700050E06DE481E20F9440060C94B7526FEF6E
:103E800073E08DE20F94450740E050E068E28AE07D
:103E90000F94400688E48093A00F0E94A372809143
:103EA000DC17082F10E081111DC08091BF18909180
:103EB000C0186091900770919107681779072CF4EA
:103EC000BC01990F880B990B04C0072E000C880BBE
:103ED000990B0F947C8D0F949C95709304106093B4
:103EE000031022C08091C3189091C41860918E076E
:103EF00070918F07681779072CF4BC01990F880B14
:103F0000990B04C0072E000C880B990B0F947C8D25
:103F10009801220F331FF901ED5FFF4E7F010F94CF
:103F20009C95D7016D937C93F801EE0FFF1FEE0F68
:103F3000FF1FEA53F74E60817181828193810F9454
:103F40009C9570932D0860932C08F801EE0FFF1FCD
:103F5000ED5FFF4E8081918190932B0880932A081A
:103F60000E94A37281E080932E080C94B752809136
:103F70001502893411F00C94B75240E050E068E02B
:103F80008AE00F94400681E48093A00FE090261011
:103F9000F0902710009128101091291020912210E4
:103FA000309123104091241050912510E091DC179E
:103FB000B4E0EB9FF0011124E258FD4F6081718164
:103FC000828193810F94456CE0902610F090271029
:103FD0000091281010912910209122103091231067
:103FE000409124105091251060911E1070911F1067
:103FF0008091201090912110ECEDF7E1FF93EF9369
:10400000812CA0E89A2EABE3AA2EA6E4BA2EBAE23F
:10401000CB2EB0E1DB2E0E94B9ED0F94A366EFEA40
:10402000F6E084910F900F908F01882351F0082EB5
:10403000000C990B0E9447D70F5F1F4FF801849126
:10404000F4CF20E030E040EF51E460912A1070910D
:104050002B1080912C1090912D100F94029460934E
:104060002A1070932B1080932C1090932D10E090B9
:104070002610F090271000912810109129102091FF
:1040800022103091231040912410509125106091FE
:104090001E1070911F108091201090912110BCED86
:1040A0006B2EB7E17B2E7F926F92812C912CE0E3F7
:1040B000AE2EE1E4BE2EFAE2CF2EF0E1DF2E0E941A
:1040C000B9ED0F94A3660F900F908091A00F8E34DE
:1040D00011F40C94AC2820E030E84AE454E46091F8
:1040E0002A1070912B1080912C1090912D100F940C
:1040F0000294AB01BC0140932A1050932B106093A3
:104100002C1070932D108CED92E10E949BD9E090C1
:104110002610F0902710009128101091291020915E
:10412000221030912310409124105091251060915D
:104130001E1070911F1080912010909121107F927D
:104140006F92812C912CA0E7AA2EA2E4BA2E0E9495
:10415000B9ED0F94A3660F900F908091A00F8E344D
:1041600009F4FAC720E030E048E452E460912A10F4
:1041700070912B1080912C1090912D100F9402941F
:1041800060932A1070932B1080932C1090932D1015
:10419000E0902610F090271000912810109129101F
:1041A000209122103091231040912410509125101D
:1041B00060911E1070911F1080912010909121101D
:1041C0007F926F92812C912CA12CF0E4BF2E0E9443
:1041D000B9ED0F94A3660F900F908091A00F8E34CD
:1041E00009F4BAC71092A00F40E050E06EE08AE0F8
:1041F0000F9440060C94B75280911502823511F04D
:104200000C94B75240E050E068E08AE00F9440061A
:1042100081E48093A00F66E272E080E090E00E946B
:1042200032CF20E030E240E854E460912A107091EF
:104230002B1080912C1090912D100F94019460936D
:104240002A1070932B1080932C1090932D10E090D7
:104250002610F0902710009128101091291020911D
:10426000221030912310409124105091251060911C
:104270001E1070911F108091201090912110ECED74
:10428000F7E1FF93EF93812C912CB0E7AB2EB2E4D2
:10429000BB2EEAE2CE2EE0E1DE2E0E94B9ED0F94B5
:1042A000A3660F900F908091A00F8E3409F454C72D
:1042B00086E090E090930502809304021092A00F94
:1042C00012E4109357170E94A37240E050E065E19A
:1042D0008AE00F94400640E050E06BE084E10F94E8
:1042E00040061093A00F8091DC1781111AC08091B5
:1042F000BF189091C0189093910780939007809178
:10430000BD189091BE189093950780939407809163
:10431000DE089091DF0890938D0780938C070C94B2
:10432000B7528091C3189091C41890938F078093CF
:104330008E078091C1189091C21890939307809333
:1043400092078091DC089091DD0890938B07809311
:104350008A070C94B7528091250881110C94B752AA
:1043600040E050E065E18AE00F94400640E050E014
:104370006BE084E10F94400682E48093A00F809369
:104380005717E091DC1724E0E29FF0011124E25876
:10439000FD4F608171818281938160931E107093C3
:1043A0001F108093201090932110E0902610F09021
:1043B000271000912810109129102091221030917F
:1043C00023104091241050912510ECEDF7E1FF935C
:1043D000EF93812CE0E89E2EEBE3AE2EE6E4BE2EBA
:1043E000FAE2CF2EF0E1DF2E0E94B9EDE090261028
:1043F000F090271000912810109129102091221080
:10440000309123104091241050912510E09111100B
:1044100064E0E69FF0011124E258FD4F6081718154
:10442000828193810F94456CE091111084E0E89FA4
:10443000F0011124E258FD4F80819181A281B38166
:1044400080931E1090931F10A0932010B093211002
:10445000E091DC17F0E0EE0FFF1FED5FFF4E809163
:10446000AE079091AF07918380830F94A3660F905E
:104470000F900C94B7528091250881110C94B7527B
:104480009091D7088091D60898130C94D55281E06A
:10449000809331080C94B7528091250881110C94B7
:1044A000B7529091D7088091D60898130C94D552A2
:1044B0000C94D8529091D7088091D60898130C94F8
:1044C000B7520C94DC529091D7088091D60898137B
:1044D0000C94B7520C94AC53E0916402F0916502D5
:1044E000EF3F5FEFF50711F40C94B752EE0FFF1F8B
:1044F000ED5FFF4E808191818B3361E0960714F070
:104500000C94B7520596918380831F9220EB2F93D2
:104510009F938F938FE696E09F938F938E010F5F0B
:104520001F4F1F930F930F94268DB80185E00F94B2
:1045300045078DB79EB708960FB6F8949EBF0FBE7D
:104540008DBF0C94B752E0916402F0916502EF3F89
:104550009FEFF90711F40C94B752EE0FFF1FED5FB8
:10456000FF4E808191811816190614F00C94B752F1
:104570000597918380831F9220EB2F939F938F93B6
:1045800087E696E09F938F938E010F5F1F4F1F93D7
:104590000F930F94268DB80185E00F944507ADB7B2
:1045A000BEB718960FB6F894BEBF0FBEADBF0C9441
:1045B000B7528091640290916502019611F40C94B7
:1045C000B7529091D7088091D60898130C94D55281
:1045D0000C9481548091640290916502019611F4CB
:1045E0000C94B7529091D7088091D60898130C94E8
:1045F000D5520C9485549091D7088091D608981381
:104600000C94B7520C94895480915717823411F04E
:104610000C94B752EEE5F6E084918F01882351F0B7
:10462000082E000C990B0E9447D70F5F1F4FF8010F
:104630008491F4CF1092A00F10922508809115025A
:10464000823509F047C089E4809315028091DC1718
:10465000813049F441E050E06CE481E20F9440067F
:1046600040E050E008C040E050E06CE481E20F948C
:10467000400641E050E06BE481E20F94400641E0E7
:1046800050E06EE781E20F94400641E050E06DE4B7
:1046900081E20F94400641E050E061E481E20F9432
:1046A000400641E050E066E481E20F94400641E0BC
:1046B00050E06EE481E20F94400641E050E06FE488
:1046C00081E20F94400640E050E064E18AE00F94FC
:1046D0004006A7C0893409F0A4C081E48093A00FEC
:1046E00040E050E068E08AE00F9440064090D40734
:1046F0005090D5076090D6077090D707409222104F
:1047000050922310609224107092251020E030E027
:1047100040E752E460914E0270914F028091500246
:10472000909151020F94F0944B015C01E09026109F
:10473000F0902710009128101091291060911E1000
:1047400070911F10809120109091211021E130E193
:104750003F932F935AE2C52E50E1D52EA30192012B
:104760000E94B9ED0F94A3660F900F908091A00F57
:104770008E3409F4F1C420E030E040E251E460916D
:10478000D8077091D9078091DA079091DB070F94D1
:1047900002947B018C016093261070932710809304
:1047A0002810909329108091CF078983809052021E
:1047B00090905302A0905402B09055022091221084
:1047C00030912310409124105091251060911E10BB
:1047D00070911F108091201090912110FE01319650
:1047E000FF93EF930E94B9ED0F94A3660F900F9083
:1047F0008091A00F8E3409F4AFC41092A00F40E056
:1048000050E06AE28AE00F94400611E010938C18A1
:104810001092E11861EE77E086E20F94450710935D
:10482000E007109257170C94B75280910818109215
:10483000A00F8823B9F01092081881E0809309181E
:1048400080910E0240E050E0813431F469E08AE06A
:104850000F9440060C94B7526AE28AE00F94400627
:104860000C94B7521092C5181092E118E3E5F6E0E7
:1048700084918F01882351F0082E000C990B0E941F
:1048800047D70F5F1F4FF8018491F4CF109237087C
:1048900081E00E94E2AB40E050E065E08AE00F94E6
:1048A00040060C94B7529091C807992309F428C286
:1048B0008091CC07823008F423C24734510561054A
:1048C000710509F4A3C09CF54B32510561057105D2
:1048D00009F462C09CF4473151056105710509F482
:1048E00067C0483151056105710511F00C94B7524C
:1048F00082E090E00E9486B10C94B752403351059B
:104900006105710509F44EC0453351056105710516
:1049100009F4BCC14F3251056105710511F00C94C9
:10492000B7528FEF9FEF0E9486B10C94B752403878
:1049300051056105710509F441C004F54E35510575
:104940006105710509F470C14F35510561057105A7
:1049500011F00C94B75214E41093571740E050E054
:104960006BE084E10F94400640E050E065E18AE0AE
:104970000F9440061093A00F0C94B7524238510583
:1049800061057105B9F144F14B3A510561057105B5
:1049900009F4C8C00C94B7528EEF9FEF0E9486B105
:1049A0000C94B75280E090E00E9486B10C94B7520C
:1049B00081E090E00E9486B10C94B7528DEF9FEF9A
:1049C000909359178093581740E050E06AE08AE0CE
:1049D0000F9440060C94B75283E090E090935917DF
:1049E0008093581740E050E06AE08AE00F94400658
:1049F0000C94B752109259171092581740E050E09B
:104A00006AE08AE00F9440060C94B75240E050E010
:104A100068E08AE00F94400681E48093A00F41E0B3
:104A200061E081E00F94532B1092A00F0F94A366C6
:104A30000E9413AE109158178091CC07823011F567
:104A400040E050E061E18AE00F94400680E5809309
:104A5000A00F0091C907010F0093C907002E000C99
:104A6000110B20E030E0A901CA01B9010F94E22E38
:104A700040E050E069E18AE00F9440061092A00FF8
:104A80000C94B752833029F540E050E061E18AE0B0
:104A90000F94400680E58093A00F0091CA07010F94
:104AA0000093CA07002E000C110B20E030E04CE50B
:104AB00053EC60E070E088EA92EC0F94E22E40E064
:104AC00050E069E18AE00F9440061092A00F0C9428
:104AD000B752843011F00C94B75240E050E061E1DD
:104AE0008AE00F94400680E58093A00F0091CB07E9
:104AF000010F0093CB07002E000C110B20E030E0DB
:104B00004CE553EC60E070E084EA92E40F94E22E0E
:104B100040E050E069E18AE00F9440061092A00F57
:104B20000C94B7521092A00F8091C9074091CA0708
:104B3000042F081B4091CB07142F181B602F002E49
:104B4000000C770B880B990B0F947C8D2DEC3CECB3
:104B50004CEC5DEB0F947588609305087093060824
:104B60008093070890930808612F012E000C770BA3
:104B7000880B990B0F947C8D2DEC3CEC4CEC5DEB91
:104B80000F9475886093010870930208809303085E
:104B9000909304080023A1F040E050E06FE18AE028
:104BA0000F94400607FF07C0202F332721950CF4F0
:104BB000309508E0020F402F000F550B64E015C040
:104BC0001123B9F040E050E060E28AE00F94400623
:104BD00017FF07C0812F992781950CF4909518E055
:104BE000180F412F110F550B65E08BE10F94400614
:104BF00011C014E41093571740E050E06BE084E1DB
:104C00000F94400640E050E065E18AE00F944006D2
:104C10001093A00F8FE790E0909300088093FF0718
:104C20000E9437C80C94B7524091CB078091C907B6
:104C3000142F181BC1F040E050E060E28AE00F94AE
:104C4000400617FF07C0A12FBB27A1950CF4B09514
:104C500018E01A0F412F110F550B65E08BE10F94EF
:104C600040060C94B75214E41093571740E050E0FC
:104C70006BE084E10F94400640E050E065E18AE09B
:104C80000F9440061093A00F0C94B75280915717C1
:104C9000843411F00C94B7521092CC071092C807CC
:104CA0001092A00F1092FE0F1092FD0F10920410A0
:104CB0001092031010920610109205101092C51851
:104CC0001092E118E8E4F6E084918F01882351F016
:104CD000082E000C990B0E9447D70F5F1F4FF80159
:104CE0008491F4CF109237080E94E2AB40E050E08C
:104CF00065E08AE00F944006109257170C94B75263
:104D0000493D510510F00C94B752FA018827EE582E
:104D1000FF4F8F4F0D94679881E0809320080C948B
:104D2000B75281E080931F080C94B75281E08093C2
:104D30001E080C94B75281E080931D080C94B75262
:104D400081E080931C080C94B7520E9410DD0097FC
:104D500051F481E0809321088091F00F815080937D
:104D6000F00F0C94B752019711F00C94B75281E0F8
:104D70008093210840E050E067E381E20F94400611
:104D800040E050E061E08BE10F9440068091F00F2D
:104D900081508093F00F0C94B7521092C518109266
:104DA000E118EDE3F6E084918F01882351F0082E9D
:104DB000000C990B0E9447D70F5F1F4FF801849199
:104DC000F4CF1092370881E00E94E2AB40E050E05F
:104DD00065E08AE00F9440060C94B7528091E81386
:104DE000882311F40C94B7528091381481110C94DB
:104DF000B752CDB6DEB680911A0890911B080E947A
:104E000054DDE9EEF3E1DF010D900020E9F78DB705
:104E10009EB78A1B9B0B9C012B513C4E0FB6F894FE
:104E20003EBF0FBE2DBF0DB71EB70F5F1F4FFF93C5
:104E3000EF9386E396E09F938F931F930F930F94C6
:104E4000268D780134E0E30EF11C0F900F900F9047
:104E50000F900F900F90F7018081882349F0082E62
:104E6000000C990B0F94629AD7018D937D01F3CFBB
:104E7000809132109091331004971CF4C8010F9464
:104E8000120082E396E00E94E5AB0FB6F894DEBE16
:104E90000FBECDBE0C94B75281E0809324080C94D1
:104EA000B75281E0809323080C94B75240E050E061
:104EB00062E18AE00F9440060C94B75240E050E063
:104EC0006CE18AE00F94400680E00E94E2AB109211
:104ED0003608109235081092340881E08093370824
:104EE0000C94B7521092C5181092E118E7E2F6E060
:104EF00084918F01882351F0082E000C990B0E9499
:104F000047D70F5F1F4FF8018491F4CF10923708F5
:104F10000E94A37281E00E94E2AB40E050E065E0B5
:104F20008AE00F9440060C94B75280910310909140
:104F30000410892B29F0109204101092031008C05D
:104F40008091DE089091DF08909304108093031005
:104F5000109236080C94B75280910510909106106B
:104F6000892B29F0109206101092051008C080912C
:104F7000DC089091DD089093061080930510109244
:104F800035080C94B7528091FD0F9091FE0F892B3C
:104F900029F01092FE0F1092FD0F1CC08091DA08CC
:104FA0009091DB086091D8087091D908681779074B
:104FB0002CF4BC01990F880B990B04C0072E000C30
:104FC000880B990B0F947C8D0F949C957093FE0F1A
:104FD0006093FD0F109234080C94B75283E296E070
:104FE0000E94E5AB0C94B75240E050E06EE18AE0DD
:104FF0000F9440060C94B75240E050E065E08AE020
:105000000F9440061092C5181092E118E8E1F6E0FE
:1050100084918F01882351F0082E000C990B0E9477
:1050200047D70F5F1F4FF8018491F4CF10923708D4
:1050300088E793E090932F0280932E020E9437C856
:105040000C94B75240E050E06AE18AE00F944006C9
:105050000E9429D88091E813882311F40C94B75248
:105060008091EF0F8093F00F27ECE22E2FE0F22ECD
:105070003BEDC32E3FE0D32E00E010E042E1842E52
:1050800046E0942E8091EF0F90E008171907BCF5C9
:1050900069EE73E180E694E10F94C0345701D701C3
:1050A0008D919D917D010E9454DDF501808191815A
:1050B000D6018D939D936D0180913814811118C094
:1050C000F401849192E1A92E96E0B92E882359F03B
:1050D000082E000C990B0E9447D7FFEFAF1ABF0AAA
:1050E000F5018491F3CF8AE090E00E9447D704C095
:1050F00089EE93E10F9455510F5F1F4FC3CF87E0A7
:1051000090E00E9478B20C94B75280912E02909158
:105110002F028036974041F488E793E090932F0266
:1051200080932E020E9437C840E050E068E08AE099
:105130000F94400681E48093A00F80916A18882321
:10514000D1F040E061E081E00F94532B0F94A3660F
:105150008091A00F8E3489F48FEF9FEFDC01809354
:105160001D0290931E02A0931F02B0932002109282
:1051700038080C94B35441E0E5CF81E00E94E2ABE3
:105180001092A00F8FE096E00E94E5AB0F94A3660B
:105190008091A00F8E3401F340E050E06BE08AE094
:1051A0000F9440060C94B75240E050E064E08AE06F
:1051B0000F9440060C94B75240E050E064E28AE05D
:1051C0000F94400681E08093AD0789E48093A00F9F
:1051D0001F921F9281E194E09F938F938E010F5F46
:1051E0001F4F1F930F930F94C39AB8018EE20F9431
:1051F00045076091DE087091DF08072E000C880BD0
:10520000990B0F947C8D00E010E028EC31E440E035
:1052100050E00F94B5540E9437C866E174E08CEDFD
:1052200092E10F94B45469E174E08CED92E10F9433
:10523000B4546091CB027091CC028091CD029091D8
:10524000CE0242E050E00F942D526DE174E08CEDFF
:1052500092E10F94B4542DEB37E346E05EE36091A6
:10526000C3027091C4028091C5029091C6020F944E
:10527000F09442E050E00F942D5261E274E08CED26
:1052800092E10F94B4542DEB37E346E05EE3609176
:10529000BB027091BC028091BD029091BE020F943E
:1052A000758842E050E00F942D526091DC087091B7
:1052B000DD08072E000C880B990B0F947C8D00E005
:1052C00010E028EC31E441E050E00F94B5540E9426
:1052D00037C866E174E08CED92E10F94B45469E153
:1052E00074E08CED92E10F94B4546091CF02709110
:1052F000D0028091D1029091D20242E050E00F940E
:105300002D526DE174E08CED92E10F94B4542DEBCD
:1053100037E346E05EE36091C7027091C802809176
:10532000C9029091CA020F94F09442E050E00F94A9
:105330002D5261E274E08CED92E10F94B4542DEBA8
:1053400037E346E05EE36091BF027091C002809156
:10535000C1029091C2020F94758842E050E00F9410
:105360002D521092A00F0E94A37240E050E06BE01B
:1053700084E10F94400640E050E065E18AE00F943C
:10538000400684E4809357178093A00F0F900F90EE
:105390000F900F900F900F900C94B7521092C51869
:1053A0001092E118E4E0F6E084918F01882351F037
:1053B000082E000C990B0E9447D70F5F1F4FF80172
:1053C0008491F4CF109237080E94A37240E050E01D
:1053D00065E08AE00F9440060C94B75282E5809312
:1053E000150281E08093AC0740E050E06BE581E27C
:1053F0000F94400640E050E06CE581E20F944006D7
:1054000040E050E060E08BE10F94400640E050E067
:105410006AE781E20F94400640E050E069E781E2EC
:105420000F94400640E050E06DE18AE00F944006A2
:105430008FEF8093DC170C94B75240E050E062E1AC
:105440008AE00F94400640E050E06BE581E20F9463
:10545000400640E050E06CE581E20F94400640E0F9
:1054600050E060E08BE10F94400640E050E06AE7D6
:1054700081E20F94400640E050E069E781E20F943A
:1054800040061092AC070C94B7521092C5181092B7
:10549000E118E9EFF5E084918F01882351F0082E9F
:1054A000000C990B0E9447D70F5F1F4FF8018491A2
:1054B000F4CF1092370840E050E065E08AE00F94A6
:1054C000400640E050E06BE581E20F94400640E08A
:1054D00050E06CE581E20F94400640E050E060E06F
:1054E0008BE10F94400640E050E06AE781E20F94C0
:1054F000400640E050E069E781E20F9440061092D8
:10550000AC070C94B75241E050E06BE581E20F9498
:10551000400640E050E06CE581E20F94400641E037
:1055200050E060E08BE10F94400641E050E06AE714
:1055300081E20F94400641E050E069E781E20F9478
:1055400040061092DC170C94B75240E050E06BE537
:1055500081E20F94400641E050E06CE581E20F9457
:10556000400641E050E060E08BE10F94400641E0EE
:1055700050E06AE781E20F94400641E050E069E7BD
:1055800081E20F94400681E08093DC170C94B752BF
:1055900080912E0290912F028036974041F488E747
:1055A00093E090932F0280932E020E9437C80091BF
:1055B000DC170F3F11F40C94B75201111DC08091FC
:1055C000BD189091BE186091940770919507681767
:1055D00079072CF4BC01990F880B990B04C0072E96
:1055E000000C880B990B0F947C8D0F949C957093F5
:1055F00004106093031020C08091C1189091C218CC
:105600006091920770919307681779072CF4BC0199
:10561000990F880B990B04C0072E000C880B990B6F
:105620000F947C8D10E0000F111F0D5F1F4E0F9423
:105630009C95D8016D937C9381E080939E0F81E4CB
:105640008093A00F40E050E068E08AE00F944006AD
:1056500080916A18882311F040E001C041E061E0C8
:1056600081E00F94532B80E090E0A3E4B3E48093B7
:10567000261090932710A0932810B09329108090A3
:10568000C8179090C917A090CA17B090CB17209157
:1056900022103091231040912410509125106091D8
:1056A0001E1070911F108091201090912110E1E147
:1056B0006E2EE0E17E2E7F926F92FAE2CF2EF0E125
:1056C000DF2EE12CF12C03E413E40E94B9ED80E01D
:1056D00090E0A0E2B1E48093221090932310A09375
:1056E0002410B09325108090C4179090C517A090F7
:1056F000C617B090C717E0902610F09027100091C1
:1057000028101091291060911E1070911F10809127
:105710002010909121107F926F9220E030E040E2C3
:1057200051E40E94B9ED0F94A3660F900F900F9073
:105730000F908091A00F8E3409F40ECD1092A00F1F
:105740000E94A3726FEF73E08DE20F94450740E073
:1057500050E068E28AE00F9440060091DC1710E008
:10576000F801EE0FFF1FEE0FFF1FEA53F74E6081A7
:105770007181828193810F949C9570932D08609321
:105780002C08000F111FF801ED5FFF4E8081918101
:1057900090932B0880932A0888E48093A00F0E949E
:1057A000A37264EF71E080E090E00E9432CF81E06C
:1057B00080932E080C94B75280912E0290912F0264
:1057C0008036974041F488E793E090932F028093CE
:1057D0002E020E9437C8E091DC17EF3F11F40C94C1
:1057E000B75281E080939E0FF0E0EE0FFF1FED5F58
:1057F000FF4E84E091E09183808381E48093A00F49
:1058000040E050E068E08AE00F94400680916A181A
:10581000882311F040E001C041E061E081E00F9495
:10582000532B0F94A3668091A00F8E3409F494CC6F
:1058300080E090E0A3E4B3E48093261090932710D7
:10584000A0932810B09329108090C8179090C91782
:10585000A090CA17B090CB1720912210309123103E
:10586000409124105091251060911E1070911F10CE
:105870008091201090912110E1E16E2EE0E17E2ECA
:105880007F926F92FAE2CF2EF0E1DF2EE12CF12C25
:1058900003E413E40E94B9ED0F94A3660F900F90F8
:1058A0008091A00F8E3409F457CC80E090E0A0E204
:1058B000B1E48093221090932310A0932410B0930E
:1058C00025108090C4179090C517A090C617B0906F
:1058D000C717E0902610F090271000912810109123
:1058E000291060911E1070911F10809120109091CE
:1058F00021107F926F9220E030E040E251E40E945C
:10590000B9ED0F94A3660F900F908091A00F8E3485
:1059100009F422CC8091DC17811103C080E090E073
:1059200002C081E090E00F941C2A80E090E0ABE19F
:10593000B3E480931E1090931F10A0932010B09397
:105940002110E0902610F09027100091281010915F
:105950002910209122103091231040912410509151
:1059600025108CED97E19F938F93812C60E8962E04
:105970006BE3A62E66E4B62E7AE2C72E70E1D72E30
:1059800060E070E08BE193E40E94B9ED0F94A366B0
:105990000F900F908091A00F8E3409F4DDCB109200
:1059A000A00F0E94A37240E050E065E28AE00F94ED
:1059B00040060C94B75281E0809328081092260884
:1059C00010922708109229080C94B75210922808B8
:1059D00081E08093260810922708109229080C94E1
:1059E000B752109228081092260881E08093270869
:1059F000109229080C94B752109228081092260889
:105A00001092270881E0809329080C94B7528FEFF9
:105A1000809314020E94A37240E050E062E18AE0A9
:105A20000F9440060C94B7528FEF809314020E949B
:105A3000A37240E050E062E18AE00F9440060C94CB
:105A4000B75241E050E06CE981E20F94400641E03A
:105A500050E06DE981E20F9440062091640230919C
:105A600065028E010F5F1F4F80910310909104100B
:105A700010926502109264022130310509F053C082
:105A8000892B41F48091DE089091DF0890930410F7
:105A90008093031041E050E06AE981E20F944006F0
:105AA00040E050E06BE981E20F9440061F9240EB2A
:105AB000F42EFF92809104108F93809103108F93A6
:105AC00082E094E09F938F931F930F930F94C39A58
:105AD000B80185E00F944507C8010F949C6B1F9295
