:100000000C94DE160C940F170C940F170C940F170A
:100010000C940F170C940F170C940F170C940F17C8
:100020000C940F170C940F170C940F170C940F17B8
:100030000C940F170C940F170C940F170C947AA7AD
:100040000C940F170C940F170C940F170C940F1798
:100050000C940F170C940F170D94A92E0D94EA29E8
:100060000C940F170C9453B80C942AB80C940F17D7
:100070000C940F170C940F170C940F170C940F1768
:100080000C94DC970C940F170C940F170C940F170B
:100090000C940F170C940F170C940F170C940F1748
:1000A0000C940F170C940F170C940F170C940F1738
:1000B0000C940F170C940F170C940F170C940F1728
:1000C0000C940F170C940F170C940F170C94F5B792
:1000D0000C94CCB70C940F170C940F170C940F17AB
:1000E0000C940F17A3305753BB30982D5753D52777
:1000F0005753DF2757535753533D1E2857535753D2
:100100001F271A275753593E575357535753644283
:100110006C42E247EA47E14A5753B342F1422F4368
:1001200008448C43A03E923E8B2DCA435753DA2796
:10013000772757535F2D7640802DCB475753752D2A
:100140006A2DD347DB475753AD3074425C391D41AC
:10015000E7272E272427575370370929CA4A5753B0
:10016000D24A522AF2477C335753074C2938E64D7E
:10017000DD3342487C42E94A582945324532F7315D
:100180003E34A334722A35284C28FB27A12A152790
:100190002927575357535753ED30072B292B7728CF
:1001A0001840F53F84428C4293429B42A342AB42AB
:1001B0003D4345434D4355435D4365436C43744361
:1001C0007C4384438C4416440245D3465D46E74550
:1001D0005753DA4AC92A4C2B602CED3004320C32CA
:1001E0002A32C347494A6F4ABE4ABB470C3A562790
:1001F00010537C30575357534F515753BF3FAE3E68
:100200008035DA3533360B35AD3506366036E636B1
:10021000BA36B42FA02F573FA52D682E322F692F45
:100220005651C52F6B308E3657535753575357532C
:100230005753575357535753575376407D28852864
:10024000AB289B52D7525C4A8E4AF247BE4AF14ACB
:10025000EF4B5753714DCE4D0E4D5B4D074DF34D4A
:100260005753B73BE53A9D4F5B3D323EE04F575306
:100270005753734EBC4E074F524F6C4E004E2B4E91
:10028000235024517A52575357533152575357538F
:100290008A525753602960773E782B7906796278C5
:1002A000E178BC788577AA77CF77A679CB79F07992
:1002B000157A1978F4779778F701D901EB01BB012A
:1002C000C101DB01D101F3011102F901D5010502E0
:1002D0000D020102DB01C301CD01C701E701CF011E
:1002E000F101FD010B02D70103021302FB01B90169
:1002F000E501C501B101E101D701BF01CB01E30176
:100300001502FF01C901BD01F501ED01B301EF01C6
:10031000B701D301DD01084AD73B3BCE016E84BC57
:10032000BFFDC12F3D6C74319ABD56833DDA3D004F
:10033000C77F11BED9E4BB4C3E916BAAAABE000098
:1003400000803F05A84CCDB2D44EB93836A9020C76
:1003500050B9918688083CA6AAAA2ABE000000804F
:100360003F000D946B290D94AA2F0D9442770D94A4
:10037000AE2F0D9448290D942F280D94692F0D94BC
:100380007F290D9435280D9466280D945C290D94D1
:100390006E280D945C2F0D9489290D946A280D9474
:1003A0000B290D9440280D94B02F0D9452280D94D4
:1003B0009D290D943C280D9473280D94B82F0D940D
:1003C000887A0D9475290D9493290D9452290D94D2
:1003D00006290D94897A0D942B280D94902F0D9455
:1003E000AC2F0D9410290D9444280D94832F0D9457
:1003F00039280D944E280D943E290D941A290D94F8
:10040000402F0D9460280D942E290D9458280D949A
:10041000BA5F0D949E820D9424290D945C280D944E
:10042000C7820D944A280D9436290D94332F4E41DE
:100430004E494E495459494E46CDCCCC3D0AD7235E
:100440003C17B7D13877CC2B329595E6241FB14FA6
:100450000A000020410000C84200401C4620BCBEEB
:100460004CCA1B0E5AAEC59D746364696E6F70737F
:100470007578585B0047333400494E464F3A204266
:1004800045442043414C4942202D2000537572665B
:10049000696E6720300A00473238205830205930C2
:1004A0000054300054310054300054300053757201
:1004B00066696E6720300A004734330047343300E2
:1004C0004734310047343000473433004734330079
:1004D00047343100473430004D3834004D38340053
:1004E0004D3834005A32204F66667365743A2000E6
:1004F0004F4B207365636F6E64204578747275642A
:100500006572210A005A20706F736974696F6E3AC0
:1005100020005A20706F736974696F6E3A20004D25
:100520003834005A312050726F6265206F666673EE
:1005300065743A20004F4B206669727374204578C9
:1005400074727564657221200A005A20706F736995
:1005500074696F6E3A20005A20706F736974696F06
:100560006E3A200043616C63756C75733A2020000D
:1005700043616C63756C75733A20200043616C6352
:10058000756C75733A20200043616C63756C7573EC
:100590003A20200054300054300054300043616C45
:1005A0006962726174696F6E2053756363657373FA
:1005B00066756C0A005430004A756D70206F766560
:1005C000722073637265773120616E642073637289
:1005D000657732200A004A756D70206F766572204B
:1005E000736372657731200A004733340047333430
:1005F000004733340054300047333400494E464FEF
:100600003A204245442043414C4942202D200036A7
:10061000302064656772656573200A004C6F616401
:10062000696E670A0053757266696E6720300A004A
:1006300053757266696E6720300A00537572666979
:100640006E6720300A00253364202563430025337C
:1006500064202563430025336420256343005075DF
:100660007267652046696C616D656E740A0025339A
:10067000642025634300253364202563430025332C
:10068000642025634300253364202563430025331C
:10069000642025634300253364202563430025330C
:1006A000642025634300253364202563430053758C
:1006B0007266696E6720300A0053757266696E67EC
:1006C00020300A00543000466F756E640A0053757E
:1006D0007266696E6720300A004D333400537572BC
:1006E00066696E6720300A004D3234004D32332087
:1006F00025730053757266696E6720300A00537562
:100700007266696E6720300A0053757266696E679B
:1007100020300A00535543434553530A00253364A0
:10072000202563430025336420256343002533647B
:10073000202563430025336420256343002533646B
:10074000202563430025336420256343002533645B
:10075000202563430025336420256343002533644B
:1007600020256343004C6F6164696E673A0A002577
:10077000336420256343002533642025634300252B
:100780003364202563430050757267652046696CA9
:10079000616D656E74200A004578747275646572C7
:1007A0002072656C65617365642061637469766548
:1007B0003A20005A205349474D4120486F6D6564E7
:1007C0000A00457874727564657220616374697695
:1007D000653A20005374617274696E67205A204331
:1007E000616C6962726174696F6E2057697A6172B7
:1007F000640A002F005344207072696E74696E673A
:10080000206279746520004E6F742053442070720A
:10081000696E74696E670A00426564204865617498
:1008200065640A0020573A004649524D57415245E7
:100830005F4E414D453A4D61726C696E2042434EA8
:100840003344205369676D613B204649524D5741FF
:1008500052455F56455253494F4E3A30312D312E55
:10086000322E3752433B204649524D574152455F45
:1008700055524C3A68747470733A2F2F67697468D4
:1008800075622E636F6D2F42434E33442F42434EA9
:1008900033445369676D612D4669726D7761726586
:1008A0003B2050524F544F434F4C5F564552534993
:1008B0004F4E3A312E303B204D414348494E455F23
:1008C000545950453A42434E3344205369676D6151
:1008D0003B2045585452554445525F434F554E5462
:1008E0003A323B20555549443A00205A3A002059A3
:1008F0003A0020436F756E7420583A200020453A24
:1009000000205A3A0020593A00583A007A5F6D693F
:100910006E3A2000795F6D61783A2000785F6D61F2
:10092000783A2000785F6D696E3A20005354415444
:100930004953544943532052455345540A004D6F7F
:1009400064652032203A206379636C652020202D75
:100950003E205247423A203620737461746573001A
:100960002A2A2D3E20004D6F64652031203A2072E6
:10097000616E646F6D20202D3E205247423A202B3D
:1009800031202B32202B332C20647572696E672046
:100990007072696E74696E67002A2A2D3E20004DC0
:1009A0006F64652030203A2064656661756C742040
:1009B0002D3E205247423A203235352032353520FF
:1009C000323535002A2A2D3E20004C6564206D6F9B
:1009D000646573203A004D353336204C5B6D6F648F
:1009E000655D005A204F6666736574206F6B0A0060
:1009F0005A204F6666736574203A200A007A5F6D4C
:100A000061783A20007A5F6D696E3A20005A204F73
:100A1000666673657400486F74656E64206F666601
:100A2000736574733A00504F534954494F4E2048F0
:100A30004F4D453A2000220A00556E6B6E6F776E5F
:100A400020636F6D6D616E643A20220052656164AF
:100A50007920746F2053746172740A0067636F6445
:100A60006520666F756E640A0020746F2053746190
:100A7000727420446973706C61792066726F6D20A6
:100A8000526573657400546F6F6B200064697370F6
:100A90006C6179206F6E6C696E6521002E00466F67
:100AA000726D2032210A00526561647920746F20D2
:100AB0004C6F61642F556E6C6F6164200A00256471
:100AC0002525002533642025634300253364202534
:100AD000634300253364256343202F202533642599
:100AE000634300253364256343202F202533642589
:100AF000634300253364256343202F202533642579
:100B00006343005072696E74204A6F622046696EBA
:100B10006973686564004D383420582059205A2084
:100B200045004D3130370054300053757266696EA0
:100B3000672030200A0043616C6962726174696FDA
:100B40006E205375636365737366756C0A00543069
:100B5000004D383420582059205A204500536574E0
:100B600074696E67732053746F7265640A00204D58
:100B7000696E75746573203A0020204C617374208F
:100B80007072696E742074696D652D3E20486F75B2
:100B90007273203A004C617374207072696E742015
:100BA0006475726174696F6E0A002C2054686972F2
:100BB00064204944206E756D62657220002C2053BC
:100BC00065636F6E64204944206E756D6265723A8C
:100BD000200020204669727374204944206E756D90
:100BE0006265723A2000554920496E666F726D61E8
:100BF00074696F6E2053657269616C204E756D6209
:100C000065723A0A00206D2C204531207072696EA1
:100C1000742064697374616E63653A2000206B6DA3
:100C20002C204530207072696E7420646973746181
:100C30006E63653A2000206B6D2C2059207072691C
:100C40006E742064697374616E63653A2000206B72
:100C50006D2C205831207072696E74206469737431
:100C6000616E63653A200020432C0A2058302070C2
:100C700072696E742064697374616E63653A2000F2
:100C800020432C206D61782074656D7020423A20DD
:100C90000020432C206D61782074656D7020523ADD
:100CA00020002C206D61782074656D70204C3A20F6
:100CB00000682C207072696E74732066696E6973A7
:100CC0006865643A20002C207072696E74696E67E2
:100CD0002074696D653A200020207072696E74730B
:100CE0003A200053544154533A0A0020432C2052D6
:100CF0005F5052494E543A200020432C20525F420C
:100D000045443A200020432C20525F52454D4F5617
:100D1000453A20002020525F494E534552543A2014
:100D20000054656D70202843293A0A0020432C2086
:100D30004C5F5052494E543A200020432C204C5FC7
:100D40004245443A200020432C204C5F52454D4FF1
:100D500056453A200020204C5F494E534552543AA4
:100D6000200054656D70202843293A0A0020562837
:100D700056657273696F6E2920002052284265649F
:100D80002072696768742073637265772920002078
:100D9000204D353331204C28426564206C656674E3
:100DA000207363726577292000426564204F666670
:100DB0007365747320286D6D293A0A002050285AF3
:100DC0002070726F62652900205A2000205920008F
:100DD00020204D353330205820004F6666736574EF
:100DE0007320286D6D293A0A002044002049002014
:100DF0002D204D3330312052494748542050002097
:100E0000440020490020204D333031204C454654C9
:100E10002050005049442073657474696E67733ABA
:100E20000A00205A0020590020204D323036205828
:100E300000486F6D65206F666673657420286D6D60
:100E4000293A0A00204500205A002058002042007C
:100E500020540020204D323035205300416476610B
:100E60006E636564207661726961626C65733A20B5
:100E7000533D4D696E206665656472617465202816
:100E80006D6D2F73292C20543D4D696E2074726155
:100E900076656C20666565647261746520286D6D89
:100EA0002F73292C20423D6D696E696D756D20731D
:100EB00065676D656E742074696D6520286D732992
:100EC0002C20583D6D6178696D756D205859206AE8
:100ED00065726B20286D6D2F73292C20205A3D6D73
:100EE0006178696D756D205A206A65726B20286D76
:100EF0006D2F73292C2020453D6D6178696D756DCE
:100F00002045206A65726B20286D6D2F73290A00B9
:100F100020540020204D323034205300416363655B
:100F20006C65726174696F6E3A20533D61636365ED
:100F30006C65726174696F6E2C20543D72657472B9
:100F400061637420616363656C65726174696F6E5F
:100F50000A00204500205A0020590020204D323040
:100F6000312058004D6178696D756D20416363656E
:100F70006C65726174696F6E20286D6D2F733229F4
:100F80003A0A00204500205A0020590020204D3206
:100F900030332058004D6178696D756D2066656548
:100FA00064726174657320286D6D2F73293A0A008D
:100FB000204500205A0020590020204D3932205869
:100FC0000053746570732070657220756E69743A91
:100FD0000A0053746F7265642073657474696E6778
:100FE00073207265747269657665640A004861727F
:100FF00064636F6465642044656661756C74205336
:10100000657474696E6773204C6F616465640A006F
:1010100048617264636F6465642043616C69622037
:10102000616E64205049442044656661756C74208B
:1010300053657474696E6773204C6F616465640AEC
:101040000024F4D43050C38E20C2A24017828B708B
:1010500011127A910D816CD90AA861E108C758660E
:1010600007615143061E4B5D05C145A7041A411196
:1010700004093D9803713931034036DB0265339131
:1010800002D4305402802E1D02632CEE01752AC555
:1010900001B028A001102781018F2564012B244B6A
:1010A00001E0223401AC211F018D200D01801FFCC5
:1010B00000841EED00971DDF00B81CD200E61BC6A1
:1010C00000201BBC00641AB200B219A8000A19A0C3
:1010D000006A189900D117910040178B00B516844B
:1010E0000031167E00B31579003A157300C7146FEE
:1010F0000058146A00EE1366008813630025135E1F
:1011000000C7125B006C12570015125400C1115138
:101110000070114F0021114B00D61049008D10476F
:10112000004610440002104200C00F4000800F3EF5
:1011300000420F3C00060F3B00CB0E3800930E37E9
:10114000005C0E3500270E3400F30D3200C10D3166
:1011500000900D3000600D2E00320D2D00050D2C7D
:1011600000D90C2B00AE0C2900850C29005C0C2743
:1011700000350C27000E0C2600E80B2400C40B24BD
:1011800000A00B23007D0B23005A0B2100390B21FB
:1011900000180B2000F80A1F00D90A1E00BB0A1E07
:1011A000009D0A1D00800A1D00630A1C00470A1BDF
:1011B000002C0A1B00110A1A00F7091A00DD091990
:1011C00000C4091900AB091900920917007B09181E
:1011D00000630917004C091600360916002009168D
:1011E000000A091500F5081500E0081400CC0814E1
:1011F00000B8081400A4081400900813007D081219
:10120000006B081300580812004608120034081139
:1012100000230811001208110001081100F0071046
:1012200000E0071000D0071000C0071000B0070F43
:1012300000A107100091070E0083070F0074070F2D
:101240000065070E0057070E0049070E003B070D0B
:10125000002E070E0020070D0013070D0006070DD6
:1012600000F9060C00ED060D00E0060C00D4060C9B
:1012700000C8060C00BC060C00B0060C00A4060B4F
:101280000099060C008D060B0082060B0077060BFA
:10129000006C060B0061060A0057060B004C060A9C
:1012A0000042060A0038060A002E060A0024060A32
:1012B000001A060A001006090007060A00FD0509C3
:1012C00000F4050900EB050900E2050900D905094C
:1012D00000D0050900C7050900BE050900B50508CD
:1012E00000AD050800A50509009C05080094050847
:1012F000008C050800840508007C050800740508BA
:10130000006C050700650508005D05070056050827
:10131000004E05070047050700400508003805078F
:1013200000310507002A050700230507001C0506F4
:1013300000160507000F050700080506000205074F
:1013400000FB040600F5040700EE040600E80406AE
:1013500000E2040700DB040600D5040600CF040603
:1013600000C9040600C3040600BD040600B7040655
:1013700000B1040500AC040600A6040600A00405A4
:10138000009B04060095040500900406008A0405ED
:101390000085040500800406007A04050075040534
:1013A00000700405006B0405006604050061040577
:1013B000005C04050057040500520405004D0405B7
:1013C0000048040500430405003E0404003A0405F7
:1013D0000035040500300404002C04050027040433
:1013E00000230405001E0404001A0404001604056A
:1013F00000110404000D04040009040500040404A1
:101400000000040400FC030400F8030400F40304D7
:1014100000F0030400EC030400E8030400E4030408
:1014200000E0030400DC030400D8030400D4030438
:1014300000D0030400CC030400C8030300C5030369
:101440000024F404D9201BC40C5C0E9804C4095F6A
:101450000265077101F405F900FB04B30048048735
:1014600000C10369005803550003034500BE023A5A
:10147000008402310053022A0029022500040220C0
:1014800000E4011C00C8011900AF01170098011405
:101490000084011300710110006101100051010E60
:1014A0000043010D0036010B002B010B0020010B46
:1014B00000150109000C01090003010800FB0008E8
:1014C00000F3000800EB000700E4000600DE000661
:1014D00000D8000600D2000600CC000500C70005B9
:1014E00000C2000500BD000400B9000400B50004FE
:1014F00000B1000400AD000400A9000400A5000331
:1015000000A20003009F0004009B0003009800035A
:10151000009500020093000300900003008D00027C
:10152000008B000300880002008600020084000394
:1015300000810002007F0002007D0002007B0002AB
:1015400000790002007700010076000200740002BA
:101550000072000100710002006F0002006D0001C6
:10156000006C0002006A00010069000200670001CF
:1015700000660001006500010064000200620001D5
:101580000061000100600001005F0002005D0001D9
:10159000005C0001005B0001005A000100590001DD
:1015A00000580001005700010056000100550001DD
:1015B00000540001005300000053000100520001DC
:1015C0000051000100500001004F0001004E0000DA
:1015D000004E0001004D0001004C0001004B0000D6
:1015E000004B0001004A00010049000100480000D2
:1015F00000480001004700010046000000460001CD
:1016000000450000004500010044000100430000C7
:1016100000430001004200000042000100410000C0
:101620000041000100400001003F0000003F0001B8
:10163000003E0000003E0001003D0000003D0001B2
:10164000003C0000003C0000003C0001003B0000AA
:10165000003B0001003A0000003A000100390000A0
:101660000039000100380000003800000038000197
:10167000003700000037000100360000003600008F
:101680000036000100350000003500000035000183
:10169000003400000034000000340001003300007A
:1016A000003300000033000100320000003200006F
:1016B0000032000100310000003100000031000163
:1016C000003000000030000000300001002F00005A
:1016D000002F0000002F0000002F0001002E00004E
:1016E000002E0000002E0001002D0000002D000043
:1016F000002D0000002D0001002C0000002C000037
:10170000002C0000002C0001002B0000002B00002A
:10171000002B0000002B0001002A0000002A00001E
:10172000002A0000002A0001002900000029000012
:101730000029000000290000002900010028000005
:1017400000280000002800000028000000280001F8
:1017500000270000002700000027000000270000ED
:1017600000270001002600000026000000260000DF
:1017700000260000002600010025000000250000D2
:1017800000250000002500000025000000250001C4
:1017900000240000002400000024000000240000B9
:1017A00000240001002300000023000000230000AB
:1017B000002300000023000000230000002300019C
:1017C0000022000000220000002200000022000091
:1017D0000022000000220001002100000021000082
:1017E0000021000000210000002100000021000075
:1017F0000021000100200000002000000020000067
:101800000020000000200000002000000020000058
:1018100000200001001F0000001F0000001F00004A
:10182000001F0000001F0000001F0000001F00013B
:10183000001E0000001E0000001E0000001E000030
:101840000043616C63756C75733A20200043616CD2
:1018500063756C75733A20200043616C63756C7519
:10186000733A202000253364202563430025336428
:10187000202563430050757267652046696C616D71
:10188000656E740A0053757266696E6720310A00CE
:1018900053757266696E6720300A00220A00656E11
:1018A000717565696E67202200202F00204000209E
:1018B000403A003B202020506C61737469632077AC
:1018C00065696768743A2025642E256467003B4685
:1018D000696C616D656E7420757365643A2025646A
:1018E0002E25646D2025642E256467003B46696CB7
:1018F000616D656E7420757365643A20256C642E85
:10190000256C646D002E2E2E2054696D656F7574E4
:1019100021002A2A2A2047656E696520577269745A
:10192000654F626A656374202A2A2A202D2D2D3E78
:10193000002E2E2E204E414B2021002A2A2A2047FD
:10194000656E69652057726974654F626A65637474
:10195000202A2A2A202D2D2D3E002E2E2E204143D6
:101960004B2021002A2A2A2047656E69652057727C
:101970006974654F626A656374202A2A2A202D2DB6
:101980002D3E002A2A2A2047656E6965204261643F
:101990002042797465202A2A2A202D2D2D3E2030C0
:1019A00078002056616C75653A200020496E6465A8
:1019B000783A20002A2A2A2047656E6965205265F8
:1019C000706F7274204F626A656374202A2A2A201D
:1019D0004F626A6563743A20002A2A2A2047656E9E
:1019E000696520436F6E6E6563746564202F2053B4
:1019F000796E6321202A2A2A002056616C75653A87
:101A0000200020496E6465783A20002A2A2A20475F
:101A1000656E6965205265706F7274204576656EDB
:101A200074202A2A2A204F626A6563743A200020B3
:101A30004C656E6774683A20002A2A2A2047656E32
:101A40006965205265636569766564204D616769E3
:101A50006320446F75626C65204279746573202A37
:101A60002A2A20496E6465783A2000204C656E670A
:101A700074683A20002A2A2A2047656E6965205238
:101A800065636569766564204D61676963204279A5
:101A9000746573202A2A2A20496E6465783A2000EA
:101AA0002A2A2A2047656E6965204E414B205265DF
:101AB000636F7665727920212121202A2A2A002A43
:101AC0002A2A2047656E696520446973636F6E6ECC
:101AD00065637465642066726F6D20446F4576653A
:101AE0006E747321202A2A2A002A2A2A2047656E2A
:101AF000696520546F6F6B20746F6F206C6F6E6719
:101B000020746F2072652D656E74657220446F4578
:101B100076656E747328292C207265647563652060
:101B200064656C61797320696E20636F64652C2035
:101B300073656C662D70726F74656374696F6E2067
:101B4000656E61626C65642E202A2A2A00000020DE
:101B5000002300260029002C002F00320000010085
:101B60000003010601090105050505070508080828
:101B700008020202020A0A0808040404040101011E
:101B80000101010101030303030303030304070726
:101B9000070C0C0C0C0C0C0C0C02020202060606C4
:101BA00006060606060B0B0B0B0B0B0B0B010210AC
:101BB0002020080810204010204080020102010867
:101BC0000402010102040810204080804020100817
:101BD0000402018004020180402010080402010870
:101BE00004020101020408102040800102040810D0
:101BF00020408000000A0B02090C0D0E08070304A8
:101C000001000000000000000000000000000000D3
:101C100000000000000000000000000000000012B2
:101C20001110000000000000000000000000000093
:101C3000000000000000000000202D20496E7661A9
:101C40006C6964206578747275646572206E756D58
:101C500062657220210A004572726F723A006469EF
:101C600073706C6179206F66666C696E65004243C3
:101C70004E3344205369676D610A00737461727456
:101C80000A006563686F3A0030312D312E322E37ED
:101C900052430A006572726F722077726974696EBE
:101CA0006720746F2066696C650A00205A3A00202C
:101CB000593A0020583A00656E6473746F7073204F
:101CC0006869743A20006563686F3A00446F6E6516
:101CD00020736176696E672066696C652E0A006FF5
:101CE0006B0A004D3239000A0020616E7469686F1A
:101CF000726172690A3A200020686F726172690A23
:101D000020002F3800766F6C746573200020566FAA
:101D10006C74657320636172676F6C20333A2000C6
:101D200020616E7469686F726172690A3A200020DE
:101D3000686F726172690A20002F3800766F6C74C8
:101D40006573200020566F6C746573206361726741
:101D50006F6C20323A20000A0020647A333A200067
:101D600020647A323A20005431005430005430005C
:101D70005430000A0056756974656E73333A20203A
:101D8000004170726F78333A202000566F6C746592
:101D900073333A2020000A0056756974656E7332F9
:101DA0003A2020004170726F78323A202000566F3E
:101DB0006C746573323A20200056616C6F72206437
:101DC0005A333A20200056616C6F7220645A323ABE
:101DD0002020004E6577206F6666736574207665F7
:101DE0007273696F6E3A20007A335F313A20007A5D
:101DF000325F313A20005A7363726F6C6C5F313A14
:101E000020007A335F303A20007A325F303A200087
:101E10005A7363726F6C6C5F303A2000706C616E45
:101E2000654E6F726D616C5F312E7A3A2000706C76
:101E3000616E654E6F726D616C5F312E793A200074
:101E4000706C616E654E6F726D616C5F312E783AA9
:101E50002000706C616E654E6F726D616C5F302E2C
:101E60007A3A2000706C616E654E6F726D616C5FC6
:101E7000302E793A2000706C616E654E6F726D6124
:101E80006C5F302E783A20005A76616C756520615F
:101E90006674657220686F6D653A00486F6D6520E5
:101EA000582F59206265666F7265205A0A000A0031
:101EB000207A3A200020793A200020783A20004207
:101EC0006564004D3834005374617274696E672024
:101ED000582043616C6962726174696F6E20576942
:101EE0007A6172640A004D38340053746172746907
:101EF0006E6720592043616C6962726174696F6E0C
:101F00002057697A6172640A00204500205A002037
:101F10005900483D5800486F74656E64206F6666CE
:101F2000736574733A00504944204175746F747539
:101F30006E652066696E69736865642120507574EA
:101F400020746865206C617374204B702C204B6981
:101F500020616E64204B6420636F6E7374616E74D5
:101F6000732066726F6D2061626F766520696E7492
:101F70006F20436F6E66696775726174696F6E2E4C
:101F8000680A00504944204175746F74756E65206D
:101F90006661696C6564212074696D656F75740A8A
:101FA0000020403A006F6B20543A006F6B20423A99
:101FB00000504944204175746F74756E65206661E8
:101FC000696C6564212054656D7065726174757209
:101FD0006520746F6F20686967680A00204B643A57
:101FE0002000204B693A2000204B703A200020430B
:101FF0006C617373696320504944200A0020547552
:102000003A2000204B753A2000206D61783A20007C
:10201000206D696E3A200020643A200020626961D8
:10202000733A2000220A00656E717565696E67203B
:102030002200000000000080934300000000000028
:10204000A0400000A0400000004020004D6F7665D9
:1020500020746F3A2000CDCC984300809343000059
:102060005243FF01FF20636F6C64206578747275C2
:1020700073696F6E2070726576656E7465640A00B0
:102080006563686F3A002A2A2A2047656E696520D1
:10209000446973636F6E6E65637465642066726F06
:1020A0006D204765744E6578744279746521202AE5
:1020B0002A2A002A2A2A2047656E696520456E6112
:1020C000626C65204174746163684576656E74481E
:1020D000616E646C657220212121202A2A2A004326
:1020E000616E6E6F7420656E7465722073756264C4
:1020F00069723A200057726974696E6720746F20A4
:1021000066696C653A20002E0A006F70656E206665
:1021100061696C65642C2046696C653A20002E0A62
:10212000006F70656E206661696C65642C2046697D
:102130006C653A200046696C652073656C65637454
:1021400065640A002053697A653A200046696C6527
:10215000206F70656E65643A20002E0A006F70650E
:102160006E206661696C65642C2046696C653A2056
:10217000004E6F772066726573682066696C653AF9
:1021800020004E6F7720646F696E672066696C650A
:102190003A20002220706F73002220706172656EF9
:1021A000743A2200535542524F5554494E452043EC
:1021B000414C4C207461726765743A2200747279E4
:1021C000696E6720746F2063616C6C207375622D7B
:1021D00067636F64652066696C65732077697468EE
:1021E00020746F6F206D616E79206C6576656C73FD
:1021F0002E204D4158206C6576656C2069733A003D
:10220000473238205830205930002569206D696EDA
:102210002C20256920736563000A0A005374616EDF
:102220006461726420446576696174696F6E3A20F6
:10223000000A004D65616E3A20000A002020207AD5
:102240003A20000A00793A2000783A20003F537083
:1022500065636966696564206E756D626572206F7D
:1022600066206C65677320696E206D6F76656D659D
:102270006E74206E6F7420706C61757361626C6532
:102280002E0A003F537065636966696564205920B2
:10229000706F736974696F6E206F7574206F66203C
:1022A00072616E67652E0A003F53706563696669E7
:1022B0006564205820706F736974696F6E206F7544
:1022C00074206F662072616E67652E0A003F53703E
:1022D000656369666965642073616D706C65207300
:1022E000697A65206E6F7420706C61757361626CC1
:1022F000652E0A0046756C6C20737570706F727471
:102300002061743A20687474703A2F2F33647072AD
:10231000696E74626F6172642E636F6D2F666F7287
:10232000756D2E7068700A004D3438205A2D507229
:102330006F6265205265706561746162696C697471
:102340007920746573742E20202056657273696F2E
:102350006E20322E30300A003F566572626F736510
:10236000204C6576656C206E6F7420706C6175739F
:1023700061626C652E0A006F6B004578747275643B
:102380006572204865617465640A0020573A002C24
:102390002073617665645F466C61675F66616E6C31
:1023A000617965725F6D6972726F723A20002C20DC
:1023B00073617665645F66656564726174653A2011
:1023C000002C2073617665645F66616E6C6179656F
:1023D000723A20002C2073617665645F74656D70BD
:1023E0006265643A20002C2073617665645F7465D1
:1023F0006D70303A20002C2073617665645F7465DF
:102400006D70313A20002C2073617665645F6669D7
:102410006C65706F736974696F6E3A20002C20735D
:10242000617665645F655F706F736974696F6E3A3A
:1024300020002C2073617665645F746F6F6C5F6140
:1024400063746976653A20002C2073617665645F59
:102450007A5F706F736974696F6E3A20002C207315
:10246000617665645F795F706F736974696F6E3AE6
:1024700020002C2073617665645F785F706F7369EC
:1024800074696F6E3A200053415645205052494EB0
:1024900054204C4F473A0A006563686F3A00507207
:1024A000696E74207265636F766572792075700A43
:1024B000004E6F74207072696E74207265636F765F
:1024C0006572792075700A00535543434553530A8A
:1024D0000056616C756573206F7574206F6620728D
:1024E000616E67650A0056616C756573206F75745F
:1024F000206F662072616E67650A0056616C7565B3
:1025000073206F7574206F662072616E67650A00B4
:1025100056616C756573206F7574206F66207261EB
:102520006E67650A00535543434553530A0056618D
:102530006C756573206F7574206F662072616E67AD
:10254000650A0056616C756573206F7574206F663F
:102550002072616E67650A0056616C756573206F45
:102560007574206F662072616E67650A0056616C33
:10257000756573206F7574206F662072616E676574
:102580000A0020502000205A2000205920005365C6
:1025900074204D3533302058200054696D65206912
:1025A0006E6163746976650A0050757267652064B0
:1025B000697374616E63650A00504F534954494F03
:1025C0004E20484F4D453A200025203364202525D4
:1025D0000025642068202564206D002520336420B8
:1025E00025250025326420256343002533642025FA
:1025F0006343002533642025634300526561647999
:1026000020746F204C6F61642F556E6C6F61642075
:102610000A00256425250025336420256343002511
:10262000336420256343002053544F5020505249B7
:102630004E54200A00473238205830205930004D7F
:10264000333500526573756D652064657465637418
:102650006564200A0047373000A1524553554D4567
:1026600021200A00A1504155534521200A0025335D
:10267000642025634300253364202563430025330C
:1026800064202563430025336420256343002533FC
:1026900064202563430025336420256343002533EC
:1026A00064202563430025336420256343002533DC
:1026B0006420256343005052494E542053455454DE
:1026C000494E4753200A0070012C0190012701B0A8
:1026D000012201C0011D01F0011801100213013097
:1026E000020E016002090190020401C002FF000015
:1026F00003FA004003F5008003F000D003EB002054
:1027000004E6007004E100E004DC004005D700C0EE
:1027100005D2004006CD00D006C8008007C30030B7
:1027200008BE00F008B900C009B400B00AAF00B09C
:102730000BAA00D00CA500000EA000500F9B00C0FB
:102740001096005012910000148C00C0158700B044
:10275000178200B0197D00D01B7800001E73004066
:10276000206E0090226900F024640040275F0090F2
:10277000295A00E02B5500102E500020304B00103D
:10278000324600E033410090353C0010373700708E
:10279000383200A0392D00B03A2800A03B23006059
:1027A0003C1E00103D1900903D1400103E0F0070BB
:1027B0003E0A00C03E0500003F00004572726F7285
:1027C000283833293A2042656420746865726D693F
:1027D00073746F72206E6F742064657465637465C2
:1027E000640A004572726F72283832293A205269A1
:1027F00067687420746865726D6973746F72206E97
:102800006F742064657465637465640A0045727250
:102810006F72283831293A204C65667420746865D7
:10282000726D6973746F72206E6F742020646574AA
:1028300065637465640A002053544F502050524918
:102840004E54200A004572726F72283833293A209C
:1028500042656420746865726D6973746F72206E6E
:102860006F742064657465637465640A0020535452
:102870004F50205052494E54200A004572726F72D8
:10288000283832293A205269676874207468657262
:102890006D6973746F72206E6F7420646574656304
:1028A0007465640A002053544F50205052494E54CE
:1028B000200A004572726F72283831293A204C651F
:1028C000667420746865726D6973746F72206E6FC0
:1028D00074202064657465637465640A00000021D7
:1028E00000240027002A002D0030003300010100E1
:1028F00000040107010A0100002200250028002B26
:10290000002E003100340002010000050108010B17
:10291000015341564544205052494E540A007A70A2
:10292000726F62653A200053442063617264206FC5
:102930006B0A006F70656E526F6F74206661696C10
:1029400065640A00766F6C756D652E696E6974201A
:102950006661696C65640A004572726F723A005371
:102960004420696E6974206661696C0A0065636859
:102970006F3A004D3234004D3233202573006175BB
:10298000746F25692E67005072696E7465722068D5
:10299000616C7465642E206B696C6C2829206361FE
:1029A0006C6C6564210A004572726F723A0045785A
:1029B0007472756465722072656C656173656420FC
:1029C0006163746976653A20005A205349474D4146
:1029D00020486F6D65640A0045787472756465728D
:1029E000206163746976653A20007C3C3E5E2B3D35
:1029F0003F2F5B5D3B2C2A225C0047363920414348
:102A0000544956415445440A000A00205A3A2000CD
:102A100020593A200020583A200042656400456E53
:102A2000642066696C65206C6973740A004265678E
:102A3000696E2066696C65206C6973740A00436175
:102A40007264204E616D653A20002E0A0044656C68
:102A50006574696F6E206661696C65642C204669D7
:102A60006C653A200046696C652064656C65746528
:102A7000643A002E0A006F70656E206661696C65AD
:102A8000642C2046696C653A2000526573656E645B
:102A90003A20006F6B0A004475616C204D6F6465CD
:102AA000204F46460A00436F6F6C696E6720446F83
:102AB000776E204865617465720A00504944204170
:102AC00075746F74756E652066696E697368656488
:102AD000210A00504944204175746F74756E652059
:102AE0006661696C6564212074696D656F75740A2F
:102AF0000020403A006F6B20543A006F6B20423A3E
:102B000000504944204175746F74756E652066618C
:102B1000696C6564212054656D70657261747572AD
:102B20006520746F6F20686967680A00204B643AFB
:102B30002000204B693A2000204B703A20002043AF
:102B40006C617373696320504944200A00205475F6
:102B50003A2000204B753A2000206D61783A200021
:102B6000206D696E3A200020643A2000206269617D
:102B7000733A20003B20472D436F64652067656EE4
:102B80006572617465642062792053696D706C6947
:102B9000667933442852292056657273696F6E2016
:102BA0002564003B5072696E742074696D653A202B
:102BB0002564202573202564202573202564202585
:102BC00073003B54494D453A256C64003B2020205E
:102BD0004275696C642074696D653A20256420250E
:102BE00073202564202573004D313037002569207E
:102BF000686F757273202569206D696E75746573D1
:102C000000446F6E65207072696E74696E6720662D
:102C1000696C650A004D333300706175736520641B
:102C200065746563746564200A0047363900507224
:102C3000696E7465722073746F707065642064755A
:102C40006520746F206572726F72732E20466978EA
:102C500020746865206572726F7220616E642075E1
:102C60007365204D39393920746F20726573746132
:102C700072742E202854656D70657261747572656A
:102C80002069732072657365742E20536574206902
:102C90007420616674657220726573746172746900
:102CA0006E67290A006F6B0A004E6F204C696E65D3
:102CB000204E756D6265722077697468206368655F
:102CC000636B73756D2C204C617374204C696E6559
:102CD0003A20004E6F20436865636B73756D2077F3
:102CE000697468206C696E65206E756D6265722C02
:102CF000204C617374204C696E653A2000636865EE
:102D0000636B73756D206D69736D617463682C20DE
:102D10004C617374204C696E653A20004C696E6595
:102D2000204E756D626572206973206E6F74204C41
:102D3000617374204C696E65204E756D6265722BEF
:102D4000312C204C617374204C696E653A20004D23
:102D500031313000CDCC9843008093430000524382
:102D600000000000000000000000000048797374BB
:102D70006572657369732074656D706572617475D1
:102D800072650A00546865726D616C2072756E61BF
:102D90007761792070726F74656374696F6E2062F9
:102DA00079204865617465725F49443A0A00256478
:102DB000206974656D7300000F02090211241FBEA3
:102DC000CFEFD1E2DEBFCDBF00E00CBF17E0A0E047
:102DD000B2E0ECE5F8E303E00BBF02C007900D9210
:102DE000AC38B107D9F72CE1ACE8B7E001C01D92CF
:102DF000A73DB207E1F716E1CDEDD6E100E006C050
:102E000021970109802FFE010F949199CC3DD107A4
:102E100080E00807A9F70F94AE7C0D941D9C0C94DC
:102E200000002F923F924F925F926F927F928F920B
:102E30009F92AF92BF92CF92DF92EF92FF920F9349
:102E40001F93CF93DF93CDB7DEB7C153D1400FB6F9
:102E5000F894DEBF0FBECDBF2DB63EB611E0109385
:102E60006B088091C20781110CC00F94DE2960931A
:102E7000BE077093BF078093C0079093C10710935C
:102E8000C2078091B60781110DC00F94DE296093AF
:102E9000B2077093B3078093B4079093B50781E0AE
:102EA0008093B60780915D184091240250912502CD
:102EB0006091260270912702811106C090915E18E0
:102EC000992311F40C94DC244E38510561057105E9
:102ED00009F45FC60CF0D5C04D335105610571058D
:102EE00009F4D2C10CF05AC0403251056105710598
:102EF00011F40C94D52234F540315105610571056A
:102F000009F473C174F4413051056105710509F488
:102F1000A6C1423051056105710509F42FC30C9417
:102F20005753423151056105710509F442C214F449
:102F30000C943422433151056105710509F40BC22B
:102F40000C945753423351056105710509F416C3BA
:102F50007CF4413251056105710511F40C94C422D1
:102F6000413351056105710509F4D7C10C945753DC
:102F7000453351056105710511F40C948D234A33D5
:102F800051056105710509F4FBC74433510561051D
:102F9000710511F00C9457530C9485214835510557
:102FA0006105710509F49AC154F54634510561056E
:102FB000710509F488C47CF441345105610571053B
:102FC00009F40EC4443451056105710511F40C94E3
:102FD00038200C9457534F3451056105710509F49D
:102FE0005CC5473551056105710509F4C4C14E340E
:102FF00051056105710511F00C945753D7C44B3737
:1030000051056105710509F4DFC274F44A355105B3
:103010006105710509F4D8C246375105610571058E
:1030200009F4D6C10C945753483851056105710510
:1030300009F4E5C0493851056105710509F4EAC094
:103040004C3751056105710511F00C94575340E060
:1030500050E06AE28AE00E94EEB240E050E06DE7A4
:1030600081E20E94EEB211E0109308081092651CF4
:1030700068ED77E086E20E94F6B31093D7070C94D0
:1030800057534D3951056105710511F40C942C23EA
:103090000CF04FC0453951056105710509F4E0C6D2
:1030A000F4F4413951056105710509F46AC574F4F8
:1030B0004F3851056105710509F4C4C54039510502
:1030C0006105710509F419C60C945753433951052C
:1030D0006105710509F4E3C50CF487C53AC64839A2
:1030E00051056105710511F40C9462237CF4463995
:1030F00051056105710509F486C647395105610519
:10310000710511F40C9473230C9457534B395105EA
:103110006105710511F40C94EC2214F00C94F52265
:103120004A3951056105710511F40C94E3220C94A0
:103130005753463A51056105710509F406C21CF55D
:10314000423A51056105710509F454C07CF4403AD6
:1031500051056105710511F40C948423413A510520
:103160006105710509F422C60C945753443A510580
:103170006105710509F4FDC10CF0F1C181E0809396
:10318000E9100C945753493A51056105710509F44A
:10319000EBC194F4473A51056105710509F4DAC1B0
:1031A000483A51056105710511F00C94575381E0BF
:1031B0008093E3100C9457534E3B51056105710504
:1031C00009F49EC0433D51056105710511F40C944D
:1031D0009E244A3A51056105710511F00C9457532C
:1031E00081E08093E2100C94575381E08093EC10BF
:1031F0000C94575381E08093EB100C94575381E06B
:103200008093EC1041E050E069E881E20E94EEB268
:103210000C94575380910E02833411F00C94575341
:1032200082E480930E0240E050E067E581E20E9474
:10323000EEB240E050E066E781E20E94EEB240E08C
:1032400050E068E881E20E94EEB240E050E069E8B8
:1032500081E20E94EEB21092651C0C9457531092BA
:10326000080880E00F94093481E08093DF10809398
:10327000161140E050E068E08AE00E94EEB281E47E
:10328000809317110C94575380910E0240E050E048
:10329000813491F469E08AE00E94EEB211E010936B
:1032A000080868ED77E082E00E94F6B31093D70734
:1032B0001092651C0C9457536AE28AE00E94EEB2A9
:1032C00011E01093080868ED77E086E20E94F6B3FB
:1032D0001093D7071092651C0C94575380910A08DD
:1032E00081110C94575380915E1881110C9457539F
:1032F00040E050E069E38AE00E94EEB20C9457533C
:1033000080910A0881110C94575340E050E061E02D
:103310008AE00E94EEB20C94575380910A08811102
:103320000C94575300910E02013411F00C94575332
:103330001092080810925D1811E010935E1840E09A
:1033400050E068E08AE00E94EEB2009317111093FB
:10335000541C0C94575380910E02813411F00C943C
:10336000575340E050E061E08AE00E94EEB21092D4
:1033700008080C94575380910E02823491F38334E1
:1033800011F00C94575340E050E066E18AE00E944F
:10339000EEB241E050E06DE781E20E94EEB282E5DC
:1033A0008093160281E08093651C109208080C94AB
:1033B0005753882311F40C94575380910E02813493
:1033C00011F00C94575381E08093E1100C94575303
:1033D00080915E18882311F40C94575380910E024B
:1033E000823429F481E08093E0100C9457538334A5
:1033F00011F00C94575311E01093610840E050E035
:1034000068E981E20E94EEB240E050E067E981E2C3
:103410000E94EEB240E050E06CE981E20E94EEB220
:1034200040E050E06DE981E20E94EEB241E050E000
:1034300067E881E20E94EEB240E050E06CE28AE090
:103440000E94EEB21093651C8FEF9FEF9093840261
:1034500080938302E7E8F7E084918F01882351F09D
:10346000082E000C990B0F947E310F5F1F4FF8014F
:103470008491F4CF40E050E06AE981E20E94EEB22C
:1034800040E050E06BE981E20E94EEB21F9210EB47
:10349000F12EFF926091431C7091441C8091451C59
:1034A0009091461C0F94C6967F936F938FE797E099
:1034B0009F938F938E010F5F1F4F1F930F930F9456
:1034C000508EB8018AE00E94F6B3C8010E94BCB5D4
:1034D0001F92FF926091471C7091481C8091491C7B
:1034E00090914A1C0F94C6967F936F9387E797E05D
:1034F0009F938F931F930F930F94508EB80181E188
:103500000E94F6B3C8010E94BCB51F92FF921F92A1
:103510001F928FE697E09F938F931F930F930F94C3
:10352000508EB80185E00E94F6B3C8010E94BCB578
:10353000109208082DB73EB7285E3F4F0FB6F8949B
:103540003EBF0FBE2DBF0C94575381E08093E61011
:103550000C94575381E08093E5100C94575381E00D
:103560008093E8100C94575381E08093E4100C94FE
:10357000575381E08093E7100C9457534230510524
:103580006105710511F489E406C0423351056105F6
:10359000710519F482E58093160240E050E06CE476
:1035A00081E20E94EEB240E050E06BE481E20E94D2
:1035B000EEB240E050E064E18AE00E94EEB28FEFAC
:1035C0008093AD100C9457534A3551056105710530
:1035D00019F41092AD1003C081E08093AD1080917A
:1035E000AD10082F10E0000F111FF801E658FE4E35
:1035F000208131813093B1072093B00781111EC023
:103600008091D5109091D610609196077091970790
:10361000681779072CF4BC01990F880B990B04C02B
:10362000072E000C880B990B0F94A68E06581E4E81
:103630000F94C696D8016D937C931DC08091D910CC
:103640009091DA1060919407709195076817790747
:103650002CF4BC01990F880B990B04C0072E000CA9
:10366000880B990B0F94A68E06581E4E0F94C69683
:10367000F8017183608381E48093171140E050E08A
:1036800068E08AE00E94EEB240E050E06DE781E23F
:103690000E94EEB280E090E0A3E4B3E480939D1139
:1036A00090939E11A0939F11B093A01180909910B8
:1036B00090909A10A0909B10B0909C10209199111E
:1036C00030919A1140919B1150919C1160919511EC
:1036D000709196118091971190919811E8E86E2E53
:1036E000E1E17E2E7F926F92F1EACF2EF1E1DF2EA3
:1036F000E12CF12C03E413E40E9411E70F944775C9
:1037000080E090E0A0E2B1E48093991190939A1147
:10371000A0939B11B0939C1180909510909096105F
:10372000A0909710B0909810E0909D11F0909E118D
:1037300000919F111091A0116091951170919611B7
:1037400080919711909198117F926F9220E030E0D4
:1037500040E251E40E9411E70F9447750F900F90DB
:103760000F900F90809117118E3411F40C94302922
:10377000109217110E949E7260E074E08DE20E9428
:10378000F6B340E050E068E28AE00E94EEB20091B9
:10379000AD1010E0F801EE0FFF1FEE0FFF1FED5B05
:1037A000F34E60817181828193810F94C6967093EC
:1037B0005F0860935E08000F111FF801E658FE4E87
:1037C0008081918190935D0880935C0888E4809368
:1037D00017110E949E7281E0809360080C945753E9
:1037E0008091AD108130B1F540E050E068E08AE0B2
:1037F0000E94EEB287ED90E090936C0E80936B0E7A
:103800009093DC108093DB108AEA90E09093DA10BA
:103810008093D91081E490E09093680E8093670EB6
:103820000E94FD8F8091DB109091DC1090937D11B0
:1038300080937C110E9496AC40E050E06EE781E2FC
:103840000E94EEB240E050E06DE481E20E94EEB2F0
:103850000C94575381110C94575340E050E068E0AA
:103860008AE00E94EEB287ED90E090936E0E809316
:103870006D0E9093D8108093D7108AEA90E09093C1
:10388000D6108093D51081E490E090936A0E8093D7
:10389000690E0E94FD8F8091D7109091D81090935F
:1038A0007B1180937A110E9496AC40E050E06EE765
:1038B00081E20E94EEB240E050E06DE481E20E94BD
:1038C000EEB20C9457538091AD108130B1F540E0C9
:1038D00050E068E08AE00E94EEB284E091E09093CC
:1038E0006C0E80936B0E9093DC108093DB1086EE51
:1038F00090E09093DA108093D9108AE590E090934D
:10390000680E8093670E0E94FD8F8091DB1090916E
:10391000DC1090937D1180937C110E9496AC40E066
:1039200050E06EE781E20E94EEB240E050E06DE4CC
:1039300081E20E94EEB20C94575381110C945753BC
:1039400040E050E068E08AE00E94EEB284E091E05E
:1039500090936E0E80936D0E9093D8108093D71035
:1039600086EE90E09093D6108093D5108AE590E093
:1039700090936A0E8093690E0E94FD8F8091D710FC
:103980009091D81090937B1180937A110E9496ACFD
:1039900040E050E06EE781E20E94EEB240E050E08D
:1039A0006DE481E20E94EEB20C9457538091AD1009
:1039B0008130C1F540E050E068E08AE00E94EEB25C
:1039C0008CED90E090936C0E80936B0E86EE90E001
:1039D0009093DC108093DB1080EA90E09093DA10F3
:1039E0008093D9108CE390E09093680E8093670EDB
:1039F0000E94FD8F8091DB109091DC1090937D11DF
:103A000080937C110E9496AC40E050E06EE781E22A
:103A10000E94EEB240E050E06DE481E20E94EEB21E
:103A20000C94575381110C94575340E050E068E0D8
:103A30008AE00E94EEB28CED90E090936E0E80933F
:103A40006D0E86EE90E09093D8108093D71080EAA8
:103A500090E09093D6108093D5108CE390E09093F3
:103A60006A0E8093690E0E94FD8F8091D71090910D
:103A7000D81090937B1180937A110E9496AC40E00D
:103A800050E06EE781E20E94EEB240E050E06DE46B
:103A900081E20E94EEB20C9457538091AD108230B7
:103AA00010F00C94575340E050E064E38AE00E9429
:103AB000EEB21F9250EBF52EFF9280910D028F9384
:103AC00080910C028F9303E014E01F930F936E011B
:103AD000FCEDCF1AFEEFDF0ADF92CF920F94ED9B41
:103AE000B6018DE00E94F6B31F92FF9280910B0207
:103AF0008F9380910A028F931F930F936E0126EE8E
:103B0000C21A2EEFD20ADF92CF920F94ED9BB6012C
:103B10008EE00E94F6B31F92FF92809109028F936C
:103B2000809108028F931F930F936E0131E0C30EB3
:103B3000D31EDF92CF920F94ED9BB6018FE00E94CF
:103B4000F6B31F92FF92809107028F938091060235
:103B50008F931F930F938E010F5F1F4F1F930F9330
:103B60000F94ED9B4DB75EB7405E5F4F0FB6F89474
:103B70005EBF0FBE4DBFB80182E10E94F6B30C9448
:103B8000575340E050E064E18AE00E94EEB20C94AA
:103B9000575380910C0290910D021816190614F0DB
:103BA0000C9457530A9790930D0280930C021F9226
:103BB00020EB2F939F938F938AE094E09F938F93B2
:103BC0008E010F5F1F4F1F930F930F94ED9BB80152
:103BD0008DE00E94F6B38DB79EB708960FB6F894A5
:103BE0009EBF0FBE8DBF0C94575380910C029091D5
:103BF0000D028633A1E09A0714F00C9457530A96ED
:103C000090930D0280930C021F9220EB2F939F93B1
:103C10008F938AE094E09F938F938E010F5F1F4FE5
:103C20001F930F930F94ED9BB8018DE00E94F6B3A4
:103C3000EDB7FEB738960FB6F894FEBF0FBEEDBFD6
:103C40000C94575380910A0290910B021816190692
:103C500014F00C9457530A9790930B0280930A0226
:103C60001F9220EB2F939F938F938AE094E09F9372
:103C70008F938E010F5F1F4F1F930F930F94ED9B38
:103C8000B8018EE00E94F6B32DB73EB7285F3F4FD4
:103C90000FB6F8943EBF0FBE2DBF0C9457538091C2
:103CA0000A0290910B02863331E0930714F00C94D2
:103CB00057530A9690930B0280930A021F9220EBAF
:103CC0002F939F938F938AE094E09F938F938E011D
:103CD0000F5F1F4F1F930F930F94ED9BB8018EE062
:103CE0000E94F6B34DB75EB7485F5F4F0FB6F894CA
:103CF0005EBF0FBE4DBF0C94575380910802909148
:103D000009021816190614F00C9457530A97909349
:103D10000902809308021F9220EB2F939F938F93A9
:103D20008AE094E09F938F938E010F5F1F4F1F9344
:103D30000F930F94ED9BB8018FE00E94F6B38DB7FF
:103D40009EB708960FB6F8949EBF0FBE8DBF0C9419
:103D5000575380910802909109028633A1E09A0797
:103D600014F00C9457530A9690930902809308021A
:103D70001F9220EB2F939F938F938AE094E09F9361
:103D80008F938E010F5F1F4F1F930F930F94ED9B27
:103D9000B8018FE00E94F6B3EDB7FEB738960FB6C4
:103DA000F894FEBF0FBEEDBF0C94575380910602EE
:103DB000909107021816190614F00C9457530A979D
:103DC00090930702809306021F9220EB2F939F93FC
:103DD0008F938AE094E09F938F938E010F5F1F4F24
:103DE0001F930F930F94ED9BB80182E10E94F6B3ED
:103DF0002DB73EB7285F3F4F0FB6F8943EBF0FBEBA
:103E00002DBF0C945753809106029091070289367A
:103E1000910514F00C9457530A96909307028093DF
:103E200006021F9220EB2F939F938F938AE094E0DA
:103E30009F938F938E010F5F1F4F1F930F930F94CC
:103E4000ED9BB80182E10E94F6B34DB75EB7485FC3
:103E50005F4F0FB6F8945EBF0FBE4DBF0C94575323
:103E600040E050E068E08AE00E94EEB2E091AD10E0
:103E700040910C0250910D0220910A0230910B02E8
:103E800060910802709109028091060290910702E8
:103E9000E11130C06C33A1E07A0714F06BE371E0FC
:103EA00070936E0E60936D0E4C33B1E05B0714F0AF
:103EB0004BE351E05093D8104093D7102C33E1E0FE
:103EC0003E0714F02BE331E03093D6102093D51049
:103ED0008F36910514F08EE690E090936A0E8093F1
:103EE000690E8091D7109091D81090937B11809398
:103EF0007A1134C06C33F1E07F0714F06BE371E0AA
:103F000070936C0E60936B0E4C3361E056072CF48B
:103F10005093DC104093DB1006C04BE351E050930C
:103F20006C0E40936B0E2C33A1E03A0714F02BE398
:103F300031E03093DA102093D9108F36910514F0C8
:103F40008EE690E09093680E8093670E8091DB1070
:103F50009091DC1090937D1180937C110E94FD8FD5
:103F60000E9496AC40E050E06EE781E20E94EEB223
:103F700040E050E06DE481E20E94EEB20C945753B1
:103F800060E074E08DE20E94F6B340E050E068E249
:103F90008AE00E94EEB288E4809317110E949E721C
:103FA0008091AD10082F10E081111DC08091D710B5
:103FB0009091D810609192077091930768177907D4
:103FC0002CF4BC01990F880B990B04C0072E000C30
:103FD000880B990B0F94A68E0F94C69670937B1145
:103FE00060937A1122C08091DB109091DC10609177
:103FF000900770919107681779072CF4BC01990F0D
:10400000880B990B04C0072E000C880B990B0F949A
:10401000A68E9801220F331FF901E658FE4E7F014C
:104020000F94C696D7016D937C93F801EE0FFF1F96
:10403000EE0FFF1FED5BF34E6081718182819381F2
:104040000F94C69670935F0860935E08F801EE0FB8
:10405000FF1FE658FE4E8081918190935D0880930A
:104060005C080E949E7281E0809360080C94575314
:1040700080911602893411F00C94575340E050E0BF
:1040800068E08AE00E94EEB281E480931711E0912B
:10409000AD10B4E0EB9FF0011124E655FD4F6081B7
:1040A00071818281938160939511709396118093B1
:1040B000971190939811E0909D11F0909E110091AE
:1040C0009F111091A0112091991130919A11409156
:1040D0009B1150919C110E94A8B4E0909D11F0900A
:1040E0009E1100919F111091A01120919911309172
:1040F0009A1140919B1150919C1160919511709172
:1041000096118091971190919811EDEAF0E1FF934B
:10411000EF93812CA0E89A2EABE3AA2EA6E4BA2E48
:10412000B1EACB2EB1E1DB2E0E9411E70F94477567
:10413000E5E6F7E084910F900F908F01882351F00E
:10414000082E000C990B0F947E310F5F1F4FF80162
:104150008491F4CF20E030E040EF51E46091A11170
:104160007091A2118091A3119091A4110F942C959C
:104170006093A1117093A2118093A3119093A41145
:10418000E0909D11F0909E1100919F111091A0114F
:104190002091991130919A1140919B1150919C114D
:1041A000609195117091961180919711909198114D
:1041B000BDEA6B2EB0E17B2E7F926F92812C912C09
:1041C000E0E3AE2EE1E4BE2EF1EACF2EF1E1DF2EE8
:1041D0000E9411E70F9447750F900F90809117116F
:1041E0008E3411F40C94302920E030E84AE454E491
:1041F0006091A1117091A2118091A3119091A411CD
:104200000F942C95AB01BC014093A1115093A211C6
:104210006093A3117093A41183ED95E10F94CF33B4
:10422000E0909D11F0909E1100919F111091A011AE
:104230002091991130919A1140919B1150919C11AC
:1042400060919511709196118091971190919811AC
:104250007F926F92812C912CA0E7AA2EA2E4BA2E15
:104260000E9411E70F9447750F900F9080911711DE
:104270008E3409F4F5C720E030E048E452E4609160
:10428000A1117091A2118091A3119091A4110F948A
:104290002C956093A1117093A2118093A311909318
:1042A000A411E0909D11F0909E1100919F1110912A
:1042B000A0112091991130919A1140919B11509128
:1042C0009C11609195117091961180919711909128
:1042D00098117F926F92812C912CA12CF0E4BF2E2B
:1042E0000E9411E70F9447750F900F90809117115E
:1042F0008E3409F4B5C71092171140E050E06EE01B
:104300008AE00E94EEB20C945753809116028235D7
:1043100011F00C94575340E050E068E08AE00E94AE
:10432000EEB281E48093171166E272E080E090E0E3
:104330000F94A62920E030E240E854E46091A111F6
:104340007091A2118091A3119091A4110F942B95BB
:104350006093A1117093A2118093A3119093A41163
:10436000E0909D11F0909E1100919F111091A0116D
:104370002091991130919A1140919B1150919C116B
:10438000609195117091961180919711909198116B
:10439000EDEAF0E1FF93EF93812C912CB0E7AB2E87
:1043A000B2E4BB2EE1EACE2EE1E1DE2E0E9411E75F
:1043B0000F9447750F900F90809117118E3409F468
:1043C0004FC786E090E0909305028093040210921C
:1043D000171112E4109328100E949E7240E050E0E2
:1043E00065E18AE00E94EEB240E050E06BE084E1DB
:1043F0000E94EEB2109317118091AD1081111AC076
:104400008091D7109091D810909393078093920742
:104410008091D5109091D61090939707809396072E
:1044200080916D0E90916E0E90938F0780938E0702
:104430000C9457538091DB109091DC10909391076E
:10444000809390078091D9109091DA1090939507FE
:104450008093940780916B0E90916C0E90938D07D2
:1044600080938C070C9457538091570881110C94BA
:10447000575340E050E065E18AE00E94EEB240E030
:1044800050E06BE084E10E94EEB282E48093171169
:1044900080932810E091AD1024E0E29FF0011124F8
:1044A000E655FD4F60817181828193816093951102
:1044B000709396118093971190939811E0909D11AD
:1044C000F0909E1100919F111091A01120919911CF
:1044D00030919A1140919B1150919C11EDEAF0E1BD
:1044E000FF93EF93812CE0E89E2EEBE3AE2EE6E403
:1044F000BE2EF1EACF2EF1E1DF2E0E9411E7E0900F
:104500009D11F0909E1100919F111091A01120918A
:10451000991130919A1140919B1150919C11E09109
:10452000881164E0E69FF0011124E655FD4F60819B
:104530007181828193810E94A8B4E091881184E006
:10454000E89FF0011124E655FD4F80819181A28101
:10455000B3818093951190939611A0939711B09386
:104560009811E091AD10F0E0EE0FFF1FE658FE4EFF
:104570008091B0079091B107918380830F94477524
:104580000F900F900C9457538091570881110C9401
:1045900057539091660E8091650E98130C94755345
:1045A00081E0809363080C945753809157088111E0
:1045B0000C9457539091660E8091650E98130C944D
:1045C00075530C9478539091660E8091650E9813F4
:1045D0000C9457530C947C539091660E8091650E09
:1045E00098130C9457530C944C54E0918302F0911F
:1045F0008402EF3F5FEFF50711F40C945753EE0F71
:10460000FF1FE658FE4E808191818B3361E0960753
:1046100014F00C9457530596918380831F9220EBDE
:104620002F939F938F9385E297E09F938F938E01B3
:104630000F5F1F4F1F930F930F94508EB80185E0AB
:104640000E94F6B38DB79EB708960FB6F8949EBF3A
:104650000FBE8DBF0C945753E0918302F0918402FA
:10466000EF3F9FEFF90711F40C945753EE0FFF1F24
:10467000E658FE4E808191811816190614F00C94AC
:1046800057530597918380831F9220EB2F939F931D
:104690008F938DE197E09F938F938E010F5F1F4F54
:1046A0001F930F930F94508EB80185E00E94F6B3CC
:1046B000ADB7BEB718960FB6F894BEBF0FBEADBF6C
:1046C0000C9457538091830290918402019611F4C7
:1046D0000C9457539091660E8091650E98130C942C
:1046E00075530C9421558091830290918402019618
:1046F00011F40C9457539091660E8091650E9813A7
:104700000C9475530C9425559091660E8091650E0E
:1047100098130C9457530C94295580912810823487
:1047200011F00C945753E4E1F7E084918F01882352
:1047300051F0082E000C990B0F947E310F5F1F4F24
:10474000F8018491F4CF10921711109257088091BC
:104750001602823509F047C089E4809316028091E1
:10476000AD10813049F441E050E06CE481E20E94F8
:10477000EEB240E050E008C040E050E06CE481E27E
:104780000E94EEB241E050E06BE481E20E94EEB2A2
:1047900041E050E06EE781E20E94EEB241E050E07D
:1047A0006DE481E20E94EEB241E050E061E481E21A
:1047B0000E94EEB241E050E066E481E20E94EEB277
:1047C00041E050E06EE481E20E94EEB241E050E050
:1047D0006FE481E20E94EEB240E050E064E18AE0E2
:1047E0000E94EEB2A7C0893409F0A4C081E480938E
:1047F000171140E050E068E08AE00E94EEB240907D
:10480000F8075090F9076090FA077090FB07409204
:10481000991150929A1160929B1170929C1120E014
:1048200030E040E752E460916D0270916E02809139
:104830006F02909170020F941A964B015C01E09008
:104840009D11F0909E1100919F111091A011609107
:10485000951170919611809197119091981128E877
:1048600031E13F932F9351EAC52E51E1D52EA3019B
:1048700092010E9411E70F9447750F900F9080915D
:1048800017118E3409F4ECC420E030E040E251E42A
:104890006091FC077091FD078091FE079091FF07E2
:1048A0000F942C957B018C0160939D1170939E1148
:1048B00080939F119093A0118091F11B8983809028
:1048C000710290907202A0907302B09074022091D5
:1048D000991130919A1140919B1150919C116091C6
:1048E0009511709196118091971190919811FE01F8
:1048F0003196FF93EF930E9411E70F9447750F9045
:104900000F90809117118E3409F4AAC410921711D8
:1049100040E050E06AE28AE00E94EEB211E01093BB
:1049200008081092651C68ED77E086E20E94F6B3F5
:104930001093D707109228100C9457538091EA10C7
:10494000109217118823B9F01092EA1081E0809339
:10495000EB1080910E0240E050E0813431F469E0C8
:104960008AE00E94EEB20C9457536AE28AE00E94F9
:10497000EEB20C9457531092CE101092651CE9E0E1
:10498000F7E084918F01882351F0082E000C990BD9
:104990000F947E310F5F1F4FF8018491F4CF109276
:1049A000690881E00E9466A540E050E065E08AE089
:1049B0000E94EEB20C9457539091CA07992309F4C0
:1049C00028C28091CE07823008F423C247345105B3
:1049D0006105710509F4A3C09CF54B3251056105D1
:1049E000710509F462C09CF44731510561057105F8
:1049F00009F467C0483151056105710511F00C9447
:104A0000575382E090E00E943AAC0C9457534033E5
:104A100051056105710509F44EC045335105610525
:104A2000710509F4BCC14F3251056105710511F0E2
:104A30000C9457538FEF9FEF0E943AAC0C9457534E
:104A4000403851056105710509F441C004F54E3542
:104A500051056105710509F470C14F3551056105B6
:104A6000710511F00C94575314E41093281040E092
:104A700050E06BE084E10E94EEB240E050E065E17E
:104A80008AE00E94EEB2109317110C9457534238EB
:104A9000510561057105B9F144F14B3A51056105C4
:104AA000710509F4C8C00C9457538EEF9FEF0E9414
:104AB0003AAC0C94575380E090E00E943AAC0C94CE
:104AC000575381E090E00E943AAC0C9457538DEF1D
:104AD0009FEF90932A108093291040E050E06AE005
:104AE0008AE00E94EEB20C94575383E090E09093DA
:104AF0002A108093291040E050E06AE08AE00E948A
:104B0000EEB20C94575310922A101092291040E0E4
:104B100050E06AE08AE00E94EEB20C94575340E005
:104B200050E068E08AE00E94EEB281E480931711C1
:104B300041E061E081E00F94B135109217110F94BC
:104B400047750E94C9A8109129108091CE07823024
:104B500011F540E050E061E18AE00E94EEB280E5AC
:104B6000809317110091CB07010F0093CB07002E04
:104B7000000C110B20E030E0A901CA01B9010F942B
:104B80003D3940E050E069E18AE00E94EEB21092C7
:104B900017110C945753833029F540E050E061E140
:104BA0008AE00E94EEB280E5809317110091CC0755
:104BB000010F0093CC07002E000C110B20E030E019
:104BC0004CE553EC60E070E088EA92EC0F943D39DC
:104BD00040E050E069E18AE00E94EEB210921711C5
:104BE0000C945753843011F00C94575340E050E02C
:104BF00061E18AE00E94EEB280E580931711009196
:104C0000CD07010F0093CD07002E000C110B20E003
:104C100030E04CE553EC60E070E084EA92E40F94FD
:104C20003D3940E050E069E18AE00E94EEB2109226
:104C300017110C945753109217118091CB07409184
:104C4000CC07042F081B4091CD07142F181B602F91
:104C5000002E000C770B880B990B0F94A68E2DEC71
:104C60003CEC4CEC5DEB0F949F896093D307709301
:104C7000D4078093D5079093D607612F012E000C9F
:104C8000770B880B990B0F94A68E2DEC3CEC4CEC1B
:104C90005DEB0F949F896093CF077093D00780934B
:104CA000D1079093D2070023A1F040E050E06FE1DC
:104CB0008AE00E94EEB207FF07C0202F332721951C
:104CC0000CF4309508E0020F402F000F550B64E004
:104CD00015C01123B9F040E050E060E28AE00E9484
:104CE000EEB217FF07C0812F992781950CF490959C
:104CF00018E0180F412F110F550B65E08BE10E9452
:104D0000EEB211C014E41093281040E050E06BE0C4
:104D100084E10E94EEB240E050E065E18AE00E944A
:104D2000EEB2109317118FE790E09093DE1080930E
:104D3000DD100E94FD8F0C9457534091CD07809158
:104D4000CB07142F181BC1F040E050E060E28AE06E
:104D50000E94EEB217FF07C0A12FBB27A1950CF44C
:104D6000B09518E01A0F412F110F550B65E08BE13C
:104D70000E94EEB20C94575314E41093281040E0B4
:104D800050E06BE084E10E94EEB240E050E065E16B
:104D90008AE00E94EEB2109317110C945753809141
:104DA0002810843411F00C9457531092CE071092AF
:104DB000CA07109217111092751110927411109267
:104DC0007B1110927A1110927D1110927C11109229
:104DD000CE101092651CEEEFF6E084918F018823CF
:104DE00051F0082E000C990B0F947E310F5F1F4F6E
:104DF000F8018491F4CF109269080E9466A540E002
:104E000050E065E08AE00E94EEB2109228100C9407
:104E10005753493D510510F00C945753FA01882718
:104E2000EE58FF4F8F4F0D94919981E08093520877
:104E30000C94575381E0809351080C94575381E0B0
:104E4000809350080C94575381E080934F080C9442
:104E5000575381E080934E080C9457530E945DFB9A
:104E6000009751F481E0809353088091671181503D
:104E7000809367110C945753019711F00C9457537A
:104E800081E08093530840E050E067E381E20E94B4
:104E9000EEB240E050E061E08BE10E94EEB2809122
:104EA00067118150809367110C9457531092CE1064
:104EB0001092651CE3EFF6E084918F01882351F096
:104EC000082E000C990B0F947E310F5F1F4FF801D5
:104ED0008491F4CF1092690881E00E9466A540E0B9
:104EE00050E065E08AE00E94EEB20C945753809146
:104EF0005F18882311F40C9457538091AF188111D7
:104F00000C945753CDB6DEB680914C0890914D0865
:104F10000E94A1FBE0E6F8E1DF010D900020E9F737
:104F20008DB79EB78A1B9B0B9C01245A374E0FB638
:104F3000F8943EBF0FBE2DBF0DB71EB70F5F1F4FBA
:104F4000FF93EF938CEE96E09F938F931F930F93B5
:104F50000F94508E780134E0E30EF11C0F900F9007
:104F60000F900F900F900F90F7018081882349F0E8
:104F7000082E000C990B0F948C9BD7018D937D010B
:104F8000F3CF8091A9119091AA1104971CF4C80144
:104F90000E9468F988EE96E00E9469A50FB6F89421
:104FA000DEBE0FBECDBE0C94575381E080935608F1
:104FB0000C94575381E0809355080C94575340E06C
:104FC00050E062E18AE00E94EEB20C94575340E058
:104FD00050E06CE18AE00E94EEB280E00E9466A59B
:104FE00010926808109267081092660881E080931A
:104FF00069080C9457531092CE101092651CEDED79
:10500000F6E084918F01882351F0082E000C990B53
:105010000F947E310F5F1F4FF8018491F4CF1092EF
:1050200069080E949E7281E00E9466A540E050E0FF
:1050300065E08AE00E94EEB20C94575380917A1199
:1050400090917B11892B29F010927B1110927A118B
:1050500008C080916D0E90916E0E90937B1180939D
:105060007A11109268080C94575380917C1190919A
:105070007D11892B29F010927D1110927C1108C0AE
:1050800080916B0E90916C0E90937D1180937C11AA
:10509000109267080C945753809174119091751178
:1050A000892B29F010927511109274111CC08091F7
:1050B000690E90916A0E6091670E7091680E681784
:1050C00079072CF4BC01990F880B990B04C0072EAB
:1050D000000C880B990B0F94A68E0F94C6967093B4
:1050E000751160937411109266080C94575389EDF2
:1050F00096E00E9469A50C94575340E050E06EE1A1
:105100008AE00E94EEB20C94575340E050E065E014
:105110008AE00E94EEB21092CE101092651CEEEC66
:10512000F6E084918F01882351F0082E000C990B32
:105130000F947E310F5F1F4FF8018491F4CF1092CE
:10514000690888E793E09093100280930F020E9411
:10515000FD8F0C94575340E050E06AE18AE00E94D2
:10516000EEB20F94603280915F18882311F40C9492
:10517000575380916611809367112EE3E22E21E14F
:10518000F22E32E5C32E31E1D32E00E010E047ECE1
:10519000842E46E0942E8091661190E0081719073E
:1051A00094F560E678E187ED98E10F94E63F5701CA
:1051B000D7018D919D917D010E94A1FBF501808118
:1051C0009181D6018D939D936D018091AF188111CE
:1051D00013C0F401849197ECA92E96E0B92E882390
:1051E00079F0082E000C990B0F947E31FFEFAF1A67
:1051F000BF0AF5018491F3CF80E698E10F946B002C
:105200000F5F1F4FC8CF87E090E00E9427AD0C943E
:10521000575380910F02909110028036974041F4CD
:1052200088E793E09093100280930F020E94FD8F15
:1052300040E050E068E08AE00E94EEB281E48093B2
:1052400017118091CE1B8823D1F040E061E081E00E
:105250000F94B1350F944775809117118E3489F4EE
:105260008FEF9FEFDC018093240290932502A0939F
:105270002602B093270210926B080C94535541E01C
:10528000E5CF81E00E9466A51092171184EC96E0AC
:105290000E9469A50F944775809117118E3401F310
:1052A00040E050E06BE08AE00E94EEB20C9457536D
:1052B00040E050E064E08AE00E94EEB20C94575364
:1052C00040E050E064E28AE00E94EEB281E0809328
:1052D000AF0789E4809317111F921F9282E194E037
:1052E0009F938F938E010F5F1F4F1F930F930F9408
:1052F000ED9BB8018EE20E94F6B360916D0E709145
:105300006E0E072E000C880B990B0F94A68E00E0F2
:1053100010E028EC31E440E050E00F948C620E94F1
:10532000FD8F67E174E083ED95E10F94E5786AE124
:1053300074E083ED95E10F94E5786091F20270914D
:10534000F3028091F4029091F50242E050E00F9454
:1053500044016EE174E083ED95E10F94E5782DEB67
:1053600037E346E05EE36091EA027091EB028091E0
:10537000EC029091ED020F941A9642E050E00F94E7
:10538000440162E274E083ED95E10F94E5782DEB42
:1053900037E346E05EE36091E2027091E3028091C0
:1053A000E4029091E5020F949F8942E050E00F944F
:1053B000440160916B0E70916C0E072E000C880BEF
:1053C000990B0F94A68E00E010E028EC31E441E048
:1053D00050E00F948C620E94FD8F67E174E083EDD2
:1053E00095E10F94E5786AE174E083ED95E10F941F
:1053F000E5786091F6027091F7028091F802909141
:10540000F90242E050E00F9444016EE174E083ED54
:1054100095E10F94E5782DEB37E346E05EE360918C
:10542000EE027091EF028091F0029091F1020F94E0
:105430001A9642E050E00F94440162E274E083ED7A
:1054400095E10F94E5782DEB37E346E05EE360915C
:10545000E6027091E7028091E8029091E9020F94D0
:105460009F8942E050E00F944401109217110E946E
:105470009E7240E050E06BE084E10E94EEB240E0BA
:1054800050E065E18AE00E94EEB284E48093281047
:10549000809317110F900F900F900F900F900F9017
:1054A0000C9457531092CE101092651CE9EBF6E065
:1054B00084918F01882351F0082E000C990B0F94D2
:1054C0007E310F5F1F4FF8018491F4CF109269086D
:1054D0000E949E7240E050E065E08AE00E94EEB2D9
:1054E0000C94575382E58093160281E08093AE07B7
:1054F00040E050E06BE581E20E94EEB240E050E017
:105500006CE581E20E94EEB240E050E060E08BE1A9
:105510000E94EEB240E050E06AE781E20E94EEB203
:1055200040E050E069E781E20E94EEB240E050E0E6
:105530006DE18AE00E94EEB28FEF8093AD100C9483
:10554000575340E050E062E18AE00E94EEB240E052
:1055500050E06BE581E20E94EEB240E050E06CE585
:1055600081E20E94EEB240E050E060E08BE10E94F8
:10557000EEB240E050E06AE781E20E94EEB240E025
:1055800050E069E781E20E94EEB21092AE070C94FF
:1055900057531092CE101092651CEEEAF6E08491FB
:1055A0008F01882351F0082E000C990B0F947E3147
:1055B0000F5F1F4FF8018491F4CF1092690840E00B
:1055C00050E065E08AE00E94EEB240E050E06BE51A
:1055D00081E20E94EEB240E050E06CE581E20E9480
:1055E000EEB240E050E060E08BE10E94EEB240E0BD
:1055F00050E06AE781E20E94EEB240E050E069E7E5
:1056000081E20E94EEB21092AE070C94575341E033
:1056100050E06BE581E20E94EEB240E050E06CE5C4
:1056200081E20E94EEB241E050E060E08BE10E9436
:10563000EEB241E050E06AE781E20E94EEB241E062
:1056400050E069E781E20E94EEB21092AD100C9436
:10565000575340E050E06BE581E20E94EEB241E03A
:1056600050E06CE581E20E94EEB241E050E060E083
:105670008BE10E94EEB241E050E06AE781E20E94D5
:10568000EEB241E050E069E781E20E94EEB281E0D3
:105690008093AD100C94575380910F02909110029B
:1056A0008036974041F488E793E09093100280930E
:1056B0000F020E94FD8F0091AD100F3F11F40C946A
:1056C000575301111DC08091D5109091D610609153
:1056D000960770919707681779072CF4BC01990F0A
:1056E000880B990B04C0072E000C880B990B0F94A4
:1056F000A68E0F94C69670937B1160937A1120C08A
:105700008091D9109091DA1060919407709195076B
:10571000681779072CF4BC01990F880B990B04C00A
:10572000072E000C880B990B0F94A68E10E0000F2B
:10573000111F06581E4E0F94C696D8016D937C9388
:1057400081E08093151181E48093171140E050E0CF
:1057500068E08AE00E94EEB28091CE1B882311F0AF
:1057600040E001C041E061E081E00F94B13580E0AC
:1057700090E0A3E4B3E480939D1190939E11A093D5
:105780009F11B093A0118090991090909A10A090C2
:105790009B10B0909C102091991130919A114091DA
:1057A0009B1150919C11609195117091961180916F
:1057B000971190919811E8E86E2EE1E17E2E7F928C
:1057C0006F92F1EACF2EF1E1DF2EE12CF12C03E410
:1057D00013E40E9411E780E090E0A0E2B1E480933E
:1057E000991190939A11A0939B11B0939C11809062
:1057F000951090909610A0909710B0909810E0900F
:105800009D11F0909E1100919F111091A011609137
:1058100095117091961180919711909198117F92A6
:105820006F9220E030E040E251E40E9411E70F94D3
:1058300047750F900F900F900F90809117118E3435
:1058400009F40ECD109217110E949E7260E074E070
:105850008DE20E94F6B340E050E068E28AE00E94E8
:10586000EEB20091AD1010E0F801EE0FFF1FEE0F49
:10587000FF1FED5BF34E60817181828193810F94F4
:10588000C69670935F0860935E08000F111FF801C1
:10589000E658FE4E8081918190935D0880935C086C
:1058A00088E4809317110E949E7264EF71E080E09B
:1058B00090E00F94A62981E0809360080C945753E0
:1058C00080910F02909110028036974041F488E752
:1058D00093E09093100280930F020E94FD8FE0915D
:1058E000AD10EF3F11F40C94575381E080931511E4
:1058F000F0E0EE0FFF1FE658FE4E84E091E091834A
:10590000808381E48093171140E050E068E08AE0F2
:105910000E94EEB28091CE1B882311F040E001C0BE
:1059200041E061E081E00F94B1350F9447758091BB
:1059300017118E3409F494CC80E090E0A3E4B3E432
:1059400080939D1190939E11A0939F11B093A011ED
:105950008090991090909A10A0909B10B0909C10FD
:105960002091991130919A1140919B1150919C1165
:105970006091951170919611809197119091981165
:10598000E8E86E2EE1E17E2E7F926F92F1EACF2E53
:10599000F1E1DF2EE12CF12C03E413E40E9411E786
:1059A0000F9447750F900F90809117118E3409F462
:1059B00057CC80E090E0A0E2B1E4809399119093FD
:1059C0009A11A0939B11B0939C1180909510909088
:1059D0009610A0909710B0909810E0909D11F090C4
:1059E0009E1100919F111091A011609195117091DD
:1059F000961180919711909198117F926F9220E06B
:105A000030E040E251E40E9411E70F9447750F9097
:105A10000F90809117118E3409F422CC8091AD1033
:105A2000811103C080E090E002C081E090E00F941B
:105A30000D5D80E090E0ABE1B3E48093951190932D
:105A40009611A0939711B0939811E0909D11F0904A
:105A50009E1100919F111091A011209199113091E8
:105A60009A1140919B1150919C118DEA90E19F9366
:105A70008F93812C60E8962E6BE3A62E66E4B62EFB
:105A800071EAC72E71E1D72E60E070E08BE193E4FC
:105A90000E9411E70F9447750F900F908091171196
:105AA0008E3409F4DDCB109217110E949E7240E0F3
:105AB00050E065E28AE00E94EEB20C94575381E018
:105AC00080935A08109258081092590810925B0857
:105AD0000C94575310925A0881E080935808109202
