:100000000C94BF160C94F0160C94F0160C94F01689
:100010000C94F0160C94F0160C94F0160C94F01648
:100020000C94F0160C94F0160C94F0160C94F01638
:100030000C94F0160C94F0160C94F0160D94020823
:100040000C94F0160C94F0160C94F0160C94F01618
:100050000C94F0160C94F0160D94F52B0D941527B6
:100060000C94F0160C94DFA60C94B6A60C94F01623
:100070000C94F0160C94F0160C94F0160C94F016E8
:100080000C94ADC20C94F0160C94F0160C94F0166F
:100090000C94F0160C94F0160C94F0160C94F016C8
:1000A0000C94F0160C94F0160C94F0160C94F016B8
:1000B0000C94F0160C94F0160C94F0160C94F016A8
:1000C0000C94F0160C94F0160C94F0160C9481A677
:1000D0000C9458A60C94F0160C94F0160C94F01690
:1000E0000C94F016813039539930762D3953AE2760
:1000F0003953B82739533953313DF72739533953D9
:10010000F826F3263953373E39533953395342428F
:100110004A42C447CC47C34A39539142CF420D4368
:10012000E6436A437E3E703E692DA8433953B327A8
:10013000502739533D2D54405E2DAD473953532D33
:10014000482DB547BD4739538B3052423A39FB40B1
:10015000C0270727FD2639534E37E728AC4A3953C5
:10016000B44A302AD4475A333953E94B0738C84D7B
:10017000BB3324485A42CB4A362923322332D53165
:100180001C348134502A0E282528D4277F2AEE26B5
:100190000227395339533953CB30E52A072B5028DE
:1001A000F63FD33F62426A427142794281428942BC
:1001B0001B4323432B4333433B4343434A43524371
:1001C0005A4362436A44F443E044B1463B46C54562
:1001D0003953BC4AA72A2A2B3E2CCB30E231EA31D4
:1001E0000832A5472B4A514AA04A9D47EA392F2792
:1001F000F2525A3039533953315139539D3F8C3E65
:100200005E35B8351136E9348B35E4353E36C436C3
:100210009836922F7E2F353F832D462E102F472F55
:100220003851A32F49306C36395339533953395328
:1002300039533953395339533953544056285E286A
:1002400084287D52B9523E4A704AD447A04AD34AC4
:10025000D14B3953534DB04DF04C3D4DE94CD54D3C
:100260003953953BC33A7F4F393D103EC24F395306
:100270003953554E9E4EE94E344F4E4EE24D0D4E83
:10028000055006515C52395339531352395339537F
:100290006C5239533E2971794F7A3C7B177B737AC4
:1002A000F27ACD7A9679BB79E079B77BDC7B017CF9
:1002B000267C2A7A057AA87A0302B701D701B3010E
:1002C000CB01DF01C9010702D101E901E701F30117
:1002D000FF010102DF01EF01C1011502CD01BB01E8
:1002E000BF010F02EB01DB011302C301B101ED01FC
:1002F000E301BD011102F101DB01F5010902B901C0
:10030000E1010D02CF01F7010B02FD01F901050228
:10031000D501D301D901084AD73B3BCE016E84BC3D
:10032000BFFDC12F3D6C74319ABD56833DDA3D004F
:10033000C77F11BED9E4BB4C3E916BAAAABE000098
:1003400000803F05A84CCDB2D44EB93836A9020C76
:1003500050B9918688083CA6AAAA2ABE000000804F
:100360003F000D9469260D945A250D9491860D94A5
:1003700067250D94BE260D9436260D9487260D9480
:100380003B260D9495250D9461260D94570F0D94E1
:10039000F8040D946B250D9460250D9431260D9471
:1003A000A82C0D9475250D94FC2C0D94FA2C0D940D
:1003B00056250D94042D0D94C8260D9485880D9412
:1003C0009E250D947F2C0D947D260D94AE880D9462
:1003D0007D250D9479250D944F260D9473260D944B
:1003E00091250D94A0260D9483250D94AA260D9495
:1003F000B52C0D94F62C0D94AF880D94DC2C0D9437
:1004000087250D948B250D9464250D94F82C0D945F
:100410006F250D94B4260D94CF2C0D948C2C0D9437
:1004200045260D9496260D9459260D9499250D94E4
:10043000B60D4E414E494E495459494E46CDCCCC4D
:100440003D0AD7233C17B7D13877CC2B329595E6A8
:10045000241FB14F0A000020410000C84200401C88
:100460004620BCBE4CCA1B0E5AAEC59D746364695F
:100470006E6F70737578585B0047333400494E4691
:100480004F3A204245442043414C4942202D200010
:1004900053757266696E6720300A004732382058FB
:1004A0003020593000543000543100543000543062
:1004B0000053757266696E6720300A004734330056
:1004C0004734330047343100473430004734330079
:1004D0004734330047343100473430004D3834005E
:1004E0004D3834004D3834005A32204F66667365FB
:1004F000743A20004F4B207365636F6E642045781B
:1005000074727564657221005A20706F7369746922
:100510006F6E3A20005A20706F736974696F6E3A7B
:1005200020004D3834005A312050726F6265206FC0
:1005300066667365743A20004F4B20666972737467
:1005400020457874727564657221200A005A207003
:100550006F736974696F6E3A20005A20706F736907
:1005600074696F6E3A200043616C63756C75733A01
:1005700020200043616C63756C75733A2020004342
:10058000616C63756C75733A20200043616C637510
:100590006C75733A20200054300054300054300001
:1005A00043616C6962726174696F6E205375636335
:1005B00065737366756C0A005430004A756D70205F
:1005C0006F7665722073637265773120616E642087
:1005D000736372657732200A004A756D70206F76FA
:1005E000657220736372657731200A0047333400E7
:1005F0004733340047333400543000473334004924
:100600004E464F3A204245442043414C4942202D1A
:10061000200036302064656772656573200A004CDF
:100620006F6164696E670A0053757266696E672050
:10063000300A0053757266696E6720300A00537580
:100640007266696E6720300A002533642025634393
:10065000002533642025634300253364202563434C
:100660000050757267652046696C616D656E740A2D
:10067000002533642025634300253364202563432C
:10068000002533642025634300253364202563431C
:10069000002533642025634300253364202563430C
:1006A00000253364202563430025336420256343FC
:1006B0000053757266696E6720300A005375726662
:1006C000696E6720300A00543000466F756E640012
:1006D00053757266696E6720300A004D33340053DB
:1006E000757266696E6720300A004D3234004D32F3
:1006F000332025730053757266696E6720300A00D7
:1007000053757266696E6720300A005375726669A8
:100710006E6720300A00535543434553530A002562
:10072000336420256343002533642025634300257B
:10073000336420256343002533642025634300256B
:10074000336420256343002533642025634300255B
:10075000336420256343002533642025634300254B
:10076000336420256343004C6F6164696E673A0A05
:10077000002533642025634300253364202563432B
:100780000025336420256343005075726765204659
:10079000696C616D656E74200A00457874727564C9
:1007A00065722072656C656173656420616374694C
:1007B00076653A20005A205349474D4120486F6DD5
:1007C000656400457874727564657220616374694C
:1007D00076653A20005374617274696E67205A20FE
:1007E00043616C6962726174696F6E2057697A61E6
:1007F00072640047363920414354495641544544B8
:10080000002E0044656C6574696F6E206661696CCA
:1008100065642C2046696C653A200046696C652049
:1008200064656C657465643A002E006F70656E20B7
:100830006661696C65642C2046696C653A200047E6
:1008400032382058302059300042656420486561B4
:100850007465640020423A0020453A00543A00464C
:1008600049524D574152455F4E414D453A4D617297
:100870006C696E2042434E3344205369676D613B7F
:10088000204649524D574152455F56455253494FB4
:100890004E3A30312D312E322E3752433B204649CD
:1008A000524D574152455F55524C3A6874747073BB
:1008B0003A2F2F6769746875622E636F6D2F4243FC
:1008C0004E33442F42434E33445369676D612D4686
:1008D00069726D776172653B2050524F544F434FA0
:1008E0004C5F56455253494F4E3A312E303B204DC6
:1008F000414348494E455F545950453A42434E336F
:1009000044205369676D613B204558545255444516
:10091000525F434F554E543A323B20555549443A65
:1009200000205A3A0020593A0020436F756E742017
:10093000583A200020453A00205A3A0020593A00FF
:10094000583A007A5F6D696E3A2000795F6D617880
:100950003A2000785F6D61783A2000785F6D696EAB
:100960003A200054696D6520696E6163746976652B
:100970000050757267652064697374616E63650009
:10098000504F534954494F4E20484F4D453A20004F
:100990002200556E6B6E6F776E20636F6D6D616EAA
:1009A000643A20220067636F646520666F756E6429
:1009B0000020746F20537461727420446973706CEA
:1009C00061792066726F6D20526573657400546F93
:1009D0006F6B2000646973706C6179206F6E6C6955
:1009E0006E6521002E00466F726D20322100526527
:1009F00061647920746F204C6F61642F556E6C6F49
:100A00006164200A002564252500253364202563C0
:100A10004300253364202563430025336425634365
:100A2000202F202533642563430025336425634349
:100A3000202F202533642563430025336425634339
:100A4000202F20253364256343005072696E742083
:100A50004A6F622046696E6973686564004D383478
:100A600020582059205A2045004D3130370054304D
:100A70000053757266696E672030200A0043616C0E
:100A80006962726174696F6E205375636365737315
:100A900066756C0A005430004D38342058205920B7
:100AA0005A204500436F6F6C696E6720446F776E04
:100AB00020486561746572005072696E74657220B9
:100AC00068616C7465642E206B696C6C28292063E6
:100AD000616C6C656421004572726F723A004578F2
:100AE0007472756465722072656C656173656420EB
:100AF0006163746976653A20005A205349474D4135
:100B000020486F6D65640045787472756465722065
:100B10006163746976653A20000A0020616E746929
:100B2000686F726172690A3A200020686F726172A0
:100B3000690A20002F3800766F6C746573200020DE
:100B4000566F6C74657320636172676F6C20333A03
:100B5000200020616E7469686F726172690A3A20C0
:100B60000020686F726172690A20002F3800766F6A
:100B70006C746573200020566F6C7465732063611C
:100B800072676F6C20323A20000A0020647A333A90
:100B9000200020647A323A2000543100543000544E
:100BA00030005430000056756974656E73333A2016
:100BB00020004170726F78333A202000566F6C74B9
:100BC0006573333A2020000056756974656E733280
:100BD0003A2020004170726F78323A202000566F20
:100BE0006C746573323A20200056616C6F72206419
:100BF0005A333A20200056616C6F7220645A323AA0
:100C00002020004E6577206F6666736574207665D8
:100C10007273696F6E3A20007A335F313A20007A3E
:100C2000325F313A20005A7363726F6C6C5F313AF5
:100C300020007A335F303A20007A325F303A200069
:100C40005A7363726F6C6C5F303A2000706C616E27
:100C5000654E6F726D616C5F312E7A3A2000706C58
:100C6000616E654E6F726D616C5F312E793A200056
:100C7000706C616E654E6F726D616C5F312E783A8B
:100C80002000706C616E654E6F726D616C5F302E0E
:100C90007A3A2000706C616E654E6F726D616C5FA8
:100CA000302E793A2000706C616E654E6F726D6106
:100CB0006C5F302E783A20005A76616C7565206141
:100CC0006674657220686F6D653A00486F6D6520C7
:100CD000582F59206265666F7265205A000A0020FD
:100CE0005A3A200020593A200020583A2000426504
:100CF0006400000020002300260029002C002F00A3
:100D00003200000100000301060109010505050587
:100D1000070508080808020202020A0A0808040473
:100D200004040101010101010101030303030303A1
:100D30000303040707070C0C0C0C0C0C0C0C020230
:100D4000020206060606060606060B0B0B0B0B0B2D
:100D50000B0B0102102020080810204010204080BA
:100D6000020102010804020101020408102040806F
:100D700080402010080402018004020180402010FD
:100D80000804020108040201010204081020408046
:100D9000010204081020408000000A0B02090C0D1B
:100DA0000E0807030401000000000000000000001E
:100DB0000000000000000000000000000000000033
:100DC00000000000121110000000000000000000F0
:100DD0000000000000000000000000000000202DC6
:100DE00020496E76616C69642065787472756465FB
:100DF00072206E756D6265722021004572726F728D
:100E00003A00646973706C6179206F66666C696E14
:100E1000650042434E3344205369676D610073742B
:100E2000617274006563686F3A0030312D312E3283
:100E30002E375243006572726F722077726974693F
:100E40006E6720746F2066696C6500205A3A002036
:100E5000593A0020583A00656E6473746F707320BD
:100E60006869743A20006563686F3A00446F6E6584
:100E700020736176696E672066696C652E006F6B02
:100E8000004D3239003B202020506C61737469633F
:100E9000207765696768743A2025642E25646700A9
:100EA0003B46696C616D656E7420757365643A20AC
:100EB00025642E25646D2025642E256467003B463D
:100EC000696C616D656E7420757365643A20256C7C
:100ED000642E256C646D002E2E2E2054696D656F76
:100EE000757421002A2A2A2047656E696520577289
:100EF0006974654F626A656374202A2A2A202D2D41
:100F00002D3E002E2E2E204E414B2021002A2A2A33
:100F10002047656E69652057726974654F626A651E
:100F20006374202A2A2A202D2D2D3E002E2E2E20BD
:100F300041434B2021002A2A2A2047656E696520FB
:100F400057726974654F626A656374202A2A2A2081
:100F50002D2D2D3E002A2A2A2047656E69652042E4
:100F600061642042797465202A2A2A202D2D2D3E85
:100F7000203078002056616C75653A200020496E5B
:100F80006465783A20002A2A2A2047656E69652020
:100F90005265706F7274204F626A656374202A2AEA
:100FA0002A204F626A6563743A20002A2A2A204761
:100FB000656E696520436F6E6E6563746564202F8E
:100FC0002053796E6321202A2A2A002056616C75ED
:100FD000653A200020496E6465783A20002A2A2A62
:100FE0002047656E6965205265706F727420457682
:100FF000656E74202A2A2A204F626A6563743A203B
:1010000000204C656E6774683A20002A2A2A20471F
:10101000656E6965205265636569766564204D611A
:1010200067696320446F75626C65204279746573EB
:10103000202A2A2A20496E6465783A2000204C65CF
:101040006E6774683A20002A2A2A2047656E69650F
:10105000205265636569766564204D616769632028
:101060004279746573202A2A2A20496E6465783A89
:1010700020002A2A2A2047656E6965204E414B20B0
:101080005265636F7665727920212121202A2A2AF0
:10109000002A2A2A2047656E696520446973636FB8
:1010A0006E6E65637465642066726F6D20446F4573
:1010B00076656E747321202A2A2A002A2A2A20475C
:1010C000656E696520546F6F6B20746F6F206C6F55
:1010D0006E6720746F2072652D656E746572204492
:1010E0006F4576656E747328292C2072656475636C
:1010F000652064656C61797320696E20636F646537
:101100002C2073656C662D70726F74656374696FE3
:101110006E20656E61626C65642E202A2A2A005357
:1011200041564544205052494E54007A70726F62C5
:10113000653A200053442063617264206F6B006F36
:1011400070656E526F6F74206661696C65640076BD
:101150006F6C756D652E696E6974206661696C656A
:1011600064004572726F723A00534420696E69746C
:10117000206661696C006563686F3A004D32340027
:101180004D3233202573006175746F25692E670019
:1011900053657474696E67732053746F726564006D
:1011A000204D696E75746573203A0020204C617380
:1011B00074207072696E742074696D652D3E2048CC
:1011C0006F757273203A004C617374207072696E8F
:1011D00074206475726174696F6E002C20546869A4
:1011E0007264204944206E756D62657220002C2067
:1011F0005365636F6E64204944206E756D6265723D
:101200003A200020204669727374204944206E758C
:101210006D6265723A2000554920496E666F726DA5
:101220006174696F6E2053657269616C204E756DD3
:101230006265723A00206D2C204531207072696E13
:10124000742064697374616E63653A2000206B6D6D
:101250002C204530207072696E742064697374614B
:101260006E63653A2000206B6D2C205920707269E6
:101270006E742064697374616E63653A2000206B3C
:101280006D2C205831207072696E742064697374FB
:10129000616E63653A200020432C0A20583020708C
:1012A00072696E742064697374616E63653A2000BC
:1012B00020432C206D61782074656D7020423A20A7
:1012C0000020432C206D61782074656D7020523AA7
:1012D00020002C206D61782074656D70204C3A20C0
:1012E00000682C207072696E74732066696E697371
:1012F0006865643A20002C207072696E74696E67AC
:101300002074696D653A200020207072696E7473D4
:101310003A200053544154533A0020432C20525F4A
:101320005052494E543A200020432C20525F4245EF
:10133000443A200020432C20525F52454D4F5645E1
:101340003A20002020525F494E534552543A200023
:1013500054656D70202843293A0020432C204C5FAF
:101360005052494E543A200020432C204C5F4245B5
:10137000443A200020432C204C5F52454D4F5645A7
:101380003A200020204C5F494E534552543A2000E9
:1013900054656D70202843293A00205628566572FE
:1013A00073696F6E2920002052284265642072699B
:1013B00067687420736372657729200020204D359B
:1013C0003331204C28426564206C65667420736359
:1013D000726577292000426564204F6666736574E4
:1013E0007320286D6D293A002050285A2070726FA2
:1013F00062652900205A20002059200020204D3508
:101400003330205820004F66667365747320286D52
:101410006D293A00204400204900202D204D333012
:1014200031205249474854205000204400204900B0
:1014300020204D333031204C454654205000504937
:10144000442073657474696E67733A00205A0020F3
:10145000590020204D323036205800486F6D6520ED
:101460006F666673657420286D6D293A002045000B
:10147000205A0020580020420020540020204D32E5
:101480003035205300416476616E63656420766177
:10149000726961626C65733A20533D4D696E2066D6
:1014A0006565647261746520286D6D2F73292C2029
:1014B000543D4D696E2074726176656C2066656579
:1014C000647261746520286D6D2F73292C20423D54
:1014D0006D696E696D756D207365676D656E7420DD
:1014E00074696D6520286D73292C20583D6D6178D5
:1014F000696D756D205859206A65726B20286D6D75
:101500002F73292C20205A3D6D6178696D756D20EF
:101510005A206A65726B20286D6D2F73292C20204C
:10152000453D6D6178696D756D2045206A65726B0A
:1015300020286D6D2F73290020540020204D32305B
:1015400034205300416363656C65726174696F6E2A
:101550003A20533D616363656C65726174696F6EB7
:101560002C20543D726574726163742061636365FD
:101570006C65726174696F6E00204500205A00200E
:10158000590020204D3230312058004D6178696D6E
:10159000756D20416363656C65726174696F6E205F
:1015A000286D6D2F7332293A00204500205A002003
:1015B000590020204D3230332058004D6178696D3C
:1015C000756D2066656564726174657320286D6D44
:1015D0002F73293A00204500205A0020590020206E
:1015E0004D39322058005374657073207065722035
:1015F000756E69743A0024F4D43050C38E20C2A2B0
:101600004017828B7011127A910D816CD90AA861F2
:10161000E108C7586607615143061E4B5D05C14589
:10162000A7041A411104093D98037139310340366A
:10163000DB0265339102D4305402802E1D02632CEC
:10164000EE01752AC501B028A001102781018F2560
:1016500064012B244B01E0223401AC211F018D20B9
:101660000D01801FFC00841EED00971DDF00B81CDB
:10167000D200E61BC600201BBC00641AB200B219DF
:10168000A8000A19A0006A189900D1179100401704
:101690008B00B516840031167E00B31579003A151B
:1016A0007300C7146F0058146A00EE1366008813A5
:1016B000630025135E00C7125B006C125700151201
:1016C0005400C111510070114F0021114B00D61070
:1016D00049008D1047004610440002104200C00F20
:1016E0004000800F3E00420F3C00060F3B00CB0E37
:1016F0003800930E37005C0E3500270E3400F30DD2
:101700003200C10D3100900D3000600D2E00320D01
:101710002D00050D2C00D90C2B00AE0C2900850CDA
:1017200029005C0C2700350C27000E0C2600E80B66
:101730002400C40B2400A00B23007D0B23005A0BB4
:101740002100390B2100180B2000F80A1F00D90ACC
:101750001E00BB0A1E009D0A1D00800A1D00630AB0
:101760001C00470A1B002C0A1B00110A1A00F7096B
:101770001A00DD091900C4091900AB091900920902
:1017800017007B091800630917004C091600360979
:101790001600200916000A091500F5081500E008D2
:1017A0001400CC081400B8081400A4081400900811
:1017B00013007D0812006B08130058081200460839
:1017C000120034081100230811001208110001084A
:1017D0001100F0071000E0071000D0071000C0074C
:1017E0001000B0070F00A107100091070E0083073B
:1017F0000F0074070F0065070E0057070E0049071A
:101800000E003B070D002E070E0020070D001307EA
:101810000D0006070D00F9060C00ED060D00E006B0
:101820000C00D4060C00C8060C00BC060C00B00668
:101830000C00A4060B0099060C008D060B00820616
:101840000B0077060B006C060B0061060A005706BA
:101850000B004C060A0042060A0038060A002E0653
:101860000A0024060A001A060A00100609000706E4
:101870000A00FD050900F4050900EB050900E20571
:101880000900D9050900D0050900C7050900BE05F2
:101890000900B5050800AD050800A50509009C056F
:1018A0000800940508008C050800840508007C05E4
:1018B0000800740508006C050700650508005D0553
:1018C0000700560508004E050700470507004005BC
:1018D000080038050700310507002A050700230521
:1018E00007001C050600160507000F050700080580
:1018F000060002050700FB040600F5040700EE04DD
:101900000600E8040600E2040700DB040600D50434
:101910000600CF040600C9040600C3040600BD0487
:101920000600B7040600B1040500AC040600A604D6
:101930000600A00405009B04060095040500900421
:1019400006008A04050085040500800406007A0468
:10195000050075040500700405006B0405006604AD
:101960000500610405005C040500570405005204ED
:1019700005004D04050048040500430405003E042D
:1019800004003A04050035040500300404002C046A
:10199000050027040400230405001E0404001A04A3
:1019A000040016040500110404000D0404000904D9
:1019B00005000404040000040400FC030400F80310
:1019C0000400F4030400F0030400EC030400E80343
:1019D0000400E4030400E0030400DC030400D80373
:1019E0000400D4030400D0030400CC030400C803A3
:1019F0000300C503030024F404D9201BC40C5C0EAF
:101A00009804C4095F0265077101F405F900FB043D
:101A1000B30048048700C10369005803550003035D
:101A20004500BE023A008402310053022A00290216
:101A3000250004022000E4011C00C8011900AF01C8
:101A40001700980114008401130071011000610156
:101A5000100051010E0043010D0036010B002B0157
:101A60000B0020010B00150109000C010900030106
:101A70000800FB000800F3000800EB000700E4008A
:101A80000600DE000600D8000600D2000600CC00EA
:101A90000500C7000500C2000500BD000400B90034
:101AA0000400B5000400B1000400AD000400A9006A
:101AB0000400A5000300A20003009F0004009B0097
:101AC00003009800030095000200930003009000BB
:101AD00003008D0002008B000300880002008600D6
:101AE000020084000300810002007F0002007D00EC
:101AF00002007B00020079000200770001007600FE
:101B000002007400020072000100710002006F0008
:101B100002006D0001006C0002006A000100690013
:101B2000020067000100660001006500010064001A
:101B300002006200010061000100600001005F001E
:101B400002005D0001005C0001005B0001005A0022
:101B50000100590001005800010057000100560023
:101B60000100550001005400010053000000530023
:101B700001005200010051000100500001004F001F
:101B800001004E0000004E0001004D0001004C001D
:101B900001004B0000004B0001004A000100490019
:101BA0000100480000004800010047000100460015
:101BB000000046000100450000004500010044000F
:101BC0000100430000004300010042000000420009
:101BD00001004100000041000100400001003F0001
:101BE00000003F0001003E0000003E0001003D00FB
:101BF00000003D0001003C0000003C0000003C00F3
:101C000001003B0000003B0001003A0000003A00E8
:101C100001003900000039000100380000003800E0
:101C200000003800010037000000370001003600D6
:101C300000003600000036000100350000003500CD
:101C400000003500010034000000340000003400C2
:101C500001003300000033000000330001003200B7
:101C600000003200000032000100310000003100AD
:101C700000003100010030000000300000003000A2
:101C800001002F0000002F0000002F0000002F0097
:101C900001002E0000002E0000002E0001002D008B
:101CA00000002D0000002D0000002D0001002C0080
:101CB00000002C0000002C0000002C0001002B0074
:101CC00000002B0000002B0000002B0001002A0068
:101CD00000002A0000002A0000002A00010029005C
:101CE0000000290000002900000029000000290050
:101CF0000100280000002800000028000000280043
:101D00000000280001002700000027000000270035
:101D10000000270000002700010026000000260028
:101D2000000026000000260000002600010025001B
:101D3000000025000000250000002500000025000F
:101D40000000250001002400000024000000240001
:101D500000002400000024000100230000002300F4
:101D600000002300000023000000230000002300E7
:101D700000002300010022000000220000002200D9
:101D800000002200000022000000220001002100CB
:101D900000002100000021000000210000002100BF
:101DA00000002100000021000100200000002000B0
:101DB00000002000000020000000200000002000A3
:101DC000000020000000200001001F0000001F0094
:101DD00000001F0000001F0000001F0000001F0087
:101DE00000001F0001001E0000001E0000001E0079
:101DF00000001E0000000A00207A3A200020793AF4
:101E0000200020783A2000426564004D38340053A9
:101E100074617274696E6720582043616C696272E4
:101E20006174696F6E2057697A617264004D38344D
:101E3000005374617274696E6720592043616C6944
:101E400062726174696F6E2057697A6172640022F0
:101E500000656E717565696E6720220000000000E4
:101E600000809343000000000000A0400000A0405C
:101E70000000004020004D6F766520746F3A20000E
:101E8000CDCC98430080934300005243FF01FF20D4
:101E9000636F6C6420657874727573696F6E2070FF
:101EA000726576656E746564006563686F3A0025D7
:101EB00069206D696E2C20256920736563000A0A0C
:101EC000005374616E646172642044657669617464
:101ED000696F6E3A20000A004D65616E3A20000A73
:101EE000002020207A3A200000793A2000783A2019
:101EF000003F537065636966696564206E756D6245
:101F00006572206F66206C65677320696E206D6F47
:101F100076656D656E74206E6F7420706C6175737C
:101F200061626C652E0A003F53706563696669657E
:101F300064205920706F736974696F6E206F7574B7
:101F4000206F662072616E67652E0A003F537065D0
:101F5000636966696564205820706F736974696F7E
:101F60006E206F7574206F662072616E67652E0A31
:101F7000003F5370656369666965642073616D70C5
:101F80006C652073697A65206E6F7420706C617562
:101F90007361626C652E0A0046756C6C20737570F7
:101FA000706F72742061743A20687474703A2F2FC5
:101FB00033647072696E74626F6172642E636F6DE8
:101FC0002F666F72756D2E7068700A004D34382060
:101FD0005A2D50726F62652052657065617461623E
:101FE000696C69747920746573742E20202056659D
:101FF0007273696F6E20322E30300A003F56657260
:10200000626F7365204C6576656C206E6F7420700E
:102010006C61757361626C652E0A002042403A0063
:1020200020403A00202F003A00205400202F0020AA
:10203000423A00202F006F6B20543A0045787472AA
:1020400075646572204865617465640020573A00C4
:1020500020453A00543A0043616C63756C75733ADD
:1020600020200043616C63756C75733A2020004337
:10207000616C63756C75733A2020002533642025EC
:102080006343002533642025634300507572676500
:102090002046696C616D656E740A005375726669DD
:1020A0006E6720310A0053757266696E6720300AC8
:1020B000002200656E717565696E672022005049C7
:1020C00044204175746F74756E652066696E69731E
:1020D0006865642100504944204175746F74756EC1
:1020E00065206661696C6564212074696D656F7532
:1020F000740020403A006F6B20543A006F6B20420E
:102100003A00504944204175746F74756E652066BD
:1021100061696C6564212054656D706572617475C8
:10212000726520746F6F206869676800204B643A9D
:102130002000204B693A2000204B703A20002043B9
:102140006C61737369632050494420002054753AD0
:102150002000204B753A2000206D61783A20002045
:102160006D696E3A200020643A2000206269617334
:102170003A20003B20472D436F64652067656E65FC
:1021800072617465642062792053696D706C696650
:102190007933442852292056657273696F6E202561
:1021A00064003B5072696E742074696D653A202535
:1021B0006420257320256420257320256420257341
:1021C000003B54494D453A256C64003B2020204299
:1021D00075696C642074696D653A202564202573E7
:1021E0002025642025730025203364202525002523
:1021F000642068202564206D002520336420252577
:102200000025326420256343002533642025634381
:10221000002533642025634300526561647920748E
:102220006F204C6F61642F556E6C6F6164200A00E3
:102230002564252500253364202563430025336468
:1022400020256343002053544F50205052494E5490
:10225000200A00473238205830205930004D33359D
:1022600000526573756D652064657465637465649B
:10227000200A0047373000A1524553554D452120D3
:102280000A00A1504155534521200A0025336420FE
:1022900025634300253364202563430025336420F0
:1022A00025634300253364202563430025336420E0
:1022B00025634300253364202563430025336420D0
:1022C00025634300253364202563430025336420C0
:1022D000256343005052494E542053455454494EAF
:1022E0004753200A0070012C0190012701B0012200
:1022F00001C0011D01F00118011002130130020E8E
:10230000016002090190020401C002FF000003FA0B
:10231000004003F5008003F000D003EB002004E64A
:10232000007004E100E004DC004005D700C005D2E5
:10233000004006CD00D006C8008007C3003008BEAC
:1023400000F008B900C009B400B00AAF00B00BAA91
:1023500000D00CA500000EA000500F9B00C01096EE
:10236000005012910000148C00C0158700B0178235
:1023700000B0197D00D01B7800001E730040206E55
:102380000090226900F024640040275F0090295AE1
:1023900000E02B5500102E500020304B001032462C
:1023A00000E033410090353C001037370070383280
:1023B00000A0392D00B03A2800A03B2300603C1E4D
:1023C00000103D1900903D1400103E0F00703E0AB1
:1023D00000C03E0500003F00004572726F72283851
:1023E00033293A2042656420746865726D6973749C
:1023F0006F72206E6F742064657465637465640029
:102400004572726F72283832293A205269676874AF
:1024100020746865726D6973746F72206E6F7420BA
:102420006465746563746564004572726F72283800
:1024300031293A204C65667420746865726D697341
:10244000746F72206E6F74202064657465637465A8
:1024500064002053544F50205052494E54200A00DB
:102460004572726F72283833293A204265642074AD
:102470006865726D6973746F72206E6F7420646525
:10248000746563746564002053544F502050524962
:102490004E54200A004572726F72283832293A2051
:1024A000526967687420746865726D6973746F72BD
:1024B000206E6F74206465746563746564002053D6
:1024C000544F50205052494E54200A004572726FAA
:1024D00072283831293A204C656674207468657218
:1024E0006D6973746F72206E6F74202064657465FB
:1024F000637465640000002100240027002A002D79
:10250000003000330001010000040107010A01004E
:10251000002200250028002B002E0031003400028C
:10252000010000050108010B015355434345535376
:102530000056616C756573206F7574206F6620722C
:10254000616E67650056616C756573206F757420E8
:102550006F662072616E67650056616C75657320E9
:102560006F7574206F662072616E67650056616CCE
:10257000756573206F7574206F662072616E676574
:1025800000535543434553530056616C75657320A2
:102590006F7574206F662072616E67650056616C9E
:1025A000756573206F7574206F662072616E676544
:1025B0000056616C756573206F7574206F662072AC
:1025C000616E67650056616C756573206F75742068
:1025D0006F662072616E67650020502000205A20CF
:1025E0000020592000536574204D35333020582089
:1025F000004D6F64652032203A206379636C65205A
:1026000020202D3E205247423A20362073746174B8
:102610006573002A2A2D3E20004D6F64652031200D
:102620003A2072616E646F6D20202D3E2052474229
:102630003A202B31202B32202B332C2064757269E9
:102640006E67207072696E74696E67002A2A2D3E6B
:1026500020004D6F64652030203A20646566617506
:102660006C74202D3E205247423A203235352032BC
:10267000353520323535002A2A2D3E20004C656440
:10268000206D6F646573203A004D353336204C5B06
:102690006D6F64655D00486F74656E64206F66667B
:1026A000736574733A005A204F6666736574206FC1
:1026B0006B005A204F6666736574203A20007A5F7B
:1026C0006D61783A20007A5F6D696E3A20005A2079
:1026D0004F666673657400504F534954494F4E20FE
:1026E000484F4D453A20007C3C3E5E2B3D3F2F5BE2
:1026F0005D3B2C2A225C00504944204175746F7464
:10270000756E652066696E69736865642120507511
:102710007420746865206C617374204B702C204B9E
:102720006920616E64204B6420636F6E7374616E08
:1027300074732066726F6D2061626F766520696EBA
:10274000746F20436F6E66696775726174696F6E2E
:102750002E6800504944204175746F74756E652071
:102760006661696C6564212074696D656F757400BC
:1027700020403A006F6B20543A006F6B20423A00C1
:10278000504944204175746F74756E6520666169A7
:102790006C6564212054656D706572617475726535
:1027A00020746F6F206869676800204B643A2000CE
:1027B000204B693A2000204B703A200020436C6186
:1027C000737369632050494420002054753A2000F7
:1027D000204B753A2000206D61783A2000206D6909
:1027E0006E3A200020643A200020626961733A202A
:1027F000005354415449535449435320524553457F
:1028000054002C2073617665645F466C61675F6677
:10281000616E6C617965725F6D6972726F723A2078
:10282000002C2073617665645F666565647261740F
:10283000653A20002C2073617665645F66616E6C7A
:10284000617965723A20002C2073617665645F744B
:10285000656D706265643A20002C20736176656452
:102860005F74656D70303A20002C2073617665646A
:102870005F74656D70313A20002C20736176656459
:102880005F66696C65706F736974696F6E3A20007A
:102890002C2073617665645F655F706F736974691E
:1028A0006F6E3A20002C2073617665645F746F6FE1
:1028B0006C5F6163746976653A20002C20736176E1
:1028C00065645F7A5F706F736974696F6E3A200038
:1028D0002C2073617665645F795F706F73697469CA
:1028E0006F6E3A20002C2073617665645F785F70AC
:1028F0006F736974696F6E3A2000534156452050DA
:1029000052494E54204C4F473A006563686F3A0075
:102910005072696E74207265636F76657279207586
:1029200070004E6F74207072696E74207265636FF0
:1029300076657279207570002A2A2A2047656E69AB
:102940006520446973636F6E6E65637465642066A9
:10295000726F6D204765744E657874427974652195
:10296000202A2A2A002A2A2A2047656E69652045DE
:102970006E61626C65204174746163684576656E52
:102980007448616E646C657220212121202A2A2AF4
:102990000043616E6E6F7420656E7465722073758E
:1029A000626469723A200057726974696E672074B4
:1029B0006F2066696C653A20002E006F70656E208E
:1029C0006661696C65642C2046696C653A20002E4E
:1029D000006F70656E206661696C65642C204669C5
:1029E0006C653A200046696C652073656C6563749C
:1029F0006564002053697A653A200046696C652059
:102A00006F70656E65643A20002E006F70656E20F1
:102A10006661696C65642C2046696C653A20004EDD
:102A20006F772066726573682066696C653A20006E
:102A30004E6F7720646F696E672066696C653A2017
:102A4000002220706F73002220706172656E743AEC
:102A50002200535542524F5554494E452043414C54
:102A60004C207461726765743A2200747279696EE1
:102A70006720746F2063616C6C207375622D6763CF
:102A80006F64652066696C6573207769746820746B
:102A90006F6F206D616E79206C6576656C732E208A
:102AA0004D4158206C6576656C2069733A00456E1F
:102AB000642066696C65206C69737400426567699F
:102AC0006E2066696C65206C697374004361726482
:102AD000204E616D653A20002F00534420707269CA
:102AE0006E74696E67206279746520004E6F742081
:102AF0005344207072696E74696E67004D313037CF
:102B000000256920686F757273202569206D696ED4
:102B10007574657300446F6E65207072696E7469B8
:102B20006E672066696C65004D33330070617573A4
:102B300065206465746563746564200A00473639EE
:102B4000005072696E7465722073746F7070656482
:102B50002064756520746F206572726F72732E2009
:102B600046697820746865206572726F7220616EA4
:102B70006420757365204D39393920746F20726572
:102B800073746172742E202854656D70657261745F
:102B90007572652069732072657365742E205365A4
:102BA0007420697420616674657220726573746143
:102BB0007274696E6729006F6B004E6F204C696EEE
:102BC00065204E756D626572207769746820636850
:102BD00065636B73756D2C204C617374204C696E4A
:102BE000653A20004E6F20436865636B73756D20F6
:102BF00077697468206C696E65206E756D626572A8
:102C00002C204C617374204C696E653A2000636817
:102C100065636B73756D206D69736D617463682C8A
:102C2000204C617374204C696E653A20004C696ECB
:102C300065204E756D626572206973206E6F742019
:102C40004C617374204C696E65204E756D626572BF
:102C50002B312C204C617374204C696E653A200036
:102C60004D31313000CDCC98430080934300005269
:102C700043000000000000000000000000204500AC
:102C8000205A00205900483D5800486F74656E6412
:102C9000206F6666736574733A0048797374657261
:102CA000657369732074656D7065726174757265A2
:102CB00000546865726D616C2072756E6177617920
:102CC0002070726F74656374696F6E20627920483A
:102CD00065617465725F49443A0053746F7265644C
:102CE0002073657474696E677320726574726965A8
:102CF0007665640048617264636F6465642044654E
:102D00006661756C742053657474696E6773204CCA
:102D10006F616465640048617264636F6465642018
:102D200043616C696220616E6420504944204465AF
:102D30006661756C742053657474696E6773204C9A
:102D40006F6164656400526573656E643A20006F5C
:102D50006B004475616C204D6F6465204F464600E2
:102D60002564206974656D73002534643A252E321C
:102D70006468202F202564670000B501DD0111245F
:102D80001FBECFEFD1E2DEBFCDBF00E00CBF17E02A
:102D9000A0E0B2E0E0E5F9E303E00BBF02C007907A
:102DA0000D92AC38B107D9F72CE1ACE8B7E001C01F
:102DB0001D92AF3CB207E1F716E1CEEBD6E100E0A1
:102DC00006C021970109802FFE010F940B9ACD3B7D
:102DD000D10780E00807A9F70F94C47F0D94979C52
:102DE0000C9400002F923F924F925F926F927F92CD
:102DF0008F929F92AF92BF92CF92DF92EF92FF920B
:102E00000F931F93CF93DF93CDB7DEB7C153D1405C
:102E10000FB6F894DEBF0FBECDBF2DB63EB611E0A3
:102E200010933B088091C20781110CC00F940927B1
:102E30006093BE077093BF078093C0079093C1074C
:102E40001093C2078091B60781110DC00F94092716
:102E50006093B2077093B3078093B4079093B5075C
:102E600081E08093B6078091271240919A02509199
:102E70009B0260919C0270919D02811106C090910D
:102E80002812992311F40C94B5244E38510561058C
:102E9000710509F45FC60CF0D5C04D3351056105CD
:102EA000710509F4D2C10CF05AC0403251056105D8
:102EB000710511F40C94AE2234F5403151056105D1
:102EC000710509F473C174F4413051056105710550
:102ED00009F4A6C1423051056105710509F42FC3FB
:102EE0000C943953423151056105710509F442C210
:102EF00014F40C940D22433151056105710509F458
:102F00000BC20C943953423351056105710509F424
:102F100016C37CF4413251056105710511F40C941E
:102F20009D22413351056105710509F4D7C10C9407
:102F30003953453351056105710511F40C9466232D
:102F40004A3351056105710509F4FBC74433510546
:102F50006105710511F00C9439530C945E214835CC
:102F600051056105710509F49AC154F546345105BE
:102F70006105710509F488C47CF44134510561058B
:102F8000710509F40EC4443451056105710511F44D
:102F90000C9419200C9439534F3451056105710577
:102FA00009F45CC5473551056105710509F4C4C1D3
:102FB0004E3451056105710511F00C943953D7C495
:102FC0004B3751056105710509F4DFC274F44A35C8
:102FD00051056105710509F4D8C2463751056105EF
:102FE000710509F4D6C10C9439534838510561056F
:102FF000710509F4E5C0493851056105710509F409
:10300000EAC04C3751056105710511F00C94395334
:1030100040E050E06AE28AE00E9443AC40E050E0C9
:103020006DE781E20E9443AC11E01093161C1092F0
:10303000301C6AED77E086E20E944BAD1093D90711
:103040000C9439534D3951056105710511F40C94F7
:1030500005230CF04FC0453951056105710509F490
:10306000E0C6F4F4413951056105710509F46AC5FA
:1030700074F44F3851056105710509F4C4C5403930
:1030800051056105710509F419C60C94395343398A
:1030900051056105710509F4E3C50CF487C53AC60D
:1030A000483951056105710511F40C943B237CF4FA
:1030B000463951056105710509F486C64739510540
:1030C0006105710511F40C944C230C9439534B3960
:1030D00051056105710511F40C94C52214F00C948E
:1030E000CE224A3951056105710511F40C94BC22B8
:1030F0000C943953463A51056105710509F406C22D
:103100001CF5423A51056105710509F454C07CF47F
:10311000403A51056105710511F40C945D23413A63
:1031200051056105710509F422C60C943953443ADE
:1031300051056105710509F4FDC10CF0F1C181E093
:103140008093801B0C943953493A510561057105F0
:1031500009F4EBC194F4473A51056105710509F48E
:10316000DAC1483A51056105710511F00C943953E3
:1031700081E080937A1B0C9439534E3B51056105D5
:10318000710509F49EC0433D51056105710511F4B7
:103190000C9477244A3A51056105710511F00C949D
:1031A000395381E08093791B0C94395381E08093EB
:1031B000831B0C94395381E08093821B0C94395308
:1031C00081E08093831B41E050E069E881E20E9446
:1031D00043AC0C94395380910E02833411F00C945B
:1031E000395382E480930E0240E050E067E581E2CB
:1031F0000E9443AC40E050E066E781E20E9443ACAD
:1032000040E050E068E881E20E9443AC40E050E0DA
:1032100069E881E20E9443AC1092301C0C9439534F
:103220001092161C80E00E940EB481E08093761B01
:103230008093AD1B40E050E068E08AE00E9443AC20
:1032400081E48093AE1B0C94395380910E0240E0D0
:1032500050E0813491F469E08AE00E9443AC11E0CF
:103260001093161C6AED77E082E00E944BAD10933C
:10327000D9071092301C0C9439536AE28AE00E94FC
:1032800043AC11E01093161C6AED77E086E20E94D1
:103290004BAD1093D9071092301C0C943953809188
:1032A000040881110C9439538091281281110C94D7
:1032B000395340E050E069E38AE00E9443AC0C944B
:1032C00039538091040881110C94395340E050E047
:1032D00061E08AE00E9443AC0C9439538091040869
:1032E00081110C94395300910E02013411F00C94A9
:1032F00039531092161C1092271211E010932812C5
:1033000040E050E068E08AE00E9443AC0093AE1BCE
:1033100010931F1C0C94395380910E02813411F0CC
:103320000C94395340E050E061E08AE00E9443ACE5
:103330001092161C0C94395380910E02823491F332
:10334000833411F00C94395340E050E066E18AE098
:103350000E9443AC41E050E06DE781E20E9443AC43
:1033600082E58093160281E08093301C1092161C37
:103370000C943953882311F40C94395380910E0224
:10338000813411F00C94395381E08093781B0C94B4
:10339000395380912812882311F40C943953809169
:1033A0000E02823429F481E08093771B0C94395308
:1033B000833411F00C94395311E01093310840E03C
:1033C00050E068E981E20E9443AC40E050E067E9E8
:1033D00081E20E9443AC40E050E06CE981E20E944F
:1033E00043AC40E050E06DE981E20E9443AC41E033
:1033F00050E067E881E20E9443AC40E050E06CE2BC
:103400008AE00E9443AC1093301C8FEF9FEF9093A3
:103410008F0280938E02E9E8F7E084918F01882380
:1034200051F0082E000C990B0E9480B10F5F1F4FC6
:10343000F8018491F4CF40E050E06AE981E20E9413
:1034400043AC40E050E06BE981E20E9443AC1F9244
:1034500010EBF12EFF926091661B7091671B8091BB
:10346000681B9091691B0F9440977F936F9381E83D
:1034700097E09F938F938E010F5F1F4F1F930F93C2
:103480000F94CA8EB8018AE00E944BADC8010E9419
:1034900011AF1F92FF9260916A1B70916B1B80911C
:1034A0006C1B90916D1B0F9440977F936F9389E7EE
:1034B00097E09F938F931F930F930F94CA8EB80139
:1034C00081E10E944BADC8010E9411AF1F92FF9293
:1034D0001F921F9281E797E09F938F931F930F9303
:1034E0000F94CA8EB80185E00E944BADC8010E94BE
:1034F00011AF1092161C2DB73EB7285E3F4F0FB686
:10350000F8943EBF0FBE2DBF0C94395381E08093D9
:103510007D1B0C94395381E080937C1B0C943953B0
:1035200081E080937F1B0C94395381E080937B1B57
:103530000C94395381E080937E1B0C9439534230B4
:1035400051056105710511F489E406C04233510546
:103550006105710519F482E58093160240E050E0A0
:103560006CE481E20E9443AC40E050E06BE481E215
:103570000E9443AC40E050E064E18AE00E9443AC2A
:103580008FEF8093061B0C9439534A355105610522
:10359000710519F41092061B03C081E08093061B8D
:1035A0008091061B082F10E0000F111FF801EC5B43
:1035B000F44F208131813093B1072093B0078111FE
:1035C0001EC08091D51B9091D61B6091960770917B
:1035D0009707681779072CF4BC01990F880B990B92
:1035E00004C0072E000C880B990B0F94208F0C5BE6
:1035F000144F0F944097D8016D937C931DC0809118
:10360000D91B9091DA1B6091940770919507681708
:1036100079072CF4BC01990F880B990B04C0072E75
:10362000000C880B990B0F94208F0C5B144F0F9498
:103630004097F8017183608381E48093AE1B40E082
:1036400050E068E08AE00E9443AC40E050E06DE763
:1036500081E20E9443AC80E090E0A3E4B3E4809375
:10366000670B9093680BA093690BB0936A0B8090E3
:10367000F21A9090F31AA090F41AB090F51A2091D3
:10368000630B3091640B4091650B5091660B609118
:103690005F0B7091600B8091610B9091620BE2E582
:1036A0006E2EEBE07E2E7F926F92FBE6CF2EFBE03C
:1036B000DF2EE12CF12C03E413E40E9443E40F9489
:1036C0002D6980E090E0A0E2B1E48093630B9093D9
:1036D000640BA093650BB093660B8090EE1A9090EC
:1036E000EF1AA090F01AB090F11AE090670BF090EA
:1036F000680B0091690B10916A0B60915F0B7091E0
:10370000600B8091610B9091620B7F926F9220E031
:1037100030E040E251E40E9443E40F942D690F90A1
:103720000F900F900F908091AE1B8E3411F40C947B
:103730000E291092AE1B0E94C07460E074E08DE20E
:103740000E944BAD40E050E068E28AE00E9443AC4A
:103750000091061B10E0F801EE0FFF1FEE0FFF1F98
:10376000EA59F44E60817181828193810F94409770
:1037700070932F0860932E08000F111FF801EC5B67
:10378000F44F8081918190932D0880932C0888E4D8
:103790008093AE1B0E94C07481E0809330080C942B
:1037A00039538091061B8130B1F540E050E068E06C
:1037B0008AE00E9443AC87ED90E090930A098093E1
:1037C00009099093DC1B8093DB1B8AEA90E09093BD
:1037D000DA1B8093D91B81E490E0909306098093D3
:1037E00005090E9410BF8091DB1B9091DC1B909318
:1037F000470B8093460B0F94240D40E050E06EE79A
:1038000081E20E9443AC40E050E06DE481E20E941E
:1038100043AC0C94395381110C94395340E050E07F
:1038200068E08AE00E9443AC87ED90E090930C0939
:1038300080930B099093D81B8093D71B8AEA90E062
:103840009093D61B8093D51B81E490E09093080958
:10385000809307090E9410BF8091D71B9091D81BBD
:103860009093450B8093440B0F94240D40E050E05F
:103870006EE781E20E9443AC40E050E06DE481E2FB
:103880000E9443AC0C9439538091061B8130B1F5F2
:1038900040E050E068E08AE00E9443AC84E091E0C0
:1038A00090930A09809309099093DC1B8093DB1B9A
:1038B00086EE90E09093DA1B8093D91B8AE590E026
:1038C00090930609809305090E9410BF8091DB1B2D
:1038D0009091DC1B9093470B8093460B0F94240D23
:1038E00040E050E06EE781E20E9443AC40E050E0EF
:1038F0006DE481E20E9443AC0C94395381110C9425
:10390000395340E050E068E08AE00E9443AC84E034
:1039100091E090930C0980930B099093D81B8093AE
:10392000D71B86EE90E09093D61B8093D51B8AE53B
:1039300090E090930809809307090E9410BF80913E
:10394000D71B9091D81B9093450B8093440B0F94F9
:10395000240D40E050E06EE781E20E9443AC40E07D
:1039600050E06DE481E20E9443AC0C9439538091A5
:10397000061B8130C1F540E050E068E08AE00E941B
:1039800043AC8CED90E090930A098093090986EE90
:1039900090E09093DC1B8093DB1B80EA90E0909397
:1039A000DA1B8093D91B8CE390E0909306098093F7
:1039B00005090E9410BF8091DB1B9091DC1B909346
:1039C000470B8093460B0F94240D40E050E06EE7C8
:1039D00081E20E9443AC40E050E06DE481E20E944D
:1039E00043AC0C94395381110C94395340E050E0AE
:1039F00068E08AE00E9443AC8CED90E090930C0963
:103A000080930B0986EE90E09093D81B8093D71B90
:103A100080EA90E09093D61B8093D51B8CE390E0D6
:103A200090930809809307090E9410BF8091D71BCB
:103A30009091D81B9093450B8093440B0F94240DC9
:103A400040E050E06EE781E20E9443AC40E050E08D
:103A50006DE481E20E9443AC0C9439538091061BC3
:103A6000823010F00C94395340E050E064E38AE077
:103A70000E9443AC1F9250EBF52EFF9280910D02F5
:103A80008F9380910C028F9303E014E01F930F93A8
:103A90006E01FCEDCF1AFEEFDF0ADF92CF920F949A
:103AA000679CB6018DE00E944BAD1F92FF92809102
:103AB0000B028F9380910A028F931F930F936E01D5
:103AC00026EEC21A2EEFD20ADF92CF920F94679C95
:103AD000B6018EE00E944BAD1F92FF9280910902C9
:103AE0008F93809108028F931F930F936E0131E0A3
:103AF000C30ED31EDF92CF920F94679CB6018FE066
:103B00000E944BAD1F92FF92809107028F9380918C
:103B100006028F931F930F938E010F5F1F4F1F930A
:103B20000F930F94679C4DB75EB7405E5F4F0FB623
:103B3000F8945EBF0FBE4DBFB80182E10E944BAD4D
:103B40000C94395340E050E064E18AE00E9443ACB9
:103B50000C94395380910C0290910D02181619069D
:103B600014F00C9439530A9790930D0280930C0231
:103B70001F9220EB2F939F938F938AE094E09F9363
:103B80008F938E010F5F1F4F1F930F930F94679CAE
:103B9000B8018DE00E944BAD8DB79EB708960FB669
:103BA000F8949EBF0FBE8DBF0C94395380910C02C8
:103BB00090910D028633A1E09A0714F00C943953CA
:103BC0000A9690930D0280930C021F9220EB2F9384
:103BD0009F938F938AE094E09F938F938E010F5F62
:103BE0001F4F1F930F930F94679CB8018DE00E94A5
:103BF0004BADEDB7FEB738960FB6F894FEBF0FBECB
:103C0000EDBF0C94395380910A0290910B02181663
:103C1000190614F00C9439530A9790930B02809371
:103C20000A021F9220EB2F939F938F938AE094E0D8
:103C30009F938F938E010F5F1F4F1F930F930F94CE
:103C4000679CB8018EE00E944BAD2DB73EB7285F50
:103C50003F4F0FB6F8943EBF0FBE2DBF0C943953A3
:103C600080910A0290910B02863331E0930714F0A1
:103C70000C9439530A9690930B0280930A021F9278
:103C800020EB2F939F938F938AE094E09F938F93E1
:103C90008E010F5F1F4F1F930F930F94679CB80106
:103CA0008EE00E944BAD4DB75EB7485F5F4F0FB6D9
:103CB000F8945EBF0FBE4DBF0C943953809108023B
:103CC000909109021816190614F00C9439530A97AA
:103CD00090930902809308021F9220EB2F939F93E9
:103CE0008F938AE094E09F938F938E010F5F1F4F15
:103CF0001F930F930F94679CB8018FE00E944BAD08
:103D00008DB79EB708960FB6F8949EBF0FBE8DBFB5
:103D10000C94395380910802909109028633A1E0F6
:103D20009A0714F00C9439530A96909309028093E1
:103D300008021F9220EB2F939F938F938AE094E0C9
:103D40009F938F938E010F5F1F4F1F930F930F94BD
:103D5000679CB8018FE00E944BADEDB7FEB7389677
:103D60000FB6F894FEBF0FBEEDBF0C94395380918F
:103D70000602909107021816190614F00C94395394
:103D80000A9790930702809306021F9220EB2F93CD
:103D90009F938F938AE094E09F938F938E010F5FA0
:103DA0001F4F1F930F930F94679CB80182E10E94ED
:103DB0004BAD2DB73EB7285F3F4F0FB6F8943EBFCF
:103DC0000FBE2DBF0C9439538091060290910702CB
:103DD0008936910514F00C9439530A969093070292
:103DE000809306021F9220EB2F939F938F938AE07C
:103DF00094E09F938F938E010F5F1F4F1F930F933C
:103E00000F94679CB80182E10E944BAD4DB75EB73D
:103E1000485F5F4F0FB6F8945EBF0FBE4DBF0C9466
:103E2000395340E050E068E08AE00E9443ACE09102
:103E3000061B40910C0250910D0220910A02309114
:103E40000B02609108027091090280910602909124
:103E50000702E11130C06C33A1E07A0714F06BE384
:103E600071E070930C0960930B094C33B1E05B0770
:103E700014F04BE351E05093D81B4093D71B2C33E5
:103E8000E1E03E0714F02BE331E03093D61B2093A2
:103E9000D51B8F36910514F08EE690E090930809BB
:103EA000809307098091D71B9091D81B9093450B65
:103EB0008093440B34C06C33F1E07F0714F06BE364
:103EC00071E070930A09609309094C3361E0560769
:103ED0002CF45093DC1B4093DB1B06C04BE351E0FA
:103EE00050930A09409309092C33A1E03A0714F0D2
:103EF0002BE331E03093DA1B2093D91B8F369105E9
:103F000014F08EE690E09093060980930509809165
:103F1000DB1B9091DC1B9093470B8093460B0E9418
:103F200010BF0F94240D40E050E06EE781E20E9444
:103F300043AC40E050E06DE481E20E9443AC0C945D
:103F4000395360E074E08DE20E944BAD40E050E0F8
:103F500068E28AE00E9443AC88E48093AE1B0E9432
:103F6000C0748091061B082F10E081111DC0809144
:103F7000D71B9091D81B6091920770919307681797
:103F800079072CF4BC01990F880B990B04C0072EFC
:103F9000000C880B990B0F94208F0F94409770930F
:103FA000450B6093440B22C08091DB1B9091DC1B7E
:103FB0006091900770919107681779072CF4BC0104
:103FC000990F880B990B04C0072E000C880B990BD6
:103FD0000F94208F9801220F331FF901EC5BF44FEF
:103FE0007F010F944097D7016D937C93F801EE0FFA
:103FF000FF1FEE0FFF1FEA59F44E6081718182812D
:1040000093810F94409770932F0860932E08F801C6
:10401000EE0FFF1FEC5BF44F8081918190932D0890
:1040200080932C080E94C07481E0809330080C9427
:10403000395380911602893411F00C94395340E0C1
:1040400050E068E08AE00E9443AC81E48093AE1BBC
:10405000E090670BF090680B0091690B10916A0B70
:104060002091630B3091640B4091650B5091660B6E
:10407000E091061BB4E0EB9FF0011124E652FD4FE6
:1040800060817181828193810E94FDADE090670B18
:10409000F090680B0091690B10916A0B2091630BF3
:1040A0003091640B4091650B5091660B60915F0BF2
:1040B0007091600B8091610B9091620BE6E0FBE1E7
:1040C000FF93EF93812CA0E89A2EABE3AA2EA6E4EF
:1040D000BA2EBBE6CB2EBBE0DB2E0E9443E40F944E
:1040E0002D69E7E6F7E084910F900F908F01882308
:1040F00051F0082E000C990B0E9480B10F5F1F4FEA
:10410000F8018491F4CF20E030E040EF51E4609179
:104110006B0B70916C0B80916D0B90916E0B0F94EB
:10412000A69560936B0B70936C0B80936D0B9093C3
:104130006E0BE090670BF090680B0091690B10918B
:104140006A0B2091630B3091640B4091650B509189
:10415000660B60915F0B7091600B8091610B909189
:10416000620BB6E06B2EBBE17B2E7F926F92812CAF
:10417000912CE0E3AE2EE1E4BE2EFBE6CF2EFBE079
:10418000DF2E0E9443E40F942D690F900F908091D1
:10419000AE1B8E3411F40C940E2920E030E84AE472
:1041A00054E460916B0B70916C0B80916D0B90914E
:1041B0006E0B0F94A695AB01BC0140936B0B509313
:1041C0006C0B60936D0B70936E0B8DE99FE00E94FA
:1041D000D4B3E090670BF090680B0091690B1091DD
:1041E0006A0B2091630B3091640B4091650B5091E9
:1041F000660B60915F0B7091600B8091610B9091E9
:10420000620B7F926F92812C912CA0E7AA2EA2E4E0
:10421000BA2E0E9443E40F942D690F900F90809165
:10422000AE1B8E3409F4FAC720E030E048E452E4D3
:1042300060916B0B70916C0B80916D0B90916E0B7C
:104240000F94A69560936B0B70936C0B80936D0B22
:1042500090936E0BE090670BF090680B0091690BE8
:1042600010916A0B2091630B3091640B4091650BA8
:104270005091660B60915F0B7091600B8091610BA8
:104280009091620B7F926F92812C912CA12CF0E483
:10429000BF2E0E9443E40F942D690F900F908091E0
:1042A000AE1B8E3409F4BAC71092AE1B40E050E04A
:1042B0006EE08AE00E9443AC0C9439538091160260
:1042C000823511F00C94395340E050E068E08AE008
:1042D0000E9443AC81E48093AE1B66E272E080E012
:1042E00090E00F94D12620E030E240E854E4609161
:1042F0006B0B70916C0B80916D0B90916E0B0F940A
:10430000A59560936B0B70936C0B80936D0B9093E2
:104310006E0BE090670BF090680B0091690B1091A9
:104320006A0B2091630B3091640B4091650B5091A7
:10433000660B60915F0B7091600B8091610B9091A7
:10434000620BE6E0FBE1FF93EF93812C912CB0E749
:10435000AB2EB2E4BB2EEBE6CE2EEBE0DE2E0E94BF
:1043600043E40F942D690F900F908091AE1B8E3413
:1043700009F454C786E090E090930502809304020C
:104380001092AE1B12E41093D3080E94C07440E058
:1043900050E065E18AE00E9443AC40E050E06BE011
:1043A00084E10E9443AC1093AE1B8091061B8111E7
:1043B0001AC08091D71B9091D81B9093930780933C
:1043C00092078091D51B9091D61B9093970780936D
:1043D000960780910B0990910C0990938F07809319
:1043E0008E070C9439538091DB1B9091DC1B9093CA
:1043F0009107809390078091D91B9091DA1B90933D
:104400009507809394078091090990910A099093E8
:104410008D0780938C070C94395380912708811164
:104420000C94395340E050E065E18AE00E9443ACCF
:1044300040E050E06BE084E10E9443AC82E4809372
:10444000AE1B8093D308E091061B24E0E29FF001AD
:104450001124E652FD4F60817181828193816093C6
:104460005F0B7093600B8093610B9093620BE090F5
:10447000670BF090680B0091690B10916A0B20910B
:10448000630B3091640B4091650B5091660BE6E035
:10449000FBE1FF93EF93812CE0E89E2EEBE3AE2E41
:1044A000E6E4BE2EFBE6CF2EFBE0DF2E0E9443E4C7
:1044B000E090670BF090680B0091690B10916A0B0C
:1044C0002091630B3091640B4091650B5091660B0A
:1044D000E091520B64E0E69FF0011124E652FD4F9B
:1044E00060817181828193810E94FDADE091520BC8
:1044F00084E0E89FF0011124E652FD4F8081918114
:10450000A281B38180935F0B9093600BA093610BAA
:10451000B093620BE091061BF0E0EE0FFF1FEC5B27
:10452000F44F8091B0079091B107918380830F94ED
:104530002D690F900F900C943953809127088111A9
:104540000C943953909104098091030998130C94A9
:10455000575381E0809333080C9439538091270896
:1045600081110C9439539091040980910309981397
:104570000C9457530C945A53909104098091030959
:1045800098130C9439530C945E53909104098091C4
:10459000030998130C9439530C942E54E0918E0215
:1045A000F0918F02EF3F5FEFF50711F40C94395350
:1045B000EE0FFF1FEC5BF44F808191818B3361E044
:1045C000960714F00C9439530596918380831F92BB
:1045D00020EB2F939F938F9387E297E09F938F9386
:1045E0008E010F5F1F4F1F930F930F94CA8EB80158
:1045F00085E00E944BAD8DB79EB708960FB6F89434
:104600009EBF0FBE8DBF0C943953E0918E02F09186
:104610008F02EF3F9FEFF90711F40C943953EE0F1F
:10462000FF1FEC5BF44F808191811816190614F07E
:104630000C9439530597918380831F9220EB2F931D
:104640009F938F938FE197E09F938F938E010F5FDE
:104650001F4F1F930F930F94CA8EB80185E00E94DD
:104660004BADADB7BEB718960FB6F894BEBF0FBE30
:10467000ADBF0C94395380918E0290918F020196B8
:1046800011F40C9439539091040980910309981303
:104690000C9457530C94035580918E0290918F0285
:1046A000019611F40C9439539091040980910309F7
:1046B00098130C9457530C940755909104098091CA
:1046C000030998130C9439530C940B558091D3081B
:1046D000823411F00C943953E6E1F7E084918F01B4
:1046E000882351F0082E000C990B0E9480B10F5FB7
:1046F0001F4FF8018491F4CF1092AE1B109227083F
:1047000080911602823509F047C089E48093160231
:104710008091061B813049F441E050E06CE481E275
:104720000E9443AC40E050E008C040E050E06CE440
:1047300081E20E9443AC41E050E06BE481E20E94E0
:1047400043AC41E050E06EE781E20E9443AC41E0BF
:1047500050E06DE481E20E9443AC41E050E061E44E
:1047600081E20E9443AC41E050E066E481E20E94B5
:1047700043AC41E050E06EE481E20E9443AC41E092
:1047800050E06FE481E20E9443AC40E050E064E11D
:104790008AE00E9443ACA7C0893409F0A4C081E438
:1047A0008093AE1B40E050E068E08AE00E9443AC9A
:1047B0004090F7075090F8076090F9077090FA075B
:1047C0004092630B5092640B6092650B7092660B83
:1047D00020E030E040E752E4609178027091790285
:1047E00080917A0290917B020F9494964B015C0128
:1047F000E090670BF090680B0091690B10916A0BC9
:1048000060915F0B7091600B8091610B9091620BD6
:1048100022E53BE03F932F935BE6C52E5BE0D52E70
:10482000A30192010E9443E40F942D690F900F9011
:104830008091AE1B8E3409F4F1C420E030E040E2F8
:1048400051E46091FB077091FC078091FD07909106
:10485000FE070F94A6957B018C016093670B709304
:10486000680B8093690B90936A0B8091F2078983A0
:1048700080907C0290907D02A0907E02B0907F029A
:104880002091630B3091640B4091650B5091660B46
:1048900060915F0B7091600B8091610B9091620B46
:1048A000FE013196FF93EF930E9443E40F942D692C
:1048B0000F900F908091AE1B8E3409F4AFC410920C
:1048C000AE1B40E050E06AE28AE00E9443AC11E097
:1048D0001093161C1092301C6AED77E086E20E945D
:1048E0004BAD1093D9071092D3080C943953809193
:1048F000811B1092AE1B8823B9F01092811B81E0BE
:104900008093821B80910E0240E050E0813431F4AC
:1049100069E08AE00E9443AC0C9439536AE28AE071
:104920000E9443AC0C94395310920C1C1092301C12
:10493000EBE0F7E084918F01882351F0082E000C02
:10494000990B0E9480B10F5F1F4FF8018491F4CF43
:104950001092390881E00F94200740E050E065E0B4
:104960008AE00E9443AC0C9439539091CA07992372
:1049700009F428C28091CE07823008F423C247345C
:1049800051056105710509F4A3C09CF54B32510531
:104990006105710509F462C09CF447315105610558
:1049A000710509F467C0483151056105710511F0C1
:1049B0000C94395382E090E00F94C40C0C9439535A
:1049C000403351056105710509F44EC04533510569
:1049D0006105710509F4BCC14F32510561057105CE
:1049E00011F00C9439538FEF9FEF0F94C40C0C947B
:1049F0003953403851056105710509F441C004F58A
:104A00004E3551056105710509F470C14F355105E9
:104A10006105710511F00C94395314E41093D30817
:104A200040E050E06BE084E10E9443AC40E050E0A5
:104A300065E18AE00E9443AC1093AE1B0C9439539D
:104A40004238510561057105B9F144F14B3A510500
:104A50006105710509F4C8C00C9439538EEF9FEFBE
:104A60000F94C40C0C94395380E090E00F94C40C64
:104A70000C94395381E090E00F94C40C0C9439539A
:104A80008DEF9FEF9093D5088093D40840E050E0DD
:104A90006AE08AE00E9443AC0C94395383E090E0D2
:104AA0009093D5088093D40840E050E06AE08AE013
:104AB0000E9443AC0C9439531092D5081092D4083C
:104AC00040E050E06AE08AE00E9443AC0C94395325
:104AD00040E050E068E08AE00E9443AC81E48093CB
:104AE000AE1B41E061E081E00E940A891092AE1B9A
:104AF0000F942D690F9451091091D4088091CE071D
:104B0000823011F540E050E061E18AE00E9443AC60
:104B100080E58093AE1B0091CB07010F0093CB077C
:104B2000002E000C110B20E030E0A901CA01B901F0
:104B30000E94998C40E050E069E18AE00E9443AC19
:104B40001092AE1B0C943953833029F540E050E0AD
:104B500061E18AE00E9443AC80E58093AE1B009146
:104B6000CC07010F0093CC07002E000C110B20E0A6
:104B700030E04CE553EC60E070E088EA92EC0E9493
:104B8000998C40E050E069E18AE00E9443AC1092C9
:104B9000AE1B0C943953843011F00C94395340E01F
:104BA00050E061E18AE00E9443AC80E58093AE1B57
:104BB0000091CD07010F0093CD07002E000C110BC3
:104BC00020E030E04CE553EC60E070E084EA92E4F1
:104BD0000E94998C40E050E069E18AE00E9443AC79
:104BE0001092AE1B0C9439531092AE1B8091CB07E0
:104BF0004091CC07042F081B4091CD07142F181BA0
:104C0000602F002E000C770B880B990B0F94208FD0
:104C10002DEC3CEC4CEC5DEB0F94198A6093D307C0
:104C20007093D4078093D5079093D607612F012EF8
:104C3000000C770B880B990B0F94208F2DEC3CEC1C
:104C40004CEC5DEB0F94198A6093CF077093D007FB
:104C50008093D1079093D2070023A1F040E050E069
:104C60006FE18AE00E9443AC07FF07C0202F332783
:104C700021950CF4309508E0020F402F000F550BE2
:104C800064E015C01123B9F040E050E060E28AE032
:104C90000E9443AC17FF07C0812F992781950CF420
:104CA000909518E0180F412F110F550B65E08BE11F
:104CB0000E9443AC11C014E41093D30840E050E0CC
:104CC0006BE084E10E9443AC40E050E065E18AE0A3
:104CD0000E9443AC1093AE1B8FE790E09093DE1BD5
:104CE0008093DD1B0E9410BF0C9439534091CD0777
:104CF0008091CB07142F181BC1F040E050E060E218
:104D00008AE00E9443AC17FF07C0A12FBB27A195E3
:104D10000CF4B09518E01A0F412F110F550B65E0F8
:104D20008BE10E9443AC0C94395314E41093D308E4
:104D300040E050E06BE084E10E9443AC40E050E092
:104D400065E18AE00E9443AC1093AE1B0C9439538A
:104D50008091D308843411F00C9439531092CE070B
:104D60001092CA071092AE1B10923F0B10923E0B8E
:104D70001092450B1092440B1092470B1092460B69
:104D800010920C1C1092301CE0E0F7E084918F012F
:104D9000882351F0082E000C990B0E9480B10F5F00
:104DA0001F4FF8018491F4CF109239080F94200717
:104DB00040E050E065E08AE00E9443AC1092D308E6
:104DC0000C943953493D510510F00C943953FA01B4
:104DD0008827EE58FF4F8F4F0D940B9A81E08093F8
:104DE00022080C94395381E0809321080C943953A4
:104DF00081E0809320080C94395381E080931F0850
:104E00000C94395381E080931E080C9439530E940E
:104E100049B7009751F481E0809323088091310BCA
:104E200081508093310B0C943953019711F00C94FD
:104E3000395381E08093230840E050E067E381E24A
:104E40000E9443AC40E050E061E08BE10E9443AC43
:104E50008091310B81508093310B0C943953109217
:104E60000C1C1092301CE5EFF6E084918F01882332
:104E700051F0082E000C990B0E9480B10F5F1F4F5C
:104E8000F8018491F4CF1092390881E00F94200743
:104E900040E050E065E08AE00E9443AC0C94395356
:104EA00080912912882311F40C943953809179123E
:104EB00081110C943953CDB6DEB680911C089091C7
:104EC0001D080E948DB7EAE2F2E1DF010D9000209B
:104ED000E9F78DB79EB78A1B9B0B9C012A5D3D4E5F
:104EE0000FB6F8943EBF0FBE2DBF0DB71EB70F5FB4
:104EF0001F4FFF93EF938EEE96E09F938F931F9338
:104F00000F930F94CA8E780134E0E30EF11C0F90DA
:104F10000F900F900F900F900F90F70180818823D2
:104F200049F0082E000C990B0F94069CD7018D9325
:104F30007D01F3CF8091730B9091740B04971CF457
:104F4000C8010E949CF68AEE96E00F9423070FB6E4
:104F5000F894DEBE0FBECDBE0C94395381E0809331
:104F600026080C94395381E0809325080C9439531A
:104F700040E050E062E18AE00E9443AC0C94395377
:104F800040E050E06CE18AE00E9443AC80E00F9486
:104F9000200710923808109237081092360881E0E6
:104FA000809339080C94395310920C1C1092301CC9
:104FB000EFEDF6E084918F01882351F0082E000C6C
:104FC000990B0E9480B10F5F1F4FF8018491F4CFBD
:104FD000109239080E94C07481E00F94200740E0CD
:104FE00050E065E08AE00E9443AC0C943953809114
:104FF000440B9091450B892B29F01092450B109290
:10500000440B08C080910B0990910C099093450BBB
:105010008093440B109238080C9439538091460BBE
:105020009091470B892B29F01092470B1092460B59
:1050300008C08091090990910A099093470B8093C9
:10504000460B109237080C94395380913E0B909187
:105050003F0B892B29F010923F0B10923E0B1CC086
:1050600080910709909108096091050970910609DE
:10507000681779072CF4BC01990F880B990B04C0B1
:10508000072E000C880B990B0F94208F0F944097DC
:1050900070933F0B60933E0B109236080C9439537B
:1050A0008BED96E00F9423070C94395340E050E0C9
:1050B0006EE18AE00E9443AC0C94395340E050E02A
:1050C00065E08AE00E9443AC10920C1C1092301CE8
:1050D000E0EDF6E084918F01882351F0082E000C5A
:1050E000990B0E9480B10F5F1F4FF8018491F4CF9C
:1050F0001092390888E793E09093CF028093CE0214
:105100000E9410BF0C94395340E050E06AE18AE0FD
:105110000E9443AC0E9462B280912912882311F44C
:105120000C9439538091300B8093310B28E0E22EA0
:105130002BE0F22E3CE1C32E3BE0D32E00E010E04A
:105140004AEC842E46E0942E8091300B90E00817B4
:105150001907BCF56AE272E181EA92E10F943137F6
:105160005701D7018D919D917D010E948DB7F50169
:1051700080819181D6018D939D936D0180917912EB
:10518000811118C0F40184919AECA92E96E0B92EF1
:10519000882359F0082E000C990B0E9480B1FFEF74
:1051A000AF1ABF0AF5018491F3CF8AE090E00E9424
:1051B00080B104C08AE292E10F945C4A0F5F1F4FF6
:1051C000C3CF87E090E00F9435780C9439538091E9
:1051D000CE029091CF028036974041F488E793E069
:1051E0009093CF028093CE020E9410BF40E050E027
:1051F00068E08AE00E9443AC81E48093AE1B80911A
:10520000AC088823D1F040E061E081E00E940A8987
:105210000F942D698091AE1B8E3489F48FEF9FEF30
:10522000DC0180939A0290939B02A0939C02B0931E
:105230009D0210923B080C94355541E0E5CF81E08A
:105240000F9420071092AE1B87EC96E00F94230773
:105250000F942D698091AE1B8E3401F340E050E035
:105260006BE08AE00E9443AC0C94395340E050E07C
:1052700064E08AE00E9443AC0C94395340E050E073
:1052800064E28AE00E9443AC81E08093AF0789E446
:105290008093AE1B1F921F9282E194E09F938F93A5
:1052A0008E010F5F1F4F1F930F930F94679CB801E0
:1052B0008EE20E944BAD60910B0970910C09072E94
:1052C000000C880B990B0F94208F00E010E028EC65
:1052D00031E440E050E00F94D8130E9410BF67E122
:1052E00074E08DE99FE00F94D6136AE174E08DE9D4
:1052F0009FE00F94D6136091AE027091AF0280913F
:10530000B0029091B10242E050E00F94374B6EE151
:1053100074E08DE99FE00F94D6132DEB37E346E060
:105320005EE36091A6027091A7028091A80290911D
:10533000A9020F94949642E050E00F94374B62E23A
:1053400074E08DE99FE00F94D6132DEB37E346E030
:105350005EE360919E0270919F028091A002909105
:10536000A1020F94198A42E050E00F94374B6091EC
:10537000090970910A09072E000C880B990B0F94EC
:10538000208F00E010E028EC31E441E050E00F9481
:10539000D8130E9410BF67E174E08DE99FE00F947D
:1053A000D6136AE174E08DE99FE00F94D613609103
:1053B000B2027091B3028091B4029091B50242E0C2
:1053C00050E00F94374B6EE174E08DE99FE00F944D
:1053D000D6132DEB37E346E05EE36091AA027091AD
:1053E000AB028091AC029091AD020F94949642E092
:1053F00050E00F94374B62E274E08DE99FE00F9428
:10540000D6132DEB37E346E05EE36091A202709184
:10541000A3028091A4029091A5020F94198A42E000
:1054200050E00F94374B1092AE1B0E94C07440E0C6
:1054300050E06BE084E10E9443AC40E050E065E165
:105440008AE00E9443AC84E48093D3088093AE1B2F
:105450000F900F900F900F900F900F900C94395366
:1054600010920C1C1092301CECEBF6E084918F0132
:10547000882351F0082E000C990B0E9480B10F5F19
:105480001F4FF8018491F4CF109239080E94C07424
:1054900040E050E065E08AE00E9443AC0C94395350
:1054A00082E58093160281E08093AE0740E050E0F1
:1054B0006BE581E20E9443AC40E050E06CE581E2A4
:1054C0000E9443AC40E050E060E08BE10E9443ACBE
:1054D00040E050E06AE781E20E9443AC40E050E0E7
:1054E00069E781E20E9443AC40E050E06DE18AE070
:1054F0000E9443AC8FEF8093061B0C94395340E01D
:1055000050E062E18AE00E9443AC40E050E06BE58D
:1055100081E20E9443AC40E050E06CE581E20E94F1
:1055200043AC40E050E060E08BE10E9443AC40E0DF
:1055300050E06AE781E20E9443AC40E050E069E756
:1055400081E20E9443AC1092AE070C943953109242
:105550000C1C1092301CE1EBF6E084918F01882343
:1055600051F0082E000C990B0E9480B10F5F1F4F65
:10557000F8018491F4CF1092390840E050E065E0E2
:105580008AE00E9443AC40E050E06BE581E20E947B
:1055900043AC40E050E06CE581E20E9443AC40E067
:1055A00050E060E08BE10E9443AC40E050E06AE7ED
:1055B00081E20E9443AC40E050E069E781E20E9452
:1055C00043AC1092AE070C94395341E050E06BE5C8
:1055D00081E20E9443AC40E050E06CE581E20E9431
:1055E00043AC41E050E060E08BE10E9443AC41E01D
:1055F00050E06AE781E20E9443AC41E050E069E795
:1056000081E20E9443AC1092061B0C94395340E097
:1056100050E06BE581E20E9443AC41E050E06CE574
:1056200081E20E9443AC41E050E060E08BE10E94E7
:1056300043AC41E050E06AE781E20E9443AC41E0C4
:1056400050E069E781E20E9443AC81E08093061B51
:105650000C9439538091CE029091CF0280369740BE
:1056600041F488E793E09093CF028093CE020E94AA
:1056700010BF0091061B0F3F11F40C943953011118
:105680001DC08091D51B9091D61B6091960770919B
:105690009707681779072CF4BC01990F880B990BB1
:1056A00004C0072E000C880B990B0F94208F0F94C9
:1056B00040977093450B6093440B20C08091D91B99
:1056C0009091DA1B6091940770919507681779079C
:1056D0002CF4BC01990F880B990B04C0072E000C09
:1056E000880B990B0F94208F10E0000F111F0C5B9B
:1056F000144F0F944097D8016D937C9381E0809371
:10570000AC1B81E48093AE1B40E050E068E08AE08F
:105710000E9443AC8091AC08882311F040E001C0A6
:1057200041E061E081E00E940A8980E090E0A3E42A
:10573000B3E48093670B9093680BA093690BB093CD
:105740006A0B8090F21A9090F31AA090F41AB0901D
:10575000F51A2091630B3091640B4091650B5091C9
:10576000660B60915F0B7091600B8091610B909163
:10577000620BE2E56E2EEBE07E2E7F926F92FBE6EF
:10578000CF2EFBE0DF2EE12CF12C03E413E40E948A
:1057900043E480E090E0A0E2B1E48093630B909357
:1057A000640BA093650BB093660B8090EE1A9090FB
:1057B000EF1AA090F01AB090F11AE090670BF090F9
:1057C000680B0091690B10916A0B60915F0B7091EF
:1057D000600B8091610B9091620B7F926F9220E041
:1057E00030E040E251E40E9443E40F942D690F90B1
:1057F0000F900F900F908091AE1B8E3409F40ECD58
:105800001092AE1B0E94C07460E074E08DE20E94B2
:105810004BAD40E050E068E28AE00E9443AC00916A
:10582000061B10E0F801EE0FFF1FEE0FFF1FEA59F5
:10583000F44E60817181828193810F9440977093BF
:105840002F0860932E08000F111FF801EC5BF44F36
:105850008081918190932D0880932C0888E4809317
:10586000AE1B0E94C07464EF71E080E090E00F9482
:10587000D12681E0809330080C9439538091CE0278
:105880009091CF028036974041F488E793E090935F
:10589000CF028093CE020E9410BFE091061BEF3F23
:1058A00011F40C94395381E08093AC1BF0E0EE0FBF
:1058B000FF1FEC5BF44F84E091E09183808381E4EF
:1058C0008093AE1B40E050E068E08AE00E9443AC69
:1058D0008091AC08882311F040E001C041E061E014
:1058E00081E00E940A890F942D698091AE1B8E344D
:1058F00009F494CC80E090E0A3E4B3E48093670BD8
:105900009093680BA093690BB0936A0B8090F21A86
:105910009090F31AA090F41AB090F51A2091630BAE
:105920003091640B4091650B5091660B60915F0B59
:105930007091600B8091610B9091620BE2E56E2E8D
:10594000EBE07E2E7F926F92FBE6CF2EFBE0DF2E08
:10595000E12CF12C03E413E40E9443E40F942D693D
:105960000F900F908091AE1B8E3409F457CC80E0DD
:1059700090E0A0E2B1E48093630B9093640BA0935A
:10598000650BB093660B8090EE1A9090EF1AA09082
:10599000F01AB090F11AE090670BF090680B00914C
:1059A000690B10916A0B60915F0B7091600B809195
:1059B000610B9091620B7F926F9220E030E040E2A9
:1059C00051E40E9443E40F942D690F900F90809151
:1059D000AE1B8E3409F422CC8091061B811103C0CA
:1059E00080E090E002C081E090E00F945A7580E082
:1059F00090E0ABE1B3E480935F0B9093600BA093D6
:105A0000610BB093620BE090670BF090680B009114
:105A1000690B10916A0B2091630B3091640B4091DC
:105A2000650B5091660B86E09BE19F938F93812CD1
:105A300060E8962E6BE3A62E66E4B62E7BE6C72EB4
:105A40007BE0D72E60E070E08BE193E40E9443E4BA
:105A50000F942D690F900F908091AE1B8E3409F436
:105A6000DDCB1092AE1B0E94C07440E050E065E2B6
:105A70008AE00E9443AC0C94395381E080932A0859
:105A8000109228081092290810922B080C94395370
:105A900010922A0881E08093280810922908109219
:105AA0002B080C94395310922A081092280881E090
:105AB0008093290810922B080C94395310922A08CD
:105AC000109228081092290881E080932B080C94EA
:105AD00039538FEF809317020E94C07440E050E06A
