:100000000C945A140C948B140C948B140C948B1425
:100010000C948B140C948B140C948B140C948B14E4
:100020000C948B140C948B140C948B140C948B14D4
:100030000C948B140C948B140C948B140C948B14C4
:100040000C948B140D94526D0C948B140C948B1493
:100050000C948B140C948B140D94C38A0D9488917A
:100060000C948B140D94B8950D94EE950C948B1400
:100070000C948B140C948B140C948B140C948B1484
:100080000C948B140C948B140C948B140C948B1474
:100090000C948B140C948B140C948B140C944E15A0
:1000A0000C948B140C948B140C948B140C948B1454
:1000B0000C948B140C948B140C948B140C948B1444
:1000C0000C948B140C948B140C948B140D946396D9
:1000D0000D9499960C948B140C948B140C948B1493
:1000E0000C948B1427012301DB00E900F500EB00E1
:1000F0001501ED00D3001901E7000F010101FF0018
:1001000017011B01EF00E1002F012B01F100390164
:100110000B01D9003B01EF00F900E300E500CD0041
:100120002901110137010D01330131013501F300BE
:10013000C700DF001301D700C90033012D01DD0026
:100140000501084AD73B3BCE016E84BCBFFDC12FE1
:100150003D6C74319ABD56833DDA3D00C77F11BEB8
:10016000D9E4BB4C3E916BAAAABE000000803F05BB
:10017000A84CCDB2D44EB93836A9020C50B99186EC
:1001800088083CA6AAAA2ABE000000803F000D9461
:100190008C930D949E930D94D1940D9477930D941C
:1001A00053940D94F2940D94C68B0D9474300D9469
:1001B0009A930D9423930D94748B0D94A8930D949E
:1001C00090930D94E6920D9441930D944B930D945E
:1001D000D08B0D94818B0D94A88B0D94C48B0D94B2
:1001E00055930D9400930D9488930D949B8B0D94CF
:1001F0001B970D9437930D94CB960D9461940D94A9
:10020000C8920D94C3920D948C300D94AC930D94C0
:1002100000680D9475940D9414930D9473930D943C
:10022000BE920D9469930D9496930D94C28B0D9488
:10023000D2920D94C88B0D94DC920D9448940D9439
:1002400017960D9420960D94588B0D94C2960D948C
:100250004B8B0D947A930D94F6920D94A4930D9478
:10026000EE920D947E930D94B1930D9482930D9420
:100270006D930D940A930D942D934D38342058208E
:1002800059205A2045004D313037005430004D314F
:1002900030370043616E6E6F7420656E7465722036
:1002A0007375626469723A20005341564544205088
:1002B00052494E54004D3234004D323320257300E4
:1002C0006175746F25692E67006572726F72207791
:1002D000726974696E6720746F2066696C65004E80
:1002E0006F74205344207072696E74696E67002FBA
:1002F000005344207072696E74696E67206279746D
:100300006520002E0044656C6574696F6E2066611F
:10031000696C65642C2046696C653A200046696CFE
:10032000652064656C657465643A002E006F7065C5
:100330006E206661696C65642C2046696C653A20A4
:100340000057726974696E6720746F2066696C6506
:100350003A20002E006F70656E206661696C6564DE
:100360002C2046696C653A20002E006F70656E2067
:100370006661696C65642C2046696C653A200046AC
:10038000696C652073656C656374656400205369EE
:100390007A653A200046696C65206F70656E656409
:1003A0003A20002E006F70656E206661696C65648E
:1003B0002C2046696C653A20004E6F772066726586
:1003C00073682066696C653A20004E6F7720646F11
:1003D000696E672066696C653A20002220706F7331
:1003E000002220706172656E743A220053554252A9
:1003F0004F5554494E452043414C4C20746172671F
:1004000065743A2200747279696E6720746F206394
:10041000616C6C207375622D67636F64652066691B
:100420006C6573207769746820746F6F206D616EDE
:1004300079206C6576656C732E204D4158206C6573
:1004400076656C2069733A005344206361726420BE
:100450006F6B006F70656E526F6F74206661696CB0
:10046000656400766F6C756D652E696E69742066C3
:1004700061696C656400534420696E69742066612B
:10048000696C006563686F3A004572726F723A007A
:10049000535543434553530056616C756573206F44
:1004A0007574206F662072616E67650056616C75A9
:1004B0006573206F7574206F662072616E676500CA
:1004C00056616C756573206F7574206F662072615C
:1004D0006E67650056616C756573206F7574206F6B
:1004E000662072616E676500535543434553530060
:1004F00056616C756573206F7574206F662072612C
:100500006E67650056616C756573206F7574206F3A
:10051000662072616E67650056616C756573206F49
:100520007574206F662072616E67650056616C7528
:100530006573206F7574206F662072616E67650049
:1005400053544154495354494353205245534554FD
:100550000048617264636F6465642043616C696222
:1005600020616E64205049442044656661756C7456
:100570002053657474696E6773204C6F61646564A1
:100580000048617264636F646564204465666175E8
:100590006C742053657474696E6773204C6F61646A
:1005A00065640053746F7265642073657474696E5A
:1005B000677320726574726965766564002C2073B8
:1005C000617665645F66656564726174653A200092
:1005D0002C2073617665645F66616E6C617965720B
:1005E0003A20002C2073617665645F74656D7062DB
:1005F00065643A20002C2073617665645F74656DD4
:1006000070303A20002C2073617665645F74656DEC
:1006100070313A20002C2073617665645F66696CE6
:1006200065706F736974696F6E3A20002C20736176
:100630007665645F655F706F736974696F6E3A2089
:10064000002C2073617665645F746F6F6C5F61630B
:10065000746976653A20002C2073617665645F7A50
:100660005F706F736974696F6E3A20002C2073613C
:100670007665645F795F706F736974696F6E3A2035
:10068000002C2073617665645F785F706F736974A6
:10069000696F6E3A200053415645205052494E54DE
:1006A000204C4F473A00204D696E75746573203AAF
:1006B00000204C617374207072696E742074696DCF
:1006C000652D3E20486F757273203A004C6173743B
:1006D000207072696E74206475726174696F6E0047
:1006E0002C205468697264204944206E756D6265DF
:1006F0007220002C205365636F6E64204944206E85
:10070000756D6265723A20002046697273742049E3
:1007100044206E756D6265723A2000554920496E1D
:10072000666F726D6174696F6E2053657269616C7A
:10073000204E756D6265723A00206D2C2045312087
:100740007072696E742064697374616E63653A20B7
:1007500000206B6D2C204530207072696E7420640F
:10076000697374616E63653A2000206B6D2C2059AB
:10077000207072696E742064697374616E63653A87
:100780002000206B6D2C205831207072696E74200F
:1007900064697374616E63653A200020432C0A20FB
:1007A0005830207072696E742064697374616E636E
:1007B000653A200020432C206D61782074656D70AF
:1007C00020423A200020432C206D61782074656D12
:1007D0007020523A20002C206D61782074656D7075
:1007E000204C3A2000682C207072696E7473206669
:1007F000696E69736865643A20002C207072696EB6
:1008000074696E672074696D653A200020707269A2
:100810006E74733A200053544154533A0020432CD1
:1008200020525F5052494E543A200020432C20520F
:100830005F4245443A200020432C20525F52454DF0
:100840004F56453A200020525F494E534552543A84
:10085000200054656D70202843293A0020432C2045
:100860004C5F5052494E543A200020432C204C5F9C
:100870004245443A200020432C204C5F52454D4FC6
:1008800056453A2000204C5F494E534552543A2079
:100890000054656D70202843293A00205A20707258
:1008A0006F626500205A2000205920002058200047
:1008B0004F66667365747320286D6D293A00204475
:1008C00000204900202D204D333031205249474827
:1008D00054205000204400204900204D3330312066
:1008E0004C45465420500050494420736574746947
:1008F0006E67733A00205A0020590020204D323094
:1009000036205800486F6D65206F666673657420E9
:10091000286D6D293A00204500205A0020580020FB
:10092000420020540020204D3230352053004164D5
:1009300076616E636564207661726961626C65736D
:100940003A20533D4D696E20666565647261746539
:1009500020286D6D2F73292C20543D4D696E207415
:10096000726176656C2066656564726174652028C5
:100970006D6D2F73292C20423D6D696E696D756D0B
:10098000207365676D656E742074696D6520286DD0
:1009900073292C20583D6D6178696D756D2058590B
:1009A000206A65726B20286D6D2F73292C20205AC8
:1009B0003D6D6178696D756D205A206A65726B2096
:1009C000286D6D2F73292C2020453D6D6178696D50
:1009D000756D2045206A65726B20286D6D2F732917
:1009E0000020540020204D323034205300416363F6
:1009F000656C65726174696F6E3A20533D61636323
:100A0000656C65726174696F6E2C20543D726574FB
:100A10007261637420616363656C65726174696F90
:100A20006E00204500205A0020590020204D323011
:100A3000312058004D6178696D756D2041636365A3
:100A40006C65726174696F6E20286D6D2F73322929
:100A50003A00204500205A0020590020204D323015
:100A6000332058004D6178696D756D206665656449
:100A7000726174657320286D6D2F73293A002045CB
:100A800000205A0020590020204D393220580053B0
:100A9000746570732070657220756E69743A0053C6
:100AA000657474696E67732053746F726564006552
:100AB00063686F3A00204500205A00205900483DE5
:100AC00058005072696E7465722068616C74656458
:100AD0002E206B696C6C28292063616C6C65642125
:100AE000006F6B00526573656E643A2000486F7446
:100AF000656E64206F6666736574733A005A204FA2
:100B00006666736574203A20007A5F6D61783A20DA
:100B1000007A5F6D696E3A20005A204F66667365F1
:100B200074005A204F6666736574206F6B004E6FB9
:100B300074207072696E74207265636F7665727965
:100B4000207570005072696E74207265636F7665EF
:100B5000727920757000486F74656E64206F6666E8
:100B6000736574733A007A5F6D696E3A2000795F3D
:100B70006D61783A2000785F6D61783A2000785F87
:100B80006D696E3A2000205A3A0020593A002043FD
:100B90006F756E7420583A200020453A00205A3A6A
:100BA0000020593A00583A004649524D57415245A3
:100BB0005F4E414D453A4D61726C696E2056313B36
:100BC00020537072696E7465722F6772626C206D4B
:100BD000617368757020666F722067656E36204697
:100BE00049524D574152455F55524C3A68747470A2
:100BF000733A2F2F6769746875622E636F6D2F4586
:100C000072696B5A616C6D2F4D61726C696E2F2029
:100C100050524F544F434F4C5F56455253494F4EDD
:100C20003A312E30204D414348494E455F5459508A
:100C3000453A4D656E64656C20455854525544459F
:100C4000525F434F554E543A3220555549443A303D
:100C5000303030303030302D303030302D3030309A
:100C6000302D303030302D3030303030303030308A
:100C70003030300A0020423A0020453A00543A0011
:100C800020573A0020453A00543A002042403A00AA
:100C900020403A00202F003A00205400202F00204E
:100CA000423A00202F006F6B20543A000A0A00538A
:100CB00074616E6461726420446576696174696F01
:100CC0006E3A20000A004D65616E3A20000A00204D
:100CD00020207A3A200000793A2000783A20003F1C
:100CE000537065636966696564206E756D626572CF
:100CF000206F66206C65677320696E206D6F766566
:100D00006D656E74206E6F7420706C6175736162B6
:100D10006C652E0A003F53706563696669656420DF
:100D20005920706F736974696F6E206F7574206FCE
:100D3000662072616E67652E0A003F5370656369B5
:100D400066696564205820706F736974696F6E20DE
:100D50006F7574206F662072616E67652E0A003FA2
:100D60005370656369666965642073616D706C6555
:100D70002073697A65206E6F7420706C6175736181
:100D8000626C652E0A0046756C6C20737570706F0E
:100D900072742061743A20687474703A2F2F33642F
:100DA0007072696E74626F6172642E636F6D2F660C
:100DB0006F72756D2E7068700A004D3438205A2D90
:100DC00050726F6265205265706561746162696C12
:100DD00069747920746573742E20202056657273AF
:100DE000696F6E20322E30300A003F566572626F96
:100DF0007365204C6576656C206E6F7420706C6135
:100E0000757361626C652E0A002569206D696E2C10
:100E100020256920736563004732382058302059F7
:100E20003000456E642066696C65206C69737400DF
:100E3000426567696E2066696C65206C6973740031
:100E40000A00205A3A200020593A200020583A201F
:100E500000426564000A0020616E7469686F726107
:100E600072690A3A200020686F726172690A200074
:100E70002F3800766F6C746573200020566F6C7489
:100E8000657320636172676F6C20333A20002061C4
:100E90006E7469686F726172690A3A200020686F27
:100EA000726172690A20002F3800766F6C74657366
:100EB000200020566F6C74657320636172676F6CDD
:100EC00020323A20000A0020647A333A200020645D
:100ED0007A323A2000543000486F6D6520582F59FF
:100EE000206265666F7265205A000A00207A3A20F7
:100EF0000020793A200020783A20004265640048BA
:100F00006F6D6520582F59206265666F7265205A93
:100F100000457874727564657220616374697665E2
:100F20003A20002200556E6B6E6F776E20636F6DF6
:100F30006D616E643A202200256920686F757273B6
:100F4000202569206D696E7574657300446F6E6548
:100F5000207072696E74696E672066696C65004DF9
:100F600033330070617573652064657465637465FF
:100F700064200A00473639005072696E7465722029
:100F800073746F707065642064756520746F20657C
:100F900072726F72732E20466978207468652065BE
:100FA00072726F7220616E6420757365204D3939DD
:100FB0003920746F20726573746172742E20285406
:100FC000656D7065726174757265206973207265F4
:100FD0007365742E2053657420697420616674658E
:100FE000722072657374617274696E6729006F6B29
:100FF000004E6F204C696E65204E756D62657220E3
:101000007769746820636865636B73756D2C204C19
:10101000617374204C696E653A20004E6F204368FE
:1010200065636B73756D2077697468206C696E6594
:10103000206E756D6265722C204C617374204C6952
:101040006E653A2000636865636B73756D206D692A
:10105000736D617463682C204C617374204C696EED
:10106000653A20004C696E65204E756D6265722090
:101070006973206E6F74204C617374204C696E65C7
:10108000204E756D6265722B312C204C617374207B
:101090004C696E653A20004D313130004D383420B6
:1010A000582059205A20450053757266696E672092
:1010B00030200A0043616C6962726174696F6E204E
:1010C0005375636365737366756C2C20676F696E07
:1010D00067206261636B20746F206D61696E206DA3
:1010E000656E75200A005430002564206974656DB2
:1010F00073002564206974656D730025642069742C
:10110000656D73002534643A252E326468202F20E3
:10111000256467002564206974656D7300526561FC
:10112000647920746F20496E736572742F52656DF7
:101130006F7665200A0074656D70206F6B200A0061
:101140002564252500253364202563430025336469
:101150002025634300253364256343202F20253356
:101160006425634300253364256343202F20253302
:101170006425634300253364256343202F202533F2
:101180006425634300252033642025250025642041
:1011900068202564206D0025203364202525002546
:1011A00032642025634300253364202563430025F2
:1011B00033642025634300526561647920746F2095
:1011C000496E736572742F52656D6F7665200A00E3
:1011D00074656D70206F6B200A00253364202563D1
:1011E000430025336420256343002053544F50208F
:1011F0005052494E54200A00473238205830205966
:1012000030004D333500526573756D65206465742B
:101210006563746564200A0047373000EFBFBD5234
:101220004553554D4521200A00EFBFBD5041555350
:101230004521200A002533642025634300253364BB
:101240002025634300253364202563430025336450
:101250002025634300253364202563430025336440
:101260002025634300253364202563430025336430
:1012700020256343002533642025634300505249F1
:101280004E542053455454494E4753200A00446F4E
:101290006E6520736176696E672066696C652E00E5
:1012A0006F6B004D32390054652070696C6C6500BD
:1012B00073746172740030312D312E322E325243EC
:1012C000002200656E717565696E6720220022003C
:1012D000656E717565696E6720220025336420256F
:1012E0006343002533642025634300456E746572B3
:1012F00020696E207075726765206D6F6465200AC5
:101300000053757266696E672031200A005375724A
:1013100066696E672030200A0047333400494E4624
:101320004F3A204245442043414C4942202D200061
:1013300053757266696E672030200A004732382084
:1013400058302059300054300053757266696E670A
:101350002030200A0047343300473433004D3834FE
:1013600000473431004D38340047343000543100E8
:101370005430005430005431005431005430005483
:10138000300054310047343300473433004D383493
:1013900000473431004D383400473430004D383484
:1013A000004D3834004D3834005A32204F66667391
:1013B00065743A20004F4B207365636F6E6420455F
:1013C0007874727564657221005A20706F73697445
:1013D000696F6E3A20005A20706F736974696F6E7E
:1013E0003A20004D3834005A312050726F62652027
:1013F0006F66667365743A20004F4B20666972739E
:101400007420457874727564657221200A005A2030
:10141000706F736974696F6E3A20005A20706F7331
:101420006974696F6E3A200043616C63756C757303
:101430003A20200043616C63756C75733A2020007C
:1014400043616C63756C75733A20200043616C6373
:10145000756C75733A20200043616C63756C75730D
:101460003A20200043616C63756C75733A2020004C
:1014700043616C63756C75733A20200043616C6343
:10148000756C75733A20200043616C63756C7573DD
:101490003A20200043616C63756C75733A2020001C
:1014A00043616C63756C75733A20200043616C6313
:1014B000756C75733A20200043616C63756C7573AD
:1014C0003A20200043616C63756C75733A202000EC
:1014D00043616C63756C75733A20200043616C63E3
:1014E000756C75733A20200043616C63756C75737D
:1014F0003A20200043616C63756C75733A202000BC
:1015000043616C63756C75733A20200043616C63B2
:10151000756C75733A20200043616C63756C75734C
:101520003A20200043616C63756C75733A2020008B
:1015300043616C63756C75733A20200043616C6382
:10154000756C75733A20200043616C63756C75731C
:101550003A20200043616C63756C75733A2020005B
:1015600043616C63756C75733A20200043616C6352
:10157000756C75733A20200043616C63756C7573EC
:101580003A20200043616C63756C75733A2020002B
:1015900043616C63756C75733A20200043616C6322
:1015A000756C75733A20200043616C63756C7573BC
:1015B0003A20200043616C63756C75733A202000FB
:1015C00046696C616D656E742052656D6F766564F9
:1015D0002C20474F494E4720544F20434C45414E05
:1015E00020544845204E4F5A5A454C200A0046691F
:1015F0006C616D656E7420496E7365727465642FDD
:1016000052656D6F7665642C2072657475726E69B3
:101610006E6720746F204D61696E204D656E752078
:101620000A0054300046696C616D656E7420496E25
:101630007365727465642F52656D6F7665642C20D6
:10164000676F696E6720746F2043616C6962200A5E
:101650000054300046696C616D656E7420496E738C
:1016600065727465642F52656D6F7665642C2067B2
:101670006F696E6720746F20746865206E6578747A
:10168000206578747275646572200A0054300043D6
:10169000616C6962726174696F6E20537563636512
:1016A000737366756C2C20676F696E672062616367
:1016B0006B20746F206D61696E206D656E75200AF8
:1016C000005430004A756D70206F76657220736328
:1016D0007265773120616E642073637265773220A2
:1016E0000A004A756D70206F7665722073637265AB
:1016F0007731200A00473334005430004733340038
:1017000054300047333400543000543000473334F1
:1017100000494E464F3A204245442043414C4942FD
:10172000202D200036302064656772656573200ABD
:1017300000496E73657274696E67203A2020200A32
:101740000053757266696E672030200A0053757207
:1017500066696E672030200A0053757266696E678D
:101760002030200A0025336420256343002533649C
:1017700020256343002533642025634300456E74B0
:10178000657220696E207075726765206D6F646583
:10179000200A002533642025634300253364202577
:1017A00063430025336420256343002533642025EB
:1017B00063430025336420256343002533642025DB
:1017C00063430025336420256343002533642025CB
:1017D00063430046696C616D656E742052656D6F80
:1017E0007665642C20474F494E4720544F20434C88
:1017F00045414E20544845204E4F5A5A454C200AE8
:101800000053757266696E672030200A0053757246
:1018100066696E672030200A0054300054652070DD
:10182000696C6C65004D33340053757266696E6780
:101830002030200A004D3234004D32332025730011
:1018400053757266696E672030200A002534643A49
:10185000252E326468202F2025646700002534641B
:101860003A252E326468202F202564670000253435
:10187000643A252E326468202F20256467000025F5
:1018800034643A252E326468202F202564670000D6
:101890002534643A252E326468202F2025646700A1
:1018A0000053757266696E672030200A00535543F5
:1018B00043455353200A0025336420256343002504
:1018C00033642025634300253364202563430025CA
:1018D00033642025634300253364202563430025BA
:1018E00033642025634300253364202563430025AA
:1018F0003364202563430025336420256343004976
:101900006E73657274696E67203A2020200A002584
:101910003364202563430025336420256343002579
:1019200033642025634300456E74657220696E2020
:101930007075726765206D6F6465200A00FF01FF96
:101940000000A0400000A04000000040CDCC984323
:101950000080934300005243000000000080934346
:1019600000000000CDCC9843008093430000524318
:101970000000000000000000000000006563686FC8
:101980003A004572726F723A0020636F6C64206592
:101990007874727573696F6E2070726576656E7497
:1019A0006564006563686F3A003B202020506C61DD
:1019B00073746963207765696768743A2025642EBB
:1019C000256467003B46696C616D656E74207573B4
:1019D00065643A2025642E25646D2025642E2564D7
:1019E00067003B2020204275696C642074696D6536
:1019F0003A20256420686F7572202564206D696E19
:101A0000757465003B2020204275696C6420746900
:101A10006D653A20256420686F7572202564206DFD
:101A2000696E75746573003B2020204275696C6493
:101A30002074696D653A20256420686F7572732083
:101A40002564206D696E757465003B202020427509
:101A5000696C642074696D653A20256420686F752F
:101A60007273202564206D696E75746573003B5038
:101A700072696E742074696D653A202564206D6901
:101A80006E75746573003B5072696E742074696D75
:101A9000653A20256420686F7572202564206D6981
:101AA0006E75746573003B5072696E742074696D55
:101AB000653A20256420686F757273202564206D57
:101AC000696E75746573003B5072696E7420746939
:101AD0006D653A202564206461797320256420684F
:101AE0006F7572202564206D696E75746573003B97
:101AF0005072696E742074696D653A2025642064A3
:101B0000617920256420686F7572202564206D69D5
:101B10006E75746573003B5072696E742074696DE4
:101B2000653A2025642064617920256420686F75FA
:101B30007273202564206D696E75746573003B5067
:101B400072696E742074696D653A20256420646141
:101B5000797320256420686F757273202564206D69
:101B6000696E75746573003B20472D436F64652073
:101B700067656E6572617465642062792053696D72
:101B8000706C6966793344285229205665727369EE
:101B90006F6E202564007C3C3E5E2B3D3F2F5B5DDD
:101BA0003B2C2A225C00205A3A0020593A00205847
:101BB0003A00656E6473746F7073206869743A20BC
:101BC0000024F4D43050C38E20C2A24017828B7000
:101BD00011127A910D816CD90AA861E108C7586683
:101BE00007615143061E4B5D05C145A7041A41110B
:101BF00004093D9803713931034036DB02653391A6
:101C000002D4305402802E1D02632CEE01752AC5C9
:101C100001B028A001102781018F2564012B244BDE
:101C200001E0223401AC211F018D200D01801FFC39
:101C300000841EED00971DDF00B81CD200E61BC615
:101C400000201BBC00641AB200B219A8000A19A037
:101C5000006A189900D117910040178B00B51684BF
:101C60000031167E00B31579003A157300C7146F62
:101C70000058146A00EE1366008813630025135E93
:101C800000C7125B006C12570015125400C11151AD
:101C90000070114F0021114B00D61049008D1047E4
:101CA000004610440002104200C00F4000800F3E6A
:101CB00000420F3C00060F3B00CB0E3800930E375E
:101CC000005C0E3500270E3400F30D3200C10D31DB
:101CD00000900D3000600D2E00320D2D00050D2CF2
:101CE00000D90C2B00AE0C2900850C29005C0C27B8
:101CF00000350C27000E0C2600E80B2400C40B2432
:101D000000A00B23007D0B23005A0B2100390B216F
:101D100000180B2000F80A1F00D90A1E00BB0A1E7B
:101D2000009D0A1D00800A1D00630A1C00470A1B53
:101D3000002C0A1B00110A1A00F7091A00DD091904
:101D400000C4091900AB091900920917007B091892
:101D500000630917004C0916003609160020091601
:101D6000000A091500F5081500E0081400CC081455
:101D700000B8081400A4081400900813007D08128D
:101D8000006B0813005808120046081200340811AE
:101D900000230811001208110001081100F00710BB
:101DA00000E0071000D0071000C0071000B0070FB8
:101DB00000A107100091070E0083070F0074070FA2
:101DC0000065070E0057070E0049070E003B070D80
:101DD000002E070E0020070D0013070D0006070D4B
:101DE00000F9060C00ED060D00E0060C00D4060C10
:101DF00000C8060C00BC060C00B0060C00A4060BC4
:101E00000099060C008D060B0082060B0077060B6E
:101E1000006C060B0061060A0057060B004C060A10
:101E20000042060A0038060A002E060A0024060AA6
:101E3000001A060A001006090007060A00FD050937
:101E400000F4050900EB050900E2050900D90509C0
:101E500000D0050900C7050900BE050900B5050841
:101E600000AD050800A50509009C050800940508BB
:101E7000008C050800840508007C0508007405082E
:101E8000006C050700650508005D0507005605089C
:101E9000004E050700470507004005080038050704
:101EA00000310507002A050700230507001C050669
:101EB00000160507000F05070008050600020507C4
:101EC00000FB040600F5040700EE040600E8040623
:101ED00000E2040700DB040600D5040600CF040678
:101EE00000C9040600C3040600BD040600B70406CA
:101EF00000B1040500AC040600A6040600A0040519
:101F0000009B04060095040500900406008A040561
:101F10000085040500800406007A040500750405A8
:101F200000700405006B04050066040500610405EB
:101F3000005C04050057040500520405004D04052B
:101F40000048040500430405003E0404003A04056B
:101F50000035040500300404002C040500270404A7
:101F600000230405001E0404001A040400160405DE
:101F700000110404000D0404000904050004040415
:101F80000000040400FC030400F8030400F403044C
:101F900000F0030400EC030400E8030400E403047D
:101FA00000E0030400DC030400D8030400D40304AD
:101FB00000D0030400CC030400C8030300C50303DE
:101FC0000024F404D9201BC40C5C0E9804C4095FDF
:101FD0000265077101F405F900FB04B300480487AA
:101FE00000C10369005803550003034500BE023ACF
:101FF000008402310053022A002902250004022035
:1020000000E4011C00C8011900AF01170098011479
:102010000084011300710110006101100051010ED4
:102020000043010D0036010B002B010B0020010BBA
:1020300000150109000C01090003010800FB00085C
:1020400000F3000800EB000700E4000600DE0006D5
:1020500000D8000600D2000600CC000500C700052D
:1020600000C2000500BD000400B9000400B5000472
:1020700000B1000400AD000400A9000400A50003A5
:1020800000A20003009F0004009B000300980003CF
:10209000009500020093000300900003008D0002F1
:1020A000008B000300880002008600020084000309
:1020B00000810002007F0002007D0002007B000220
:1020C000007900020077000100760002007400022F
:1020D0000072000100710002006F0002006D00013B
:1020E000006C0002006A0001006900020067000144
:1020F000006600010065000100640002006200014A
:102100000061000100600001005F0002005D00014D
:10211000005C0001005B0001005A00010059000151
:102120000058000100570001005600010055000151
:102130000054000100530000005300010052000150
:102140000051000100500001004F0001004E00004E
:10215000004E0001004D0001004C0001004B00004A
:10216000004B0001004A0001004900010048000046
:102170000048000100470001004600000046000141
:10218000004500000045000100440001004300003C
:102190000043000100420000004200010041000035
:1021A0000041000100400001003F0000003F00012D
:1021B000003E0000003E0001003D0000003D000127
:1021C000003C0000003C0000003C0001003B00001F
:1021D000003B0001003A0000003A00010039000015
:1021E000003900010038000000380000003800010C
:1021F0000037000000370001003600000036000004
:1022000000360001003500000035000000350001F7
:1022100000340000003400000034000100330000EE
:1022200000330000003300010032000000320000E3
:1022300000320001003100000031000000310001D7
:10224000003000000030000000300001002F0000CE
:10225000002F0000002F0000002F0001002E0000C2
:10226000002E0000002E0001002D0000002D0000B7
:10227000002D0000002D0001002C0000002C0000AB
:10228000002C0000002C0001002B0000002B00009F
:10229000002B0000002B0001002A0000002A000093
:1022A000002A0000002A0001002900000029000087
:1022B000002900000029000000290001002800007A
:1022C000002800000028000000280000002800016D
:1022D0000027000000270000002700000027000062
:1022E0000027000100260000002600000026000054
:1022F0000026000000260001002500000025000047
:102300000025000000250000002500000025000138
:10231000002400000024000000240000002400002D
:10232000002400010023000000230000002300001F
:102330000023000000230000002300000023000110
:102340000022000000220000002200000022000005
:1023500000220000002200010021000000210000F6
:1023600000210000002100000021000000210000E9
:1023700000210001002000000020000000200000DB
:1023800000200000002000000020000000200000CD
:1023900000200001001F0000001F0000001F0000BF
:1023A000001F0000001F0000001F0000001F0001B0
:1023B000001E0000001E0000001E0000001E0000A5
:1023C000006563686F3A00546865726D616C2052F5
:1023D000756E617761792C2073797374656D2073E4
:1023E000746F7070656421204865617465725F491F
:1023F000443A20002053544F50205052494E54200C
:102400000A002053544F50205052494E54200A0085
:102410002053544F50205052494E54200A004572C8
:10242000726F72283833293A2042656420746865D7
:10243000726D6973746F72206E6F74206465746559
:1024400063746564004572726F72283832293A20CD
:10245000526967687420746865726D6973746F720D
:10246000206E6F74206465746563746564004572E2
:10247000726F72283831293A204C6566742074686E
:1024800065726D6973746F72206E6F74202064655D
:1024900074656374656400504944204175746F74B9
:1024A000756E652066696E697368656421005049C0
:1024B00044204175746F74756E65206661696C6542
:1024C00064212074696D656F75740020403A006F57
:1024D0006B20543A006F6B20423A0050494420412F
:1024E00075746F74756E65206661696C6564212012
:1024F00054656D706572617475726520746F6F20BC
:102500006869676800204B643A2000204B693A20D4
:1025100000204B703A200020436C61737369632084
:1025200050494420002054753A2000204B753A2031
:1025300000206D61783A2000206D696E3A200020FD
:10254000643A200020626961733A200050494420B7
:102550004175746F74756E652066696E6973686520
:1025600064212050757420746865206C6173742038
:102570004B702C204B6920616E64204B6420636F8C
:102580006E7374616E74732066726F6D2061626F1A
:10259000766520696E746F20436F6E666967757229
:1025A0006174696F6E2E6800504944204175746FE4
:1025B00074756E65206661696C6564212074696D4F
:1025C000656F75740020403A006F6B20543A006FBD
:1025D0006B20423A00504944204175746F74756E07
:1025E00065206661696C6564212054656D70657253
:1025F000617475726520746F6F2068696768002068
:102600004B643A2000204B693A2000204B703A205E
:102610000020436C6173736963205049442000209B
:1026200054753A2000204B753A2000206D61783AAD
:102630002000206D696E3A200020643A200020625C
:102640006961733A20004572726F723A0070012C12
:102650000190012701B0012201C0011D01F0011804
:10266000011002130130020E016002090190020400
:1026700001C002FF000003FA004003F5008003F0F0
:1026800000D003EB002004E6007004E100E004DC6D
:10269000004005D700C005D2004006CD00D006C8D6
:1026A000008007C3003008BE00F008B900C009B4BC
:1026B00000B00AAF00B00BAA00D00CA500000EA01D
:1026C00000500F9B00C01096005012910000148C17
:1026D00000C0158700B0178200B0197D00D01B78AC
:1026E00000001E730040206E0090226900F02464F8
:1026F0000040275F0090295A00E02B5500102E5013
:102700000020304B0010324600E033410090353C51
:10271000001037370070383200A0392D00B03A2849
:1027200000A03B2300603C1E00103D1900903D14AA
:1027300000103E0F00703E0A00C03E0500003F0042
:102740000000000A0B02090C0D0E0807030401002B
:102750000000000000000000000000000000000079
:102760000000000000000000000000000012111036
:102770000000000000000000000000000000000059
:1027800000000000000000010210202008081020B6
:1027900040102040800201020108040201010204ED
:1027A00008102040808040201008040201800402AC
:1027B0000180402010080402010804020101020403
:1027C0000810204080010204081020408005050503
:1027D00005070508080808020202020A0A08080498
:1027E00004040401010101010101010303030303C6
:1027F000030303040707070C0C0C0C0C0C0C0C0255
:1028000002020206060606060606060B0B0B0B0B5B
:102810000B0B0B000020002300260029002C002FAA
:10282000003200000100000301060109010000223E
:1028300000250028002B002E00310034000201008A
:1028400000050108010B0100002100240027002AD7
:10285000002D003000330001010000040107010ACF
:10286000014E414E494E495459494E46CDCCCC3D7E
:102870000AD7233C17B7D13877CC2B329595E6246D
:102880001FB14F0A000020410000C84200401C4612
:1028900020BCBE4CCA1B0E5AAEC59D746364696EE3
:1028A0006F70737578585B0022150A3ED5002101C0
:1028B000FB00030111241FBECFEFD1E2DEBFCDBF6D
:1028C00000E00CBF19E0A0E0B2E0ECE3F8E503E0C3
:1028D0000BBF02C007900D92A03BB107D9F72CE1C6
:1028E000A0EBB9E001C01D92AF32B207E1F718E2E8
:1028F000C2EBD8E200E006C022970109FE010BBF3F
:102900000F945AA0C83AD10780E00807A9F70F949E
:102910000F970D940CAC0C9400008091DF0990E0AF
:102920002091E009821B910908952091E00980918E
:10293000DF09281750F4E22FF0E0EF51F64F8081C5
:1029400090E02F5F2093E00908958FEF9FEF0895A7
:10295000E091E0098091DF09E81730F4F0E0EF51F1
:10296000F64F808190E008958FEF9FEF08950895CE
:10297000CF92DF92EF92FF920F931F93CF93DF934B
:102980007C01CB018A012091BC09222389F0EB0153
:102990006B01C40ED51ECC15DD0561F06991D70120
:1029A000ED91FC910190F081E02DC7011995F3CFD5
:1029B000642F4BD0C801DF91CF911F910F91FF90F1
:1029C000EF90DF90CF900895CF93DF931F92CDB714
:1029D000DEB769832091BC092223D1F02091BD0983
:1029E000203240F021E030E0FC013383228380E09C
:1029F00090E014C08091BE09E82FF0E0E154F64F5A
:102A0000998190838F5F8093BE098093BD0904C034
:102A100061E0CE01019619D081E090E00F90DF9146
:102A2000CF910895FC011382128248EE53E060E0DA
:102A300070E0448355836683778382E593E09183D6
:102A40008083089580EB99E0EDCF613298F4209176
:102A50006E0A243089F46093230AFC0185E29AE02F
:102A6000DC012A2F281B261718F421912D93F9CF6A
:102A700080E0089581E0089582E0089585ED8093D7
:102A8000BC008091BC0084FDFCCF10926E0A0895BA
:102A900085EC8093BC0010926E0A08951F920F92ED
:102AA0000FB60F9211240BB60F922F933F934F93B3
:102AB0005F936F937F938F939F93AF93BF93EF93A6
:102AC000FF938091B900887F803609F49DC070F52E
:102AD000883209F45CC090F4803109F455C038F4B0
:102AE000882309F4F3C0883009F44EC0F2C088315D
:102AF00009F44DC0803209F45EC0EBC0803409F4A3
:102B000069C050F4803309F456C0883309F0E1C03D
:102B10008093010ABDDFDDC0803509F44FC08835E0
:102B200009F45DC0883409F0D4C0D2C0883909F4F2
:102B3000C3C0A8F4883709F467C038F4883609F4AC
:102B400063C0803709F460C0C4C0883809F4B4C0D9
:102B5000803909F45FC0803809F0BBC05BC0803B9E
:102B600009F482C038F4803A09F466C0883A09F45E
:102B70007BC0AFC0803C09F4A3C0883C09F4A0C06E
:102B8000883B09F486C0A5C080916D0A10C0909161
:102B9000460A8091450A981770F5E091460A81E04F
:102BA0008E0F8093460AF0E0E95BF54F80818093B9
:102BB000BB0085EC82C08093010A8AC0E091460A7E
:102BC00081E08E0F8093460A8091BB00F0E0E95BC4
:102BD000F54F80839091460A8091450A6AC0E09142
:102BE000460A81E08E0F8093460A8091BB00F0E098
:102BF000E95BF54F808380916C0A811169C081E0A7
:102C000080936B0A84EA5DC083E080936E0A109221
:102C1000020ACFCF8091020A803208F04DC0E091C5
:102C2000020A81E08E0F8093020A8091BB00F0E0DF
:102C3000ED5FF54F8083BDCF2BDF8091020A80329C
:102C400030F4E091020AF0E0ED5FF54F1082609100
:102C5000020A70E0E091670AF091680A83E09AE066
:102C600019951092020A35C084E080936E0A109282
:102C7000240A1092230AE091690AF0916A0A1995D0
:102C80008091230A811105C081E08093230A10926C
:102C9000250AE091240A81E08E0F8093240AF0E057
:102CA000EB5DF54F80818093BB009091240A809169
:102CB000230A981708F47DCF85E88093BC0009C0EB
:102CC00085EC8093BC0010926E0A03C01092010A3A
:102CD000D5DEFF91EF91BF91AF919F918F917F9141
:102CE0006F915F914F913F912F910F900BBE0F907D
:102CF0000FBE0F901F901895FC011482178213824B
:102D0000128287E798E0918380830895DC01ED913A
:102D1000FC910190F081E02D199427E738E0FC0147
:102D2000318320832781222319F004960D947E633A
:102D30000895CF92DF92EF92FF920F931F93CF935C
:102D4000DF93EC01895A9F4FD7DFCE0188589F4F00
:102D5000D3DF7E0127E9E20EF11C87016E0133E328
:102D6000C31A3EEFD30AC801C7DF015E1F4F0C151F
:102D70001D05C9F7FE01E153FE4F89E181831482ED
:102D80003596178ACE018E509E4FB6DFFE01ED5567
:102D9000FD4F1082118212821382389610821182A6
:102DA000128213821A821B821C82188219826E017F
:102DB00089E5C81A8DEFD80AF601108211821282B5
:102DC0001382F80111821082FE01EF5EFD4F108226
:102DD00086E391E0F7019C01119221503040E1F728
:102DE000FE01E155FD4F81E08083CB5ADF4F198210
:102DF00018820F94D29168577C4E8F4F9F4FF601E7
:102E00006083718382839383DF91CF911F910F91B0
:102E1000FF90EF90DF90CF900895FC0120E03EE21C
:102E2000DB014C91403241F0283011F4308331966F
:102E3000DB014C91408331962F5F6F5F7F4F2B30CA
:102E400079F7108208952F923F924F925F926F927E
:102E50007F928F929F92AF92BF92CF92DF92EF922A
:102E6000FF920F931F93CF93DF93CDB7DEB7C85870
:102E7000D1090FB6F894DEBF0FBECDBF8C016B0138
:102E80007A01CA57DF4F1882C658D04084E0E80E56
:102E9000F11C180192E1290E311CF801EC5AFF4F88
:102EA000C957DF4FF983E883C758D0405801F0E590
:102EB000AF1AFDEFBF0A38018EE4681A8DEF780A69
:102EC00080E4482E512C4C0E5D1E94E0490E511C9E
:102ED000A101BE016F5F7F4FC7010F94E861181613
:102EE0000CF009C12C85322F3871303109F091C0B6
:102EF000F501808191810197029708F48AC0BE0193
:102F00006F5F7F4FCE0187589F4F87DFA0961FAE20
:102F1000A097F6018081811107C06EE573E0CE01B4
:102F2000815A9F4F0F9484A5B601CE01815A9F4FBD
:102F30000F9484A5BE0167587F4FCE01815A9F4FE1
:102F40000F9484A56EE573E0CE01815A9F4F0F94D4
:102F500084A5CE01805C9F4FCFDE21E0AE014758B3
:102F60005F4FB701C2010F94756581112EC0F50145
:102F700080819181892B49F5E3E8F4E064914F0168
:102F8000662361F0772767FD70958FEE9AE1BEDECC
:102F9000FFEF8F1A9F0AF4016491F2CF60E673E0AD
:102FA0008FEE9AE10F9459976AE070E08FEE9AE104
:102FB000ADDEBE0167587F4F8FEE9AE10F945997AF
:102FC0006AE070E08FEE9AE1A1DE8BE1FE01EC5B3E
:102FD000FF4FDE01959601900D928A95E1F72496B8
:102FE0008EAD9FAD24979CA38BA387E798E09AA30F
:102FF00089A3AE014F5D5F4FBE01615A7F4FC8018B
:1030000022DFCE01819689DECE01805C9F4F85DE76
:103010005FCF8981882309F46EC0853E09F458CFBB
:103020008E3209F455CF8F3509F452CFF8018289D9
:10303000882331F08E3209F44BCF8F3509F448CF15
:1030400023FD46CF81E0303109F080E0C957DF4FE2
:10305000E881F981C758D0408083811108C08985F3
:10306000873409F035CF8A858E3709F431CF48018E
:10307000F5E08F0E911CBE016F5F7F4FC401CDDE66
:10308000F50180819181009781F4B6018FEE9AE17C
:103090000F945997B4018FEE9AE10F9459976AE013
:1030A00070E08FEE9AE132DE13CF8130910539F472
:1030B000F3018081918101969183808309CF0297EA
:1030C00009F006CFCA57DF4FF881C658D0402F2FDE
:1030D00030E0F301808191812817390761F0CA57E8
:1030E000DF4FF881C658D040FF5FCA57DF4FF883E3
:1030F000C658D040EDCEC857DF4F0FB6F894DEBFAC
:103100000FBECDBFDF91CF911F910F91FF90EF9038
:10311000DF90CF90BF90AF909F908F907F906F90F7
:103120005F904F903F902F9008950F931F93CF93F0
:10313000DF93CDB7DEB76F970FB6F894DEBF0FBE43
:10314000CDBF8C01FC01E055FD4F1182108240E0A3
:1031500050E0BA01855A9F4F0F949B62C801895A6B
:103160009F4F2BE1FC013496DE01159601900D92E4
:103170002A95E1F7FC01828193819C838B8387E709
:1031800098E09A838983AE014F5F5F4F62EA79E0EE
:10319000C80159DECE010196C0DD6F960FB6F894D6
:1031A000DEBF0FBECDBFDF91CF911F910F9108956C
:1031B0002BE1FB013496DC01149601900D922A95C7
:1031C000E1F7FB0122813381FC01338322830895DF
:1031D000EF92FF920F931F93CF93DF93EC011C822A
:1031E000FC01E25AFF4F8081882329F0CE01855AE5
:1031F0009F4F0F947E637E0181E3E81A8EEFF80AF9
:1032000045E360E0C7010F94FF5D81113AC0E3E838
:10321000F4E064918F01662359F0772767FD70957C
:103220008FEE9AE173DD0F5F1F4FF8016491F3CFCA
:10323000E6E7F4E064918F01662359F0772767FD94
:1032400070958FEE9AE162DD0F5F1F4FF801649178
:10325000F3CF6AE070E08FEE9AE158DD8E01095AF3
:103260001F4FB801CE0188589F4FA2DFCA58DF4FC9
:1032700019830883DF91CF911F910F91FF90EF90F9
:1032800008958E010C521E4F41E0B701C8010F9402
:10329000686B81112AC040E0B701C8010F94686BC8
:1032A000811123C0E9E8F4E064918F01662359F0AD
:1032B000772767FD70958FEE9AE128DD0F5F1F4F2E
:1032C000F8016491F3CFE3E6F4E064918F016623A3
:1032D00009F4BFCF772767FD70958FEE9AE116DD71
:1032E0000F5F1F4FF8016491F2CFB801CE01855AEC
:1032F0009F4F0F948C60811123C0E9E8F4E0649142
:103300008F01662359F0772767FD70958FEE9AE15C
:10331000FDDC0F5F1F4FF8016491F3CFE3E5F4E0AC
:1033200064918F01662309F494CF772767FD709528
:103330008FEE9AE1EBDC0F5F1F4FF8016491F2CF43
:1033400081E08C83E3E8F4E064918F01662359F017
:10335000772767FD70958FEE9AE1D8DC0F5F1F4FDE
:10336000F8016491F3CFE8E4F4E064918F016623FF
:1033700009F46FCF772767FD70958FEE9AE1C6DC71
:103380000F5F1F4FF8016491F2CFFC01128214828B
:103390000895CF93DF93EC018C818823B9F063E724
:1033A00073E08FEE9AE10F9459974091680D509118
:1033B000690D60916A0D70916B0D22E030E08FEE27
:1033C0009AE10F94439981E08A831B82DF91CF9128
:1033D0000895FC018281882319F0128281E08383A1
:1033E0000895AF92BF92CF92DF92EF92FF920F9328
:1033F0001F93CF93DF931F92CDB7DEB78C018FE27F
:10340000FB0181935F01D12C41E07801F3E3EF1AD6
:10341000FEEFFF0A9FE1C92E2D2D30E0F7018081DC
:10342000918128173907D8F4C29EC001C39E900D20
:10343000112485569F4FB501800F911F49830F942A
:103440003360C50149815C010196F5012081222389
:1034500021F04D3810F44F5FF6CFD394DDCF47FD08
:1034600011C0B501C8018A509E4F0F90DF91CF91D6
:103470001F910F91FF90EF90DF90CF90BF90AF9092
:103480000D943360F50110820F90DF91CF911F9161
:103490000F91FF90EF90DF90CF90BF90AF90089585
:1034A0003F924F925F926F927F928F929F92AF92D4
:1034B000BF92CF92DF92EF92FF920F931F93CF9321
:1034C000DF93CDB7DEB7AC970FB6F894DEBF0FBE73
:1034D000CDBF8C016B01342EFC018481882309F45B
:1034E000D0C2E750FE4F8081882309F407C1211123
:1034F000D1C07801FFEEEF1AFDEFFF0AF7018081DE
:10350000882309F432C0E9E8F4E064918F0166236E
:1035100059F0772767FD70958FEE9AE1F7DB0F5F23
:103520001F4FF8016491F3CFE5E0F4E064918F015F
:10353000662359F0772767FD70958FEE9AE1E6DBF9
:103540000F5F1F4FF8016491F3CF4AE050E061E054
:1035500070E08FEE9AE10F9408986AE070E08FEEC9
:103560009AE1D4DB0E94B09F8CC2E3E8F4E064915E
:103570005F01662361F0772767FD70958FEE9AE112
:10358000C5DBFFEFAF1ABF0AF5016491F2CFECEE95
:10359000F3E064915F01662361F0772767FD709522
:1035A0008FEE9AE1B3DBFFEFAF1ABF0AF50164912A
:1035B000F2CFB6018FEE9AE10F945997E1EEF3E066
:1035C00064915F01662361F0772767FD70958FEE48
:1035D0009AE19CDBFFEFAF1ABF0AF5016491F2CFCD
:1035E000F70180812DE8B22EB801B89E600D711DE3
:1035F00011246A5E7D4FC801F4DEF7018081B801B5
:10360000B89E600D711D11246A5E7D4F8FEE9AE1A8
:103610000F945997EBEDF3E064915F01662361F03D
:10362000772767FD70958FEE9AE170DBFFEFAF1A99
:10363000BF0AF5016491F2CF5801F5E5AF1AFDEF2D
:10364000BF0AF50140815181628173812AE030E037
:103650008FEE9AE10F9435986AE070E08FEE9AE170
:1036600055DBF7012081F80184E0289FE00DF11D72
:103670001124AF014E5E5D4FF50180819181A281E1
:10368000B381FA0180839183A283B3832F5FF70113
:1036900020832EC0E3E8F4E064917F01662361F0AB
:1036A000772767FD70958FEE9AE130DBFFEFEF1A19
:1036B000FF0AF7016491F2CFEAECF3E064917F0135
:1036C000662361F0772767FD70958FEE9AE11EDB28
:1036D000FFEFEF1AFF0AF7016491F2CFB6018FEE08
:1036E0009AE10F9459976AE070E08FEE9AE10EDB51
:1036F000C8018A509E4F0F947E6332C0F801EF5E7E
:10370000FD4F1082E3E8F4E064917F01662361F0ED
:10371000772767FD70958FEE9AE1F8DAFFEFEF1AE1
:10372000FF0AF7016491F2CFE9EBF3E064917F01C6
:10373000662361F0772767FD70958FEE9AE1E6DAF0
:10374000FFEFEF1AFF0AF7016491F2CFB6018FEE97
:103750009AE10F9459976AE070E08FEE9AE1D6DA19
:10376000F8011282CE0101965C01C6DA280196E7C3
:10377000490E511CC801895A9F4FF20191838083E1
:10378000F60180818F3209F07BC06FE270E0C601E4
:103790000F948FA501967C01E114F10409F476C021
:1037A0006FE270E0C7010F948FA54C01009709F4F8
:1037B0006EC0E816F90608F06AC03C016E187F0872
:1037C000A301B701CE0180960F94B8A5E0E2F0E026
:1037D000EC0FFD1FE60DF71D1082BE01605E7F4FEE
:1037E0008FEE9AE10F9459976AE070E08FEE9AE1BC
:1037F0008DDAF201608171816115710519F06C5FDC
:103800007F4F02C060E070E021E0AE01405E5F4F9C
:10381000CE0105960F94756581112AC0E5EAF3E0A3
:1038200064918F01662359F0772767FD70958FEEBD
:103830009AE16CDA0F5F1F4FF8016491F3CFBE017C
:10384000605E7F4F8FEE9AE10F945997E3EAF3E0C1
:1038500064918F01662309F40DC1772767FD709588
:103860008FEE9AE153DA0F5F1F4FF8016491F2CFA8
:10387000F201B182A0827401FFEFEF1AFF0A8CCF30
:10388000C80188589F4FF201918380837601C80157
:103890008A509E4F4C01F20160817181332009F4FE
:1038A0009AC06115710519F06C5F7F4F02C060E02E
:1038B00070E021E0A701C4010F947565882309F425
:1038C00062C0F40181899289A389B489F801ED5518
:1038D000FD4F80839183A283B383E5E9F3E0649194
:1038E0004F01C8018D559D4F6C01662361F077270C
:1038F00067FD70958FEE9AE109DA9FEF891A990AB0
:10390000F4016491F2CFB7018FEE9AE10F945997C9
:10391000EDE8F3E064917F01662361F0772767FDAE
:1039200070958FEE9AE1F2D9FFEFEF1AFF0AF701D7
:103930006491F2CFF60140815181628173812AE066
:1039400030E08FEE9AE10F9435986AE070E08FEEE8
:103950009AE1DCD9F801E555FD4F108211821282FF
:103960001382EFE7F3E064918F01662309F482C0CC
:10397000772767FD70958FEE9AE1C8D90F5F1F4FCB
:10398000F8016491F2CFEBE6F3E064918F016623D6
:1039900059F0772767FD70958FEE9AE1B7D90F5FE1
:1039A0001F4FF8016491F3CFB7018FEE9AE10F94A6
:1039B0005997E9E6F3E064918F01662309F45AC050
:1039C000772767FD70958FEE9AE1A0D90F5F1F4FA3
:1039D000F8016491F2CF6115710519F06C5F7F4FAA
:1039E00002C060E070E026E5A701C4010F94756590
:1039F000811127C0E5E5F3E064918F01662359F05A
:103A0000772767FD70958FEE9AE180D90F5F1F4F82
:103A1000F8016491F3CFB7018FEE9AE10F945997B3
:103A2000E3E5F3E064918F01662321F1772767FDD9
:103A300070958FEE9AE16AD90F5F1F4FF80164917C
:103A4000F3CF81E0F8018083E1E4F3E064918F013A
:103A5000662359F0772767FD70958FEE9AE156D966
:103A60000F5F1F4FF8016491F3CFB6018FEE9AE11B
:103A70000F9459976AE070E08FEE9AE147D9C5013B
:103A80004CD9AC960FB6F894DEBF0FBECDBFDF9118
:103A9000CF911F910F91FF90EF90DF90CF90BF904B
:103AA000AF909F908F907F906F905F904F903F90DE
:103AB000089521E0FC01218340E0F2CC4F925F9217
:103AC0006F927F928F929F92AF92BF92CF92DF922E
:103AD000EF92FF920F931F93CF93DF93CDB7DEB793
:103AE000AC970FB6F894DEBF0FBECDBF7C015B0173
:103AF000FC018481882309F4F9C0C7018A509E4FD4
:103B00000F947E63F7011282CE0101966C01F4D806
:103B1000270196E7490E511CC701895A9F4FF201B0
:103B200091838083F50180818F3209F077C06FE245
:103B300070E0C5010F948FA58C010F5F1F4F09F432
:103B400073C06FE270E0C8010F948FA54C0100971D
:103B500009F46BC00817190708F067C03C01601A28
:103B6000710AA301B801CE0180960F94B8A5E0E2D6
:103B7000F0E0EC0FFD1FE60DF71D1082BE01605E48
:103B80007F4F8FEE9AE10F9459976AE070E08FEEC5
:103B90009AE1BCD8F201608171816115710519F05B
:103BA0006C5F7F4F02C060E070E021E0AE01405EDC
:103BB0005F4FCE0105960F94756581112AC0EDE225
:103BC000F3E064918F01662359F0772767FD7095C4
:103BD0008FEE9AE19BD80F5F1F4FF8016491F3CFEE
:103BE000BE01605E7F4F8FEE9AE10F945997EBE232
:103BF000F3E064918F01662309F471C0772767FDB4
:103C000070958FEE9AE182D80F5F1F4FF801649193
:103C1000F2CFF201D182C08284018FCFC7018858D0
:103C20009F4FF201918380838501F2018081918110
:103C3000009711F0049602C080E090E0B8010F9464
:103C40004B66882321F1EDE1F3E064915F01662387
:103C500061F0772767FD70958FEE9AE157D8FFEFF7
:103C6000AF1ABF0AF5016491F2CFB8018FEE9AE165
:103C70000F9459976AE070E08FEE9AE147D8F70108
:103C8000E555FD4F10821182128213822DC0E5E0AE
:103C9000F3E064917F01662361F0772767FD7095FB
:103CA0008FEE9AE133D8FFEFEF1AFF0AF701649124
:103CB000F2CFB8018FEE9AE10F945997E3E0F3E069
:103CC00064918F01662359F0772767FD70958FEE19
:103CD0009AE11CD80F5F1F4FF8016491F3CF6AE09F
:103CE00070E08FEE9AE112D8C60117D8AC960FB6E5
:103CF000F894DEBF0FBECDBFDF91CF911F910F9122
:103D0000FF90EF90DF90CF90BF90AF909F908F90FB
:103D10007F906F905F904F9008950F931F93CF9374
:103D2000DF93EC018C81882309F43EC0E1EFF2E0DF
:103D300064918F01662361F0772767FD70958FEEA0
:103D40009AE10E9486160F5F1F4FF8016491F2CF2F
:103D5000FE01E555FD4F40815181628173812AE06A
:103D600030E08FEE9AE10F943598EFEEF2E0649137
:103D70008F01662361F0772767FD70958FEE9AE1DA
:103D80000E9486160F5F1F4FF8016491F2CFCD5548
:103D9000DD4F488159816A817B812AE030E08FEED6
:103DA0009AE10F94359811C0EFEDF2E06491EF01C4
:103DB000662359F0772767FD70958FEE9AE10E9490
:103DC00086162196FE016491F3CF6AE070E08FEED3
:103DD0009AE1DF91CF911F910F910C948616AF92CB
:103DE000BF92CF92DF92EF92FF920F931F93CF93E8
:103DF000DF935C01EB01FB0101900020E9F78F01EB
:103E000001501109061B170B6C01FAE0CF1AFEEFE7
:103E1000DF0AF60110826EE470E0CE010F948FA5E8
:103E20007C01009729F4F8013197EC0FFD1F0DC0BC
:103E300060E270E00F948FA5EC0121966AE270E0D9
:103E4000C7010F948FA5FC0131978DE081838AE033
:103E500082831382BE01C5018E509E4F0F9411685C
:103E6000F6018081882391F1E9E8F4E06491EF01A3
:103E7000662359F0772767FD70958FEE9AE10E94CF
:103E800086162196FE016491F3CFE9ECF2E064918D
:103E9000EF01662359F0772767FD70958FEE9AE161
:103EA0000E9486162196FE016491F3CF6AE070E0CD
:103EB0008FEE9AE1DF91CF911F910F91FF90EF90DC
:103EC000DF90CF90BF90AF900C948616DF91CF918A
:103ED0001F910F91FF90EF90DF90CF90BF90AF9028
:103EE00008952F923F924F925F926F927F928F929E
:103EF0009F92AF92BF92CF92DF92EF92FF920F9379
:103F00001F93CF93DF93CDB7DEB7CC55D1090FB652
:103F1000F894DEBF0FBECDBF4C018C0101551D4F83
:103F2000662339F0F8011082F401848181111DC0EB
:103F300015C0F8018081882309F4AFC0F401E95568
:103F4000FD4FC080D180E280F3800F94D291C616DD
:103F5000D706E806F90608F4A0C0E4CFC40138D9B2
:103F6000F4018481882309F498C07401F5E5EF0E0B
:103F7000F11CF70181818F9380818F9380EC92E017
:103F80009F938F938E01015C1F4F1F930F930F948C
:103F9000F5A50F900F900F900F900F900F90B12CF0
:103FA000F80101900020E9F73197E01BF10BBE16F4
:103FB00084F46801CB0CD11CB7FCDA94F601808143
:103FC000992787FD90950F942DA5F6018083B394D2
:103FD000E7CFFBE58F0E911C40E050E0BA01C40131
:103FE0000F949B62512CCE0101966C0139EB632E2C
:103FF00032E0732E5E0191E2A90EB11C40E050E068
:10400000B601C4010F94E8611816DCF5412CF601E5
:1040100001900020E9F73197EC19FD094E1674F470
:104020001601240C311C47FC3A94F101808190E088
:104030000F942DA5F10180834394E9CF8A858E37B3
:10404000E9F245E050E0B801C6010F94AAA5892B1A
:10405000A9F61F930F937F926F92BF92AF920F9426
:10406000F5A5C5010E942C4985EB92E00E94A84964
:104070000F900F900F900F900F900F905524539426
:10408000BDCF511004C08FEF9FEFF70104C0F701BF
:1040900080819181019691838083C45ADF4F0FB64E
:1040A000F894DEBF0FBECDBFDF91CF911F910F916E
:1040B000FF90EF90DF90CF90BF90AF909F908F9048
:1040C0007F906F905F904F903F902F900895EF9268
:1040D000FF920F931F93CF93DF931F92CDB7DEB75D
:1040E0008C017C018AE0E81A8EEFF80AC701698327
:1040F0000F943463C7010F947E63F801108211821C
:104100006981662309F4EFC08091970D9091980D15
:10411000A091990DB0919A0D8093270E9093280E3F
:10412000A093290EB0932A0E80919B0D90919C0D27
:10413000A0919D0DB0919E0D8093230E9093240E1F
:10414000A093250EB093260E80919F0D9091A00D07
:10415000A091A10DB091A20D80931F0E9093200EFF
:10416000A093210EB093220E8091FD0C90E09093CD
:104170001E0E80931D0E4091A30D5091A40D6091D1
:10418000A50D7091A60D4093190E50931A0E6093D1
:104190001B0E70931C0EF70180859185A285B38557
:1041A0008093150E9093160EA093170EB093180ED1
:1041B0008091C91A9091CA1A9093120E8093110E91
:1041C0008091CB1A9091CC1A9093140E8093130E79
:1041D0008091C71A9091C81A9093100E80930F0E79
:1041E00080915C0290915D0290930C0E80930B0E77
:1041F0008091FB0C9091FC0C90930E0E80930D0E11
:104200008091E10D8093F60D8091E20D9091E30D88
:104210009093F80D8093F70D8091E40D9091E50D4A
:104220009093FA0D8093F90D8091E60D9091E70D32
:104230009093FC0D8093FB0D8091E80D9091E90D1A
:104240009093FE0D8093FD0D8091EA0D9091EB0D02
:104250009093000E8093FF0D8091EC0D9091ED0DE9
:104260009093020E8093010E8091EE0D9091EF0DD0
:104270009093040E8093030E8091F00D9091F10DB8
:104280009093060E8093050E8091F20D9091F30DA0
:104290009093080E8093070E8091F40D9091F50D88
:1042A00090930A0E8093090EE9EAF2E064918F017F
:1042B000662361F0772767FD70958FEE9AE10E9483
:1042C00086160F5F1F4FF8016491F2CF6AE070E02D
:1042D0008FEE9AE10F90DF91CF911F910F91FF9098
:1042E000EF900C9486160F90DF91CF911F910F9154
:1042F000FF90EF900895EF92FF920F931F93CF934B
:10430000DF93CDB7DEB76F970FB6F894DEBF0FBE61
:10431000CDBF8C017C0186E7E80EF11CC8018858EE
:104320009F4FF70191838083E65CFD4F22E030E0F0
:1043300031832083329670E07183608340E050E0E7
:10434000BA0104960F949B62F701808191812BE161
:10435000FC013496DE01159601900D922A95E1F745
:10436000FC01828193819C838B8387E798E09A8309
:104370008983AE014F5F5F4F62EA79E0C8010E9416
:104380002317CE0101960E948D166F960FB6F894F2
:10439000DEBF0FBECDBFDF91CF911F910F91FF9078
:1043A000EF900895CF92DF92EF92FF920F931F93B9
:1043B000CF93DF93CDB7DEB76F970FB6F894DEBF1C
:1043C0000FBECDBF8C016C0126E7C20ED11C8858F0
:1043D0009F4FF60191838083E65CFD4F21E030E042
:1043E000318320837801FEE4EF1AFDEFFF0AF70125
:1043F0001182108240E050E0BA0104960F949B6253
:10440000F601808191812BE1FC013496DE01159645
:1044100001900D922A95E1F7FC01828193819C83A2
:104420008B8387E798E09A838983AE014F5F5F4F64
:1044300062EA79E0C8010E942317CE0101960E942A
:104440008D16F701808191816F960FB6F894DEBFCB
:104450000FBECDBFDF91CF911F910F91FF90EF90D5
:10446000DF90CF900895AF92BF92CF92DF92EF92FC
:10447000FF920F931F93CF93DF93CDB7DEB76F9764
:104480000FB6F894DEBF0FBECDBF8C017B01CE010D
:1044900001960E947C16F801E158FF4F8081680167
:1044A000811104C027E5C20ED11C03C088E7C80EE5
:1044B000D11C21E0A701B6016C5F7F4FCE010596AC
:1044C0000F947565811136C0E3E8F4E064918F01C3
:1044D000662361F0772767FD70958FEE9AE10E9461
:1044E00086160F5F1F4FF8016491F2CFE3E9F2E007
:1044F00064918F01662361F0772767FD70958FEED9
:104500009AE10E9486160F5F1F4FF8016491F2CF67
:10451000B7018FEE9AE10F9459976AE070E08FEE41
:104520009AE10E948616CE0101960E948D168FEFA9
:104530009FEF3AC0F801E353FE4F808191818A30AA
:10454000910530F59C012F5F3F4F318320832FE190
:10455000289F7001299FF00C1124F7E9EF0EF11C40
:10456000E00EF11E5C01B701C7014F960E94D818FA
:1045700021E0A21AB1088FE1E81AF108EFEFAE16B8
:10458000BE0689F7B601C80189569F4F0E94D81808
:10459000BE016F5F7F4FC80188589F4F0E94D81897
:1045A000CE0101960E948D166F960FB6F894DEBF6D
:1045B0000FBECDBFDF91CF911F910F91FF90EF9074
:1045C000DF90CF90BF90AF900895EF92FF920F933E
:1045D0001F93CF93DF93EC01C353DE4F28813981C2
:1045E0002115310529F121503109398328838C01A6
:1045F00009561F4FB80188589F4F0E94D818C8010C
:1046000000E010E0288139817C014FE1E40EF11CCB
:104610000217130738F40F5F1F4FB7010E94D81815
:10462000C701F0CF81E090E0232B21F080E002C0B1
:104630008FEF9FEFDF91CF911F910F91FF90EF9040
:1046400008958F929F92AF92BF92CF92DF92EF9296
:10465000FF920F931F93CF93DF93EC011092AF0D56
:1046600080912C0D90912D0D019690932D0D80939E
:104670002C0DD0D28EE892E00E94A8490F94E674E7
:104680007E018FEEE81A8DEFF80AF70180818E0126
:104690000A501E4F8823D9F1C8010F947E63F70199
:1046A000808181508083BE01FDE88F9F600D711D68
:1046B00011246A5E7D4F21E041E0CE010E94501A34
:1046C000F7018081FE0194E0899FE00DF11D112426
:1046D000EE5EFD4F4081518162817381FE01E5559F
:1046E000FD4F4083518362837383C8010F949B62A3
:1046F000CE01DF91CF911F910F91FF90EF90DF904E
:10470000CF90BF90AF909F908F900C94C9190F9449
:104710007775C8010F947E631A8220E030E045E08F
:1047200050E06AE070E081E691E10E94F03A8BE8A7
:1047300092E00E94A8490F94E67486E892E00E94F5
:10474000A8491092CA1A1092C91A1092CC1A109243
:10475000CB1A1092C81A1092C71A1092460E1092D5
:10476000450E1092440E6091320D7091330D809180
:10477000340D9091350D2CE330E040E050E00F9483
:10478000459F30932F0D20932E0D7093310D609324
:10479000300DC0907A17D0907B17E0907C17F09086
:1047A0007D1720911E0D30911F0D4091200D5091CD
:1047B000210D6091220D7091230D8091240D909117
:1047C000250D0F949C9B4B015C012091BE173091ED
:1047D000BF174091C0175091C1176091C2177091D7
:1047E000C3178091C4179091C5170F94DD9BA70143
:1047F00096010F94C99A9B01AC01C501B4010F94B5
:10480000E9990F94319B20931E0D30931F0D409317
:10481000200D5093210D6093220D7093230D8093F2
:10482000240D9093250D2091160D3091170D409178
:10483000180D5091190D60911A0D70911B0D8091FA
:104840001C0D90911D0D0F949C9B4B015C012091C0
:10485000B6173091B7174091B8175091B9176091BA
:10486000BA177091BB178091BC179091BD170F9428
:10487000DD9BA70196010F94C99A9B01AC01C5016C
:10488000B4010F94E9990F94319B2093160D309346
:10489000170D4093180D5093190D60931A0D7093D6
:1048A0001B0D80931C0D90931D0D20910E0D3091CA
:1048B0000F0D4091100D5091110D6091120D7091DE
:1048C000130D8091140D9091150D0F949C9B6B010D
:1048D0007C012091AE173091AF174091B0175091E5
:1048E000B1176091B2177091B3178091B41790917E
:1048F000B5170F94DD9B20917E1730917F17409163
:104900008017509181170F94C99A9B01AC01C70180
:10491000B6010F94E9990F94319B20930E0D3093BB
:104920000F0D4093100D5093110D6093120D709365
:10493000130D8093140D9093150DC0908617D09091
:104940008717E0908817F09089172091060D309115
:10495000070D4091080D5091090D60910A0D70915D
:104960000B0D80910C0D90910D0D0F949C9B4B01A4
:104970005C012091A6173091A7174091A81750917C
:10498000A9176091AA177091AB178091AC179091FD
:10499000AD170F94DD9BA70196010F94C99A9B0157
:1049A000AC01C501B4010F94E9990F94319B209398
:1049B000060D3093070D4093080D5093090D609339
:1049C0000A0D70930B0D80930C0D90930D0D20919B
:1049D000FE0C3091FF0C4091000D5091010D609143
:1049E000020D7091030D8091040D9091050D0F94AF
:1049F0009C9B4B015C0120919E1730919F17409129
:104A0000A0175091A1176091A2177091A3178091E0
:104A1000A4179091A5170F94DD9BA70196010F9401
:104A2000C99A9B01AC01C501B4010F94E9990F9497
:104A3000319B2093FE0C3093FF0C4093000D50935C
:104A4000010D6093020D7093030D8093040D9093FC
:104A5000050D1092BE171092BF171092C01710923A
:104A6000C1171092C2171092C3171092C417109258
:104A7000C5171092B6171092B7171092B817109268
:104A8000B9171092BA171092BB171092BC17109258
:104A9000BD171092AE171092AF171092B017109268
:104AA000B1171092B2171092B3171092B417109258
:104AB000B5171092A6171092A7171092A817109268
:104AC000A9171092AA171092AB171092AC17109258
:104AD000AD1710929E1710929F171092A017109268
:104AE000A1171092A2171092A3171092A417109258
:104AF000A51790D08AE792E00E94A84980911517E7
:104B00008823F9F010921517C091FD0CD0E0CC0F5E
:104B1000DD1FC753D54E68817981882777FD809541
:104B2000982F0F94A29B2091B2023091B302409132
:104B3000B4025091B5020F94519D181614F41982C5
:104B40001882DF91CF911F910F91FF90EF90DF902E
:104B5000CF90BF90AF909F908F9008958D559D4FAF
:104B6000FC016081718182819381089585559D4FFB
:104B7000FC0160817181828193810895EF92FF929F
:104B80000F931F93CF93DF931F92CDB7DEB78C01A6
:104B90007B01460FF70161917F01F80180819181CE
:104BA00049830F94F3AAF801808191810196918342
:104BB000808349814E11EECF0F90DF91CF911F91ED
:104BC0000F91FF90EF900895EF92FF920F931F9334
:104BD000CF93DF931F92CDB7DEB78C017B01460FD9
:104BE000F8018081918149830F94EBAAF7018193A9
:104BF0007F01F801808191810196918380834981B1
:104C00004E11EECF0F90DF91CF911F910F91FF903A
:104C1000EF9008950F931F93CF93DF93CDB7DEB737
:104C200068970FB6F894DEBF0FBECDBF80E390E368
:104C3000A0E3B0E08D839E83AF83B88704E610E0E5
:104C4000188F0F8B44E0BE016B5F7F4FCE014796FC
:104C500095DF40E16AE777E1CE0147968FDF40E1DB
:104C60006AE877E1CE01479689DF40E16AE677E1BD
:104C7000CE01479683DF44E062E677E1CE014796B6
:104C80007DDF44E06AE577E1CE01479677DF44E0D7
:104C900066E677E1CE01479671DF44E06AE477E1AA
:104CA000CE0147966BDF44E06AE977E1CE01479693
:104CB00065DF44E066E577E1CE0147965FDF44E0DB
:104CC00062E577E1CE01479659DF44E06EE477E193
:104CD000CE01479653DF4CE06BE77DE0CE0147966F
:104CE0004DDF87ED90E09E8B8D8B8DE290E09C8B6D
:104CF0008B8B1A8A198A80EF90E0988B8F8786E4D5
:104D000090E09E878D871C861B8642E0BE016B5E0D
:104D10007F4FCE01479632DF42E0BE016D5E7F4F8E
:104D2000CE0147962BDF42E0BE016F5E7F4FCE0182
:104D3000479624DF42E0BE01615F7F4FCE01479678
:104D40001DDF42E0BE01635F7F4FCE01479616DF55
:104D500042E0BE01655F7F4FCE0147960FDF44E022
:104D600068E67DE0CE01479609DF44E06BE272E041
:104D7000CE01479603DF44E063E372E0CE0147963D
:104D8000FDDE44E06BE372E0CE014796F7DE42E0E1
:104D90006AED7DE0CE014796F1DE42E06EED7DE00A
:104DA000CE014796EBDE42E06CED7DE0CE0147960A
:104DB000E5DE42E068ED7DE0CE014796DFDE42E0D1
:104DC0006AEC7DE0CE014796D9DE42E06EEC7DE0F4
:104DD000CE014796D3DE42E06CEC7DE0CE014796F3
:104DE000CDDE42E068EC7DE0CE014796C7DE42E0D2
:104DF00062ED7DE0CE014796C1DE42E066ED7DE0EA
:104E0000CE014796BBDE42E064ED7DE0CE014796E1
:104E1000B5DE42E060ED7DE0CE014796AFDE42E0D8
:104E200062EC7DE0CE014796A9DE42E066EC7DE0D3
:104E3000CE014796A3DE42E064EC7DE0CE014796CA
:104E40009DDE42E060EC7DE0CE01479697DE44E0D7
:104E500061E173E0CE01479691DE44E069E073E0E2
:104E6000CE0147968BDE44E061E073E0CE014796C9
:104E700085DE44E065E173E0CE0147967FDE44E0E5
:104E80006DE073E0CE01479679DE44E065E073E0C3
:104E9000CE01479673DE42E068E37DE0CE0147969F
:104EA0006DDE42E06CE27DE0CE01479667DE42E0D7
:104EB0006AE27DE0CE01479661DE42E068E27DE095
:104EC000CE0147965BDE42E066E37DE0CE01479689
:104ED00055DE42E066E27DE0CE0147964FDE80E29D
:104EE00090E09A87898742E0BE01675F7F4FCE01DD
:104EF000479644DE42E06EE47EE0CE0147963EDE19
:104F000044E06AE47EE0CE01479638DE42E068E4A1
:104F10007EE0CE01479632DE42E060E37DE0CE01E6
:104F200047962CDE42E06EE27DE0CE01479626DE1B
:104F300048E06EE17DE0CE01479620DE48E066E184
:104F40007DE0CE0147961ADE48E06EE07DE0CE01BE
:104F5000479614DE48E066E07DE0CE0147960EDE1F
:104F600048E06EEF7CE0CE01479608DE42E06EE658
:104F700072E0CE01479602DE42E060E772E0CE01C9
:104F80004796FCDD44E067E27EE0CE014796F6DD21
:104F900044E063E27EE0CE014796F0DD44E06FE15D
:104FA0007EE0CE014796EADD42E06DE17EE0CE0193
:104FB0004796E4DD44E069E17EE0CE014796DEDD20
:104FC00044E065E17EE0CE014796D8DD42E063E152
:104FD0007EE0CE014796D2DD42E061E17EE0CE0187
:104FE0004796CCDD42E06FE07EE0CE014796C6DD1D
:104FF00042E06DE07EE0CE014796C0DD42E06BE02E
:105000007EE0CE014796BADD41E066EF7DE0CE015D
:105010004796B4DD42E067EF7DE0CE014796AEDD16
:1050200042E069EF7DE0CE014796A8DD42E06BEFFC
:105030007DE0CE014796A2DD42E06DEF7DE0CE013E
:1050400047969CDD42E06FEF7DE0CE01479696DD0E
:1050500042E061E07EE0CE01479690DD42E063E011
:105060007EE0CE0147968ADD42E065E07EE0CE013B
:10507000479684DD42E067E07EE0CE0147967EDD24
:1050800042E069E07EE0CE01479678DD44E06EE5DF
:1050900077E1CE01479672DD86E591E3A2E3B0E0C9
:1050A00089839A83AB83BC83188F0F8B44E0BE0146
:1050B0006F5F7F4FCE01479661DDEFEAFAE06491C2
:1050C0008F01662361F0772767FD70958FEE9AE177
:1050D0000E9486160F5F1F4FF8016491F2CFEFE92F
:1050E000FAE064918F01662361F0772767FD709580
:1050F0008FEE9AE10E9486160F5F1F4FF8016491B0
:10510000F2CF6AE070E08FEE9AE10E948616689610
:105110000FB6F894DEBF0FBECDBFDF91CF911F91C8
:105120000F9108950F931F93CF93DF93CFEADAE0A7
:10513000FE0164918E01662361F0772767FD70950B
:105140008FEE9AE10E9486160F5F1F4FF80164915F
:10515000F2CFEFE8FAE064918F01662361F07727E0
:1051600067FD70958FEE9AE10E9486160F5F1F4FC4
:10517000F8016491F2CF6AE070E08FEE9AE10E944C
:105180008616FE0164910FEA1AE0662361F0772724
:1051900067FD70958FEE9AE10E9486160F5F1F4F94
:1051A000F8016491F2CF40917A1750917B1760918A
:1051B0007C1770917D1787E89AE00E94C048409163
:1051C0007E1750917F17609180177091811784E846
:1051D0009AE00E94C04840918217509183176091D5
:1051E00084177091851781E89AE00E94C048409129
:1051F00086175091871760918817709189178EE7ED
:105200009AE00E94C04862EA79E08FEE9AE10F943A
:1052100059976AE070E08FEE9AE10E948616FE01CF
:1052200064910FEA1AE0662361F0772767FD7095B5
:105230008FEE9AE10E9486160F5F1F4FF80164916E
:10524000F2CFE4E6FAE064918F01662361F07727FC
:1052500067FD70958FEE9AE10E9486160F5F1F4FD3
:10526000F8016491F2CF6AE070E08FEE9AE10E945B
:105270008616FE0164910FEA1AE0662361F0772733
:1052800067FD70958FEE9AE10E9486160F5F1F4FA3
:10529000F8016491F2CF40918A1750918B17609179
:1052A0008C1770918D178BE59AE00E94C048409151
:1052B0008E1750918F17609190177091911788E514
:1052C0009AE00E94C04840919217509193176091C4
:1052D00094177091951785E59AE00E94C048409117
:1052E000961750919717609198177091991782E5CA
:1052F0009AE00E94C04862EA79E08FEE9AE10F944A
:1053000059976AE070E08FEE9AE10E948616FE01DE
:1053100064910FEA1AE0662361F0772767FD7095C4
:105320008FEE9AE10E9486160F5F1F4FF80164917D
:10533000F2CFE4E3FAE064918F01662361F077270E
:1053400067FD70958FEE9AE10E9486160F5F1F4FE2
:10535000F8016491F2CF6AE070E08FEE9AE10E946A
:105360008616FE0164910FEA1AE0662361F0772742
:1053700067FD70958FEE9AE10E9486160F5F1F4FB2
:10538000F8016491F2CF40916A1750916B176091C8
:105390006C1770916D178BE29AE00E94084940915A
:1053A0006E1750916F17609170177091711788E2A6
:1053B0009AE00E94084940917217509173176091CA
:1053C00074177091751785E29AE00E940849409120
:1053D000761750917717609178177091791782E25C
:1053E0009AE00E94084962EA79E08FEE9AE10F9410
:1053F00059976AE070E08FEE9AE10E948616FE01EE
:1054000064910FEA1AE0662361F0772767FD7095D3
:105410008FEE9AE10E9486160F5F1F4FF80164918C
:10542000F2CFEDEEF9E064918F01662361F077270A
:1054300067FD70958FEE9AE10E9486160F5F1F4FF1
:10544000F8016491F2CF6AE070E08FEE9AE10E9479
:105450008616FE0164910FEA1AE0662361F0772751
:1054600067FD70958FEE9AE10E9486160F5F1F4FC1
:10547000F8016491F2CF40916217509163176091E7
:1054800064177091651784EE99E00E94C0484091BE
:105490005A1750915B1760915C1770915D1781EE00
:1054A00099E00E94C04862EA79E08FEE9AE10F9499
:1054B00059976AE070E08FEE9AE10E948616FE012D
:1054C00064910FEA1AE0662361F0772767FD709513
:1054D0008FEE9AE10E9486160F5F1F4FF8016491CC
:1054E000F2CFEEE2F9E064918F01662361F0772755
:1054F00067FD70958FEE9AE10E9486160F5F1F4F31
:10550000F8016491F2CF6AE070E08FEE9AE10E94B8
:105510008616FE0164910FEA1AE0662361F0772790
:1055200067FD70958FEE9AE10E9486160F5F1F4F00
:10553000F8016491F2CF409166175091671760911E
:1055400068177091691785E299E00E94C048409100
:105550004A1750914B1760914C1770914D1782E28A
:1055600099E00E94C04840919A1750919B17609112
:105570009C1770919D178FE199E00E940849409116
:1055800056175091571760915817709159178CE121
:1055900099E00E94C0484091521750915317609172
:1055A00054177091551789E199E00E94C0484091C5
:1055B0004E1750914F17609150177091511786E117
:1055C00099E00E94C04862EA79E08FEE9AE10F9478
:1055D00059976AE070E08FEE9AE10E948616FE010C
:1055E00064910FEA1AE0662361F0772767FD7095F2
:1055F0008FEE9AE10E9486160F5F1F4FF8016491AB
:10560000F2CFE4E0F9E064918F01662361F077273F
:1056100067FD70958FEE9AE10E9486160F5F1F4F0F
:10562000F8016491F2CF6AE070E08FEE9AE10E9497
:105630008616FE0164910FEA1AE0662361F077276F
:1056400067FD70958FEE9AE10E9486160F5F1F4FDF
:10565000F8016491F2CF40917B0D50917C0D6091E7
:105660007D0D70917E0D8BEF98E00E94C0484091B7
:105670007F0D5091800D6091810D7091820D88EFAA
:1056800098E00E94C0484091830D5091840D609134
:10569000850D7091860D85EF98E00E94C04862EA02
:1056A00079E08FEE9AE10F9459976AE070E08FEEFF
:1056B0009AE10E948616FE0164910FEA1AE06623C1
:1056C00061F0772767FD70958FEE9AE10E9486164C
:1056D0000F5F1F4FF8016491F2CFE7EEF8E064919D
:1056E0008F01662361F0772767FD70958FEE9AE151
:1056F0000E9486160F5F1F4FF8016491F2CF6AE097
:1057000070E08FEE9AE10E948616FE0164910FEA26
:105710001AE0662361F0772767FD70958FEE9AE1B6
:105720000E9486160F5F1F4FF8016491F2CF4091DF
:1057300011035091120360911303709114038AEDC9
:1057400098E00E94C0486091090370910A0380911B
:105750000B0390910C030F943C8CAB01BC0187EDC3
:1057600098E00E94C048609101037091020380910B
:105770000303909104030F94488CAB01BC0184EDAA
:1057800098E00E94C0484091150350911603609123
:1057900017037091180384EC98E00E94C048609150
:1057A0000D0370910E0380910F03909110030F94DD
:1057B0003C8CAB01BC0181EC98E00E94C048609138
:1057C00005037091060380910703909108030F94DD
:1057D000488CAB01BC018EEB98E00E94C04862EAA5
:1057E00079E08FEE9AE10F9459976AE070E08FEEBE
:1057F0009AE10E948616FE0164910FEA1AE0662380
:1058000061F0772767FD70958FEE9AE10E9486160A
:105810000F5F1F4FF8016491F2CFE0EBF8E0649165
:105820008F01662361F0772767FD70958FEE9AE10F
:105830000E9486160F5F1F4FF8016491F2CF6AE055
:1058400070E08FEE9AE10E948616FE0164910FEAE5
:105850001AE0662361F0772767FD70958FEE9AE175
:105860000E9486160F5F1F4FF8016491F2CF40919E
:105870002B0250912C0260912D0270912E028CEA25
:1058800098E00E94C04840913302509134026091E8
:1058900035027091360288EA98E00E94C048409133
:1058A0003B0250913C0260913D0270913E0284EABD
:1058B00098E00E94C0484091680D5091690D609138
:1058C0006A0D70916B0D8BE998E00E94C04862EA06
:1058D00079E08FEE9AE10F9459976AE070E08FEECD
:1058E0009AE10E948616FE0164910FEA1AE066238F
:1058F00061F0772767FD70958FEE9AE10E9486161A
:105900000F5F1F4FF8016491F2CFE1E9F8E0649175
:105910008F01662361F0772767FD70958FEE9AE11E
:105920000E9486160F5F1F4FF8016491F2CF6AE064
:1059300070E08FEE9AE10E948616FE0164910FEAF4
:105940001AE0662361F0772767FD70958FEE9AE184
:105950000E9486160F5F1F4FF8016491F2CF4091AD
:10596000DE0D5091DF0D662757FD6095762F85E897
:1059700098E00E9408494091DC0D5091DD0D6627AA
:1059800057FD6095762F86E798E00E940849409180
:10599000D80D5091D90D662757FD6095762F8AE670
:1059A00098E00E9408494091DA0D5091DB0D66277E
:1059B00057FD6095762F8CE598E00E9408496CE7CA
:1059C00073E08FEE9AE10F9459976AE070E08FEEE2
:1059D0009AE10E948616FE0164910FEA1AE066239E
:1059E00061F0772767FD70958FEE9AE10E94861629
:1059F0000F5F1F4FF8016491F2CFE2E5F8E0649188
:105A00008F01662361F0772767FD70958FEE9AE12D
:105A10000E9486160F5F1F4FF8016491F2CF6AE073
:105A200070E08FEE9AE10E948616FE0164910FEA03
:105A30001AE0662361F0772767FD70958FEE9AE193
:105A40000E9486160F5F1F4FF8016491F2CF4091BC
:105A5000D60D5091D70D662757FD6095762F86E4B9
:105A600098E00E9408494091D40D5091D50D6627C9
:105A700057FD6095762F87E398E00E940849409192
:105A8000D00D5091D10D662757FD6095762F8BE292
:105A900098E00E9408494091D20D5091D30D66279D
:105AA00057FD6095762F8DE198E00E9408496CE7DC
:105AB00073E08FEE9AE10F9459976AE070E08FEEF1
:105AC0009AE10E948616FE0164910FEA1AE06623AD
:105AD00061F0772767FD70958FEE9AE10E94861638
