:100000000C9435110C9466110C9466110C946611C5
:100010000C9466110C9466110C9466110C94661184
:100020000C9466110C9466110C9466110C94661174
:100030000C9466110C9466110C9466110C94661164
:100040000C9466110D947F610C9466110C946611EA
:100050000C9466110C9466110D94757E0D943A857E
:100060000C9466110D946A890D94A0890C94661104
:100070000C9466110C9466110C9466110C94661124
:100080000C9466110C9466110C9466110C94661114
:100090000C9466110C9466110C9466110C94291240
:1000A0000C9466110C9466110C9466110C946611F4
:1000B0000C9466110C9466110C9466110C946611E4
:1000C0000C9466110C9466110C9466110D94158AAB
:1000D0000D944B8A0C9466110C9466110C94661165
:1000E0000C946611CB001D01ED0029010D011901D1
:1000F000090111010701E70023012101D500D10009
:10010000C700E100E90031012701DD00CD000F014A
:10011000390135011301E9001501F3000301F9006C
:10012000EF002B01D900DB00F700DF00FB003301FB
:10013000EB00D7003B0137011701F700C90025018B
:10014000E300084AD73B3BCE016E84BCBFFDC12F04
:100150003D6C74319ABD56833DDA3D00C77F11BEB8
:10016000D9E4BB4C3E916BAAAABE000000803F05BB
:10017000A84CCDB2D44EB93836A9020C50B99186EC
:1001800088083CA6AAAA2ABE000000803F000D9461
:1001900084860D9456870D94FD7E0D94B2860D9441
:1001A00013880D947A860D94748A0D9475860D9437
:1001B00042870D941F870D9425870D94A8860D9472
:1001C00030870D948E860D945E870D94CD8A0D94A4
:1001D0007A7F0D9407870D943E870D94267F0D94AA
:1001E0002C870D94D2890D94F3860D942D5C0D947B
:1001F00063870D9429870D9434870D9427880D9477
:100200007D8A0D94EA260D94FD860D94FA870D944F
:10021000787F0D94747F0D9483880D944D7F0D9499
:10022000BC860D94767F0D94DF860D94E9860D943F
:1002300050870D945A7F0D94C9890D940A7F0D94AF
:10024000A4880D9470860D94827F0D945A870D9426
:10025000A0860D94337F0D941B870D9405880D9413
:10026000D2260D9498860D943A870D94D5860D94D8
:100270004C870D94C6860D9448874D3834205820FD
:1002800059205A2045004D313037004D313037006C
:1002900043616E6E6F7420656E7465722073756253
:1002A0006469723A20004D3234004D323320257398
:1002B000006175746F25692E67006572726F722018
:1002C00077726974696E6720746F2066696C650067
:1002D0004E6F74205344207072696E74696E6700AB
:1002E0002F005344207072696E74696E67206279C2
:1002F000746520002E0044656C6574696F6E20661D
:1003000061696C65642C2046696C653A2000466919
:100310006C652064656C657465643A002E006F70CE
:10032000656E206661696C65642C2046696C653A6F
:10033000200057726974696E6720746F2066696C5B
:10034000653A20002E006F70656E206661696C65ED
:10035000642C2046696C653A20002E006F70656E33
:10036000206661696C65642C2046696C653A2000E2
:1003700046696C652073656C656374656400205321
:10038000697A653A200046696C65206F70656E6514
:10039000643A20002E006F70656E206661696C659E
:1003A000642C2046696C653A20004E6F7720667297
:1003B0006573682066696C653A20004E6F7720642B
:1003C0006F696E672066696C653A20002220706F45
:1003D00073002220706172656E743A220053554298
:1003E000524F5554494E452043414C4C2074617244
:1003F0006765743A2200747279696E6720746F20A1
:1004000063616C6C207375622D67636F6465206631
:10041000696C6573207769746820746F6F206D61F3
:100420006E79206C6576656C732E204D4158206C7A
:100430006576656C2069733A005344206361726489
:10044000206F6B006F70656E526F6F74206661690C
:100450006C656400766F6C756D652E696E697420CD
:100460006661696C656400534420696E6974206636
:1004700061696C006563686F3A004572726F723A29
:1004800000535543434553530056616C75657320C3
:100490006F7574206F662072616E67650056616CBF
:1004A000756573206F7574206F662072616E676565
:1004B0000056616C756573206F7574206F662072CD
:1004C000616E67650056616C756573206F75742089
:1004D0006F662072616E6765005355434345535301
:1004E0000056616C756573206F7574206F6620729D
:1004F000616E67650056616C756573206F75742059
:100500006F662072616E67650056616C7565732059
:100510006F7574206F662072616E67650056616C3E
:10052000756573206F7574206F662072616E6765E4
:100530000053544154495354494353205245534561
:10054000540048617264636F6465642043616C6940
:100550006220616E64205049442044656661756C78
:10056000742053657474696E6773204C6F616465A1
:10057000640048617264636F646564204465666109
:10058000756C742053657474696E6773204C6F6169
:100590006465640053746F72656420736574746974
:1005A0006E67732072657472696576656400204DAC
:1005B000696E75746573203A00204C617374207005
:1005C00072696E742074696D652D3E20486F757276
:1005D00073203A004C617374207072696E742064E9
:1005E00075726174696F6E002C20546869726420A2
:1005F0004944206E756D62657220002C205365633E
:100600006F6E64204944206E756D6265723A2000F9
:10061000204669727374204944206E756D6265725C
:100620003A2000554920496E666F726D6174696F9A
:100630006E2053657269616C204E756D6265723A09
:1006400000206D2C204531207072696E7420646921
:100650007374616E63653A2000206D2C2045302054
:100660007072696E742064697374616E63653A2098
:1006700000206D2C2059207072696E74206469739B
:1006800074616E63653A2000206D2C205831207013
:1006900072696E742064697374616E63653A2000D8
:1006A00020432C0A205830207072696E74206469CF
:1006B0007374616E63653A200020432C206D61786D
:1006C0002074656D7020423A200020432C206D611B
:1006D000782074656D7020523A20002C206D61786E
:1006E0002074656D70204C3A2000682C207072696F
:1006F0006E74732066696E69736865643A20002CB5
:10070000207072696E74696E672074696D653A2035
:1007100000207072696E74733A2000535441545330
:100720003A0020432C20525F5052494E543A200048
:1007300020432C20525F4245443A200020432C2085
:10074000525F52454D4F56453A200020525F494E68
:10075000534552543A200054656D70202843293A7D
:100760000020432C204C5F5052494E543A20002028
:10077000432C204C5F4245443A200020432C204C1F
:100780005F52454D4F56453A2000204C5F494E532D
:100790004552543A200054656D70202843293A0090
:1007A000205A2070726F626500205A200020592064
:1007B00000205820004F66667365747320286D6DA5
:1007C000293A00204400204900202D204D333031AB
:1007D000205249474854205000204400204900201E
:1007E0004D333031204C4546542050005049442070
:1007F00073657474696E67733A00205A002059005B
:1008000020204D323036205800486F6D65206F66CD
:100810006673657420286D6D293A00204500205AC2
:100820000020580020420020540020204D32303556
:10083000205300416476616E63656420766172695D
:1008400061626C65733A20533D4D696E2066656543
:10085000647261746520286D6D2F73292C20543DBE
:100860004D696E2074726176656C20666565647290
:1008700061746520286D6D2F73292C20423D6D69B0
:100880006E696D756D207365676D656E7420746932
:100890006D6520286D73292C20583D6D6178696D38
:1008A000756D205859206A65726B20286D6D2F7305
:1008B000292C20205A3D6D6178696D756D205A2074
:1008C0006A65726B20286D6D2F73292C2020453DA1
:1008D0006D6178696D756D2045206A65726B2028A1
:1008E0006D6D2F73290020540020204D32303420AC
:1008F0005300416363656C65726174696F6E3A2081
:10090000533D616363656C65726174696F6E2C2021
:10091000543D7265747261637420616363656C65D4
:10092000726174696F6E00204500205A00205900E2
:1009300020204D3230312058004D6178696D756D41
:1009400020416363656C65726174696F6E20286D08
:100950006D2F7332293A00204500205A002059009B
:1009600020204D3230332058004D6178696D756D0F
:100970002066656564726174657320286D6D2F73E0
:10098000293A00204500205A0020590020204D39E6
:100990003220580053746570732070657220756E34
:1009A00069743A0053657474696E67732053746F89
:1009B000726564006563686F3A005072696E7465B1
:1009C000722068616C7465642E206B696C6C2829D8
:1009D0002063616C6C656421006F6B005265736508
:1009E0006E643A2000486F74656E64206F666673AB
:1009F0006574733A005A204F6666736574203A2016
:100A0000007A5F6D61783A20007A5F6D696E3A20F6
:100A1000005A204F6666736574005A204F666673ED
:100A20006574206F6B00486F74656E64206F666636
:100A3000736574733A007A5F6D696E3A2000795F6E
:100A40006D61783A2000785F6D61783A2000785FB8
:100A50006D696E3A2000205A3A0020593A0020432E
:100A60006F756E7420583A200020453A00205A3A9B
:100A70000020593A00583A004649524D57415245D4
:100A80005F4E414D453A4D61726C696E2056313B67
:100A900020537072696E7465722F6772626C206D7C
:100AA000617368757020666F722067656E362046C8
:100AB00049524D574152455F55524C3A68747470D3
:100AC000733A2F2F6769746875622E636F6D2F45B7
:100AD00072696B5A616C6D2F4D61726C696E2F205B
:100AE00050524F544F434F4C5F56455253494F4E0F
:100AF0003A312E30204D414348494E455F545950BC
:100B0000453A4D656E64656C2045585452554445D0
:100B1000525F434F554E543A3220555549443A306E
:100B2000303030303030302D303030302D303030CB
:100B3000302D303030302D303030303030303030BB
:100B40003030300A0020423A0020453A00543A0042
:100B500020573A0020453A00543A002042403A00DB
:100B600020403A00202F003A00205400202F00207F
:100B7000423A00202F006F6B20543A000A0A0053BB
:100B800074616E6461726420446576696174696F32
:100B90006E3A20000A004D65616E3A20000A00207E
:100BA00020207A3A200000793A2000783A20003F4D
:100BB000537065636966696564206E756D62657200
:100BC000206F66206C65677320696E206D6F766597
:100BD0006D656E74206E6F7420706C6175736162E8
:100BE0006C652E0A003F5370656369666965642011
:100BF0005920706F736974696F6E206F7574206F00
:100C0000662072616E67652E0A003F5370656369E6
:100C100066696564205820706F736974696F6E200F
:100C20006F7574206F662072616E67652E0A003FD3
:100C30005370656369666965642073616D706C6586
:100C40002073697A65206E6F7420706C61757361B2
:100C5000626C652E0A0046756C6C20737570706F3F
:100C600072742061743A20687474703A2F2F336460
:100C70007072696E74626F6172642E636F6D2F663D
:100C80006F72756D2E7068700A004D3438205A2DC1
:100C900050726F6265205265706561746162696C43
:100CA00069747920746573742E20202056657273E0
:100CB000696F6E20322E30300A003F566572626FC7
:100CC0007365204C6576656C206E6F7420706C6166
:100CD000757361626C652E0A002569206D696E2C42
:100CE0002025692073656300456E642066696C6524
:100CF000206C69737400426567696E2066696C6573
:100D0000206C697374000A00205A3A200020593A76
:100D1000200020583A2000426564000A0020616EDD
:100D20007469686F726172690A3A200020686F7294
:100D30006172690A20002F3800766F6C7465732029
:100D40000020566F6C74657320636172676F6C204E
:100D5000333A200020616E7469686F726172690AAB
:100D60003A200020686F726172690A20002F3800F3
:100D7000766F6C746573200020566F6C74657320F9
:100D8000636172676F6C20323A200020616E746973
:100D9000686F726172690A3A200020686F7261722E
:100DA000690A20002F3800766F6C7465732000206C
:100DB000566F6C74657320636172676F6C20313A93
:100DC00020000A0020647A333A200020647A323A04
:100DD000200020647A313A20000A00207A633A2009
:100DE00000543000486F6D6520582F5920626566A9
:100DF0006F7265205A000A00207A3A200020793A62
:100E0000200020783A200042656400486F6D65201C
:100E1000582F59206265666F7265205A002200556E
:100E20006E6B6E6F776E20636F6D6D616E643A20CE
:100E30002200256920686F757273202569206D690D
:100E40006E7574657300446F6E65207072696E74A0
:100E5000696E672066696C650070617573652064F2
:100E600065746563746564200A0047363900507202
:100E7000696E7465722073746F7070656420647538
:100E80006520746F206572726F72732E20466978C8
:100E900020746865206572726F7220616E642075BF
:100EA0007365204D39393920746F20726573746110
:100EB00072742E202854656D706572617475726548
:100EC0002069732072657365742E205365742069E0
:100ED00074206166746572207265737461727469DE
:100EE0006E6729006F6B004E6F204C696E65204E57
:100EF000756D626572207769746820636865636BDD
:100F000073756D2C204C617374204C696E653A20AA
:100F1000004E6F20436865636B73756D207769744D
:100F200068206C696E65206E756D6265722C204C50
:100F3000617374204C696E653A2000636865636B69
:100F400073756D206D69736D617463682C204C61DD
:100F50007374204C696E653A20004C696E65204EB2
:100F6000756D626572206973206E6F74204C6173B9
:100F700074204C696E65204E756D6265722B312C44
:100F8000204C617374204C696E653A20004D3131FC
:100F900030004D383420582059205A2045005265E1
:100FA00061647920746F20496E736572742F526585
:100FB0006D6F7665200A0074656D70206F6B200A76
:100FC00000526561647920746F20496E7365727494
:100FD0002F52656D6F7665200A0074656D70206F05
:100FE0006B200A002053544F50205052494E542039
:100FF0000A00473238205830205930005265737546
:101000006D65206465746563746564200A00473704
:101010003000EFBFBD524553554D4521200A00EF2A
:10102000BFBD504155534521200A005052494E54EE
:101030002053455454494E4753200A00446F6E656F
:1010400020736176696E672066696C652E006F6B30
:10105000004D32390073746172740030312D312EBD
:10106000322E315243002200656E717565696E67DC
:101070002022002200656E717565696E672022006E
:10108000456E74657220696E207075726765206D9B
:101090006F6465200A0053757266696E672031209F
:1010A0000A0053757266696E672030200A00537516
:1010B0007266696E672030200A0047323820583047
:1010C0002059300054300053757266696E672030C5
:1010D000200A0054300047333400494E464F3A202E
:1010E0004245442043414C4942202D20004734339F
:1010F0000047343300473431004734300054310066
:1011000054300054300054310054310054300054F5
:101110003000543100473433004734330047343112
:1011200000473430005A32204F66667365743A20A7
:10113000004F4B207365636F6E6420457874727541
:1011400064657221005A20706F736974696F6E3A1A
:1011500020005A20706F736974696F6E3A20005ACC
:10116000312050726F6265206F66667365743A2035
:10117000004F4B20666972737420457874727564F1
:10118000657221200A005A20706F736974696F6E4E
:101190003A20005A20706F736974696F6E3A2000AC
:1011A00043616C63756C75733A20200043616C6316
:1011B000756C75733A20200043616C63756C7573B0
:1011C0003A20200043616C63756C75733A202000EF
:1011D00043616C63756C75733A20200043616C63E6
:1011E000756C75733A20200043616C63756C757380
:1011F0003A20200043616C63756C75733A202000BF
:1012000043616C63756C75733A20200043616C63B5
:10121000756C75733A20200043616C63756C75734F
:101220003A20200043616C63756C75733A2020008E
:1012300043616C63756C75733A20200043616C6385
:10124000756C75733A20200043616C63756C75731F
:101250003A20200043616C63756C75733A2020005E
:1012600043616C63756C75733A20200043616C6355
:10127000756C75733A20200043616C63756C7573EF
:101280003A20200043616C63756C75733A2020002E
:1012900043616C63756C75733A20200043616C6325
:1012A000756C75733A20200043616C63756C7573BF
:1012B0003A20200043616C63756C75733A202000FE
:1012C00046696C616D656E742052656D6F766564FC
:1012D0002C20474F494E4720544F20434C45414E08
:1012E00020544845204E4F5A5A454C200A00466922
:1012F0006C616D656E7420496E7365727465642FE0
:1013000052656D6F7665642C2072657475726E69B6
:101310006E6720746F204D61696E204D656E75207B
:101320000A0054300043616C6962726174696F6EC7
:10133000205375636365737366756C2C20676F69E2
:101340006E67206261636B20746F206D61696E202F
:101350006D656E75200A005430004A756D70206FFF
:101360007665722073637265773120616E642073D5
:101370006372657732200A004A756D70206F76655A
:101380007220736372657731200A0047333400544A
:1013900030004733340054300047333400543000B9
:1013A00041646A757374205A446F776E200A004155
:1013B000646A757374205A5570200A0036302064B0
:1013C000656772656573200A00496E73657274699A
:1013D0006E67203A2020200A0053757266696E6796
:1013E0002030200A0053757266696E672030200A2B
:1013F0000053757266696E672030200A005375725B
:1014000066696E672030200A00456E746572206937
:101410006E207075726765206D6F6465200A0046E6
:10142000696C616D656E742052656D6F7665642CB4
:1014300020474F494E4720544F20434C45414E20B2
:10144000544845204E4F5A5A454C200A0053757255
:1014500066696E672030200A0053757266696E6790
:101460002030200A0054300053757266696E672080
:1014700030200A004D3234004D32332025730053A2
:10148000757266696E672030200A0053757266694E
:101490006E672030200A0053554343455353200ABA
:1014A0000041646A757374205A446F776E200A0095
:1014B00041646A757374205A5570200A00496E732E
:1014C000657274696E67203A2020200A00456E74A8
:1014D000657220696E207075726765206D6F646536
:1014E000200A00FF01FF0000A0400000A040000013
:1014F000004033F3974300809343000052430000C1
:101500000000008093430000000033F39743008005
:101510009343000052430000000000000000000060
:1015200000006563686F3A004572726F723A00207E
:10153000636F6C6420657874727573696F6E207068
:10154000726576656E746564006563686F3A007CE9
:101550003C3E5E2B3D3F2F5B5D3B2C2A225C0020F6
:101560005A3A0020593A0020583A00656E64737464
:101570006F7073206869743A200024F4D43050C32B
:101580008E20C2A24017828B7011127A910D816C4D
:10159000D90AA861E108C7586607615143061E4B86
:1015A0005D05C145A7041A411104093D980371392D
:1015B00031034036DB0265339102D4305402802E71
:1015C0001D02632CEE01752AC501B028A001102769
:1015D00081018F2564012B244B01E0223401AC21D1
:1015E0001F018D200D01801FFC00841EED00971D42
:1015F000DF00B81CD200E61BC600201BBC00641A2A
:10160000B200B219A8000A19A0006A189900D117EF
:10161000910040178B00B516840031167E00B3157B
:1016200079003A157300C7146F0058146A00EE135E
:1016300066008813630025135E00C7125B006C12FE
:10164000570015125400C111510070114F002111A3
:101650004B00D61049008D10470046104400021080
:101660004200C00F4000800F3E00420F3C00060FBA
:101670003B00CB0E3800930E37005C0E3500270E72
:101680003400F30D3200C10D3100900D3000600DBB
:101690002E00320D2D00050D2C00D90C2B00AE0CA8
:1016A0002900850C29005C0C2700350C27000E0C46
:1016B0002600E80B2400C40B2400A00B23007D0BA4
:1016C00023005A0B2100390B2100180B2000F80AC7
:1016D0001F00D90A1E00BB0A1E009D0A1D00800AB9
:1016E0001D00630A1C00470A1B002C0A1B00110A7C
:1016F0001A00F7091A00DD091900C4091900AB091D
:101700001900920917007B091800630917004C099A
:10171000160036091600200916000A091500F508FA
:101720001500E0081400CC081400B8081400A40840
:101730001400900813007D0812006B08130058086D
:101740001200460812003408110023081100120884
:10175000110001081100F0071000E0071000D00789
:101760001000C0071000B0070F00A107100091077C
:101770000E0083070F0074070F0065070E00570760
:101780000E0049070E003B070D002E070E00200734
:101790000D0013070D0006070D00F9060C00ED06FD
:1017A0000D00E0060C00D4060C00C8060C00BC06B8
:1017B0000C00B0060C00A4060B0099060C008D0668
:1017C0000B0082060B0077060B006C060B0061060F
:1017D0000A0057060B004C060A0042060A003806AB
:1017E0000A002E060A0024060A001A060A0010063D
:1017F000090007060A00FD050900F4050900EB05CC
:101800000900E2050900D9050900D0050900C7054E
:101810000900BE050900B5050800AD050800A505CD
:1018200009009C050800940508008C050800840543
:1018300008007C050800740508006C0507006505B4
:1018400008005D050700560508004E05070047051E
:1018500007004005080038050700310507002A0584
:101860000700230507001C050600160507000F05E5
:1018700007000805060002050700FB040600F50442
:101880000700EE040600E8040600E2040700DB049B
:101890000600D5040600CF040600C9040600C304F0
:1018A0000600BD040600B7040600B1040500AC0440
:1018B0000600A6040600A00405009B04060095048B
:1018C0000500900406008A040500850405008004D4
:1018D00006007A04050075040500700405006B0419
:1018E000050066040500610405005C04050057045A
:1018F0000500520405004D0405004804050043049A
:1019000005003E0404003A040500350405003004D7
:1019100004002C04050027040400230405001E0411
:1019200004001A04040016040500110404000D0448
:101930000400090405000404040000040400FC037E
:101940000400F8030400F4030400F0030400EC03B3
:101950000400E8030400E4030400E0030400DC03E3
:101960000400D8030400D4030400D0030400CC0313
:101970000400C8030300C503030024F404D9201B9A
:10198000C40C5C0E9804C4095F0265077101F4057C
:10199000F900FB04B30048048700C1036900580341
:1019A000550003034500BE023A0084023100530291
:1019B0002A002902250004022000E4011C00C801BD
:1019C0001900AF0117009801140084011300710180
:1019D00010006101100051010E0043010D0036019D
:1019E0000B002B010B0020010B00150109000C015D
:1019F000090003010800FB000800F3000800EB00E9
:101A00000700E4000600DE000600D8000600D20051
:101A10000600CC000500C7000500C2000500BD009F
:101A20000400B9000400B5000400B1000400AD00DA
:101A30000400A9000400A5000300A20003009F0009
:101A400004009B000300980003009500020093002F
:101A50000300900003008D0002008B00030088004B
:101A600002008600020084000300810002007F0063
:101A700002007D0002007B00020079000200770076
:101A80000100760002007400020072000100710083
:101A900002006F0002006D0001006C0002006A008D
:101AA0000100690002006700010066000100650096
:101AB000010064000200620001006100010060009A
:101AC00001005F0002005D0001005C0001005B009E
:101AD00001005A00010059000100580001005700A0
:101AE00001005600010055000100540001005300A0
:101AF000000053000100520001005100010050009D
:101B000001004F0001004E0000004E0001004D009A
:101B100001004C0001004B0000004B0001004A0096
:101B20000100490001004800000048000100470092
:101B3000010046000000460001004500000045008D
:101B40000100440001004300000043000100420086
:101B5000000042000100410000004100010040007F
:101B600001003F0000003F0001003E0000003E0079
:101B700001003D0000003D0001003C0000003C0071
:101B800000003C0001003B0000003B0001003A0067
:101B900000003A000100390000003900010038005F
:101BA0000000380000003800010037000000370056
:101BB000010036000000360000003600010035004C
:101BC0000000350000003500010034000000340042
:101BD0000000340001003300000033000000330037
:101BE000010032000000320000003200010031002C
:101BF0000000310000003100010030000000300022
:101C00000000300001002F0000002F0000002F0016
:101C100000002F0001002E0000002E0000002E000A
:101C200001002D0000002D0000002D0000002D00FF
:101C300001002C0000002C0000002C0000002C00F3
:101C400001002B0000002B0000002B0000002B00E7
:101C500001002A0000002A0000002A0000002A00DB
:101C600001002900000029000000290000002900CF
:101C700000002900010028000000280000002800C2
:101C800000002800000028000100270000002700B5
:101C900000002700000027000000270001002600A8
:101CA000000026000000260000002600000026009C
:101CB000010025000000250000002500000025008F
:101CC0000000250000002500010024000000240081
:101CD0000000240000002400000024000100230074
:101CE0000000230000002300000023000000230068
:101CF0000000230000002300010022000000220059
:101D0000000022000000220000002200000022004B
:101D1000010021000000210000002100000021003E
:101D2000000021000000210000002100010020002F
:101D30000000200000002000000020000000200023
:101D400000002000000020000000200001001F0013
:101D500000001F0000001F0000001F0000001F0007
:101D600000001F0000001F0001001E0000001E00F8
:101D700000001E0000001E0000006563686F3A004E
:101D8000546865726D616C2052756E617761792C53
:101D90002073797374656D2073746F70706564213E
:101DA000204865617465725F49443A2000205354AD
:101DB0004F50205052494E54200A002053544F5047
:101DC000205052494E54200A002053544F50205066
:101DD00052494E54200A004572726F7228383329D6
:101DE0003A204E6F7420626564207465726D697369
:101DF000746F722064657465637465640045727203
:101E00006F72283832293A204E6F74205269676801
:101E100074207465726D6973746F72206465746583
:101E200063746564004572726F72283831293A20F4
:101E30004E6F74204C656674207465726D6973749E
:101E40006F72206465746563746564005049442052
:101E50004175746F74756E652066696E6973686527
:101E6000642100504944204175746F74756E65207B
:101E70006661696C6564212074696D656F757400B5
:101E800020403A006F6B20543A006F6B20423A00BA
:101E9000504944204175746F74756E6520666169A0
:101EA0006C6564212054656D70657261747572652E
:101EB00020746F6F206869676800204B643A2000C7
:101EC000204B693A2000204B703A200020436C617F
:101ED000737369632050494420002054753A2000F0
:101EE000204B753A2000206D61783A2000206D6902
:101EF0006E3A200020643A200020626961733A2023
:101F000000504944204175746F74756E6520666990
:101F10006E6973686564212050757420746865204B
:101F20006C617374204B702C204B6920616E6420AF
:101F30004B6420636F6E7374616E74732066726F8E
:101F40006D2061626F766520696E746F20436F6EDD
:101F500066696775726174696F6E2E6800504944D6
:101F6000204175746F74756E65206661696C656477
:101F7000212074696D656F75740020403A006F6BA5
:101F800020543A006F6B20423A005049442041757A
:101F9000746F74756E65206661696C656421205488
:101FA000656D706572617475726520746F6F2068FD
:101FB00069676800204B643A2000204B693A200092
:101FC000204B703A200020436C617373696320508A
:101FD000494420002054753A2000204B753A2000D7
:101FE000206D61783A2000206D696E3A20002064EF
:101FF0003A200020626961733A20004572726F7264
:102000003A0070012C0190012701B0012201C001AA
:102010001D01F00118011002130130020E016002CF
:10202000090190020401C002FF000003FA0040030E
:10203000F5008003F000D003EB002004E6007004FC
:10204000E100E004DC004005D700C005D2004006F6
:10205000CD00D006C8008007C3003008BE00F008DD
:10206000B900C009B400B00AAF00B00BAA00D00C90
:10207000A500000EA000500F9B00C010960050124B
:10208000910000148C00C0158700B0178200B019B1
:102090007D00D01B7800001E730040206E0090224F
:1020A0006900F024640040275F0090295A00E02B6B
:1020B0005500102E500020304B0010324600E03307
:1020C000410090353C001037370070383200A0399D
:1020D0002D00B03A2800A03B2300603C1E00103DBC
:1020E0001900903D1400103E0F00703E0A00C03EE3
:1020F0000500003F000000000A0B02090C0D0E084D
:1021000007030401000000000000000000000000C0
:1021100000000000000000000000000000000000BF
:10212000000012111000000000000000000000007C
:10213000000000000000000000000000010210206C
:1021400020080810204010204080020102010804ED
:102150000201010204081020408080402010080481
:1021600002018004020180402010080402010804DA
:10217000020101020408102040800102040810201E
:102180004080050505050705080808080202020247
:102190000A0A080804040404010101010101010103
:1021A0000303030303030303040707070C0C0C0CCE
:1021B0000C0C0C0C020202020606060606060606B7
:1021C0000B0B0B0B0B0B0B0B00002000230026004E
:1021D00029002C002F00320000010000030106013D
:1021E000090100002200250028002B002E003100EC
:1021F000340002010000050108010B01000021006C
:10220000240027002A002D003000330001010000C7
:10221000040107010A014E414E494E495459494EA5
:1022200046CDCCCC3D0AD7233C17B7D13877CC2B41
:10223000329595E6241FB14F0A000020410000C8E6
:102240004200401C4620BCBE4CCA1B0E5AAEC59D67
:10225000746364696E6F70737578585B0000FD116C
:1022600023372F01F100FF00010111241FBECFEF22
:10227000D1E2DEBFCDBF00E00CBF1BE0A0E0B2E0CA
:10228000E0EAFFE303E00BBF02C007900D92A43623
:10229000B107D9F72DE1A4E6BBE001C01D92A43936
:1022A000B207E1F712E2C8E6D2E200E006C02297E8
:1022B0000109FE010BBF0F940C94CE35D10780E0CD
:1022C0000807A9F70F94C18A0D94BE9F0C940000D3
:1022D0008091930B90E02091940B821B91090895BB
:1022E0002091940B8091930B281750F4E22FF0E08B
:1022F000EB56F44F808190E02F5F2093940B08956C
:102300008FEF9FEF0895E091940B8091930BE81766
:1023100030F4F0E0EB56F44F808190E008958FEFB9
:102320009FEF08950895CF92DF92EF92FF920F935F
:102330001F93CF93DF937C01CB018A012091700B17
:10234000222389F0EB016B01C40ED51ECC15DD05EF
:1023500061F06991D701ED91FC910190F081E02D40
:10236000C7011995F3CF642F4BD0C801DF91CF91EE
:102370001F910F91FF90EF90DF90CF900895CF9332
:10238000DF931F92CDB7DEB769832091700B2223B4
:10239000D1F02091710B203240F021E030E0FC01BF
:1023A0003383228380E090E014C08091720BE82F89
:1023B000F0E0ED58F44F998190838F5F8093720B1A
:1023C0008093710B04C061E0CE01019619D081E0C9
:1023D00090E00F90DF91CF910895FC01138212825B
:1023E00048EE53E060E070E0448355836683778372
:1023F0008EE393E091838083089584E69BE0EDCFA4
:10240000613298F42091220C243089F46093D70B28
:10241000FC0189ED9BE0DC012A2F281B261718F40C
:1024200021912D93F9CF80E0089581E0089582E015
:10243000089585ED8093BC008091BC0084FDFCCFA5
:102440001092220C089585EC8093BC001092220C0F
:1024500008951F920F920FB60F9211240BB60F9290
:102460002F933F934F935F936F937F938F939F939C
:10247000AF93BF93EF93FF938091B900887F80362D
:1024800009F49DC070F5883209F45CC090F4803185
:1024900009F455C038F4882309F4F3C0883009F4EE
:1024A0004EC0F2C0883109F44DC0803209F45EC0DC
:1024B000EBC0803409F469C050F4803309F456C08D
:1024C000883309F0E1C08093B50BBDDFDDC08035F6
:1024D00009F44FC0883509F45DC0883409F0D4C0D0
:1024E000D2C0883909F4C3C0A8F4883709F467C09A
:1024F00038F4883609F463C0803709F460C0C4C07A
:10250000883809F4B4C0803909F45FC0803809F014
:10251000BBC05BC0803B09F482C038F4803A09F448
:1025200066C0883A09F47BC0AFC0803C09F4A3C000
:10253000883C09F4A0C0883B09F486C0A5C08091FE
:10254000210C10C09091FA0B8091F90B981770F53F
:10255000E091FA0B81E08E0F8093FA0BF0E0E550EA
:10256000F44F80818093BB0085EC82C08093B50BD3
:102570008AC0E091FA0B81E08E0F8093FA0B809174
:10258000BB00F0E0E550F44F80839091FA0B80910E
:10259000F90B6AC0E091FA0B81E08E0F8093FA0B81
:1025A0008091BB00F0E0E550F44F80838091200CD7
:1025B000811169C081E080931F0C84EA5DC083E0D3
:1025C0008093220C1092B60BCFCF8091B60B803245
:1025D00008F04DC0E091B60B81E08E0F8093B60BF2
:1025E0008091BB00F0E0E954F44F8083BDCF2BDF36
:1025F0008091B60B803230F4E091B60BF0E0E954F4
:10260000F44F10826091B60B70E0E0911B0CF091DA
:102610001C0C87EB9BE019951092B60B35C084E03B
:102620008093220C1092D80B1092D70BE0911D0CC6
:10263000F0911E0C19958091D70B811105C081E096
:102640008093D70B1092D90BE091D80B81E08E0FBD
:102650008093D80BF0E0E752F44F80818093BB0069
:102660009091D80B8091D70B981708F47DCF85E80F
:102670008093BC0009C085EC8093BC001092220CB2
:1026800003C01092B50BD5DEFF91EF91BF91AF91D2
:102690009F918F917F916F915F914F913F912F917A
:1026A0000F900BBE0F900FBE0F901F901895DC017E
:1026B000ED91FC910190F081E02D1994FC011482C0
:1026C00017821382128280E39AE0918380830895B7
:1026D00020E33AE0FC01318320832781222319F093
:1026E00004960D94AB570895CF92DF92EF92FF922C
:1026F0000F931F93CF93DF93EC01895A9F4FDEDF37
:10270000CE0188589F4FDADF7E0127E9E20EF11CE7
:1027100087016E0133E3C31A3EEFD30AC801CEDF4F
:10272000015E1F4F0C151D05C9F7FE01E153FE4F59
:1027300089E1818314823596178ACE018E509E4F8F
:10274000BDDFFE01ED55FD4F108211821282138212
:10275000389610821182128213821A821B821C8286
:10276000188219826E0189E5C81A8DEFD80AF60120
:102770001082118212821382F80111821082FE01EE
:10278000EF5EFD4F108286E391E0F7019C0111920C
:1027900021503040E1F7FE01E155FD4F81E080839B
:1027A000CB5ADF4F198218820F94848568577C4E6C
:1027B0008F4F9F4FF6016083718382839383DF91F4
:1027C000CF911F910F91FF90EF90DF90CF900895E0
:1027D000FC0120E03EE2DB014C91403241F0283028
:1027E00011F430833196DB014C91408331962F5F99
:1027F0006F5F7F4F2B3079F7108208952F923F92B1
:102800004F925F926F927F928F929F92AF92BF9200
:10281000CF92DF92EF92FF920F931F93CF93DF93AC
:10282000CDB7DEB7C858D1090FB6F894DEBF0FBEDA
:10283000CDBF8C016B017A01CA57DF4F1882C65891
:10284000D04084E0E80EF11C180192E1290E311C01
:10285000F801EC5AFF4FC957DF4FF983E883C75897
:10286000D0405801F0E5AF1AFDEFBF0A38018EE401
:10287000681A8DEF780A80E4482E512C4C0E5D1EAC
:1028800094E0490E511CA101BE016F5F7F4FC7014B
:102890000F94155618160CF009C12C85322F38717B
:1028A000303109F091C0F501808191810197029743
:1028B00008F48AC0BE016F5F7F4FCE0187589F4FDB
:1028C00087DFA0961FAEA097F6018081811107C017
:1028D0006AE473E0CE01815A9F4F0F943699B60196
:1028E000CE01815A9F4F0F943699BE0167587F4F92
:1028F000CE01815A9F4F0F9436996AE473E0CE015E
:10290000815A9F4F0F943699CE01805C9F4FD6DE3F
:1029100021E0AE0147585F4FB701C2010F94A259A1
:1029200081112EC0F50180819181892B49F5E4E761
:10293000F4E064914F01662361F0772767FD70959D
:1029400084E59CE1B4DEFFEF8F1A9F0AF4016491E5
:10295000F2CF6CE473E084E59CE10F940B8B6AE0AA
:1029600070E084E59CE1A3DEBE0167587F4F84E5FB
:102970009CE10F940B8B6AE070E084E59CE197DEAC
:102980008BE1FE01EC5BFF4FDE01959601900D920D
:102990008A95E1F724968EAD9FAD24979CA38BA3D7
:1029A00080E39AE09AA389A3AE014F5D5F4FBE0119
:1029B000615A7F4FC80122DFCE01819689DECE01A8
:1029C000805C9F4F85DE5FCF8981882309F46EC0CC
:1029D000853E09F458CF8E3209F455CF8F3509F46E
:1029E00052CFF8018289882331F08E3209F44BCF1F
:1029F0008F3509F448CF23FD46CF81E0303109F00F
:102A000080E0C957DF4FE881F981C758D040808303
:102A1000811108C08985873409F035CF8A858E37C2
:102A200009F431CF4801F5E08F0E911CBE016F5FB4
:102A30007F4FC401CDDEF50180819181009781F443
:102A4000B60184E59CE10F940B8BB40184E59CE115
:102A50000F940B8B6AE070E084E59CE128DE13CFD5
:102A60008130910539F4F301808191810196918340
:102A7000808309CF029709F006CFCA57DF4FF8814C
:102A8000C658D0402F2F30E0F30180819181281764
:102A9000390761F0CA57DF4FF881C658D040FF5F51
:102AA000CA57DF4FF883C658D040EDCEC857DF4F26
:102AB0000FB6F894DEBF0FBECDBFDF91CF911F914F
:102AC0000F91FF90EF90DF90CF90BF90AF909F90CD
:102AD0008F907F906F905F904F903F902F900895D0
:102AE0000F931F93CF93DF93CDB7DEB76F970FB6DA
:102AF000F894DEBF0FBECDBF8C01FC01E055FD4F49
:102B00001182108240E050E0BA01855A9F4F0F9425
:102B1000C856C801895A9F4F2BE1FC013496DE014B
:102B2000159601900D922A95E1F7FC01828193811F
:102B30009C838B8380E39AE09A838983AE014F5F05
:102B40005F4F67E57BE0C80159DECE010196C0DD2D
:102B50006F960FB6F894DEBF0FBECDBFDF91CF9159
:102B60001F910F9108952BE1FB013496DC0114961F
:102B700001900D922A95E1F7FB0122813381FC013E
:102B8000338322830895EF92FF920F931F93CF9385
:102B9000DF93EC011C82FC01E25AFF4F8081882305
:102BA00029F0CE01855A9F4F0F94AB577E0181E3E8
:102BB000E81A8EEFF80A45E360E0C7010F942C5243
:102BC00081113AC0E4E7F4E064918F01662359F083
:102BD000772767FD709584E59CE169DD0F5F1F4FE6
:102BE000F8016491F3CFE7E6F4E064918F01662386
:102BF00059F0772767FD709584E59CE158DD0F5FFC
:102C00001F4FF8016491F3CF6AE070E084E59CE126
:102C10004EDD8E01095A1F4FB801CE0188589F4FD3
:102C2000A2DFCA58DF4F19830883DF91CF911F912C
:102C30000F91FF90EF9008958E010C521E4F41E0CE
:102C4000B701C8010F94955F81112AC040E0B70118
:102C5000C8010F94955F811123C0EAE7F4E0649105
:102C60008F01662359F0772767FD709584E59CE115
:102C70001EDD0F5F1F4FF8016491F3CFE4E5F4E030
:102C800064918F01662309F4BFCF772767FD7095A4
:102C900084E59CE10CDD0F5F1F4FF8016491F2CFDA
:102CA000B801CE01855A9F4F0F94B954811123C0AA
:102CB000EAE7F4E064918F01662359F0772767FD16
:102CC000709584E59CE1F3DC0F5F1F4FF801649180
:102CD000F3CFE4E4F4E064918F01662309F494CF28
:102CE000772767FD709584E59CE1E1DC0F5F1F4F5E
:102CF000F8016491F2CF81E08C83E4E7F4E0649121
:102D00008F01662359F0772767FD709584E59CE174
:102D1000CEDC0F5F1F4FF8016491F3CFE9E3F4E0DD
:102D200064918F01662309F46FCF772767FD709553
:102D300084E59CE1BCDC0F5F1F4FF8016491F2CF8A
:102D4000FC01128214820895CF93DF93EC018C81F1
:102D50008823B9F06FE573E084E59CE10F940B8B59
:102D60004091260F5091270F6091280F7091290FE5
:102D700022E030E084E59CE10F94F58C81E08A83C9
:102D80001B82DF91CF910895FC018281882319F085
:102D9000128281E083830895AF92BF92CF92DF9237
:102DA000EF92FF920F931F93CF93DF931F92CDB7B4
:102DB000DEB78C018FE2FB0181935F01D12C41E0F2
:102DC0007801F3E3EF1AFEEFFF0A9FE1C92E2D2DE4
:102DD00030E0F7018081918128173907D8F4C29E2D
:102DE000C001C39E900D112485569F4FB501800FE1
:102DF000911F49830F946054C50149815C0101967C
:102E0000F5012081222321F04D3810F44F5FF6CFD9
:102E1000D394DDCF47FD11C0B501C8018A509E4F44
:102E20000F90DF91CF911F910F91FF90EF90DF9066
:102E3000CF90BF90AF900D946054F50110820F9029
:102E4000DF91CF911F910F91FF90EF90DF90CF9086
:102E5000BF90AF9008953F924F925F926F927F9292
:102E60008F929F92AF92BF92CF92DF92EF92FF929A
:102E70000F931F93CF93DF93CDB7DEB7AC970FB609
:102E8000F894DEBF0FBECDBF8C016B01342EFC0168
:102E90008481882309F4D0C2E750FE4F80818823C3
:102EA00009F407C12111D1C07801FFEEEF1AFDEF3F
:102EB000FF0AF7018081882309F432C0EAE7F4E0D1
:102EC00064918F01662359F0772767FD709584E53B
:102ED0009CE1EDDB0F5F1F4FF8016491F3CFE6EF4C
:102EE000F3E064918F01662359F0772767FD7095B1
:102EF00084E59CE1DCDB0F5F1F4FF8016491F3CFA9
:102F00004AE050E061E070E084E59CE10F94BA8B08
:102F10006AE070E084E59CE1CADB0E9495A18CC266
:102F2000E4E7F4E064915F01662361F0772767FDD1
:102F3000709584E59CE1BBDBFFEFAF1ABF0AF5019A
:102F40006491F2CFEDEDF3E064915F01662361F0EF
:102F5000772767FD709584E59CE1A9DBFFEFAF1A49
:102F6000BF0AF5016491F2CFB60184E59CE10F94AC
:102F70000B8BE2EDF3E064915F01662361F077274C
:102F800067FD709584E59CE192DBFFEFAF1ABF0A05
:102F9000F5016491F2CFF70180812DE8B22EB801DE
:102FA000B89E600D711D11246A5E7D4FC801F4DE6C
:102FB000F7018081B801B89E600D711D11246A5E11
:102FC0007D4F84E59CE10F940B8BECECF3E0649176
:102FD0005F01662361F0772767FD709584E59CE1CA
:102FE00066DBFFEFAF1ABF0AF5016491F2CF58011B
:102FF000F5E5AF1AFDEFBF0AF5014081518162810D
:1030000073812AE030E084E59CE10F94E78B6AE06D
:1030100070E084E59CE14BDBF7012081F80184E05E
:10302000289FE00DF11D1124AF014E5E5D4FF501AB
:1030300080819181A281B381FA0180839183A283EF
:10304000B3832F5FF70120832EC0E4E7F4E064919F
:103050007F01662361F0772767FD709584E59CE129
:1030600026DBFFEFEF1AFF0AF7016491F2CFEBEBDB
:10307000F3E064917F01662361F0772767FD709527
:1030800084E59CE114DBFFEFEF1AFF0AF70164917E
:10309000F2CFB60184E59CE10F940B8B6AE070E0FF
:1030A00084E59CE104DBC8018A509E4F0F94AB5726
:1030B00032C0F801EF5EFD4F1082E4E7F4E0649166
:1030C0007F01662361F0772767FD709584E59CE1B9
:1030D000EEDAFFEFEF1AFF0AF7016491F2CFEAEAA6
:1030E000F3E064917F01662361F0772767FD7095B7
:1030F00084E59CE1DCDAFFEFEF1AFF0AF701649147
:10310000F2CFB60184E59CE10F940B8B6AE070E08E
:1031100084E59CE1CCDAF8011282CE0101965C01D3
:10312000CDDA280196E7490E511CC801895A9F4FF4
:10313000F20191838083F60180818F3209F07BC098
:103140006FE270E0C6010F94419901967C01E11491
:10315000F10409F476C06FE270E0C7010F94419961
:103160004C01009709F46EC0E816F90608F06AC031
:103170003C016E187F08A301B701CE0180960F9421
:103180006A99E0E2F0E0EC0FFD1FE60DF71D1082FA
:10319000BE01605E7F4F84E59CE10F940B8B6AE07B
:1031A00070E084E59CE183DAF20160817181611550
:1031B000710519F06C5F7F4F02C060E070E021E0A4
:1031C000AE01405E5F4FCE0105960F94A25981116A
:1031D0002AC0E6E9F3E064918F01662359F077276E
:1031E00067FD709584E59CE162DA0F5F1F4FF8017F
:1031F0006491F3CFBE01605E7F4F84E59CE10F9444
:103200000B8BE4E9F3E064918F01662309F40DC1AF
:10321000772767FD709584E59CE149DA0F5F1F4FC2
:10322000F8016491F2CFF201B182A0827401FFEF44
:10323000EF1AFF0A8CCFC80188589F4FF201918383
:1032400080837601C8018A509E4F4C01F201608153
:103250007181332009F49AC06115710519F06C5F12
:103260007F4F02C060E070E021E0A701C4010F942D
:10327000A259882309F462C0F40181899289A38943
:10328000B489F801ED55FD4F80839183A283B38308
:10329000E6E8F3E064914F01C8018D559D4F6C0144
:1032A000662361F0772767FD709584E59CE1FFD97F
:1032B0009FEF891A990AF4016491F2CFB70184E56E
:1032C0009CE10F940B8BEEE7F3E064917F016623A2
:1032D00061F0772767FD709584E59CE1E8D9FFEF01
:1032E000EF1AFF0AF7016491F2CFF6014081518194
:1032F000628173812AE030E084E59CE10F94E78BE2
:103300006AE070E084E59CE1D2D9F801E555FD4F13
:103310001082118212821382E0E7F3E064918F0140
:10332000662309F482C0772767FD709584E59CE1E8
:10333000BED90F5F1F4FF8016491F2CFECE5F3E0C7
:1033400064918F01662359F0772767FD709584E5B6
:103350009CE1ADD90F5F1F4FF8016491F3CFB70126
:1033600084E59CE10F940B8BEAE5F3E064918F0117
:10337000662309F45AC0772767FD709584E59CE1C0
:1033800096D90F5F1F4FF8016491F2CF6115710557
:1033900019F06C5F7F4F02C060E070E026E5A70186
:1033A000C4010F94A259811127C0E6E4F3E06491AF
:1033B0008F01662359F0772767FD709584E59CE1BE
:1033C00076D90F5F1F4FF8016491F3CFB70184E501
:1033D0009CE10F940B8BE4E4F3E064918F0166238E
:1033E00021F1772767FD709584E59CE160D90F5F37
:1033F0001F4FF8016491F3CF81E0F8018083E2E38D
:10340000F3E064918F01662359F0772767FD70958B
:1034100084E59CE14CD90F5F1F4FF8016491F3CF15
:10342000B60184E59CE10F940B8B6AE070E084E5C3
:103430009CE13DD9C5014CD9AC960FB6F894DEBFDE
:103440000FBECDBFDF91CF911F910F91FF90EF90F5
:10345000DF90CF90BF90AF909F908F907F906F90B4
:103460005F904F903F90089521E0FC01218340E060
:10347000F2CC4F925F926F927F928F929F92AF9217
:10348000BF92CF92DF92EF92FF920F931F93CF9351
:10349000DF93CDB7DEB7AC970FB6F894DEBF0FBEA3
:1034A000CDBF7C015B01FC018481882309F4F9C054
:1034B000C7018A509E4F0F94AB57F7011282CE017D
:1034C00001966C01FBD8270196E7490E511CC701F4
:1034D000895A9F4FF20191838083F50180818F3259
:1034E00009F077C06FE270E0C5010F9441998C013B
:1034F0000F5F1F4F09F473C06FE270E0C8010F94B3
:1035000041994C01009709F46BC00817190708F09E
:1035100067C03C01601A710AA301B801CE01809610
:103520000F946A99E0E2F0E0EC0FFD1FE60DF71D45
:103530001082BE01605E7F4F84E59CE10F940B8B8F
:103540006AE070E084E59CE1B2D8F20160817181AB
:103550006115710519F06C5F7F4F02C060E070E08B
:1035600021E0AE01405E5F4FCE0105960F94A25957
:1035700081112AC0EEE1F3E064918F01662359F0D6
:10358000772767FD709584E59CE191D80F5F1F4F09
:10359000F8016491F3CFBE01605E7F4F84E59CE14A
:1035A0000F940B8BECE1F3E064918F01662309F437
:1035B00071C0772767FD709584E59CE178D80F5F2F
:1035C0001F4FF8016491F2CFF201D182C0828401D1
:1035D0008FCFC70188589F4FF20191838083850167
:1035E000F20180819181009711F0049602C080E081
:1035F00090E0B8010F94785A882321F1EEE0F3E0CF
:1036000064915F01662361F0772767FD709584E51B
:103610009CE14DD8FFEFAF1ABF0AF5016491F2CFDC
:10362000B80184E59CE10F940B8B6AE070E084E5BF
:103630009CE13DD8F701E555FD4F108211821282C1
:1036400013822DC0E6EFF2E064917F01662361F002
:10365000772767FD709584E59CE129D8FFEFEF1A85
:10366000FF0AF7016491F2CFB80184E59CE10F9461
:103670000B8BE4EFF2E064918F01662359F077271A
:1036800067FD709584E59CE112D80F5F1F4FF8012C
:103690006491F3CF6AE070E084E59CE108D8C6014C
:1036A00017D8AC960FB6F894DEBF0FBECDBFDF9132
:1036B000CF911F910F91FF90EF90DF90CF90BF902F
:1036C000AF909F908F907F906F905F904F900895F4
:1036D0000F931F93CF93DF93EC018C81882309F420
:1036E0003EC0E2EEF2E064918F01662361F077273D
:1036F00067FD709584E59CE10E9457130F5F1F4F93
:10370000F8016491F2CFFE01E555FD4F40815181F2
:10371000628173812AE030E084E59CE10F94E78BBD
:10372000E0EEF2E064918F01662361F0772767FD98
:10373000709584E59CE10E9457130F5F1F4FF801BD
:103740006491F2CFCD55DD4F488159816A817B81EB
:103750002AE030E084E59CE10F94E78B11C0E0EDB6
:10376000F2E06491EF01662359F0772767FD7095C9
:1037700084E59CE10E9457132196FE016491F3CFEA
:103780006AE070E084E59CE1DF91CF911F910F9199
:103790000C945713AF92BF92CF92DF92EF92FF92A9
:1037A0000F931F93CF93DF935C01EB01FB0101901B
:1037B0000020E9F78F0101501109061B170B6C015E
:1037C000FAE0CF1AFEEFDF0AF60110826EE470E035
:1037D000CE010F9441997C01009729F4F8013197AB
:1037E000EC0FFD1F0DC060E270E00F944199EC01F9
:1037F00021966AE270E0C7010F944199FC0131976C
:103800008DE081838AE082831382BE01C5018E50E0
:103810009E4F0F943E5CF6018081882391F1EAE788
:10382000F4E06491EF01662359F0772767FD709506
:1038300084E59CE10E9457132196FE016491F3CF29
:10384000EAEBF2E06491EF01662359F0772767FD18
:10385000709584E59CE10E9457132196FE016491C6
:10386000F3CF6AE070E084E59CE1DF91CF911F9196
:103870000F91FF90EF90DF90CF90BF90AF900C949E
:103880005713DF91CF911F910F91FF90EF90DF9031
:10389000CF90BF90AF9008952F923F924F925F923A
:1038A0006F927F928F929F92AF92BF92CF92DF9250
:1038B000EF92FF920F931F93CF93DF93CDB7DEB7B5
:1038C000CC55D1090FB6F894DEBF0FBECDBF4C0169
:1038D0008C0101551D4F662339F0F8011082F40167
:1038E000848181111DC015C0F8018081882309F4ED
:1038F000AFC0F401E955FD4FC080D180E280F38074
:103900000F948485C616D706E806F90608F4A0C009
:10391000E4CFC40138D9F4018481882309F498C024
:103920007401F5E5EF0EF11CF70181818F93808121
:103930008F9381EB92E09F938F938E01015C1F4FD9
:103940001F930F930F94A7990F900F900F900F90C4
:103950000F900F90B12CF80101900020E9F73197FA
:10396000E01BF10BBE1684F46801CB0CD11CB7FC34
:10397000DA94F6018081992787FD90950F94DF985E
:10398000F6018083B394E7CFFBE58F0E911C40E0F6
:1039900050E0BA01C4010F94C856512CCE010196D3
:1039A0006C013AEA632E32E0732E5E0191E2A90EB9
:1039B000B11C40E050E0B601C4010F941556181632
:1039C000DCF5412CF60101900020E9F73197EC1964
:1039D000FD094E1674F41601240C311C47FC3A9470
:1039E000F101808190E00F94DF98F101808343948E
:1039F000E9CF8A858E37E9F245E050E0B801C6018B
:103A00000F945C99892BA9F61F930F937F926F9265
:103A1000BF92AF920F94A799C5010E945D3C86EAC0
:103A200092E00E94D93C0F900F900F900F900F9052
:103A30000F9055245394BDCF511004C08FEF9FEFCA
:103A4000F70104C0F7018081918101969183808301
:103A5000C45ADF4F0FB6F894DEBF0FBECDBFDF9163
:103A6000CF911F910F91FF90EF90DF90CF90BF907B
:103A7000AF909F908F907F906F905F904F903F900E
:103A80002F9008950F931F93CF93DF93EC018C0138
:103A90000A501E4FC8010F946157C8010F94AB57CD
:103AA00018821982DF91CF911F910F910895EF92A3
:103AB000FF920F931F93CF93DF93CDB7DEB76F972E
:103AC0000FB6F894DEBF0FBECDBF8C017C0186E738
:103AD000E80EF11CC80188589F4FF701918380833D
:103AE000E65CFD4F22E030E031832083329670E0C7
:103AF0007183608340E050E0BA0104960F94C85689
:103B0000F701808191812BE1FC013496DE0115964D
:103B100001900D922A95E1F7FC01828193819C83AB
:103B20008B8380E39AE09A838983AE014F5F5F4F76
:103B300067E57BE0C8010E94FE13CE0101960E945A
:103B400068136F960FB6F894DEBF0FBECDBFDF913E
:103B5000CF911F910F91FF90EF900895CF92DF9238
:103B6000EF92FF920F931F93CF93DF93CDB7DEB702
:103B70006F970FB6F894DEBF0FBECDBF8C016C01FE
:103B800026E7C20ED11C88589F4FF601918380838F
:103B9000E65CFD4F21E030E0318320837801FEE4D4
:103BA000EF1AFDEFFF0AF7011182108240E050E0AA
:103BB000BA0104960F94C856F601808191812BE1D9
:103BC000FC013496DE01159601900D922A95E1F7DD
:103BD000FC01828193819C838B8380E39AE09A83AA
:103BE0008983AE014F5F5F4F67E57BE0C8010E94AC
:103BF000FE13CE0101960E946813F7018081918126
:103C00006F960FB6F894DEBF0FBECDBFDF91CF9198
:103C10001F910F91FF90EF90DF90CF900895AF929A
:103C2000BF92CF92DF92EF92FF920F931F93CF93A9
:103C3000DF93CDB7DEB76F970FB6F894DEBF0FBE38
:103C4000CDBF8C017B01CE0101960E945E13F8016D
:103C5000E158FF4F80816801811104C027E5C20E41
:103C6000D11C03C088E7C80ED11C21E0A701B60112
:103C70006C5F7F4FCE0105960F94A259811136C01B
:103C8000E4E7F4E064918F01662361F0772767FD34
:103C9000709584E59CE10E9457130F5F1F4FF80158
:103CA0006491F2CFE0E9F2E064918F01662361F064
:103CB000772767FD709584E59CE10E9457130F5F9D
:103CC0001F4FF8016491F2CFB70184E59CE10F9496
:103CD0000B8B6AE070E084E59CE10E945713CE01F3
:103CE00001960E9468138FEF9FEF3AC0F801E353EB
:103CF000FE4F808191818A30910530F59C012F5FC4
:103D00003F4F318320832FE1289F7001299FF00CC2
:103D10001124F7E9EF0EF11CE00EF11E5C01B70172
:103D2000C7014F960E94B31521E0A21AB1088FE196
:103D3000E81AF108EFEFAE16BE0689F7B601C80122
:103D400089569F4F0E94B315BE016F5F7F4FC80118
:103D500088589F4F0E94B315CE0101960E946813A8
:103D60006F960FB6F894DEBF0FBECDBFDF91CF9137
:103D70001F910F91FF90EF90DF90CF90BF90AF9089
:103D80000895EF92FF920F931F93CF93DF93EC016F
:103D9000C353DE4F288139812115310529F1215086
:103DA0003109398328838C0109561F4FB80188587F
:103DB0009F4F0E94B315C80100E010E028813981AF
:103DC0007C014FE1E40EF11C0217130738F40F5F7A
:103DD0001F4FB7010E94B315C701F0CF81E090E0FB
:103DE000232B21F080E002C08FEF9FEFDF91CF9176
:103DF0001F910F91FF90EF9008958F929F92AF9235
:103E0000BF92CF92DF92EF92FF920F931F93CF93C7
:103E1000DF93EC0110926C0F8091EC0E9091ED0EFF
:103E200001969093ED0E8093EC0ED2D28BE892E047
:103E30000E94D93C0F9413697E018FEEE81A8DEF32
:103E4000F80AF70180818E010A501E4F8823D9F1AC
:103E5000C8010F94AB57F701808181508083BE0168
:103E6000FDE88F9F600D711D11246A5E7D4F21E07A
:103E700041E0CE010E942B17F7018081FE0194E002
:103E8000899FE00DF11D1124EE5EFD4F40815181AF
:103E900062817381FE01E555FD4F4083518362834A
:103EA0007383C8010F94C856CE01DF91CF911F9143
:103EB0000F91FF90EF90DF90CF90BF90AF909F90C9
:103EC0008F900C94A4160F94A469C8010F94AB575B
:103ED0001A8220E030E045E050E06AE070E087EDD3
:103EE00092E10E949C3480E090E00E94F9890F9456
:103EF000136986E892E00E94D93C0F9413691092EE
:103F00002F1C10922E1C1092311C1092301C1092FB
:103F10002D1C10922C1C1092BC0F1092BB0F1092F3
:103F2000BA0F6091F20E7091F30E8091F40E9091A1
:103F3000F50E2CE330E040E050E00F94F792309320
:103F4000EF0E2093EE0E7093F10E6093F00EC09082
:103F5000DF18D090E018E090E118F090E21820917E
:103F6000DE0E3091DF0E4091E00E5091E10E609137
:103F7000E20E7091E30E8091E40E9091E50E0F94A5
:103F80004E8F4B015C0120912319309124194091EF
:103F9000251950912619609127197091281980913F
:103FA000291990912A190F948F8FA70196010F94C8
:103FB0007B8E9B01AC01C501B4010F949B8D0F94C6
:103FC000E38E2093DE0E3093DF0E4093E00E50938D
:103FD000E10E6093E20E7093E30E8093E40E9093F3
:103FE000E50E2091D60E3091D70E4091D80E50910B
:103FF000D90E6091DA0E7091DB0E8091DC0E9091FB
:10400000DD0E0F944E8F4B015C0120911B193091F6
:104010001C1940911D1950911E1960911F19709122
:10402000201980912119909122190F948F8FA70147
:1040300096010F947B8E9B01AC01C501B4010F94D6
:104040009B8D0F94E38E2093D60E3093D70E409322
:10405000D80E5093D90E6093DA0E7093DB0E8093D6
:10406000DC0E9093DD0E2091CE0E3091CF0E40915C
:10407000D00E5091D10E6091D20E7091D30E8091DE
:10408000D40E9091D50E0F944E8F6B017C01209130
:104090001319309114194091151950911619609106
:1040A0001719709118198091191990911A190F9474
:1040B0008F8F2091E3183091E4184091E5185091CA
:1040C000E6180F947B8E9B01AC01C701B6010F94DB
:1040D0009B8D0F94E38E2093CE0E3093CF0E4093A2
:1040E000D00E5093D10E6093D20E7093D30E809366
:1040F000D40E9093D50EC090EB18D090EC18E090B1
:10410000ED18F090EE182091C60E3091C70E409138
:10411000C80E5091C90E6091CA0E7091CB0E80915D
:10412000CC0E9091CD0E0F944E8F4B015C012091DF
:104130000B1930910C1940910D1950910E19609185
:104140000F197091101980911119909112190F94F3
:104150008F8FA70196010F947B8E9B01AC01C50147
:10416000B4010F949B8D0F94E38E2093C60E309371
:10417000C70E4093C80E5093C90E6093CA0E709339
:10418000CB0E8093CC0E9093CD0E2091BE0E30912D
:10419000BF0E4091C00E5091C10E6091C20E709141
:1041A000C30E8091C40E9091C50E0F944E8F4B019B
:1041B0005C01209103193091041940910519509127
:1041C0000619609107197091081980910919909149
:1041D0000A190F948F8FA70196010F947B8E9B0174
:1041E000AC01C501B4010F949B8D0F94E38E209315
:1041F000BE0E3093BF0E4093C00E5093C10E60931D
:10420000C20E7093C30E8093C40E9093C50E10928D
:104210002319109224191092251910922619109220
:104220002719109228191092291910922A19109200
:104230001B1910921C1910921D1910921E19109220
:104240001F19109220191092211910922219109200
:104250001319109214191092151910921619109220
:104260001719109218191092191910921A19109200
:104270000B1910920C1910920D1910920E19109220
:104280000F19109210191092111910921219109200
:104290000319109204191092051910920619109220
:1042A0000719109208191092091910920A1990D042
:1042B0008AE792E00E94D93C80917E188823F9F029
:1042C00010927E18C091BD0ED0E0CC0FDD1FC25DF4
:1042D000D34E68817981882777FD8095982F0F9438
:1042E000548F20919E0230919F024091A0025091E4
:1042F000A1020F940391181614F419821882DF9109
:10430000CF911F910F91FF90EF90DF90CF90BF90D2
:10431000AF909F908F9008958D559D4FFC016081C7
:10432000718182819381089585559D4FFC01608143
:104330007181828193810895EF92FF920F931F9371
:10434000CF93DF931F92CDB7DEB78C017B01460F71
:10435000F70161917F01F8018081918149830F9478
:10436000A59EF80180819181019691838083498186
:104370004E11EECF0F90DF91CF911F910F91FF90D3
:10438000EF900895EF92FF920F931F93CF93DF93D7
:104390001F92CDB7DEB78C017B01460FF8018081FB
:1043A000918149830F949D9EF70181937F01F801CC
:1043B0008081918101969183808349814E11EECF56
:1043C0000F90DF91CF911F910F91FF90EF90089583
:1043D0000F931F93CF93DF93CDB7DEB768970FB6D8
:1043E000F894DEBF0FBECDBF80E390E3A0E3B0E062
:1043F0008D839E83AF83B88704E610E0188F0F8B00
:1044000044E0BE016B5F7F4FCE01479695DF40E1F0
:104410006FED78E1CE0147968FDF40E16FEE78E1F6
:10442000CE01479689DF40E16FEC78E1CE014796F7
:1044300083DF44E067EC78E1CE0147967DDF44E01E
:1044400063EC78E1CE01479677DF44E06BEC78E1EE
:10445000CE01479671DF44E063EB78E1CE014796E9
:104460006BDF44E06FEF78E1CE01479665DF44E013
:104470006FEB78E1CE0147965FDF44E06BEB78E1CC
:10448000CE01479659DF44E067EB78E1CE014796CD
:1044900053DF4CE069E37FE0CE0147964DDF87EDC7
:1044A00090E09E8B8D8B8DE290E09C8B8B8B1A8A9B
:1044B000198A80EF90E0988B8F8786E490E09E8742
:1044C0008D871C861B8642E0BE016B5E7F4FCE014E
:1044D000479632DF42E0BE016D5E7F4FCE014796C8
:1044E0002BDF42E0BE016F5E7F4FCE01479624DF97
:1044F00042E0BE01615F7F4FCE0147961DDF42E083
:10450000BE01635F7F4FCE01479616DF42E0BE01DA
:10451000655F7F4FCE0147960FDF44E066E27FE0A4
:10452000CE01479609DF44E06BE272E0CE01479688
:1045300003DF44E063E372E0CE014796FDDE44E032
:104540006BE372E0CE014796F7DE42E067E97FE079
:10455000CE014796F1DE42E06BE97FE0CE0147965F
:10456000EBDE42E069E97FE0CE014796E5DE42E01E
:1045700065E97FE0CE014796DFDE42E067E87FE055
:10458000CE014796D9DE42E06BE87FE0CE01479648
:10459000D3DE42E069E87FE0CE014796CDDE42E01F
:1045A00065E87FE0CE014796C7DE42E06FE87FE036
:1045B000CE014796C1DE42E063E97FE0CE01479637
:1045C000BBDE42E061E97FE0CE014796B5DE42E026
:1045D0006DE87FE0CE014796AFDE42E06FE77FE017
:1045E000CE014796A9DE42E063E87FE0CE01479620
:1045F000A3DE42E061E87FE0CE0147969DDE42E027
:104600006DE77FE0CE01479697DE44E06DEF72E004
:10461000CE01479691DE44E065EF72E0CE01479609
:104620008BDE44E06DEE72E0CE01479685DE44E01D
:1046300061E073E0CE0147967FDE44E069EF72E00F
:10464000CE01479679DE44E061EF72E0CE014796F5
:1046500073DE42E068EF7EE0CE0147966DDE42E019
:104660006CEE7EE0CE01479667DE42E06AEE7EE0C9
:10467000CE01479661DE42E068EE7EE0CE014796CD
:104680005BDE42E066EF7EE0CE01479655DE42E01B
:1046900066EE7EE0CE0147964FDE80E290E09A879C
:1046A000898742E0BE01675F7F4FCE01479644DEB7
:1046B00042E064EC7FE0CE0147963EDE44E060ECF1
:1046C0007FE0CE01479638DE42E06EEB7FE0CE0120
:1046D000479632DE42E060EF7EE0CE0147962CDE68
:1046E00042E06EEE7EE0CE01479626DE48E06EEDBB
:1046F0007EE0CE01479620DE48E066ED7EE0CE010A
:1047000047961ADE48E06EEC7EE0CE01479614DE56
:1047100048E066EC7EE0CE0147960EDE48E06EEBA8
:104720007EE0CE01479608DE86E591E3A2E3B0E0A5
:1047300089839A83AB83BC83188F0F8B44E0BE01BF
:104740006F5F7F4FCE014796F7DDE4EBF9E06491B0
:104750008F01662361F0772767FD709584E59CE102
:104760000E9457130F5F1F4FF8016491F2CFE4EAE4
:10477000F9E064918F01662361F0772767FD7095FA
:1047800084E59CE10E9457130F5F1F4FF80164916D
:10479000F2CF6AE070E084E59CE10E9457136896CE
:1047A0000FB6F894DEBF0FBECDBFDF91CF911F9142
:1047B0000F9108950F931F93CF93DF93C4EBD9E02C
:1047C000FE0164918E01662361F0772767FD709585
:1047D00084E59CE10E9457130F5F1F4FF80164911D
:1047E000F2CFE4E9F9E064918F01662361F0772765
:1047F00067FD709584E59CE10E9457130F5F1F4F82
:10480000F8016491F2CF6AE070E084E59CE10E94D7
:104810005713FE01649104EB19E0662361F07727DA
:1048200067FD709584E59CE10E9457130F5F1F4F51
:10483000F8016491F2CF4091DF185091E018609137
:10484000E1187091E2188CE899E00E94F13B4091E8
:10485000E3185091E4186091E5187091E61889E822
:1048600099E00E94F13B4091E7185091E81860915F
:10487000E9187091EA1886E899E00E94F13B4091AE
:10488000EB185091EC186091ED187091EE1883E8D8
:1048900099E00E94F13B67E57BE084E59CE10F94A1
:1048A0000B8B6AE070E084E59CE10E945713FE01E7
:1048B000649104EB19E0662361F0772767FD70953A
:1048C00084E59CE10E9457130F5F1F4FF80164912C
:1048D000F2CFE9E6F9E064918F01662361F0772772
:1048E00067FD709584E59CE10E9457130F5F1F4F91
:1048F000F8016491F2CF6AE070E084E59CE10E94E7
:104900005713FE01649104EB19E0662361F07727E9
:1049100067FD709584E59CE10E9457130F5F1F4F60
:10492000F8016491F2CF4091EF185091F018609126
:10493000F1187091F21880E699E00E94F13B4091E5
:10494000F3185091F4186091F5187091F6188DE5F0
:1049500099E00E94F13B4091F7185091F81860914E
:10496000F9187091FA188AE599E00E94F13B40919C
:10497000FB185091FC186091FD187091FE1887E5A6
:1049800099E00E94F13B67E57BE084E59CE10F94B0
:104990000B8B6AE070E084E59CE10E945713FE01F6
:1049A000649104EB19E0662361F0772767FD709549
:1049B00084E59CE10E9457130F5F1F4FF80164913B
:1049C000F2CFE9E3F9E064918F01662361F0772784
:1049D00067FD709584E59CE10E9457130F5F1F4FA0
:1049E000F8016491F2CF6AE070E084E59CE10E94F6
:1049F0005713FE01649104EB19E0662361F07727F9
:104A000067FD709584E59CE10E9457130F5F1F4F6F
:104A1000F8016491F2CF4091CF185091D018609175
:104A2000D1187091D21880E399E00E94393C4091EE
:104A3000D3185091D4186091D5187091D6188DE282
:104A400099E00E94393C4091D7185091D818609154
:104A5000D9187091DA188AE299E00E94393C4091A5
:104A6000DB185091DC186091DD187091DE1887E238
:104A700099E00E94393C67E57BE084E59CE10F9476
:104A80000B8B6AE070E084E59CE10E945713FE0105
:104A9000649104EB19E0662361F0772767FD709558
:104AA00084E59CE10E9457130F5F1F4FF80164914A
:104AB000F2CFE2EFF8E064918F01662361F077278F
:104AC00067FD709584E59CE10E9457130F5F1F4FAF
:104AD000F8016491F2CF6AE070E084E59CE10E9405
:104AE0005713FE01649104EB19E0662361F0772708
:104AF00067FD709584E59CE10E9457130F5F1F4F7F
:104B0000F8016491F2CF4091C7185091C818609194
:104B1000C9187091CA1889EE98E00E94F13B409143
:104B2000C3185091C4186091C5187091C61886EECC
:104B300098E00E94F13B67E57BE084E59CE10F94FF
:104B40000B8B6AE070E084E59CE10E945713FE0144
:104B5000649104EB19E0662361F0772767FD709597
:104B600084E59CE10E9457130F5F1F4FF801649189
:104B7000F2CFE3E3F8E064918F01662361F07727D9
:104B800067FD709584E59CE10E9457130F5F1F4FEE
:104B9000F8016491F2CF6AE070E084E59CE10E9444
:104BA0005713FE01649104EB19E0662361F0772747
:104BB00067FD709584E59CE10E9457130F5F1F4FBE
:104BC000F8016491F2CF4091CB185091CC186091CC
:104BD000CD187091CE188AE298E00E94F13B409186
:104BE000B3185091B4186091B5187091B61887E257
:104BF00098E00E94F13B4091FF185091001960919C
:104C000001197091021984E298E00E94393C4091A8
:104C1000BF185091C0186091C1187091C21881E2FC
:104C200098E00E94F13B4091BB185091BC186091F4
:104C3000BD187091BE188EE198E00E94F13B409142
:104C4000B7185091B8186091B9187091BA188BE1E3
:104C500098E00E94F13B67E57BE084E59CE10F94DE
:104C60000B8B6AE070E084E59CE10E945713FE0123
:104C7000649104EB19E0662361F0772767FD709576
:104C800084E59CE10E9457130F5F1F4FF801649168
:104C9000F2CFE9E0F8E064918F01662361F07727B5
:104CA00067FD709584E59CE10E9457130F5F1F4FCD
:104CB000F8016491F2CF6AE070E084E59CE10E9423
:104CC0005713FE01649104EB19E0662361F0772726
:104CD00067FD709584E59CE10E9457130F5F1F4F9D
:104CE000F8016491F2CF4091390F50913A0F6091E1
:104CF0003B0F70913C0F80E098E00E94F13B4091A7
:104D00003D0F50913E0F60913F0F7091400F8DEF1E
:104D100097E00E94F13B4091410F5091420F60910A
:104D2000430F7091440F8AEF97E00E94F13B67E5D3
:104D30007BE084E59CE10F940B8B6AE070E084E5F6
:104D40009CE10E945713FE01649104EB19E0662375
:104D500061F0772767FD709584E59CE10E94571309
:104D60000F5F1F4FF8016491F2CFECEEF7E0649112
:104D70008F01662361F0772767FD709584E59CE1DC
:104D80000E9457130F5F1F4FF8016491F2CF6AE042
:104D900070E084E59CE10E945713FE01649104EBEE
:104DA00019E0662361F0772767FD709584E59CE143
:104DB0000E9457130F5F1F4FF8016491F2CF40918B
:104DC000FD025091FE026091FF02709100038FED91
:104DD00097E00E94F13B6091F5027091F60280919C
:104DE000F7029091F8020F94EE7FAB01BC018CEDBD
:104DF00097E00E94F13B6091ED027091EE0280918C
:104E0000EF029091F0020F94FA7FAB01BC0189EDA3
:104E100097E00E94F13B40910103509102036091A1
:104E200003037091040389EC97E00E94F13B6091C9
:104E3000F9027091FA028091FB029091FC020F94AA
:104E4000EE7FAB01BC0186EC97E00E94F13B6091E4
:104E5000F1027091F2028091F3029091F4020F94AA
:104E6000FA7FAB01BC0183EC97E00E94F13B67E560
:104E70007BE084E59CE10F940B8B6AE070E084E5B5
:104E80009CE10E945713FE01649104EB19E0662334
:104E900061F0772767FD709584E59CE10E945713C8
:104EA0000F5F1F4FF8016491F2CFE5EBF7E06491DB
:104EB0008F01662361F0772767FD709584E59CE19B
:104EC0000E9457130F5F1F4FF8016491F2CF6AE001
:104ED00070E084E59CE10E945713FE01649104EBAD
:104EE00019E0662361F0772767FD709584E59CE102
:104EF0000E9457130F5F1F4FF8016491F2CF40914A
:104F00002B0250912C0260912D0270912E0281EBA8
:104F100097E00E94F13B409133025091340260913E
:104F20003502709136028DEA97E00E94F13B409184
:104F30003B0250913C0260913D0270913E0289EA31
:104F400097E00E94F13B4091260F5091270F60910E
:104F5000280F7091290F80EA97E00E94F13B67E5E6
:104F60007BE084E59CE10F940B8B6AE070E084E5C4
:104F70009CE10E945713FE01649104EB19E0662343
:104F800061F0772767FD709584E59CE10E945713D7
:104F90000F5F1F4FF8016491F2CFE6E9F7E06491EB
:104FA0008F01662361F0772767FD709584E59CE1AA
:104FB0000E9457130F5F1F4FF8016491F2CF6AE010
:104FC00070E084E59CE10E945713FE01649104EBBC
:104FD00019E0662361F0772767FD709584E59CE111
:104FE0000E9457130F5F1F4FF8016491F2CF409159
:104FF0009B0F50919C0F662757FD6095762F8AE88E
:1050000097E00E94393C4091990F50919A0F662782
:1050100057FD6095762F8BE797E00E94393C4091D1
:10502000950F5091960F662757FD6095762F8FE666
:1050300097E00E94393C4091970F5091980F662756
:1050400057FD6095762F81E697E00E94393C68E62F
:1050500073E084E59CE10F940B8B6AE070E084E5DB
:105060009CE10E945713FE01649104EB19E0662352
:1050700061F0772767FD709584E59CE10E945713E6
:105080000F5F1F4FF8016491F2CFE7E5F7E06491FD
:105090008F01662361F0772767FD709584E59CE1B9
:1050A0000E9457130F5F1F4FF8016491F2CF6AE01F
:1050B00070E084E59CE10E945713FE01649104EBCB
:1050C00019E0662361F0772767FD709584E59CE120
:1050D0000E9457130F5F1F4FF8016491F2CF409168
:1050E000930F5091940F662757FD6095762F8BE4B0
:1050F00097E00E94393C4091910F5091920F6627A2
:1051000057FD6095762F8CE397E00E94393C4091E3
:105110008D0F50918E0F662757FD6095762F80E397
:1051200097E00E94393C40918F0F5091900F662775
:1051300057FD6095762F82E297E00E94393C68E641
:1051400073E084E59CE10F940B8B6AE070E084E5EA
:105150009CE10E945713FE01649104EB19E0662361
:1051600061F0772767FD709584E59CE10E945713F5
:105170000F5F1F4FF8016491F2CFEBE1F7E064910C
:105180008F01662361F0772767FD709584E59CE1C8
:105190000E9457130F5F1F4FF8016491F2CF6AE02E
:1051A00070E084E59CE10E945713FE01649104EBDA
:1051B00019E0662361F0772767FD709584E59CE12F
:1051C0000E9457130F5F1F4FF8016491F2CF409177
:1051D000F80E5091F90E662757FD6095762F81E104
:1051E00097E00E94393C4091F60E5091F70E6627E9
:1051F00057FD6095762F8FEF96E00E94393C4091E5
:10520000EC0E5091ED0E662757FD6095762F8AEED5
:1052100096E00E94393C4091EA0E5091EB0E6627D1
:1052200057FD6095762F8BED96E00E94393C4091BA
:10523000E80E5091E90E662757FD6095762F8AECAF
:1052400096E00E94393C4091E60E5091E70E6627A9
:1052500057FD6095762F89EB96E00E94393C2091AE
:10526000DE0E3091DF0E4091E00E5091E10E609124
:10527000E20E7091E30E8091E40E9091E50E0F9492
:105280004E8F20E030E04AE754E40F947B8EAB0170
:10529000BC0180EA96E00E94F13B2091D60E30914D
:1052A000D70E4091D80E5091D90E6091DA0E7091C0
:1052B000DB0E8091DC0E9091DD0E0F944E8F20E07E
:1052C00030E04AE754E40F947B8EAB01BC0188E8E0
:1052D00096E00E94F13B2091CE0E3091CF0E40918E
:1052E000D00E5091D10E6091D20E7091D30E80915C
:1052F000D40E9091D50E0F944E8F20E030E04AE707
:1053000054E40F947B8EAB01BC0181E796E00E94D0
:10531000F13B2091C60E3091C70E4091C80E5091BE
:10532000C90E6091CA0E7091CB0E8091CC0E9091F7
:10533000CD0E0F944E8F20E030E04AE754E40F94F6
:105340007B8EAB01BC0189E596E00E94F13B209188
:10535000BE0E3091BF0E4091C00E5091C10E6091B3
:10536000C20E7091C30E8091C40E9091C50E0F9421
:105370004E8F20E030E04AE754E40F947B8EAB017F
:10538000BC0181E496E00E94F13B6BED73E084E5A3
:105390009CE10F940B8B6AE070E084E59CE10E9435
:1053A0005713FE01649104EB19E0662361F077273F
:1053B00067FD709584E59CE10E9457130F5F1F4FB6
:1053C000F8016491F2CFE3E2F6E064918F01662385
:1053D00061F0772767FD709584E59CE10E94571383
:1053E0000F5F1F4FF8016491F2CF6AE070E084E52F
:1053F0009CE10E945713FE01649104EB19E06623BF
:1054000061F0772767FD709584E59CE10E94571352
:105410000F5F1F4FF8016491F2CF4091C40F50917C
:10542000C50F662757FD6095762F80E196E00E94B4
:10543000393C4091C00F5091C10F6091C20F7091E3
:10544000C30F8BEF95E00E94393C4091BE0F509105
:10545000BF0F662757FD6095762F88EE95E00E9476
:10546000393C67E57BE084E59CE10F940B8B6AE0B7
:1054700070E084E59CE10E945713FE01649104EB07
:1054800019E0662361F0772767FD709584E59CE15C
:105490000E9457130F5F1F4FF8016491F2CFE4EDA4
:1054A000F5E064918F01662361F0772767FD7095C1
:1054B00084E59CE10E9457130F5F1F4FF801649130
:1054C000F2CF6AE070E084E59CE10E945713FE0190
:1054D000C49104EB19E0CC2369F06C2F772767FDAA
:1054E000709584E59CE10E9457130F5F1F4FF801F0
:1054F000C491F1CF4091EE0E5091EF0E662757FD0B
:105500006095762F89EB95E00E94393C4091F00E32
:105510005091F10E662757FD6095762F8EEA95E043
:105520000E94393C67E57BE084E59CE10F940B8B9E
:105530006AE070E084E59CE1DF91CF911F910F91CB
:105540000C945713AF92BF92CF92DF92EF92FF92DB
:105550000F931F93CF93DF93CDB7DEB7E0970FB6CE
:10556000F894DEBF0FBECDBF80E1E5E0F3E0DE01E1
:10557000919601900D928A95E1F780E1E5E1F3E0E3
:10558000DE01519601900D928A95E1F780E1E5E206
:10559000F3E0DE01119601900D928A95E1F76E011C
:1055A00021E2C20ED11C8FEDE82E88E1F82E8E018B
:1055B0000F5E1F4F6FEE78E1AE014F5F5F4F9FECC4
:1055C000A92E98E1B92E20E030E0F6018191919169
:1055D000A191B1916F01F70181939193A193B1933F
:1055E0007F01F80181919191A191B1918F01FB010E
:1055F00081939193A193B193BF01FA01819191910C
:10560000A191B191AF01F50181939193A193B193D0
:105610005F012F5F3F4F24303105B9F60F94624B85
:1056200080E090E8ABEBB4E48093C7189093C8187F
:10563000A093C918B093CA1880E090E0AAEFB4E430
:105640008093C3189093C418A093C518B093C6183C
:105650001092CB181092CC181092CD181092CE1830
:1056600080E29EE4A0E0B0E08093FF1890930019E0
:10567000A0930119B09302191092B3181092B418A4
:105680001092B5181092B61880E090E0A0EAB0E44D
:105690008093BF189093C018A093C118B093C218FC
:1056A0004DEC5CEC6CEC7EE34093BB185093BC1863
:1056B0006093BD187093BE188093B7189093B81874
:1056C000A093B918B093BA181092410F1092420FDC
:1056D0001092430F1092440F10923D0F10923E0F04
:1056E00010923F0F1092400F1092390F10923A0F04
:1056F00010923B0F10923C0F67ED70E07093980F83
:105700006093970F4CED50E050939C0F40939B0F8C
:105710002AEA30E030939A0F2093990F81E490E0C9
:105720009093960F8093950F7093880F6093870FD7
:1057300050938C0F40938B0F30938A0F2093890FD7
:105740009093860F8093850F7093900F60938F0FC7
:105750005093940F4093930F3093920F2093910F97
:1057600090938E0F80938D0F7093800F60937F0FB7
:105770005093840F4093830F3093820F2093810FB7
:1057800090937E0F80937D0F8AE999E9A9E3B0ECAD
:105790008093260F9093270FA093280FB093290F83
:1057A0008091C40F9091C50F01978A379105D8F465
:1057B0002091BE0F3091BF0F2F30F7E23F079CF4CE
:1057C0008091C00F9091C10FA091C20FB091C30FF3
:1057D0001216130644F40197A109B1098E339244BD
:1057E000AF40B10580F01092C50F1092C40F109217
:1057F000C00F1092C10F1092C20F1092C30F1092DF
:10580000BF0F1092BE0F1092F10E1092F00E109278
:10581000EF0E1092EE0E1092DE0E1092DF0E10922E
:10582000E00E1092E10E1092E20E1092E30E109232
:10583000E40E1092E50E1092CE0E1092CF0E109242
:10584000D00E1092D10E1092D20E1092D30E109252
:10585000D40E1092D50EE4EBF9E064918F0166232B
:1058600061F0772767FD709584E59CE10E945713EE
:105870000F5F1F4FF8016491F2CFE2E7F5E064910A
:105880008F01662361F0772767FD709584E59CE1C1
:105890000E9457130F5F1F4FF8016491F2CF6AE027
:1058A00070E084E59CE1E0960FB6F894DEBF0FBE91
:1058B000CDBFDF91CF911F910F91FF90EF90DF90BF
:1058C000CF90BF90AF900C945713CF92DF92EF928E
:1058D000FF92CF93DF9383E393EFA7E9B3E4809341
:1058E0002B0290932C02A0932D02B0932E028AE9F2
:1058F00099E9A9E1BEEB8093330290933402A0931F
:105900003502B09336028DEC9CECACECBDEB809391
:105910003B0290933C02A0933D02B0933E022CE5E3
:10592000C22E2FE8D22E22E7E22E21E4F22EC092E0
:10593000FD02D092FE02E092FF02F092000361EEBF
:105940007AE784E99FE30F94E87F6093F502709310
:10595000F6028093F7029093F8026FE175E885E410
:1059600092E40F94F47F6093ED027093EE028093C3
:10597000EF029093F002C0920103D0920203E092F2
:105980000303F092040361EE7AE784E99FE30F9446
:10599000E87F6093F9027093FA028093FB02909380
:1059A000FC026FE175E885E492E40F94F47F609364
:1059B000F1027093F2028093F3029093F40280E07C
:1059C00090E0A0E8BFE38093E5029093E602A09305
:1059D000E702B093E8028093E9029093EA02A09371
:1059E000EB02B093EC02E4EBF9E06491EF01662383
:1059F00059F0772767FD709584E59CE10E94571365
:105A00002196FE016491F3CFE2E4F5E06491EF01A9
:105A1000662359F0772767FD709584E59CE10E9425
:105A200057132196FE016491F3CF6AE070E084E59C
:105A30009CE1DF91CF91FF90EF90DF90CF900C949D
:105A400057130F931F93CF93DF93CDB7DEB76897AC
:105A50000FB6F894DEBF0FBECDBF84E690E0988FFE
:105A60008F8B86E591E3A2E3B0E089839A83AB83D1
:105A7000BC8344E0BE016B5F7F4FCE0147960E941E
:105A8000C22143E050E0BE016B5F7F4FCE01019623
:105A90000F945C99892B09F014C240E16FED78E115
:105AA000CE0147960E94C22140E16FEE78E1CE011F
:105AB00047960E94C22140E16FEC78E1CE01479603
:105AC0000E94C2210F94624B44E067EC78E1CE0162
:105AD00047960E94C22144E063EC78E1CE014796EC
