:100000000C948F160C94C0160C94C0160C94C01649
:100010000C94C0160C94C0160C94C0160C94C01608
:100020000C94C0160C94C0160C94C0160C94C016F8
:100030000C94C0160C94C0160C94C0160C94C016E8
:100040000C94C0160C94C0160C94C0160C94C016D8
:100050000C94C0160C94C0160C942FE40C9408E277
:100060000C94C0160C9441E00C9418E00C94C0164B
:100070000C94C0160C94C0160C94C0160C94C016A8
:100080000C9431930C94C0160C94C0160C94C016AA
:100090000C94C0160C94C0160C94C0160C94C01688
:1000A0000C94C0160C94C0160C94C0160C94C01678
:1000B0000C94C0160C94C0160C94C0160C94C01668
:1000C0000C94C0160C94C0160C94C0160C94EFDF60
:1000D0000C94C6DF0C94C0160C94C0160C94C01679
:1000E0000C94C0163B3314575333303014576E2AD8
:1000F0001457782A14571457563EB72A14571457D2
:10010000D326CE2614575D3F14571457145708456D
:1001100010456A4A724A694D145757459545D3456B
:10012000AC463046A43F963F23306E461457732AA0
:100130002B27552AF72F7A411830534ACD500D30CE
:1001400002305B4A634A145745331845F43B214259
:10015000802AE226D8261457083AA72B524D145766
:100160005A4DE52C7A4A1436FD29944EC13AA651CF
:100170007536CA4A2045714DEB2BDD34DD348F34A2
:10018000D6363B37052DCE2AE52A942A342DC926AA
:10019000DD2614571457145785339A2DBC2D102B78
:1001A0001C41F9402845304537453F4547454F45B7
:1001B000E145E945F145F94501460946104618462D
:1001C000204628462047BA4696475749E1487B488B
:1001D0001457624D5C2DDF2DF42E85339C34A434EE
:1001E000C2344B4AD14C144D464D434AA43C0A27D5
:1001F000CD561433145714570F551457C340B23FFC
:1002000018387238CB38A33745389E38F8387E39DD
:1002100052394C3238325B403D300031CA31013204
:1002200016555D3203332639145714571457145793
:10023000145714571457145714577A41162B1E2B62
:10024000442B59569556014D274D7A4A464D794DC6
:10025000784E145733518E51D0501D51944FB35195
:100260001457AD4F7F3D5D535E3E363FA05314574C
:10027000145733527C52C75212532C52C051EB5177
:10028000E353E454385614571457EF551457145782
:1002900048561457F32BBD509B4FB64F5D506450DA
:1002A000552AC4500D79EB79D87AB37A0F7A8E7AC1
:1002B000697A327957797C79537B787B9D7BC27BD5
:1002C000C679A179447A66DF69DF58DF5CDF62DFD7
:1002D000A0DF6DDF71DF77DF7BDF7FDF85DF89DF29
:1002E0008DDFA0DF93DF97DF9BDF24E129E12EE1A3
:1002F00038E142E1BBE14CE154E15CE166E170E1EF
:100300007AE189E193E1BBE19DE1A7E1B1E1B9E4E3
:10031000C6E4E2E4EFE409E516E530E532E534E56C
:1003200036E53EE5084AD73B3BCE016E84BCBFFDB7
:10033000C12F3D6C74319ABD56833DDA3D00C77FB5
:1003400011BED9E4BB4C3E916BAAAABE000000804E
:100350003F05A84CCDB2D44EB93836A9020C50B9DD
:10036000918688083CA6AAAA2ABE000000803F0009
:100370000D9400820D9415920D9430914E414E498A
:100380004E495459494E46CDCCCC3D0AD7233C1753
:10039000B7D13877CC2B329595E6241FB14F0A00A0
:1003A0000020410000C84200401C4620BCBE4CCA90
:1003B0001B0E5AAEC59D746364696E6F7073757859
:1003C000585B003B202020757365526166742C25B4
:1003D00064004D36303520532564004733340049DE
:1003E0004E464F3A204245442043414C4942202D3D
:1003F000200053757266696E6720300A00473238F4
:10040000205830205930005430005431005430000E
:1004100054300053757266696E6720300A004734A5
:10042000330047343300473431004734300047331A
:100430003400473433004734330047343100473405
:1004400030004D3834004D3834004D3834005A32C5
:10045000204F66667365743A20004F4B20736563C6
:100460006F6E6420457874727564657221005A203D
:10047000706F736974696F6E3A20005A20706F73E1
:100480006974696F6E3A20004D3834005A3120503B
:10049000726F6265206F66667365743A20004F4B19
:1004A0002066697273742045787472756465722170
:1004B000200A005A20706F736974696F6E3A2000C9
:1004C0005A20706F736974696F6E3A200043616CD3
:1004D00063756C75733A20200043616C63756C75AD
:1004E000733A20200043616C63756C75733A202069
:1004F0000043616C63756C75733A202000363020C0
:1005000064656772656573200A00543000543000DA
:1005100054300043616C6962726174696F6E20537C
:1005200075636365737366756C0A005430004A75B1
:100530006D70206F7665722073637265773120610C
:100540006E6420736372657732200A004A756D709D
:10055000206F76657220736372657731200A0047D9
:1005600033340047333400473334005430004733CA
:100570003400494E464F3A204245442043414C49BD
:1005800042202D20004C6F6164696E670A0053752C
:100590007266696E6720300A0053757266696E670D
:1005A00020300A0053757266696E6720300A002594
:1005B00033642025634300253364202563430025ED
:1005C0003364202563430050757267652046696C6B
:1005D000616D656E740A0025336420256343002530
:1005E00033642025634300253364202563430025BD
:1005F00033642025634300253364202563430025AD
:10060000336420256343002533642025634300259C
:100610003364202563430053757266696E6720302A
:100620000A0053757266696E6720300A0054300004
:10063000466F756E640053757266696E6720300A86
:10064000004D33340053757266696E6720300A00BE
:100650004D3234004D3233202573004D3234004D7D
:1006600032332025730054686520666972737420E4
:100670006C61796572207072696E74656420776947
:1006800074682074686520257320486F74656E64F3
:100690000A77696C6C20626520646973746F727488
:1006A00065642062792025642E253164253164201B
:1006B0006D6D0053757266696E6720300A00537560
:1006C0007266696E6720300A0053757266696E67DC
:1006D00020300A00535543434553530A00253364E1
:1006E00020256343002533642025634300253364BC
:1006F00020256343002533642025634300253364AC
:10070000202563430025336420256343002533649B
:10071000202563430025336420256343002533648B
:1007200020256343004C6F6164696E673A0A0025B7
:10073000336420256343002533642025634300256B
:100740003364202563430050757267652046696CE9
:10075000616D656E74200A005374617274696E670E
:10076000205A2043616C6962726174696F6E205710
:10077000697A6172640047363920414354495641D1
:10078000544544002E0044656C6574696F6E2066A4
:1007900061696C65642C2046696C653A2000466985
:1007A0006C652064656C657465643A002E006F703A
:1007B000656E206661696C65642C2046696C653ADB
:1007C00020004649524D574152455F4E414D453AF2
:1007D0004D61726C696E2056313B20537072696EA8
:1007E0007465722F6772626C206D6173687570201A
:1007F000666F722067656E36204649524D574152EA
:10080000455F55524C3A68747470733A2F2F67697C
:10081000746875622E636F6D2F4572696B5A616CD7
:100820006D2F4D61726C696E2F2050524F544F43A3
:100830004F4C5F56455253494F4E3A312E30204D62
:10084000414348494E455F545950453A4D656E64A1
:10085000656C2045585452554445525F434F554EA0
:10086000543A3220555549443A30303030303030E7
:10087000302D303030302D303030302D3030303081
:100880002D3030303030303030303030300A0020D1
:100890005A3A0020593A0020436F756E7420583A36
:1008A000200020453A00205A3A0020593A00583A90
:1008B000007A5F6D696E3A2000795F6D61783A2049
:1008C00000785F6D61783A2000785F6D696E3A203C
:1008D000002C2073617665645F466C61675F6661BA
:1008E0006E6C617965725F6D6972726F723A200029
:1008F0002C2073617665645F6665656472617465FA
:100900003A20002C2073617665645F66616E6C61CD
:100910007965723A20002C2073617665645F746596
:100920006D706265643A20002C2073617665645FA7
:1009300074656D70303A20002C2073617665645FB9
:1009400074656D70313A20002C2073617665645FA8
:1009500066696C65706F736974696F6E3A20002CFC
:100960002073617665645F655F706F736974696F2A
:100970006E3A20002C2073617665645F746F6F6C33
:100980005F6163746976653A20002C207361766537
:10099000645F7A5F706F736974696F6E3A20002CC0
:1009A0002073617665645F795F706F736974696FD6
:1009B0006E3A20002C2073617665645F785F706FFB
:1009C000736974696F6E3A20005341564520505246
:1009D000494E54204C4F473A006563686F3A0050C7
:1009E00072696E74207265636F76657279207570B6
:1009F000004E6F74207072696E74207265636F763A
:100A00006572792075700053554343455353005622
:100A1000616C756573206F7574206F662072616EEE
:100A200067650056616C756573206F7574206F661D
:100A30002072616E67650056616C756573206F7515
:100A400074206F662072616E67650056616C756513
:100A500073206F7574206F662072616E6765005336
:100A60005543434553530056616C756573206F754C
:100A700074206F662072616E67650056616C7565E3
:100A800073206F7574206F662072616E6765005603
:100A9000616C756573206F7574206F662072616E6E
:100AA00067650056616C756573206F7574206F669D
:100AB0002072616E676500504F534954494F4E2074
:100AC000484F4D453A20002200556E6B6E6F776E91
:100AD00020636F6D6D616E643A20220053757266FB
:100AE000696E672030200A0043616C69627261742C
:100AF000696F6E205375636365737366756C0A0066
:100B00005430004D383420582059205A2045004692
:100B10006F726D20322100526561647920746F20FC
:100B20004C6F61642F556E6C6F6164200A00256400
:100B300025250025336420256343002533642025C3
:100B4000634300253364256343202F202533642528
:100B5000634300253364256343202F202533642518
:100B6000634300253364256343202F202533642508
:100B70006343005072696E74204A6F622046696E4A
:100B80006973686564004D383420582059205A2014
:100B900045004D31303700543000256420697465BC
:100BA0006D73002534643A252E326468202F202589
:100BB00064670000496E7374616C6C2025642025A5
:100BC00073206F6E2074686520257320686F7465CC
:100BD0006E640043616C63756C75733A202000434A
:100BE000616C63756C75733A20200043616C6375AA
:100BF0006C75733A202000496E7374616C6C20250B
:100C000064202573206F6E2074686520257320682A
:100C10006F74656E640025336420256343002533BB
:100C200064202563430050757267652046696C61D6
:100C30006D656E740A0053757266696E6720310ABD
:100C40000053757266696E6720300A002200656E77
:100C5000717565696E672022002200656E71756589
:100C6000696E67202200202D20496E76616C6964D0
:100C7000206578747275646572206E756D62657238
:100C80002021004572726F723A0067636F646520BD
:100C9000666F756E640020746F20537461727420E7
:100CA000446973706C61792066726F6D2052657350
:100CB000657400546F6F6B2000646973706C6179A8
:100CC000206F6E6C696E6521002E00646973706C14
:100CD0006179206F66666C696E650042434E3344ED
:100CE000205369676D610073746172740065636895
:100CF0006F3A0030312D312E322E3752430065725B
:100D0000726F722077726974696E6720746F2066E3
:100D1000696C6500205A3A0020593A0020583A0080
:100D2000656E6473746F7073206869743A2000652F
:100D300063686F3A00446F6E6520736176696E6711
:100D40002066696C652E006F6B004D32390024F40B
:100D5000D43050C38E20C2A24017828B7011127AF9
:100D6000910D816CD90AA861E108C75866076151E5
:100D700043061E4B5D05C145A7041A411104093DF8
:100D80009803713931034036DB0265339102D43068
:100D90005402802E1D02632CEE01752AC501B02875
:100DA000A001102781018F2564012B244B01E02233
:100DB0003401AC211F018D200D01801FFC00841E19
:100DC000ED00971DDF00B81CD200E61BC600201BFB
:100DD000BC00641AB200B219A8000A19A0006A186F
:100DE0009900D117910040178B00B5168400311679
:100DF0007E00B31579003A157300C7146F005814BC
:100E00006A00EE1366008813630025135E00C712A4
:100E10005B006C12570015125400C1115100701183
:100E20004F0021114B00D61049008D10470046108D
:100E3000440002104200C00F4000800F3E00420FED
:100E40003C00060F3B00CB0E3800930E37005C0EC3
:100E50003500270E3400F30D3200C10D3100900D26
:100E60003000600D2E00320D2D00050D2C00D90C28
:100E70002B00AE0C2900850C29005C0C2700350CDA
:100E800027000E0C2600E80B2400C40B2400A00B46
:100E900023007D0B23005A0B2100390B2100180B76
:100EA0002000F80A1F00D90A1E00BB0A1E009D0A76
:100EB0001D00800A1D00630A1C00470A1B002C0A43
:100EC0001B00110A1A00F7091A00DD091900C409EC
:100ED0001900AB091900920917007B091800630972
:100EE00017004C09160036091600200916000A09D9
:100EF0001500F5081500E0081400CC081400B80827
:100F00001400A4081400900813007D0812006B0858
:100F10001300580812004608120034081100230874
:100F200011001208110001081100F0071000E0077D
:100F30001000D0071000C0071000B0070F00A10775
:100F4000100091070E0083070F0074070F0065075C
:100F50000E0057070E0049070E003B070D002E0735
:100F60000E0020070D0013070D0006070D00F906FF
:100F70000C00ED060D00E0060C00D4060C00C806BF
:100F80000C00BC060C00B0060C00A4060B00990671
:100F90000C008D060B0082060B0077060B006C061A
:100FA0000B0061060A0057060B004C060A004206B9
:100FB0000A0038060A002E060A0024060A001A064D
:100FC0000A001006090007060A00FD050900F405DD
:100FD0000900EB050900E2050900D9050900D00563
:100FE0000900C7050900BE050900B5050800AD05E3
:100FF0000800A50509009C050800940508008C055B
:101000000800840508007C050800740508006C05CC
:101010000700650508005D050700560508004E0538
:10102000070047050700400508003805070031059F
:1010300007002A050700230507001C050600160502
:1010400007000F0507000805060002050700FB045E
:101050000600F5040700EE040600E8040600E204BA
:101060000700DB040600D5040600CF040600C9040F
:101070000600C3040600BD040600B7040600B10460
:101080000500AC040600A6040600A00405009B04AD
:10109000060095040500900406008A0405008504F6
:1010A0000500800406007A0405007504050070043C
:1010B00005006B04050066040500610405005C047E
:1010C000050057040500520405004D0405004804BE
:1010D0000500430405003E0404003A0405003504FD
:1010E0000500300404002C04050027040400230438
:1010F00005001E0404001A0404001604050011046F
:1011000004000D04040009040500040404000004A4
:101110000400FC030400F8030400F4030400F003DB
:101120000400EC030400E8030400E4030400E0030B
:101130000400DC030400D8030400D4030400D0033B
:101140000400CC030400C8030300C503030024F417
:1011500004D9201BC40C5C0E9804C4095F02650707
:101160007101F405F900FB04B30048048700C103D2
:1011700069005803550003034500BE023A0084028B
:10118000310053022A002902250004022000E40154
:101190001C00C8011900AF01170098011400840158
:1011A0001300710110006101100051010E00430194
:1011B0000D0036010B002B010B0020010B00150167
:1011C00009000C01090003010800FB000800F300FE
:1011D0000800EB000700E4000600DE000600D8006F
:1011E0000600D2000600CC000500C7000500C200C2
:1011F0000500BD000400B9000400B5000400B10002
:101200000400AD000400A9000400A5000300A20032
:1012100003009F0004009B0003009800030095005A
:10122000020093000300900003008D0002008B0079
:101230000300880002008600020084000300810091
:1012400002007F0002007D0002007B0002007900A6
:1012500002007700010076000200740002007200B4
:101260000100710002006F0002006D0001006C00BF
:1012700002006A00010069000200670001006600C8
:1012800001006500010064000200620001006100CD
:101290000100600001005F0002005D0001005C00D1
:1012A00001005B0001005A000100590001005800D4
:1012B00001005700010056000100550001005400D4
:1012C00001005300000053000100520001005100D2
:1012D0000100500001004F0001004E0000004E00D0
:1012E00001004D0001004C0001004B0000004B00CC
:1012F00001004A00010049000100480000004800C8
:1013000001004700010046000000460001004500C2
:1013100000004500010044000100430000004300BC
:1013200001004200000042000100410000004100B5
:101330000100400001003F0000003F0001003E00AE
:1013400000003E0001003D0000003D0001003C00A7
:1013500000003C0000003C0001003B0000003B009E
:1013600001003A0000003A00010039000000390095
:10137000010038000000380000003800010037008C
:101380000000370001003600000036000000360083
:101390000100350000003500000035000100340078
:1013A000000034000000340001003300000033006E
:1013B0000000330001003200000032000000320063
:1013C0000100310000003100000031000100300058
:1013D000000030000000300001002F0000002F004E
:1013E00000002F0000002F0001002E0000002E0042
:1013F00000002E0001002D0000002D0000002D0037
:1014000000002D0001002C0000002C0000002C002A
:1014100000002C0001002B0000002B0000002B001E
:1014200000002B0001002A0000002A0000002A0012
:1014300000002A0001002900000029000000290006
:1014400000002900000029000100280000002800F9
:1014500000002800000028000000280001002700EC
:1014600000002700000027000000270000002700E0
:1014700001002600000026000000260000002600D3
:1014800000002600010025000000250000002500C6
:1014900000002500000025000000250001002400B8
:1014A00000002400000024000000240000002400AC
:1014B000010023000000230000002300000023009F
:1014C0000000230000002300000023000100220090
:1014D0000000220000002200000022000000220084
:1014E0000000220001002100000021000000210076
:1014F0000000210000002100000021000000210068
:10150000010020000000200000002000000020005A
:10151000000020000000200000002000000020004B
:1015200001001F0000001F0000001F0000001F003E
:1015300000001F0000001F0000001F0001001E002F
:1015400000001E0000001E0000001E0000005049A8
:1015500044204175746F74756E652066696E697399
:10156000686564212050757420746865206C61730F
:1015700074204B702C204B6920616E64204B6420DA
:10158000636F6E7374616E74732066726F6D206129
:10159000626F766520696E746F20436F6E6669674F
:1015A00075726174696F6E2E6800504944204175F0
:1015B000746F74756E65206661696C656421207452
:1015C000696D656F75740020403A006F6B20543A66
:1015D000006F6B20423A00504944204175746F748B
:1015E000756E65206661696C6564212054656D7057
:1015F0006572617475726520746F6F2068696768C1
:1016000000204B643A2000204B693A2000204B70A8
:101610003A200020436C6173736963205049442071
:10162000002054753A2000204B753A2000206D614F
:10163000783A2000206D696E3A200020643A20003C
:1016400020626961733A200053544154495354490C
:10165000435320524553455400486F74656E6420CF
:101660006F6666736574733A0054696D6520696EC0
:10167000616374697665005075726765206469738B
:1016800074616E6365005A204F6666736574206FDF
:101690006B005A204F6666736574203A20007A5FAB
:1016A0006D61783A20007A5F6D696E3A20005A20A9
:1016B0004F666673657400504F534954494F4E202E
:1016C000484F4D453A200045787472756465722024
:1016D00072656C6561736564206163746976653AEF
:1016E00020005A205349474D4120486F6D656400E2
:1016F0004578747275646572206163746976653AC1
:101700002000000000000080934300000000000063
:10171000A0400000A0400000004020004D6F766512
:1017200020746F3A2000CDCC984300809343000092
:101730005243FF01FF20636F6C64206578747275FB
:1017400073696F6E2070726576656E74656400658E
:1017500063686F3A00504944204175746F74756E28
:10176000652066696E69736865642100504944208C
:101770004175746F74756E65206661696C6564216E
:101780002074696D656F75740020403A006F6B209E
:10179000543A006F6B20423A00504944204175741E
:1017A0006F74756E65206661696C6564212054658F
:1017B0006D706572617475726520746F6F206869F1
:1017C000676800204B643A2000204B693A200020D3
:1017D0004B703A200020436C617373696320504959
:1017E0004420002054753A2000204B753A200020F8
:1017F0006D61783A2000206D696E3A200020643ACD
:10180000200020626961733A20003B20472D436F1E
:1018100064652067656E6572617465642062792015
:1018200053696D706C696679334428522920566576
:101830007273696F6E202564003B5072696E74206C
:1018400074696D653A202564202573202564202560
:1018500073202564202573003B54494D453A256C7F
:1018600064003B2020204275696C642074696D65BA
:101870003A202564202573202564202573003B2011
:101880002020506C617374696320776569676874A0
:101890003A2025642E256467003B46696C616D65BE
:1018A0006E7420757365643A2025642E25646D205E
:1018B00025642E256467003B46696C616D656E7416
:1018C00020757365643A20256C642E256C646D0068
:1018D0002E2E2E2054696D656F757421002A2A2AD8
:1018E0002047656E69652057726974654F626A6545
:1018F0006374202A2A2A202D2D2D3E002E2E2E20E4
:101900004E414B2021002A2A2A2047656E69652016
:1019100057726974654F626A656374202A2A2A20A7
:101920002D2D2D3E002E2E2E2041434B2021002A0E
:101930002A2A2047656E69652057726974654F626F
:101940006A656374202A2A2A202D2D2D3E005365B6
:101950007474696E67732053746F72656400204DF0
:10196000696E75746573203A0020204C6173742091
:101970007072696E742074696D652D3E20486F75B4
:101980007273203A004C617374207072696E742017
:101990006475726174696F6E002C2054686972649A
:1019A000204944206E756D62657220002C205365BD
:1019B000636F6E64204944206E756D6265723A20D3
:1019C0000020204669727374204944206E756D6250
:1019D00065723A2000554920496E666F726D6174D8
:1019E000696F6E2053657269616C204E756D62651A
:1019F000723A00206D2C204531207072696E74207F
:101A000064697374616E63653A2000206B6D2C20ED
:101A10004530207072696E742064697374616E63FE
:101A2000653A2000206B6D2C2059207072696E740D
:101A30002064697374616E63653A2000206B6D2CBD
:101A4000205831207072696E742064697374616EFD
:101A500063653A200020432C0A20583020707269B8
:101A60006E742064697374616E63653A200020436C
:101A70002C206D61782074656D7020423A20002022
:101A8000432C206D61782074656D7020523A2000DF
:101A90002C206D61782074656D70204C3A200068B0
:101AA0002C207072696E74732066696E6973686544
:101AB000643A20002C207072696E74696E6720741D
:101AC000696D653A200020207072696E74733A2047
:101AD0000053544154533A0020432C20525F50523B
:101AE000494E543A200020432C20525F4245443A4C
:101AF000200020432C20525F52454D4F56453A203E
:101B0000002020525F494E534552543A20005465FC
:101B10006D70202843293A0020432C204C5F5052FE
:101B2000494E543A200020432C204C5F4245443A11
:101B3000200020432C204C5F52454D4F56453A2003
:101B40000020204C5F494E534552543A20005465C2
:101B50006D70202843293A00205628566572736913
:101B60006F6E2920002052284265642072696768E0
:101B70007420736372657729200020204D3533313E
:101B8000204C28426564206C65667420736372651E
:101B900077292000426564204F6666736574732060
:101BA000286D6D293A002050285A2070726F6265A6
:101BB0002900205A20002059200020204D353330A4
:101BC000205820004F66667365747320286D6D2958
:101BD0003A00204400204900202D204D3330312090
:101BE00052494748542050002044002049002020FA
:101BF0004D333031204C454654205000504944204C
:101C000073657474696E67733A00205A0020590036
:101C100020204D323036205800486F6D65206F66A9
:101C20006673657420286D6D293A00204500205A9E
:101C30000020580020420020540020204D32303532
:101C4000205300416476616E636564207661726939
:101C500061626C65733A20533D4D696E206665651F
:101C6000647261746520286D6D2F73292C20543D9A
:101C70004D696E2074726176656C2066656564726C
:101C800061746520286D6D2F73292C20423D6D698C
:101C90006E696D756D207365676D656E742074690E
:101CA0006D6520286D73292C20583D6D6178696D14
:101CB000756D205859206A65726B20286D6D2F73E1
:101CC000292C20205A3D6D6178696D756D205A2050
:101CD0006A65726B20286D6D2F73292C2020453D7D
:101CE0006D6178696D756D2045206A65726B20287D
:101CF0006D6D2F73290020540020204D3230342088
:101D00005300416363656C65726174696F6E3A205C
:101D1000533D616363656C65726174696F6E2C20FD
:101D2000543D7265747261637420616363656C65B0
:101D3000726174696F6E00204500205A00205900BE
:101D400020204D3230312058004D6178696D756D1D
:101D500020416363656C65726174696F6E20286DE4
:101D60006D2F7332293A00204500205A0020590077
:101D700020204D3230332058004D6178696D756DEB
:101D80002066656564726174657320286D6D2F73BC
:101D9000293A00204500205A0020590020204D39C2
:101DA0003220580053746570732070657220756E10
:101DB00069743A0070012C0190012701B0012201E1
:101DC000C0011D01F00118011002130130020E01C3
:101DD0006002090190020401C002FF000003FA0042
:101DE0004003F5008003F000D003EB002004E60080
:101DF0007004E100E004DC004005D700C005D2001B
:101E00004006CD00D006C8008007C3003008BE00E1
:101E1000F008B900C009B400B00AAF00B00BAA00C6
:101E2000D00CA500000EA000500F9B00C010960023
:101E30005012910000148C00C0158700B01782006A
:101E4000B0197D00D01B7800001E730040206E008A
:101E500090226900F024640040275F0090295A0016
:101E6000E02B5500102E500020304B001032460061
:101E7000E033410090353C001037370070383200B5
:101E8000A0392D00B03A2800A03B2300603C1E0082
:101E9000103D1900903D1400103E0F00703E0A00E6
:101EA000C03E0500003F00004572726F7228383353
:101EB000293A2042656420746865726D6973746F95
:101EC00072206E6F74206465746563746564004588
:101ED00072726F72283832293A205269676874200A
:101EE000746865726D6973746F72206E6F742064AC
:101EF00065746563746564004572726F7228383169
:101F0000293A204C65667420746865726D69737433
:101F10006F72206E6F7420206465746563746564ED
:101F2000002053544F50205052494E54200A00452F
:101F300072726F72283833293A20426564207468BF
:101F400065726D6973746F72206E6F74206465744E
:101F50006563746564002053544F50205052494EBD
:101F600054200A004572726F72283832293A205282
:101F70006967687420746865726D6973746F722024
:101F80006E6F7420646574656374656400205354D7
:101F90004F50205052494E54200A004572726F72C1
:101FA000283831293A204C65667420746865726D52
:101FB0006973746F72206E6F74202064657465633A
:101FC0007465640000002100240027002A002D0011
:101FD0003000330001010000040107010A01000084
:101FE0002200250028002B002E00310034000201C1
:101FF0000000050108010B0100002000230026005D
:1020000029002C002F00320000010000030106010E
:10201000090105050505070508080808020202026E
:102020000A0A080804040404010101010101010174
:102030000303030303030303040707070C0C0C0C3F
:102040000C0C0C0C02020202060606060606060628
:102050000B0B0B0B0B0B0B0B0102102020080810B5
:102060002040102040800201020108040201010208
:1020700004081020408080402010080402018004E1
:10208000020180402010080402010804020101023C
:102090000408102040800102040810204080000045
:1020A0000A0B02090C0D0E080703040100000000D2
:1020B0000000000000000000000000000000000020
:1020C00000000000000000000000121110000000DD
:1020D0000000000000000000000000000000000000
:1020E000000000005341564544205052494E5400D0
:1020F0007A70726F62653A200053442063617264A3
:10210000206F6B006F70656E526F6F74206661692F
:102110006C656400766F6C756D652E696E697420F0
:102120006661696C6564004572726F723A0053446F
:1021300020696E6974206661696C006563686F3A36
:10214000004D3234004D3233202573006175746FB9
:1021500025692E67000A0020616E7469686F7261DC
:1021600072690A3A200020686F726172690A200061
:102170002F3800766F6C746573200020566F6C7476
:10218000657320636172676F6C20333A20002061B1
:102190006E7469686F726172690A3A200020686F14
:1021A000726172690A20002F3800766F6C74657353
:1021B000200020566F6C74657320636172676F6CCA
:1021C00020323A20000A0020647A333A200020644A
:1021D0007A323A20005431005430005430005430E8
:1021E000000056756974656E73333A2020004170A3
:1021F000726F78333A202000566F6C746573333AEF
:102200002020000056756974656E73323A202000F4
:102210004170726F78323A202000566F6C7465738B
:10222000323A20200056616C6F7220645A333A2093
:10223000200056616C6F7220645A323A2020004EA2
:102240006577206F66667365742076657273696F53
:102250006E3A20007A335F313A20007A325F313AA9
:1022600020005A7363726F6C6C5F313A20007A33CE
:102270005F303A20007A325F303A20005A7363723E
:102280006F6C6C5F303A2000706C616E654E6F72DF
:102290006D616C5F312E7A3A2000706C616E654E14
:1022A0006F726D616C5F312E793A2000706C616ED7
:1022B000654E6F726D616C5F312E783A2000706CE4
:1022C000616E654E6F726D616C5F302E7A3A2000E0
:1022D000706C616E654E6F726D616C5F302E793A15
:1022E0002000706C616E654E6F726D616C5F302E98
:1022F000783A20005A76616C756520616674657263
:1023000020686F6D653A00486F6D6520582F592021
:102310006265666F7265205A00436F6F6C696E6705
:1023200020446F776E204865617465720050726951
:102330006E7465722068616C7465642E206B696CC4
:102340006C28292063616C6C656421004572726F92
:10235000723A0045787472756465722048656174DC
:1023600065640020573A0020453A00543A00204561
:1023700000205A00205900483D5800486F74656E8F
:1023800064206F6666736574733A00252033642099
:1023900025250025642068202564206D0025203334
:1023A00064202525002532642025634300253364FD
:1023B0002025634300253364202563430052656173
:1023C000647920746F204C6F61642F556E6C6F615F
:1023D00064200A00256425250025336420256343F5
:1023E0000025336420256343002053544F50205070
:1023F00052494E54200A0047323820583020593074
:10240000004D333500526573756D652064657465E4
:1024100063746564200A0047373000A15245535564
:102420004D4521200A00A1504155534521200A0065
:10243000253364202563430025336420256343004E
:10244000253364202563430025336420256343003E
:10245000253364202563430025336420256343002E
:10246000253364202563430025336420256343001E
:1024700025336420256343005052494E5420534570
:102480005454494E4753200A007C3C3E5E2B3D3F4E
:102490002F5B5D3B2C2A225C004578747275646565
:1024A000722072656C65617365642061637469761E
:1024B000653A20005A205349474D4120486F6D65C9
:1024C000640045787472756465722061637469761E
:1024D000653A20004D3834005374617274696E6738
:1024E00020582043616C6962726174696F6E205775
:1024F000697A617264004D313037004739322045C6
:1025000030205A3020522564004E6577206C617966
:102510006572206465746563746564005A20686F31
:102520007070696E67206465746563746564002506
:102530006920686F757273202569206D696E7574E6
:10254000657300446F6E65207072696E74696E67A2
:102550002066696C65004D333300706175736520CA
:102560006465746563746564200A004736390050F9
:1025700072696E7465722073746F70706564206424
:10258000756520746F206572726F72732E204669B4
:102590007820746865206572726F7220616E6420A5
:1025A000757365204D39393920746F2072657374E5
:1025B0006172742E202854656D7065726174757235
:1025C000652069732072657365742E2053657420CD
:1025D00069742061667465722072657374617274C7
:1025E000696E6729006F6B004E6F204C696E652025
:1025F0004E756D62657220776974682063686563E3
:102600006B73756D2C204C617374204C696E653A48
:1026100020004E6F20436865636B73756D2077698A
:102620007468206C696E65206E756D6265722C2011
:102630004C617374204C696E653A20006368656371
:102640006B73756D206D69736D617463682C204CBC
:10265000617374204C696E653A20004C696E652088
:102660004E756D626572206973206E6F74204C61C7
:102670007374204C696E65204E756D6265722B31E6
:102680002C204C617374204C696E653A20004D31EA
:10269000313000CDCC98430080934300005243007A
:1026A00000000000000000000000000A00207A3A4C
:1026B000200020793A200020783A2000426564000A
:1026C0000A0A005374616E6461726420446576691D
:1026D0006174696F6E3A20000A004D65616E3A20A0
:1026E000000A002020207A3A200000793A20007861
:1026F0003A20003F537065636966696564206E75B2
:102700006D626572206F66206C65677320696E204C
:102710006D6F76656D656E74206E6F7420706C6180
:10272000757361626C652E0A003F5370656369665C
:10273000696564205920706F736974696F6E206FCA
:102740007574206F662072616E67652E0A003F53B4
:102750007065636966696564205820706F73697479
:10276000696F6E206F7574206F662072616E676589
:102770002E0A003F53706563696669656420736162
:102780006D706C652073697A65206E6F7420706C53
:1027900061757361626C652E0A0046756C6C2073FE
:1027A0007570706F72742061743A20687474703A36
:1027B0002F2F33647072696E74626F6172642E635E
:1027C0006F6D2F666F72756D2E7068700A004D34D4
:1027D00038205A2D50726F626520526570656174A1
:1027E0006162696C69747920746573742E2020208D
:1027F00056657273696F6E20322E30300A003F5674
:102800006572626F7365204C6576656C206E6F74BF
:1028100020706C61757361626C652E0A0020424005
:102820003A0020403A00202F003A00205400202F88
:102830000020423A00202F006F6B20543A0042657E
:1028400064204865617465640020423A0020453A7E
:1028500000543A004475616C204D6F6465204F4E02
:10286000004475616C204D6972726F72204D6F6407
:1028700065204F4E004475616C204D6F6465204F9C
:102880004646002A2A2A2047656E696520446973F6
:10289000636F6E6E65637465642066726F6D20474A
:1028A00065744E6578744279746521202A2A2A005D
:1028B0002A2A2A2047656E696520456E61626C652B
:1028C000204174746163684576656E7448616E6416
:1028D0006C657220212121202A2A2A0043616E6E14
:1028E0006F7420656E746572207375626469723AE4
:1028F000200057726974696E6720746F2066696C76
:10290000653A20002E006F70656E206661696C6507
:10291000642C2046696C653A20002E006F70656E4D
:10292000206661696C65642C2046696C653A2000FC
:1029300046696C652073656C65637465640020533B
:10294000697A653A200046696C65206F70656E652E
:10295000643A20002E006F70656E206661696C65B8
:10296000642C2046696C653A20004E6F77206672B1
:102970006573682066696C653A20004E6F77206445
:102980006F696E672066696C653A20002220706F5F
:1029900073002220706172656E743A2200535542B2
:1029A000524F5554494E452043414C4C207461725E
:1029B0006765743A2200747279696E6720746F20BB
:1029C00063616C6C207375622D67636F646520664C
:1029D000696C6573207769746820746F6F206D610E
:1029E0006E79206C6576656C732E204D4158206C95
:1029F0006576656C2069733A002A2A2A2047656E3D
:102A00006965204261642042797465202A2A2A205F
:102A10002D2D2D3E203078002056616C75653A20B2
:102A20000020496E6465783A20002A2A2A204765EA
:102A30006E6965205265706F7274204F626A6563BB
:102A400074202A2A2A204F626A6563743A20002A79
:102A50002A2A2047656E696520436F6E6E65637430
:102A60006564202F2053796E6321202A2A2A0020B2
:102A700056616C75653A200020496E6465783A208D
:102A8000002A2A2A2047656E6965205265706F7298
:102A900074204576656E74202A2A2A204F626A6562
:102AA00063743A2000204C656E6774683A20002AEF
:102AB0002A2A2047656E69652052656365697665D7
:102AC00064204D6167696320446F75626C652042C4
:102AD00079746573202A2A2A20496E6465783A2021
:102AE00000204C656E6774683A20002A2A2A204725
:102AF000656E6965205265636569766564204D6120
:102B0000676963204279746573202A2A2A20496EF6
:102B10006465783A20002A2A2A2047656E69652074
:102B20004E414B205265636F7665727920212121D9
:102B3000202A2A2A002A2A2A2047656E696520440D
:102B40006973636F6E6E65637465642066726F6D22
:102B500020446F4576656E747321202A2A2A002A44
:102B60002A2A2047656E696520546F6F6B20746F49
:102B70006F206C6F6E6720746F2072652D656E74A8
:102B8000657220446F4576656E747328292C207217
:102B900065647563652064656C61797320696E2076
:102BA000636F64652C2073656C662D70726F74653D
:102BB0006374696F6E20656E61626C65642E202A95
:102BC0002A2A000A00205A3A200020593A200020E0
:102BD000583A200042656400456E642066696C6561
:102BE000206C69737400426567696E2066696C6564
:102BF000206C6973740043617264204E616D653AA4
:102C000020002F005344207072696E74696E672033
:102C10006279746520004E6F74205344207072698D
:102C20006E74696E67004732382058302059300082
:102C30002569206D696E2C2025692073656300531A
:102C4000746F7265642073657474696E6773207243
:102C500065747269657665640048617264636F6467
:102C600065642044656661756C742053657474698D
:102C70006E6773204C6F61646564004861726463C1
:102C80006F6465642043616C696220616E642050EA
:102C900049442044656661756C7420536574746999
:102CA0006E6773204C6F6164656400487973746566
:102CB00072657369732074656D7065726174757285
:102CC0006500546865726D616C2072756E61776124
:102CD000792070726F74656374696F6E20627920F9
:102CE0004865617465725F49443A004D3834005359
:102CF00074617274696E6720592043616C696272F5
:102D00006174696F6E2057697A61726400526573ED
:102D1000656E643A20006F6B0000BA01BC0111249B
:102D20001FBECFEFD1E2DEBFCDBF00E00CBF17E08A
:102D3000A0E0B2E0ECE0F7E503E00BBF02C00790D3
:102D40000D92AC3DB107D9F72AE1ACEDB7E001C077
:102D50001D92AA31B207E1F716E1CEE8D6E100E014
:102D600006C021970109802FFE010F94E9A8CD38F4
:102D7000D10780E00807A9F70F9402880D9475AB7E
:102D80000C9400002F923F924F925F926F927F922D
:102D90008F929F92AF92BF92CF92DF92EF92FF926B
:102DA0000F931F93CF93DF93CDB7DEB7C353D140BB
:102DB0000FB6F894DEBF0FBECDBF2DB73EB7CE5CC9
:102DC000DE4F39832883C253D14011E010938F081E
:102DD0008091120881110CC00E94FCE160930E08E2
:102DE00070930F08809310089093110810931208A5
:102DF0008091060881110DC00E94FCE160930208D9
:102E000070930308809304089093050881E08093F1
:102E10000608809159154091120250911302609159
:102E2000140270911502811106C090915A159923D0
:102E300011F40C9490244E3851056105710509F484
:102E40005FC60CF0D5C04D3351056105710509F41D
:102E5000D2C10CF05AC0403251056105710511F420
:102E60000C94872234F5403151056105710509F450
:102E700073C174F4413051056105710509F4A6C1AF
:102E8000423051056105710509F42FC30C941457A4
:102E9000423151056105710509F442C214F40C94E4
:102EA000E621433151056105710509F40BC20C940B
:102EB0001457423351056105710509F416C37CF4BA
:102EC000413251056105710511F40C9476224133AC
:102ED00051056105710509F4D7C10C9414574533A8
:102EE00051056105710511F40C943F234A335105D6
:102EF0006105710509F4FBC744335105610571058E
:102F000011F00C9414570C94362148355105610585
:102F1000710509F49AC154F54634510561057105EE
:102F200009F488C47CF4413451056105710509F444
:102F30000EC4443451056105710511F40C94EF1F62
:102F40000C9414574F3451056105710509F45CC5A3
:102F5000473551056105710509F4C4C14E34510569
:102F60006105710511F00C941457D7C44B37510506
:102F70006105710509F4DFC274F44A355105610534
:102F8000710509F4D8C2463751056105710509F488
:102F9000D6C10C941457483851056105710509F4E0
:102FA000E5C0493851056105710509F4EAC04C379F
:102FB00051056105710511F00C94145740E050E083
:102FC0006AE28AE00E946BC840E050E06DE781E26F
:102FD0000E946BC811E010935A081092A0196CE27D
:102FE00078E086E20E9474C910932B080C94145761
:102FF0004D3951056105710511F40C94DE220CF078
:103000004FC0453951056105710509F4E0C6F4F476
:10301000413951056105710509F46AC574F44F38E9
:1030200051056105710509F4C4C5403951056105B3
:10303000710509F419C60C941457433951056105FB
:10304000710509F4E3C50CF487C53AC64839510542
:103050006105710511F40C9414237CF44639510573
:103060006105710509F486C6473951056105710589
:1030700011F40C9425230C9414574B395105610518
:10308000710511F40C949E2214F00C94A7224A3975
:1030900051056105710511F40C9495220C94145797
:1030A000463A51056105710509F406C21CF5423A1C
:1030B00051056105710509F454C07CF4403A51058D
:1030C0006105710511F40C943623413A51056105EF
:1030D000710509F422C60C941457443A5105610550
:1030E000710509F4FDC10CF0F1C181E08093001974
:1030F0000C941457493A51056105710509F4EBC167
:1031000094F4473A51056105710509F4DAC1483A6A
:1031100051056105710511F00C94145781E08093FD
:10312000FA180C9414574E3B51056105710509F4CA
:103130009EC0433D51056105710511F40C94522464
:103140004A3A51056105710511F00C94145781E05C
:103150008093F9180C94145781E0809303190C9410
:10316000145781E0809302190C94145781E08093E6
:10317000031941E050E069E881E20E946BC80C94B9
:10318000145780910E02833411F00C94145782E48A
:1031900080930E0240E050E067E581E20E946BC838
:1031A00040E050E066E781E20E946BC840E050E0FA
:1031B00068E881E20E946BC840E050E069E881E283
:1031C0000E946BC81092A0190C94145710925A08C0
:1031D00080E00E9461EC81E08093F61880931411E6
:1031E00040E050E068E08AE00E946BC881E4809390
:1031F00015110C94145780910E0240E050E0813478
:1032000091F469E08AE00E946BC811E010935A08BB
:103210006CE278E082E00E9474C910932B0810924F
:10322000A0190C9414576AE28AE00E946BC811E05E
:1032300010935A086CE278E086E20E9474C91093F9
:103240002B081092A0190C94145780915B088111DF
:103250000C94145780915A1581110C94145740E026
:1032600050E069E38AE00E946BC80C941457809187
:103270005B0881110C94145740E050E061E08AE053
:103280000E946BC80C94145780915B0881110C94B8
:10329000145700910E02013411F00C94145710923F
:1032A0005A081092591511E010935A1540E050E059
:1032B00068E08AE00E946BC80093151110934219D0
:1032C0000C94145780910E02813411F00C94145711
:1032D00040E050E061E08AE00E946BC810925A081A
:1032E0000C94145780910E02823491F3833411F0C0
:1032F0000C94145740E050E066E18AE00E946BC8ED
:1033000041E050E06DE781E20E946BC882E5809366
:10331000110281E08093A01910925A080C9414575E
:10332000882311F40C94145780910E02813411F00B
:103330000C94145781E08093F8180C9414578091E2
:103340005A15882311F40C94145780910E0282347C
:1033500029F481E08093F7180C941457833411F00A
:103360000C94145711E01093860840E050E068E98F
:1033700081E20E946BC840E050E067E981E20E9470
:103380006BC840E050E06CE981E20E946BC840E00D
:1033900050E06DE981E20E946BC841E050E067E8CF
:1033A00081E20E946BC840E050E06CE28AE00E943B
:1033B0006BC81093A0198FEF9FEF909351028093E9
:1033C0005002E7E4F7E084918F01882351F0082E42
:1033D000000C990B0E94D9E90F5F1F4FF8018491EF
:1033E000F4CF40E050E06AE981E20E946BC840E01F
:1033F00050E06BE981E20E946BC81F9210EBF12E46
:10340000FF926091B4107091B5108091B6109091B8
:10341000B7100F941EA67F936F938FE397E09F934F
:103420008F938E010F5F1F4F1F930F930F94A89DD3
:10343000B8018AE00E9474C9C8010E94E0CD1F92C1
:10344000FF926091B8107091B9108091BA1090916C
:10345000BB100F941EA67F936F9387E397E09F9313
:103460008F931F930F930F94A89DB80181E10E9441
:1034700074C9C8010E94E0CD1F92FF921F921F9253
:103480008FE297E09F938F931F930F930F94A89DC4
:10349000B80185E00E9474C9C8010E94E0CD109275
:1034A0005A082DB73EB7285E3F4F0FB6F8943EBF7F
:1034B0000FBE2DBF0C94145781E08093FD180C941F
:1034C000145781E08093FC180C94145781E080938A
:1034D000FF180C94145781E08093FB180C94145738
:1034E00081E08093FE180C94145742305105610519
:1034F000710511F489E406C0423351056105710577
:1035000019F482E58093110240E050E06CE481E21E
:103510000E946BC840E050E06BE481E20E946BC8FF
:1035200040E050E064E18AE00E946BC88FEF809336
:10353000B3100C9414574A3551056105710519F4FF
:103540001092B31003C081E08093B3108091B31048
:10355000082F10E0000F111FF801E858FE4E2081DF
:103560003181309301082093000881111EC08091A1
:103570006008909161086091E6077091E70768170D
:1035800079072CF4BC01990F880B990B04C0072E06
:10359000000C880B990B0F94FE9D08581E4E0F943B
:1035A0001EA6D8016D937C931DC0809164089091F4
:1035B00065086091E4077091E507681779072CF4B6
:1035C000BC01990F880B990B04C0072E000C880BC7
:1035D000990B0F94FE9D08581E4E0F941EA6F801DD
:1035E0007183608381E48093151140E050E068E0CE
:1035F0008AE00E946BC840E050E06DE781E20E94E3
:103600006BC880E090E0A3E4B3E480939B119093B7
:103610009C11A0939D11B0939E1180909F1090904B
:10362000A010A090A110B090A210209197113091FD
:1036300098114091991150919A1160919311709144
:1036400094118091951190919611E6E86E2EE1E12A
:103650007E2E7F926F92FFE9CF2EF1E1DF2EE12CDB
:10366000F12C03E413E40E947DB00F944E7680E0C9
:1036700090E0A0E2B1E48093971190939811A09309
:103680009911B0939A1180909B1090909C10A090EB
:103690009D10B0909E10E0909B11F0909C110091B5
:1036A0009D1110919E1160919311709194118091D0
:1036B0009511909196117F926F9220E030E040E258
:1036C00051E40E947DB00F944E760F900F900F90B2
:1036D0000F90809115118E3411F40C94155910929D
:1036E00015110E94D4776CE274E08DE20E9474C9D7
:1036F00040E050E068E28AE00E946BC80091B3109D
:1037000010E0F801EE0FFF1FEE0FFF1FEC54FF4E0D
:1037100060817181828193810F941EA670938408C9
:1037200060938308000F111FF801E858FE4E808156
:103730009181909382088093810888E48093151189
:103740000E94D47781E0809385080C94145780916F
:10375000B3108130B1F540E050E068E08AE00E94AB
:103760006BC887ED90E090932F0980932E0990937A
:103770006708809366088AEA90E0909365088093D2
:10378000640881E490E090932B0980932A090E94B9
:10379000D1DA809166089091670890937B118093AD
:1037A0007A110E94E88F40E050E06EE781E20E94CB
:1037B0006BC840E050E06DE481E20E946BC80C945D
:1037C000145781110C94145740E050E068E08AE0EF
:1037D0000E946BC887ED90E0909331098093300987
:1037E00090936308809362088AEA90E0909361085E
:1037F0008093600881E490E090932D0980932C09D8
:103800000E94D1DA809162089091630890937911B7
:10381000809378110E94E88F40E050E06EE781E2EB
:103820000E946BC840E050E06DE481E20E946BC8EA
:103830000C9414578091B3108130B1F540E050E002
:1038400068E08AE00E946BC884E091E090932F09C1
:1038500080932E09909367088093660886EE90E027
:1038600090936508809364088AE590E090932B0913
:1038700080932A090E94D1DA8091660890916708A6
:1038800090937B1180937A110E94E88F40E050E082
:103890006EE781E20E946BC840E050E06DE481E297
:1038A0000E946BC80C94145781110C94145740E07B
:1038B00050E068E08AE00E946BC884E091E0909359
:1038C000310980933009909363088093620886EEF3
:1038D00090E090936108809360088AE590E090936F
:1038E0002D0980932C090E94D1DA80916208909171
:1038F000630890937911809378110E94E88F40E0DB
:1039000050E06EE781E20E946BC840E050E06DE459
:1039100081E20E946BC80C9414578091B3108130DF
:10392000C1F540E050E068E08AE00E946BC88CED91
:1039300090E090932F0980932E0986EE90E090936B
:1039400067088093660880EA90E09093650880930A
:1039500064088CE390E090932B0980932A090E94DD
:10396000D1DA809166089091670890937B118093DB
:103970007A110E94E88F40E050E06EE781E20E94F9
:103980006BC840E050E06DE481E20E946BC80C948B
:10399000145781110C94145740E050E068E08AE01D
:1039A0000E946BC88CED90E09093310980933009B0
:1039B00086EE90E0909363088093620880EA90E03E
:1039C00090936108809360088CE390E090932D09B8
:1039D00080932C090E94D1DA80916208909163084B
:1039E00090937911809378110E94E88F40E050E025
:1039F0006EE781E20E946BC840E050E06DE481E236
:103A00000E946BC80C9414578091B310823010F050
:103A10000C94145740E050E064E38AE00E946BC8C5
:103A20001F9250EBF52EFF9280910D028F938091A3
:103A30000C028F930FE214E01F930F936E01FCEDC5
:103A4000CF1AFEEFDF0ADF92CF920F9445ABB6019B
:103A50008DE00E9474C91F92FF9280910B028F9398
:103A600080910A028F931F930F936E0126EEC21A64
:103A70002EEFD20ADF92CF920F9445ABB6018EE0C3
:103A80000E9474C91F92FF92809109028F938091C6
:103A900008028F931F930F936E0131E0C30ED31E64
:103AA000DF92CF920F9445ABB6018FE00E9474C9AC
:103AB0001F92FF92809107028F93809106028F934D
:103AC0001F930F938E010F5F1F4F1F930F930F9440
:103AD00045AB4DB75EB7405E5F4F0FB6F8945EBF23
:103AE0000FBE4DBFB80182E10E9474C90C941457F7
:103AF00040E050E064E18AE00E946BC80C941457E7
:103B000080910C0290910D021816190614F00C9475
:103B100014570A9790930D0280930C021F9220EB8A
:103B20002F939F938F9386E394E09F938F938E01BF
:103B30000F5F1F4F1F930F930F9445ABB8018DE09C
:103B40000E9474C98DB79EB708960FB6F8949EBFB1
:103B50000FBE8DBF0C94145780910C0290910D02F2
:103B60008633A1E09A0714F00C9414570A969093A8
:103B70000D0280930C021F9220EB2F939F938F9343
:103B800086E394E09F938F938E010F5F1F4F1F93E7
:103B90000F930F9445ABB8018DE00E9474C9EDB747
:103BA000FEB738960FB6F894FEBF0FBEEDBF0C946B
:103BB000145780910A0290910B021816190614F0FE
:103BC0000C9414570A9790930B0280930A021F9249
:103BD00020EB2F939F938F9386E394E09F938F9393
:103BE0008E010F5F1F4F1F930F930F9445ABB801CA
:103BF0008EE00E9474C92DB73EB7285F3F4F0FB6C5
:103C0000F8943EBF0FBE2DBF0C94145780910A024A
:103C100090910B02863331E0930714F00C94145703
:103C20000A9690930B0280930A021F9220EB2F9327
:103C30009F938F9386E394E09F938F938E010F5F02
:103C40001F4F1F930F930F9445ABB8018EE00E9456
:103C500074C94DB75EB7485F5F4F0FB6F8945EBF4B
:103C60000FBE4DBF0C941457809108029091090229
:103C70001816190614F00C9414570A979093090219
:103C8000809308021F9220EB2F939F938F9386E3DC
:103C900094E09F938F938E010F5F1F4F1F930F939D
:103CA0000F9445ABB8018FE00E9474C98DB79EB7E1
:103CB00008960FB6F8949EBF0FBE8DBF0C94145794
:103CC00080910802909109028633A1E09A0714F0CE
:103CD0000C9414570A9690930902809308021F923D
:103CE00020EB2F939F938F9386E394E09F938F9382
:103CF0008E010F5F1F4F1F930F930F9445ABB801B9
:103D00008FE00E9474C9EDB7FEB738960FB6F894ED
:103D1000FEBF0FBEEDBF0C94145780910602909128
:103D200007021816190614F00C9414570A9790936A
:103D30000702809306021F9220EB2F939F938F938D
:103D400086E394E09F938F938E010F5F1F4F1F9325
:103D50000F930F9445ABB80182E10E9474C92DB74F
:103D60003EB7285F3F4F0FB6F8943EBF0FBE2DBF42
:103D70000C941457809106029091070289369105A0
:103D800014F00C9414570A9690930702809306023D
:103D90001F9220EB2F939F938F9386E394E09F9342
:103DA0008F938E010F5F1F4F1F930F930F9445AB9F
:103DB000B80182E10E9474C94DB75EB7485F5F4F9A
:103DC0000FB6F8945EBF0FBE4DBF0C94145740E081
:103DD00050E068E08AE00E946BC8E091B310409127
:103DE0000C0250910D0220910A0230910B02609159
:103DF0000802709109028091060290910702E11178
:103E000030C06C33A1E07A0714F06BE371E070937B
:103E10003109609330094C33B1E05B0714F04BE398
:103E200051E050936308409362082C33E1E03E0771
:103E300014F02BE331E030936108209360088F3653
:103E4000910514F08EE690E090932D0980932C0953
:103E50008091620890916308909379118093781112
:103E600034C06C33F1E07F0714F06BE371E07093C2
:103E70002F0960932E094C3361E056072CF45093C0
:103E800067084093660806C04BE351E050932F0942
:103E900040932E092C33A1E03A0714F02BE331E0D4
:103EA00030936508209364088F36910514F08EE6F0
:103EB00090E090932B0980932A0980916608909155
:103EC000670890937B1180937A110E94D1DA0E9447
:103ED000E88F40E050E06EE781E20E946BC840E06E
:103EE00050E06DE481E20E946BC80C9414576CE2C0
:103EF00074E08DE20E9474C940E050E068E28AE01C
:103F00000E946BC888E4809315110E94D477809139
:103F1000B310082F10E081111DC0809162089091AC
:103F200063086091E2077091E307681779072CF442
:103F3000BC01990F880B990B04C0072E000C880B4D
:103F4000990B0F94FE9D0F941EA6709379116093A8
:103F5000781122C080916608909167086091E0070F
:103F60007091E107681779072CF4BC01990F880B51
:103F7000990B04C0072E000C880B990B0F94FE9D23
:103F80009801220F331FF901E858FE4E7F010F946C
:103F90001EA6D7016D937C93F801EE0FFF1FEE0F65
:103FA000FF1FEC54FF4E60817181828193810F94D9
:103FB0001EA67093840860938308F801EE0FFF1F1C
:103FC000E858FE4E80819181909382088093810809
:103FD0000E94D47781E0809385080C9414578091D7
:103FE0001102893411F00C94145740E050E068E05D
:103FF0008AE00E946BC881E480931511E0909B11C8
:10400000F0909C1100919D1110919E11209197119B
:10401000309198114091991150919A11E091B310FB
:10402000B4E0EB9FF0011124E552FD4F60817181F6
:10403000828193810E9427CAE0909B11F0909C118D
:1040400000919D1110919E1120919711309198111E
:104050004091991150919A1160919311709194111E
:104060008091951190919611E3EBF0E1FF93EF931E
:10407000812CA0E89A2EABE3AA2EA6E4BA2EBFE9C3
:10408000CB2EB1E1DB2E0E947DB00F944E76E5E29F
:10409000F7E084910F900F908F01882351F0082E44
:1040A000000C990B0E94D9E90F5F1F4FF801849112
:1040B000F4CF20E030E040EF51E460919F11709127
:1040C000A0118091A1119091A2110F9484A46093EA
:1040D0009F117093A0118093A1119093A211E09071
:1040E0009B11F0909C1100919D1110919E112091B7
:1040F0009711309198114091991150919A116091B6
:104100009311709194118091951190919611B3EB48
:104110006B2EB0E17B2E7F926F92812C912CE0E38D
:10412000AE2EE1E4BE2EFFE9CF2EF1E1DF2E0E949C
:104130007DB00F944E760F900F90809115118E34B4
:1041400011F40C94155920E030E84AE454E46091ED
:104150009F117091A0118091A1119091A2110F94C3
:1041600084A4AB01BC0140939F115093A0116093B4
:10417000A1117093A2118FE494E10E9427ECE090CA
:104180009B11F0909C1100919D1110919E11209116
:104190009711309198114091991150919A11609115
:1041A00093117091941180919511909196117F9235
:1041B0006F92812C912CA6EAAA2EA2E4BA2E0E941C
:1041C0007DB00F944E760F900F90809115118E3424
:1041D00011F40C94155920E030E048E452E4609169
:1041E0009F117091A0118091A1119091A2110F9433
:1041F00084A460939F117093A0118093A111909358
:10420000A211E0909B11F0909C1100919D111091D2
:104210009E112091971130919811409199115091D0
:104220009A116091931170919411809195119091D0
:1042300096117F926F92812C912CA12CF0E4BF2ECD
:104240000E947DB00F944E760F900F9080911511C3
:104250008E3411F40C9415591092151140E050E071
:104260006EE08AE00E946BC80C9414578091110292
:10427000823511F00C94145740E050E068E08AE079
:104280000E946BC881E48093151166E272E080E0C1
:1042900090E00E94C4E120E030E240E854E4609104
:1042A0009F117091A0118091A1119091A2110F9472
:1042B00083A460939F117093A0118093A111909398
:1042C000A211E0909B11F0909C1100919D11109112
:1042D0009E11209197113091981140919911509110
:1042E0009A11609193117091941180919511909110
:1042F0009611E3EBF0E1FF93EF93812C912CB6EA5A
:10430000AB2EB2E4BB2EEFE9CE2EE1E1DE2E0E9411
:104310007DB00F944E760F900F90809115118E34D2
:1043200011F40C94155986E090E090930502809367
:1043300004021092151112E41093CA180E94D47747
:1043400040E050E065E18AE00E946BC840E050E048
:104350006BE084E10E946BC8109315118091B3103B
:1043600081111AC080916208909163089093E307CD
:104370008093E20780916008909161089093E7072D
:104380008093E60780913009909131099093DF077F
:104390008093DE070C94145780916608909167080B
:1043A0009093E1078093E0078091640890916508FD
:1043B0009093E5078093E40780912E0990912F094F
:1043C0009093DD078093DC070C94145780917C0850
:1043D00081110C94145740E050E065E18AE00E949E
:1043E0006BC840E050E06BE084E10E946BC882E45F
:1043F000809315118093CA18E091B31024E0E29FD6
:10440000F0011124E552FD4F608171818281938119
:1044100060939311709394118093951190939611DA
:10442000E0909B11F0909C1100919D1110919E11B4
:1044300020919711309198114091991150919A11B2
:10444000E3EBF0E1FF93EF93812CE0E89E2EEBE3AA
:10445000AE2EE6E4BE2EFFE9CF2EF1E1DF2E0E9464
:104460007DB0E0909B11F0909C1100919D111091F6
:104470009E1120919711309198114091991150916E
:104480009A11E091861164E0E69FF0011124E55253
:10449000FD4F60817181828193810E9427CAE091E2
:1044A000861184E0E89FF0011124E552FD4F8081E0
:1044B0009181A281B3818093931190939411A093E1
:1044C0009511B0939611E091B310F0E0EE0FFF1F3D
:1044D000E858FE4E809100089091010891838083F6
:1044E0000F944E760F900F900C94145780917C0887
:1044F00081110C94145790912909809128099813DF
:104500000C94325781E0809388080C941457809162
:104510007C0881110C9414579091290980912809E5
:1045200098130C9432570C94355790912909809127
:10453000280998130C9414570C9439579091290911
:104540008091280998130C9414570C940958E09101
:104550005002F0915102EF3F5FEFF50711F40C9418
:104560001457EE0FFF1FE858FE4E808191818B3368
:1045700061E0960714F00C9414570596918380839C
:104580001F9220EB2F939F938F9385EE96E09F933E
:104590008F938E010F5F1F4F1F930F930F94A89D52
:1045A000B80185E00E9474C98DB79EB708960FB612
:1045B000F8949EBF0FBE8DBF0C941457E09150022B
:1045C000F0915102EF3F9FEFF90711F40C9414574B
:1045D000EE0FFF1FE858FE4E8081918118161906D4
:1045E00014F00C9414570597918380831F9220EB4D
:1045F0002F939F938F938DED96E09F938F938E01D2
:104600000F5F1F4F1F930F930F94A89DB80185E074
:104610000E9474C9ADB7BEB718960FB6F894BEBF66
:104620000FBEADBF0C94145780915002909151026F
:10463000019611F40C94145790912909809128093E
:1046400098130C9432570C94DE588091500290913C
:104650005102019611F40C941457909129098091FC
:10466000280998130C9432570C94E2589091290918
:104670008091280998130C9414570C94E658809153
:10468000CA18823411F00C941457E4EDF6E08491CA
:104690008F01882351F0082E000C990B0E94D9E954
:1046A0000F5F1F4FF8018491F4CF109215111092F3
:1046B0007C0880911102823509F047C089E480931B
:1046C00011028091B310813049F441E050E06CE474
:1046D00081E20E946BC840E050E008C040E050E03A
:1046E0006CE481E20E946BC841E050E06BE481E23F
:1046F0000E946BC841E050E06EE781E20E946BC807
:1047000041E050E06DE481E20E946BC841E050E07E
:1047100061E481E20E946BC841E050E066E481E21E
:104720000E946BC841E050E06EE481E20E946BC8D9
:1047300041E050E06FE481E20E946BC840E050E04D
:1047400064E18AE00E946BC8A9C0893409F0A6C060
:1047500081E48093151140E050E068E08AE00E9417
:104760006BC840904C0850904D0860904E08709077
:104770004F0840929711509298116092991170923F
:104780009A1120E030E040E752E460913A027091E3
:104790003B0280913C0290913D020F9472A54B0127
:1047A0005C01E0909B11F0909C1100919D11109183
:1047B0009E11609193117091941180919511909137
:1047C000961126E831E13F932F93EFE9CE2EE1E1F8
:1047D000DE2EA30192010E947DB00F944E760F90C1
:1047E0000F90809115118E3411F40C94155920E01E
:1047F00030E040E251E4609150087091510880919E
:104800005208909153080F9484A47B018C0160930B
:104810009B1170939C1180939D1190939E11809198
:104820002808898380903E0290903F02A090400229
:10483000B0904102209197113091981140919911B7
:1048400050919A11609193117091941180919511EA
:1048500090919611FE013196FF93EF930E947DB0E7
:104860000F944E760F900F90809115118E3411F4A5
:104870000C9415591092151140E050E06AE28AE05C
:104880000E946BC811E010935A081092A0196CE2B4
:1048900078E086E20E9474C910932B081092CA181F
:1048A0000C94145780910119109215118823B9F0B6
:1048B0001092011981E08093021980910E0240E06C
:1048C00050E0813431F469E08AE00E946BC80C94B6
:1048D00014576AE28AE00E946BC80C941457109235
:1048E00083191092A019E9ECF6E084918F018823D6
:1048F00051F0082E000C990B0E94D9E90F5F1F4F51
:10490000F8018491F4CF10928E0881E00E94C08A51
:1049100040E050E065E08AE00E946BC80C941457B8
:1049200090911A08992309F428C280911E088230B8
:1049300008F423C2473451056105710509F4A3C089
:104940009CF54B3251056105710509F462C09CF478
:10495000473151056105710509F467C048315105BA
:104960006105710511F00C94145782E090E00E94EB
:10497000888F0C941457403351056105710509F473
:104980004EC0453351056105710509F4BCC14F3274
:1049900051056105710511F00C9414578FEF9FEFCD
:1049A0000E94888F0C941457403851056105710599
:1049B00009F441C004F54E3551056105710509F44E
:1049C00070C14F3551056105710511F00C941457F4
:1049D00014E41093CA1840E050E06BE084E10E94B8
:1049E0006BC840E050E065E18AE00E946BC810931C
:1049F00015110C9414574238510561057105B9F130
:104A000044F14B3A51056105710509F4C8C00C9495
:104A100014578EEF9FEF0E94888F0C94145780E0FC
:104A200090E00E94888F0C94145781E090E00E94DF
:104A3000888F0C9414578DEF9FEF9093CC18809330
:104A4000CB1840E050E06AE08AE00E946BC80C940A
:104A5000145783E090E09093CC188093CB1840E0FB
:104A600050E06AE08AE00E946BC80C9414571092E0
:104A7000CC181092CB1840E050E06AE08AE00E9427
:104A80006BC80C94145740E050E068E08AE00E9444
:104A90006BC881E48093151141E061E081E00E94E0
:104AA000DAC2109215110F944E760E94158C109157
:104AB000CB1880911E08823011F540E050E061E192
:104AC0008AE00E946BC880E58093151100911B0855
:104AD000010F00931B08002E000C110B20E030E0AA
:104AE000A901CA01B9010E94BEFC40E050E069E1A1
:104AF0008AE00E946BC8109215110C9414578330F1
:104B000029F540E050E061E18AE00E946BC880E551
:104B10008093151100911C08010F00931C08002EB2
:104B2000000C110B20E030E04CE553EC60E070E04D
:104B300088EA92EC0E94BEFC40E050E069E18AE025
:104B40000E946BC8109215110C941457843011F008
:104B50000C94145740E050E061E18AE00E946BC879
:104B600080E58093151100911D08010F00931D0829
:104B7000002E000C110B20E030E04CE553EC60E01F
:104B800070E084EA92E40E94BEFC40E050E069E1FB
:104B90008AE00E946BC8109215110C941457109261
:104BA000151180911B0840911C08042F081B40918F
:104BB0001D08142F181B602F002E000C770B880B7C
:104BC000990B0F94FE9D2DEC3CEC4CEC5DEB0F949F
:104BD000EE9860932308709324088093250890939F
:104BE0002608612F012E000C770B880B990B0F9470
:104BF000FE9D2DEC3CEC4CEC5DEB0F94EE9860933D
:104C00001F087093200880932108909322080023A6
:104C1000A1F040E050E06FE18AE00E946BC807FF1E
:104C200007C0202F332721950CF4309508E0020FA0
:104C3000402F000F550B64E015C01123B9F040E080
:104C400050E060E28AE00E946BC817FF07C0812F26
:104C5000992781950CF4909518E0180F412F110FAA
:104C6000550B65E08BE10E946BC811C014E41093F2
:104C7000CA1840E050E06BE084E10E946BC840E05D
:104C800050E065E18AE00E946BC8109315118FE730
:104C900090E090931810809317100E94D1DA0C9432
:104CA000145740911D0880911B08142F181BC1F048
:104CB00040E050E060E28AE00E946BC817FF07C046
:104CC000A12FBB27A1950CF4B09518E01A0F412F26
:104CD000110F550B65E08BE10E946BC80C941457C3
:104CE00014E41093CA1840E050E06BE084E10E94A5
:104CF0006BC840E050E065E18AE00E946BC8109309
:104D000015110C9414578091CA18843411F00C9426
:104D1000145710921E0810921A0810921511109232
:104D200073111092721110927911109278111092E1
:104D30007B1110927A11109283191092A019EEEB48
:104D4000F6E084918F01882351F0082E000C990B16
:104D50000E94D9E90F5F1F4FF8018491F4CF1092A0
:104D60008E080E94C08A40E050E065E08AE00E9420
:104D70006BC81092CA180C941457403E510510F09D
:104D80000C941457FA018827EE58FF4F8F4F0D945B
:104D9000E9A881E0809377080C94145781E0809310
:104DA00076080C94145781E0809375080C9414577E
:104DB00081E0809374080C94145781E08093730809
:104DC0000C9414570E949CEF009751F481E080935B
:104DD0007808809165118150809365110C94145767
:104DE000019711F00C94145781E08093780840E00B
:104DF00050E067E381E20E946BC840E050E061E070
:104E00008BE10E946BC88091651181508093651180
:104E10000C941457109283191092A019E3EBF6E04A
:104E200084918F01882351F0082E000C990B0E9469
:104E3000D9E90F5F1F4FF8018491F4CF10928E08CB
:104E400081E00E94C08A40E050E065E08AE00E9474
:104E50006BC80C94145780915B15882311F40C9443
:104E6000145741E061E08CE595E10F94E9558FEF2F
:104E70009FEF90934A1580934915E12CF12C08EF90
:104E800014E19E012F5F3F4F590188248A94982C8A
:104E900022242394312C52EDC52E53E0D52E40917F
:104EA000FA175091FB176091FC177091FD178091D4
:104EB000551790915617A0915717B091581784170E
:104EC0009507A607B70708F0C8C0D801E2E31D920E
:104ED000EA95E9F725E1422E512C8091F8148D34A2
:104EE00029F4E114F10409F07FC05FC04091FA1782
:104EF0005091FB176091FC177091FD178091551729
:104F000090915617A0915717B0915817841795078D
:104F1000A607B70730F798EF692E94E1792E8091B4
:104F2000551790915617A0915717B0915817409167
:104F3000FA175091FB176091FC177091FD178417B9
:104F40009507A607B70788F4809302189093031873
:104F5000A0930418B09305188DE497E10F942A21CB
:104F6000D3018D933D018A3029F4B1E04B1A5108E9
:104F700029F4B7CFA952B541C1F3D1CF4091FA1767
:104F80005091FB176091FC177091FD178091551798
:104F900090915617A0915717B091581784179507FD
:104FA000A607B70708F499CF9CCF9A828982BF924F
:104FB000AF92AAE0B8E1BF93AF931F930F930F9402
:104FC000D79D89819A810F900F900F900F900F902D
:104FD0000F90019629F030924A152092491504C08D
:104FE00010924A15109249159A828982BF92AF9207
:104FF000DF92CF921F930F930F94D79D89819A814F
:105000000F900F900F900F900F900F90059711F445
:105010000C94FD589A828982BF92AF92DF92CF9210
:105020001F930F930F94D79D89819A810F900F90B2
:105030000F900F900F900F90069711F40C94FD585D
:105040002EE0E216F10409F486C13FEFE31AF30AF9
:105050004FE0E416F1040CF422CF109202181092E3
:105060000318109204181092051840E050E0BA019D
:105070008DE497E10E94729D8091491590914A15A7
:10508000892B49F40CE310E0B8EFEB2EB4E1FB2ED2
:1050900082E3D82E98C00AEF10E058EFE52E54E1D5
:1050A000F52E62E3362E44244A94542CAE014F5F11
:1050B0005F4F6A01E3ECAE2EE3E0BE2E4091FA179B
:1050C0005091FB176091FC177091FD178091551757
:1050D00090915617A0915717B091581784179507BC
:1050E000A607B70708F03FC0A8EF8A2EA4E19A2EC2
:1050F000D701E32D1D92EA95E9F70E943ACB01967C
:1051000021F480E00E9461EC26C15A824982DF923C
:10511000CF92F3EC6F2EF3E07F2EBF92AF92FF920F
:10512000EF920F94D79D89819A810F900F900F90E5
:105130000F900F900F90019659F18FEF9FEF9A8388
:105140008983DF92CF927F926F929F928F920F947A
:10515000D79D89819A810F900F900F900F900F909B
:105160000F90892B71F680E00E9461ECC090EF02F5
:10517000D090F002E090F102F090F20220E030E0F6
:10518000A901C701B6010F945CA7181694F13CC0A1
:105190000150110909F092CFE6CFD701ED2D1D92F4
:1051A000EA95E9F70E943ACB019609F4AACF68EF95
:1051B00074E18EE394E00F94669D892B09F4A1CFEE
:1051C0000150110981F24091FA175091FB1760913B
:1051D000FC177091FD178091551790915617A0916B
:1051E0005717B091581784179507A607B707A8F265
:1051F000BACF2DEC3CEC4CE45DE3C701B6010F9453
:105200005CA718165CF0A7C02DEC3CEC4CE45DEB01
:10521000C701B6010F94F89D87FF9DC040E050E0A4
:1052200067E18AE00E946BC88090EF029090F002E4
:10523000A090F102B090F20220E030E0A901C50197
:10524000B4010F945CA718162CF520E030E048EC70
:1052500052E4C501B4010F94EE980F941EA60AE023
:1052600010E0CB01B8010F94BAA8F82EE92E20E087
:1052700030E040E251E4C501B4010F94EE980F9480
:105280001EA6CB01B8010F94BAA8082FD92EC501CC
:10529000B4012AC02401350177FA709477F870942C
:1052A00020E030E048EC52E4C301B2010F94EE98E4
:1052B0000F941EA60AE010E0CB01B8010F94BAA823
:1052C000F82EE92E20E030E040E251E4C301B201C3
:1052D0000F94EE980F941EA6CB01B8010F94BAA8B4
:1052E000082FD92EC301B2010F941EA6162FC72E68
:1052F00020E030E0A901C501B4010F94F89D87FDBD
:1053000003C086E294E002C081E294E0EF92FF9253
:10531000DF920F93CF921F939F938F9386E696E031
:105320009F938F938E010F5F1F4F1F930F930F94C7
:10533000A89DC8010E94E0CDB80180E30E9474C915
:105340002DB73EB7245F3F4F0FB6F8943EBF0FBE58
:105350002DBF0C9415598091AB1581110C941457E5
:10536000CDB6DEB680917108909172080E94E0EF90
:10537000ECE5F5E1DF010D900020E9F78DB79EB770
:105380008A1B9B0BAC01485A5A4E0FB6F8945EBF6D
:105390000FBE4DBF0DB71EB70F5F1F4FFF93EF93AB
:1053A0008FE596E09F938F931F930F930F94A89D83
:1053B000780154E0E50EF11C0F900F900F900F90C4
:1053C0000F900F90F7018081882349F0082E000C80
:1053D000990B0F94E4AAD7018D937D01F3CFC801F7
:1053E0000E94368B8BE596E00E94C38A0FB6F89434
:1053F000DEBE0FBECDBE0C94145780915B15882382
:1054000011F40C9414578091AB1581110C9414571E
:10541000CDB6DEB680917108909172080E94E0EFDF
:10542000ECE5F5E1DF010D900020E9F78DB79EB7BF
:105430008A1B9B0B9C01285A3A4E0FB6F8943EBF2C
:105440000FBE2DBF0DB71EB70F5F1F4FFF93EF931A
:1054500084E596E09F938F931F930F930F94A89DDD
:10546000780134E0E30EF11C0F900F900F900F9035
:105470000F900F90F7018081882349F0082E000CCF
:10548000990B0F94E4AAD7018D937D01F3CFC80146
:105490000E94368B80E596E00E94C38A0FB6F8948E
:1054A000DEBE0FBECDBE0C94145740E050E067E363
:1054B00081E20E946BC840E050E061E08BE10E9415
:1054C0006BC840E050E062E08AE00E946BC881E077
:1054D00080938319809379080C94145781E080930A
:1054E0007B080C94145781E080937A080C9414572D
:1054F00040E050E062E18AE00E946BC80C941457CF
:1055000040E050E06CE18AE00E946BC880E00E94BD
:10551000C08A10928D0810928C0810928B0881E03E
:1055200080938E080C941457109283191092A0192E
:10553000E5E4F6E084918F01882351F0082E000CF9
:10554000990B0E94D9E90F5F1F4FF8018491F4CFA6
:1055500010928E080E94D47781E00E94C08A40E0B9
:1055600050E065E08AE00E946BC80C94145780916B
:10557000781190917911892B29F01092791110925C
:10558000781108C080913009909131099093791178
:105590008093781110928D080C94145780917A1191
:1055A00090917B11892B29F010927B1110927A1126
:1055B00008C080912E0990912F0990937B118093C0
:1055C0007A1110928C080C9414578091721190915A
:1055D0007311892B29F010927311109272111CC053
:1055E00080912C0990912D0960912A0970912B09C5
:1055F000681779072CF4BC01990F880B990B04C02C
:10560000072E000C880B990B0F94FE9D0F941EA67D
:10561000709373116093721110928B080C9414574D
:1056200081E496E00E94C38A0C94145740E050E055
:105630006EE18AE00E946BC80C94145740E050E081
:1056400065E08AE00E946BC8109283191092A0193D
:10565000E6E3F6E084918F01882351F0082E000CD8
:10566000990B0E94D9E90F5F1F4FF8018491F4CF85
:1056700010928E0888E793E090932602809325028B
:105680000E94D1DA0C94145740E050E06AE18AE0BD
:105690000E946BC80E94B5EA80915B15882311F4C3
:1056A0000C94145780916411809365112CE3E22EC1
:1056B00021E1F22E30E5C32E31E1D32E00E010E0DF
:1056C00040E3842E46E0942E8091641190E0081708
:1056D0001907BCF56CE575E183ED95E10F94801D2C
:1056E0005701D7018D919D917D010E94E0EFF50159
:1056F00080819181D6018D939D936D018091AB1531
:10570000811118C0F401849190E3A92E96E0B92E7E
:10571000882359F0082E000C990B0E94D9E9FFEF5D
:10572000AF1ABF0AF5018491F3CF8AE090E00E949E
:10573000D9E904C08CE595E10F94005A0F5F1F4F23
:10574000C3CF87E090E00E947A900C941457809128
:105750002502909126028036974041F488E793E035
:1057600090932602809325020E94D1DA40E050E017
:1057700068E08AE00E946BC881E4809315118091F3
:105780001E10882331F140E061E081E00E94DAC21E
:105790000F944E76809115118E3411F40C94155996
:1057A00081E00E94C08A109215118DE296E00E945D
:1057B000C38A0F944E76809115118E3411F40C9497
:1057C000155940E050E06BE08AE00E946BC80C94F1
:1057D000145741E0D9CF40E050E064E08AE00E94F5
:1057E0006BC80C94145740E050E064E28AE00E94D9
:1057F0006BC881E08093FF0789E4809315111F92A5
:105800001F9284E494E09F938F938E010F5F1F4F4C
:105810001F930F930F9445ABB8018EE20E9474C999
:105820006091300970913109072E000C880B990B9B
:105830000F94FE9D00E010E028EC31E440E050E0E1
:105840000E94B4CE0E94D1DA69E474E08FE494E15E
:105850000F94A3836CE474E08FE494E10F94A3832A
:10586000609166027091670280916802909169026E
:1058700042E050E00F94DB5A60E574E08FE494E17D
:105880000F94A3832DEB37E346E05EE360915E0265
:1058900070915F0280916002909161020F9472A5F5
:1058A00042E050E00F94DB5A64E574E08FE494E149
:1058B0000F94A3832DEB37E346E05EE3609156023D
:1058C0007091570280915802909159020F94EE986E
:1058D00042E050E00F94DB5A60912E0970912F093D
:1058E000072E000C880B990B0F94FE9D00E010E032
:1058F00028EC31E441E050E00E94B4CE0E94D1DABD
:1059000069E474E08FE494E10F94A3836CE474E0A1
:105910008FE494E10F94A38360916A0270916B020B
:1059200080916C0290916D0242E050E00F94DB5A3E
:1059300060E574E08FE494E10F94A3832DEB37E3EB
:1059400046E05EE3609162027091630280916402BE
:10595000909165020F9472A542E050E00F94DB5ADB
:1059600064E574E08FE494E10F94A3832DEB37E3B7
:1059700046E05EE360915A0270915B0280915C02A6
:1059800090915D020F94EE9842E050E00F94DB5A44
:10599000109215110E94D47740E050E06BE084E152
:1059A0000E946BC840E050E065E18AE00E946BC84D
:1059B00084E48093CA18809315110F900F900F9074
:1059C0000F900F900F900C9414571092831910920F
:1059D000A019E2E2F6E084918F01882351F0082EAD
:1059E000000C990B0E94D9E90F5F1F4FF8018491B9
:1059F000F4CF10928E080E94D47740E050E065E02A
:105A00008AE00E946BC80C94145782E580931102BF
:105A100081E08093FE0740E050E06BE581E20E9468
:105A20006BC840E050E06CE581E20E946BC840E04A
:105A300050E060E08BE10E946BC840E050E06AE714
:105A400081E20E946BC840E050E069E781E20E9479
:105A50006BC840E050E06DE18AE00E946BC88FEFB8
:105A60008093B3100C94145740E050E062E18AE058
:105A70000E946BC840E050E06BE581E20E946BC879
:105A800040E050E06CE581E20E946BC840E050E0ED
:105A900060E08BE10E946BC840E050E06AE781E281
:105AA0000E946BC840E050E069E781E20E946BC849
:105AB0001092FE070C941457109283191092A0199B
:105AC000E7E1F6E084918F01882351F0082E000C65
:105AD000990B0E94D9E90F5F1F4FF8018491F4CF11
