:100000000C94CA0D0C94FB0D0C94FB0D0C94FB0D81
:100010000C94FB0D0C94FB0D0C94FB0D0C94FB0D40
:100020000C94FB0D0C94FB0D0C94FB0D0C94FB0D30
:100030000C94FB0D0C94FB0D0C94FB0D0C94FB0D20
:100040000C94FB0D0D9458050C94FB0D0C94FB0DBA
:100050000C94FB0D0C94FB0D0D94321F0D94F725A1
:100060000C94FB0D0D94152A0D944B2A0C94FB0D4A
:100070000C94FB0D0C94FB0D0C94FB0D0C94FB0DE0
:100080000C94FB0D0C94FB0D0C94FB0D0C94FB0DD0
:100090000C94FB0D0C94FB0D0C94FB0D0C94BE0EFC
:1000A0000C94FB0D0C94FB0D0C94FB0D0C94FB0DB0
:1000B0000C94FB0D0C94FB0D0C94FB0D0C94FB0DA0
:1000C0000C94FB0D0C94FB0D0C94FB0D0D94C02AAD
:1000D0000D94F62A0C94FB0D0C94FB0D0C94FB0D67
:1000E0000C94FB0D05013101130103011F01EB000D
:1000F000ED001501D9000D01E50009012D011101E7
:10010000F1001D01CF00E700E300F300FD000F0147
:10011000EF003701DF00CF002F01E10029010B01C3
:100120001B01F7002B01D3001901FF00CB002701B1
:10013000C700DB0025012101FB001901D7003501B3
:10014000C900084AD73B3BCE016E84BCBFFDC12F1E
:100150003D6C74319ABD56833DDA3D00C77F11BEB8
:10016000D9E4BB4C3E916BAAAABE000000803F05BB
:10017000A84CCDB2D44EB93836A9020C50B99186EC
:1001800088083CA6AAAA2ABE000000803F000D9461
:10019000E9270D9409280D94DF270D94BE280D94AE
:1001A000B2270D9406000D94D0270D94282B0D94A2
:1001B00001280D9435200D94ED270D944F290D94B1
:1001C0008A270D949E270D944B270D943F200D9464
:1001D00043270D941F2B0D9417200D9431200D945F
:1001E00071270D942F270D9453270D94B0280D944B
:1001F000C6270D94782B0D94FB270D945D270D9445
:10020000DB270D94A5280D94F01F0D94BA1F0D94B3
:10021000742A0D941B270D94D4270D9437200D9428
:1002200067270D9425270D94E31F0D9433200D941B
:100230007D2A0D940E280D94D7270D9439270D94FF
:100240000A200D94F7270D942E290D94F3270D9471
:10025000E5270D94A8270D94CA270D9420270D9407
:1002600094270D94C71F0D94D2280D9405280D9442
:1002700080274D383420582059205A2045004D31D0
:100280003037005430004D313037004D3234004D9E
:100290003233202573006175746F25692E67006500
:1002A00072726F722077726974696E6720746F2042
:1002B00066696C65004E6F74205344207072696EDD
:1002C00074696E67002F005344207072696E746900
:1002D0006E67206279746520002E0044656C657439
:1002E000696F6E206661696C65642C2046696C6577
:1002F0003A200046696C652064656C657465643AF3
:10030000002E006F70656E206661696C65642C203C
:1003100046696C653A200057726974696E6720748B
:100320006F2066696C653A20002E006F70656E2044
:100330006661696C65642C2046696C653A20002E04
:10034000006F70656E206661696C65642C2046697B
:100350006C653A200046696C652073656C65637452
:100360006564002053697A653A200046696C65200F
:100370006F70656E65643A20002E006F70656E20A8
:100380006661696C65642C2046696C653A20004E94
:100390006F772066726573682066696C653A200025
:1003A0004E6F7720646F696E672066696C653A20CE
:1003B000002220706F73002220706172656E743AA3
:1003C0002200535542524F5554494E452043414C0B
:1003D0004C207461726765743A2200747279696E98
:1003E0006720746F2063616C6C207375622D676386
:1003F0006F64652066696C65732077697468207422
:100400006F6F206D616E79206C6576656C732E2040
:100410004D4158206C6576656C2069733A005344F1
:100420002063617264206F6B006F70656E526F6F36
:1004300074206661696C656400766F6C756D652EFD
:10044000696E6974206661696C6564005344206953
:100450006E6974206661696C006563686F3A004577
:1004600072726F723A0048617264636F64656420EF
:1004700043616C696220616E642050494420446588
:100480006661756C742053657474696E6773204C73
:100490006F616465640048617264636F64656420C1
:1004A00044656661756C742053657474696E677316
:1004B000204C6F616465640053746F7265642073CF
:1004C000657474696E6773207265747269657665A8
:1004D0006400206D61782074656D702042200020DA
:1004E0006D61782074656D7020522000206D6178F8
:1004F0002074656D70204C2000207072696E7473DA
:100500002066696E6973686564200020686F757283
:1005100073207072696E742000207072696E74733B
:1005200020004C4F473A0020525F5052494E542011
:100530000020525F424544200020525F52454D4FFB
:100540005645200020525F494E53455254200054D6
:10055000656D702028EFBFBD43293A00204C5F50E5
:1005600052494E542000204C5F4245442000204C0C
:100570005F52454D4F56452000204C5F494E534534
:100580005254200054656D702028EFBFBD43293AB6
:1005900000205A2070726F626500205A2000205996
:1005A0002000205820004F66667365747320286D04
:1005B0006D293A00204400204900202D204D333081
:1005C000312052494748542050002044002049001F
:1005D000204D333031204C45465420500050494482
:1005E0002073657474696E67733A00205A0020594D
:1005F0000020204D323036205800486F6D65206F46
:10060000666673657420286D6D293A0020450020C8
:100610005A0020580020420020540020204D323043
:1006200035205300416476616E63656420766172A3
:100630006961626C65733A20533D4D696E20666551
:1006400065647261746520286D6D2F73292C2054A8
:100650003D4D696E2074726176656C2066656564D7
:100660007261746520286D6D2F73292C20423D6DB9
:10067000696E696D756D207365676D656E74207444
:10068000696D6520286D73292C20583D6D6178694E
:100690006D756D205859206A65726B20286D6D2F1D
:1006A00073292C20205A3D6D6178696D756D205A33
:1006B000206A65726B20286D6D2F73292C202045D0
:1006C0003D6D6178696D756D2045206A65726B209E
:1006D000286D6D2F73290020540020204D323034B6
:1006E000205300416363656C65726174696F6E3A93
:1006F00020533D616363656C65726174696F6E2C34
:1007000020543D7265747261637420616363656C2B
:1007100065726174696F6E00204500205A0020598F
:100720000020204D3230312058004D6178696D75C0
:100730006D20416363656C65726174696F6E20281A
:100740006D6D2F7332293A00204500205A00205940
:100750000020204D3230332058004D6178696D758E
:100760006D2066656564726174657320286D6D2FF8
:1007700073293A00204500205A0020590020204DBE
:10078000393220580053746570732070657220757B
:100790006E69743A0053657474696E67732053749C
:1007A0006F726564006563686F3A005072696E74B9
:1007B00065722068616C7465642E206B696C6C28AE
:1007C000292063616C6C656421006F6B0052657356
:1007D000656E643A20000A00207A3A200020793AB7
:1007E000200020783A2000426564002200556E6B9C
:1007F0006E6F776E20636F6D6D616E643A202200BC
:10080000486F74656E64206F6666736574733A0032
:100810005A204F6666736574203A20007A5F6D61D6
:10082000783A20007A5F6D696E3A20005A204F6650
:1008300066736574005A204F6666736574206F6B2B
:1008400000486F74656E64206F6666736574733AF2
:10085000007A5F6D696E3A2000795F6D61783A20A9
:1008600000785F6D61783A2000785F6D696E3A209C
:1008700000205A3A0020593A0020436F756E7420C8
:10088000583A200020453A00205A3A0020593A00B0
:10089000583A004649524D574152455F4E414D45E9
:1008A0003A4D61726C696E2056313B20537072690B
:1008B0006E7465722F6772626C206D6173687570FB
:1008C00020666F722067656E36204649524D57414B
:1008D00052455F55524C3A68747470733A2F2F67C3
:1008E00069746875622E636F6D2F4572696B5A610A
:1008F0006C6D2F4D61726C696E2F2050524F544FAA
:10090000434F4C5F56455253494F4E3A312E30209B
:100910004D414348494E455F545950453A4D656EE7
:1009200064656C2045585452554445525F434F55B9
:100930004E543A3220555549443A303030303030F8
:1009400030302D303030302D303030302D303030B0
:10095000302D3030303030303030303030300A00F0
:1009600020423A0020453A00543A0020573A0020ED
:10097000453A00543A002042403A0020403A0020D4
:100980002F003A00205400202F0020423A00202F50
:10099000006F6B20543A000A0A005374616E646160
:1009A000726420446576696174696F6E3A20000A4A
:1009B000004D65616E3A20000A002020207A3A201E
:1009C0000000793A2000783A20003F53706563694F
:1009D00066696564206E756D626572206F66206C55
:1009E00065677320696E206D6F76656D656E742026
:1009F0006E6F7420706C61757361626C652E0A0095
:100A00003F537065636966696564205920706F7330
:100A10006974696F6E206F7574206F662072616EE5
:100A200067652E0A003F53706563696669656420D7
:100A30005820706F736974696F6E206F7574206FC2
:100A4000662072616E67652E0A003F5370656369A8
:100A5000666965642073616D706C652073697A6581
:100A6000206E6F7420706C61757361626C652E0A04
:100A70000046756C6C20737570706F7274206174B1
:100A80003A20687474703A2F2F33647072696E74F0
:100A9000626F6172642E636F6D2F666F72756D2E5B
:100AA0007068700A004D3438205A2D50726F62659C
:100AB000205265706561746162696C697479207433
:100AC0006573742E20202056657273696F6E203214
:100AD0002E30300A003F566572626F7365204C6598
:100AE00076656C206E6F7420706C61757361626CDA
:100AF000652E0A002569206D696E2C2025692073FA
:100B0000656300456E642066696C65206C6973746A
:100B100000426567696E2066696C65206C69737454
:100B2000000A00205A3A200020593A200020583A62
:100B3000200042656400486F6D6520582F5920627F
:100B400065666F7265205A000A0020616E746968DC
:100B50006F726172690A3A200020686F726172696F
:100B60000A20002F3800766F6C74657320002056C1
:100B70006F6C74657320636172676F6C20333A2009
:100B80000020616E7469686F726172690A3A2000B0
:100B900020686F726172690A20002F3800766F6CCE
:100BA000746573200020566F6C74657320636172E6
:100BB000676F6C20323A200020616E7469686F7232
:100BC0006172690A3A200020686F726172690A20B6
:100BD000002F3800766F6C746573200020566F6CA0
:100BE00074657320636172676F6C20313A20000A6C
:100BF0000020647A333A200020647A323A200020C0
:100C0000647A313A20000A00207A633A2000486F63
:100C10006D6520582F59206265666F7265205A00F5
:100C2000486F6D6520582F59206265666F72652088
:100C30005A00256920686F757273202569206D69D7
:100C40006E7574657300446F6E65207072696E74A2
:100C5000696E672066696C650047363900507269B5
:100C60006E7465722073746F70706564206475654E
:100C700020746F206572726F72732E20466978201F
:100C8000746865206572726F7220616E642075737E
:100C900065204D39393920746F2072657374617223
:100CA000742E202854656D706572617475726520AC
:100CB00069732072657365742E205365742069749E
:100CC0002061667465722072657374617274696EF6
:100CD0006729006F6B004E6F204C696E65204E7562
:100CE0006D626572207769746820636865636B73F1
:100CF000756D2C204C617374204C696E653A200030
:100D00004E6F20436865636B73756D2077697468F7
:100D1000206C696E65206E756D6265722C204C6169
:100D20007374204C696E653A2000636865636B7369
:100D3000756D206D69736D617463682C204C6173EF
:100D400074204C696E653A20004C696E65204E75C2
:100D50006D626572206973206E6F74204C617374CC
:100D6000204C696E65204E756D6265722B312C20AA
:100D70004C617374204C696E653A20004D313130FE
:100D8000004D383420582059205A20450054300056
:100D90004732382058302059300047373000505201
:100DA000494E542053455454494E4753200A004459
:100DB0006F6E6520736176696E672066696C652E5B
:100DC000006F6B004D323900737461727400303102
:100DD0002D312E312E355243002200656E7175651E
:100DE000696E672022002200656E717565696E6705
:100DF0002022004734300054300047343000543053
:100E0000004734300054300047343000543000473D
:100E10003430005430005431005430005430005409
:100E20003100543100543000543000543100473404
:100E300033004734330047343100473430004734FF
:100E400031004734310047343100473431004734F2
:100E500031004734310047343100473431004734E2
:100E600031004734310054300054300047333400EF
:100E7000543000473334005430004733340054308A
:100E800000473334005430004734330047343300D4
:100E9000473334004D3234004D3233202573004D3A
:100EA000383420582059205A2045004D3130370021
:100EB000543000543000543100FF01FF0000A040C6
:100EC0000000A0400000004033F3974300809343AC
:100ED0000000524300000000008093430000000027
:100EE00033F3974300809343000052430000000017
:100EF00000000000000000006563686F3A00457262
:100F0000726F723A0020636F6C642065787472753A
:100F100073696F6E2070726576656E7465640065C6
:100F200063686F3A007C3C3E5E2B3D3F2F5B5D3B30
:100F30002C2A225C00205A3A0020593A0020583AC4
:100F400000656E6473746F7073206869743A200072
:100F500024F4D43050C38E20C2A24017828B70116B
:100F6000127A910D816CD90AA861E108C758660709
:100F7000615143061E4B5D05C145A7041A4111048A
:100F8000093D9803713931034036DB026533910224
:100F9000D4305402802E1D02632CEE01752AC50147
:100FA000B028A001102781018F2564012B244B015B
:100FB000E0223401AC211F018D200D01801FFC00B7
:100FC000841EED00971DDF00B81CD200E61BC60092
:100FD000201BBC00641AB200B219A8000A19A000B4
:100FE0006A189900D117910040178B00B51684003C
:100FF00031167E00B31579003A157300C7146F00DF
:1010000058146A00EE1366008813630025135E000F
:10101000C7125B006C12570015125400C111510029
:1010200070114F0021114B00D61049008D10470060
:101030004610440002104200C00F4000800F3E00E6
:10104000420F3C00060F3B00CB0E3800930E3700DA
:101050005C0E3500270E3400F30D3200C10D310057
:10106000900D3000600D2E00320D2D00050D2C006E
:10107000D90C2B00AE0C2900850C29005C0C270034
:10108000350C27000E0C2600E80B2400C40B2400AE
:10109000A00B23007D0B23005A0B2100390B2100EC
:1010A000180B2000F80A1F00D90A1E00BB0A1E00F8
:1010B0009D0A1D00800A1D00630A1C00470A1B00D0
:1010C0002C0A1B00110A1A00F7091A00DD09190081
:1010D000C4091900AB091900920917007B0918000F
:1010E000630917004C09160036091600200916007E
:1010F0000A091500F5081500E0081400CC081400D2
:10110000B8081400A4081400900813007D08120009
:101110006B0813005808120046081200340811002A
:10112000230811001208110001081100F007100037
:10113000E0071000D0071000C0071000B0070F0034
:10114000A107100091070E0083070F0074070F001E
:1011500065070E0057070E0049070E003B070D00FC
:101160002E070E0020070D0013070D0006070D00C7
:10117000F9060C00ED060D00E0060C00D4060C008C
:10118000C8060C00BC060C00B0060C00A4060B0040
:1011900099060C008D060B0082060B0077060B00EB
:1011A0006C060B0061060A0057060B004C060A008D
:1011B00042060A0038060A002E060A0024060A0023
:1011C0001A060A001006090007060A00FD050900B4
:1011D000F4050900EB050900E2050900D90509003D
:1011E000D0050900C7050900BE050900B5050800BE
:1011F000AD050800A50509009C0508009405080038
:101200008C050800840508007C05080074050800AA
:101210006C050700650508005D0507005605080018
:101220004E05070047050700400508003805070080
:10123000310507002A050700230507001C050600E5
:10124000160507000F050700080506000205070040
:10125000FB040600F5040700EE040600E80406009F
:10126000E2040700DB040600D5040600CF040600F4
:10127000C9040600C3040600BD040600B704060046
:10128000B1040500AC040600A6040600A004050095
:101290009B04060095040500900406008A040500DE
:1012A00085040500800406007A0405007504050025
:1012B000700405006B040500660405006104050068
:1012C0005C04050057040500520405004D040500A8
:1012D00048040500430405003E0404003A040500E8
:1012E00035040500300404002C0405002704040024
:1012F000230405001E0404001A040400160405005B
:10130000110404000D040400090405000404040091
:1013100000040400FC030400F8030400F4030400C8
:10132000F0030400EC030400E8030400E4030400F9
:10133000E0030400DC030400D8030400D403040029
:10134000D0030400CC030400C8030300C50303005A
:1013500024F404D9201BC40C5C0E9804C4095F0259
:1013600065077101F405F900FB04B3004804870028
:10137000C10369005803550003034500BE023A004B
:101380008402310053022A002902250004022000B1
:10139000E4011C00C8011900AF01170098011400F6
:1013A00084011300710110006101100051010E0051
:1013B00043010D0036010B002B010B0020010B0037
:1013C000150109000C01090003010800FB000800D9
:1013D000F3000800EB000700E4000600DE00060052
:1013E000D8000600D2000600CC000500C7000500AA
:1013F000C2000500BD000400B9000400B5000400EF
:10140000B1000400AD000400A9000400A500030021
:10141000A20003009F0004009B000300980003004B
:101420009500020093000300900003008D0002006D
:101430008B00030088000200860002008400030085
:10144000810002007F0002007D0002007B0002009C
:1014500079000200770001007600020074000200AB
:1014600072000100710002006F0002006D000100B7
:101470006C0002006A0001006900020067000100C0
:1014800066000100650001006400020062000100C6
:1014900061000100600001005F0002005D000100CA
:1014A0005C0001005B0001005A00010059000100CE
:1014B00058000100570001005600010055000100CE
:1014C00054000100530000005300010052000100CD
:1014D00051000100500001004F0001004E000000CB
:1014E0004E0001004D0001004C0001004B000000C7
:1014F0004B0001004A0001004900010048000000C3
:1015000048000100470001004600000046000100BD
:1015100045000000450001004400010043000000B8
:1015200043000100420000004200010041000000B1
:1015300041000100400001003F0000003F000100A9
:101540003E0000003E0001003D0000003D000100A3
:101550003C0000003C0000003C0001003B0000009B
:101560003B0001003A0000003A0001003900000091
:101570003900010038000000380000003800010088
:101580003700000037000100360000003600000080
:101590003600010035000000350000003500010074
:1015A000340000003400000034000100330000006B
:1015B0003300000033000100320000003200000060
:1015C0003200010031000000310000003100010054
:1015D0003000000030000000300001002F0000004B
:1015E0002F0000002F0000002F0001002E0000003F
:1015F0002E0000002E0001002D0000002D00000034
:101600002D0000002D0001002C0000002C00000027
:101610002C0000002C0001002B0000002B0000001B
:101620002B0000002B0001002A0000002A0000000F
:101630002A0000002A000100290000002900000003
:1016400029000000290000002900010028000000F6
:1016500028000000280000002800000028000100E9
:1016600027000000270000002700000027000000DE
:1016700027000100260000002600000026000000D0
:1016800026000000260001002500000025000000C3
:1016900025000000250000002500000025000100B5
:1016A00024000000240000002400000024000000AA
:1016B000240001002300000023000000230000009C
:1016C000230000002300000023000000230001008D
:1016D0002200000022000000220000002200000082
:1016E0002200000022000100210000002100000073
:1016F0002100000021000000210000002100000066
:101700002100010020000000200000002000000057
:101710002000000020000000200000002000000049
:10172000200001001F0000001F0000001F0000003B
:101730001F0000001F0000001F0000001F0001002C
:101740001E0000001E0000001E0000001E00000021
:101750006563686F3A00546865726D616C205275FC
:101760006E617761792C2073797374656D20737461
:101770006F7070656421204865617465725F4944CB
:101780003A2000504944204175746F74756E65208D
:1017900066696E697368656421005049442041752B
:1017A000746F74756E65206661696C656421207460
:1017B000696D656F75740020403A006F6B20543A74
:1017C000006F6B20423A00504944204175746F7499
:1017D000756E65206661696C6564212054656D7065
:1017E0006572617475726520746F6F2068696768CF
:1017F00000204B643A2000204B693A2000204B70B7
:101800003A200020436C617373696320504944207F
:10181000002054753A2000204B753A2000206D615D
:10182000783A2000206D696E3A200020643A20004A
:1018300020626961733A2000504944204175746FF9
:1018400074756E652066696E6973686564212050E1
:10185000757420746865206C617374204B702C2043
:101860004B6920616E64204B6420636F6E737461FA
:101870006E74732066726F6D2061626F7665206989
:101880006E746F20436F6E66696775726174696FFD
:101890006E2E6800504944204175746F74756E65F2
:1018A000206661696C6564212074696D656F75746B
:1018B0000020403A006F6B20543A006F6B20423A90
:1018C00000504944204175746F74756E65206661DF
:1018D000696C6564212054656D7065726174757200
:1018E0006520746F6F206869676800204B643A2038
:1018F00000204B693A2000204B703A200020436CB6
:1019000061737369632050494420002054753A2064
:1019100000204B753A2000206D61783A2000206D40
:10192000696E3A200020643A200020626961733AAF
:1019300020004572726F723A0070012C01900127ED
:1019400001B0012201C0011D01F0011801100213B4
:101950000130020E016002090190020401C002FF81
:10196000000003FA004003F5008003F000D003EB11
:10197000002004E6007004E100E004DC004005D72C
:1019800000C005D2004006CD00D006C8008007C3C5
:10199000003008BE00F008B900C009B400B00AAFBA
:1019A00000B00BAA00D00CA500000EA000500F9BA9
:1019B00000C01096005012910000148C00C01587D2
:1019C00000B0178200B0197D00D01B7800001E7394
:1019D0000040206E0090226900F024640040275FE0
:1019E0000090295A00E02B5500102E500020304B5B
:1019F0000010324600E033410090353C001037378C
:101A00000070383200A0392D00B03A2800A03B23E6
:101A100000603C1E00103D1900903D1400103E0F68
:101A200000703E0A00C03E0500003F000000000AB2
:101A30000B02090C0D0E0807030401000000000052
:101A40000000000000000000000000000000000096
:101A50000000000000000000001211100000000053
:101A60000000000000000000000000000000000076
:101A70000000000102102020080810204010204023
:101A80008002010201080402010102040810204042
:101A90008080402010080402018004020180402060
:101AA0001008040201080402010102040810204089
:101AB000800102040810204080050505050705087F
:101AC000080808020202020A0A08080404040401C1
:101AD00001010101010101030303030303030304E3
:101AE0000707070C0C0C0C0C0C0C0C020202020673
:101AF000060606060606060B0B0B0B0B0B0B0B0064
:101B00000020002300260029002C002F00320000B6
:101B10000100000301060109010000220025002840
:101B2000002B002E003100340002010000050108E6
:101B3000010B0100002100240027002A002D0030A5
:101B400000330001010000040107010A014E414E6B
:101B5000494E495459494E46CDCCCC3D0AD7233C39
:101B600017B7D13877CC2B329595E6241FB14F0AA1
:101B7000000020410000C84200401C4620BCBE4C72
:101B8000CA1B0E5AAEC59D74920ED42A2283170129
:101B9000D500368311241FBECFEFD1E2DEBFCDBF0B
:101BA00000E00CBF1CE0A0E0B2E0EAE4F7E702E0EE
:101BB0000BBF02C007900D92AC35B107D9F72DE1EC
:101BC000ACE5BCE001C01D92AF31B207E1F71BE10B
:101BD000C2E9DBE100E006C022970109FE010BBF6C
:101BE0000F941D33C838D10780E00807A9F70F9478
:101BF0006C2B0D94933B0C94000080918B0C90E027
:101C000020918C0C821B9109089520918C0C80915D
:101C10008B0C281750F4E22FF0E0E357F34F80814C
:101C200090E02F5F20938C0C08958FEF9FEF089525
:101C3000E0918C0C80918B0CE81730F4F0E0E357C6
:101C4000F34F808190E008958FEF9FEF08950895FE
:101C5000CF92DF92EF92FF920F931F93CF93DF9378
:101C60007C01CB018A012091680C222389F0EB01D1
:101C70006B01C40ED51ECC15DD0561F06991D7014D
:101C8000ED91FC910190F081E02DC7011995F3CF02
:101C9000642F4BD0C801DF91CF911F910F91FF901E
:101CA000EF90DF90CF900895CF93DF931F92CDB741
:101CB000DEB769832091680C2223D1F02091690C52
:101CC000203240F021E030E0FC013383228380E0C9
:101CD00090E014C080916A0CE82FF0E0E559F34FD2
:101CE000998190838F5F80936A0C8093690C04C004
:101CF00061E0CE01019619D081E090E00F90DF9174
:101D0000CF910895FC011382128248EE53E060E007
:101D100070E044835583668377838EE193E09183FB
:101D2000808308958CE59CE0EDCF613298F420919A
:101D30001A0D243089F46093CF0CFC0181ED9CE0F6
:101D4000DC012A2F281B261718F421912D93F9CF97
:101D500080E0089581E0089582E0089585ED809304
:101D6000BC008091BC0084FDFCCF10921A0D089538
:101D700085EC8093BC0010921A0D08951F920F926B
:101D80000FB60F9211240BB60F922F933F934F93E0
:101D90005F936F937F938F939F93AF93BF93EF93D3
:101DA000FF938091B900887F803609F49DC070F55B
:101DB000883209F45CC090F4803109F455C038F4DD
:101DC000882309F4F3C0883009F44EC0F2C088318A
:101DD00009F44DC0803209F45EC0EBC0803409F4D0
:101DE00069C050F4803309F456C0883309F0E1C06B
:101DF0008093AD0CBDDFDDC0803509F44FC0883560
:101E000009F45DC0883409F0D4C0D2C0883909F41F
:101E1000C3C0A8F4883709F467C038F4883609F4D9
:101E200063C0803709F460C0C4C0883809F4B4C006
:101E3000803909F45FC0803809F0BBC05BC0803BCB
:101E400009F482C038F4803A09F466C0883A09F48B
:101E50007BC0AFC0803C09F4A3C0883C09F4A0C09B
:101E6000883B09F486C0A5C08091190D10C09091DF
:101E7000F20C8091F10C981770F5E091F20C81E072
:101E80008E0F8093F20CF0E0ED50F34F8081809341
:101E9000BB0085EC82C08093AD0C8AC0E091F20C4F
:101EA00081E08E0F8093F20C8091BB00F0E0ED504A
:101EB000F34F80839091F20C8091F10C6AC0E09115
:101EC000F20C81E08E0F8093F20C8091BB00F0E069
:101ED000ED50F34F80838091180D811169C081E02E
:101EE0008093170D84EA5DC083E080931A0D1092F1
:101EF000AE0CCFCF8091AE0C803208F04DC0E09197
:101F0000AE0C81E08E0F8093AE0C8091BB00F0E0B0
:101F1000E155F34F8083BDCF2BDF8091AE0C803233
:101F200030F4E091AE0CF0E0E155F34F1082609197
:101F3000AE0C70E0E091130DF091140D8FEA9CE06F
:101F400019951092AE0C35C084E080931A0D109252
:101F5000D00C1092CF0CE091150DF091160D199543
:101F60008091CF0C811105C081E08093CF0C10923D
:101F7000D10CE091D00C81E08E0F8093D00CF0E07A
:101F8000EF52F34F80818093BB009091D00C8091F1
:101F9000CF0C981708F47DCF85E88093BC0009C06A
:101FA00085EC8093BC0010921A0D03C01092AD0C0A
:101FB000D5DEFF91EF91BF91AF919F918F917F916E
:101FC0006F915F914F913F912F910F900BBE0F90AA
:101FD0000FBE0F901F901895DC01ED91FC910190C0
:101FE000F081E02D1994FC01148217821382128271
:101FF00082EE9BE091838083089522EE3BE0FC011A
:10200000318320832781222319F004960C9484FBCA
:102010000895CF92DF92EF92FF920F931F93CF9389
:10202000DF93EC01895A9F4FDEDFCE0188589F4F26
:10203000DADF7E0127E9E20EF11C87016E0133E34E
:10204000C31A3EEFD30AC801CEDF015E1F4F0C1545
:102050001D05C9F7FE01E153FE4F89E1818314821A
:102060003596178ACE018E509E4FBDDFFE01ED558D
:10207000FD4F1082118212821382389610821182D3
:10208000128213821A821B821C82188219826E01AC
:1020900089E5C81A8DEFD80AF601108211821282E2
:1020A0001382F80111821082FE01EF5EFD4F108253
:1020B00086E391E0F7019C01119221503040E1F755
:1020C000FE01E155FD4F81E08083CB5ADF4F19823D
:1020D00018820F94412668577C4E8F4F9F4FF60110
:1020E0006083718382839383DF91CF911F910F91DE
:1020F000FF90EF90DF90CF900895FC0120E03EE24A
:10210000DB014C91403241F0283011F4308331969C
:10211000DB014C91408331962F5F6F5F7F4F2B30F7
:1021200079F7108208952F923F924F925F926F92AB
:102130007F928F929F92AF92BF92CF92DF92EF9257
:10214000FF920F931F93CF93DF93CDB7DEB7C8589D
:10215000D1090FB6F894DEBF0FBECDBF8C016B0165
:102160007A01CA57DF4F1882C658D04084E0E80E83
:10217000F11C180192E1290E311CF801EC5AFF4FB5
:10218000C957DF4FF983E883C758D0405801F0E5BD
:10219000AF1AFDEFBF0A38018EE4681A8DEF780A96
:1021A00080E4482E512C4C0E5D1E94E0490E511CCB
:1021B000A101BE016F5F7F4FC7010E94EEF91816A3
:1021C0000CF009C12C85322F3871303109F091C0E3
:1021D000F501808191810197029708F48AC0BE01C0
:1021E0006F5F7F4FCE0187589F4F87DFA0961FAE4E
:1021F000A097F6018081811107C06AE273E0CE01E9
:10220000815A9F4F0F944738B601CE01815A9F4F94
:102210000F944738BE0167587F4FCE01815A9F4FB8
:102220000F9447386AE273E0CE01815A9F4F0F94B2
:102230004738CE01805C9F4FD6DE21E0AE01475883
:102240005F4FB701C2010E947BFD81112EC0F501D5
:1022500080819181892B49F5E9E5F4E064914F0192
:10226000662361F0772767FD70958FED9BE1B4DE03
:10227000FFEF8F1A9F0AF4016491F2CF6CE273E0D2
:102280008FED9BE10F94B62B6AE070E08FED9BE140
:10229000A3DEBE0167587F4F8FED9BE10F94B62BF5
:1022A0006AE070E08FED9BE197DE8BE1FE01EC5B75
:1022B000FF4FDE01959601900D928A95E1F72496E5
:1022C0008EAD9FAD24979CA38BA382EE9BE09AA337
:1022D00089A3AE014F5D5F4FBE01615A7F4FC801B8
:1022E00022DFCE01819689DECE01805C9F4F85DEA4
:1022F0005FCF8981882309F46EC0853E09F458CFE9
:102300008E3209F455CF8F3509F452CFF801828906
:10231000882331F08E3209F44BCF8F3509F448CF42
:1023200023FD46CF81E0303109F080E0C957DF4F0F
:10233000E881F981C758D0408083811108C0898520
:10234000873409F035CF8A858E3709F431CF4801BB
:10235000F5E08F0E911CBE016F5F7F4FC401CDDE93
:10236000F50180819181009781F4B6018FED9BE1A9
:102370000F94B62BB4018FED9BE10F94B62B6AE05E
:1023800070E08FED9BE128DE13CF8130910539F4A9
:10239000F3018081918101969183808309CF029717
:1023A00009F006CFCA57DF4FF881C658D0402F2F0B
:1023B00030E0F301808191812817390761F0CA5715
:1023C000DF4FF881C658D040FF5FCA57DF4FF88310
:1023D000C658D040EDCEC857DF4F0FB6F894DEBFD9
:1023E0000FBECDBFDF91CF911F910F91FF90EF9066
:1023F000DF90CF90BF90AF909F908F907F906F9025
:102400005F904F903F902F9008950F931F93CF931D
:10241000DF93CDB7DEB76F970FB6F894DEBF0FBE70
:10242000CDBF8C01FC01E055FD4F1182108240E0D0
:1024300050E0BA01855A9F4F0E94A1FAC801895AFB
:102440009F4F2BE1FC013496DE01159601900D9211
:102450002A95E1F7FC01828193819C838B8382EE34
:102460009BE09A838983AE014F5F5F4F6FE47CE00E
:10247000C80159DECE010196C0DD6F960FB6F89403
:10248000DEBF0FBECDBFDF91CF911F910F91089599
:102490002BE1FB013496DC01149601900D922A95F4
:1024A000E1F7FB0122813381FC013383228308950C
:1024B000EF92FF920F931F93CF93DF93EC011C8257
:1024C000FC01E25AFF4F8081882329F0CE01855A12
:1024D0009F4F0E9484FB7E0181E3E81A8EEFF80A89
:1024E00045E360E0C7010E9405F681113AC0E9E5C5
:1024F000F4E064918F01662359F0772767FD7095AA
:102500008FED9BE169DD0F5F1F4FF8016491F3CF01
:10251000ECE4F4E064918F01662359F0772767FDBE
:1025200070958FED9BE158DD0F5F1F4FF8016491AF
:10253000F3CF6AE070E08FED9BE14EDD8E01095A2A
:102540001F4FB801CE0188589F4FA2DFCA58DF4FF6
:1025500019830883DF91CF911F910F91FF90EF9026
:1025600008958E010C521E4F41E0B701C8010F942F
:102570006E0381112AC040E0B701C8010F946E03B9
:10258000811123C0EFE5F4E064918F01662359F0D7
:10259000772767FD70958FED9BE11EDD0F5F1F4F65
:1025A000F8016491F3CFE9E3F4E064918F016623CD
:1025B00009F4BFCF772767FD70958FED9BE10CDDA8
:1025C0000F5F1F4FF8016491F2CFB801CE01855A19
:1025D0009F4F0E9492F8811123C0EFE5F4E06491CF
:1025E0008F01662359F0772767FD70958FED9BE18A
:1025F000F3DC0F5F1F4FF8016491F3CFE9E2F4E0E1
:1026000064918F01662309F494CF772767FD709555
:102610008FED9BE1E1DC0F5F1F4FF8016491F2CF7A
:1026200081E08C83E9E5F4E064918F01662359F041
:10263000772767FD70958FED9BE1CEDC0F5F1F4F15
:10264000F8016491F3CFEEE1F4E064918F01662329
:1026500009F46FCF772767FD70958FED9BE1BCDCA8
:102660000F5F1F4FF8016491F2CFFC0112821482B8
:102670000895CF93DF93EC018C818823B9F06FE349
:1026800073E08FED9BE10F94B62B4091950F509125
:10269000960F6091970F7091980F22E030E08FEDC8
:1026A0009BE10F948A2D81E08A831B82DF91CF9179
:1026B0000895FC018281882319F0128281E08383CE
:1026C0000895AF92BF92CF92DF92EF92FF920F9355
:1026D0001F93CF93DF931F92CDB7DEB78C018FE2AC
:1026E000FB0181935F01D12C41E07801F3E3EF1A04
:1026F000FEEFFF0A9FE1C92E2D2D30E0F70180810A
:10270000918128173907D8F4C29EC001C39E900D4D
:10271000112485569F4FB501800F911F49830E9458
:1027200039F8C50149815C010196F5012081222318
:1027300021F04D3810F44F5FF6CFD394DDCF47FD35
:1027400011C0B501C8018A509E4F0F90DF91CF9103
:102750001F910F91FF90EF90DF90CF90BF90AF90BF
:102760000C9439F8F50110820F90DF91CF911F91F1
:102770000F91FF90EF90DF90CF90BF90AF900895B2
:102780003F924F925F926F927F928F929F92AF9201
:10279000BF92CF92DF92EF92FF920F931F93CF934E
:1027A000DF93CDB7DEB7AC970FB6F894DEBF0FBEA0
:1027B000CDBF8C016B01342EFC018481882309F488
:1027C000D0C2E750FE4F8081882309F407C1211150
:1027D000D1C07801FFEEEF1AFDEFFF0AF70180810B
:1027E000882309F432C0EFE5F4E064918F01662399
:1027F00059F0772767FD70958FED9BE1EDDB0F5F5B
:102800001F4FF8016491F3CFEBEDF3E064918F017A
:10281000662359F0772767FD70958FED9BE1DCDB30
:102820000F5F1F4FF8016491F3CF4AE050E061E081
:1028300070E08FED9BE10F946F2C6AE070E08FEDFC
:102840009BE1CADB0E94B1438CC2E9E5F4E06491EC
:102850005F01662361F0772767FD70958FED9BE13F
:10286000BBDBFFEFAF1ABF0AF5016491F2CFE2ECD8
:10287000F3E064915F01662361F0772767FD70954F
:102880008FED9BE1A9DBFFEFAF1ABF0AF501649161
:10289000F2CFB6018FED9BE10F94B62BE7EBF3E09F
:1028A00064915F01662361F0772767FD70958FED76
:1028B0009BE192DBFFEFAF1ABF0AF5016491F2CF03
:1028C000F70180812DE8B22EB801B89E600D711D10
:1028D00011246A5E7D4FC801F4DEF7018081B801E2
:1028E000B89E600D711D11246A5E7D4F8FED9BE1D6
:1028F0000F94B62BE1EBF3E064915F01662361F086
:10290000772767FD70958FED9BE166DBFFEFAF1AD0
:10291000BF0AF5016491F2CF5801F5E5AF1AFDEF5A
:10292000BF0AF50140815181628173812AE030E064
:102930008FED9BE10F948C2C6AE070E08FED9BE1B2
:102940004BDBF7012081F80184E0289FE00DF11DA9
:102950001124AF014E5E5D4FF50180819181A2810E
:10296000B381FA0180839183A283B3832F5FF70140
:1029700020832EC0E9E5F4E064917F01662361F0D5
:10298000772767FD70958FED9BE126DBFFEFEF1A50
:10299000FF0AF7016491F2CFE0EAF3E064917F016E
:1029A000662361F0772767FD70958FED9BE114DB5F
:1029B000FFEFEF1AFF0AF7016491F2CFB6018FED36
:1029C0009BE10F94B62B6AE070E08FED9BE104DB96
:1029D000C8018A509E4F0E9484FB32C0F801EF5E0E
:1029E000FD4F1082E9E5F4E064917F01662361F018
:1029F000772767FD70958FED9BE1EEDAFFEFEF1A19
:102A0000FF0AF7016491F2CFEFE8F3E064917F01F0
:102A1000662361F0772767FD70958FED9BE1DCDA27
:102A2000FFEFEF1AFF0AF7016491F2CFB6018FEDC5
:102A30009BE10F94B62B6AE070E08FED9BE1CCDA5E
:102A4000F8011282CE0101965C01CDDA280196E7E9
:102A5000490E511CC801895A9F4FF201918380830E
:102A6000F60180818F3209F07BC06FE270E0C60111
:102A70000F94523801967C01E114F10409F476C0F8
:102A80006FE270E0C7010F9452384C01009709F4CF
:102A90006EC0E816F90608F06AC03C016E187F089F
:102AA000A301B701CE0180960F947B38E0E2F0E0FD
:102AB000EC0FFD1FE60DF71D1082BE01605E7F4F1B
:102AC0008FED9BE10F94B62B6AE070E08FED9BE1F8
:102AD00083DAF201608171816115710519F06C5F13
:102AE0007F4F02C060E070E021E0AE01405E5F4FCA
:102AF000CE0105960E947BFD81112AC0EBE7F3E031
:102B000064918F01662359F0772767FD70958FEDEB
:102B10009BE162DA0F5F1F4FF8016491F3CFBE01B2
:102B2000605E7F4F8FED9BE10F94B62BE9E7F3E0FA
:102B300064918F01662309F40DC1772767FD7095B5
:102B40008FED9BE149DA0F5F1F4FF8016491F2CFDF
:102B5000F201B182A0827401FFEFEF1AFF0A8CCF5D
:102B6000C80188589F4FF201918380837601C80184
:102B70008A509E4F4C01F20160817181332009F42B
:102B80009AC06115710519F06C5F7F4F02C060E05B
:102B900070E021E0A701C4010E947BFD882309F4B5
:102BA00062C0F40181899289A389B489F801ED5545
:102BB000FD4F80839183A283B383EBE6F3E06491BE
:102BC0004F01C8018D559D4F6C01662361F0772739
:102BD00067FD70958FED9BE1FFD99FEF891A990AE8
:102BE000F4016491F2CFB7018FED9BE10F94B62B06
:102BF000E3E6F3E064917F01662361F0772767FDE8
:102C000070958FED9BE1E8D9FFEFEF1AFF0AF7010E
:102C10006491F2CFF60140815181628173812AE093
:102C200030E08FED9BE10F948C2C6AE070E08FED2B
:102C30009BE1D2D9F801E555FD4F10821182128235
:102C40001382E5E5F3E064918F01662309F482C005
:102C5000772767FD70958FED9BE1BED90F5F1F4F02
:102C6000F8016491F2CFE1E4F3E064918F0166230F
:102C700059F0772767FD70958FED9BE1ADD90F5F18
:102C80001F4FF8016491F3CFB7018FED9BE10F94D3
:102C9000B62BEFE3F3E064918F01662309F45AC089
:102CA000772767FD70958FED9BE196D90F5F1F4FDA
:102CB000F8016491F2CF6115710519F06C5F7F4FD7
:102CC00002C060E070E026E5A701C4010E947BFD20
:102CD000811127C0EBE2F3E064918F01662359F084
:102CE000772767FD70958FED9BE176D90F5F1F4FBA
:102CF000F8016491F3CFB7018FED9BE10F94B62BF0
:102D0000E9E2F3E064918F01662321F1772767FD03
:102D100070958FED9BE160D90F5F1F4FF8016491B3
:102D2000F3CF81E0F8018083E7E1F3E064918F0164
:102D3000662359F0772767FD70958FED9BE14CD99D
:102D40000F5F1F4FF8016491F3CFB6018FED9BE148
:102D50000F94B62B6AE070E08FED9BE13DD9C50181
:102D60004CD9AC960FB6F894DEBF0FBECDBFDF9145
:102D7000CF911F910F91FF90EF90DF90CF90BF9078
:102D8000AF909F908F907F906F905F904F903F900B
:102D9000089521E0FC01218340E0F2CC4F925F9244
:102DA0006F927F928F929F92AF92BF92CF92DF925B
:102DB000EF92FF920F931F93CF93DF93CDB7DEB7C0
:102DC000AC970FB6F894DEBF0FBECDBF7C015B01A0
:102DD000FC018481882309F4F9C0C7018A509E4F01
:102DE0000E9484FBF7011282CE0101966C01FBD890
:102DF000270196E7490E511CC701895A9F4FF201DE
:102E000091838083F50180818F3209F077C06FE272
:102E100070E0C5010F9452388C010F5F1F4F09F409
:102E200073C06FE270E0C8010F9452384C010097F4
:102E300009F46BC00817190708F067C03C01601A55
:102E4000710AA301B801CE0180960F947B38E0E2AD
:102E5000F0E0EC0FFD1FE60DF71D1082BE01605E75
:102E60007F4F8FED9BE10F94B62B6AE070E08FED02
:102E70009BE1B2D8F201608171816115710519F091
:102E80006C5F7F4F02C060E070E021E0AE01405E09
:102E90005F4FCE0105960E947BFD81112AC0E3E0C1
:102EA000F3E064918F01662359F0772767FD7095F1
:102EB0008FED9BE191D80F5F1F4FF8016491F3CF25
:102EC000BE01605E7F4F8FED9BE10F94B62BE1E07A
:102ED000F3E064918F01662309F471C0772767FDE1
:102EE00070958FED9BE178D80F5F1F4FF8016491CB
:102EF000F2CFF201D182C08284018FCFC7018858FE
:102F00009F4FF201918380838501F201808191813D
:102F1000009711F0049602C080E090E0B8010E9492
:102F200051FE882321F1E3EFF2E064915F01662313
:102F300061F0772767FD70958FED9BE14DD8FFEF2E
:102F4000AF1ABF0AF5016491F2CFB8018FED9BE192
:102F50000F94B62B6AE070E08FED9BE13DD8F7014E
:102F6000E555FD4F10821182128213822DC0EBEDC8
:102F7000F2E064917F01662361F0772767FD709529
:102F80008FED9BE129D8FFEFEF1AFF0AF70164915B
:102F9000F2CFB8018FED9BE10F94B62BE9EDF2E093
:102FA00064918F01662359F0772767FD70958FED47
:102FB0009BE112D80F5F1F4FF8016491F3CF6AE0D5
:102FC00070E08FED9BE108D8C60117D8AC960FB61C
:102FD000F894DEBF0FBECDBFDF91CF911F910F914F
:102FE000FF90EF90DF90CF90BF90AF909F908F9029
:102FF0007F906F905F904F9008950F931F93CF93A2
:10300000DF93EC018C81882309F43EC0E7ECF2E009
:1030100064918F01662361F0772767FD70958FEDCE
:103020009BE10E94EC0F0F5F1F4FF8016491F2CFFC
:10303000FE01E555FD4F40815181628173812AE097
:1030400030E08FED9BE10F948C2CE5ECF2E0649185
:103050008F01662361F0772767FD70958FED9BE107
:103060000E94EC0F0F5F1F4FF8016491F2CFCD5516
:10307000DD4F488159816A817B812AE030E08FED04
:103080009BE10F948C2C11C0E5EBF2E06491EF0111
:10309000662359F0772767FD70958FED9BE10E94BD
:1030A000EC0F2196FE016491F3CF6AE070E08FEDA2
:1030B0009BE1DF91CF911F910F910C94EC0FAF9298
:1030C000BF92CF92DF92EF92FF920F931F93CF9315
:1030D000DF935C01EB01FB0101900020E9F78F0118
:1030E00001501109061B170B6C01FAE0CF1AFEEF15
:1030F000DF0AF60110826EE470E0CE010F945238C0
:103100007C01009729F4F8013197EC0FFD1F0DC0E9
:1031100060E270E00F945238EC0121966AE270E0B0
:10312000C7010F945238FC0131978DE081838AE00A
:1031300082831382BE01C5018E509E4F0F941700EB
:10314000F6018081882391F1EFE5F4E06491EF01CD
:10315000662359F0772767FD70958FED9BE10E94FC
:10316000EC0F2196FE016491F3CFEFE9F2E0649158
:10317000EF01662359F0772767FD70958FED9BE18E
:103180000E94EC0F2196FE016491F3CF6AE070E09B
:103190008FED9BE1DF91CF911F910F91FF90EF9009
:1031A000DF90CF90BF90AF900C94EC0FDF91CF9158
:1031B0001F910F91FF90EF90DF90CF90BF90AF9055
:1031C00008952F923F924F925F926F927F928F92CB
:1031D0009F92AF92BF92CF92DF92EF92FF920F93A6
:1031E0001F93CF93DF93CDB7DEB7CC55D1090FB680
:1031F000F894DEBF0FBECDBF4C018C0101551D4FB1
:10320000662339F0F8011082F401848181111DC018
:1032100015C0F8018081882309F4AFC0F401E95595
:10322000FD4FC080D180E280F3800F944126C61606
:10323000D706E806F90608F4A0C0E4CFC40138D9DF
:10324000F4018481882309F498C07401F5E5EF0E38
:10325000F11CF70181818F9380818F9386E992E041
:103260009F938F938E01015C1F4F1F930F930F94B9
:10327000B8380F900F900F900F900F900F90B12CC7
:10328000F80101900020E9F73197E01BF10BBE1621
:1032900084F46801CB0CD11CB7FCDA94F601808170
:1032A000992787FD90950F94F037F6018083B394AA
:1032B000E7CFFBE58F0E911C40E050E0BA01C4015E
:1032C0000E94A1FA512CCE0101966C013FE8632EB9
:1032D00032E0732E5E0191E2A90EB11C40E050E095
:1032E000B601C4010E94EEF91816DCF5412CF60176
:1032F00001900020E9F73197EC19FD094E1674F49E
:103300001601240C311C47FC3A94F101808190E0B5
:103310000F94F037F10180834394E9CF8A858E378B
:10332000E9F245E050E0B801C6010F946D38892BF1
:10333000A9F61F930F937F926F92BF92AF920F9453
:10334000B838C5010E94372E8BE892E00E94B32E58
:103350000F900F900F900F900F900F905524539453
:10336000BDCF511004C08FEF9FEFF70104C0F701EC
:1033700080819181019691838083C45ADF4F0FB67B
:10338000F894DEBF0FBECDBFDF91CF911F910F919B
:10339000FF90EF90DF90CF90BF90AF909F908F9075
:1033A0007F906F905F904F903F902F9008950F9374
:1033B0001F93CF93DF93EC018C010A501E4FC8017D
:1033C0000E943AFBC8010E9484FB18821982DF9197
:1033D000CF911F910F910895EF92FF920F931F933A
:1033E000CF93DF93CDB7DEB76F970FB6F894DEBFFC
:1033F0000FBECDBF8C017C0186E7E80EF11CC80131
:1034000088589F4FF70191838083E65CFD4F22E04F
:1034100030E031832083329670E07183608340E036
:1034200050E0BA0104960E94A1FAF70180819181CF
:103430002BE1FC013496DE01159601900D922A9540
:10344000E1F7FC01828193819C838B8382EE9BE078
:103450009A838983AE014F5F5F4F6FE47CE0C801C0
:103460000E949310CE0101960E94FD0F6F960FB639
:10347000F894DEBF0FBECDBFDF91CF911F910F91AA
:10348000FF90EF900895CF92DF92EF92FF920F930B
:103490001F93CF93DF93CDB7DEB76F970FB6F89436
:1034A000DEBF0FBECDBF8C016C0126E7C20ED11C62
:1034B00088589F4FF60191838083E65CFD4F21E0A1
:1034C00030E0318320837801FEE4EF1AFDEFFF0A3C
:1034D000F7011182108240E050E0BA0104960E9488
:1034E000A1FAF601808191812BE1FC013496DE0185
:1034F000159601900D922A95E1F7FC018281938146
:103500009C838B8382EE9BE09A838983AE014F5F1D
:103510005F4F6FE47CE0C8010E949310CE010196DA
:103520000E94FD0FF701808191816F960FB6F8948C
:10353000DEBF0FBECDBFDF91CF911F910F91FF90E6
:10354000EF90DF90CF900895EF92FF920F931F932B
:10355000CF93DF93EC011092DA0F80918A0F909154
:103560008B0F019690938B0F80938A0FE6D086E89D
:1035700092E00E94B32E0F94EC0C8E010F5E1D4F53
:10358000F80180819E012A503E4F7901882399F1EC
:10359000C9010E9484FBF801808181508083BE01B3
:1035A000FDE88F9F600D711D11246A5E7D4F21E043
:1035B00041E0CE01E5D8F8018081FE0124E0829F40
:1035C000E00DF11D1124EE5EFD4F408151816281BD
:1035D0007381FE01E555FD4F408351836283738300
:1035E000C7010E94A1FACE01DF91CF911F910F91E7
:1035F000FF90EF903EC80F947D0DC7010E9484FBA1
:103600001A8221E030E045E050E06AE070E08EEDA3
:1036100092E10E94332983E892E00E94B32E0F9436
:10362000EC0C8EE792E00E94B32E0F94EC0C1092FB
:10363000BA1B1092B91B1092BC1B1092BB1B1092AC
:10364000B81B1092B71B82E792E00E94B32E8091C4
:1036500046188823F9F010924618C091830FD0E0E5
:10366000CC0FDD1FC754D44E68817981882777FD40
:103670008095982F0F94AA2F20917E0230917F027F
:1036800040918002509181020F940B31181614F46E
:1036900019821882DF91CF911F910F91FF90EF90C7
:1036A0000895EF92FF920F931F93CF93DF931F9292
:1036B000CDB7DEB78C017B01460FF70161917F0129
:1036C000F8018081918149830F94DC3AF80180816F
:1036D000918101969183808349814E11EECF0F90A5
:1036E000DF91CF911F910F91FF90EF900895EF928E
:1036F000FF920F931F93CF93DF931F92CDB7DEB747
:103700008C017B01460FF8018081918149830F94E0
:10371000D43AF70181937F01F8018081918101966C
:103720009183808349814E11EECF0F90DF91CF912D
:103730001F910F91FF90EF9008950F931F93CF93D8
:10374000DF93CDB7DEB768970FB6F894DEBF0FBE34
:10375000CDBF80E390E3A0E3B0E08D839E83AF8391
:10376000B88704E610E0188F0F8B44E0BE016B5F52
:103770007F4FCE01479695DF40E167EA78E1CE01C1
:1037800047968FDF40E167EB78E1CE01479689DF0E
:1037900040E167E978E1CE01479683DF44E06FE8D6
:1037A00078E1CE0147967DDF44E06BE878E1CE0119
:1037B000479677DF44E063E978E1CE01479671DF11
:1037C00044E06BE778E1CE0147966BDF44E067ECBD
:1037D00078E1CE01479665DF44E067E878E1CE0105
:1037E00047965FDF44E063E878E1CE01479659DF12
:1037F00044E06FE778E1CE01479653DF4CE068EA9A
:103800007FE0CE0147964DDF87ED90E09E8B8D8B5C
:103810008DE290E09C8B8B8B1A8A198A80EF90E066
:10382000988B8F8786E490E09E878D871C861B8609
:1038300042E0BE016B5E7F4FCE01479632DF42E031
:10384000BE016D5E7F4FCE0147962BDF42E0BE0189
:103850006F5E7F4FCE01479624DF42E0BE01615F7D
:103860007F4FCE0147961DDF42E0BE01635F7F4F71
:10387000CE01479616DF42E0BE01655F7F4FCE0165
:1038800047960FDF44E065E97FE0CE01479609DF08
:1038900044E06EE172E0CE01479603DF44E066E269
:1038A00072E0CE014796FDDE44E06EE272E0CE01AA
:1038B0004796F7DE42E064E070E1CE014796F1DE24
:1038C00042E068E070E1CE014796EBDE42E066E060
:1038D00070E1CE014796E5DE42E062E070E1CE01A4
:1038E0004796DFDE42E064EF7FE0CE014796D9DE07
:1038F00042E068EF7FE0CE014796D3DE42E066EF1C
:103900007FE0CE014796CDDE42E062EF7FE0CE0160
:103910004796C7DE42E06CEF7FE0CE014796C1DEFE
:1039200042E060E070E1CE014796BBDE42E06EEF20
:103930007FE0CE014796B5DE42E06AEF7FE0CE0140
:103940004796AFDE42E06CEE7FE0CE014796A9DEFF
:1039500042E060EF7FE0CE014796A3DE42E06EEEEC
:103960007FE0CE0147969DDE42E06AEE7FE0CE0129
:10397000479697DE44E06DED72E0CE01479691DE0A
:1039800044E065ED72E0CE0147968BDE44E06DECDD
:1039900072E0CE01479685DE44E061EE72E0CE0132
:1039A00047967FDE44E069ED72E0CE01479679DE0E
:1039B00044E061ED72E0CE01479673DE42E06EE8CE
:1039C0007FE0CE0147966DDE42E06AE87FE0CE01FF
:1039D000479667DE42E068E87FE0CE01479661DE09
:1039E00042E066E87FE0CE0147965BDE42E06CE8AD
:1039F0007FE0CE01479655DE42E064E87FE0CE01ED
:103A000047964FDE80E290E09A87898742E0BE01C8
:103A1000675F7F4FCE01479644DE86E591E3A2E3E0
:103A2000B0E089839A83AB83BC83188F0F8B44E00B
:103A3000BE016F5F7F4FCE01479633DEE5EAF7E0C8
:103A400064918F01662361F0772767FD70958FED94
:103A50009BE10E94EC0F0F5F1F4FF8016491F2CFC2
:103A6000E5E9F7E064918F01662361F0772767FD50
:103A700070958FED9BE10E94EC0F0F5F1F4FF801D7
:103A80006491F2CF6AE070E08FED9BE10E94EC0F51
:103A900068960FB6F894DEBF0FBECDBFDF91CF9111
:103AA0001F910F9108950F931F93CF93DF93C5EA52
:103AB000D7E0FE0164918E01662361F0772767FDF0
:103AC00070958FED9BE10E94EC0F0F5F1F4FF80187
:103AD0006491F2CFE5E8F7E064918F01662361F02D
:103AE000772767FD70958FED9BE10E94EC0F0F5FCC
:103AF0001F4FF8016491F2CF6AE070E08FED9BE117
:103B00000E94EC0FFE01649105EA17E0662361F064
:103B1000772767FD70958FED9BE10E94EC0F0F5F9B
:103B20001F4FF8016491F2CF4091A7185091A81847
:103B30006091A9187091AA188DE797E00E94CB2D8B
:103B40004091AB185091AC186091AD187091AE18BF
:103B50008AE797E00E94CB2D4091AF185091B018A2
:103B60006091B1187091B21887E797E00E94CB2D51
:103B70004091B3185091B4186091B5187091B6186F
:103B800084E797E00E94CB2D6FE47CE08FED9BE112
:103B90000F94B62B6AE070E08FED9BE10E94EC0F72
:103BA000FE01649105EA17E0662361F0772767FD5F
:103BB00070958FED9BE10E94EC0F0F5F1F4FF80196
:103BC0006491F2CFEAE5F7E064918F01662361F03A
:103BD000772767FD70958FED9BE10E94EC0F0F5FDB
:103BE0001F4FF8016491F2CF6AE070E08FED9BE126
:103BF0000E94EC0FFE01649105EA17E0662361F074
:103C0000772767FD70958FED9BE10E94EC0F0F5FAA
:103C10001F4FF8016491F2CF4091B7185091B81836
:103C20006091B9187091BA1881E597E00E94CB2D88
:103C30004091BB185091BC186091BD187091BE188E
:103C40008EE497E00E94CB2D4091BF185091C01890
:103C50006091C1187091C2188BE497E00E94CB2D3F
:103C60004091C3185091C4186091C5187091C6183E
:103C700088E497E00E94CB2D6FE47CE08FED9BE120
:103C80000F94B62B6AE070E08FED9BE10E94EC0F81
:103C9000FE01649105EA17E0662361F0772767FD6E
:103CA00070958FED9BE10E94EC0F0F5F1F4FF801A5
:103CB0006491F2CFEAE2F7E064918F01662361F04C
:103CC000772767FD70958FED9BE10E94EC0F0F5FEA
:103CD0001F4FF8016491F2CF6AE070E08FED9BE135
:103CE0000E94EC0FFE01649105EA17E0662361F083
:103CF000772767FD70958FED9BE10E94EC0F0F5FBA
:103D00001F4FF8016491F2CF409197185091981885
:103D10006091991870919A1881E297E00E94132E91
:103D200040919B1850919C1860919D1870919E181D
:103D30008EE197E00E94132E40919F185091A01899
:103D40006091A1187091A2188BE197E00E94132E48
:103D50004091A3185091A4186091A5187091A618CD
:103D600088E197E00E94132E6FE47CE08FED9BE1E9
:103D70000F94B62B6AE070E08FED9BE10E94EC0F90
:103D8000FE01649105EA17E0662361F0772767FD7D
:103D900070958FED9BE10E94EC0F0F5F1F4FF801B4
:103DA0006491F2CFE3EEF6E064918F01662361F057
:103DB000772767FD70958FED9BE10E94EC0F0F5FF9
:103DC0001F4FF8016491F2CF6AE070E08FED9BE144
:103DD0000E94EC0FFE01649105EA17E0662361F092
:103DE000772767FD70958FED9BE10E94EC0F0F5FC9
:103DF0001F4FF8016491F2CF40918F1850919018A5
:103E000060919118709192188AED96E00E94CB2DE6
:103E100040918B1850918C1860918D1870918E186C
:103E200087ED96E00E94CB2D6FE47CE08FED9BE167
:103E30000F94B62B6AE070E08FED9BE10E94EC0FCF
:103E4000FE01649105EA17E0662361F0772767FDBC
:103E500070958FED9BE10E94EC0F0F5F1F4FF801F3
:103E60006491F2CFE4E2F6E064918F01662361F0A1
:103E7000772767FD70958FED9BE10E94EC0F0F5F38
:103E80001F4FF8016491F2CF6AE070E08FED9BE183
:103E90000E94EC0FFE01649105EA17E0662361F0D1
:103EA000772767FD70958FED9BE10E94EC0F0F5F08
:103EB0001F4FF8016491F2CF4091931850919418DC
:103EC00060919518709196188BE196E00E94CB2D29
:103ED00040917B1850917C1860917D1870917E18EC
:103EE00088E196E00E94CB2D4091C7185091C818E8
:103EF0006091C9187091CA1885E196E00E94132E4E
:103F000040918718509188186091891870918A188B
:103F100082E196E00E94CB2D409183185091841845
:103F200060918518709186188FE096E00E94CB2DE5
:103F300040917F185091801860918118709182187B
:103F40008CE096E00E94CB2D6FE47CE08FED9BE14E
:103F50000F94B62B6AE070E08FED9BE10E94EC0FAE
:103F6000FE01649105EA17E0662361F0772767FD9B
:103F700070958FED9BE10E94EC0F0F5F1F4FF801D2
:103F80006491F2CFEAEFF5E064918F01662361F06E
:103F9000772767FD70958FED9BE10E94EC0F0F5F17
:103FA0001F4FF8016491F2CF6AE070E08FED9BE162
:103FB0000E94EC0FFE01649105EA17E0662361F0B0
:103FC000772767FD70958FED9BE10E94EC0F0F5FE7
:103FD0001F4FF8016491F2CF4091A80F5091A90FA3
:103FE0006091AA0F7091AB0F81EF95E00E94CB2DED
:103FF0004091AC0F5091AD0F6091AE0F7091AF0F2B
:104000008EEE95E00E94CB2D4091B00F5091B10FF4
:104010006091B20F7091B30F8BEE95E00E94CB2DA3
:104020006FE47CE08FED9BE10F94B62B6AE070E0CB
:104030008FED9BE10E94EC0FFE01649105EA17E011
:10404000662361F0772767FD70958FED9BE10E94F5
:10405000EC0F0F5F1F4FF8016491F2CFEDEDF5E02B
:1040600064918F01662361F0772767FD70958FED6E
:104070009BE10E94EC0F0F5F1F4FF8016491F2CF9C
:104080006AE070E08FED9BE10E94EC0FFE0164910D
:1040900005EA17E0662361F0772767FD70958FEDDD
:1040A0009BE10E94EC0F0F5F1F4FF8016491F2CF6C
:1040B0004091DD025091DE026091DF027091E002DA
:1040C00080ED95E00E94CB2D6091D5027091D602D3
:1040D0008091D7029091D8020F94AB20AB01BC0124
:1040E0008DEC95E00E94CB2D6091CD027091CE02B7
:1040F0008091CF029091D0020F94B720AB01BC0108
:104100008AEC95E00E94CB2D4091E1025091E202B1
:104110006091E3027091E4028AEB95E00E94CB2D5E
:104120006091D9027091DA028091DB029091DC02F9
:104130000F94AB20AB01BC0187EB95E00E94CB2D27
:104140006091D1027091D2028091D3029091D402F9
:104150000F94B720AB01BC0184EB95E00E94CB2DFE
:104160006FE47CE08FED9BE10F94B62B6AE070E08A
:104170008FED9BE10E94EC0FFE01649105EA17E0D0
:10418000662361F0772767FD70958FED9BE10E94B4
:10419000EC0F0F5F1F4FF8016491F2CFE6EAF5E0F4
:1041A00064918F01662361F0772767FD70958FED2D
:1041B0009BE10E94EC0F0F5F1F4FF8016491F2CF5B
:1041C0006AE070E08FED9BE10E94EC0FFE016491CC
:1041D00005EA17E0662361F0772767FD70958FED9C
:1041E0009BE10E94EC0F0F5F1F4FF8016491F2CF2B
:1041F00040911E0250911F02609120027091210295
:1042000082EA95E00E94CB2D409126025091270230
:1042100060912802709129028EE995E00E94CB2DD1
:1042200040912E0250912F02609130027091310224
:104230008AE995E00E94CB2D4091950F5091960F01
:104240006091970F7091980F81E995E00E94CB2DB6
:104250006FE47CE08FED9BE10F94B62B6AE070E099
:104260008FED9BE10E94EC0FFE01649105EA17E0DF
:10427000662361F0772767FD70958FED9BE10E94C3
:10428000EC0F0F5F1F4FF8016491F2CFE4E8F5E007
:1042900064918F01662361F0772767FD70958FED3C
:1042A0009BE10E94EC0F0F5F1F4FF8016491F2CF6A
:1042B0006AE070E08FED9BE10E94EC0FFE016491DB
:1042C00005EA17E0662361F0772767FD70958FEDAB
:1042D0009BE10E94EC0F0F5F1F4FF8016491F2CF3A
:1042E0006091081070910910882777FD8095982FAC
:1042F0000F94AA2FAB01BC0189E795E00E94CB2D5A
:104300006091061070910710882777FD8095982F8F
:104310000F94AA2FAB01BC018EE695E00E94CB2D35
:104320006091021070910310882777FD8095982F77
:104330000F94AA2FAB01BC0186E695E00E94CB2D1D
:104340006091041070910510882777FD8095982F53
:104350000F94AA2FAB01BC018CE595E00E94CB2DF8
:104360006FE47CE08FED9BE10F94B62B6AE070E088
:104370008FED9BE10E94EC0FFE01649105EA17E0CE
:10438000662361F0772767FD70958FED9BE10E94B2
:10439000EC0F0F5F1F4FF8016491F2CFEFE4F5E0EF
:1043A00064918F01662361F0772767FD70958FED2B
:1043B0009BE10E94EC0F0F5F1F4FF8016491F2CF59
:1043C0006AE070E08FED9BE10E94EC0FFE016491CA
:1043D00005EA17E0662361F0772767FD70958FED9A
:1043E0009BE10E94EC0F0F5F1F4FF8016491F2CF29
:1043F0006091001070910110882777FD8095982FAB
:104400000F94AA2FAB01BC0184E495E00E94CB2D50
:104410006091FE0F7091FF0F882777FD8095982F90
:104420000F94AA2FAB01BC0189E395E00E94CB2D2C
:104430006091FA0F7091FB0F882777FD8095982F78
:104440000F94AA2FAB01BC0181E395E00E94CB2D14
:104450006091FC0F7091FD0F882777FD8095982F54
:104460000F94AA2FAB01BC0187E295E00E94CB2DEF
:104470006FE47CE08FED9BE10F94B62B6AE070E077
:104480008FED9BE10E94EC0FFE01649105EA17E0BD
:10449000662361F0772767FD70958FED9BE10E94A1
:1044A000EC0F0F5F1F4FF8016491F2CFE2E2F5E0ED
:1044B00064918F01662361F0772767FD70958FED1A
:1044C0009BE10E94EC0F0F5F1F4FF8016491F2CF48
:1044D0006AE070E08FED9BE10E94EC0FFE01C49159
:1044E00005EA17E0CC2369F06C2F772767FD7095FC
:1044F0008FED9BE10E94EC0F0F5F1F4FF801C491FD
:10450000F1CF60918E0F70918F0F882777FD809586
:10451000982F0F94AA2FAB01BC0189E195E00E946E
:10452000CB2D60918C0F70918D0F882777FD809532
:10453000982F0F94AA2FAB01BC018BE095E00E944D
:10454000CB2D60918A0F70918B0F882777FD809516
:10455000982F0F94AA2FAB01BC0189EF94E00E9421
:10456000CB2D6091880F7091890F882777FD8095FA
:10457000982F0F94AA2FAB01BC018CEE94E00E94FF
:10458000CB2D6091860F7091870F882777FD8095DE
:10459000982F0F94AA2FAB01BC018FED94E00E94DD
:1045A000CB2D6091840F7091850F882777FD8095C2
:1045B000982F0F94AA2FAB01BC0182ED94E00E94CA
:1045C000CB2D6FE47CE08FED9BE10F94B62B6AE07E
:1045D00070E08FED9BE1DF91CF911F910F910C94D3
:1045E000EC0FAF92BF92CF92DF92EF92FF920F93B8
:1045F0001F93CF93DF93CDB7DEB7E0970FB6F89454
:10460000DEBF0FBECDBF80E1E5EEF2E0DE019196A8
:1046100001900D928A95E1F780E1E5EFF2E0DE018D
:10462000519601900D928A95E1F780E1E5E0F3E083
:10463000DE01119601900D928A95E1F76E0181E2FB
:10464000C80ED11C87EAE82E88E1F82E8E010F5E95
:104650001F4F67EB78E1AE014F5F5F4F97E9A92EDF
:1046600098E1B92E20E030E0F60181919191A1917D
:10467000B1916F01F70181939193A193B1937F0160
:10468000F80181919191A191B1918F01FB018193E9
:104690009193A193B193BF01FA0181919191A1915D
:1046A000B191AF01F50181939193A193B1935F0112
:1046B0002F5F3F4F24303105B9F60E94D0F480E0DF
:1046C00090E8ABEBB4E480938F1890939018A0938C
:1046D0009118B093921880E090E0AAEFB4E4809330
:1046E0008B1890938C18A0938D18B0938E181092FD
:1046F000931810929418109295181092961880E2C0
:104700009EE4A0E0B0E08093C7189093C818A093EF
:10471000C918B093CA1810927B1810927C18109286
:104720007D1810927E1880E090E0A0EAB0E48093BB
:10473000871890938818A0938918B0938A184DEC25
:104740005CEC6CEC7EE34093831850938418609388
:1047500085187093861880937F1890938018A09383
:104760008118B09382181092B00F1092B10F10926E
:10477000B20F1092B30F1092AC0F1092AD0F1092B7
:10478000AE0F1092AF0F1092A80F1092A90F1092B7
:10479000AA0F1092AB0F67ED70E070930510609355
:1047A00004104CED50E050930910409308102AEA91
:1047B00030E0309307102093061081E490E090934E
:1047C0000310809302107093F50F6093F40F5093D1
:1047D000F90F4093F80F3093F70F2093F60F909353
:1047E000F30F8093F20F7093FD0F6093FC0F5093C3
:1047F0000110409300103093FF0F2093FE0F909311
:10480000FB0F8093FA0F7093ED0F6093EC0F5093B2
:10481000F10F4093F00F3093EF0F2093EE0F909332
:10482000EB0F8093EA0F8AE999E9A9E3B0EC809352
:10483000950F9093960FA093970FB093980FE5EA7A
:10484000F7E064918F01662361F0772767FD70952B
:104850008FED9BE10E94EC0F0F5F1F4FF8016491F9
:10486000F2CFE6E9F4E064918F01662361F07727E7
:1048700067FD70958FED9BE10E94EC0F0F5F1F4F5E
:10488000F8016491F2CF6AE070E08FED9BE1E09671
:104890000FB6F894DEBF0FBECDBFDF91CF911F9151
:1048A0000F91FF90EF90DF90CF90BF90AF900C945E
:1048B000EC0FCF92DF92EF92FF92CF93DF9383E3DF
:1048C00093EFA7E9B3E480931E0290931F02A09395
:1048D0002002B09321028AE999E9A9E1BEEB809315
:1048E000260290932702A0932802B09329028DEC10
:1048F0009CECACECBDEB80932E0290932F02A09326
:104900003002B09331022CE5C22E2FE8D22E22E7DE
:10491000E22E21E4F22EC092DD02D092DE02E0927D
:10492000DF02F092E00261EE7AE784E99FE30F9400
:10493000A5206093D5027093D6028093D7029093FE
:10494000D8026FE175E885E492E40F94B12060939A
:10495000CD027093CE028093CF029093D002C0928A
:10496000E102D092E202E092E302F092E40261EE10
:104970007AE784E99FE30F94A5206093D9027093AE
:10498000DA028093DB029093DC026FE175E885E444
:1049900092E40F94B1206093D1027093D20280937D
:1049A000D3029093D40280E090E0A0E8BFE380932C
:1049B000C5029093C602A093C702B093C802809329
:1049C000C9029093CA02A093CB02B093CC02E5EA4D
:1049D000F7E06491EF01662359F0772767FD709542
:1049E0008FED9BE10E94EC0F2196FE016491F3CFC5
:1049F000E6E6F4E06491EF01662359F0772767FD5E
:104A000070958FED9BE10E94EC0F2196FE01649161
:104A1000F3CF6AE070E08FED9BE1DF91CF91FF90E3
:104A2000EF90DF90CF900C94EC0F0F931F93CF93E8
:104A3000DF93CDB7DEB768970FB6F894DEBF0FBE31
:104A4000CDBF84E690E0988F8F8B86E591E3A2E35B
:104A5000B0E089839A83AB83BC8344E0BE016B5F83
:104A60007F4FCE0147960E94771B43E050E0BE0186
:104A70006B5F7F4FCE0101960F946D38892B09F043
:104A80009BC140E167EA78E1CE0147960E94771B1F
:104A900040E167EB78E1CE0147960E94771B40E149
:104AA00067E978E1CE0147960E94771B0E94D0F417
:104AB00044E06FE878E1CE0147960E94771B44E01E
:104AC0006BE878E1CE0147960E94771B44E063E9EA
:104AD00078E1CE0147960E94771B44E06BE778E1CE
:104AE000CE0147960E94771B44E067EC78E1CE0147
:104AF00047960E94771B44E067E878E1CE0147962D
:104B00000E94771B44E063E878E1CE0147960E945B
:104B1000771B44E06FE778E1CE0147960E94771B50
:104B20004CE068EA7FE0CE0147960E94771B42E0A6
:104B3000BE016B5E7F4FCE0147960E94771B42E01D
:104B4000BE016D5E7F4FCE0147960E94771B42E00B
:104B5000BE016F5E7F4FCE0147960E94771B42E0F9
:104B6000BE01615F7F4FCE0147960E94771B42E0F6
:104B7000BE01635F7F4FCE0147960E94771B42E0E4
:104B8000BE01655F7F4FCE0147960E94771B44E0D0
:104B900065E97FE0CE0147960E94771B44E06EE115
:104BA00072E0CE0147960E94771B44E066E272E015
:104BB000CE0147960E94771B44E06EE272E0CE0180
:104BC00047960E94771B42E064E070E1CE01479671
:104BD0000E94771B42E068E070E1CE0147960E9498
:104BE000771B42E066E070E1CE0147960E94771B9A
:104BF00042E062E070E1CE0147960E94771B42E0FE
:104C000064EF7FE0CE0147960E94771B42E068EF99
:104C10007FE0CE0147960E94771B42E066EF7FE07F
:104C2000CE0147960E94771B42E062EF7FE0CE0103
:104C300047960E94771B42E06CEF7FE0CE014796DB
:104C40000E94771B42E060E070E1CE0147960E942F
:104C5000771B42E06EEF7FE0CE0147960E94771B04
:104C600042E06AEF7FE0CE0147960E94771B42E068
:104C70006CEE7FE0CE0147960E94771B42E060EF2A
:104C80007FE0CE0147960E94771B42E06EEE7FE008
:104C9000CE0147960E94771B42E06AEE7FE0CE018C
:104CA00047960E94771B44E06DED72E0CE01479677
:104CB0000E94771B44E065ED72E0CE0147960E94AA
:104CC000771B44E06DEC72E0CE0147960E94771BA3
:104CD00044E061EE72E0CE0147960E94771B44E00B
:104CE00069ED72E0CE0147960E94771B44E061EDCA
:104CF00072E0CE0147960E94771B42E06EE87FE0AB
:104D0000CE0147960E94771B42E06AE87FE0CE0121
:104D100047960E94771B42E068E87FE0CE01479605
:104D20000E94771B42E066E87FE0CE0147960E9432
:104D3000771B42E06CE87FE0CE0147960E94771B2C
:104D400042E064E87FE0CE0147960E94771B42E094
:104D5000BE01675F7F4FCE0147960E94771B0F947D
:104D6000670FE5EAF7E064918F01662361F077272A
:104D700067FD70958FED9BE10E94EC0F0F5F1F4F59
:104D8000F8016491F2CFE8EBF4E064918F016623BF
:104D900061F0772767FD70958FED9BE10E94EC0F26
:104DA0000F5F1F4FF8016491F2CF6AE070E08FED62
:104DB0009BE10E94EC0F04C014DC7BDD0E949D1B74
:104DC00068960FB6F894DEBF0FBECDBFDF91CF91CE
:104DD0001F910F910895823D9440F1F410928D0F30
:104DE00010928C0F1092850F1092840F1092890FE1
:104DF0001092880F1092870F1092860F10928F0FCB
:104E000010928E0F10928B0F10928A0F68E473E04D
:104E10008FED9BE10D94C12B0895FC01E659F1093A
:104E2000E63AF10518F069E573E023C0FB01E659A5
:104E3000F109E63AF105B8F7FA01E659F109E63A5F
:104E4000F10588F7F9013597EA36F10560F7909397
:104E50000910809308107093071060930610509308
:104E600005104093041030930310209302106DE658
:104E700073E08FED9BE10D94C12BFC01E659F10924
:104E8000E63AF10530F069E573E08FED9BE10D94B2
:104E9000C12BFB01E659F109E63AF105A0F7FA0149
:104EA000E659F109E63AF10570F7F9013597EA3666
:104EB000F10548F790930110809300107093FF0F55
:104EC0006093FE0F5093FD0F4093FC0F3093FB0F48
:104ED0002093FA0F0895FC01EB58FF4F11821082C6
:104EE0003D979C012D593F4F31832083329628EE08
:104EF00033E0318320833296118210823296118200
:104F00001082329610823196118210820895FB0130
:104F1000838190E0982F88272481820F911D089526
:104F2000FC01E859FF4FA081B1818D599F4F8A172D
:104F30009B0780F48FEF8C938081918101979183FF
:104F400080838091220D9091230D01979093230DE2
:104F50008093220D08950F931F93CF93DF938C01BD
:104F6000EC01CD58DF4F88819981DC01ED91FC91F6
:104F70000480F581E02D1995892B41F4F801E2595F
:104F8000FF4F8DEF9FEF918380830AC088819981C5
:104F9000DC01ED91FC910680F781E02D19959927B0
:104FA000DF91CF911F910F910895FC01E259FF4FBE
:104FB00011821082D0CF0895CF93DF93EC01CE59A8
:104FC000DF4F28812223D1F09C01205A3F4FF90165
:104FD000508146E0FC01459FE00DF11D1124DB01ED
:104FE00001900D924A95E1F7F90180818F5F8F70F2
:104FF000808388818150888381E001C080E0DF91D7
:10500000CF910895CF93DF93EC01CE59DF4F2881E4
:105010002E30D0F49C012F593F4FF901508146E0CA
:10502000DC01459FA00DB11D1124FB0101900D92E3
:105030004A95E1F7F90180818F5F8F7080838881C5
:105040008F5F888381E008C0FC01E259FF4F2BEF9E
:105050003FEF3183208380E0DF91CF910895FC0101
:10506000E859FF4F0190F081E02D60836350710992
:105070006230710520F4FC01E059FF4F1082089561
:105080002091220D3091230D2F5F3F4F3093230D40
:105090002093220DFC01E859FF4F208131812F5FC1
:1050A0003F4F3183208370E0DACFCF92DF92EF92CF
:1050B000FF921F93CF93DF93EC0177DF182F6E01E0
:1050C0008EE6C80ED11CD6012D913C912D3F3F4F4D
:1050D00081F4FE01EE59FF4F8081882309F459C005
:1050E000C958DF4FE881F981309709F452C019950A
:1050F00050C07E01E8E6EE0EF11CD701ED91FC9167
:105100008081813021F0A8F0823089F01BC01730F7
:1051100091F0153121F0163009F045C037C0CE01AD
:10512000FFDE8CEF9FEFF601918380833CC015304A
:1051300021F01730C1F564E003C0CE01F1DE63E079
:10514000CE019EDFD701ED91FC91808183508230AA
:1051500008F02EC07E01F0E7EF0EF11CD7012C9174
:10516000222321F18091210D81278093210DE22FAF
:10517000F0E0E55EF24F1083253091F481110BC011
:105180006BE17DE0CE013EDFF7011082CE01C8DE8B
:105190000AC080E009C088EF9FEFD6018D939C93F1
:1051A0002F5FF701208381E090E002C0812FDDCFE7
:1051B000DF91CF911F91FF90EF90DF90CF900895F6
:1051C000AF92BF92CF92DF92EF92FF920F931F9315
:1051D000CF93DF93EC010F9441266B017C018E018C
:1051E00006591F4FD8018D919C91AA2797FDA09534
:1051F000BA2FC80ED91EEA1EFB1E5E01B8E6AB0E22
:10520000B11C0F9441266C157D058E059F05D0F4C9
:10521000CE014BDF019779F40F9441266B017C019D
:10522000F80180819181AA2797FDA095BA2FC80E19
:10523000D91EEA1EFB1ED501ED91FC9180818111E2
:10524000E0CF06C0C259DF4F8FEF9FEF998388836D
:10525000DF91CF911F910F91FF90EF90DF90CF9052
:10526000BF90AF900895BF92CF92DF92EF92FF92DE
:105270000F931F93CF93DF938C01D62EC42E790109
:105280009FDFF801E259FF4F11821082E801CD58EB
:10529000DF4F88819981DC01ED91FC910190F081D3
:1052A000E02D61E0199588819981DC01ED91FC91F7
:1052B0000190F081E02D6D2D199588819981DC0197
:1052C000ED91FC910190F081E02D6C2D1995BB249E
:1052D000B394BC24BD2488819981DC01ED91FC91BB
:1052E0000190F081E02D6F2D1995BF24888199815F
:1052F000FF24DC01ED91FC910190F081E02D6E2DF9
:10530000199588819981DC01ED91FC916B2D6E25B9
:105310000190F081E02D199561E0C801B1DEDF91C7
:10532000CF911F910F91FF90EF90DF90CF90BF90A2
:105330000895AF92BF92CF92DF92EF92FF920F93B8
:105340001F93CF93DF935C016B017A01EA0109900F
:105350000020E9F72197C41BD50BCF3FD10511F0F1
:105360000CF048C02DDF85010D581F4FD8018D91DD
:105370009C91DC01ED91FC910190F081E02D62E0C7
:105380001995F80180819181DC01ED91FC910190EA
:10539000F081E02D6C2D1995B2E0CB26F8018081CB
:1053A0009181DC01ED91FC910190F081E02D6C2F59
:1053B0001995CC26DD26D7016C91F8018081918169
:1053C000DC01ED91FC910190F081E02D662351F01C
:1053D0001995F70181917F01992787FD9095C8263E
:1053E000D926E9CF6C2D199561E0C50149DE80E031
:1053F00090E002C08FEF9FEFDF91CF911F910F914F
:10540000FF90EF90DF90CF90BF90AF9008958958B4
:105410009F4FFC01718360830895CF93DF93EC016C
:10542000FC01ED58FF4F7183608360E029DEFE01CF
:10543000E05AFF4F108231961082CE59DF4F18820A
:10544000DF91CF9108950F931F93CF93DF938C013A
:10545000C7EAD8E1F80161917191819191918F0131
:1054600029913991499159910F94DD310F94772FFA
:10547000F8016487758786879787F8E1C73BDF0760
:1054800049F7DF91CF911F910F9108952F923F928D
:105490004F925F926F927F928F929F92AF92BF9244
:1054A000CF92DF92EF92FF920F931F93CF93DF93F0
:1054B000CDB7DEB73C01CB01BA0118012901F301D8
:1054C0006083718382839383048315832683378368
:1054D000C086D186E286F38684869586A686B786C0
:1054E00011E020E030E0A9010F94082F811101C0E4
:1054F00010E020E030E0A901C201B1010F94082FB3
:10550000882311F092E001C090E0192B20E030E0F8
:10551000A901C701B6010F94082F882311F094E068
:1055200001C090E0192B20E030E0A901C501B401D1
:105530000F94082F882311F088E001C080E0182B19
:10554000F30111A3C301DF91CF911F910F91FF9040
:10555000EF90DF90CF90BF90AF909F908F907F9013
:105560006F905F904F903F902F906DCF8F929F9252
:10557000AF92BF92CF92DF92EF92FF920F931F9361
:10558000CF93DF93CDB7DEB7FC0110A27FDFDF91B1
:10559000CF911F910F91FF90EF90DF90CF90BF9030
:1055A000AF909F908F9008958F929F92AF92BF92ED
:1055B000CF92DF92EF92FF920F931F93812C912C49
:1055C0005401750164010AE919E929E13EE3B501D5
:1055D000A40184E29DE0CADF1F910F91FF90EF903C
:1055E000DF90CF90BF90AF909F908F900895FC0177
:1055F000659175918591949108954F925F926F9204
:105600007F928F929F92AF92BF92CF92DF92EF9252
:10561000FF920F931F9340901502509016026090D6
:10562000170270901802812CE0E89E2EEBE3AE2E5C
:10563000E6E4BE2E8092150290921602A092170206
:10564000B09218026093C40F7093C50F8093C60F79
:105650009093C70F2093C80F3093C90F4093CA0F80
:105660005093CB0FE092CC0FF092CD0F0093CE0F62
:105670001093CF0FE3E8FFE0FF93EF93812C912C81
:10568000F8E4AF2EF3E4BF2EA0EDCA2EAFE0DA2E81
:105690000E9452E90F94EC0C4092150250921602AF
:1056A00060921702709218020F900F901F910F9145
:1056B000FF90EF90DF90CF90BF90AF909F908F9032
:1056C0007F906F905F904F90089580911502909118
:1056D0001602A0911702B09118028093570F909371
:1056E000580FA093590FB0935A0F8091590290917F
:1056F0005A029093D50F8093D40F84E690E0909354
:105700005A02809359020F9441266093B60D70930C
:10571000B70D8093B80D9093B90D81E00D944F05AE
:1057200080E00F944F058091570F9091580FA091F2
:10573000590FB0915A0F8093150290931602A093BF
:105740001702B09318028091D40F9091D50F9093C7
:105750005A02809359020F9441266093B60D7093BC
:10576000B70D8093B80D9093B90D08952F923F9285
:105770004F925F926F927F928F929F92AF92BF9261
:10578000CF92DF92EF92FF920F931F93CF93DF930D
:1057900086E892E00F940B24E3E6F2E060817181E9
:1057A0008281938160931502709316028093170291
:1057B0009093180220E030E040E752E40F940F2F5E
:1057C0004B015C01C8ECDFE0288139814A815B81B3
:1057D000E4ECFFE06081718182819381B3E82B2E3C
:1057E000BFE03B2E3F922F9210EDC12E1FE0D12E35
:1057F000E12CF12C00E211EC0E9452E90F94EC0C28
:1058000082E00F94550D4B015C01288139814A815A
:105810005B81E4ECFFE0608171818281938185018D
:1058200074010E94C9F384EC9EE0E1DE20E030E0E8
:1058300040E05FE30F94DD319B01AC01C501B40191
:105840000F942F2E2B013C0120E030E040EC5FE371
:1058500060911502709116028091170290911802C2
:105860000F94DD3120E030E040E752E40F940F2F39
:105870004B015C01288139814A815B81E4ECFFE0C6
:1058800060817181828193813F922F9283017201A5
:105890000E9452E90F94EC0C20E030E040E85EE317
:1058A000E3E6F2E060817181828193810F94DD31C2
:1058B0004B015C01609315027093160280931702EE
:1058C0009093180284EC9EE092DE6B017C0120E054
:1058D00030E040EC5FE3C501B4010F94DD3120E01E
:1058E00030E040E752E40F940F2F4B015C01A70119
:1058F0009601C701B6010F942F2E9B01AC01C30185
:10590000B2010F942E2E7B018C01288139814A81AE
:105910005B81E4ECFFE060817181828193813F9241
:105920002F92F0EDCF2EFFE0DF2E0E9452E90F9470
:10593000EC0C82E00F94550D7B018C016093CC0F31
:105940007093CD0F8093CE0F9093CF0F2881398124
:105950004A815B81E4ECFFE0608171818281938107
:105960000E94C9F30F900F900F900F900F900F901F
:10597000DF91CF911F910F91FF90EF90DF90CF902B
:10598000BF90AF909F908F907F906F905F904F905F
:105990003F902F90089584ED9EE029DE2091A80F7E
:1059A0003091A90F4091AA0F5091AB0F0D942F2E5B
:1059B0004F925F926F927F928F929F92AF92BF921F
:1059C000CF92DF92EF92FF920F931F93CF93DF93CB
:1059D00000D01F92CDB7DEB72B013C0149015A011F
:1059E0002091C80F3091C90F4091CA0F5091CB0F31
:1059F0006091C40F7091C50F8091C60F9091C70F31
:105A0000FCDD8091830FC090CC0FD090CD0FE09043
:105A1000CE0FF090CF0F20E030E040EC51E4811148
:105A200011C0C501B4010F942E2E69837A838B8334
:105A30009C8320E030E048E851E4C301B2010F94B8
:105A40002E2E10C0C501B4010F942E2E69837A83C7
:105A50008B839C8320E030E048E551E4C301B20130
:105A60000F942F2E8701760129813A814B815C8129
:105A7000C4DD7CDEC090CC0FD090CD0FE090CE0F77
:105A8000F090CF0FE7EEF7E064918F01662361F0AD
:105A9000772767FD70958FED9BE10E94EC0F0F5FFC
:105AA0001F4FF8016491F2CFE2EEF7E064918F01AD
:105AB000662361F0772767FD70958FED9BE10E946B
:105AC000EC0F0F5F1F4FF8016491F2CF22E030E03E
:105AD000B301A2018FED9BE10F94892DEDEDF7E06D
