:100000000C9489140C94BA140C94BA140C94BA1469
:100010000C94BA140C94BA140C94BA140C94BA1428
:100020000C94BA140C94BA140C94BA140C94BA1418
:100030000C94BA140C94BA140C94BA140C94BA1408
:100040000C94BA140D942E6A0C94BA140C94BA142D
:100050000C94BA140C94BA140D94BD870D94828E2E
:100060000C94BA140D94B2920D94E8920C94BA14B4
:100070000C94BA140C94BA140C94BA140C94BA14C8
:100080000C94BA140C94BA140C94BA140C94BA14B8
:100090000C94BA140C94BA140C94BA140C947D15E4
:1000A0000C94BA140C94BA140C94BA140C94BA1498
:1000B0000C94BA140C94BA140C94BA140C94BA1488
:1000C0000C94BA140C94BA140C94BA140D945D9355
:1000D0000D9493930C94BA140C94BA140C94BA140F
:1000E0000C94BA141501DD003901F300430101013C
:1000F0004F013501470103012B012F01FD000901CB
:1001000017014101E700F100F9002501EF003F016F
:100110004901F7001901E700DB00EB001F01DF00D8
:10012000F500E5001B011101E100FF0037014B0163
:100130002D010D0105010B01E300E10045010F0157
:100140004D01084AD73B3BCE016E84BCBFFDC12F99
:100150003D6C74319ABD56833DDA3D00C77F11BEB8
:10016000D9E4BB4C3E916BAAAABE000000803F07B9
:10017000634236B79BD8A71A39685618AEBAAB5542
:100180008C1D3CB7CC5763BD6DEDFD753EF6177207
:1001900031BF000000803F05A84CCDB2D44EB93825
:1001A00036A9020C50B9918688083CA6AAAA2ABE94
:1001B000000000803F000D9431900D9452880D9402
:1001C00071900D94AB900D9498900D9463900D9454
:1001D0004F900D945B910D943B900D94C5930D94AD
:1001E000FA8F0D94E08F0D947B880D9474900D948C
:1001F0001D900D94E88F0D9415940D94BD8F0D9462
:1002000078900D94A2880D94C2880D9490900D94CE
:100210001A930D94C28F0D9494900D948A900D941E
:10022000A2900D946D900D946F910D9445880D944E
:10023000CC8F0D9427900D9467900D9442910D945E
:1002400045900D944D910D94382D0D94F08F0D9493
:10025000502D0D9411930D94CA880D9486900D9491
:10026000B88F0D94DC640D94CB910D94BE880D94E1
:100270007C900D946E880D94BC930D94EC910D942C
:1002800004900D94D68F0D9495880D949E900D94A6
:10029000C0880D940E900D9482900D94A6900D94AC
:1002A000BC884D383420582059205A2045004D3103
:1002B0003037005430004D3130370043616E6E6F7F
:1002C0007420656E746572207375626469723A2079
:1002D000005341564544205052494E54004D32344B
:1002E000004D3233202573006175746F25692E67C8
:1002F000006572726F722077726974696E6720741C
:100300006F2066696C65004E6F74205344207072D4
:10031000696E74696E67002F005344207072696EB5
:1003200074696E67206279746520002E0044656CE4
:100330006574696F6E206661696C65642C2046691E
:100340006C653A200046696C652064656C6574656F
:10035000643A002E006F70656E206661696C65649A
:100360002C2046696C653A200057726974696E6783
:1003700020746F2066696C653A20002E006F7065EE
:100380006E206661696C65642C2046696C653A2054
:10039000002E006F70656E206661696C65642C20AC
:1003A00046696C653A200046696C652073656C652A
:1003B00063746564002053697A653A200046696C6D
:1003C00065206F70656E65643A20002E006F706561
:1003D0006E206661696C65642C2046696C653A2004
:1003E000004E6F772066726573682066696C653AA7
:1003F00020004E6F7720646F696E672066696C65B8
:100400003A20002220706F73002220706172656EA6
:10041000743A2200535542524F5554494E45204399
:10042000414C4C207461726765743A220074727991
:10043000696E6720746F2063616C6C207375622D28
:1004400067636F64652066696C657320776974689B
:1004500020746F6F206D616E79206C6576656C73AA
:100460002E204D4158206C6576656C2069733A00EA
:1004700053442063617264206F6B006F70656E522D
:100480006F6F74206661696C656400766F6C756D62
:10049000652E696E6974206661696C6564005344F9
:1004A00020696E6974206661696C006563686F3AE3
:1004B000004572726F723A005355434345535300DF
:1004C00056616C756573206F7574206F662072615C
:1004D0006E67650056616C756573206F7574206F6B
:1004E000662072616E67650056616C756573206F7A
:1004F0007574206F662072616E67650056616C7559
:100500006573206F7574206F662072616E67650079
:10051000535543434553530056616C756573206FC3
:100520007574206F662072616E67650056616C7528
:100530006573206F7574206F662072616E67650049
:1005400056616C756573206F7574206F66207261DB
:100550006E67650056616C756573206F7574206FEA
:10056000662072616E676500535441544953544983
:1005700043532052455345540048617264636F648D
:1005800065642043616C696220616E642050494457
:100590002044656661756C742053657474696E6778
:1005A00073204C6F616465640048617264636F64BA
:1005B00065642044656661756C7420536574746964
:1005C0006E6773204C6F616465640053746F72656D
:1005D000642073657474696E6773207265747269E0
:1005E00065766564002C2073617665645F66656579
:1005F00064726174653A20002C2073617665645FD3
:1006000066616E6C617965723A20002C20736176A8
:1006100065645F74656D706265643A20002C2073B8
:10062000617665645F74656D70303A20002C2073CC
:10063000617665645F74656D70313A20002C2073BB
:10064000617665645F66696C65706F736974696F04
:100650006E3A20002C2073617665645F655F706F71
:10066000736974696F6E3A20002C2073617665643B
:100670005F746F6F6C5F6163746976653A20002CFC
:100680002073617665645F7A5F706F736974696FF8
:100690006E3A20002C2073617665645F795F706F1D
:1006A000736974696F6E3A20002C207361766564FB
:1006B0005F785F706F736974696F6E3A20005341A1
:1006C0005645205052494E54204C4F473A00204D39
:1006D000696E75746573203A00204C6173742070E4
:1006E00072696E742074696D652D3E20486F757255
:1006F00073203A004C617374207072696E742064C8
:1007000075726174696F6E002C2054686972642080
:100710004944206E756D62657220002C205365631C
:100720006F6E64204944206E756D6265723A2000D8
:10073000204669727374204944206E756D6265723B
:100740003A2000554920496E666F726D6174696F79
:100750006E2053657269616C204E756D6265723AE8
:1007600000206D2C204531207072696E7420646900
:100770007374616E63653A2000206B6D2C204530E8
:10078000207072696E742064697374616E63653A77
:100790002000206B6D2C2059207072696E742064CB
:1007A000697374616E63653A2000206B6D2C20586C
:1007B00031207072696E742064697374616E636550
:1007C0003A200020432C0A205830207072696E7441
:1007D0002064697374616E63653A200020432C20A5
:1007E0006D61782074656D7020423A200020432CA2
:1007F000206D61782074656D7020523A20002C20A5
:100800006D61782074656D70204C3A2000682C2052
:100810007072696E74732066696E69736865643A94
:1008200020002C207072696E74696E672074696D87
:10083000653A2000207072696E74733A2000535438
:100840004154533A0020432C20525F5052494E5499
:100850003A200020432C20525F4245443A20002099
:10086000432C20525F52454D4F56453A20002052AE
:100870005F494E534552543A200054656D7020280C
:1008800043293A0020432C204C5F5052494E543AA1
:10089000200020432C204C5F4245443A2000204356
:1008A0002C204C5F52454D4F56453A2000204C5F5E
:1008B000494E534552543A200054656D70202843E8
:1008C000293A002042656420726967687420736366
:1008D000726577200020426564206C656674207321
:1008E000637265772000426564204F6666736574A5
:1008F0007320286D6D293A00205A2070726F62654E
:1009000000205A200020592000205820004F666601
:100910007365747320286D6D293A002044002049C6
:1009200000202D204D33303120524947485420506B
:1009300000204400204900204D333031204C4546F2
:10094000542050005049442073657474696E677375
:100950003A00205A0020590020204D3230362058CD
:1009600000486F6D65206F666673657420286D6D35
:10097000293A00204500205A00205800204200203B
:10098000540020204D323035205300416476616E92
:10099000636564207661726961626C65733A2053A5
:1009A0003D4D696E20666565647261746520286DD1
:1009B0006D2F73292C20543D4D696E207472617621
:1009C000656C20666565647261746520286D6D2FA5
:1009D00073292C20423D6D696E696D756D207365BC
:1009E000676D656E742074696D6520286D73292CA0
:1009F00020583D6D6178696D756D205859206A6584
:100A0000726B20286D6D2F73292C20205A3D6D614B
:100A100078696D756D205A206A65726B20286D6D3E
:100A20002F73292C2020453D6D6178696D756D20EF
:100A300045206A65726B20286D6D2F732900205444
:100A40000020204D323034205300416363656C65D3
:100A5000726174696F6E3A20533D616363656C65C2
:100A6000726174696F6E2C20543D7265747261639B
:100A70007420616363656C65726174696F6E0020D8
:100A80004500205A0020590020204D323031205896
:100A9000004D6178696D756D20416363656C6572A9
:100AA0006174696F6E20286D6D2F7332293A0020B2
:100AB0004500205A0020590020204D323033205864
:100AC000004D6178696D756D20666565647261744D
:100AD000657320286D6D2F73293A00204500205A38
:100AE0000020590020204D39322058005374657081
:100AF000732070657220756E69743A005365747462
:100B0000696E67732053746F726564006563686F04
:100B10003A00204500205A00205900483D58005016
:100B200072696E7465722068616C7465642E206BE6
:100B3000696C6C28292063616C6C656421006F6BA3
:100B400000526573656E643A2000486F74656E6488
:100B5000206F6666736574733A005A204F66667339
:100B60006574203A20007A5F6D61783A20007A5FE0
:100B70006D696E3A20005A204F6666736574005A9C
:100B8000204F6666736574206F6B004E6F74207023
:100B900072696E74207265636F7665727920757004
:100BA000005072696E74207265636F766572792089
:100BB000757000486F74656E64206F666673657447
:100BC000733A007A5F6D696E3A2000795F6D6178E3
:100BD0003A2000785F6D61783A2000785F6D696E29
:100BE0003A2000205A3A0020593A0020436F756E8F
:100BF0007420583A200020453A00205A3A002059E3
:100C00003A00583A004649524D574152455F4E41CD
:100C10004D453A4D61726C696E2056313B205370E0
:100C200072696E7465722F6772626C206D61736891
:100C3000757020666F722067656E36204649524D8A
:100C4000574152455F55524C3A68747470733A2F4D
:100C50002F6769746875622E636F6D2F4572696BBB
:100C60005A616C6D2F4D61726C696E2F2050524F1E
:100C7000544F434F4C5F56455253494F4E3A312ED5
:100C800030204D414348494E455F545950453A4DF7
:100C9000656E64656C2045585452554445525F4317
:100CA0004F554E543A3220555549443A3030303041
:100CB000303030302D303030302D303030302D303D
:100CC0003030302D30303030303030303030303027
:100CD0000A0020423A0020453A00543A0020573A90
:100CE0000020453A00543A002042403A0020403A61
:100CF00000202F003A00205400202F0020423A000C
:100D0000202F006F6B20543A000A0A005374616E62
:100D10006461726420446576696174696F6E3A201B
:100D2000000A004D65616E3A20000A002020207AFA
:100D30003A200000793A2000783A20003F5370654D
:100D4000636966696564206E756D626572206F66A1
:100D5000206C65677320696E206D6F76656D656EBA
:100D600074206E6F7420706C61757361626C652E97
:100D70000A003F5370656369666965642059207095
:100D80006F736974696F6E206F7574206F6620725F
:100D9000616E67652E0A003F537065636966696519
:100DA00064205820706F736974696F6E206F75745A
:100DB000206F662072616E67652E0A003F53706572
:100DC0006369666965642073616D706C6520736921
:100DD0007A65206E6F7420706C61757361626C65EA
:100DE0002E0A0046756C6C20737570706F727420DB
:100DF00061743A20687474703A2F2F33647072698A
:100E00006E74626F6172642E636F6D2F666F7275A0
:100E10006D2E7068700A004D3438205A2D50726F54
:100E20006265205265706561746162696C6974798C
:100E300020746573742E20202056657273696F6E5E
:100E400020322E30300A003F566572626F73652083
:100E50004C6576656C206E6F7420706C6175736183
:100E6000626C652E0A002569206D696E2C2025694B
:100E700020736563004732382058302059300045D0
:100E80006E642066696C65206C69737400426567E6
:100E9000696E2066696C65206C697374000A0020B5
:100EA0005A3A200020593A200020583A2000426542
:100EB00064000A0020616E7469686F726172690A69
:100EC0003A200020686F726172690A20002F380092
:100ED000766F6C746573200020566F6C7465732098
:100EE000636172676F6C20333A200020616E746911
:100EF000686F726172690A3A200020686F726172CD
:100F0000690A20002F3800766F6C7465732000200A
:100F1000566F6C74657320636172676F6C20323A30
:100F200020000A0020647A333A200020647A323AA2
:100F30002000543000486F6D6520582F592062659D
:100F4000666F7265205A000A00207A3A20002079E4
:100F50003A200020783A200042656400486F6D65B1
:100F600020582F59206265666F7265205A004578B7
:100F7000747275646572206163746976653A2000E5
:100F80002200556E6B6E6F776E20636F6D6D616EB4
:100F9000643A202200256920686F757273202569E4
:100FA000206D696E7574657300446F6E6520707294
:100FB000696E74696E672066696C65004D33330035
:100FC0007061757365206465746563746564200A77
:100FD00000473639005072696E7465722073746F01
:100FE000707065642064756520746F206572726F1F
:100FF00072732E2046697820746865206572726F5E
:101000007220616E6420757365204D393939207402
:101010006F20726573746172742E202854656D7030
:101020006572617475726520697320726573657489
:101030002E20536574206974206166746572207275
:10104000657374617274696E6729006F6B004E6F0F
:10105000204C696E65204E756D62657220776974EB
:101060006820636865636B73756D2C204C617374C5
:10107000204C696E653A20004E6F20436865636BB3
:1010800073756D2077697468206C696E65206E7564
:101090006D6265722C204C617374204C696E653AE8
:1010A0002000636865636B73756D206D69736D6196
:1010B0007463682C204C617374204C696E653A200F
:1010C000004C696E65204E756D62657220697320F3
:1010D0006E6F74204C617374204C696E65204E7580
:1010E0006D6265722B312C204C617374204C696EDB
:1010F000653A20004D313130004D383420582059A8
:10110000205A20450053757266696E672030200AA8
:101110000043616C6962726174696F6E205375631C
:101120006365737366756C2C20676F696E672062E8
:1011300061636B20746F206D61696E206D656E75E3
:10114000200A005430002564206974656D73002501
:1011500064206974656D73002564206974656D731E
:10116000002534643A252E326468202F20256467D8
:10117000002564206974656D73005265616479208F
:10118000746F20496E736572742F52656D6F76654A
:10119000200A0074656D70206F6B200A002564259D
:1011A000250025336420256343002533642025630F
:1011B0004300253364256343202F202533642563B2
:1011C0004300253364256343202F202533642563A2
:1011D0004300253364256343202F20253364256392
:1011E0004300252033642025250025642068202520
:1011F00064206D00252033642025250025326420DD
:101200002563430025336420256343002533642090
:1012100025634300526561647920746F20496E73C1
:101220006572742F52656D6F7665200A0074656D66
:1012300070206F6B200A002533642025634300254E
:10124000336420256343002053544F5020505249AB
:101250004E54200A00473238205830205930004D73
:10126000333500526573756D65206465746563740C
:101270006564200A0047373000EFBFBD5245535523
:101280004D4521200A00EFBFBD5041555345212057
:101290000A00253364202563430025336420256339
:1012A00043002533642025634300253364202563F0
:1012B00043002533642025634300253364202563E0
:1012C00043002533642025634300253364202563D0
:1012D000430025336420256343005052494E542077
:1012E00053455454494E4753200A00446F6E6520BD
:1012F000736176696E672066696C652E006F6B009E
:101300004D32390067636F646520666F756E6400E7
:1013100073746172740030312D312E322E320022FE
:1013200000656E717565696E672022002200656E2A
:10133000717565696E67202200253364202563433B
:10134000002533642025634300456E74657220696F
:101350006E207075726765206D6F6465200A00539A
:10136000757266696E672031200A0053757266696E
:101370006E672030200A0047333400494E464F3A0A
:10138000204245442043414C4942202D20005375C2
:101390007266696E672030200A0047323820583064
:1013A0002059300054300053757266696E672030E2
:1013B000200A0047343300473433004D38340047A7
:1013C0003431004D3834004734300054310054304B
:1013D0000054300054310054310054300054300077
:1013E00054310047343300473433004D383400471C
:1013F0003431004D383400473430004D3834004D1E
:101400003834004D3834005A32204F6666736574A4
:101410003A20004F4B207365636F6E6420457874EB
:10142000727564657221005A20706F736974696FF8
:101430006E3A20005A20706F736974696F6E3A209B
:10144000004D3834005A312050726F6265206F664B
:10145000667365743A20004F4B206669727374207E
:10146000457874727564657221200A005A20706F85
:10147000736974696F6E3A20005A20706F736974D3
:10148000696F6E3A200043616C63756C75733A2026
:10149000200043616C63756C75733A2020004361D2
:1014A0006C63756C75733A20200043616C63756CD6
:1014B00075733A20200043616C63756C75733A2034
:1014C000200043616C63756C75733A2020004361A2
:1014D0006C63756C75733A20200043616C63756CA6
:1014E00075733A20200043616C63756C75733A2004
:1014F000200043616C63756C75733A202000436172
:101500006C63756C75733A20200043616C63756C75
:1015100075733A20200043616C63756C75733A20D3
:10152000200043616C63756C75733A202000436141
:101530006C63756C75733A20200043616C63756C45
:1015400075733A20200043616C63756C75733A20A3
:10155000200043616C63756C75733A202000436111
:101560006C63756C75733A20200043616C63756C15
:1015700075733A20200043616C63756C75733A2073
:10158000200043616C63756C75733A2020004361E1
:101590006C63756C75733A20200043616C63756CE5
:1015A00075733A20200043616C63756C75733A2043
:1015B000200043616C63756C75733A2020004361B1
:1015C0006C63756C75733A20200043616C63756CB5
:1015D00075733A20200043616C63756C75733A2013
:1015E000200043616C63756C75733A202000436181
:1015F0006C63756C75733A20200043616C63756C85
:1016000075733A20200043616C63756C75733A20E2
:10161000200043616C63756C75733A202000466945
:101620006C616D656E742052656D6F7665642C20FB
:10163000474F494E4720544F20434C45414E20547C
:101640004845204E4F5A5A4C45200A0046696C6165
:101650006D656E7420496E7365727465642F526592
:101660006D6F7665642C2072657475726E696E6735
:1016700020746F204D61696E204D656E75200A00E3
:1016800054300046696C616D656E7420496E7365F7
:10169000727465642F52656D6F7665642C20676F78
:1016A000696E6720746F2043616C6962200A005480
:1016B000300046696C616D656E7420496E736572A9
:1016C0007465642F52656D6F7665642C20676F6951
:1016D0006E6720746F20746865206E65787420656D
:1016E00078747275646572200A0054300043616C2E
:1016F0006962726174696F6E205375636365737399
:1017000066756C2C20676F696E67206261636B2061
:10171000746F206D61696E206D656E75200A0054CE
:1017200030004A756D70206F766572207363726544
:10173000773120616E6420736372657732200A000E
:101740004A756D70206F76657220736372657731AC
:10175000200A0047333400543000473334005430FB
:1017600000473334005430005430004733340049CC
:101770004E464F3A204245442043414C4942202D99
:10178000200036302064656772656573200A004961
:101790006E73657274696E67203A2020200A0053C8
:1017A000757266696E672030200A0053757266692B
:1017B0006E672030200A0053757266696E672030AC
:1017C000200A002533642025634300253364202547
:1017D0006343002533642025634300456E746572BE
:1017E00020696E207075726765206D6F6465200AD0
:1017F000002533642025634300253364202563439B
:10180000002533642025634300253364202563438A
:10181000002533642025634300253364202563437A
:10182000002533642025634300253364202563436A
:101830000046696C616D656E742052656D6F7665EA
:10184000642C20474F494E4720544F20434C45417C
:101850004E20544845204E4F5A5A4C45200A0053BA
:10186000757266696E672030200A0053757266696A
:101870006E672030200A0054300054652070696C77
:101880006C65004D33340053757266696E672030A5
:10189000200A004D3234004D323320257300537539
:1018A0007266696E672030200A002534643A252E5E
:1018B000326468202F2025646700002534643A25AF
:1018C0002E326468202F2025646700002534643A96
:1018D000252E326468202F2025646700002534649B
:1018E0003A252E326468202F2025646700002534B5
:1018F000643A252E326468202F2025646700005347
:10190000757266696E672030200A0053554343455F
:101910005353200A00253364202563430025336494
:101920002025634300253364202563430025336469
:101930002025634300253364202563430025336459
:101940002025634300253364202563430025336449
:1019500020256343002533642025634300496E73CB
:10196000657274696E67203A2020200A002533646E
:101970002025634300253364202563430025336419
:101980002025634300456E74657220696E20707572
:10199000726765206D6F6465200A00FF01FF00001B
:1019A000A0400000A04000000040CDCC9843008043
:1019B0009343000052430000000000809343000066
:1019C0000000CDCC984300809343000052430000B8
:1019D000000000000000000000006563686F3A002E
:1019E0004572726F723A0020636F6C642065787480
:1019F000727573696F6E2070726576656E7465645A
:101A0000006563686F3A003B202020506C6173745E
:101A10006963207765696768743A2025642E2564B8
:101A200067003B46696C616D656E74207573656413
:101A30003A2025642E25646D2025642E25646700D8
:101A40003B2020204275696C642074696D653A20E2
:101A5000256420686F7572202564206D696E757429
:101A600065003B2020204275696C642074696D65B7
:101A70003A20256420686F7572202564206D696E98
:101A800075746573003B2020204275696C64207476
:101A9000696D653A20256420686F7572732025642E
:101AA000206D696E757465003B2020204275696C5D
:101AB000642074696D653A20256420686F757273BF
:101AC000202564206D696E75746573003B507269E2
:101AD0006E742074696D653A202564206D696E7599
:101AE000746573003B5072696E742074696D653A59
:101AF00020256420686F7572202564206D696E75DD
:101B0000746573003B5072696E742074696D653A38
:101B100020256420686F757273202564206D696EBE
:101B200075746573003B5072696E742074696D65DD
:101B30003A202564206461797320256420686F75DC
:101B400072202564206D696E75746573003B507258
:101B5000696E742074696D653A202564206461792A
:101B600020256420686F7572202564206D696E756C
:101B7000746573003B5072696E742074696D653AC8
:101B80002025642064617920256420686F75727354
:101B9000202564206D696E75746573003B50726911
:101BA0006E742074696D653A2025642064617973D0
:101BB00020256420686F757273202564206D696E1E
:101BC00075746573003B20472D436F64652067651E
:101BD0006E6572617465642062792053696D706C02
:101BE00069667933442852292056657273696F6E8D
:101BF000202564007C3C3E5E2B3D3F2F5B5D3B2CF3
:101C00002A225C00205A3A0020593A0020583A0013
:101C1000656E6473746F7073206869743A20002471
:101C2000F4D43050C38E20C2A24017828B701112A0
:101C30007A910D816CD90AA861E108C758660761DD
:101C40005143061E4B5D05C145A7041A4111040905
:101C50003D9803713931034036DB0265339102D47C
:101C6000305402802E1D02632CEE01752AC501B08E
:101C700028A001102781018F2564012B244B01E04E
:101C8000223401AC211F018D200D01801FFC008436
:101C90001EED00971DDF00B81CD200E61BC6002019
:101CA0001BBC00641AB200B219A8000A19A0006A8D
:101CB000189900D117910040178B00B51684003198
:101CC000167E00B31579003A157300C7146F0058DB
:101CD000146A00EE1366008813630025135E00C7C4
:101CE000125B006C12570015125400C111510070A4
:101CF000114F0021114B00D61049008D10470046AE
:101D000010440002104200C00F4000800F3E00420D
:101D10000F3C00060F3B00CB0E3800930E37005CE3
:101D20000E3500270E3400F30D3200C10D31009046
:101D30000D3000600D2E00320D2D00050D2C00D948
:101D40000C2B00AE0C2900850C29005C0C270035FB
:101D50000C27000E0C2600E80B2400C40B2400A066
:101D60000B23007D0B23005A0B2100390B21001897
:101D70000B2000F80A1F00D90A1E00BB0A1E009D96
:101D80000A1D00800A1D00630A1C00470A1B002C64
:101D90000A1B00110A1A00F7091A00DD091900C40C
:101DA000091900AB091900920917007B0918006393
:101DB0000917004C09160036091600200916000AFA
:101DC000091500F5081500E0081400CC081400B847
:101DD000081400A4081400900813007D0812006B7A
:101DE0000813005808120046081200340811002396
:101DF0000811001208110001081100F0071000E09E
:101E0000071000D0071000C0071000B0070F00A196
:101E100007100091070E0083070F0074070F00657D
:101E2000070E0057070E0049070E003B070D002E56
:101E3000070E0020070D0013070D0006070D00F91F
:101E4000060C00ED060D00E0060C00D4060C00C8E0
:101E5000060C00BC060C00B0060C00A4060B009992
:101E6000060C008D060B0082060B0077060B006C3B
:101E7000060B0061060A0057060B004C060A0042DA
:101E8000060A0038060A002E060A0024060A001A6E
:101E9000060A001006090007060A00FD050900F4FD
:101EA000050900EB050900E2050900D9050900D084
:101EB000050900C7050900BE050900B5050800AD04
:101EC000050800A50509009C050800940508008C7C
:101ED000050800840508007C050800740508006CEE
:101EE000050700650508005D050700560508004E5A
:101EF00005070047050700400508003805070031C1
:101F00000507002A050700230507001C0506001623
:101F10000507000F0507000805060002050700FB7E
:101F2000040600F5040700EE040600E8040600E2DB
:101F3000040700DB040600D5040600CF040600C930
:101F4000040600C3040600BD040600B7040600B181
:101F5000040500AC040600A6040600A00405009BCE
:101F600004060095040500900406008A0405008517
:101F7000040500800406007A04050075040500705D
:101F80000405006B04050066040500610405005C9F
:101F900004050057040500520405004D04050048DF
:101FA000040500430405003E0404003A040500351E
:101FB000040500300404002C040500270404002359
:101FC0000405001E0404001A040400160405001190
:101FD0000404000D040400090405000404040000C6
:101FE000040400FC030400F8030400F4030400F0FC
:101FF000030400EC030400E8030400E4030400E02D
:10200000030400DC030400D8030400D4030400D05C
:10201000030400CC030400C8030300C50303002429
:10202000F404D9201BC40C5C0E9804C4095F02653B
:10203000077101F405F900FB04B30048048700C1EF
:102040000369005803550003034500BE023A0084AB
:1020500002310053022A002902250004022000E474
:10206000011C00C8011900AF011700980114008479
:10207000011300710110006101100051010E0043B5
:10208000010D0036010B002B010B0020010B001588
:102090000109000C01090003010800FB000800F31E
:1020A000000800EB000700E4000600DE000600D890
:1020B000000600D2000600CC000500C7000500C2E3
:1020C000000500BD000400B9000400B5000400B123
:1020D000000400AD000400A9000400A5000300A254
:1020E0000003009F0004009B00030098000300957C
:1020F00000020093000300900003008D0002008B9B
:1021000000030088000200860002008400030081B2
:102110000002007F0002007D0002007B00020079C7
:1021200000020077000100760002007400020072D5
:10213000000100710002006F0002006D0001006CE0
:102140000002006A000100690002006700010066E9
:1021500000010065000100640002006200010061EE
:10216000000100600001005F0002005D0001005CF2
:102170000001005B0001005A0001005900010058F5
:1021800000010057000100560001005500010054F5
:1021900000010053000000530001005200010051F3
:1021A000000100500001004F0001004E0000004EF1
:1021B0000001004D0001004C0001004B0000004BED
:1021C0000001004A000100490001004800000048E9
:1021D00000010047000100460000004600010045E4
:1021E00000000045000100440001004300000043DE
:1021F00000010042000000420001004100000041D7
:10220000000100400001003F0000003F0001003ECF
:102210000000003E0001003D0000003D0001003CC8
:102220000000003C0000003C0001003B0000003BBF
:102230000001003A0000003A0001003900000039B6
:1022400000010038000000380000003800010037AD
:1022500000000037000100360000003600000036A4
:102260000001003500000035000000350001003499
:10227000000000340000003400010033000000338F
:102280000000003300010032000000320000003284
:102290000001003100000031000000310001003079
:1022A00000000030000000300001002F0000002F6F
:1022B0000000002F0000002F0001002E0000002E63
:1022C0000000002E0001002D0000002D0000002D58
:1022D0000000002D0001002C0000002C0000002C4C
:1022E0000000002C0001002B0000002B0000002B40
:1022F0000000002B0001002A0000002A0000002A34
:102300000000002A00010029000000290000002927
:10231000000000290000002900010028000000281A
:10232000000000280000002800000028000100270D
:102330000000002700000027000000270000002701
:1023400000010026000000260000002600000026F4
:1023500000000026000100250000002500000025E7
:1023600000000025000000250000002500010024D9
:1023700000000024000000240000002400000024CD
:1023800000010023000000230000002300000023C0
:1023900000000023000000230000002300010022B1
:1023A00000000022000000220000002200000022A5
:1023B0000000002200010021000000210000002197
:1023C0000000002100000021000000210000002189
:1023D000000100200000002000000020000000207C
:1023E000000000200000002000000020000000206D
:1023F0000001001F0000001F0000001F0000001F60
:102400000000001F0000001F0000001F0001001E50
:102410000000001E0000001E0000001E00000065FD
:1024200063686F3A00546865726D616C2052756E16
:10243000617761792C2073797374656D2073746F83
:102440007070656421204865617465725F49443A23
:1024500020002053544F50205052494E54200A001F
:102460002053544F50205052494E54200A002053BC
:10247000544F50205052494E54200A004572726FFA
:1024800072283833293A2042656420746865726D79
:102490006973746F72206E6F742064657465637401
:1024A0006564004572726F72283832293A20526989
:1024B00067687420746865726D6973746F72206EDA
:1024C0006F74206465746563746564004572726F2F
:1024D00072283831293A204C656674207468657218
:1024E0006D6973746F72206E6F74202064657465FB
:1024F0006374656400504944204175746F74756E4F
:10250000652066696E6973686564210050494420DE
:102510004175746F74756E65206661696C656421C0
:102520002074696D656F75740020403A006F6B20F0
:10253000543A006F6B20423A005049442041757470
:102540006F74756E65206661696C656421205465E1
:102550006D706572617475726520746F6F20686943
:10256000676800204B643A2000204B693A20002025
:102570004B703A200020436C6173736963205049AB
:102580004420002054753A2000204B753A2000204A
:102590006D61783A2000206D696E3A200020643A1F
:1025A000200020626961733A20005049442041753F
:1025B000746F74756E652066696E697368656421F1
:1025C0002050757420746865206C617374204B70A2
:1025D0002C204B6920616E64204B6420636F6E7306
:1025E00074616E74732066726F6D2061626F7665C0
:1025F00020696E746F20436F6E66696775726174CF
:10260000696F6E2E6800504944204175746F74756F
:102610006E65206661696C6564212074696D656F03
:1026200075740020403A006F6B20543A006F6B20A5
:10263000423A00504944204175746F74756E6520AC
:102640006661696C6564212054656D7065726174A2
:1026500075726520746F6F206869676800204B642D
:102660003A2000204B693A2000204B703A2000208D
:10267000436C617373696320504944200020547592
:102680003A2000204B753A2000206D61783A2000F6
:10269000206D696E3A200020643A20002062696152
:1026A000733A20004572726F723A0070012C0190EB
:1026B000012701B0012201C0011D01F00118011024
:1026C00002130130020E016002090190020401C0F0
:1026D00002FF000003FA004003F5008003F000D081
:1026E00003EB002004E6007004E100E004DC00409D
:1026F00005D700C005D2004006CD00D006C8008036
:1027000007C3003008BE00F008B900C009B400B02B
:102710000AAF00B00BAA00D00CA500000EA000501C
:102720000F9B00C01096005012910000148C00C046
:10273000158700B0178200B0197D00D01B7800000B
:102740001E730040206E0090226900F02464004057
:10275000275F0090295A00E02B5500102E500020D2
:10276000304B0010324600E033410090353C001001
:1027700037370070383200A0392D00B03A2800A059
:102780003B2300603C1E00103D1900903D140010DA
:102790003E0F00703E0A00C03E0500003F000000F2
:1027A000000A0B02090C0D0E0807030401000000CB
:1027B0000000000000000000000000000000000019
:1027C00000000000000000000000001211100000D6
:1027D00000000000000000000000000000000000F9
:1027E0000000000000010210202008081020401006
:1027F00020408002010201080402010102040810C5
:1028000020408080402010080402018004020180E2
:10281000402010080402010804020101020408100B
:1028200020408001020408102040800505050507AE
:102830000508080808020202020A0A08080404043B
:102840000401010101010101010303030303030367
:1028500003040707070C0C0C0C0C0C0C0C020202F6
:102860000206060606060606060B0B0B0B0B0B0BE9
:102870000B000020002300260029002C002F00322E
:1028800000000100000301060109010000220025EB
:102890000028002B002E003100340002010000054A
:1028A0000108010B0100002100240027002A002D4F
:1028B000003000330001010000040107010A014E4D
:1028C000414E494E495459494E46CDCCCC3D0AD78C
:1028D000233C17B7D13877CC2B329595E6241FB11E
:1028E0004F0A000020410000C84200401C4620BCA6
:1028F000BE4CCA1B0E5AAEC59D746364696E6F7080
:10290000737578585B005115743F23010701ED0082
:10291000270111241FBECFEFD1E2DEBFCDBF00E003
:102920000CBF19E0A0E0B2E0EEEFF2E503E00BBF70
:1029300002C007900D92AC3CB107D9F72CE1ACEC8A
:10294000B9E001C01D92AB36B207E1F719E2C0E170
:10295000D9E200E006C022970109FE010BBF0F94E7
:10296000BA9DC630D10780E00807A9F70F940994F3
:102970000D946DA90C9400008091FB0990E02091CA
:10298000FC09821B910908952091FC098091FB09A3
:10299000281750F4E22FF0E0E350F64F808190E0EA
:1029A0002F5F2093FC0908958FEF9FEF0895E0912A
:1029B000FC098091FB09E81730F4F0E0E350F64F92
:1029C000808190E008958FEF9FEF08950895CF9252
:1029D000DF92EF92FF920F931F93CF93DF937C01CF
:1029E000CB018A012091D809222389F0EB016B01E8
:1029F000C40ED51ECC15DD0561F06991D701ED91AE
:102A0000FC910190F081E02DC7011995F3CF642F5F
:102A10004BD0C801DF91CF911F910F91FF90EF90A4
:102A2000DF90CF900895CF93DF931F92CDB7DEB79D
:102A300069832091D8092223D1F02091D90920322D
:102A400040F021E030E0FC013383228380E090E01D
:102A500014C08091DA09E82FF0E0E552F64F998131
:102A600090838F5F8093DA098093D90904C061E075
:102A7000CE01019619D081E090E00F90DF91CF91C7
:102A80000895FC011382128248EE53E060E070E08A
:102A9000448355836683778382E593E091838083C3
:102AA00008958CEC99E0EDCF613298F420918A0A78
:102AB000243089F460933F0AFC0181E49AE0DC0150
:102AC0002A2F281B261718F421912D93F9CF80E087
:102AD000089581E0089582E0089585ED8093BC001B
:102AE0008091BC0084FDFCCF10928A0A089585EC89
:102AF0008093BC0010928A0A08951F920F920FB61D
:102B00000F9211240BB60F922F933F934F935F9325
:102B10006F937F938F939F93AF93BF93EF93FF93A5
:102B20008091B900887F803609F49DC070F58832A5
:102B300009F45CC090F4803109F455C038F488235E
:102B400009F4F3C0883009F44EC0F2C0883109F4AA
:102B50004DC0803209F45EC0EBC0803409F469C016
:102B600050F4803309F456C0883309F0E1C08093F3
:102B70001D0ABDDFDDC0803509F44FC0883509F47A
:102B80005DC0883409F0D4C0D2C0883909F4C3C00C
:102B9000A8F4883709F467C038F4883609F463C0AC
:102BA000803709F460C0C4C0883809F4B4C08039E3
:102BB00009F45FC0803809F0BBC05BC0803B09F4FA
:102BC00082C038F4803A09F466C0883A09F47BC0C0
:102BD000AFC0803C09F4A3C0883C09F4A0C0883B86
:102BE00009F486C0A5C08091890A10C09091620A3C
:102BF0008091610A981770F5E091620A81E08E0F6A
:102C00008093620AF0E0ED59F54F80818093BB001C
:102C100085EC82C080931D0A8AC0E091620A81E03F
:102C20008E0F8093620A8091BB00F0E0ED59F54F62
:102C300080839091620A8091610A6AC0E091620A81
:102C400081E08E0F8093620A8091BB00F0E0ED5925
:102C5000F54F80838091880A811169C081E080935B
:102C6000870A84EA5DC083E080938A0A10921E0A74
:102C7000CFCF80911E0A803208F04DC0E0911E0A2D
:102C800081E08E0F80931E0A8091BB00F0E0E15E30
:102C9000F54F8083BDCF2BDF80911E0A803230F448
:102CA000E0911E0AF0E0E15EF54F108260911E0A8D
:102CB00070E0E091830AF091840A8FE19AE019951F
:102CC00010921E0A35C084E080938A0A1092400A4E
:102CD00010923F0AE091850AF091860A1995809139
:102CE0003F0A811105C081E080933F0A1092410A9A
:102CF000E091400A81E08E0F8093400AF0E0EF5BA4
:102D0000F54F80818093BB009091400A80913F0AEB
:102D1000981708F47DCF85E88093BC0009C085EC46
:102D20008093BC0010928A0A03C010921D0AD5DE5F
:102D3000FF91EF91BF91AF919F918F917F916F9193
:102D40005F914F913F912F910F900BBE0F900FBE4F
:102D50000F901F901895FC01148217821382128223
:102D600083E998E0918380830895DC01ED91FC91E3
:102D70000190F081E02D199423E938E0FC013183C2
:102D800020832781222319F004960D945A60089518
:102D9000CF92DF92EF92FF920F931F93CF93DF9327
:102DA000EC01895A9F4FD7DFCE0188589F4FD3DF60
:102DB0007E0127E9E20EF11C87016E0133E3C31A9D
:102DC0003EEFD30AC801C7DF015E1F4F0C151D057A
:102DD000C9F7FE01E153FE4F89E1818314823596E4
:102DE000178ACE018E509E4FB6DFFE01ED55FD4F86
:102DF00010821182128213823896108211821282FE
:102E000013821A821B821C82188219826E0189E544
:102E1000C81A8DEFD80AF60110821182128213822D
:102E2000F80111821082FE01EF5EFD4F108286E3F1
:102E300091E0F7019C01119221503040E1F7FE0131
:102E4000E155FD4F81E08083CB5ADF4F1982188214
:102E50000F94CC8E68577C4E8F4F9F4FF601608346
:102E6000718382839383DF91CF911F910F91FF90A4
:102E7000EF90DF90CF900895FC0120E03EE2DB016F
:102E80004C91403241F0283011F430833196DB010F
:102E90004C91408331962F5F6F5F7F4F2B3079F7D6
:102EA000108208952F923F924F925F926F927F927D
:102EB0008F929F92AF92BF92CF92DF92EF92FF924A
:102EC0000F931F93CF93DF93CDB7DEB7C858D109C7
:102ED0000FB6F894DEBF0FBECDBF8C016B017A0137
:102EE000CA57DF4F1882C658D04084E0E80EF11C64
:102EF000180192E1290E311CF801EC5AFF4FC95715
:102F0000DF4FF983E883C758D0405801F0E5AF1A86
:102F1000FDEFBF0A38018EE4681A8DEF780A80E46D
:102F2000482E512C4C0E5D1E94E0490E511CA101FF
:102F3000BE016F5F7F4FC7010F94C45E18160CF07F
:102F400009C12C85322F3871303109F091C0F5015B
:102F5000808191810197029708F48AC0BE016F5F5A
:102F60007F4FCE0187589F4F87DFA0961FAEA09757
:102F7000F6018081811107C06EE573E0CE01815AB0
:102F80009F4F0F94E5A2B601CE01815A9F4F0F9437
:102F9000E5A2BE0167587F4FCE01815A9F4F0F9423
:102FA000E5A26EE573E0CE01815A9F4F0F94E5A232
:102FB000CE01805C9F4FCFDE21E0AE0147585F4FCE
:102FC000B701C2010F94516281112EC0F5018081B9
:102FD0009181892B49F5EBEAF4E064914F01662376
:102FE00061F0772767FD70958BE29BE1BEDEFFEF16
:102FF0008F1A9F0AF4016491F2CF60E673E08BE2CE
:103000009BE10F9453946AE070E08BE29BE1ADDEAC
:10301000BE0167587F4F8BE29BE10F9453946AE0A7
:1030200070E08BE29BE1A1DE8BE1FE01EC5BFF4FE8
:10303000DE01959601900D928A95E1F724968EAD6A
:103040009FAD24979CA38BA383E998E09AA389A3BF
:10305000AE014F5D5F4FBE01615A7F4FC80122DF55
:10306000CE01819689DECE01805C9F4F85DE5FCFE9
:103070008981882309F46EC0853E09F458CF8E32C9
:1030800009F455CF8F3509F452CFF801828988238E
:1030900031F08E3209F44BCF8F3509F448CF23FD40
:1030A00046CF81E0303109F080E0C957DF4FE88139
:1030B000F981C758D0408083811108C08985873441
:1030C00009F035CF8A858E3709F431CF4801F5E014
:1030D0008F0E911CBE016F5F7F4FC401CDDEF501E5
:1030E00080819181009781F4B6018BE29BE10F947E
:1030F0005394B4018BE29BE10F9453946AE070E027
:103100008BE29BE132DE13CF8130910539F4F3017C
:103110008081918101969183808309CF029709F084
:1031200006CFCA57DF4FF881C658D0402F2F30E066
:10313000F301808191812817390761F0CA57DF4F69
:10314000F881C658D040FF5FCA57DF4FF883C65892
:10315000D040EDCEC857DF4F0FB6F894DEBF0FBE9C
:10316000CDBFDF91CF911F910F91FF90EF90DF9036
:10317000CF90BF90AF909F908F907F906F905F9017
:103180004F903F902F9008950F931F93CF93DF930D
:10319000CDB7DEB76F970FB6F894DEBF0FBECDBFC9
:1031A0008C01FC01E055FD4F1182108240E050E09F
:1031B000BA01855A9F4F0F94775FC801895A9F4F74
:1031C0002BE1FC013496DE01159601900D922A95B3
:1031D000E1F7FC01828193819C838B8383E998E0F2
:1031E0009A838983AE014F5F5F4F6EEB79E0C80130
:1031F00059DECE010196C0DD6F960FB6F894DEBFA2
:103200000FBECDBFDF91CF911F910F9108952BE19C
:10321000FB013496DC01149601900D922A95E1F79A
:10322000FB0122813381FC01338322830895EF92D5
:10323000FF920F931F93CF93DF93EC011C82FC014D
:10324000E25AFF4F8081882329F0CE01855A9F4F93
:103250000F945A607E0181E3E81A8EEFF80A45E385
:1032600060E0C7010F94DB5A81113AC0EBEAF4E049
:1032700064918F01662359F0772767FD70958BE283
:103280009BE173DD0F5F1F4FF8016491F3CFEEE90F
:10329000F4E064918F01662359F0772767FD7095FC
:1032A0008BE29BE162DD0F5F1F4FF8016491F3CF6A
:1032B0006AE070E08BE29BE158DD8E01095A1F4FF6
:1032C000B801CE0188589F4FA2DFCA58DF4F19833B
:1032D0000883DF91CF911F910F91FF90EF90089598
:1032E0008E010C521E4F41E0B701C8010F94446893
:1032F00081112AC040E0B701C8010F9444688111D0
:1033000023C0E1EBF4E064918F01662359F0772745
:1033100067FD70958BE29BE128DD0F5F1F4FF80181
:103320006491F3CFEBE8F4E064918F01662309F434
:10333000BFCF772767FD70958BE29BE116DD0F5FAE
:103340001F4FF8016491F2CFB801CE01855A9F4F0B
:103350000F94685D811123C0E1EBF4E064918F016B
:10336000662359F0772767FD70958BE29BE1FDDCC2
:103370000F5F1F4FF8016491F3CFEBE7F4E0649126
:103380008F01662309F494CF772767FD70958BE250
:103390009BE1EBDC0F5F1F4FF8016491F2CF81E0FE
:1033A0008C83EBEAF4E064918F01662359F0772770
:1033B00067FD70958BE29BE1D8DC0F5F1F4FF80132
:1033C0006491F3CFE0E7F4E064918F01662309F4A0
:1033D0006FCF772767FD70958BE29BE1C6DC0F5FAF
:1033E0001F4FF8016491F2CFFC01128214820895FC
:1033F000CF93DF93EC018C818823B9F063E773E00E
:103400008BE29BE10F9453944091980D5091990D4C
:1034100060919A0D70919B0D22E030E08BE29BE170
:103420000F943D9681E08A831B82DF91CF910895AE
:10343000FC018281882319F0128281E08383089540
:10344000AF92BF92CF92DF92EF92FF920F931F93B2
:10345000CF93DF931F92CDB7DEB78C018FE2FB01D4
:1034600081935F01D12C41E07801F3E3EF1AFEEF85
:10347000FF0A9FE1C92E2D2D30E0F7018081918157
:1034800028173907D8F4C29EC001C39E900D11249D
:1034900085569F4FB501800F911F49830F940F5D93
:1034A000C50149815C010196F5012081222321F0AB
:1034B0004D3810F44F5FF6CFD394DDCF47FD11C0E8
:1034C000B501C8018A509E4F0F90DF91CF911F9197
:1034D0000F91FF90EF90DF90CF90BF90AF900D9441
:1034E0000F5DF50110820F90DF91CF911F910F9129
:1034F000FF90EF90DF90CF90BF90AF9008953F92F4
:103500004F925F926F927F928F929F92AF92BF92F3
:10351000CF92DF92EF92FF920F931F93CF93DF939F
:10352000CDB7DEB7AC970FB6F894DEBF0FBECDBFF8
:103530008C016B01342EFC018481882309F4D0C2F4
:10354000E750FE4F8081882309F407C12111D1C0C3
:103550007801FFEEEF1AFDEFFF0AF7018081882363
:1035600009F432C0E1EBF4E064918F01662359F075
:10357000772767FD70958BE29BE1F7DB0F5F1F4FAD
:10358000F8016491F3CFEDE2F4E064918F016623DA
:1035900059F0772767FD70958BE29BE1E6DB0F5FC3
:1035A0001F4FF8016491F3CF4AE050E061E070E012
:1035B0008BE29BE10F9402956AE070E08BE29BE165
:1035C000D4DB0E94E2A38CC2EBEAF4E064915F01D9
:1035D000662361F0772767FD70958BE29BE1C5DB81
:1035E000FFEFAF1ABF0AF5016491F2CFE4E1F4E016
:1035F00064915F01662361F0772767FD70958BE228
:103600009BE1B3DBFFEFAF1ABF0AF5016491F2CF84
:10361000B6018BE29BE10F945394E9E0F4E06491EE
:103620005F01662361F0772767FD70958BE29BE170
:103630009CDBFFEFAF1ABF0AF5016491F2CFF701EF
:1036400080812DE8B22EB801B89E600D711D112445
:103650006A5E7D4FC801F4DEF7018081B801B89E33
:10366000600D711D11246A5E7D4F8BE29BE10F940A
:103670005394E3E0F4E064915F01662361F07727FF
:1036800067FD70958BE29BE170DBFFEFAF1ABF0A1D
:10369000F5016491F2CF5801F5E5AF1AFDEFBF0ACD
:1036A000F50140815181628173812AE030E08BE233
:1036B0009BE10F942F956AE070E08BE29BE155DB74
:1036C000F7012081F80184E0289FE00DF11D11240D
:1036D000AF014E5E5D4FF50180819181A281B38182
:1036E000FA0180839183A283B3832F5FF701208344
:1036F0002EC0EBEAF4E064917F01662361F0772746
:1037000067FD70958BE29BE130DBFFEFEF1AFF0A5C
:10371000F7016491F2CFE2EFF3E064917F01662359
:1037200061F0772767FD70958BE29BE11EDBFFEF71
:10373000EF1AFF0AF7016491F2CFB6018BE29BE129
:103740000F9453946AE070E08BE29BE10EDBC801BA
:103750008A509E4F0F945A6032C0F801EF5EFD4FC1
:103760001082EBEAF4E064917F01662361F0772731
:1037700067FD70958BE29BE1F8DAFFEFEF1AFF0A25
:10378000F7016491F2CFE1EEF3E064917F016623EB
:1037900061F0772767FD70958BE29BE1E6DAFFEF3A
:1037A000EF1AFF0AF7016491F2CFB6018BE29BE1B9
:1037B0000F9453946AE070E08BE29BE1D6DAF80153
:1037C0001282CE0101965C01C6DA280196E7490E05
:1037D000511CC801895A9F4FF20191838083F601E1
:1037E00080818F3209F07BC06FE270E0C6010F94D8
:1037F000F0A201967C01E114F10409F476C06FE2B5
:1038000070E0C7010F94F0A24C01009709F46EC05C
:10381000E816F90608F06AC03C016E187F08A3019B
:10382000B701CE0180960F9419A3E0E2F0E0EC0F0F
:10383000FD1FE60DF71D1082BE01605E7F4F8BE21B
:103840009BE10F9453946AE070E08BE29BE18DDA88
:10385000F201608171816115710519F06C5F7F4F14
:1038600002C060E070E021E0AE01405E5F4FCE013B
:1038700005960F94516281112AC0EDECF3E064913A
:103880008F01662359F0772767FD70958BE29BE1E6
:103890006CDA0F5F1F4FF8016491F3CFBE01605ED9
:1038A0007F4F8BE29BE10F945394EBECF3E0649138
:1038B0008F01662309F40DC1772767FD70958BE2B0
:1038C0009BE153DA0F5F1F4FF8016491F2CFF201D1
:1038D000B182A0827401FFEFEF1AFF0A8CCFC801FA
:1038E00088589F4FF201918380837601C8018A50E6
:1038F0009E4F4C01F20160817181332009F49AC01E
:103900006115710519F06C5F7F4F02C060E070E0D7
:1039100021E0A701C4010F945162882309F462C019
:10392000F40181899289A389B489F801ED55FD4F8D
:1039300080839183A283B383EDEBF3E064914F0125
:10394000C8018D559D4F6C01662361F0772767FD97
:1039500070958BE29BE109DA9FEF891A990AF401CD
:103960006491F2CFB7018BE29BE10F945394E5EBA6
:10397000F3E064917F01662361F0772767FD70951E
:103980008BE29BE1F2D9FFEFEF1AFF0AF701649196
:10399000F2CFF60140815181628173812AE030E0EB
:1039A0008BE29BE10F942F956AE070E08BE29BE144
:1039B000DCD9F801E555FD4F108211821282138285
:1039C000E7EAF3E064918F01662309F482C0772768
:1039D00067FD70958BE29BE1C8D90F5F1F4FF8011F
:1039E0006491F2CFE3E9F3E064918F01662359F02B
:1039F000772767FD70958BE29BE1B7D90F5F1F4F6B
:103A0000F8016491F3CFB7018BE29BE10F945394DB
:103A1000E1E9F3E064918F01662309F45AC0772746
:103A200067FD70958BE29BE1A0D90F5F1F4FF801F6
:103A30006491F2CF6115710519F06C5F7F4F02C080
:103A400060E070E026E5A701C4010F945162811186
:103A500027C0EDE7F3E064918F01662359F07727E3
:103A600067FD70958BE29BE180D90F5F1F4FF801D6
:103A70006491F3CFB7018BE29BE10F945394EBE792
:103A8000F3E064918F01662321F1772767FD70953C
:103A90008BE29BE16AD90F5F1F4FF8016491F3CF6E
:103AA00081E0F8018083E9E6F3E064918F01662309
:103AB00059F0772767FD70958BE29BE156D90F5F30
:103AC0001F4FF8016491F3CFB6018BE29BE10F9495
:103AD00053946AE070E08BE29BE147D9C5014CD971
:103AE000AC960FB6F894DEBF0FBECDBFDF91CF917D
:103AF0001F910F91FF90EF90DF90CF90BF90AF900C
:103B00009F908F907F906F905F904F903F9008951F
:103B100021E0FC01218340E0F2CC4F925F926F9252
:103B20007F928F929F92AF92BF92CF92DF92EF924D
:103B3000FF920F931F93CF93DF93CDB7DEB7AC9770
:103B40000FB6F894DEBF0FBECDBF7C015B01FC0158
:103B50008481882309F4F9C0C7018A509E4F0F94CD
:103B60005A60F7011282CE0101966C01F4D8270148
:103B700096E7490E511CC701895A9F4FF201918364
:103B80008083F50180818F3209F077C06FE270E0A9
:103B9000C5010F94F0A28C010F5F1F4F09F473C091
:103BA0006FE270E0C8010F94F0A24C01009709F495
:103BB0006BC00817190708F067C03C01601A710A4A
:103BC000A301B801CE0180960F9419A3E0E2F0E0C2
:103BD000EC0FFD1FE60DF71D1082BE01605E7F4FEA
:103BE0008BE29BE10F9453946AE070E08BE29BE1DF
:103BF000BCD8F201608171816115710519F06C5FAB
:103C00007F4F02C060E070E021E0AE01405E5F4F98
:103C1000CE0105960F94516281112AC0E5E5F3E0CB
:103C200064918F01662359F0772767FD70958BE2C9
:103C30009BE19BD80F5F1F4FF8016491F3CFBE014A
:103C4000605E7F4F8BE29BE10F945394E3E5F3E0DA
:103C500064918F01662309F471C0772767FD709521
:103C60008BE29BE182D80F5F1F4FF8016491F2CF86
:103C7000F201D182C08284018FCFC70188589F4F43
:103C8000F201918380838501F20180819181009707
:103C900011F0049602C080E090E0B8010F94276311
:103CA000882321F1E5E4F3E064915F01662361F08C
:103CB000772767FD70958BE29BE157D8FFEFAF1A2E
:103CC000BF0AF5016491F2CFB8018BE29BE10F943A
:103CD00053946AE070E08BE29BE147D8F701E55529
:103CE000FD4F10821182128213822DC0EDE2F3E0AB
:103CF00064917F01662361F0772767FD70958BE201
:103D00009BE133D8FFEFEF1AFF0AF7016491F2CF7E
:103D1000B8018BE29BE10F945394EBE2F3E06491E2
:103D20008F01662359F0772767FD70958BE29BE141
:103D30001CD80F5F1F4FF8016491F3CF6AE070E069
:103D40008BE29BE112D8C60117D8AC960FB6F89457
:103D5000DEBF0FBECDBFDF91CF911F910F91FF90BE
:103D6000EF90DF90CF90BF90AF909F908F907F901B
:103D70006F905F904F9008950F931F93CF93DF93B1
:103D8000EC018C81882309F43EC0E9E1F3E0649101
:103D90008F01662361F0772767FD70958BE29BE1C9
:103DA0000E94B5160F5F1F4FF8016491F2CFFE011C
:103DB000E555FD4F40815181628173812AE030E0F9
:103DC0008BE29BE10F942F95E7E1F3E064918F0183
:103DD000662361F0772767FD70958BE29BE10E9477
:103DE000B5160F5F1F4FF8016491F2CFCD55DD4F2F
:103DF000488159816A817B812AE030E08BE29BE136
:103E00000F942F9511C0E7E0F3E06491EF01662372
:103E100059F0772767FD70958BE29BE10E94B516FC
:103E20002196FE016491F3CF6AE070E08BE29BE1A2
:103E3000DF91CF911F910F910C94B516AF92BF9265
:103E4000CF92DF92EF92FF920F931F93CF93DF9366
:103E50005C01EB01FB0101900020E9F78F010150AB
:103E60001109061B170B6C01FAE0CF1AFEEFDF0AEF
:103E7000F60110826EE470E0CE010F94F0A27C0196
:103E8000009729F4F8013197EC0FFD1F0DC060E297
:103E900070E00F94F0A2EC0121966AE270E0C70195
:103EA0000F94F0A2FC0131978DE081838AE0828338
:103EB0001382BE01C5018E509E4F0F94ED64F60132
:103EC0008081882391F1E1EBF4E06491EF016623B6
:103ED00059F0772767FD70958BE29BE10E94B5163C
:103EE0002196FE016491F3CFE1EFF2E06491EF01DE
:103EF000662359F0772767FD70958BE29BE10E945E
:103F0000B5162196FE016491F3CF6AE070E08BE272
:103F10009BE1DF91CF911F910F91FF90EF90DF9088
:103F2000CF90BF90AF900C94B516DF91CF911F91B9
:103F30000F91FF90EF90DF90CF90BF90AF900895DA
:103F40002F923F924F925F926F927F928F929F92A9
:103F5000AF92BF92CF92DF92EF92FF920F931F9397
:103F6000CF93DF93CDB7DEB7CC55D1090FB6F89418
:103F7000DEBF0FBECDBF4C018C0101551D4F662326
:103F800039F0F8011082F401848181111DC015C03F
:103F9000F8018081882309F4AFC0F401E955FD4F91
:103FA000C080D180E280F3800F94CC8EC616D706F5
:103FB000E806F90608F4A0C0E4CFC40138D9F4013A
:103FC0008481882309F498C07401F5E5EF0EF11C93
:103FD000F70181818F9380818F9388EE92E09F9388
:103FE0008F938E01015C1F4F1F930F930F9456A365
:103FF0000F900F900F900F900F900F90B12CF80131
:1040000001900020E9F73197E01BF10BBE1684F414
:104010006801CB0CD11CB7FCDA94F601808199279A
:1040200087FD90950F948EA2F6018083B394E7CF1D
:10403000FBE58F0E911C40E050E0BA01C4010F94E3
:10404000775F512CCE0101966C0131EE632E32E088
:10405000732E5E0191E2A90EB11C40E050E0B60162
:10406000C4010F94C45E1816DCF5412CF6010190D2
:104070000020E9F73197EC19FD094E1674F416018A
:10408000240C311C47FC3A94F101808190E00F949C
:104090008EA2F10180834394E9CF8A858E37E9F2BD
:1040A00045E050E0B801C6010F940BA3892BA9F697
:1040B0001F930F937F926F92BF92AF920F9456A36C
:1040C000C5010E94194A8DED92E00E94954A0F9019
:1040D0000F900F900F900F900F9055245394BDCFD9
:1040E000511004C08FEF9FEFF70104C0F7018081EA
:1040F0009181019691838083C45ADF4F0FB6F89463
:10410000DEBF0FBECDBFDF91CF911F910F91FF900A
:10411000EF90DF90CF90BF90AF909F908F907F9067
:104120006F905F904F903F902F900895EF92FF9285
:104130000F931F93CF93DF931F92CDB7DEB78C0100
:104140007C018AE0E81A8EEFF80AC70169830F94B0
:104150001060C7010F945A60F801108211826981C2
:10416000662309F4EFC08091C70D9091C80DA0910E
:10417000C90DB091CA0D8093570E9093580EA0931D
:10418000590EB0935A0E8091CB0D9091CC0DA09109
:10419000CD0DB091CE0D8093530E9093540EA093FD
:1041A000550EB093560E8091CF0D9091D00DA091E9
:1041B000D10DB091D20D80934F0E9093500EA093DD
:1041C000510EB093520E8091250D90E090934E0EBB
:1041D00080934D0E4091D30D5091D40D6091D50D2B
:1041E0007091D60D4093490E50934A0E60934B0E3A
:1041F00070934C0EF70180859185A285B3858093DD
:10420000450E9093460EA093470EB093480E8091B2
:10421000051B9091061B9093420E8093410E809156
:10422000071B9091081B9093440E8093430E80913E
:10423000031B9091041B9093400E80933F0E80913E
:104240005C0290915D0290933C0E80933B0E8091B6
:10425000230D9091240D90933E0E80933D0E8091FE
:10426000110E8093260E8091120E9091130E909352
:10427000280E8093270E8091140E9091150E909326
:104280002A0E8093290E8091160E9091170E90930E
:104290002C0E80932B0E8091180E9091190E9093F6
:1042A0002E0E80932D0E80911A0E90911B0E9093DE
:1042B000300E80932F0E80911C0E90911D0E9093C6
:1042C000320E8093310E80911E0E90911F0E9093AE
:1042D000340E8093330E8091200E9091210E909396
:1042E000360E8093350E8091220E9091230E90937E
:1042F000380E8093370E8091240E9091250E909366
:104300003A0E8093390EE1EDF2E064918F0166235D
:1043100061F0772767FD70958BE29BE10E94B516EF
:104320000F5F1F4FF8016491F2CF6AE070E08BE2FB
:104330009BE10F90DF91CF911F910F91FF90EF9034
:104340000C94B5160F90DF91CF911F910F91FF90B4
:10435000EF900895EF92FF920F931F93CF93DF9307
:10436000CDB7DEB76F970FB6F894DEBF0FBECDBFE7
:104370008C017C0186E7E80EF11CC80188589F4F2C
:10438000F70191838083E65CFD4F22E030E03183CA
:104390002083329670E07183608340E050E0BA0180
:1043A00004960F94775FF701808191812BE1FC01E6
:1043B0003496DE01159601900D922A95E1F7FC01E5
:1043C000828193819C838B8383E998E09A8389839C
:1043D000AE014F5F5F4F6EEB79E0C8010E9452174C
:1043E000CE0101960E94BC166F960FB6F894DEBF00
:1043F0000FBECDBFDF91CF911F910F91FF90EF9036
:104400000895CF92DF92EF92FF920F931F93CF9375
:10441000DF93CDB7DEB76F970FB6F894DEBF0FBE50
:10442000CDBF8C016C0126E7C20ED11C88589F4F6E
:10443000F60191838083E65CFD4F21E030E031831B
:1044400020837801FEE4EF1AFDEFFF0AF7011182E5
:10445000108240E050E0BA0104960F94775FF601B5
:10446000808191812BE1FC013496DE01159601904B
:104470000D922A95E1F7FC01828193819C838B83C5
:1044800083E998E09A838983AE014F5F5F4F6EEBBB
:1044900079E0C8010E945217CE0101960E94BC1615
:1044A000F701808191816F960FB6F894DEBF0FBE41
:1044B000CDBFDF91CF911F910F91FF90EF90DF90D3
:1044C000CF900895AF92BF92CF92DF92EF92FF927A
:1044D0000F931F93CF93DF93CDB7DEB76F970FB6D0
:1044E000F894DEBF0FBECDBF8C017B01CE010196DB
:1044F0000E94AB16F801E158FF4F808168018111DD
:1045000004C027E5C20ED11C03C088E7C80ED11C29
:1045100021E0A701B6016C5F7F4FCE0105960F9495
:104520005162811136C0EBEAF4E064918F01662399
:1045300061F0772767FD70958BE29BE10E94B516CD
:104540000F5F1F4FF8016491F2CFEBEBF2E0649143
:104550008F01662361F0772767FD70958BE29BE101
:104560000E94B5160F5F1F4FF8016491F2CFB7019B
:104570008BE29BE10F9453946AE070E08BE29BE145
:104580000E94B516CE0101960E94BC168FEF9FEFD8
:104590003AC0F801E353FE4F808191818A30910542
:1045A00030F59C012F5F3F4F318320832FE1289FFF
:1045B0007001299FF00C1124F7E9EF0EF11CE00EB9
:1045C000F11E5C01B701C7014F960E94071921E057
:1045D000A21AB1088FE1E81AF108EFEFAE16BE0695
:1045E00089F7B601C80189569F4F0E940719BE017D
:1045F0006F5F7F4FC80188589F4F0E940719CE01F7
:1046000001960E94BC166F960FB6F894DEBF0FBEDF
:10461000CDBFDF91CF911F910F91FF90EF90DF9071
:10462000CF90BF90AF900895EF92FF920F931F939A
:10463000CF93DF93EC01C353DE4F288139812115DD
:10464000310529F121503109398328838C0109561C
:104650001F4FB80188589F4F0E940719C80100E0FA
:1046600010E0288139817C014FE1E40EF11C021732
:10467000130738F40F5F1F4FB7010E940719C701D6
:10468000F0CF81E090E0232B21F080E002C08FEF9B
:104690009FEFDF91CF911F910F91FF90EF900895C1
:1046A0008F929F92AF92BF92CF92DF92EF92FF9242
:1046B0000F931F93CF93DF93EC011092DF0D809146
:1046C000540D9091550D01969093550D8093540D76
:1046D000D0D286EB92E00E94954A0F94C2717E017F
:1046E0008FEEE81A8DEFF80AF70180818E010A50EB
:1046F0001E4F8823D9F1C8010F945A60F7018081B9
:1047000081508083BE01FDE88F9F600D711D1124D3
:104710006A5E7D4F21E041E0CE010E947F1AF701E1
:104720008081FE0194E0899FE00DF11D1124EE5E71
:10473000FD4F4081518162817381FE01E555FD4F3E
:104740004083518362837383C8010F94775FCE01E6
:10475000DF91CF911F910F91FF90EF90DF90CF905D
:10476000BF90AF909F908F900C94F8190F94537254
:10477000C8010F945A601A8220E030E045E050E012
:104780006AE070E08BE991E10E945A3C83EB92E091
:104790000E94954A0F94C2718EEA92E00E94954A57
:1047A0001092061B1092051B1092081B1092071BFB
:1047B0001092041B1092031B1092800E10927F0E19
:1047C00010927E0E60915A0D70915B0D80915C0D80
:1047D00090915D0D2CE330E040E050E00F94A59CFB
:1047E0003093570D2093560D7093590D6093580DCB
:1047F000C090B617D090B717E090B817F090B917DF
:104800002091460D3091470D4091480D5091490D32
:1048100060914A0D70914B0D80914C0D90914D0D12
:104820000F94C9984B015C012091FA173091FB1746
:104830004091FC175091FD176091FE177091FF1782
:1048400080910018909101180F940A99A701960180
:104850000F94C5979B01AC01C501B4010F94E59677
:104860000F945E982093460D3093470D4093480D6A
:104870005093490D60934A0D70934B0D80934C0DEE
:1048800090934D0D20913E0D30913F0D4091400D84
:104890005091410D6091420D7091430D8091440DF6
:1048A0009091450D0F94C9984B015C012091F2172E
:1048B0003091F3174091F4175091F5176091F61766
:1048C0007091F7178091F8179091F9170F940A9942
:1048D000A70196010F94C5979B01AC01C501B401D6
:1048E0000F94E5960F945E9820933E0D30933F0D04
:1048F0004093400D5093410D6093420D7093430DD2
:104900008093440D9093450D2091360D3091370DD5
:104910004091380D5091390D60913A0D70913B0DD9
:1049200080913C0D90913D0D0F94C9986B017C01D5
:104930002091EA173091EB174091EC175091ED1749
:104940006091EE177091EF178091F0179091F11729
:104950000F940A992091BA173091BB174091BC1758
:104960005091BD170F94C5979B01AC01C701B601CB
:104970000F94E5960F945E982093360D3093370D83
:104980004093380D5093390D60933A0D70933B0D61
:1049900080933C0D90933D0DC090C217D090C317EB
:1049A000E090C417F090C51720912E0D30912F0D77
:1049B0004091300D5091310D6091320D7091330D59
:1049C0008091340D9091350D0F94C9984B015C0185
:1049D0002091E2173091E3174091E4175091E517C9
:1049E0006091E6177091E7178091E8179091E917A9
:1049F0000F940A99A70196010F94C5979B01AC01EA
:104A0000C501B4010F94E5960F945E9820932E0D86
:104A100030932F0D4093300D5093310D6093320D34
:104A20007093330D8093340D9093350D2091260DA6
:104A30003091270D4091280D5091290D60912A0D3C
:104A400070912B0D80912C0D90912D0D0F94C99884
:104A50004B015C012091DA173091DB174091DC1794
:104A60005091DD176091DE177091DF178091E0178C
:104A70009091E1170F940A99A70196010F94C59799
:104A80009B01AC01C501B4010F94E5960F945E98AB
:104A90002093260D3093270D4093280D5093290D18
:104AA00060932A0D70932B0D80932C0D90932D0DF8
:104AB0001092FA171092FB171092FC171092FD1724
:104AC0001092FE171092FF17109200181092011802
:104AD0001092F2171092F3171092F4171092F51724
:104AE0001092F6171092F7171092F8171092F91704
:104AF0001092EA171092EB171092EC171092ED1724
:104B00001092EE171092EF171092F0171092F11703
:104B10001092E2171092E3171092E4171092E51723
:104B20001092E6171092E7171092E8171092E91703
:104B30001092DA171092DB171092DC171092DD1723
:104B40001092DE171092DF171092E0171092E11703
:104B500090D082EA92E00E94954A80915117882372
:104B6000F9F010925117C091250DD0E0CC0FDD1F48
:104B7000CB5FD44E68817981882777FD8095982F07
:104B80000F94CF982091B2023091B3024091B402B9
:104B90005091B5020F947E9A181614F41982188257
:104BA000DF91CF911F910F91FF90EF90DF90CF9009
:104BB000BF90AF909F908F9008958D559D4FFC01B1
:104BC0006081718182819381089585559D4FFC019B
:104BD00060817181828193810895EF92FF920F939A
:104BE0001F93CF93DF931F92CDB7DEB78C017B016C
:104BF000460FF70161917F01F8018081918149831E
:104C00000F9454A8F801808191810196918380834B
:104C100049814E11EECF0F90DF91CF911F910F91EF
:104C2000FF90EF900895EF92FF920F931F93CF9311
:104C3000DF931F92CDB7DEB78C017B01460FF801E1
:104C40008081918149830F944CA8F70181937F0162
:104C5000F8018081918101969183808349814E1171
:104C6000EECF0F90DF91CF911F910F91FF90EF90BA
:104C700008950F931F93CF93DF93CDB7DEB7689757
:104C80000FB6F894DEBF0FBECDBF80E390E3A0E384
:104C9000B0E08D839E83AF83B88704E610E0188F61
:104CA0000F8B44E0BE016B5F7F4FCE01479695DFCF
:104CB00040E166EB77E1CE0147968FDF40E166EC9D
:104CC00077E1CE01479689DF40E166EA77E1CE01E0
:104CD000479683DF44E06EE977E1CE0147967DDFBA
:104CE00044E066E977E1CE01479677DF44E062EA87
:104CF00077E1CE01479671DF44E066E877E1CE01C7
:104D000047966BDF44E066ED77E1CE01479665DFBD
:104D100044E062E977E1CE0147965FDF44E06EE868
:104D200077E1CE01479659DF44E06AE877E1CE01AA
:104D3000479653DF4CE06BEA7DE0CE0147964DDFAE
:104D400087ED90E09E8B8D8B8DE290E09C8B8B8B22
:104D50001A8A198A80EF90E0988B8F8786E490E01A
:104D60009E878D871C861B8642E0BE016B5E7F4F4F
:104D7000CE01479632DF42E0BE016D5E7F4FCE012D
:104D800047962BDF42E0BE016F5E7F4FCE01479614
:104D900024DF42E0BE01615F7F4FCE0147961DDFF9
:104DA00042E0BE01635F7F4FCE01479616DF42E0CF
:104DB000BE01655F7F4FCE0147960FDF44E068E993
:104DC0007DE0CE01479609DF44E06BE272E0CE0160
:104DD000479603DF44E063E372E0CE014796FDDED1
:104DE00044E06BE372E0CE014796F7DE42E06AE012
:104DF0007EE0CE014796F1DE42E06EE07EE0CE013D
:104E00004796EBDE42E06CE07EE0CE014796E5DEC1
:104E100042E068E07EE0CE014796DFDE42E06AEFE6
:104E20007DE0CE014796D9DE42E06EEF7DE0CE0117
:104E30004796D3DE42E06CEF7DE0CE014796CDDEB3
:104E400042E068EF7DE0CE014796C7DE42E062E0D7
:104E50007EE0CE014796C1DE42E066E07EE0CE0114
:104E60004796BBDE42E064E07EE0CE014796B5DEC9
:104E700042E060E07EE0CE014796AFDE42E062EFC6
:104E80007DE0CE014796A9DE42E066EF7DE0CE01EF
:104E90004796A3DE42E064EF7DE0CE0147969DDEBB
:104EA00042E060EF7DE0CE01479697DE44E061E1AD
:104EB00073E0CE01479691DE44E069E073E0CE01F5
:104EC00047968BDE44E061E073E0CE01479685DED5
:104ED00044E065E173E0CE0147967FDE44E06DE09B
:104EE00073E0CE01479679DE44E065E073E0CE01E1
:104EF000479673DE42E060E67DE0CE0147966DDEC8
:104F000042E064E57DE0CE01479667DE42E062E57F
:104F10007DE0CE01479661DE42E060E57DE0CE01B6
:104F200047965BDE42E06EE57DE0CE01479655DEBA
:104F300042E06EE47DE0CE0147964FDE80E290E0F5
:104F40009A87898742E0BE01675F7F4FCE0147960F
:104F500044DE42E068E87EE0CE0147963EDE44E073
:104F600064E87EE0CE01479638DE42E062E87EE00B
:104F7000CE01479632DE42E068E57DE0CE014796FD
:104F80002CDE42E066E57DE0CE01479626DE48E075
:104F900066E47DE0CE01479620DE48E06EE37DE0EA
:104FA000CE0147961ADE48E066E37DE0CE014796E3
:104FB00014DE48E06EE27DE0CE0147960EDE48E06A
:104FC00066E27DE0CE01479608DE42E06EE672E0E2
:104FD000CE01479602DE42E060E772E0CE014796DE
:104FE000FCDD44E067E57EE0CE014796F6DD44E077
:104FF00063E57EE0CE014796F0DD44E06FE47EE0BD
:10500000CE014796EADD42E06DE47EE0CE014796B0
:10501000E4DD44E069E47EE0CE014796DEDD44E075
:1050200065E47EE0CE014796D8DD42E063E47EE0B1
:10503000CE014796D2DD42E061E47EE0CE014796A4
:10504000CCDD42E06FE37EE0CE014796C6DD42E074
:105050006DE37EE0CE014796C0DD42E06BE37EE08B
:10506000CE014796BADD41E066E27EE0CE0147968A
:10507000B4DD42E067E27EE0CE014796AEDD42E07D
:1050800069E27EE0CE014796A8DD42E06BE27EE079
:10509000CE014796A2DD42E06DE27EE0CE0147966A
:1050A0009CDD42E06FE27EE0CE01479696DD42E075
:1050B00061E37EE0CE01479690DD42E063E37EE06F
:1050C000CE0147968ADD42E065E37EE0CE01479659
:1050D00084DD42E067E37EE0CE0147967EDD42E07C
:1050E00069E37EE0CE01479678DD44E06AE977E146
:1050F000CE01479672DD42E06BE57EE0CE01479639
:105100006CDD44E064E97DE0CE01479666DD44E075
:1051100060E97DE0CE01479660DD86E591E3A2E39C
:10512000B0E089839A83AB83BC83188F0F8B44E0F4
:10513000BE016F5F7F4FCE0147964FDDECE0FBE095
:1051400064918F01662361F0772767FD70958BE28C
:105150009BE10E94B5160F5F1F4FF8016491F2CFDB
:10516000ECEFFAE064918F01662361F0772767FD29
:1051700070958BE29BE10E94B5160F5F1F4FF801FF
:105180006491F2CF6AE070E08BE29BE10E94B51679
:1051900068960FB6F894DEBF0FBECDBFDF91CF91FA
:1051A0001F910F9108950F931F93CF93DF93CCE03E
:1051B000DBE0FE0164918E01662361F0772767FDD5
:1051C00070958BE29BE10E94B5160F5F1F4FF801AF
:1051D0006491F2CFECEEFAE064918F01662361F006
:1051E000772767FD70958BE29BE10E94B5160F5FF4
:1051F0001F4FF8016491F2CF6AE070E08BE29BE10F
:105200000E94B516FE0164910CE01BE0662361F07C
:10521000772767FD70958BE29BE10E94B5160F5FC3
:105220001F4FF8016491F2CF4091B6175091B71714
:105230006091B8177091B91784EE9AE00E94AD4959
:105240004091BA175091BB176091BC177091BD1770
:1052500081EE9AE00E94AD494091BE175091BF1770
:105260006091C0177091C1178EED9AE00E94AD4910
:105270004091C2175091C3176091C4177091C51720
:105280008BED9AE00E94AD496EEB79E08BE29BE1F9
:105290000F9453946AE070E08BE29BE10E94B51694
:1052A000FE0164910CE01BE0662361F0772767FD47
:1052B00070958BE29BE10E94B5160F5F1F4FF801BE
:1052C0006491F2CFE1ECFAE064918F01662361F022
:1052D000772767FD70958BE29BE10E94B5160F5F03
:1052E0001F4FF8016491F2CF6AE070E08BE29BE11E
:1052F0000E94B516FE0164910CE01BE0662361F08C
:10530000772767FD70958BE29BE10E94B5160F5FD2
:105310001F4FF8016491F2CF4091C6175091C71703
:105320006091C8177091C91788EB9AE00E94AD4947
:105330004091CA175091CB176091CC177091CD173F
:1053400085EB9AE00E94AD494091CE175091CF175E
:105350006091D0177091D11782EB9AE00E94AD490D
:105360004091D2175091D3176091D4177091D517EF
:105370008FEA9AE00E94AD496EEB79E08BE29BE107
:105380000F9453946AE070E08BE29BE10E94B516A3
:10539000FE0164910CE01BE0662361F0772767FD56
:1053A00070958BE29BE10E94B5160F5F1F4FF801CD
:1053B0006491F2CFE1E9FAE064918F01662361F034
:1053C000772767FD70958BE29BE10E94B5160F5F12
:1053D0001F4FF8016491F2CF6AE070E08BE29BE12D
:1053E0000E94B516FE0164910CE01BE0662361F09B
:1053F000772767FD70958BE29BE10E94B5160F5FE2
:105400001F4FF8016491F2CF4091A6175091A71752
:105410006091A8177091A91788E89AE00E94F54951
:105420004091AA175091AB176091AC177091AD17CE
:1054300085E89AE00E94F5494091AE175091AF1768
:105440006091B0177091B11782E89AE00E94F54917
:105450004091B2175091B3176091B4177091B5177E
:105460008FE79AE00E94F5496EEB79E08BE29BE1D1
:105470000F9453946AE070E08BE29BE10E94B516B2
:10548000FE0164910CE01BE0662361F0772767FD65
:1054900070958BE29BE10E94B5160F5F1F4FF801DC
:1054A0006491F2CFEAE4FAE064918F01662361F03F
:1054B000772767FD70958BE29BE10E94B5160F5F21
:1054C0001F4FF8016491F2CF6AE070E08BE29BE13C
:1054D0000E94B516FE0164910CE01BE0662361F0AA
:1054E000772767FD70958BE29BE10E94B5160F5FF1
:1054F0001F4FF8016491F2CF40919E1750919F1772
:105500006091A0177091A11781E49AE00E94AD49C3
:10551000409196175091971760919817709199172D
:105520008EE39AE00E94AD496EEB79E08BE29BE15D
:105530000F9453946AE070E08BE29BE10E94B516F1
:10554000FE0164910CE01BE0662361F0772767FDA4
:1055500070958BE29BE10E94B5160F5F1F4FF8011B
:105560006491F2CFEBE8F9E064918F01662361F07A
:10557000772767FD70958BE29BE10E94B5160F5F60
:105580001F4FF8016491F2CF6AE070E08BE29BE17B
:105590000E94B516FE0164910CE01BE0662361F0E9
:1055A000772767FD70958BE29BE10E94B5160F5F30
:1055B0001F4FF8016491F2CF4091A2175091A317A9
:1055C0006091A4177091A51782E899E00E94AD49F7
:1055D00040918617509187176091881770918917AD
:1055E0008FE799E00E94AD494091D6175091D717A7
:1055F0006091D8177091D9178CE799E00E94F5490E
:10560000409192175091931760919417709195174C
:1056100089E799E00E94AD4940918E1750918F170C
:10562000609190177091911786E799E00E94AD49BB
:1056300040918A1750918B1760918C1770918D173C
:1056400083E799E00E94AD496EEB79E08BE29BE144
:105650000F9453946AE070E08BE29BE10E94B516D0
:10566000FE0164910CE01BE0662361F0772767FD83
:1056700070958BE29BE10E94B5160F5F1F4FF801FA
:105680006491F2CFE1E6F9E064918F01662361F065
:10569000772767FD70958BE29BE10E94B5160F5F3F
:1056A0001F4FF8016491F2CF6AE070E08BE29BE15A
:1056B0000E94B516FE0164910CE01BE0662361F0C8
:1056C000772767FD70958BE29BE10E94B5160F5F0F
:1056D0001F4FF8016491F2CF4091AB0D5091AC0D8A
:1056E0006091AD0D7091AE0D88E599E00E94AD49D5
:1056F0004091AF0D5091B00D6091B10D7091B20D10
:1057000085E599E00E94AD494091B30D5091B40DEB
:105710006091B50D7091B60D82E599E00E94AD499A
:105720006EEB79E08BE29BE10F9453946AE070E0BA
:105730008BE29BE10E94B516FE0164910CE01BE038
:10574000662361F0772767FD70958BE29BE10E94ED
:10575000B5160F5F1F4FF8016491F2CFE4E4F9E052
:1057600064918F01662361F0772767FD70958BE266
:105770009BE10E94B5160F5F1F4FF8016491F2CFB5
:105780006AE070E08BE29BE10E94B516FE01649135
:105790000CE01BE0662361F0772767FD70958BE2D4
:1057A0009BE10E94B5160F5F1F4FF8016491F2CF85
:1057B00040911103509112036091130370911403EF
:1057C00087E399E00E94AD496091090370910A0353
:1057D00080910B0390910C030F943689AB01BC01AF
:1057E00084E399E00E94AD49609101037091020346
:1057F00080910303909104030F944289AB01BC0193
:1058000081E399E00E94AD49409115035091160340
:10581000609117037091180381E299E00E94AD49ED
:1058200060910D0370910E0380910F03909110030E
:105830000F943689AB01BC018EE199E00E94AD491D
:10584000609105037091060380910703909108030E
:105850000F944289AB01BC018BE199E00E94AD49F4
:105860006EEB79E08BE29BE10F9453946AE070E079
:105870008BE29BE10E94B516FE0164910CE01BE0F7
:10588000662361F0772767FD70958BE29BE10E94AC
:10589000B5160F5F1F4FF8016491F2CFEDE0F9E00C
:1058A00064918F01662361F0772767FD70958BE225
:1058B0009BE10E94B5160F5F1F4FF8016491F2CF74
:1058C0006AE070E08BE29BE10E94B516FE016491F4
:1058D0000CE01BE0662361F0772767FD70958BE293
:1058E0009BE10E94B5160F5F1F4FF8016491F2CF44
:1058F00040912B0250912C0260912D0270912E024A
:1059000089E099E00E94AD49409133025091340200
:10591000609135027091360285E099E00E94AD49B0
:1059200040913B0250913C0260913D0270913E02D9
:1059300081E099E00E94AD494091980D5091990DF8
:1059400060919A0D70919B0D88EF98E00E94AD498F
:105950006EEB79E08BE29BE10F9453946AE070E088
:105960008BE29BE10E94B516FE0164910CE01BE006
:10597000662361F0772767FD70958BE29BE10E94BB
:10598000B5160F5F1F4FF8016491F2CFE6EEF8E015
:1059900064918F01662361F0772767FD70958BE234
:1059A0009BE10E94B5160F5F1F4FF8016491F2CF83
:1059B0006AE070E08BE29BE10E94B516FE01649103
:1059C0000CE01BE0662361F0772767FD70958BE2A2
:1059D0009BE10E94B5160F5F1F4FF8016491F2CF53
:1059E0004091940D5091950D6091960D7091970D89
:1059F00085ED98E00E94AD494091900D5091910D38
:105A00006091920D7091930D83EC98E00E94AD49E6
:105A10006EEB79E08BE29BE10F9453946AE070E0C7
:105A20008BE29BE10E94B516FE0164910CE01BE045
:105A3000662361F0772767FD70958BE29BE10E94FA
:105A4000B5160F5F1F4FF8016491F2CFE9EBF8E054
:105A500064918F01662361F0772767FD70958BE273
:105A60009BE10E94B5160F5F1F4FF8016491F2CFC2
:105A70006AE070E08BE29BE10E94B516FE01649142
:105A80000CE01BE0662361F0772767FD70958BE2E1
:105A90009BE10E94B5160F5F1F4FF8016491F2CF92
:105AA00040910E0E50910F0E662757FD6095762F90
:105AB0008DEA98E00E94F54940910C0E50910D0E30
:105AC000662757FD6095762F8EE998E00E94F5498C
:105AD0004091080E5091090E662757FD6095762F6C
