:100000000C9477140C94A8140C94A8140C94A814B1
:100010000C94A8140C94A8140C94A8140C94A81470
:100020000C94A8140C94A8140C94A8140C94A81460
:100030000C94A8140C94A8140C94A8140C94A81450
:100040000C94A8140D9418710C94A8140C94A81472
:100050000C94A8140C94A8140D940A8E0D94CF94AB
:100060000C94A8140D94FF980D9435990C94A81431
:100070000C94A8140C94A8140C94A8140C94A81410
:100080000C94A8140C94A8140C94A8140C94A81400
:100090000C94A8140C94A8140C94A8140C946B152C
:1000A0000C94A8140C94A8140C94A8140C94A814E0
:1000B0000C94A8140C94A8140C94A8140C94A814D0
:1000C0000C94A8140C94A8140C94A8140D94AA9938
:1000D0000D94E0990C94A8140C94A8140C94A814F2
:1000E0000C94A814F700D7001F010D01CD002501C5
:1000F000F3001B011901D9002B0133011301C700C3
:100100001501D100FB00110109012701CF000301F6
:10011000E7000B01DF00FB00C9000701F900F10057
:100120001D01EF00ED003701EB00FF00D300FD00E3
:100130003101DD002D01F5002301EB0021013B0120
:10014000DB00084AD73B3BCE016E84BCBFFDC12F0C
:100150003D6C74319ABD56833DDA3D00C77F11BEB8
:10016000D9E4BB4C3E916BAAAABE000000803F05BB
:10017000A84CCDB2D44EB93836A9020C50B99186EC
:1001800088083CA6AAAA2ABE000000803F000D9461
:100190000F960D947E960D94129A0D94E28E0D9406
:1001A00047960D9423960D94C9960D94C66B0D94A5
:1001B0009F8E0D940F8F0D94F3960D94D7960D94FA
:1001C00074960D9467990D9418980D949A970D94C0
:1001D0005B960D945E990D94F8960D94B4960D94DB
:1001E000B0960D94BE960D94098F0D94E1960D94E2
:1001F000928E0D9492960D949C960D94CF960D949C
:10020000C5960D9439980D9451960D94099A0D94B4
:1002100088960D9435960D946A960D94C88E0D941B
:10022000BC970D942D960D940A960D9419960D94E5
:1002300083340D940D8F0D940B8F0D94C1960D94F6
:10024000BB8E0D94EB960D94E5960D94EF8E0D9468
:100250003D960D948F970D94178F0D94DD960D9408
:100260009B340D94D3960D9405960D94A8970D94F8
:10027000BA960D94629A0D94EF964D38342058201A
:1002800059205A2045004D313037005430004D314F
:1002900030370043616E6E6F7420656E7465722036
:1002A0007375626469723A20005341564544205088
:1002B00052494E54004D3234004D323320257300E4
:1002C0006175746F25692E67006572726F72207791
:1002D000726974696E6720746F2066696C65004E80
:1002E0006F74205344207072696E74696E67002FBA
:1002F000005344207072696E74696E67206279746D
:100300006520002E0044656C6574696F6E2066611F
:10031000696C65642C2046696C653A200046696CFE
:10032000652064656C657465643A002E006F7065C5
:100330006E206661696C65642C2046696C653A20A4
:100340000057726974696E6720746F2066696C6506
:100350003A20002E006F70656E206661696C6564DE
:100360002C2046696C653A20002E006F70656E2067
:100370006661696C65642C2046696C653A200046AC
:10038000696C652073656C656374656400205369EE
:100390007A653A200046696C65206F70656E656409
:1003A0003A20002E006F70656E206661696C65648E
:1003B0002C2046696C653A20004E6F772066726586
:1003C00073682066696C653A20004E6F7720646F11
:1003D000696E672066696C653A20002220706F7331
:1003E000002220706172656E743A220053554252A9
:1003F0004F5554494E452043414C4C20746172671F
:1004000065743A2200747279696E6720746F206394
:10041000616C6C207375622D67636F64652066691B
:100420006C6573207769746820746F6F206D616EDE
:1004300079206C6576656C732E204D4158206C6573
:1004400076656C2069733A005344206361726420BE
:100450006F6B006F70656E526F6F74206661696CB0
:10046000656400766F6C756D652E696E69742066C3
:1004700061696C656400534420696E69742066612B
:10048000696C006563686F3A004572726F723A007A
:10049000535543434553530056616C756573206F44
:1004A0007574206F662072616E67650056616C75A9
:1004B0006573206F7574206F662072616E676500CA
:1004C00056616C756573206F7574206F662072615C
:1004D0006E67650056616C756573206F7574206F6B
:1004E000662072616E676500535543434553530060
:1004F00056616C756573206F7574206F662072612C
:100500006E67650056616C756573206F7574206F3A
:10051000662072616E67650056616C756573206F49
:100520007574206F662072616E67650056616C7528
:100530006573206F7574206F662072616E67650049
:1005400053544154495354494353205245534554FD
:100550000048617264636F6465642043616C696222
:1005600020616E64205049442044656661756C7456
:100570002053657474696E6773204C6F61646564A1
:100580000048617264636F646564204465666175E8
:100590006C742053657474696E6773204C6F61646A
:1005A00065640053746F7265642073657474696E5A
:1005B000677320726574726965766564002C2073B8
:1005C000617665645F66656564726174653A200092
:1005D0002C2073617665645F66616E6C617965720B
:1005E0003A20002C2073617665645F74656D7062DB
:1005F00065643A20002C2073617665645F74656DD4
:1006000070303A20002C2073617665645F74656DEC
:1006100070313A20002C2073617665645F66696CE6
:1006200065706F736974696F6E3A20002C20736176
:100630007665645F655F706F736974696F6E3A2089
:10064000002C2073617665645F746F6F6C5F61630B
:10065000746976653A20002C2073617665645F7A50
:100660005F706F736974696F6E3A20002C2073613C
:100670007665645F795F706F736974696F6E3A2035
:10068000002C2073617665645F785F706F736974A6
:10069000696F6E3A200053415645205052494E54DE
:1006A000204C4F473A00204D696E75746573203AAF
:1006B00000204C617374207072696E742074696DCF
:1006C000652D3E20486F757273203A004C6173743B
:1006D000207072696E74206475726174696F6E0047
:1006E0002C205468697264204944206E756D6265DF
:1006F0007220002C205365636F6E64204944206E85
:10070000756D6265723A20002046697273742049E3
:1007100044206E756D6265723A2000554920496E1D
:10072000666F726D6174696F6E2053657269616C7A
:10073000204E756D6265723A00206D2C2045312087
:100740007072696E742064697374616E63653A20B7
:1007500000206B6D2C204530207072696E7420640F
:10076000697374616E63653A2000206B6D2C2059AB
:10077000207072696E742064697374616E63653A87
:100780002000206B6D2C205831207072696E74200F
:1007900064697374616E63653A200020432C0A20FB
:1007A0005830207072696E742064697374616E636E
:1007B000653A200020432C206D61782074656D70AF
:1007C00020423A200020432C206D61782074656D12
:1007D0007020523A20002C206D61782074656D7075
:1007E000204C3A2000682C207072696E7473206669
:1007F000696E69736865643A20002C207072696EB6
:1008000074696E672074696D653A200020707269A2
:100810006E74733A200053544154533A0020432CD1
:1008200020525F5052494E543A200020432C20520F
:100830005F4245443A200020432C20525F52454DF0
:100840004F56453A200020525F494E534552543A84
:10085000200054656D70202843293A0020432C2045
:100860004C5F5052494E543A200020432C204C5F9C
:100870004245443A200020432C204C5F52454D4FC6
:1008800056453A2000204C5F494E534552543A2079
:100890000054656D70202843293A00205A20707258
:1008A0006F626500205A2000205920002058200047
:1008B0004F66667365747320286D6D293A00204475
:1008C00000204900202D204D333031205249474827
:1008D00054205000204400204900204D3330312066
:1008E0004C45465420500050494420736574746947
:1008F0006E67733A00205A0020590020204D323094
:1009000036205800486F6D65206F666673657420E9
:10091000286D6D293A00204500205A0020580020FB
:10092000420020540020204D3230352053004164D5
:1009300076616E636564207661726961626C65736D
:100940003A20533D4D696E20666565647261746539
:1009500020286D6D2F73292C20543D4D696E207415
:10096000726176656C2066656564726174652028C5
:100970006D6D2F73292C20423D6D696E696D756D0B
:10098000207365676D656E742074696D6520286DD0
:1009900073292C20583D6D6178696D756D2058590B
:1009A000206A65726B20286D6D2F73292C20205AC8
:1009B0003D6D6178696D756D205A206A65726B2096
:1009C000286D6D2F73292C2020453D6D6178696D50
:1009D000756D2045206A65726B20286D6D2F732917
:1009E0000020540020204D323034205300416363F6
:1009F000656C65726174696F6E3A20533D61636323
:100A0000656C65726174696F6E2C20543D726574FB
:100A10007261637420616363656C65726174696F90
:100A20006E00204500205A0020590020204D323011
:100A3000312058004D6178696D756D2041636365A3
:100A40006C65726174696F6E20286D6D2F73322929
:100A50003A00204500205A0020590020204D323015
:100A6000332058004D6178696D756D206665656449
:100A7000726174657320286D6D2F73293A002045CB
:100A800000205A0020590020204D393220580053B0
:100A9000746570732070657220756E69743A0053C6
:100AA000657474696E67732053746F726564006552
:100AB00063686F3A00204500205A00205900483DE5
:100AC00058005072696E7465722068616C74656458
:100AD0002E206B696C6C28292063616C6C65642125
:100AE000006F6B00526573656E643A2000486F7446
:100AF000656E64206F6666736574733A005A204FA2
:100B00006666736574203A20007A5F6D61783A20DA
:100B1000007A5F6D696E3A20005A204F66667365F1
:100B200074005A204F6666736574206F6B004E6FB9
:100B300074207072696E74207265636F7665727965
:100B4000207570005072696E74207265636F7665EF
:100B5000727920757000486F74656E64206F6666E8
:100B6000736574733A007A5F6D696E3A2000795F3D
:100B70006D61783A2000785F6D61783A2000785F87
:100B80006D696E3A2000205A3A0020593A002043FD
:100B90006F756E7420583A200020453A00205A3A6A
:100BA0000020593A00583A004649524D57415245A3
:100BB0005F4E414D453A4D61726C696E2056313B36
:100BC00020537072696E7465722F6772626C206D4B
:100BD000617368757020666F722067656E36204697
:100BE00049524D574152455F55524C3A68747470A2
:100BF000733A2F2F6769746875622E636F6D2F4586
:100C000072696B5A616C6D2F4D61726C696E2F2029
:100C100050524F544F434F4C5F56455253494F4EDD
:100C20003A312E30204D414348494E455F5459508A
:100C3000453A4D656E64656C20455854525544459F
:100C4000525F434F554E543A3220555549443A303D
:100C5000303030303030302D303030302D3030309A
:100C6000302D303030302D3030303030303030308A
:100C70003030300A0020423A0020453A00543A0011
:100C800020573A0020453A00543A002042403A00AA
:100C900020403A00202F003A00205400202F00204E
:100CA000423A00202F006F6B20543A000A0A00538A
:100CB00074616E6461726420446576696174696F01
:100CC0006E3A20000A004D65616E3A20000A00204D
:100CD00020207A3A200000793A2000783A20003F1C
:100CE000537065636966696564206E756D626572CF
:100CF000206F66206C65677320696E206D6F766566
:100D00006D656E74206E6F7420706C6175736162B6
:100D10006C652E0A003F53706563696669656420DF
:100D20005920706F736974696F6E206F7574206FCE
:100D3000662072616E67652E0A003F5370656369B5
:100D400066696564205820706F736974696F6E20DE
:100D50006F7574206F662072616E67652E0A003FA2
:100D60005370656369666965642073616D706C6555
:100D70002073697A65206E6F7420706C6175736181
:100D8000626C652E0A0046756C6C20737570706F0E
:100D900072742061743A20687474703A2F2F33642F
:100DA0007072696E74626F6172642E636F6D2F660C
:100DB0006F72756D2E7068700A004D3438205A2D90
:100DC00050726F6265205265706561746162696C12
:100DD00069747920746573742E20202056657273AF
:100DE000696F6E20322E30300A003F566572626F96
:100DF0007365204C6576656C206E6F7420706C6135
:100E0000757361626C652E0A002569206D696E2C10
:100E100020256920736563004732382058302059F7
:100E20003000456E642066696C65206C69737400DF
:100E3000426567696E2066696C65206C6973740031
:100E40000A00205A3A200020593A200020583A201F
:100E500000426564000A0020616E7469686F726107
:100E600072690A3A200020686F726172690A200074
:100E70002F3800766F6C746573200020566F6C7489
:100E8000657320636172676F6C20333A20002061C4
:100E90006E7469686F726172690A3A200020686F27
:100EA000726172690A20002F3800766F6C74657366
:100EB000200020566F6C74657320636172676F6CDD
:100EC00020323A200020616E7469686F7261726925
:100ED0000A3A200020686F726172690A20002F3878
:100EE00000766F6C746573200020566F6C746573A8
:100EF00020636172676F6C20313A20000A00206421
:100F00007A333A200020647A323A200020647A3121
:100F10003A20000A00207A633A2000543000486FDB
:100F20006D6520582F59206265666F7265205A00E2
:100F30000A00207A3A200020793A200020783A20CE
:100F40000042656400486F6D6520582F5920626526
:100F5000666F7265205A00457874727564657220F8
:100F60006163746976653A20002200556E6B6E6F7E
:100F7000776E20636F6D6D616E643A202200256983
:100F800020686F757273202569206D696E757465B0
:100F90007300446F6E65207072696E74696E6720AD
:100FA00066696C650070617573652064657465635E
:100FB000746564200A00473639005072696E7465A2
:100FC000722073746F707065642064756520746F2F
:100FD000206572726F72732E20466978207468657E
:100FE000206572726F7220616E6420757365204D8A
:100FF00039393920746F20726573746172742E20D0
:101000002854656D7065726174757265206973200E
:1010100072657365742E205365742069742061664F
:101020007465722072657374617274696E672900E9
:101030006F6B004E6F204C696E65204E756D62655A
:1010400072207769746820636865636B73756D2CB3
:10105000204C617374204C696E653A20004E6F20FD
:10106000436865636B73756D2077697468206C697C
:101070006E65206E756D6265722C204C61737420F4
:101080004C696E653A2000636865636B73756D200B
:101090006D69736D617463682C204C617374204CAE
:1010A000696E653A20004C696E65204E756D62650B
:1010B00072206973206E6F74204C617374204C69C8
:1010C0006E65204E756D6265722B312C204C6173FC
:1010D00074204C696E653A20004D313130004D3836
:1010E0003420582059205A20450053757266696E85
:1010F000672030200A0043616C6962726174696F15
:101100006E205375636365737366756C2C20676F0F
:10111000696E67206261636B20746F206D61696E18
:10112000206D656E75200A005430002564206974B6
:10113000656D73002564206974656D7300256420F6
:101140006974656D73002534643A252E3264682015
:101150002F20256467002564206974656D73005233
:101160006561647920746F20496E736572742F52C3
:10117000656D6F7665200A0074656D70206F6B2059
:101180000A002564252500253364202563430025B6
:1011900033642025634300253364256343202F20D7
:1011A00025336425634300253364256343202F20C2
:1011B00025336425634300253364256343202F20B2
:1011C000253364256343002520336420252500252D
:1011D000642068202564206D0025203364202525A7
:1011E00000253264202563430025336420256343B2
:1011F00000253364202563430052656164792074BF
:101200006F20496E736572742F52656D6F7665201D
:101210000A0074656D70206F6B200A00253364200E
:101220002563430025336420256343002053544F36
:1012300050205052494E54200A004732382058302E
:10124000205930004D333500526573756D6520644B
:1012500065746563746564200A0047373000EFBF2A
:10126000BD524553554D4521200A00EFBFBD5041A9
:1012700055534521200A002533642025634300256A
:101280003364202563430025336420256343002510
:101290003364202563430025336420256343002500
:1012A00033642025634300253364202563430025F0
:1012B00033642025634300253364202563430050B5
:1012C00052494E542053455454494E4753200A0026
:1012D000446F6E6520736176696E672066696C6520
:1012E0002E006F6B004D32390054652070696C6CB4
:1012F000650073746172740030312D312E322E32DC
:101300005243002200656E717565696E6720220088
:101310002200656E717565696E6720220025336451
:1013200020256343002533642025634300456E7404
:10133000657220696E207075726765206D6F6465D7
:10134000200A0053757266696E672031200A0053C7
:10135000757266696E672030200A00473334004991
:101360004E464F3A204245442043414C4942202DAD
:10137000200053757266696E672030200A0047327C
:101380003820583020593000543000537572666947
:101390006E672030200A0047343300473433004D55
:1013A000383400473431004D38340047343000546D
:1013B0003100543000543000543100543100543066
:1013C0000054300054310047343300473433004D6B
:1013D000383400473431004D383400473430004D44
:1013E0003834004D3834004D3834005A32204F66BE
:1013F000667365743A20004F4B207365636F6E64AB
:1014000020457874727564657221005A20706F737C
:101410006974696F6E3A20005A20706F736974693D
:101420006F6E3A20004D3834005A312050726F628E
:1014300065206F66667365743A20004F4B206669BD
:1014400072737420457874727564657221200A0085
:101450005A20706F736974696F6E3A20005A207059
:101460006F736974696F6E3A200043616C63756CC9
:1014700075733A20200043616C63756C75733A2074
:10148000200043616C63756C75733A2020004361E2
:101490006C63756C75733A20200043616C63756CE6
:1014A00075733A20200043616C63756C75733A2044
:1014B000200043616C63756C75733A2020004361B2
:1014C0006C63756C75733A20200043616C63756CB6
:1014D00075733A20200043616C63756C75733A2014
:1014E000200043616C63756C75733A202000436182
:1014F0006C63756C75733A20200043616C63756C86
:1015000075733A20200043616C63756C75733A20E3
:10151000200043616C63756C75733A202000436151
:101520006C63756C75733A20200043616C63756C55
:1015300075733A20200043616C63756C75733A20B3
:10154000200043616C63756C75733A202000436121
:101550006C63756C75733A20200043616C63756C25
:1015600075733A20200043616C63756C75733A2083
:10157000200043616C63756C75733A2020004361F1
:101580006C63756C75733A20200043616C63756CF5
:1015900075733A20200043616C63756C75733A2053
:1015A000200043616C63756C75733A2020004361C1
:1015B0006C63756C75733A20200043616C63756CC5
:1015C00075733A20200043616C63756C75733A2023
:1015D000200043616C63756C75733A202000436191
:1015E0006C63756C75733A20200043616C63756C95
:1015F00075733A20200043616C63756C75733A20F3
:10160000200046696C616D656E742052656D6F7661
:1016100065642C20474F494E4720544F20434C458A
:10162000414E20544845204E4F5A5A454C200A00FE
:1016300046696C616D656E7420496E736572746580
:10164000642F52656D6F7665642C207265747572B7
:101650006E696E6720746F204D61696E204D656EF6
:1016600075200A0054300046696C616D656E742007
:10167000496E7365727465642F52656D6F7665642B
:101680002C20676F696E6720746F2043616C6962FC
:10169000200A0054300046696C616D656E74204903
:1016A0006E7365727465642F52656D6F7665642C18
:1016B00020676F696E6720746F20746865206E659F
:1016C0007874206578747275646572200A005430ED
:1016D0000043616C6962726174696F6E2053756357
:1016E0006365737366756C2C20676F696E67206223
:1016F00061636B20746F206D61696E206D656E751E
:10170000200A005430004A756D70206F7665722093
:1017100073637265773120616E64207363726577DD
:1017200032200A004A756D70206F766572207363EF
:1017300072657731200A0047333400543000473354
:1017400034005430004733340054300054300047E4
:10175000333400494E464F3A204245442043414CE1
:101760004942202D200041646A757374205A446FE9
:10177000776E200A0041646A757374205A55702090
:101780000A0036302064656772656573200A004977
:101790006E73657274696E67203A2020200A0053C8
:1017A000757266696E672030200A0053757266692B
:1017B0006E672030200A0053757266696E672030AC
:1017C000200A002533642025634300253364202547
:1017D0006343002533642025634300456E746572BE
:1017E00020696E207075726765206D6F6465200AD0
:1017F000002533642025634300253364202563439B
:10180000002533642025634300253364202563438A
:10181000002533642025634300253364202563437A
:10182000002533642025634300253364202563436A
:101830000046696C616D656E742052656D6F7665EA
:10184000642C20474F494E4720544F20434C45417C
:101850004E20544845204E4F5A5A454C200A0053BA
:10186000757266696E672030200A0053757266696A
:101870006E672030200A0054300054652070696C77
:101880006C65004D33340053757266696E672030A5
:10189000200A004D3234004D323320257300537539
:1018A0007266696E672030200A002534643A252E5E
:1018B000326468202F2025646700002534643A25AF
:1018C0002E326468202F2025646700002534643A96
:1018D000252E326468202F2025646700002534649B
:1018E0003A252E326468202F2025646700002534B5
:1018F000643A252E326468202F2025646700005347
:10190000757266696E672030200A0053554343455F
:101910005353200A00253364202563430025336494
:101920002025634300253364202563430025336469
:101930002025634300253364202563430025336459
:101940002025634300253364202563430025336449
:101950002025634300253364202563430041646AE6
:10196000757374205A446F776E200A0041646A755B
:101970007374205A5570200A00496E736572746939
:101980006E67203A2020200A002533642025634317
:1019900000253364202563430025336420256343F9
:1019A00000456E74657220696E20707572676520DF
:1019B0006D6F6465200A004D333300FF01FF0000A6
:1019C000A0400000A04000000040CDCC9843008023
:1019D0009343000052430000000000809343000046
:1019E0000000CDCC98430080934300005243000098
:1019F000000000000000000000006563686F3A000E
:101A00004572726F723A0020636F6C64206578745F
:101A1000727573696F6E2070726576656E74656439
:101A2000006563686F3A003B202020506C6173743E
:101A30006963207765696768743A2025642E256498
:101A400067003B46696C616D656E742075736564F3
:101A50003A2025642E25646D2025642E25646700B8
:101A60003B2020204275696C642074696D653A20C2
:101A7000256420686F7572202564206D696E757409
:101A80006573003B2020204275696C642074696D89
:101A9000653A20256420686F757273202564206D77
:101AA000696E75746573003B5072696E7420746959
:101AB0006D653A202564206D696E75746573003B11
:101AC0005072696E742074696D653A2025642068CF
:101AD0006F7572202564206D696E75746573003BA7
:101AE0005072696E742074696D653A2025642068AF
:101AF0006F757273202564206D696E75746573004F
:101B00003B5072696E742074696D653A20256420BB
:101B10006461797320256420686F757220256420C4
:101B20006D696E75746573003B5072696E742074D4
:101B3000696D653A202564206461792025642068F8
:101B40006F7572202564206D696E75746573003B36
:101B50005072696E742074696D653A202564206442
:101B6000617920256420686F757273202564206D6B
:101B7000696E75746573003B5072696E7420746988
:101B80006D653A202564206461797320256420689E
:101B90006F757273202564206D696E7574657300AE
:101BA0003B20472D436F64652067656E65726174E5
:101BB00065642062792053696D706C69667933447D
:101BC0002852292056657273696F6E202564007C47
:101BD0003C3E5E2B3D3F2F5B5D3B2C2A225C002070
:101BE0005A3A0020593A0020583A00656E647374DE
:101BF0006F7073206869743A200024F4D43050C3A5
:101C00008E20C2A24017828B7011127A910D816CC6
:101C1000D90AA861E108C7586607615143061E4BFF
:101C20005D05C145A7041A411104093D98037139A6
:101C300031034036DB0265339102D4305402802EEA
:101C40001D02632CEE01752AC501B028A0011027E2
:101C500081018F2564012B244B01E0223401AC214A
:101C60001F018D200D01801FFC00841EED00971DBB
:101C7000DF00B81CD200E61BC600201BBC00641AA3
:101C8000B200B219A8000A19A0006A189900D11769
:101C9000910040178B00B516840031167E00B315F5
:101CA00079003A157300C7146F0058146A00EE13D8
:101CB00066008813630025135E00C7125B006C1278
:101CC000570015125400C111510070114F0021111D
:101CD0004B00D61049008D104700461044000210FA
:101CE0004200C00F4000800F3E00420F3C00060F34
:101CF0003B00CB0E3800930E37005C0E3500270EEC
:101D00003400F30D3200C10D3100900D3000600D34
:101D10002E00320D2D00050D2C00D90C2B00AE0C21
:101D20002900850C29005C0C2700350C27000E0CBF
:101D30002600E80B2400C40B2400A00B23007D0B1D
:101D400023005A0B2100390B2100180B2000F80A40
:101D50001F00D90A1E00BB0A1E009D0A1D00800A32
:101D60001D00630A1C00470A1B002C0A1B00110AF5
:101D70001A00F7091A00DD091900C4091900AB0996
:101D80001900920917007B091800630917004C0914
:101D9000160036091600200916000A091500F50874
:101DA0001500E0081400CC081400B8081400A408BA
:101DB0001400900813007D0812006B0813005808E7
:101DC00012004608120034081100230811001208FE
:101DD000110001081100F0071000E0071000D00703
:101DE0001000C0071000B0070F00A10710009107F6
:101DF0000E0083070F0074070F0065070E005707DA
:101E00000E0049070E003B070D002E070E002007AD
:101E10000D0013070D0006070D00F9060C00ED0676
:101E20000D00E0060C00D4060C00C8060C00BC0631
:101E30000C00B0060C00A4060B0099060C008D06E1
:101E40000B0082060B0077060B006C060B00610688
:101E50000A0057060B004C060A0042060A00380624
:101E60000A002E060A0024060A001A060A001006B6
:101E7000090007060A00FD050900F4050900EB0545
:101E80000900E2050900D9050900D0050900C705C8
:101E90000900BE050900B5050800AD050800A50547
:101EA00009009C050800940508008C0508008405BD
:101EB00008007C050800740508006C05070065052E
:101EC00008005D050700560508004E050700470598
:101ED00007004005080038050700310507002A05FE
:101EE0000700230507001C050600160507000F055F
:101EF00007000805060002050700FB040600F504BC
:101F00000700EE040600E8040600E2040700DB0414
:101F10000600D5040600CF040600C9040600C30469
:101F20000600BD040600B7040600B1040500AC04B9
:101F30000600A6040600A00405009B040600950404
:101F40000500900406008A0405008504050080044D
:101F500006007A04050075040500700405006B0492
:101F6000050066040500610405005C0405005704D3
:101F70000500520405004D04050048040500430413
:101F800005003E0404003A04050035040500300451
:101F900004002C04050027040400230405001E048B
:101FA00004001A04040016040500110404000D04C2
:101FB0000400090405000404040000040400FC03F8
:101FC0000400F8030400F4030400F0030400EC032D
:101FD0000400E8030400E4030400E0030400DC035D
:101FE0000400D8030400D4030400D0030400CC038D
:101FF0000400C8030300C503030024F404D9201B14
:10200000C40C5C0E9804C4095F0265077101F405F5
:10201000F900FB04B30048048700C10369005803BA
:10202000550003034500BE023A008402310053020A
:102030002A002902250004022000E4011C00C80136
:102040001900AF01170098011400840113007101F9
:1020500010006101100051010E0043010D00360116
:102060000B002B010B0020010B00150109000C01D6
:10207000090003010800FB000800F3000800EB0062
:102080000700E4000600DE000600D8000600D200CB
:102090000600CC000500C7000500C2000500BD0019
:1020A0000400B9000400B5000400B1000400AD0054
:1020B0000400A9000400A5000300A20003009F0083
:1020C00004009B00030098000300950002009300A9
:1020D0000300900003008D0002008B0003008800C5
:1020E00002008600020084000300810002007F00DD
:1020F00002007D0002007B000200790002007700F0
:1021000001007600020074000200720001007100FC
:1021100002006F0002006D0001006C0002006A0006
:10212000010069000200670001006600010065000F
:102130000100640002006200010061000100600013
:1021400001005F0002005D0001005C0001005B0017
:1021500001005A0001005900010058000100570019
:102160000100560001005500010054000100530019
:102170000000530001005200010051000100500016
:1021800001004F0001004E0000004E0001004D0014
:1021900001004C0001004B0000004B0001004A0010
:1021A000010049000100480000004800010047000C
:1021B0000100460000004600010045000000450007
:1021C0000100440001004300000043000100420000
:1021D00000004200010041000000410001004000F9
:1021E00001003F0000003F0001003E0000003E00F3
:1021F00001003D0000003D0001003C0000003C00EB
:1022000000003C0001003B0000003B0001003A00E0
:1022100000003A00010039000000390001003800D8
:1022200000003800000038000100370000003700CF
:1022300001003600000036000000360001003500C5
:1022400000003500000035000100340000003400BB
:1022500000003400010033000000330000003300B0
:1022600001003200000032000000320001003100A5
:10227000000031000000310001003000000030009B
:102280000000300001002F0000002F0000002F0090
:1022900000002F0001002E0000002E0000002E0084
:1022A00001002D0000002D0000002D0000002D0079
:1022B00001002C0000002C0000002C0000002C006D
:1022C00001002B0000002B0000002B0000002B0061
:1022D00001002A0000002A0000002A0000002A0055
:1022E0000100290000002900000029000000290049
:1022F000000029000100280000002800000028003C
:10230000000028000000280001002700000027002E
:102310000000270000002700000027000100260021
:102320000000260000002600000026000000260015
:102330000100250000002500000025000000250008
:1023400000002500000025000100240000002400FA
:1023500000002400000024000000240001002300ED
:1023600000002300000023000000230000002300E1
:1023700000002300000023000100220000002200D2
:1023800000002200000022000000220000002200C5
:1023900001002100000021000000210000002100B8
:1023A00000002100000021000000210001002000A9
:1023B000000020000000200000002000000020009D
:1023C00000002000000020000000200001001F008D
:1023D00000001F0000001F0000001F0000001F0081
:1023E00000001F0000001F0001001E0000001E0072
:1023F00000001E0000001E0000006563686F3A00C8
:10240000546865726D616C2052756E617761792CCC
:102410002073797374656D2073746F7070656421B7
:10242000204865617465725F49443A200020535426
:102430004F50205052494E54200A002053544F50C0
:10244000205052494E54200A002053544F502050DF
:1024500052494E54200A004572726F72283833294F
:102460003A2042656420746865726D6973746F7296
:10247000206E6F74206465746563746564004572D2
:10248000726F72283832293A205269676874207452
:102490006865726D6973746F72206E6F7420646505
:1024A000746563746564004572726F7228383129EF
:1024B0003A204C65667420746865726D6973746F38
:1024C00072206E6F742020646574656374656400A7
:1024D000504944204175746F74756E652066696E4D
:1024E00069736865642100504944204175746F74B4
:1024F000756E65206661696C6564212074696D651F
:102500006F75740020403A006F6B20543A006F6B77
:1025100020423A00504944204175746F74756E65CD
:10252000206661696C6564212054656D7065726117
:102530007475726520746F6F206869676800204B3E
:10254000643A2000204B693A2000204B703A20006A
:1025500020436C6173736963205049442000205408
:10256000753A2000204B753A2000206D61783A20A2
:1025700000206D696E3A200020643A2000206269D4
:1025800061733A2000504944204175746F74756E30
:10259000652066696E6973686564212050757420D2
:1025A000746865206C617374204B702C204B69201B
:1025B000616E64204B6420636F6E7374616E74731C
:1025C0002066726F6D2061626F766520696E746F30
:1025D00020436F6E66696775726174696F6E2E68ED
:1025E00000504944204175746F74756E65206661B2
:1025F000696C6564212074696D656F757400204095
:102600003A006F6B20543A006F6B20423A005049F9
:1026100044204175746F74756E65206661696C65E0
:1026200064212054656D70657261747572652074E3
:102630006F6F206869676800204B643A2000204B68
:10264000693A2000204B703A200020436C6173737C
:1026500069632050494420002054753A2000204BE3
:10266000753A2000206D61783A2000206D696E3A3D
:10267000200020643A200020626961733A200045FE
:1026800072726F723A0070012C0190012701B00143
:102690002201C0011D01F0011801100213013002D6
:1026A0000E016002090190020401C002FF00000354
:1026B000FA004003F5008003F000D003EB00200493
:1026C000E6007004E100E004DC004005D700C0052E
:1026D000D2004006CD00D006C8008007C3003008F5
:1026E000BE00F008B900C009B400B00AAF00B00BDA
:1026F000AA00D00CA500000EA000500F9B00C01037
:1027000096005012910000148C00C0158700B0177D
:102710008200B0197D00D01B7800001E730040209D
:102720006E0090226900F024640040275F00902929
:102730005A00E02B5500102E500020304B00103274
:102740004600E033410090353C00103737007038C8
:102750003200A0392D00B03A2800A03B2300603C95
:102760001E00103D1900903D1400103E0F00703EF9
:102770000A00C03E0500003F000000000A0B0209ED
:102780000C0D0E080703040100000000000000000B
:102790000000000000000000000000000000000039
:1027A00000000000000012111000000000000000F6
:1027B0000000000000000000000000000000000019
:1027C0000102102020080810204010204080020143
:1027D0000201080402010102040810204080804028
:1027E0002010080402018004020180402010080427
:1027F00002010804020101020408102040800102C5
:10280000040810204080050505050705080808088C
:10281000020202020A0A0808040404040101010178
:102820000101010103030303030303030407070773
:102830000C0C0C0C0C0C0C0C020202020606060618
:10284000060606060B0B0B0B0B0B0B0B00002000F8
:102850002300260029002C002F0032000001000078
:1028600003010601090100002200250028002B00B9
:102870002E003100340002010000050108010B01A7
:1028800000002100240027002A002D003000330022
:1028900001010000040107010A014E414E494E4961
:1028A0005459494E46CDCCCC3D0AD7233C17B7D11D
:1028B0003877CC2B329595E6241FB14F0A000020C3
:1028C000410000C84200401C4620BCBE4CCA1B0E42
:1028D0005AAEC59D746364696E6F70737578585B8A
:1028E00000003F15273E1701E100CB002F01112406
:1028F0001FBECFEFD1E2DEBFCDBF00E00CBF19E0BD
:10290000A0E0B2E0EAECFEE503E00BBF02C00790F6
:102910000D92A43CB107D9F72CE1A4ECB9E001C0B9
:102920001D92A434B207E1F718E2CCEED8E200E041
:1029300006C022970109FE010BBF0F94A1A3C23E5E
:10294000D10780E00807A9F70F94569A0D9453AF6A
:102950000C9400008091F30990E02091F409821B0F
:10296000910908952091F4098091F309281750F4F2
:10297000E22FF0E0EB50F64F808190E02F5F209344
:10298000F40908958FEF9FEF0895E091F409809185
:10299000F309E81730F4F0E0EB50F64F808190E057
:1029A00008958FEF9FEF08950895CF92DF92EF92F1
:1029B000FF920F931F93CF93DF937C01CB018A018A
:1029C0002091D009222389F0EB016B01C40ED51EA2
:1029D000CC15DD0561F06991D701ED91FC91019075
:1029E000F081E02DC7011995F3CF642F4BD0C801BA
:1029F000DF91CF911F910F91FF90EF90DF90CF90DB
:102A00000895CF93DF931F92CDB7DEB769832091EE
:102A1000D0092223D1F02091D109203240F021E0C9
:102A200030E0FC013383228380E090E014C0809189
:102A3000D209E82FF0E0ED52F64F998190838F5F35
:102A40008093D2098093D10904C061E0CE01019640
:102A500019D081E090E00F90DF91CF910895FC01B3
:102A60001382128248EE53E060E070E044835583A5
:102A70006683778382E593E091838083089584EC75
:102A800099E0EDCF613298F42091820A243089F4E4
:102A90006093370AFC0189E39AE0DC012A2F281BA6
:102AA000261718F421912D93F9CF80E0089581E045
:102AB000089582E0089585ED8093BC008091BC006C
:102AC00084FDFCCF1092820A089585EC8093BC00AF
:102AD0001092820A08951F920F920FB60F9211243E
:102AE0000BB60F922F933F934F935F936F937F9308
:102AF0008F939F93AF93BF93EF93FF938091B90010
:102B0000887F803609F49DC070F5883209F45CC076
:102B100090F4803109F455C038F4882309F4F3C0E7
:102B2000883009F44EC0F2C0883109F44DC08032BB
:102B300009F45EC0EBC0803409F469C050F48033FE
:102B400009F456C0883309F0E1C08093150ABDDF4F
:102B5000DDC0803509F44FC0883509F45DC0883484
:102B600009F0D4C0D2C0883909F4C3C0A8F48837AA
:102B700009F467C038F4883609F463C0803709F473
:102B800060C0C4C0883809F4B4C0803909F45FC09B
:102B9000803809F0BBC05BC0803B09F482C038F4C8
:102BA000803A09F466C0883A09F47BC0AFC0803C23
:102BB00009F4A3C0883C09F4A0C0883B09F486C08E
:102BC000A5C08091810A10C090915A0A8091590A3B
:102BD000981770F5E0915A0A81E08E0F80935A0A97
:102BE000F0E0E55AF54F80818093BB0085EC82C010
:102BF0008093150A8AC0E0915A0A81E08E0F809373
:102C00005A0A8091BB00F0E0E55AF54F808390911D
:102C10005A0A8091590A6AC0E0915A0A81E08E0FDF
:102C200080935A0A8091BB00F0E0E55AF54F80830B
:102C30008091800A811169C081E080937F0A84EAD3
:102C40005DC083E08093820A1092160ACFCF8091F4
:102C5000160A803208F04DC0E091160A81E08E0F0E
:102C60008093160A8091BB00F0E0E95EF54F808307
:102C7000BDCF2BDF8091160A803230F4E091160A26
:102C8000F0E0E95EF54F10826091160A70E0E09185
:102C90007B0AF0917C0A87E19AE019951092160A56
:102CA00035C084E08093820A1092380A1092370A65
:102CB000E0917D0AF0917E0A19958091370A811181
:102CC00005C081E08093370A1092390AE091380AF2
:102CD00081E08E0F8093380AF0E0E75CF54F808149
:102CE0008093BB009091380A8091370A981708F4B6
:102CF0007DCF85E88093BC0009C085EC8093BC0043
:102D00001092820A03C01092150AD5DEFF91EF914E
:102D1000BF91AF919F918F917F916F915F914F91F3
:102D20003F912F910F900BBE0F900FBE0F901F90F1
:102D30001895FC0114821782138212828CE898E0A5
:102D4000918380830895DC01ED91FC910190F081E5
:102D5000E02D19942CE838E0FC0131832083278191
:102D6000222319F004960D9444670895CF92DF92C0
:102D7000EF92FF920F931F93CF93DF93EC01895A49
:102D80009F4FD7DFCE0188589F4FD3DF7E0127E9C1
:102D9000E20EF11C87016E0133E3C31A3EEFD30A42
:102DA000C801C7DF015E1F4F0C151D05C9F7FE01E5
:102DB000E153FE4F89E1818314823596178ACE0153
:102DC0008E509E4FB6DFFE01ED55FD4F10821182F1
:102DD00012821382389610821182128213821A8212
:102DE0001B821C82188219826E0189E5C81A8DEF38
:102DF000D80AF6011082118212821382F801118220
:102E00001082FE01EF5EFD4F108286E391E0F70134
:102E10009C01119221503040E1F7FE01E155FD4F38
:102E200081E08083CB5ADF4F198218820F94199565
:102E300068577C4E8F4F9F4FF6016083718382836A
:102E40009383DF91CF911F910F91FF90EF90DF90CF
:102E5000CF900895FC0120E03EE2DB014C9140322E
:102E600041F0283011F430833196DB014C914083DE
:102E700031962F5F6F5F7F4F2B3079F71082089567
:102E80002F923F924F925F926F927F928F929F927A
:102E9000AF92BF92CF92DF92EF92FF920F931F9368
:102EA000CF93DF93CDB7DEB7C858D1090FB6F894EA
:102EB000DEBF0FBECDBF8C016B017A01CA57DF4F59
:102EC0001882C658D04084E0E80EF11C180192E147
:102ED000290E311CF801EC5AFF4FC957DF4FF98317
:102EE000E883C758D0405801F0E5AF1AFDEFBF0A9C
:102EF00038018EE4681A8DEF780A80E4482E512C50
:102F00004C0E5D1E94E0490E511CA101BE016F5F85
:102F10007F4FC7010F94AE6518160CF009C12C85C0
:102F2000322F3871303109F091C0F50180819181E3
:102F30000197029708F48AC0BE016F5F7F4FCE01F0
:102F400087589F4F87DFA0961FAEA097F60180811C
:102F5000811107C06EE573E0CE01815A9F4F0F9437
:102F6000CBA8B601CE01815A9F4F0F94CBA8BE01CA
:102F700067587F4FCE01815A9F4F0F94CBA86EE5C3
:102F800073E0CE01815A9F4F0F94CBA8CE01805C95
:102F90009F4FCFDE21E0AE0147585F4FB701C2011E
:102FA0000F943B6981112EC0F50180819181892B9D
:102FB00049F5E3E8F4E064914F01662361F0772777
:102FC00067FD709584E09BE1BEDEFFEF8F1A9F0ADC
:102FD000F4016491F2CF60E673E084E09BE10F942A
:102FE000A09A6AE070E084E09BE1ADDEBE01675824
:102FF0007F4F84E09BE10F94A09A6AE070E084E048
:103000009BE1A1DE8BE1FE01EC5BFF4FDE019596BB
:1030100001900D928A95E1F724968EAD9FAD24978D
:103020009CA38BA38CE898E09AA389A3AE014F5D83
:103030005F4FBE01615A7F4FC80122DFCE018196EA
:1030400089DECE01805C9F4F85DE5FCF898188233A
:1030500009F46EC0853E09F458CF8E3209F455CF7D
:103060008F3509F452CFF8018289882331F08E32EE
:1030700009F44BCF8F3509F448CF23FD46CF81E0CB
:10308000303109F080E0C957DF4FE881F981C75836
:10309000D0408083811108C08985873409F035CFFD
:1030A0008A858E3709F431CF4801F5E08F0E911CE7
:1030B000BE016F5F7F4FC401CDDEF501808191813C
:1030C000009781F4B60184E09BE10F94A09AB401CB
:1030D00084E09BE10F94A09A6AE070E084E09BE1B9
:1030E00032DE13CF8130910539F4F3018081918173
:1030F00001969183808309CF029709F006CFCA57C2
:10310000DF4FF881C658D0402F2F30E0F301808187
:1031100091812817390761F0CA57DF4FF881C658E7
:10312000D040FF5FCA57DF4FF883C658D040EDCE7E
:10313000C857DF4F0FB6F894DEBF0FBECDBFDF918B
:10314000CF911F910F91FF90EF90DF90CF90BF90A4
:10315000AF909F908F907F906F905F904F903F9037
:103160002F9008950F931F93CF93DF93CDB7DEB7C2
:103170006F970FB6F894DEBF0FBECDBF8C01FC0178
:10318000E055FD4F1182108240E050E0BA01855AAF
:103190009F4F0F946166C801895A9F4F2BE1FC0134
:1031A0003496DE01159601900D922A95E1F7FC0107
:1031B000828193819C838B838CE898E09A838983B6
:1031C000AE014F5F5F4F67EB79E0C80159DECE017A
:1031D0000196C0DD6F960FB6F894DEBF0FBECDBF6F
:1031E000DF91CF911F910F9108952BE1FB01349650
:1031F000DC01149601900D922A95E1F7FB012281E2
:103200003381FC01338322830895EF92FF920F9361
:103210001F93CF93DF93EC011C82FC01E25AFF4F16
:103220008081882329F0CE01855A9F4F0F944467EF
:103230007E0181E3E81A8EEFF80A45E360E0C701FA
:103240000F94C56181113AC0E3E8F4E064918F0105
:10325000662359F0772767FD709584E09BE173DD65
:103260000F5F1F4FF8016491F3CFE6E7F4E064913C
:103270008F01662359F0772767FD709584E09BE105
:1032800062DD0F5F1F4FF8016491F3CF6AE070E0D9
:1032900084E09BE158DD8E01095A1F4FB801CE0131
:1032A00088589F4FA2DFCA58DF4F19830883DF91E8
:1032B000CF911F910F91FF90EF9008958E010C52C6
:1032C0001E4F41E0B701C8010F942E6F81112AC033
:1032D00040E0B701C8010F942E6F811123C0E9E8C7
:1032E000F4E064918F01662359F0772767FD7095AC
:1032F00084E09BE128DD0F5F1F4FF8016491F3CF5D
:10330000E3E6F4E064918F01662309F4BFCF7727E9
:1033100067FD709584E09BE116DD0F5F1F4FF8019C
:103320006491F2CFB801CE01855A9F4F0F94526439
:10333000811123C0E9E8F4E064918F01662359F01C
:10334000772767FD709584E09BE1FDDC0F5F1F4FE1
:10335000F8016491F3CFE3E5F4E064918F01662313
:1033600009F494CF772767FD709584E09BE1EBDC4F
:103370000F5F1F4FF8016491F2CF81E08C83E3E887
:10338000F4E064918F01662359F0772767FD70950B
:1033900084E09BE1D8DC0F5F1F4FF8016491F3CF0D
:1033A000E8E4F4E064918F01662309F46FCF772796
:1033B00067FD709584E09BE1C6DC0F5F1F4FF8014D
:1033C0006491F2CFFC01128214820895CF93DF93AF
:1033D000EC018C818823B9F063E773E084E09BE122
:1033E0000F94A09A40917C0D50917D0D60917E0DBF
:1033F00070917F0D22E030E084E09BE10F948A9C85
:1034000081E08A831B82DF91CF910895FC01828144
:10341000882319F0128281E083830895AF92BF92CE
:10342000CF92DF92EF92FF920F931F93CF93DF9390
:103430001F92CDB7DEB78C018FE2FB0181935F0154
:10344000D12C41E07801F3E3EF1AFEEFFF0A9FE190
:10345000C92E2D2D30E0F701808191812817390781
:10346000D8F4C29EC001C39E900D112485569F4F73
:10347000B501800F911F49830F94F963C5014981FC
:103480005C010196F5012081222321F04D3810F4D2
:103490004F5FF6CFD394DDCF47FD11C0B501C80112
:1034A0008A509E4F0F90DF91CF911F910F91FF9007
:1034B000EF90DF90CF90BF90AF900D94F963F5013E
:1034C00010820F90DF91CF911F910F91FF90EF909D
:1034D000DF90CF90BF90AF9008953F924F925F9250
:1034E0006F927F928F929F92AF92BF92CF92DF9214
:1034F000EF92FF920F931F93CF93DF93CDB7DEB779
:10350000AC970FB6F894DEBF0FBECDBF8C016B0138
:10351000342EFC018481882309F4D0C2E750FE4F89
:103520008081882309F407C12111D1C07801FFEE01
:10353000EF1AFDEFFF0AF7018081882309F432C0FA
:10354000E9E8F4E064918F01662359F0772767FD7D
:10355000709584E09BE1F7DB0F5F1F4FF8016491EA
:10356000F3CFE5E0F4E064918F01662359F077270B
:1035700067FD709584E09BE1E6DB0F5F1F4FF8016C
:103580006491F3CF4AE050E061E070E084E09BE1B9
:103590000F944F9B6AE070E084E09BE1D4DB0E94D3
:1035A000CF9E8CC2E3E8F4E064915F01662361F092
:1035B000772767FD709584E09BE1C5DBFFEFAF1ACD
:1035C000BF0AF5016491F2CFECEEF3E064915F0184
:1035D000662361F0772767FD709584E09BE1B3DB9C
:1035E000FFEFAF1ABF0AF5016491F2CFB60184E094
:1035F0009BE10F94A09AE1EEF3E064915F016623F2
:1036000061F0772767FD709584E09BE19CDBFFEF1D
:10361000AF1ABF0AF5016491F2CFF70180812DE85E
:10362000B22EB801B89E600D711D11246A5E7D4FE7
:10363000C801F4DEF7018081B801B89E600D711DEC
:1036400011246A5E7D4F84E09BE10F94A09AEBED1C
:10365000F3E064915F01662361F0772767FD709561
:1036600084E09BE170DBFFEFAF1ABF0AF5016491C4
:10367000F2CF5801F5E5AF1AFDEFBF0AF501408121
:103680005181628173812AE030E084E09BE10F94F4
:103690007C9B6AE070E084E09BE155DBF7012081D0
:1036A000F80184E0289FE00DF11D1124AF014E5E6A
:1036B0005D4FF50180819181A281B381FA01808300
:1036C0009183A283B3832F5FF70120832EC0E3E8A9
:1036D000F4E064917F01662361F0772767FD7095C0
:1036E00084E09BE130DBFFEFEF1AFF0AF701649102
:1036F000F2CFEAECF3E064917F01662361F0772773
:1037000067FD709584E09BE11EDBFFEFEF1AFF0A77
:10371000F7016491F2CFB60184E09BE10F94A09A87
:103720006AE070E084E09BE10EDBC8018A509E4FA6
:103730000F94446732C0F801EF5EFD4F1082E3E85A
:10374000F4E064917F01662361F0772767FD70954F
:1037500084E09BE1F8DAFFEFEF1AFF0AF7016491CA
:10376000F2CFE9EBF3E064917F01662361F0772704
:1037700067FD709584E09BE1E6DAFFEFEF1AFF0A40
:10378000F7016491F2CFB60184E09BE10F94A09A17
:103790006AE070E084E09BE1D6DAF8011282CE01A3
:1037A00001965C01C6DA280196E7490E511CC80152
:1037B000895A9F4FF20191838083F60180818F3275
:1037C00009F07BC06FE270E0C6010F94D6A80196A5
:1037D0007C01E114F10409F476C06FE270E0C701E6
:1037E0000F94D6A84C01009709F46EC0E816F906AC
:1037F00008F06AC03C016E187F08A301B701CE0132
:1038000080960F94FFA8E0E2F0E0EC0FFD1FE60DBC
:10381000F71D1082BE01605E7F4F84E09BE10F9434
:10382000A09A6AE070E084E09BE18DDAF2016081A9
:1038300071816115710519F06C5F7F4F02C060E006
:1038400070E021E0AE01405E5F4FCE0105960F941F
:103850003B6981112AC0E5EAF3E064918F01662398
:1038600059F0772767FD709584E09BE16CDA0F5F74
:103870001F4FF8016491F3CFBE01605E7F4F84E07B
:103880009BE10F94A09AE3EAF3E064918F01662331
:1038900009F40DC1772767FD709584E09BE153DA49
:1038A0000F5F1F4FF8016491F2CFF201B182A08245
:1038B0007401FFEFEF1AFF0A8CCFC80188589F4FA1
:1038C000F201918380837601C8018A509E4F4C019A
:1038D000F20160817181332009F49AC0611571058C
:1038E00019F06C5F7F4F02C060E070E021E0A7013B
:1038F000C4010F943B69882309F462C0F4018189F3
:103900009289A389B489F801ED55FD4F8083918395
:10391000A283B383E5E9F3E064914F01C8018D55BB
:103920009D4F6C01662361F0772767FD709584E0F9
:103930009BE109DA9FEF891A990AF4016491F2CFA9
:10394000B70184E09BE10F94A09AEDE8F3E0649165
:103950007F01662361F0772767FD709584E09BE126
:10396000F2D9FFEFEF1AFF0AF7016491F2CFF601E7
:1039700040815181628173812AE030E084E09BE1E3
:103980000F947C9B6AE070E084E09BE1DCD9F80155
:10399000E555FD4F1082118212821382EFE7F3E0AA
:1039A00064918F01662309F482C0772767FD7095C3
:1039B00084E09BE1C8D90F5F1F4FF8016491F2CFFB
:1039C000EBE6F3E064918F01662359F0772767FDFA
:1039D000709584E09BE1B7D90F5F1F4FF8016491A8
:1039E000F3CFB70184E09BE10F94A09AE9E6F3E0FE
:1039F00064918F01662309F45AC0772767FD70959B
:103A000084E09BE1A0D90F5F1F4FF8016491F2CFD2
:103A10006115710519F06C5F7F4F02C060E070E0C6
:103A200026E5A701C4010F943B69811127C0E5E594
:103A3000F3E064918F01662359F0772767FD709555
:103A400084E09BE180D90F5F1F4FF8016491F3CFB1
:103A5000B70184E09BE10F94A09AE3E5F3E0649161
:103A60008F01662321F1772767FD709584E09BE144
:103A70006AD90F5F1F4FF8016491F3CF81E0F8011D
:103A80008083E1E4F3E064918F01662359F07727A6
:103A900067FD709584E09BE156D90F5F1F4FF801D9
:103AA0006491F3CFB60184E09BE10F94A09A6AE0A1
:103AB00070E084E09BE147D9C5014CD9AC960FB6C4
:103AC000F894DEBF0FBECDBFDF91CF911F910F9154
:103AD000FF90EF90DF90CF90BF90AF909F908F902E
:103AE0007F906F905F904F903F90089521E0FC0190
:103AF000218340E0F2CC4F925F926F927F928F923F
:103B00009F92AF92BF92CF92DF92EF92FF920F936C
:103B10001F93CF93DF93CDB7DEB7AC970FB6F89472
:103B2000DEBF0FBECDBF7C015B01FC018481882319
:103B300009F4F9C0C7018A509E4F0F944467F701FA
:103B40001282CE0101966C01F4D8270196E7490E46
:103B5000511CC701895A9F4FF20191838083F5015F
:103B600080818F3209F077C06FE270E0C5010F9459
:103B7000D6A88C010F5F1F4F09F473C06FE270E08D
:103B8000C8010F94D6A84C01009709F46BC0081720
:103B9000190708F067C03C01601A710AA301B80157
:103BA000CE0180960F94FFA8E0E2F0E0EC0FFD1F3D
:103BB000E60DF71D1082BE01605E7F4F84E09BE141
:103BC0000F94A09A6AE070E084E09BE1BCD8F20117
:103BD000608171816115710519F06C5F7F4F02C0C2
:103BE00060E070E021E0AE01405E5F4FCE010596DF
:103BF0000F943B6981112AC0EDE2F3E064918F01DB
:103C0000662359F0772767FD709584E09BE19BD888
:103C10000F5F1F4FF8016491F3CFBE01605E7F4FCD
:103C200084E09BE10F94A09AEBE2F3E064918F01B2
:103C3000662309F471C0772767FD709584E09BE1E6
:103C400082D80F5F1F4FF8016491F2CFF201D18249
:103C5000C08284018FCFC70188589F4FF2019183A2
:103C600080838501F20180819181009711F0049693
:103C700002C080E090E0B8010F94116A882321F11E
:103C8000EDE1F3E064915F01662361F0772767FD62
:103C9000709584E09BE157D8FFEFAF1ABF0AF5019A
:103CA0006491F2CFB80184E09BE10F94A09A6AE09E
:103CB00070E084E09BE147D8F701E555FD4F1082A5
:103CC0001182128213822DC0E5E0F3E064917F013E
:103CD000662361F0772767FD709584E09BE133D818
:103CE000FFEFEF1AFF0AF7016491F2CFB80184E009
:103CF0009BE10F94A09AE3E0F3E064918F016623C7
:103D000059F0772767FD709584E09BE11CD80F5F21
:103D10001F4FF8016491F3CF6AE070E084E09BE10B
:103D200012D8C60117D8AC960FB6F894DEBF0FBEF6
:103D3000CDBFDF91CF911F910F91FF90EF90DF905A
:103D4000CF90BF90AF909F908F907F906F905F903B
:103D50004F9008950F931F93CF93DF93EC018C81C5
:103D6000882309F43EC0E1EFF2E064918F016623FD
:103D700061F0772767FD709584E09BE10E94A316B0
:103D80000F5F1F4FF8016491F2CFFE01E555FD4F23
:103D900040815181628173812AE030E084E09BE1BF
:103DA0000F947C9BEFEEF2E064918F01662361F04B
:103DB000772767FD709584E09BE10E94A3160F5F53
:103DC0001F4FF8016491F2CFCD55DD4F48815981E5
:103DD0006A817B812AE030E084E09BE10F947C9B48
:103DE00011C0EFEDF2E06491EF01662359F07727FF
:103DF00067FD709584E09BE10E94A3162196FE0169
:103E00006491F3CF6AE070E084E09BE1DF91CF91B1
:103E10001F910F910C94A316AF92BF92CF92DF9295
:103E2000EF92FF920F931F93CF93DF935C01EB010F
:103E3000FB0101900020E9F78F0101501109061BD9
:103E4000170B6C01FAE0CF1AFEEFDF0AF6011082C1
:103E50006EE470E0CE010F94D6A87C01009729F49F
:103E6000F8013197EC0FFD1F0DC060E270E00F9478
:103E7000D6A8EC0121966AE270E0C7010F94D6A89B
:103E8000FC0131978DE081838AE082831382BE0139
:103E9000C5018E509E4F0F94D76BF6018081882309
:103EA00091F1E9E8F4E06491EF01662359F0772796
:103EB00067FD709584E09BE10E94A3162196FE01A8
:103EC0006491F3CFE9ECF2E06491EF01662359F0DD
:103ED000772767FD709584E09BE10E94A3162196E9
:103EE000FE016491F3CF6AE070E084E09BE1DF9132
:103EF000CF911F910F91FF90EF90DF90CF90BF90E7
:103F0000AF900C94A316DF91CF911F910F91FF906A
:103F1000EF90DF90CF90BF90AF9008952F923F9297
:103F20004F925F926F927F928F929F92AF92BF92C9
:103F3000CF92DF92EF92FF920F931F93CF93DF9375
:103F4000CDB7DEB7CC55D1090FB6F894DEBF0FBEA2
:103F5000CDBF4C018C0101551D4F662339F0F8018E
:103F60001082F401848181111DC015C0F801808187
:103F7000882309F4AFC0F401E955FD4FC080D1801A
:103F8000E280F3800F941995C616D706E806F90665
:103F900008F4A0C0E4CFC40138D9F4018481882397
:103FA00009F498C07401F5E5EF0EF11CF701818169
:103FB0008F9380818F9380EC92E09F938F938E01FB
:103FC000015C1F4F1F930F930F943CA90F900F900C
:103FD0000F900F900F900F90B12CF80101900020DE
:103FE000E9F73197E01BF10BBE1684F46801CB0CA6
:103FF000D11CB7FCDA94F6018081992787FD909552
:104000000F9474A8F6018083B394E7CFFBE58F0E7D
:10401000911C40E050E0BA01C4010F946166512C3C
:10402000CE0101966C0139EB632E32E0732E5E01F6
:1040300091E2A90EB11C40E050E0B601C4010F941A
:10404000AE651816DCF5412CF60101900020E9F769
:104050003197EC19FD094E1674F41601240C311C2D
:1040600047FC3A94F101808190E00F9474A8F1012B
:1040700080834394E9CF8A858E37E9F245E050E0AA
:10408000B801C6010F94F1A8892BA9F61F930F93CD
:104090007F926F92BF92AF920F943CA9C5010E948C
:1040A000494985EB92E00E94C5490F900F900F900F
:1040B0000F900F900F9055245394BDCF511004C012
:1040C0008FEF9FEFF70104C0F70180819181019686
:1040D00091838083C45ADF4F0FB6F894DEBF0FBEC2
:1040E000CDBFDF91CF911F910F91FF90EF90DF90A7
:1040F000CF90BF90AF909F908F907F906F905F9088
:104100004F903F902F900895EF92FF920F931F933F
:10411000CF93DF931F92CDB7DEB78C017C018AE08D
:10412000E81A8EEFF80AC70169830F94FA66C7018F
:104130000F944467F801108211826981662309F4A3
:10414000EFC08091AB0D9091AC0DA091AD0DB091F1
:10415000AE0D80933B0E90933C0EA0933D0EB0931A
:104160003E0E8091AF0D9091B00DA091B10DB09128
:10417000B20D8093370E9093380EA093390EB09302
:104180003A0E8091B30D9091B40DA091B50DB09100
:10419000B60D8093330E9093340EA093350EB093EA
:1041A000360E8091110D90E09093320E8093310E77
:1041B0004091B70D5091B80D6091B90D7091BA0D45
:1041C00040932D0E50932E0E60932F0E7093300E51
:1041D000F70180859185A285B3858093290E909300
:1041E0002A0EA0932B0EB0932C0E8091DE1A909184
:1041F000DF1A9093260E8093250E8091E01A9091FD
:10420000E11A9093280E8093270E8091DC1A9091EA
:10421000DD1A9093240E8093230E80915C0290917E
:104220005D029093200E80931F0E80910F0D909150
:10423000100D9093220E8093210E8091F50D8093A6
:104240000A0E8091F60D9091F70D90930C0E8093CD
:104250000B0E8091F80D9091F90D90930E0E8093B6
:104260000D0E8091FA0D9091FB0D9093100E80939E
:104270000F0E8091FC0D9091FD0D9093120E809386
:10428000110E8091FE0D9091FF0D9093140E80936E
:10429000130E8091000E9091010E9093160E809354
:1042A000150E8091020E9091030E9093180E80933C
:1042B000170E8091040E9091050E90931A0E809324
:1042C000190E8091060E9091070E90931C0E80930C
:1042D0001B0E8091080E9091090E90931E0E8093F4
:1042E0001D0EE9EAF2E064918F01662361F0772701
:1042F00067FD709584E09BE10E94A3160F5F1F4F3E
:10430000F8016491F2CF6AE070E084E09BE10F90E5
:10431000DF91CF911F910F91FF90EF900C94A31616
:104320000F90DF91CF911F910F91FF90EF90089523
:10433000EF92FF920F931F93CF93DF93CDB7DEB72A
:104340006F970FB6F894DEBF0FBECDBF8C017C0116
:1043500086E7E80EF11CC80188589F4FF70191834A
:104360008083E65CFD4F22E030E03183208332968B
:1043700070E07183608340E050E0BA0104960F94CE
:104380006166F701808191812BE1FC013496DE01A9
:10439000159601900D922A95E1F7FC018281938197
:1043A0009C838B838CE898E09A838983AE014F5F6E
:1043B0005F4F67EB79E0C8010E944017CE0101967C
:1043C0000E94AA166F960FB6F894DEBF0FBECDBF3F
:1043D000DF91CF911F910F91FF90EF900895CF92B1
:1043E000DF92EF92FF920F931F93CF93DF93CDB79E
:1043F000DEB76F970FB6F894DEBF0FBECDBF8C014E
:104400006C0126E7C20ED11C88589F4FF60191839C
:104410008083E65CFD4F21E030E03183208378012A
:10442000FEE4EF1AFDEFFF0AF7011182108240E06F
:1044300050E0BA0104960F946166F6018081918183
:104440002BE1FC013496DE01159601900D922A9520
:10445000E1F7FC01828193819C838B838CE898E057
:104460009A838983AE014F5F5F4F67EB79E0C801A4
:104470000E944017CE0101960E94AA16F701808182
:1044800091816F960FB6F894DEBF0FBECDBFDF915E
:10449000CF911F910F91FF90EF90DF90CF900895F3
:1044A000AF92BF92CF92DF92EF92FF920F931F9342
:1044B000CF93DF93CDB7DEB76F970FB6F894DEBF1B
:1044C0000FBECDBF8C017B01CE0101960E949916D3
:1044D000F801E158FF4F80816801811104C027E590
:1044E000C20ED11C03C088E7C80ED11C21E0A70171
:1044F000B6016C5F7F4FCE0105960F943B69811129
:1045000036C0E3E8F4E064918F01662361F0772719
:1045100067FD709584E09BE10E94A3160F5F1F4F1B
:10452000F8016491F2CFE3E9F2E064918F01662330
:1045300061F0772767FD709584E09BE10E94A316E8
:104540000F5F1F4FF8016491F2CFB70184E09BE148
:104550000F94A09A6AE070E084E09BE10E94A316A9
:10456000CE0101960E94AA168FEF9FEF3AC0F80184
:10457000E353FE4F808191818A30910530F59C0193
:104580002F5F3F4F318320832FE1289F7001299FA8
:10459000F00C1124F7E9EF0EF11CE00EF11E5C01A6
:1045A000B701C7014F960E94F51821E0A21AB10881
:1045B0008FE1E81AF108EFEFAE16BE0689F7B601F3
:1045C000C80189569F4F0E94F518BE016F5F7F4F4B
:1045D000C80188589F4F0E94F518CE0101960E948D
:1045E000AA166F960FB6F894DEBF0FBECDBFDF914F
:1045F000CF911F910F91FF90EF90DF90CF90BF90E0
:10460000AF900895EF92FF920F931F93CF93DF9394
:10461000EC01C353DE4F288139812115310529F181
:1046200021503109398328838C0109561F4FB80165
:1046300088589F4F0E94F518C80100E010E02881BB
:1046400039817C014FE1E40EF11C0217130738F4A5
:104650000F5F1F4FB7010E94F518C701F0CF81E02F
:1046600090E0232B21F080E002C08FEF9FEFDF91DD
:10467000CF911F910F91FF90EF9008958F929F928D
:10468000AF92BF92CF92DF92EF92FF920F931F9360
:10469000CF93DF93EC011092C30D8091400D909168
:1046A000410D01969093410D8093400DD0D28EE83C
:1046B00092E00E94C5490F94AC787E018FEEE81A13
:1046C0008DEFF80AF70180818E010A501E4F882372
:1046D000D9F1C8010F944467F7018081815080832C
:1046E000BE01FDE88F9F600D711D11246A5E7D4F34
:1046F00021E041E0CE010E946D1AF7018081FE01A8
:1047000094E0899FE00DF11D1124EE5EFD4F408184
:10471000518162817381FE01E555FD4F40835183D4
:1047200062837383C8010F946166CE01DF91CF91DC
:104730001F910F91FF90EF90DF90CF90BF90AF90BF
:104740009F908F900C94E6190F943D79C8010F94B7
:1047500044671A8220E030E045E050E06AE070E013
:1047600089E791E10E940D3B8BE892E00E94C549E8
:104770000F94AC7886E892E00E94C5491092DF1A47
:104780001092DE1A1092E11A1092E01A1092DD1ABD
:104790001092DC1A10925E0E10925D0E10925C0E5A
:1047A0006091460D7091470D8091480D9091490D93
:1047B0002CE330E040E050E00F948CA23093430DA6
:1047C0002093420D7093450D6093440DC0908F1758
:1047D000D0909017E0909117F09092172091320DA1
:1047E0003091330D4091340D5091350D6091360D5F
:1047F0007091370D8091380D9091390D0F94E39E93
:104800004B015C012091D3173091D4174091D517FB
:104810005091D6176091D7177091D8178091D917FA
:104820009091DA170F94249FA70196010F94109E80
:104830009B01AC01C501B4010F94309D0F94789E8B
:104840002093320D3093330D4093340D5093350D3A
:104850006093360D7093370D8093380D9093390D1A
:1048600020912A0D30912B0D40912C0D50912D0D42
:1048700060912E0D70912F0D8091300D9091310D22
:104880000F94E39E4B015C012091CB173091CC1724
:104890004091CD175091CE176091CF177091D017DE
:1048A0008091D1179091D2170F94249FA701960160
:1048B0000F94109E9B01AC01C501B4010F94309D73
:1048C0000F94789E20932A0D30932B0D40932C0D3E
:1048D00050932D0D60932E0D70932F0D8093300DFE
:1048E0009093310D2091220D3091230D4091240D94
:1048F0005091250D6091260D7091270D8091280D06
:104900009091290D0F94E39E6B017C012091C317B8
:104910003091C4174091C5175091C6176091C717C1
:104920007091C8178091C9179091CA170F94249F4E
:1049300020919317309194174091951750919617A5
:104940000F94109E9B01AC01C701B6010F94309DDE
:104950000F94789E2093220D3093230D4093240DC5
:104960005093250D6093260D7093270D8093280D8D
:104970009093290DC0909B17D0909C17E0909D17A5
:10498000F0909E1720911A0D30911B0D40911C0D37
:1049900050911D0D60911E0D70911F0D8091200D85
:1049A0009091210D0F94E39E4B015C012091BB1768
:1049B0003091BC174091BD175091BE176091BF1741
:1049C0007091C0178091C1179091C2170F94249FC6
:1049D000A70196010F94109E9B01AC01C501B40183
:1049E0000F94309D0F94789E20931A0D30931B0DD9
:1049F00040931C0D50931D0D60931E0D70931F0D61
:104A00008093200D9093210D2091120D3091130D64
:104A10004091140D5091150D6091160D7091170D68
:104A20008091180D9091190D0F94E39E4B015C013C
:104A30002091B3173091B4174091B5175091B61724
:104A40006091B7177091B8178091B9179091BA1704
:104A50000F94249FA70196010F94109E9B01AC0117
:104A6000C501B4010F94309D0F94789E2093120DD0
:104A70003093130D4093140D5093150D6093160D44
:104A80007093170D8093180D9093190D1092D317F2
:104A90001092D4171092D5171092D6171092D717DC
:104AA0001092D8171092D9171092DA171092CB17CC
:104AB0001092CC171092CD171092CE171092CF17DC
:104AC0001092D0171092D1171092D2171092C317CC
:104AD0001092C4171092C5171092C6171092C717DC
:104AE0001092C8171092C9171092CA171092BB17CC
:104AF0001092BC171092BD171092BE171092BF17DC
:104B00001092C0171092C1171092C2171092B317CB
:104B10001092B4171092B5171092B6171092B717DB
:104B20001092B8171092B9171092BA1790D08AE75E
:104B300092E00E94C54980912A178823F9F01092CB
:104B40002A17C091110DD0E0CC0FDD1FC252D54EF7
:104B500068817981882777FD8095982F0F94E99E49
:104B60002091B2023091B3024091B4025091B5024B
:104B70000F9498A0181614F419821882DF91CF911F
:104B80001F910F91FF90EF90DF90CF90BF90AF906B
:104B90009F908F9008958D559D4FFC01608171818C
:104BA00082819381089585559D4FFC0160817181BB
:104BB000828193810895EF92FF920F931F93CF9379
:104BC000DF931F92CDB7DEB78C017B01460FF70153
:104BD00061917F01F8018081918149830F943AAE00
:104BE000F8018081918101969183808349814E11E2
:104BF000EECF0F90DF91CF911F910F91FF90EF902B
:104C00000895EF92FF920F931F93CF93DF931F921C
:104C1000CDB7DEB78C017B01460FF8018081918111
:104C200049830F9432AEF70181937F01F8018081AF
:104C3000918101969183808349814E11EECF0F902F
:104C4000DF91CF911F910F91FF90EF9008950F93F7
:104C50001F93CF93DF93CDB7DEB768970FB6F89465
:104C6000DEBF0FBECDBF80E390E3A0E3B0E08D8355
:104C70009E83AF83B88704E610E0188F0F8B44E063
:104C8000BE016B5F7F4FCE01479695DF40E16FE835
:104C900077E1CE0147968FDF40E16FE977E1CE0102
:104CA000479689DF40E16FE777E1CE01479683DFE2
:104CB00044E067E777E1CE0147967DDF44E06FE6A9
:104CC00077E1CE01479677DF44E06BE777E1CE01ED
:104CD000479671DF44E06FE577E1CE0147966BDFE1
:104CE00044E06FEA77E1CE01479665DF44E06BE68A
:104CF00077E1CE0147965FDF44E067E677E1CE01DA
:104D0000479659DF44E063E677E1CE01479653DFEB
:104D10004CE06FE87DE0CE0147964DDF87ED90E0F7
:104D20009E8B8D8B8DE290E09C8B8B8B1A8A198ADF
:104D300080EF90E0988B8F8786E490E09E878D8748
:104D40001C861B8642E0BE016B5E7F4FCE014796FC
:104D500032DF42E0BE016D5E7F4FCE0147962BDF12
:104D600042E0BE016F5E7F4FCE01479624DF42E0F6
:104D7000BE01615F7F4FCE0147961DDF42E0BE015D
:104D8000635F7F4FCE01479616DF42E0BE01655F4D
:104D90007F4FCE0147960FDF44E06CE77DE0CE0108
:104DA000479609DF44E06BE272E0CE01479603DFED
:104DB00044E063E372E0CE014796FDDE44E06BE33E
:104DC00072E0CE014796F7DE42E06EEE7DE0CE0166
:104DD0004796F1DE42E062EF7DE0CE014796EBDEE2
:104DE00042E060EF7DE0CE014796E5DE42E06CEE0A
:104DF0007DE0CE014796DFDE42E06EED7DE0CE0144
:104E00004796D9DE42E062EE7DE0CE014796D3DEE2
:104E100042E060EE7DE0CE014796CDDE42E06CEDF3
:104E20007DE0CE014796C7DE42E066EE7DE0CE0132
:104E30004796C1DE42E06AEE7DE0CE014796BBDEDA
:104E400042E068EE7DE0CE014796B5DE42E064EEDA
:104E50007DE0CE014796AFDE42E066ED7DE0CE011B
:104E60004796A9DE42E06AED7DE0CE014796A3DEDB
:104E700042E068ED7DE0CE0147969DDE42E064EDC4
:104E80007DE0CE01479697DE44E061E173E0CE011C
:104E9000479691DE44E069E073E0CE0147968BDEF1
:104EA00044E061E073E0CE01479685DE44E065E1D1
:104EB00073E0CE0147967FDE44E06DE073E0CE0103
:104EC000479679DE44E065E073E0CE01479673DEF5
:104ED00042E06CE47DE0CE0147966DDE42E060E4A6
:104EE0007DE0CE01479667DE42E06EE37DE0CE01D5
:104EF000479661DE42E06CE37DE0CE0147965BDEE3
:104F000042E06AE47DE0CE01479655DE42E06AE386
:104F10007DE0CE0147964FDE80E290E09A87898758
:104F200042E0BE01675F7F4FCE01479644DE42E01C
:104F300066E67EE0CE0147963EDE44E062E67EE035
:104F4000CE01479638DE42E060E67EE0CE0147962D
:104F500032DE42E064E47DE0CE0147962CDE42E0A2
:104F600062E47DE0CE01479626DE48E062E37DE024
:104F7000CE01479620DE48E06AE27DE0CE0147960A
:104F80001ADE48E062E27DE0CE01479614DE48E09A
:104F90006AE17DE0CE0147960EDE48E062E17DE009
:104FA000CE01479608DE42E06EE672E0CE014796FB
:104FB00002DE42E060E772E0CE014796FCDD44E0AD
:104FC0006BE37EE0CE014796F6DD44E067E37EE0EA
:104FD000CE014796F0DD44E063E37EE0CE014796E4
:104FE000EADD42E061E37EE0CE014796E4DD44E0A5
:104FF0006DE27EE0CE014796DEDD44E069E27EE0D0
:10500000CE014796D8DD42E067E27EE0CE014796CA
:10501000D2DD42E065E27EE0CE014796CCDD42E0A3
:1050200063E27EE0CE014796C6DD42E061E27EE0CB
:10503000CE014796C0DD42E06FE17EE0CE014796AB
:10504000BADD41E06AE07EE0CE014796B4DD42E0A1
:105050006BE07EE0CE014796AEDD42E06DE07EE0A3
:10506000CE014796A8DD42E06FE07EE0CE01479694
:10507000A2DD42E061E17EE0CE0147969CDD42E0A8
:1050800063E17EE0CE01479696DD42E065E17EE099
:10509000CE01479690DD42E067E17EE0CE01479683
:1050A0008ADD42E069E17EE0CE01479684DD42E0A0
:1050B0006BE17EE0CE0147967EDD42E06DE17EE071
:1050C000CE01479678DD44E063E777E1CE0147966D
:1050D00072DD86E591E3A2E3B0E089839A83AB8336
:1050E000BC83188F0F8B44E0BE016F5F7F4FCE01F2
:1050F000479661DDEFEAFAE064918F01662361F083
:10510000772767FD709584E09BE10E94A3160F5FEF
:105110001F4FF8016491F2CFEFE9FAE064918F013B
:10512000662361F0772767FD709584E09BE10E941C
:10513000A3160F5F1F4FF8016491F2CF6AE070E091
:1051400084E09BE10E94A31668960FB6F894DEBF38
:105150000FBECDBFDF91CF911F910F9108950F9397
:105160001F93CF93DF93CFEADAE0FE0164918E01C3
:10517000662361F0772767FD709584E09BE10E94CC
:10518000A3160F5F1F4FF8016491F2CFEFE8FAE02A
:1051900064918F01662361F0772767FD709584E045
:1051A0009BE10E94A3160F5F1F4FF8016491F2CF9D
:1051B0006AE070E084E09BE10E94A316FE01649126
:1051C0000FEA1AE0662361F0772767FD709584E0A7
:1051D0009BE10E94A3160F5F1F4FF8016491F2CF6D
:1051E00040918F175091901760919117709192177D
:1051F00087E89AE00E94DD484091931750919417F8
:10520000609195177091961784E89AE00E94DD48A6
:1052100040919717509198176091991770919A172C
:1052200081E89AE00E94DD4840919B1750919C17BD
:1052300060919D1770919E178EE79AE00E94DD485D
:1052400067EB79E084E09BE10F94A09A6AE070E05C
:1052500084E09BE10E94A316FE0164910FEA1AE02C
:10526000662361F0772767FD709584E09BE10E94DB
:10527000A3160F5F1F4FF8016491F2CFE4E6FAE046
:1052800064918F01662361F0772767FD709584E054
:105290009BE10E94A3160F5F1F4FF8016491F2CFAC
:1052A0006AE070E084E09BE10E94A316FE01649135
:1052B0000FEA1AE0662361F0772767FD709584E0B6
:1052C0009BE10E94A3160F5F1F4FF8016491F2CF7C
:1052D00040919F175091A0176091A1177091A2174C
:1052E0008BE59AE00E94DD484091A3175091A417E6
:1052F0006091A5177091A61788E59AE00E94DD4895
:105300004091A7175091A8176091A9177091AA17FB
:1053100085E59AE00E94DD484091AB175091AC17AB
:105320006091AD177091AE1782E59AE00E94DD485A
:1053300067EB79E084E09BE10F94A09A6AE070E06B
:1053400084E09BE10E94A316FE0164910FEA1AE03B
:10535000662361F0772767FD709584E09BE10E94EA
:10536000A3160F5F1F4FF8016491F2CFE4E3FAE058
:1053700064918F01662361F0772767FD709584E063
:105380009BE10E94A3160F5F1F4FF8016491F2CFBB
:105390006AE070E084E09BE10E94A316FE01649144
:1053A0000FEA1AE0662361F0772767FD709584E0C5
:1053B0009BE10E94A3160F5F1F4FF8016491F2CF8B
:1053C00040917F17509180176091811770918217DB
:1053D0008BE29AE00E9425494091831750918417EF
:1053E000609185177091861788E29AE00E9425499E
:1053F00040918717509188176091891770918A178B
:1054000085E29AE00E94254940918B1750918C17B4
:1054100060918D1770918E1782E29AE00E94254963
:1054200067EB79E084E09BE10F94A09A6AE070E07A
:1054300084E09BE10E94A316FE0164910FEA1AE04A
:10544000662361F0772767FD709584E09BE10E94F9
:10545000A3160F5F1F4FF8016491F2CFEDEEF9E054
:1054600064918F01662361F0772767FD709584E072
:105470009BE10E94A3160F5F1F4FF8016491F2CFCA
:105480006AE070E084E09BE10E94A316FE01649153
:105490000FEA1AE0662361F0772767FD709584E0D4
:1054A0009BE10E94A3160F5F1F4FF8016491F2CF9A
:1054B00040917717509178176091791770917A170A
:1054C00084EE99E00E94DD4840916F17509170176B
:1054D000609171177091721781EE99E00E94DD481A
:1054E00067EB79E084E09BE10F94A09A6AE070E0BA
:1054F00084E09BE10E94A316FE0164910FEA1AE08A
:10550000662361F0772767FD709584E09BE10E9438
:10551000A3160F5F1F4FF8016491F2CFEEE2F9E09E
:1055200064918F01662361F0772767FD709584E0B1
:105530009BE10E94A3160F5F1F4FF8016491F2CF09
:105540006AE070E084E09BE10E94A316FE01649192
:105550000FEA1AE0662361F0772767FD709584E013
:105560009BE10E94A3160F5F1F4FF8016491F2CFD9
:1055700040917B1750917C1760917D1770917E1739
:1055800085E299E00E94DD4840915F1750916017D5
:10559000609161177091621782E299E00E94DD4884
:1055A0004091AF175091B0176091B1177091B21739
:1055B0008FE199E00E94254940916B1750916C173B
:1055C00060916D1770916E178CE199E00E94DD4833
:1055D00040916717509168176091691770916A1729
:1055E00089E199E00E94DD4840916317509164176A
:1055F000609165177091661786E199E00E94DD4819
:1056000067EB79E084E09BE10F94A09A6AE070E098
:1056100084E09BE10E94A316FE0164910FEA1AE068
:10562000662361F0772767FD709584E09BE10E9417
:10563000A3160F5F1F4FF8016491F2CFE4E0F9E089
:1056400064918F01662361F0772767FD709584E090
:105650009BE10E94A3160F5F1F4FF8016491F2CFE8
:105660006AE070E084E09BE10E94A316FE01649171
:105670000FEA1AE0662361F0772767FD709584E0F2
:105680009BE10E94A3160F5F1F4FF8016491F2CFB8
:1056900040918F0D5091900D6091910D7091920DF0
:1056A0008BEF98E00E94DD484091930D5091940D4E
:1056B0006091950D7091960D88EF98E00E94DD48FD
:1056C0004091970D5091980D6091990D70919A0DA0
:1056D00085EF98E00E94DD4867EB79E084E09BE18C
:1056E0000F94A09A6AE070E084E09BE10E94A31608
:1056F000FE0164910FEA1AE0662361F0772767FDE7
:10570000709584E09BE10E94A3160F5F1F4FF80184
:105710006491F2CFE7EEF8E064918F01662361F0C7
:10572000772767FD709584E09BE10E94A3160F5FC9
:105730001F4FF8016491F2CF6AE070E084E09BE1D2
:105740000E94A316FE0164910FEA1AE0662361F03D
:10575000772767FD709584E09BE10E94A3160F5F99
:105760001F4FF8016491F2CF409111035091120341
:1057700060911303709114038AED98E00E94DD4854
:105780006091090370910A0380910B0390910C03BF
:105790000F94838FAB01BC0187ED98E00E94DD4838
:1057A00060910103709102038091030390910403BF
:1057B0000F948F8FAB01BC0184ED98E00E94DD480F
:1057C00040911503509116036091170370911803CF
:1057D00084EC98E00E94DD4860910D0370910E0307
:1057E00080910F03909110030F94838FAB01BC0144
:1057F00081EC98E00E94DD486091050370910603FA
:1058000080910703909108030F948F8FAB01BC0127
:105810008EEB98E00E94DD4867EB79E084E09BE145
:105820000F94A09A6AE070E084E09BE10E94A316C6
:10583000FE0164910FEA1AE0662361F0772767FDA5
:10584000709584E09BE10E94A3160F5F1F4FF80143
:105850006491F2CFE0EBF8E064918F01662361F090
:10586000772767FD709584E09BE10E94A3160F5F88
:105870001F4FF8016491F2CF6AE070E084E09BE191
:105880000E94A316FE0164910FEA1AE0662361F0FC
:10589000772767FD709584E09BE10E94A3160F5F58
:1058A0001F4FF8016491F2CF40912B0250912C02CE
:1058B00060912D0270912E028CEA98E00E94DD48E2
:1058C000409133025091340260913502709136025A
:1058D00088EA98E00E94DD4840913B0250913C02EA
:1058E00060913D0270913E0284EA98E00E94DD489A
:1058F00040917C0D50917D0D60917E0D70917F0DDA
:105900008BE998E00E94DD4867EB79E084E09BE159
:105910000F94A09A6AE070E084E09BE10E94A316D5
:10592000FE0164910FEA1AE0662361F0772767FDB4
:10593000709584E09BE10E94A3160F5F1F4FF80152
:105940006491F2CFE1E9F8E064918F01662361F0A0
:10595000772767FD709584E09BE10E94A3160F5F97
:105960001F4FF8016491F2CF6AE070E084E09BE1A0
:105970000E94A316FE0164910FEA1AE0662361F00B
:10598000772767FD709584E09BE10E94A3160F5F67
:105990001F4FF8016491F2CF4091F20D5091F30D39
:1059A000662757FD6095762F85E898E00E94254987
:1059B0004091F00D5091F10D662757FD6095762FBF
:1059C00086E798E00E9425494091EC0D5091ED0D3D
:1059D000662757FD6095762F8AE698E00E94254954
:1059E0004091EE0D5091EF0D662757FD6095762F93
:1059F0008CE598E00E9425496CE773E084E09BE128
:105A00000F94A09A6AE070E084E09BE10E94A316E4
:105A1000FE0164910FEA1AE0662361F0772767FDC3
:105A2000709584E09BE10E94A3160F5F1F4FF80161
:105A30006491F2CFE2E5F8E064918F01662361F0B2
:105A4000772767FD709584E09BE10E94A3160F5FA6
:105A50001F4FF8016491F2CF6AE070E084E09BE1AF
:105A60000E94A316FE0164910FEA1AE0662361F01A
:105A7000772767FD709584E09BE10E94A3160F5F76
:105A80001F4FF8016491F2CF4091EA0D5091EB0D58
:105A9000662757FD6095762F86E498E00E94254999
:105AA0004091E80D5091E90D662757FD6095762FDE
:105AB00087E398E00E9425494091E40D5091E50D5F
:105AC000662757FD6095762F8BE298E00E94254966
:105AD0004091E60D5091E70D662757FD6095762FB2
