:100000000C9471140C94A2140C94A2140C94A214C9
:100010000C94A2140C94A2140C94A2140C94A21488
:100020000C94A2140C94A2140C94A2140C94A21478
:100030000C94A2140C94A2140C94A2140C94A21468
:100040000C94A2140D94D16B0C94A2140C94A214D1
:100050000C94A2140C94A2140D94C7880D948C8F48
:100060000C94A2140D94BC930D94F2930C94A214CE
:100070000C94A2140C94A2140C94A2140C94A21428
:100080000C94A2140C94A2140C94A2140C94A21418
:100090000C94A2140C94A2140C94A2140C94651544
:1000A0000C94A2140C94A2140C94A2140C94A214F8
:1000B0000C94A2140C94A2140C94A2140C94A214E8
:1000C0000C94A2140C94A2140C94A2140D94679492
:1000D0000D949D940C94A2140C94A2140C94A2144C
:1000E0000C94A214F5003901CD002B01DB001D0199
:1000F00009012701E5000301F70023011901FD00B3
:10010000CB00DD00F100CF00DF00D50025010701A5
:10011000C900FF003701F100ED00F300D900330101
:10012000D3003501F9002101EB00FB00D7001501D8
:100130000F011301E900E700D100EB00E300170114
:100140003B01084AD73B3BCE016E84BCBFFDC12FAB
:100150003D6C74319ABD56833DDA3D00C77F11BEB8
:10016000D9E4BB4C3E916BAAAABE000000803F05BB
:10017000A84CCDB2D44EB93836A9020C50B99186EC
:1001800088083CA6AAAA2ABE000000803F000D9461
:10019000C6940D9418910D94D6900D9478890D9471
:1001A000EA900D94A2910D947E910D94FA900D9485
:1001B00086910D944F910D949F890D94E0900D942C
:1001C000F2900D944C920D94A8910D94CA890D94BF
:1001D0009E910D949A910D94B5910D943B910D942F
:1001E00057920D9459910D9445910D944F890D940A
:1001F000D4890D9471910D9482910D94CC900D94AD
:1002000027910D9411310D94CC890D94F6920D9493
:100210000E910D94C6890D941B940D94F9300D9494
:1002200090910D947F660D9494910D948C910D9402
:10023000AC910D94C7900D94CF940D94AC890D940E
:1002400079920D9477910D94C2900D9404910D9430
:10025000C8890D9424940D9485890D9465920D940C
:10026000D5920D941F950D947B910D946D910D94E5
:1002700031910D945C890D94B0914D383420582003
:1002800059205A2045004D313037005430004D314F
:1002900030370043616E6E6F7420656E7465722036
:1002A0007375626469723A20005341564544205088
:1002B00052494E54004D3234004D323320257300E4
:1002C0006175746F25692E67006572726F72207791
:1002D000726974696E6720746F2066696C65004E80
:1002E0006F74205344207072696E74696E67002FBA
:1002F000005344207072696E74696E67206279746D
:100300006520002E0044656C6574696F6E2066611F
:10031000696C65642C2046696C653A200046696CFE
:10032000652064656C657465643A002E006F7065C5
:100330006E206661696C65642C2046696C653A20A4
:100340000057726974696E6720746F2066696C6506
:100350003A20002E006F70656E206661696C6564DE
:100360002C2046696C653A20002E006F70656E2067
:100370006661696C65642C2046696C653A200046AC
:10038000696C652073656C656374656400205369EE
:100390007A653A200046696C65206F70656E656409
:1003A0003A20002E006F70656E206661696C65648E
:1003B0002C2046696C653A20004E6F772066726586
:1003C00073682066696C653A20004E6F7720646F11
:1003D000696E672066696C653A20002220706F7331
:1003E000002220706172656E743A220053554252A9
:1003F0004F5554494E452043414C4C20746172671F
:1004000065743A2200747279696E6720746F206394
:10041000616C6C207375622D67636F64652066691B
:100420006C6573207769746820746F6F206D616EDE
:1004300079206C6576656C732E204D4158206C6573
:1004400076656C2069733A005344206361726420BE
:100450006F6B006F70656E526F6F74206661696CB0
:10046000656400766F6C756D652E696E69742066C3
:1004700061696C656400534420696E69742066612B
:10048000696C006563686F3A004572726F723A007A
:10049000535543434553530056616C756573206F44
:1004A0007574206F662072616E67650056616C75A9
:1004B0006573206F7574206F662072616E676500CA
:1004C00056616C756573206F7574206F662072615C
:1004D0006E67650056616C756573206F7574206F6B
:1004E000662072616E676500535543434553530060
:1004F00056616C756573206F7574206F662072612C
:100500006E67650056616C756573206F7574206F3A
:10051000662072616E67650056616C756573206F49
:100520007574206F662072616E67650056616C7528
:100530006573206F7574206F662072616E67650049
:1005400053544154495354494353205245534554FD
:100550000048617264636F6465642043616C696222
:1005600020616E64205049442044656661756C7456
:100570002053657474696E6773204C6F61646564A1
:100580000048617264636F646564204465666175E8
:100590006C742053657474696E6773204C6F61646A
:1005A00065640053746F7265642073657474696E5A
:1005B000677320726574726965766564002C2073B8
:1005C000617665645F66656564726174653A200092
:1005D0002C2073617665645F66616E6C617965720B
:1005E0003A20002C2073617665645F74656D7062DB
:1005F00065643A20002C2073617665645F74656DD4
:1006000070303A20002C2073617665645F74656DEC
:1006100070313A20002C2073617665645F66696CE6
:1006200065706F736974696F6E3A20002C20736176
:100630007665645F655F706F736974696F6E3A2089
:10064000002C2073617665645F746F6F6C5F61630B
:10065000746976653A20002C2073617665645F7A50
:100660005F706F736974696F6E3A20002C2073613C
:100670007665645F795F706F736974696F6E3A2035
:10068000002C2073617665645F785F706F736974A6
:10069000696F6E3A200053415645205052494E54DE
:1006A000204C4F473A00204D696E75746573203AAF
:1006B00000204C617374207072696E742074696DCF
:1006C000652D3E20486F757273203A004C6173743B
:1006D000207072696E74206475726174696F6E0047
:1006E0002C205468697264204944206E756D6265DF
:1006F0007220002C205365636F6E64204944206E85
:10070000756D6265723A20002046697273742049E3
:1007100044206E756D6265723A2000554920496E1D
:10072000666F726D6174696F6E2053657269616C7A
:10073000204E756D6265723A00206D2C2045312087
:100740007072696E742064697374616E63653A20B7
:1007500000206B6D2C204530207072696E7420640F
:10076000697374616E63653A2000206B6D2C2059AB
:10077000207072696E742064697374616E63653A87
:100780002000206B6D2C205831207072696E74200F
:1007900064697374616E63653A200020432C0A20FB
:1007A0005830207072696E742064697374616E636E
:1007B000653A200020432C206D61782074656D70AF
:1007C00020423A200020432C206D61782074656D12
:1007D0007020523A20002C206D61782074656D7075
:1007E000204C3A2000682C207072696E7473206669
:1007F000696E69736865643A20002C207072696EB6
:1008000074696E672074696D653A200020707269A2
:100810006E74733A200053544154533A0020432CD1
:1008200020525F5052494E543A200020432C20520F
:100830005F4245443A200020432C20525F52454DF0
:100840004F56453A200020525F494E534552543A84
:10085000200054656D70202843293A0020432C2045
:100860004C5F5052494E543A200020432C204C5F9C
:100870004245443A200020432C204C5F52454D4FC6
:1008800056453A2000204C5F494E534552543A2079
:100890000054656D70202843293A00205A20707258
:1008A0006F626500205A2000205920002058200047
:1008B0004F66667365747320286D6D293A00204475
:1008C00000204900202D204D333031205249474827
:1008D00054205000204400204900204D3330312066
:1008E0004C45465420500050494420736574746947
:1008F0006E67733A00205A0020590020204D323094
:1009000036205800486F6D65206F666673657420E9
:10091000286D6D293A00204500205A0020580020FB
:10092000420020540020204D3230352053004164D5
:1009300076616E636564207661726961626C65736D
:100940003A20533D4D696E20666565647261746539
:1009500020286D6D2F73292C20543D4D696E207415
:10096000726176656C2066656564726174652028C5
:100970006D6D2F73292C20423D6D696E696D756D0B
:10098000207365676D656E742074696D6520286DD0
:1009900073292C20583D6D6178696D756D2058590B
:1009A000206A65726B20286D6D2F73292C20205AC8
:1009B0003D6D6178696D756D205A206A65726B2096
:1009C000286D6D2F73292C2020453D6D6178696D50
:1009D000756D2045206A65726B20286D6D2F732917
:1009E0000020540020204D323034205300416363F6
:1009F000656C65726174696F6E3A20533D61636323
:100A0000656C65726174696F6E2C20543D726574FB
:100A10007261637420616363656C65726174696F90
:100A20006E00204500205A0020590020204D323011
:100A3000312058004D6178696D756D2041636365A3
:100A40006C65726174696F6E20286D6D2F73322929
:100A50003A00204500205A0020590020204D323015
:100A6000332058004D6178696D756D206665656449
:100A7000726174657320286D6D2F73293A002045CB
:100A800000205A0020590020204D393220580053B0
:100A9000746570732070657220756E69743A0053C6
:100AA000657474696E67732053746F726564006552
:100AB00063686F3A005072696E7465722068616C89
:100AC0007465642E206B696C6C28292063616C6CE2
:100AD000656421006F6B00526573656E643A200097
:100AE000486F74656E64206F6666736574733A0050
:100AF0005A204F6666736574203A20007A5F6D61F4
:100B0000783A20007A5F6D696E3A20005A204F666D
:100B100066736574005A204F6666736574206F6B48
:100B2000004E6F74207072696E74207265636F7608
:100B3000657279207570005072696E7420726563F9
:100B40006F7665727920757000486F74656E6420E9
:100B50006F6666736574733A007A5F6D696E3A20EA
:100B600000795F6D61783A2000785F6D61783A2096
:100B700000785F6D696E3A2000205A3A0020593A99
:100B80000020436F756E7420583A200020453A00CB
:100B9000205A3A0020593A00583A004649524D57D7
:100BA0004152455F4E414D453A4D61726C696E2030
:100BB00056313B20537072696E7465722F67726292
:100BC0006C206D617368757020666F722067656E4A
:100BD00036204649524D574152455F55524C3A686E
:100BE000747470733A2F2F6769746875622E636F1F
:100BF0006D2F4572696B5A616C6D2F4D61726C6916
:100C00006E2F2050524F544F434F4C5F5645525316
:100C1000494F4E3A312E30204D414348494E455FB1
:100C2000545950453A4D656E64656C204558545290
:100C3000554445525F434F554E543A32205555491D
:100C4000443A30303030303030302D303030302D8C
:100C5000303030302D303030302D3030303030309A
:100C60003030303030300A0020423A0020453A001F
:100C7000543A0020573A0020453A00543A002042A6
:100C8000403A0020403A00202F003A002054002033
:100C90002F0020423A00202F006F6B20543A000AA8
:100CA0000A005374616E6461726420446576696100
:100CB00074696F6E3A20000A004D65616E3A20003B
:100CC0000A002020207A3A200000793A2000783A61
:100CD00020003F537065636966696564206E756DB9
:100CE000626572206F66206C65677320696E206D87
:100CF0006F76656D656E74206E6F7420706C6175B3
:100D00007361626C652E0A003F53706563696669A2
:100D10006564205920706F736974696F6E206F75F8
:100D200074206F662072616E67652E0A003F5370F3
:100D300065636966696564205820706F73697469BA
:100D40006F6E206F7574206F662072616E67652EFE
:100D50000A003F5370656369666965642073616D5D
:100D6000706C652073697A65206E6F7420706C6199
:100D7000757361626C652E0A0046756C6C20737524
:100D800070706F72742061743A20687474703A2FB6
:100D90002F33647072696E74626F6172642E636F58
:100DA0006D2F666F72756D2E7068700A004D343845
:100DB000205A2D50726F62652052657065617461B2
:100DC00062696C69747920746573742E20202056D2
:100DD000657273696F6E20322E30300A003F56659F
:100DE00072626F7365204C6576656C206E6F74203F
:100DF000706C61757361626C652E0A002569206DE7
:100E0000696E2C20256920736563004732382058AD
:100E10003020593000456E642066696C65206C692D
:100E2000737400426567696E2066696C65206C6941
:100E30007374000A00205A3A200020593A200020FA
:100E4000583A2000426564000A0020616E746968A7
:100E50006F726172690A3A200020686F726172696C
:100E60000A20002F3800766F6C74657320002056BE
:100E70006F6C74657320636172676F6C20333A2006
:100E80000020616E7469686F726172690A3A2000AD
:100E900020686F726172690A20002F3800766F6CCB
:100EA000746573200020566F6C74657320636172E3
:100EB000676F6C20323A200020616E7469686F722F
:100EC0006172690A3A200020686F726172690A20B3
:100ED000002F3800766F6C746573200020566F6C9D
:100EE00074657320636172676F6C20313A20000A69
:100EF0000020647A333A200020647A323A200020BD
:100F0000647A313A20000A00207A633A2000543093
:100F100000486F6D6520582F59206265666F7265B5
:100F2000205A000A00207A3A200020793A20002036
:100F3000783A200042656400486F6D6520582F594B
:100F4000206265666F7265205A0045787472756418
:100F50006572206163746976653A20002200556EDF
:100F60006B6E6F776E20636F6D6D616E643A2022D9
:100F700000256920686F757273202569206D696E80
:100F80007574657300446F6E65207072696E746964
:100F90006E672066696C65007061757365206465B5
:100FA000746563746564200A0047363900507269BD
:100FB0006E7465722073746F7070656420647565FB
:100FC00020746F206572726F72732E2046697820CC
:100FD000746865206572726F7220616E642075732B
:100FE00065204D39393920746F20726573746172D0
:100FF000742E202854656D70657261747572652059
:1010000069732072657365742E205365742069744A
:101010002061667465722072657374617274696EA2
:101020006729006F6B004E6F204C696E65204E750E
:101030006D626572207769746820636865636B739D
:10104000756D2C204C617374204C696E653A2000DC
:101050004E6F20436865636B73756D2077697468A4
:10106000206C696E65206E756D6265722C204C6116
:101070007374204C696E653A2000636865636B7316
:10108000756D206D69736D617463682C204C61739C
:1010900074204C696E653A20004C696E65204E756F
:1010A0006D626572206973206E6F74204C61737479
:1010B000204C696E65204E756D6265722B312C2057
:1010C0004C617374204C696E653A20004D313130AB
:1010D000004D383420582059205A2045005375724D
:1010E00066696E672030200A0043616C6962726134
:1010F00074696F6E205375636365737366756C2CCA
:1011000020676F696E67206261636B20746F206D6A
:1011100061696E206D656E75200A0054300025648B
:10112000206974656D73002564206974656D7300B2
:101130002564206974656D73002534643A252E3268
:101140006468202F20256467002564206974656D1C
:101150007300526561647920746F20496E73657203
:10116000742F52656D6F7665200A0074656D70206E
:101170006F6B200A00256425250025336420256334
:1011800043002533642025634300253364256343EE
:10119000202F2025336425634300253364256343D2
:1011A000202F2025336425634300253364256343C2
:1011B000202F202533642563430025203364202518
:1011C000250025642068202564206D0025203364D7
:1011D0002025250025326420256343002533642023
:1011E0002563430025336420256343005265616411
:1011F0007920746F20496E736572742F52656D6F1C
:101200007665200A0074656D70206F6B200A0025DA
:101210003364202563430025336420256343002085
:1012200053544F50205052494E54200A004D3335EC
:1012300000526573756D65206465746563746564DB
:10124000200A0047373000EFBFBD524553554D458A
:1012500021200A00EFBFBD504155534521200A000F
:101260002533642025634300253364202563430030
:101270002533642025634300253364202563430020
:101280002533642025634300253364202563430010
:101290002533642025634300253364202563430000
:1012A00025336420256343005052494E5420534552
:1012B0005454494E4753200A00446F6E65207361B1
:1012C00076696E672066696C652E006F6B004D3223
:1012D000390054652070696C6C65007374617274B8
:1012E0000030312D312E322E325243002200656EF5
:1012F000717565696E672022002200656E717565E3
:10130000696E67202200253364202563430025335E
:10131000642025634300456E74657220696E2070F9
:1013200075726765206D6F6465200A00537572667B
:10133000696E672031200A0053757266696E6720F6
:1013400030200A0047333400494E464F3A20424588
:10135000442043414C4942202D2000537572666958
:101360006E672030200A004732382058302059302C
:101370000054300053757266696E672030200A0091
:1013800054300047333400494E464F3A20424544DA
:101390002043414C4942202D20004734330047343C
:1013A00033004D383400473431004D383400473471
:1013B0003000543100543000543000543100543166
:1013C0000054300054300054310047343300473467
:1013D00033004D383400473431004D383400473441
:1013E00030004D3834004D3834004D3834005A3216
:1013F000204F66667365743A20004F4B2073656317
:101400006F6E6420457874727564657221005A208D
:10141000706F736974696F6E3A20005A20706F7331
:101420006974696F6E3A20004D3834005A3120508B
:10143000726F6265206F66667365743A20004F4B69
:1014400020666972737420457874727564657221C0
:10145000200A005A20706F736974696F6E3A200019
:101460005A20706F736974696F6E3A200043616C23
:1014700063756C75733A20200043616C63756C75FD
:10148000733A20200043616C63756C75733A2020B9
:101490000043616C63756C75733A20200043616C86
:1014A00063756C75733A20200043616C63756C75CD
:1014B000733A20200043616C63756C75733A202089
:1014C0000043616C63756C75733A20200043616C56
:1014D00063756C75733A20200043616C63756C759D
:1014E000733A20200043616C63756C75733A202059
:1014F0000043616C63756C75733A20200043616C26
:1015000063756C75733A20200043616C63756C756C
:10151000733A20200043616C63756C75733A202028
:101520000043616C63756C75733A20200043616CF5
:1015300063756C75733A20200043616C63756C753C
:10154000733A20200043616C63756C75733A2020F8
:101550000043616C63756C75733A20200043616CC5
:1015600063756C75733A20200043616C63756C750C
:10157000733A20200043616C63756C75733A2020C8
:101580000043616C63756C75733A20200043616C95
:1015900063756C75733A20200043616C63756C75DC
:1015A000733A20200043616C63756C75733A202098
:1015B0000043616C63756C75733A20200043616C65
:1015C00063756C75733A20200043616C63756C75AC
:1015D000733A20200043616C63756C75733A202068
:1015E0000043616C63756C75733A20200043616C35
:1015F00063756C75733A20200043616C63756C757C
:10160000733A20200046696C616D656E74205265E6
:101610006D6F7665642C20474F494E4720544F200C
:10162000434C45414E20544845204E4F5A5A454C54
:10163000200A0046696C616D656E7420496E7365A1
:10164000727465642F52656D6F7665642C207265C7
:101650007475726E696E6720746F204D61696E20BB
:101660004D656E75200A0054300046696C616D65E9
:101670006E7420496E7365727465642F52656D6F68
:101680007665642C20676F696E6720746F204361F4
:101690006C6962200A0054300046696C616D656EA9
:1016A0007420496E7365727465642F52656D6F7630
:1016B00065642C20676F696E6720746F207468659D
:1016C000206E657874206578747275646572200A7E
:1016D0000054300043616C6962726174696F6E20FE
:1016E0005375636365737366756C2C20676F696EE1
:1016F00067206261636B20746F206D61696E206D7D
:10170000656E75200A005430004A756D70206F7642
:1017100065722073637265773120616E6420736334
:1017200072657732200A004A756D70206F76657297
:1017300020736372657731200A00473334005430D8
:1017400000473334005430004733340054300041F4
:10175000646A757374205A446F776E200A0041647E
:101760006A757374205A5570200A003630206465FB
:101770006772656573200A00496E73657274696EDD
:1017800067203A2020200A0053757266696E672030
:1017900030200A0053757266696E672030200A0097
:1017A00053757266696E672030200A005375726641
:1017B000696E672030200A002533642025634300CA
:1017C00025336420256343002533642025634300CB
:1017D000456E74657220696E207075726765206D44
:1017E0006F6465200A002533642025634300253398
:1017F000642025634300253364202563430025339B
:10180000642025634300253364202563430025338A
:10181000642025634300253364202563430025337A
:1018200064202563430046696C616D656E742052C7
:10183000656D6F7665642C20474F494E4720544FA5
:1018400020434C45414E20544845204E4F5A5A455E
:101850004C200A0053757266696E672030200A00BA
:1018600053757266696E672030200A005430005448
:10187000652070696C6C65004D3334005375726679
:10188000696E672030200A004D3234004D3233201B
:1018900025730053757266696E672030200A002533
:1018A00034643A252E326468202F202564670000B6
:1018B0002534643A252E326468202F202564670081
:1018C000002534643A252E326468202F2025646771
:1018D00000002534643A252E326468202F202564C8
:1018E0006700002534643A252E326468202F2025B5
:1018F0006467000053757266696E672030200A00C5
:1019000053554343455353200A0025336420256330
:101910004300253364202563430025336420256379
:101920004300253364202563430025336420256369
:101930004300253364202563430025336420256359
:101940004300253364202563430025336420256349
:10195000430041646A757374205A446F776E200A9D
:101960000041646A757374205A5570200A00496EEC
:1019700073657274696E67203A2020200A0025334F
:101980006420256343002533642025634300253309
:10199000642025634300456E74657220696E207073
:1019A00075726765206D6F6465200A004D333300E2
:1019B000FF01FF0000A0400000A04000000040CD5B
:1019C000CC98430080934300005243000000000085
:1019D00080934300000000CDCC98430080934300E7
:1019E00000524300000000000000000000000065FD
:1019F00063686F3A004572726F723A0020636F6CD1
:101A00006420657874727573696F6E207072657684
:101A1000656E746564006563686F3A003B20202042
:101A2000506C6173746963207765696768743A20E4
:101A300025642E256467003B46696C616D656E7494
:101A400020757365643A2025642E25646D20256415
:101A50002E256467003B2020204275696C64207449
:101A6000696D653A20256420686F757220256420B1
:101A70006D696E75746573003B2020204275696C3A
:101A8000642074696D653A20256420686F757273EF
:101A9000202564206D696E75746573003B50726912
:101AA0006E742074696D653A202564206D696E75C9
:101AB000746573003B5072696E742074696D653A89
:101AC00020256420686F7572202564206D696E750D
:101AD000746573003B5072696E742074696D653A69
:101AE00020256420686F757273202564206D696EEF
:101AF00075746573003B5072696E742074696D650E
:101B00003A202564206461797320256420686F750C
:101B100072202564206D696E75746573003B507288
:101B2000696E742074696D653A202564206461795A
:101B300020256420686F7572202564206D696E759C
:101B4000746573003B5072696E742074696D653AF8
:101B50002025642064617920256420686F75727384
:101B6000202564206D696E75746573003B50726941
:101B70006E742074696D653A202564206461797300
:101B800020256420686F757273202564206D696E4E
:101B900075746573003B20472D436F64652067654E
:101BA0006E6572617465642062792053696D706C32
:101BB00069667933442852292056657273696F6EBD
:101BC000202564007C3C3E5E2B3D3F2F5B5D3B2C23
:101BD0002A225C00205A3A0020593A0020583A0044
:101BE000656E6473746F7073206869743A200024A2
:101BF000F4D43050C38E20C2A24017828B701112D1
:101C00007A910D816CD90AA861E108C7586607610D
:101C10005143061E4B5D05C145A7041A4111040935
:101C20003D9803713931034036DB0265339102D4AC
:101C3000305402802E1D02632CEE01752AC501B0BE
:101C400028A001102781018F2564012B244B01E07E
:101C5000223401AC211F018D200D01801FFC008466
:101C60001EED00971DDF00B81CD200E61BC6002049
:101C70001BBC00641AB200B219A8000A19A0006ABD
:101C8000189900D117910040178B00B516840031C8
:101C9000167E00B31579003A157300C7146F00580B
:101CA000146A00EE1366008813630025135E00C7F4
:101CB000125B006C12570015125400C111510070D4
:101CC000114F0021114B00D61049008D10470046DE
:101CD00010440002104200C00F4000800F3E00423E
:101CE0000F3C00060F3B00CB0E3800930E37005C14
:101CF0000E3500270E3400F30D3200C10D31009077
:101D00000D3000600D2E00320D2D00050D2C00D978
:101D10000C2B00AE0C2900850C29005C0C2700352B
:101D20000C27000E0C2600E80B2400C40B2400A096
:101D30000B23007D0B23005A0B2100390B210018C7
:101D40000B2000F80A1F00D90A1E00BB0A1E009DC6
:101D50000A1D00800A1D00630A1C00470A1B002C94
:101D60000A1B00110A1A00F7091A00DD091900C43C
:101D7000091900AB091900920917007B09180063C3
:101D80000917004C09160036091600200916000A2A
:101D9000091500F5081500E0081400CC081400B877
:101DA000081400A4081400900813007D0812006BAA
:101DB00008130058081200460812003408110023C6
:101DC0000811001208110001081100F0071000E0CE
:101DD000071000D0071000C0071000B0070F00A1C7
:101DE00007100091070E0083070F0074070F0065AE
:101DF000070E0057070E0049070E003B070D002E87
:101E0000070E0020070D0013070D0006070D00F94F
:101E1000060C00ED060D00E0060C00D4060C00C810
:101E2000060C00BC060C00B0060C00A4060B0099C2
:101E3000060C008D060B0082060B0077060B006C6B
:101E4000060B0061060A0057060B004C060A00420A
:101E5000060A0038060A002E060A0024060A001A9E
:101E6000060A001006090007060A00FD050900F42D
:101E7000050900EB050900E2050900D9050900D0B4
:101E8000050900C7050900BE050900B5050800AD34
:101E9000050800A50509009C050800940508008CAC
:101EA000050800840508007C050800740508006C1E
:101EB000050700650508005D050700560508004E8A
:101EC00005070047050700400508003805070031F1
:101ED0000507002A050700230507001C0506001654
:101EE0000507000F0507000805060002050700FBAF
:101EF000040600F5040700EE040600E8040600E20C
:101F0000040700DB040600D5040600CF040600C960
:101F1000040600C3040600BD040600B7040600B1B1
:101F2000040500AC040600A6040600A00405009BFE
:101F300004060095040500900406008A0405008547
:101F4000040500800406007A04050075040500708D
:101F50000405006B04050066040500610405005CCF
:101F600004050057040500520405004D040500480F
:101F7000040500430405003E0404003A040500354E
:101F8000040500300404002C040500270404002389
:101F90000405001E0404001A0404001604050011C0
:101FA0000404000D040400090405000404040000F6
:101FB000040400FC030400F8030400F4030400F02C
:101FC000030400EC030400E8030400E4030400E05D
:101FD000030400DC030400D8030400D4030400D08D
:101FE000030400CC030400C8030300C5030300245A
:101FF000F404D9201BC40C5C0E9804C4095F02656C
:10200000077101F405F900FB04B30048048700C11F
:102010000369005803550003034500BE023A0084DB
:1020200002310053022A002902250004022000E4A4
:10203000011C00C8011900AF0117009801140084A9
:10204000011300710110006101100051010E0043E5
:10205000010D0036010B002B010B0020010B0015B8
:102060000109000C01090003010800FB000800F34E
:10207000000800EB000700E4000600DE000600D8C0
:10208000000600D2000600CC000500C7000500C213
:10209000000500BD000400B9000400B5000400B153
:1020A000000400AD000400A9000400A5000300A284
:1020B0000003009F0004009B0003009800030095AC
:1020C00000020093000300900003008D0002008BCB
:1020D00000030088000200860002008400030081E3
:1020E0000002007F0002007D0002007B00020079F8
:1020F0000002007700010076000200740002007206
:10210000000100710002006F0002006D0001006C10
:102110000002006A00010069000200670001006619
:10212000000100650001006400020062000100611E
:10213000000100600001005F0002005D0001005C22
:102140000001005B0001005A000100590001005825
:102150000001005700010056000100550001005425
:102160000001005300000053000100520001005123
:10217000000100500001004F0001004E0000004E21
:102180000001004D0001004C0001004B0000004B1D
:102190000001004A00010049000100480000004819
:1021A0000001004700010046000000460001004514
:1021B000000000450001004400010043000000430E
:1021C0000001004200000042000100410000004107
:1021D000000100400001003F0000003F0001003E00
:1021E0000000003E0001003D0000003D0001003CF9
:1021F0000000003C0000003C0001003B0000003BF0
:102200000001003A0000003A0001003900000039E6
:1022100000010038000000380000003800010037DD
:1022200000000037000100360000003600000036D4
:1022300000010035000000350000003500010034C9
:1022400000000034000000340001003300000033BF
:1022500000000033000100320000003200000032B4
:1022600000010031000000310000003100010030A9
:1022700000000030000000300001002F0000002F9F
:102280000000002F0000002F0001002E0000002E93
:102290000000002E0001002D0000002D0000002D88
:1022A0000000002D0001002C0000002C0000002C7C
:1022B0000000002C0001002B0000002B0000002B70
:1022C0000000002B0001002A0000002A0000002A64
:1022D0000000002A00010029000000290000002958
:1022E000000000290000002900010028000000284B
:1022F000000000280000002800000028000100273E
:102300000000002700000027000000270000002731
:102310000001002600000026000000260000002624
:102320000000002600010025000000250000002517
:102330000000002500000025000000250001002409
:1023400000000024000000240000002400000024FD
:1023500000010023000000230000002300000023F0
:1023600000000023000000230000002300010022E1
:1023700000000022000000220000002200000022D5
:1023800000000022000100210000002100000021C7
:1023900000000021000000210000002100000021B9
:1023A00000010020000000200000002000000020AC
:1023B000000000200000002000000020000000209D
:1023C0000001001F0000001F0000001F0000001F90
:1023D0000000001F0000001F0000001F0001001E81
:1023E0000000001E0000001E0000001E000000652E
:1023F00063686F3A00546865726D616C2052756E47
:10240000617761792C2073797374656D2073746FB3
:102410007070656421204865617465725F49443A53
:1024200020002053544F50205052494E54200A004F
:102430002053544F50205052494E54200A002053EC
:10244000544F50205052494E54200A004572726F2A
:1024500072283833293A2042656420746865726DA9
:102460006973746F72206E6F742064657465637431
:102470006564004572726F72283832293A205269B9
:1024800067687420746865726D6973746F72206E0A
:102490006F74206465746563746564004572726F5F
:1024A00072283831293A204C656674207468657248
:1024B0006D6973746F72206E6F742020646574652B
:1024C0006374656400504944204175746F74756E7F
:1024D000652066696E69736865642100504944200F
:1024E0004175746F74756E65206661696C656421F1
:1024F0002074696D656F75740020403A006F6B2021
:10250000543A006F6B20423A0050494420417574A0
:102510006F74756E65206661696C65642120546511
:102520006D706572617475726520746F6F20686973
:10253000676800204B643A2000204B693A20002055
:102540004B703A200020436C6173736963205049DB
:102550004420002054753A2000204B753A2000207A
:102560006D61783A2000206D696E3A200020643A4F
:10257000200020626961733A20005049442041756F
:10258000746F74756E652066696E69736865642121
:102590002050757420746865206C617374204B70D2
:1025A0002C204B6920616E64204B6420636F6E7336
:1025B00074616E74732066726F6D2061626F7665F0
:1025C00020696E746F20436F6E66696775726174FF
:1025D000696F6E2E6800504944204175746F7475A0
:1025E0006E65206661696C6564212074696D656F34
:1025F00075740020403A006F6B20543A006F6B20D6
:10260000423A00504944204175746F74756E6520DC
:102610006661696C6564212054656D7065726174D2
:1026200075726520746F6F206869676800204B645D
:102630003A2000204B693A2000204B703A200020BD
:10264000436C6173736963205049442000205475C2
:102650003A2000204B753A2000206D61783A200026
:10266000206D696E3A200020643A20002062696182
:10267000733A20004572726F723A0070012C01901B
:10268000012701B0012201C0011D01F00118011054
:1026900002130130020E016002090190020401C020
:1026A00002FF000003FA004003F5008003F000D0B1
:1026B00003EB002004E6007004E100E004DC0040CD
:1026C00005D700C005D2004006CD00D006C8008066
:1026D00007C3003008BE00F008B900C009B400B05C
:1026E0000AAF00B00BAA00D00CA500000EA000504D
:1026F0000F9B00C01096005012910000148C00C077
:10270000158700B0178200B0197D00D01B7800003B
:102710001E730040206E0090226900F02464004087
:10272000275F0090295A00E02B5500102E50002002
:10273000304B0010324600E033410090353C001031
:1027400037370070383200A0392D00B03A2800A089
:102750003B2300603C1E00103D1900903D1400100A
:102760003E0F00703E0A00C03E0500003F00000022
:10277000000A0B02090C0D0E0807030401000000FB
:102780000000000000000000000000000000000049
:102790000000000000000000000000121110000006
:1027A0000000000000000000000000000000000029
:1027B0000000000000010210202008081020401036
:1027C00020408002010201080402010102040810F5
:1027D0002040808040201008040201800402018013
:1027E000402010080402010804020101020408103C
:1027F00020408001020408102040800505050507DF
:102800000508080808020202020A0A08080404046B
:102810000401010101010101010303030303030397
:1028200003040707070C0C0C0C0C0C0C0C02020226
:102830000206060606060606060B0B0B0B0B0B0B19
:102840000B000020002300260029002C002F00325E
:10285000000001000003010601090100002200251B
:102860000028002B002E003100340002010000057A
:102870000108010B0100002100240027002A002D7F
:10288000003000330001010000040107010A014E7D
:10289000414E494E495459494E46CDCCCC3D0AD7BC
:1028A000233C17B7D13877CC2B329595E6241FB14E
:1028B0004F0A000020410000C84200401C4620BCD6
:1028C000BE4CCA1B0E5AAEC59D746364696E6F70B0
:1028D000737578585B003915793D0D0129011B018D
:1028E000010111241FBECFEFD1E2DEBFCDBF00E05A
:1028F0000CBF19E0A0E0B2E0E4E4F4E503E00BBFB4
:1029000002C007900D92A23AB107D9F72CE1A2EAD2
:10291000B9E001C01D92A232B207E1F718E2C0EEA1
:10292000D8E200E006C022970109FE010BBF0F9418
:102930005E9EC63DD10780E00807A9F70F94139566
:102940000D9410AA0C9400008091D10990E0209180
:10295000D209821B910908952091D2098091D10951
:10296000281750F4E22FF0E0ED52F64F808190E00E
:102970002F5F2093D20908958FEF9FEF0895E09184
:10298000D2098091D109E81730F4F0E0ED52F64F0A
:10299000808190E008958FEF9FEF08950895CF9282
:1029A000DF92EF92FF920F931F93CF93DF937C01FF
:1029B000CB018A012091AE09222389F0EB016B0142
:1029C000C40ED51ECC15DD0561F06991D701ED91DE
:1029D000FC910190F081E02DC7011995F3CF642F90
:1029E0004BD0C801DF91CF911F910F91FF90EF90D5
:1029F000DF90CF900895CF93DF931F92CDB7DEB7CE
:102A000069832091AE092223D1F02091AF092032B1
:102A100040F021E030E0FC013383228380E090E04D
:102A200014C08091B009E82FF0E0EF54F64F99817F
:102A300090838F5F8093B0098093AF0904C061E0F9
:102A4000CE01019619D081E090E00F90DF91CF91F7
:102A50000895FC011382128248EE53E060E070E0BA
:102A600044835583668377838DE493E091838083E9
:102A7000089582EA99E0EDCF613298F42091600ADE
:102A8000243089F46093150AFC0187E19AE0DC01A7
:102A90002A2F281B261718F421912D93F9CF80E0B7
:102AA000089581E0089582E0089585ED8093BC004B
:102AB0008091BC0084FDFCCF1092600A089585ECE3
:102AC0008093BC001092600A08951F920F920FB677
:102AD0000F9211240BB60F922F933F934F935F9356
:102AE0006F937F938F939F93AF93BF93EF93FF93D6
:102AF0008091B900887F803609F49DC070F58832D6
:102B000009F45CC090F4803109F455C038F488238E
:102B100009F4F3C0883009F44EC0F2C0883109F4DA
:102B20004DC0803209F45EC0EBC0803409F469C046
:102B300050F4803309F456C0883309F0E1C0809323
:102B4000F309BDDFDDC0803509F44FC0883509F4D5
:102B50005DC0883409F0D4C0D2C0883909F4C3C03C
:102B6000A8F4883709F467C038F4883609F463C0DC
:102B7000803709F460C0C4C0883809F4B4C0803913
:102B800009F45FC0803809F0BBC05BC0803B09F42A
:102B900082C038F4803A09F466C0883A09F47BC0F0
:102BA000AFC0803C09F4A3C0883C09F4A0C0883BB6
:102BB00009F486C0A5C080915F0A10C09091380AC0
:102BC0008091370A981770F5E091380A81E08E0FEE
:102BD0008093380AF0E0E75CF54F80818093BB007A
:102BE00085EC82C08093F3098AC0E091380A81E0C5
:102BF0008E0F8093380A8091BB00F0E0E75CF54FC0
:102C000080839091380A8091370A6AC0E091380A2F
:102C100081E08E0F8093380A8091BB00F0E0E75C82
:102C2000F54F808380915E0A811169C081E08093B5
:102C30005D0A84EA5DC083E08093600A1092F40923
:102C4000CFCF8091F409803208F04DC0E091F409B3
:102C500081E08E0F8093F4098091BB00F0E0EB508F
:102C6000F64F8083BDCF2BDF8091F409803230F4A2
:102C7000E091F409F0E0EB50F64F10826091F40916
:102C800070E0E091590AF0915A0A85EF99E01995A0
:102C90001092F40935C084E08093600A1092160AFD
:102CA0001092150AE0915B0AF0915C0A19958091E7
:102CB000150A811105C081E08093150A1092170A48
:102CC000E091160A81E08E0F8093160AF0E0E95E2B
:102CD000F54F80818093BB009091160A8091150A70
:102CE000981708F47DCF85E88093BC0009C085EC77
:102CF0008093BC001092600A03C01092F309D5DEE5
:102D0000FF91EF91BF91AF919F918F917F916F91C3
:102D10005F914F913F912F910F900BBE0F900FBE7F
:102D20000F901F901895FC01148217821382128253
:102D300089E698E0918380830895DC01ED91FC9110
:102D40000190F081E02D199429E638E0FC013183EF
:102D500020832781222319F004960D94FD610895A4
:102D6000CF92DF92EF92FF920F931F93CF93DF9357
:102D7000EC01895A9F4FD7DFCE0188589F4FD3DF90
:102D80007E0127E9E20EF11C87016E0133E3C31ACD
:102D90003EEFD30AC801C7DF015E1F4F0C151D05AA
:102DA000C9F7FE01E153FE4F89E181831482359614
:102DB000178ACE018E509E4FB6DFFE01ED55FD4FB6
:102DC000108211821282138238961082118212822E
:102DD00013821A821B821C82188219826E0189E575
:102DE000C81A8DEFD80AF60110821182128213825E
:102DF000F80111821082FE01EF5EFD4F108286E322
:102E000091E0F7019C01119221503040E1F7FE0161
:102E1000E155FD4F81E08083CB5ADF4F1982188244
:102E20000F94D68F68577C4E8F4F9F4FF60160836B
:102E3000718382839383DF91CF911F910F91FF90D4
:102E4000EF90DF90CF900895FC0120E03EE2DB019F
:102E50004C91403241F0283011F430833196DB013F
:102E60004C91408331962F5F6F5F7F4F2B3079F706
:102E7000108208952F923F924F925F926F927F92AD
:102E80008F929F92AF92BF92CF92DF92EF92FF927A
:102E90000F931F93CF93DF93CDB7DEB7C858D109F7
:102EA0000FB6F894DEBF0FBECDBF8C016B017A0167
:102EB000CA57DF4F1882C658D04084E0E80EF11C94
:102EC000180192E1290E311CF801EC5AFF4FC95745
:102ED000DF4FF983E883C758D0405801F0E5AF1AB7
:102EE000FDEFBF0A38018EE4681A8DEF780A80E49E
:102EF000482E512C4C0E5D1E94E0490E511CA10130
:102F0000BE016F5F7F4FC7010F94676018160CF00A
:102F100009C12C85322F3871303109F091C0F5018B
:102F2000808191810197029708F48AC0BE016F5F8A
:102F30007F4FCE0187589F4F87DFA0961FAEA09787
:102F4000F6018081811107C069E573E0CE01815AE5
:102F50009F4F0F9488A3B601CE01815A9F4F0F94C3
:102F600088A3BE0167587F4FCE01815A9F4F0F94AF
:102F700088A369E573E0CE01815A9F4F0F9488A31F
:102F8000CE01805C9F4FCFDE21E0AE0147585F4FFE
:102F9000B701C2010F94F46381112EC0F501808145
:102FA0009181892B49F5E3E8F4E064914F016623B0
:102FB00061F0772767FD709582EE9AE1BEDEFFEF44
:102FC0008F1A9F0AF4016491F2CF6BE573E082EEF1
:102FD0009AE10F945D956AE070E082EE9AE1ADDED1
:102FE000BE0167587F4F82EE9AE10F945D956AE0CB
:102FF00070E082EE9AE1A1DE8BE1FE01EC5BFF4F17
:10300000DE01959601900D928A95E1F724968EAD9A
:103010009FAD24979CA38BA389E698E09AA389A3EC
:10302000AE014F5D5F4FBE01615A7F4FC80122DF85
:10303000CE01819689DECE01805C9F4F85DE5FCF19
:103040008981882309F46EC0853E09F458CF8E32F9
:1030500009F455CF8F3509F452CFF80182898823BE
:1030600031F08E3209F44BCF8F3509F448CF23FD70
:1030700046CF81E0303109F080E0C957DF4FE88169
:10308000F981C758D0408083811108C08985873471
:1030900009F035CF8A858E3709F431CF4801F5E044
:1030A0008F0E911CBE016F5F7F4FC401CDDEF50115
:1030B00080819181009781F4B60182EE9AE10F94AC
:1030C0005D95B40182EE9AE10F945D956AE070E03F
:1030D00082EE9AE132DE13CF8130910539F4F301AB
:1030E0008081918101969183808309CF029709F0B5
:1030F00006CFCA57DF4FF881C658D0402F2F30E097
:10310000F301808191812817390761F0CA57DF4F99
:10311000F881C658D040FF5FCA57DF4FF883C658C2
:10312000D040EDCEC857DF4F0FB6F894DEBF0FBECC
:10313000CDBFDF91CF911F910F91FF90EF90DF9066
:10314000CF90BF90AF909F908F907F906F905F9047
:103150004F903F902F9008950F931F93CF93DF933D
:10316000CDB7DEB76F970FB6F894DEBF0FBECDBFF9
:103170008C01FC01E055FD4F1182108240E050E0CF
:10318000BA01855A9F4F0F941A61C801895A9F4FFF
:103190002BE1FC013496DE01159601900D922A95E3
:1031A000E1F7FC01828193819C838B8389E698E01F
:1031B0009A838983AE014F5F5F4F64E979E0C8016C
:1031C00059DECE010196C0DD6F960FB6F894DEBFD2
:1031D0000FBECDBFDF91CF911F910F9108952BE1CD
:1031E000FB013496DC01149601900D922A95E1F7CB
:1031F000FB0122813381FC01338322830895EF9206
:10320000FF920F931F93CF93DF93EC011C82FC017D
:10321000E25AFF4F8081882329F0CE01855A9F4FC3
:103220000F94FD617E0181E3E81A8EEFF80A45E311
:1032300060E0C7010F947E5C81113AC0E3E8F4E0DE
:1032400064918F01662359F0772767FD709582EEB0
:103250009AE173DD0F5F1F4FF8016491F3CFE6E74A
:10326000F4E064918F01662359F0772767FD70952C
:1032700082EE9AE162DD0F5F1F4FF8016491F3CF98
:103280006AE070E082EE9AE158DD8E01095A1F4F24
:10329000B801CE0188589F4FA2DFCA58DF4F19836B
:1032A0000883DF91CF911F910F91FF90EF900895C8
:1032B0008E010C521E4F41E0B701C8010F94E7691F
:1032C00081112AC040E0B701C8010F94E76981115C
:1032D00023C0E9E8F4E064918F01662359F0772771
:1032E00067FD709582EE9AE128DD0F5F1F4FF801B0
:1032F0006491F3CFE3E6F4E064918F01662309F46F
:10330000BFCF772767FD709582EE9AE116DD0F5FDC
:103310001F4FF8016491F2CFB801CE01855A9F4F3B
:103320000F940B5F811123C0E9E8F4E064918F01F1
:10333000662359F0772767FD709582EE9AE1FDDCF0
:103340000F5F1F4FF8016491F3CFE3E5F4E0649160
:103350008F01662309F494CF772767FD709582EE7D
:103360009AE1EBDC0F5F1F4FF8016491F2CF81E02F
:103370008C83E3E8F4E064918F01662359F07727AA
:1033800067FD709582EE9AE1D8DC0F5F1F4FF80160
:103390006491F3CFE8E4F4E064918F01662309F4CB
:1033A0006FCF772767FD709582EE9AE1C6DC0F5FDD
:1033B0001F4FF8016491F2CFFC011282148208952C
:1033C000CF93DF93EC018C818823B9F06EE673E034
:1033D00082EE9AE10F945D954091660D5091670DD4
:1033E0006091680D7091690D22E030E082EE9AE103
:1033F0000F94479781E08A831B82DF91CF910895D4
:10340000FC018281882319F0128281E08383089570
:10341000AF92BF92CF92DF92EF92FF920F931F93E2
:10342000CF93DF931F92CDB7DEB78C018FE2FB0104
:1034300081935F01D12C41E07801F3E3EF1AFEEFB5
:10344000FF0A9FE1C92E2D2D30E0F7018081918187
:1034500028173907D8F4C29EC001C39E900D1124CD
:1034600085569F4FB501800F911F49830F94B25E1F
:10347000C50149815C010196F5012081222321F0DB
:103480004D3810F44F5FF6CFD394DDCF47FD11C018
:10349000B501C8018A509E4F0F90DF91CF911F91C7
:1034A0000F91FF90EF90DF90CF90BF90AF900D9471
:1034B000B25EF50110820F90DF91CF911F910F91B5
:1034C000FF90EF90DF90CF90BF90AF9008953F9224
:1034D0004F925F926F927F928F929F92AF92BF9224
:1034E000CF92DF92EF92FF920F931F93CF93DF93D0
:1034F000CDB7DEB7AC970FB6F894DEBF0FBECDBF29
:103500008C016B01342EFC018481882309F4D0C224
:10351000E750FE4F8081882309F407C12111D1C0F3
:103520007801FFEEEF1AFDEFFF0AF7018081882393
:1035300009F432C0E9E8F4E064918F01662359F0A0
:10354000772767FD709582EE9AE1F7DB0F5F1F4FDB
:10355000F8016491F3CFE5E0F4E064918F01662314
:1035600059F0772767FD709582EE9AE1E6DB0F5FF1
:103570001F4FF8016491F3CF4AE050E061E070E042
:1035800082EE9AE10F940C966AE070E082EE9AE186
:10359000D4DB0E94129D8CC2E3E8F4E064915F01E9
:1035A000662361F0772767FD709582EE9AE1C5DBAF
:1035B000FFEFAF1ABF0AF5016491F2CFECEEF3E032
:1035C00064915F01662361F0772767FD709582EE55
:1035D0009AE1B3DBFFEFAF1ABF0AF5016491F2CFB6
:1035E000B60182EE9AE10F945D95E1EEF3E064910D
:1035F0005F01662361F0772767FD709582EE9AE19F
:103600009CDBFFEFAF1ABF0AF5016491F2CFF7011F
:1036100080812DE8B22EB801B89E600D711D112475
:103620006A5E7D4FC801F4DEF7018081B801B89E63
:10363000600D711D11246A5E7D4F82EE9AE10F9438
:103640005D95EBEDF3E064915F01662361F0772710
:1036500067FD709582EE9AE170DBFFEFAF1ABF0A4B
:10366000F5016491F2CF5801F5E5AF1AFDEFBF0AFD
:10367000F50140815181628173812AE030E082EE60
:103680009AE10F9439966AE070E082EE9AE155DB98
:10369000F7012081F80184E0289FE00DF11D11243D
:1036A000AF014E5E5D4FF50180819181A281B381B2
:1036B000FA0180839183A283B3832F5FF701208374
:1036C0002EC0E3E8F4E064917F01662361F0772780
:1036D00067FD709582EE9AE130DBFFEFEF1AFF0A8B
:1036E000F7016491F2CFEAECF3E064917F01662385
:1036F00061F0772767FD709582EE9AE11EDBFFEFA0
:10370000EF1AFF0AF7016491F2CFB60182EE9AE157
:103710000F945D956AE070E082EE9AE10EDBC801DD
:103720008A509E4F0F94FD6132C0F801EF5EFD4F4D
:103730001082E3E8F4E064917F01662361F077276B
:1037400067FD709582EE9AE1F8DAFFEFEF1AFF0A53
:10375000F7016491F2CFE9EBF3E064917F01662316
:1037600061F0772767FD709582EE9AE1E6DAFFEF68
:10377000EF1AFF0AF7016491F2CFB60182EE9AE1E7
:103780000F945D956AE070E082EE9AE1D6DAF80176
:103790001282CE0101965C01C6DA280196E7490E35
:1037A000511CC801895A9F4FF20191838083F60111
:1037B00080818F3209F07BC06FE270E0C6010F9408
:1037C00093A301967C01E114F10409F476C06FE241
:1037D00070E0C7010F9493A34C01009709F46EC0E9
:1037E000E816F90608F06AC03C016E187F08A301CC
:1037F000B701CE0180960F94BCA3E0E2F0E0EC0F9D
:10380000FD1FE60DF71D1082BE01605E7F4F82EE48
:103810009AE10F945D956AE070E082EE9AE18DDAAC
:10382000F201608171816115710519F06C5F7F4F44
:1038300002C060E070E021E0AE01405E5F4FCE016B
:1038400005960F94F46381112AC0E5EAF3E06491D0
:103850008F01662359F0772767FD709582EE9AE114
:103860006CDA0F5F1F4FF8016491F3CFBE01605E09
:103870007F4F82EE9AE10F945D95E3EAF3E0649165
:103880008F01662309F40DC1772767FD709582EEDD
:103890009AE153DA0F5F1F4FF8016491F2CFF20102
:1038A000B182A0827401FFEFEF1AFF0A8CCFC8012A
:1038B00088589F4FF201918380837601C8018A5016
:1038C0009E4F4C01F20160817181332009F49AC04E
:1038D0006115710519F06C5F7F4F02C060E070E008
:1038E00021E0A701C4010F94F463882309F462C0A6
:1038F000F40181899289A389B489F801ED55FD4FBE
:1039000080839183A283B383E5E9F3E064914F015F
:10391000C8018D559D4F6C01662361F0772767FDC7
:10392000709582EE9AE109DA9FEF891A990AF401FB
:103930006491F2CFB70182EE9AE10F945D95EDE8C4
:10394000F3E064917F01662361F0772767FD70954E
:1039500082EE9AE1F2D9FFEFEF1AFF0AF7016491C4
:10396000F2CFF60140815181628173812AE030E01B
:1039700082EE9AE10F9439966AE070E082EE9AE165
:10398000DCD9F801E555FD4F1082118212821382B5
:10399000EFE7F3E064918F01662309F482C0772793
:1039A00067FD709582EE9AE1C8D90F5F1F4FF8014D
:1039B0006491F2CFEBE6F3E064918F01662359F056
:1039C000772767FD709582EE9AE1B7D90F5F1F4F99
:1039D000F8016491F3CFB70182EE9AE10F945D95FF
:1039E000E9E6F3E064918F01662309F45AC0772772
:1039F00067FD709582EE9AE1A0D90F5F1F4FF80125
:103A00006491F2CF6115710519F06C5F7F4F02C0B0
:103A100060E070E026E5A701C4010F94F463811112
:103A200027C0E5E5F3E064918F01662359F077271D
:103A300067FD709582EE9AE180D90F5F1F4FF80104
:103A40006491F3CFB70182EE9AE10F945D95E3E5BF
:103A5000F3E064918F01662321F1772767FD70956C
:103A600082EE9AE16AD90F5F1F4FF8016491F3CF9C
:103A700081E0F8018083E1E4F3E064918F01662343
:103A800059F0772767FD709582EE9AE156D90F5F5E
:103A90001F4FF8016491F3CFB60182EE9AE10F94C3
:103AA0005D956AE070E082EE9AE147D9C5014CD994
:103AB000AC960FB6F894DEBF0FBECDBFDF91CF91AD
:103AC0001F910F91FF90EF90DF90CF90BF90AF903C
:103AD0009F908F907F906F905F904F903F90089550
:103AE00021E0FC01218340E0F2CC4F925F926F9283
:103AF0007F928F929F92AF92BF92CF92DF92EF927E
:103B0000FF920F931F93CF93DF93CDB7DEB7AC97A0
:103B10000FB6F894DEBF0FBECDBF7C015B01FC0188
:103B20008481882309F4F9C0C7018A509E4F0F94FD
:103B3000FD61F7011282CE0101966C01F4D82701D4
:103B400096E7490E511CC701895A9F4FF201918394
:103B50008083F50180818F3209F077C06FE270E0D9
:103B6000C5010F9493A38C010F5F1F4F09F473C01D
:103B70006FE270E0C8010F9493A34C01009709F421
:103B80006BC00817190708F067C03C01601A710A7A
:103B9000A301B801CE0180960F94BCA3E0E2F0E04F
:103BA000EC0FFD1FE60DF71D1082BE01605E7F4F1A
:103BB00082EE9AE10F945D956AE070E082EE9AE100
:103BC000BCD8F201608171816115710519F06C5FDB
:103BD0007F4F02C060E070E021E0AE01405E5F4FC9
:103BE000CE0105960F94F46381112AC0EDE2F3E053
:103BF00064918F01662359F0772767FD709582EEF7
:103C00009AE19BD80F5F1F4FF8016491F3CFBE017B
:103C1000605E7F4F82EE9AE10F945D95EBE2F3E0F8
:103C200064918F01662309F471C0772767FD709551
:103C300082EE9AE182D80F5F1F4FF8016491F2CFB4
:103C4000F201D182C08284018FCFC70188589F4F73
:103C5000F201918380838501F20180819181009737
:103C600011F0049602C080E090E0B8010F94CA649D
:103C7000882321F1EDE1F3E064915F01662361F0B7
:103C8000772767FD709582EE9AE157D8FFEFAF1A5C
:103C9000BF0AF5016491F2CFB80182EE9AE10F9468
:103CA0005D956AE070E082EE9AE147D8F701E5554C
:103CB000FD4F10821182128213822DC0E5E0F3E0E5
:103CC00064917F01662361F0772767FD709582EE2E
:103CD0009AE133D8FFEFEF1AFF0AF7016491F2CFB0
:103CE000B80182EE9AE10F945D95E3E0F3E0649110
:103CF0008F01662359F0772767FD709582EE9AE170
:103D00001CD80F5F1F4FF8016491F3CF6AE070E099
:103D100082EE9AE112D8C60117D8AC960FB6F89485
:103D2000DEBF0FBECDBFDF91CF911F910F91FF90EE
:103D3000EF90DF90CF90BF90AF909F908F907F904B
:103D40006F905F904F9008950F931F93CF93DF93E1
:103D5000EC018C81882309F43EC0E1EFF2E064912C
:103D60008F01662361F0772767FD709582EE9AE1F7
:103D70000E949D160F5F1F4FF8016491F2CFFE0164
:103D8000E555FD4F40815181628173812AE030E029
:103D900082EE9AE10F943996EFEEF2E064918F0192
:103DA000662361F0772767FD709582EE9AE10E94A5
:103DB0009D160F5F1F4FF8016491F2CFCD55DD4F77
:103DC000488159816A817B812AE030E082EE9AE164
:103DD0000F94399611C0EFEDF2E06491EF01662384
:103DE00059F0772767FD709582EE9AE10E949D1643
:103DF0002196FE016491F3CF6AE070E082EE9AE1D1
:103E0000DF91CF911F910F910C949D16AF92BF92AD
:103E1000CF92DF92EF92FF920F931F93CF93DF9396
:103E20005C01EB01FB0101900020E9F78F010150DB
:103E30001109061B170B6C01FAE0CF1AFEEFDF0A1F
:103E4000F60110826EE470E0CE010F9493A37C0122
:103E5000009729F4F8013197EC0FFD1F0DC060E2C7
:103E600070E00F9493A3EC0121966AE270E0C70121
:103E70000F9493A3FC0131978DE081838AE08283C4
:103E80001382BE01C5018E509E4F0F949066F601BD
:103E90008081882391F1E9E8F4E06491EF016623E1
:103EA00059F0772767FD709582EE9AE10E949D1682
:103EB0002196FE016491F3CFE9ECF2E06491EF0109
:103EC000662359F0772767FD709582EE9AE10E948C
:103ED0009D162196FE016491F3CF6AE070E082EEB8
:103EE0009AE1DF91CF911F910F91FF90EF90DF90BA
:103EF000CF90BF90AF900C949D16DF91CF911F9102
:103F00000F91FF90EF90DF90CF90BF90AF9008950A
:103F10002F923F924F925F926F927F928F929F92D9
:103F2000AF92BF92CF92DF92EF92FF920F931F93C7
:103F3000CF93DF93CDB7DEB7CC55D1090FB6F89448
:103F4000DEBF0FBECDBF4C018C0101551D4F662356
:103F500039F0F8011082F401848181111DC015C06F
:103F6000F8018081882309F4AFC0F401E955FD4FC1
:103F7000C080D180E280F3800F94D68FC616D7061A
:103F8000E806F90608F4A0C0E4CFC40138D9F4016A
:103F90008481882309F498C07401F5E5EF0EF11CC3
:103FA000F70181818F9380818F9380EC92E09F93C2
:103FB0008F938E01015C1F4F1F930F930F94F9A3F2
:103FC0000F900F900F900F900F900F90B12CF80161
:103FD00001900020E9F73197E01BF10BBE1684F445
:103FE0006801CB0CD11CB7FCDA94F60180819927CB
:103FF00087FD90950F9431A3F6018083B394E7CFAA
:10400000FBE58F0E911C40E050E0BA01C4010F9413
:104010001A61512CCE0101966C0139EB632E32E00E
:10402000732E5E0191E2A90EB11C40E050E0B60192
:10403000C4010F9467601816DCF5412CF60101905D
:104040000020E9F73197EC19FD094E1674F41601BA
:10405000240C311C47FC3A94F101808190E00F94CC
:1040600031A3F10180834394E9CF8A858E37E9F249
:1040700045E050E0B801C6010F94AEA3892BA9F624
:104080001F930F937F926F92BF92AF920F94F9A3F9
:10409000C5010E949B4885EB92E00E9417490F9052
:1040A0000F900F900F900F900F9055245394BDCF09
:1040B000511004C08FEF9FEFF70104C0F70180811A
:1040C0009181019691838083C45ADF4F0FB6F89493
:1040D000DEBF0FBECDBFDF91CF911F910F91FF903B
:1040E000EF90DF90CF90BF90AF909F908F907F9098
:1040F0006F905F904F903F902F900895EF92FF92B6
:104100000F931F93CF93DF931F92CDB7DEB78C0130
:104110007C018AE0E81A8EEFF80AC70169830F94E0
:10412000B361C7010F94FD61F801108211826981AA
:10413000662309F4F1C08091950D9091960DA091A0
:10414000970DB091980D8093270E9093280EA09311
:10415000290EB0932A0E8091990D90919A0DA091FD
:104160009B0DB0919C0D8093230E9093240EA093F1
:10417000250EB093260E80919D0D90919E0DA091DD
:104180009F0DB091A00D80931F0E9093200EA093D1
:10419000210EB093220E8091FB0C90E090931E0EA6
:1041A00080931D0E4091A10D5091A20D6091A30D21
:1041B0007091A40D4093190E50931A0E60931B0E2C
:1041C00070931C0EF70180859185A285B38580933D
:1041D000150E9093160EA093170EB093180E8091A3
:1041E000BC1A9091BD1A9093120E8093110E80917B
:1041F000BE1A9091BF1A9093140E8093130E809163
:10420000BA1A9091BB1A9093100E80930F0E0E94D1
:10421000A64B6093090E70930A0E80930B0E909339
:104220000C0E8091F90C9091FA0C90930E0E8093E5
:104230000D0E8091DE0D8093F40D8091DF0D909135
:10424000E00D9093F60D8093F50D8091E10D909126
:10425000E20D9093F80D8093F70D8091E30D90910E
:10426000E40D9093FA0D8093F90D8091E50D9091F6
:10427000E60D9093FC0D8093FB0D8091E70D9091DE
:10428000E80D9093FE0D8093FD0D8091E90D9091C6
:10429000EA0D9093000E8093FF0D8091EB0D9091AD
:1042A000EC0D9093020E8093010E8091ED0D909194
:1042B000EE0D9093040E8093030E8091EF0D90917C
:1042C000F00D9093060E8093050E8091F10D909164
:1042D000F20D9093080E8093070EE9EAF2E06491E4
:1042E0008F01662361F0772767FD709582EE9AE172
:1042F0000E949D160F5F1F4FF8016491F2CF6AE094
:1043000070E082EE9AE10F90DF91CF911F910F91B3
:10431000FF90EF900C949D160F90DF91CF911F911D
:104320000F91FF90EF900895EF92FF920F931F93DC
:10433000CF93DF93CDB7DEB76F970FB6F894DEBF9C
:104340000FBECDBF8C017C0186E7E80EF11CC801D1
:1043500088589F4FF70191838083E65CFD4F22E0F0
:1043600030E031832083329670E07183608340E0D7
:1043700050E0BA0104960F941A61F701808191818F
:104380002BE1FC013496DE01159601900D922A95E1
:10439000E1F7FC01828193819C838B8389E698E01D
:1043A0009A838983AE014F5F5F4F64E979E0C8016A
:1043B0000E943A17CE0101960E94A4166F960FB67E
:1043C000F894DEBF0FBECDBFDF91CF911F910F914B
:1043D000FF90EF900895CF92DF92EF92FF920F93AC
:1043E0001F93CF93DF93CDB7DEB76F970FB6F894D7
:1043F000DEBF0FBECDBF8C016C0126E7C20ED11C03
:1044000088589F4FF60191838083E65CFD4F21E041
:1044100030E0318320837801FEE4EF1AFDEFFF0ADC
:10442000F7011182108240E050E0BA0104960F9427
:104430001A61F601808191812BE1FC013496DE0145
:10444000159601900D922A95E1F7FC0182819381E6
:104450009C838B8389E698E09A838983AE014F5FC2
:104460005F4F64E979E0C8010E943A17CE010196D6
:104470000E94A416F701808191816F960FB6F8947F
:10448000DEBF0FBECDBFDF91CF911F910F91FF9087
:10449000EF90DF90CF900895AF92BF92CF92DF92CE
:1044A000EF92FF920F931F93CF93DF93CDB7DEB7B9
:1044B0006F970FB6F894DEBF0FBECDBF8C017B01A6
:1044C000CE0101960E949316F801E158FF4F8081BA
:1044D0006801811104C027E5C20ED11C03C088E722
:1044E000C80ED11C21E0A701B6016C5F7F4FCE0141
:1044F00005960F94F463811136C0E3E8F4E064910B
:104500008F01662361F0772767FD709582EE9AE14F
:104510000E949D160F5F1F4FF8016491F2CFE3E9EF
:10452000F2E064918F01662361F0772767FD709553
:1045300082EE9AE10E949D160F5F1F4FF801649171
:10454000F2CFB70182EE9AE10F945D956AE070E0D8
:1045500082EE9AE10E949D16CE0101960E94A41659
:104560008FEF9FEF3AC0F801E353FE4F80819181B6
:104570008A30910530F59C012F5F3F4F31832083B6
:104580002FE1289F7001299FF00C1124F7E9EF0E0D
:10459000F11CE00EF11E5C01B701C7014F960E94AD
:1045A000EF1821E0A21AB1088FE1E81AF108EFEF45
:1045B000AE16BE0689F7B601C80189569F4F0E9404
:1045C000EF18BE016F5F7F4FC80188589F4F0E9450
:1045D000EF18CE0101960E94A4166F960FB6F894BC
:1045E000DEBF0FBECDBFDF91CF911F910F91FF9026
:1045F000EF90DF90CF90BF90AF900895EF92FF9231
:104600000F931F93CF93DF93EC01C353DE4F2881A9
:1046100039812115310529F1215031093983288348
:104620008C0109561F4FB80188589F4F0E94EF1800
:10463000C80100E010E0288139817C014FE1E40EDF
:10464000F11C0217130738F40F5F1F4FB7010E94C8
:10465000EF18C701F0CF81E090E0232B21F080E03C
:1046600002C08FEF9FEFDF91CF911F910F91FF90CD
:10467000EF9008958F929F92AF92BF92CF92DF9268
:10468000EF92FF920F931F93CF93DF93EC01109261
:10469000AD0D80912A0D90912B0D019690932B0DCD
:1046A00080932A0DD0D28EE892E00E9417490F9491
:1046B00065737E018FEEE81A8DEFF80AF7018081AD
:1046C0008E010A501E4F8823D9F1C8010F94FD6155
:1046D000F701808181508083BE01FDE88F9F600DCE
:1046E000711D11246A5E7D4F21E041E0CE010E94E0
:1046F000671AF7018081FE0194E0899FE00DF11DAA
:104700001124EE5EFD4F4081518162817381FE0173
:10471000E555FD4F4083518362837383C8010F9435
:104720001A61CE01DF91CF911F910F91FF90EF9011
:10473000DF90CF90BF90AF909F908F900C94E01936
:104740000F94F673C8010F94FD611A8220E030E0E7
:1047500045E050E06AE070E085E691E10E94F23ABF
:104760008BE892E00E9417490F94657386E892E007
:104770000E9417491092BD1A1092BC1A1092BF1ACB
:104780001092BE1A1092BB1A1092BA1A10924A0EC8
:104790001092490E1092480E6091300D7091310DBB
:1047A0008091320D9091330D2CE330E040E050E0E9
:1047B0000F94499D30932D0D20932C0D70932F0D48
:1047C00060932E0DC0906D17D0906E17E0906F170C
:1047D000F090701720911C0D30911D0D40911E0D11
:1047E00050911F0D6091200D7091210D8091220D2F
:1047F0009091230D0F94A0994B015C012091B1176A
:104800003091B2174091B3175091B4176091B5171A
:104810007091B6178091B7179091B8170F94E199DE
:10482000A70196010F94CD989B01AC01C501B4017D
:104830000F94ED970F94359920931C0D30931D0D17
:1048400040931E0D50931F0D6093200D7093210D0A
:104850008093220D9093230D2091140D3091150D0E
:104860004091160D5091170D6091180D7091190D12
:1048700080911A0D90911B0D0F94A0994B015C0132
:104880002091A9173091AA174091AB175091AC17FE
:104890006091AD177091AE178091AF179091B017DE
:1048A0000F94E199A70196010F94CD989B01AC015B
:1048B000C501B4010F94ED970F9435992093140D11
:1048C0003093150D4093160D5093170D6093180DEE
:1048D0007093190D80931A0D90931B0D20910C0D60
:1048E00030910D0D40910E0D50910F0D6091100DF6
:1048F0007091110D8091120D9091130D0F94A0994C
:104900006B017C012091A1173091A2174091A31750
:104910005091A4176091A5177091A6178091A717C1
:104920009091A8170F94E199209171173091721707
:1049300040917317509174170F94CD989B01AC015F
:10494000C701B6010F94ED970F94359920930C0D84
:1049500030930D0D40930E0D50930F0D6093100D7D
:104960007093110D8093120D9093130DC0907917D1
:10497000D0907A17E0907B17F0907C172091040D6F
:104980003091050D4091060D5091070D6091080D75
:104990007091090D80910A0D90910B0D0F94A099C3
:1049A0004B015C012091991730919A1740919B1708
:1049B00050919C1760919D1770919E1780919F1741
:1049C0009091A0170F94E199A70196010F94CD98AB
:1049D0009B01AC01C501B4010F94ED970F9435997B
:1049E0002093040D3093050D4093060D5093070D51
:1049F0006093080D7093090D80930A0D90930B0D31
:104A00002091FC0C3091FD0C4091FE0C5091FF0C5C
:104A10006091000D7091010D8091020D9091030D38
:104A20000F94A0994B015C0120919117309192173E
:104A30004091931750919417609195177091961724
:104A400080919717909198170F94E199A70196017B
:104A50000F94CD989B01AC01C501B4010F94ED9763
:104A60000F9435992093FC0C3093FD0C4093FE0C71
:104A70005093FF0C6093000D7093010D8093020D15
:104A80009093030D1092B1171092B2171092B317B2
:104A90001092B4171092B5171092B6171092B7175C
:104AA0001092B8171092A9171092AA171092AB176C
:104AB0001092AC171092AD171092AE171092AF175C
:104AC0001092B0171092A1171092A2171092A3176C
:104AD0001092A4171092A5171092A6171092A7175C
:104AE0001092A8171092991710929A1710929B176C
:104AF00010929C1710929D1710929E1710929F175C
:104B00001092A0171092911710929217109293176B
:104B1000109294171092951710929617109297175B
:104B20001092981790D08AE792E00E9417498091DE
:104B30000C178823F9F010920C17C091FB0CD0E0F1
:104B4000CC0FDD1FC454D54E68817981882777FD4D
:104B50008095982F0F94A6992091AD023091AE02C6
:104B60004091AF025091B0020F94559B181614F467
:104B700019821882DF91CF911F910F91FF90EF90D2
:104B8000DF90CF90BF90AF909F908F9008958D55FC
:104B90009D4FFC01608171818281938108958555CB
:104BA0009D4FFC0160817181828193810895EF9214
:104BB000FF920F931F93CF93DF931F92CDB7DEB772
:104BC0008C017B01460FF70161917F01F801808123
:104BD000918149830F94F7A8F80180819181019612
:104BE0009183808349814E11EECF0F90DF91CF9159
:104BF0001F910F91FF90EF900895EF92FF920F9306
:104C00001F93CF93DF931F92CDB7DEB78C017B014B
:104C1000460FF8018081918149830F94EFA8F70135
:104C200081937F01F8018081918101969183808336
:104C300049814E11EECF0F90DF91CF911F910F91CF
:104C4000FF90EF9008950F931F93CF93DF93CDB70D
:104C5000DEB768970FB6F894DEBF0FBECDBF80E316
:104C600090E3A0E3B0E08D839E83AF83B88704E632
:104C700010E0188F0F8B44E0BE016B5F7F4FCE01B9
:104C8000479695DF40E16DE677E1CE0147968FDFED
:104C900040E16DE777E1CE01479689DF40E16DE5C0
:104CA00077E1CE01479683DF44E065E577E1CE0109
:104CB00047967DDF44E061E577E1CE01479677DFF7
:104CC00044E069E577E1CE01479671DF44E061E4B5
:104CD00077E1CE0147966BDF44E06DE877E1CE01E6
:104CE000479665DF44E06DE477E1CE0147965FDFEC
:104CF00044E069E477E1CE01479659DF44E065E49A
:104D000077E1CE01479653DF4CE069E77DE0CE01C5
:104D100047964DDF87ED90E09E8B8D8B8DE290E086
:104D20009C8B8B8B1A8A198A80EF90E0988B8F87E7
:104D300086E490E09E878D871C861B8642E0BE013C
:104D40006B5E7F4FCE01479632DF42E0BE016D5E63
:104D50007F4FCE0147962BDF42E0BE016F5E7F4F53
:104D6000CE01479624DF42E0BE01615F7F4FCE0156
:104D700047961DDF42E0BE01635F7F4FCE0147963D
:104D800016DF42E0BE01655F7F4FCE0147960FDF21
:104D900044E066E67DE0CE01479609DF44E06BE241
:104DA00072E0CE01479603DF44E063E372E0CE0198
:104DB0004796FDDE44E06BE372E0CE014796F7DEF6
:104DC00042E068ED7DE0CE014796F1DE42E06CED19
:104DD0007DE0CE014796EBDE42E06AED7DE0CE015C
:104DE0004796E5DE42E066ED7DE0CE014796DFDEE8
:104DF00042E068EC7DE0CE014796D9DE42E06CEC03
:104E00007DE0CE014796D3DE42E06AEC7DE0CE0144
:104E10004796CDDE42E066EC7DE0CE014796C7DEE8
:104E200042E060ED7DE0CE014796C1DE42E064EDF8
:104E30007DE0CE014796BBDE42E062ED7DE0CE0133
:104E40004796B5DE42E06EEC7DE0CE014796AFDEE0
:104E500042E060EC7DE0CE014796A9DE42E064ECE2
:104E60007DE0CE014796A3DE42E062EC7DE0CE011C
:104E700047969DDE42E06EEB7DE0CE01479697DEE1
:104E800044E06CE073E0CE01479691DE44E064E0DC
:104E900073E0CE0147968BDE44E06CEF72E0CE010A
:104EA000479685DE44E060E173E0CE0147967FDE01
:104EB00044E068E073E0CE01479679DE44E060E0CC
:104EC00073E0CE01479673DE42E066E37DE0CE01FB
:104ED00047966DDE42E06AE27DE0CE01479667DEEE
:104EE00042E068E27DE0CE01479661DE42E066E2A4
:104EF0007DE0CE0147965BDE42E064E37DE0CE01DB
:104F0000479655DE42E064E27DE0CE0147964FDEF3
:104F100080E290E09A87898742E0BE01675F7F4F19
:104F2000CE01479644DE42E062E57EE0CE01479640
:104F30003EDE44E06EE47EE0CE01479638DE42E09D
:104F40006CE47EE0CE01479632DE42E06EE27DE028
:104F5000CE0147962CDE42E06CE27DE0CE01479622
:104F600026DE48E06CE17DE0CE01479620DE48E099
:104F700064E17DE0CE0147961ADE48E06CE07DE01A
:104F8000CE01479614DE48E064E07DE0CE0147960E
:104F90000EDE48E06CEF7CE0CE01479608DE41E093
:104FA0006EE672E0CE01479602DE41E063EF7DE0FF
:104FB000CE014796FCDD44E067E27EE0CE014796F5
:104FC000F6DD44E063E27EE0CE014796F0DD44E0AA
:104FD0006FE17EE0CE014796EADD42E06DE17EE0E2
:104FE000CE014796E4DD44E069E17EE0CE014796DC
:104FF000DEDD44E065E17EE0CE014796D8DD42E0AB
:1050000063E17EE0CE014796D2DD42E061E17EE0E1
:10501000CE014796CCDD42E06FE07EE0CE014796C0
:10502000C6DD42E06DE07EE0CE014796C0DD44E0A3
:1050300069E07EE0CE014796BADD41E064EF7DE0B5
:10504000CE014796B4DD42E065EF7DE0CE014796A4
:10505000AEDD42E067EF7DE0CE014796A8DD42E09D
:1050600069EF7DE0CE014796A2DD42E06BEF7DE087
:10507000CE0147969CDD42E06DEF7DE0CE01479684
:1050800096DD42E06FEF7DE0CE01479690DD42E095
:1050900061E07EE0CE0147968ADD42E063E07EE09B
:1050A000CE01479684DD42E065E07EE0CE01479682
:1050B0007EDD42E067E07EE0CE01479678DD86E562
:1050C00091E3A2E3B0E089839A83AB83BC83188F1A
:1050D0000F8B44E0BE016F5F7F4FCE01479667DDC7
:1050E000EFEAFAE064918F01662361F0772767FDAC
:1050F000709582EE9AE10E949D160F5F1F4FF80196
:105100006491F2CFEFE9FAE064918F01662361F0D8
:10511000772767FD709582EE9AE10E949D160F5FDA
:105120001F4FF8016491F2CF6AE070E082EE9AE1DD
:105130000E949D1668960FB6F894DEBF0FBECDBFD5
:10514000DF91CF911F910F9108950F931F93CF93EC
:10515000DF93CFEADAE0FE0164918E01662361F00D
:10516000772767FD709582EE9AE10E949D160F5F8A
:105170001F4FF8016491F2CFEFE8FAE064918F01DC
:10518000662361F0772767FD709582EE9AE10E94B1
:105190009D160F5F1F4FF8016491F2CF6AE070E037
:1051A00082EE9AE10E949D16FE0164910FEA1AE0D8
:1051B000662361F0772767FD709582EE9AE10E9481
:1051C0009D160F5F1F4FF8016491F2CF40916D174C
:1051D00050916E1760916F177091701787E89AE081
:1051E0000E942F4840917117509172176091731768
:1051F0007091741784E89AE00E942F4840917517C7
:1052000050917617609177177091781781E89AE03E
:105210000E942F484091791750917A1760917B171F
:1052200070917C178EE79AE00E942F4864E979E03C
:1052300082EE9AE10F945D956AE070E082EE9AE169
:105240000E949D16FE0164910FEA1AE0662361F048
:10525000772767FD709582EE9AE10E949D160F5F99
:105260001F4FF8016491F2CFE4E6FAE064918F01F8
:10527000662361F0772767FD709582EE9AE10E94C0
:105280009D160F5F1F4FF8016491F2CF6AE070E046
:1052900082EE9AE10E949D16FE0164910FEA1AE0E7
:1052A000662361F0772767FD709582EE9AE10E9490
:1052B0009D160F5F1F4FF8016491F2CF40917D174B
:1052C00050917E1760917F17709180178BE59AE05F
:1052D0000E942F4840918117509182176091831747
:1052E0007091841788E59AE00E942F4840918517B5
:1052F00050918617609187177091881785E59AE01D
:105300000E942F484091891750918A1760918B17FE
:1053100070918C1782E59AE00E942F4864E979E049
:1053200082EE9AE10F945D956AE070E082EE9AE178
:105330000E949D16FE0164910FEA1AE0662361F057
:10534000772767FD709582EE9AE10E949D160F5FA8
:105350001F4FF8016491F2CFE4E3FAE064918F010A
:10536000662361F0772767FD709582EE9AE10E94CF
:105370009D160F5F1F4FF8016491F2CF6AE070E055
:1053800082EE9AE10E949D16FE0164910FEA1AE0F6
:10539000662361F0772767FD709582EE9AE10E949F
:1053A0009D160F5F1F4FF8016491F2CF40915D177A
:1053B00050915E1760915F17709160178BE29AE0D1
:1053C0000E9477484091611750916217609163176E
:1053D0007091641788E29AE00E94774840916517BF
:1053E00050916617609167177091681785E29AE08F
:1053F0000E9477484091691750916A1760916B1726
:1054000070916C1782E29AE00E94774864E979E033
:1054100082EE9AE10F945D956AE070E082EE9AE187
:105420000E949D16FE0164910FEA1AE0662361F066
:10543000772767FD709582EE9AE10E949D160F5FB7
:105440001F4FF8016491F2CFEDEEF9E064918F0106
:10545000662361F0772767FD709582EE9AE10E94DE
:105460009D160F5F1F4FF8016491F2CF6AE070E064
:1054700082EE9AE10E949D16FE0164910FEA1AE005
:10548000662361F0772767FD709582EE9AE10E94AE
:105490009D160F5F1F4FF8016491F2CF4091551791
:1054A00050915617609157177091581784EE99E0F4
:1054B0000E942F48409151175091521760915317F5
:1054C0007091541781EE99E00E942F4864E979E0C9
:1054D00082EE9AE10F945D956AE070E082EE9AE1C7
:1054E0000E949D16FE0164910FEA1AE0662361F0A6
:1054F000772767FD709582EE9AE10E949D160F5FF7
:105500001F4FF8016491F2CFEEE2F9E064918F0150
:10551000662361F0772767FD709582EE9AE10E941D
:105520009D160F5F1F4FF8016491F2CF6AE070E0A3
:1055300082EE9AE10E949D16FE0164910FEA1AE044
:10554000662361F0772767FD709582EE9AE10E94ED
:105550009D160F5F1F4FF8016491F2CF40915917CC
:1055600050915A1760915B1770915C1785E299E032
:105570000E942F4840914117509142176091431764
:105580007091441782E299E00E942F4840918D1754
:1055900050918E1760918F17709190178FE199E05D
:1055A0000E94774840914D1750914E1760914F17C8
:1055B000709150178CE199E00E942F484091491753
:1055C00050914A1760914B1770914C1789E199E0FF
:1055D0000E942F48409145175091461760914717F8
:1055E0007091481786E199E00E942F4864E979E0BC
:1055F00082EE9AE10F945D956AE070E082EE9AE1A6
:105600000E949D16FE0164910FEA1AE0662361F084
:10561000772767FD709582EE9AE10E949D160F5FD5
:105620001F4FF8016491F2CFE4E0F9E064918F013B
:10563000662361F0772767FD709582EE9AE10E94FC
:105640009D160F5F1F4FF8016491F2CF6AE070E082
:1056500082EE9AE10E949D16FE0164910FEA1AE023
:10566000662361F0772767FD709582EE9AE10E94CC
:105670009D160F5F1F4FF8016491F2CF4091790D95
:1056800050917A0D60917B0D70917C0D8BEF98E0BD
:105690000E942F4840917D0D50917E0D60917F0DAD
:1056A0007091800D88EF98E00E942F484091810D05
:1056B0005091820D6091830D7091840D85EF98E07B
:1056C0000E942F4864E979E082EE9AE10F945D959B
:1056D0006AE070E082EE9AE10E949D16FE016491FC
:1056E0000FEA1AE0662361F0772767FD709582EE76
:1056F0009AE10E949D160F5F1F4FF8016491F2CF4F
:10570000E7EEF8E064918F01662361F0772767FD8B
:10571000709582EE9AE10E949D160F5F1F4FF8016F
:105720006491F2CF6AE070E082EE9AE10E949D16E9
:10573000FE0164910FEA1AE0662361F0772767FDA6
:10574000709582EE9AE10E949D160F5F1F4FF8013F
:105750006491F2CF40910C0350910D0360910E03C0
:1057600070910F038AED98E00E942F486091040326
:105770007091050380910603909107030F94408A6E
:10578000AB01BC0187ED98E00E942F486091FC02BC
:105790007091FD028091FE029091FF020F944C8A5D
:1057A000AB01BC0184ED98E00E942F4840911003AA
:1057B00050911103609112037091130384EC98E0EF
:1057C0000E942F48609108037091090380910A0399
:1057D00090910B030F94408AAB01BC0181EC98E0DF
:1057E0000E942F4860910003709101038091020391
:1057F000909103030F944C8AAB01BC018EEB98E0AF
:105800000E942F4864E979E082EE9AE10F945D9559
:105810006AE070E082EE9AE10E949D16FE016491BA
:105820000FEA1AE0662361F0772767FD709582EE34
:105830009AE10E949D160F5F1F4FF8016491F2CF0D
:10584000E0EBF8E064918F01662361F0772767FD54
:10585000709582EE9AE10E949D160F5F1F4FF8012E
:105860006491F2CF6AE070E082EE9AE10E949D16A8
:10587000FE0164910FEA1AE0662361F0772767FD65
:10588000709582EE9AE10E949D160F5F1F4FF801FE
:105890006491F2CF40912B0250912C0260912D0225
:1058A00070912E028CEA98E00E942F4840913302BA
:1058B00050913402609135027091360288EA98E086
:1058C0000E942F4840913B0250913C0260913D0262
:1058D00070913E0284EA98E00E942F484091660D44
:1058E0005091670D6091680D7091690D8BE998E09A
:1058F0000E942F4864E979E082EE9AE10F945D9569
:105900006AE070E082EE9AE10E949D16FE016491C9
:105910000FEA1AE0662361F0772767FD709582EE43
:105920009AE10E949D160F5F1F4FF8016491F2CF1C
:10593000E1E9F8E064918F01662361F0772767FD64
:10594000709582EE9AE10E949D160F5F1F4FF8013D
:105950006491F2CF6AE070E082EE9AE10E949D16B7
:10596000FE0164910FEA1AE0662361F0772767FD74
:10597000709582EE9AE10E949D160F5F1F4FF8010D
:105980006491F2CF4091DC0D5091DD0D662757FDFB
:105990006095762F85E898E00E9477484091DA0D6F
:1059A0005091DB0D662757FD6095762F86E798E0CE
:1059B0000E9477484091D60D5091D70D662757FD2C
:1059C0006095762F8AE698E00E9477484091D80D3E
:1059D0005091D90D662757FD6095762F8CE598E09C
:1059E0000E94774867E773E082EE9AE10F945D9535
:1059F0006AE070E082EE9AE10E949D16FE016491D9
:105A00000FEA1AE0662361F0772767FD709582EE52
:105A10009AE10E949D160F5F1F4FF8016491F2CF2B
:105A2000E2E5F8E064918F01662361F0772767FD76
:105A3000709582EE9AE10E949D160F5F1F4FF8014C
:105A40006491F2CF6AE070E082EE9AE10E949D16C6
:105A5000FE0164910FEA1AE0662361F0772767FD83
:105A6000709582EE9AE10E949D160F5F1F4FF8011C
:105A70006491F2CF4091D40D5091D50D662757FD1A
:105A80006095762F86E498E00E9477484091D20D89
:105A90005091D30D662757FD6095762F87E398E0E8
:105AA0000E9477484091CE0D5091CF0D662757FD4B
:105AB0006095762F8BE298E00E9477484091D00D58
:105AC0005091D10D662757FD6095762F8DE198E0B6
:105AD0000E94774867E773E082EE9AE10F945D9544
