:100000000C946F160C94A0160C94A0160C94A016C9
:100010000C94A0160C94A0160C94A0160C94A01688
:100020000C94A0160C94A0160C94A0160C94A01678
:100030000C94A0160C94A0160C94A0160C94A01668
:100040000C94A0160C9478C10C94A0160C94A016D5
:100050000C94A0160C94A0160D949E460D946D3A27
:100060000C94A0160D94A6380D947D380C94A0160F
:100070000C94A0160C94A0160C94A0160C94A01628
:100080000C94A0160C94A0160C94A0160C94A01618
:100090000C94A0160C94A0160C94A0160C94A01608
:1000A0000C94A0160C94A0160C94A0160C94A016F8
:1000B0000C94A0160C94A0160C94A0160C94A016E8
:1000C0000C94A0160C94A0160C94A0160D94543801
:1000D0000D942B380C94A0160C94A0160C94A0161A
:1000E0000C94A0162528DA6D7F285924DA6D601B40
:1000F000DA6DAC1BDA6DDA6D87374E1CDA6DDA6DAE
:10010000521A4D1ADA6DF038DA6DDA6DDA6D103E8A
:10011000393EE94712487A4CDA6DA93F08406740FA
:10012000ED422F4258394A392B248E42DA6D861B14
:10013000E41ADA6D7B23D13BFF236F47DA6DD323BB
:10014000A7239847C147DA6D5028623E0C33883C9C
:10015000D51B611A571ADA6DDE30C01D004CDA6DFE
:10016000294C611F3B48292CDA6D274EB831E650E7
:10017000A72CAC488B3EA34C251ED42AD42AFA299E
:10018000292DAF2DA21F651C7C1C0A1CF21F481ACA
:100190005C1ADA6DDA6DDA6DD2289A20DD20A71CA0
:1001A000523B0E3BB43EDD3E053F2E3F573F803F66
:1001B0009640BF40E84011413A4163418B41B44110
:1001C000DD410642A3431C433A441F46A94543452B
:1001D000DA6D524C3B2021215722D228282A512A5D
:1001E000902A4647DA4A5F4BD34B1D47DD33A21AAC
:1001F0007858DD27DA6DDA6DC755DA6DB73A6639AA
:10020000CD2E272F802F372EFA2E532FAD2F3330A0
:100210000730D326C226303A87246A2554268B26F7
:10022000F055E426AB27DB2FDA6DDA6DDA6DDA6D87
:10023000DA6DDA6DDA6DDA6DDA6DD13BCE1CF71C52
:100240003E1DBF571D582B4B934B3B48D34BCC4CBB
:10025000EC4DDA6D1C509550734FE44F494F1551DA
:10026000DA6DCA35D734CF53B037A8381354DA6DA6
:10027000DA6D1D528852F5526253F4514451915136
:1002800057547A555A57DA6DDA6DEF56DA6DDA6DE2
:100290008C57DA6D4E1E1598F398E099BB99179913
:1002A000969971993A985F9884985B9A809AA59AE2
:1002B000CA9ACE98A9984C99F501BB01E301DD01DA
:1002C000FD01F901D301D701DF01B50115021902C2
:1002D000F101BD01F901DB01C1011D02D501CF0111
:1002E000FF01CB01C701D901C5010102F701C3011B
:1002F000BF011B02EF010F02D90105020902110221
:10030000E101B901B301F301EB01E5010D02B10116
:100310001702E701ED01084AD73B3BCE016E84BCD2
:10032000BFFDC12F3D6C74319ABD56833DDA3D004F
:10033000C77F11BED9E4BB4C3E916BAAAABE000098
:1003400000803F05A84CCDB2D44EB93836A9020C76
:1003500050B9918688083CA6AAAA2ABE000000804F
:100360003F000D94A1470D9451470D94E0370D9433
:100370005E5A0D9435470D94CE370D94F2370D9497
:10038000D5390D94FC370D94CB390D94B1390D94BA
:10039000A7390D94D1360D949D390D94AE360D9438
:1003A0008E390D945B370D94D2370D9489390D94A5
:1003B000D6370D94203A0D94F8370D94C1370D942B
:1003C000DC370D9428470D94BD370D9485470D9467
:1003D000A5470D94A19B0D9478470D94AD470D94BE
:1003E000EE390D94EE370D945E470D94CB370D9496
:1003F000C1390D9405380D9415370D94C7370D94F8
:1004000093390D94B9390D94F3810D94023A0D94FA
:10041000895A0D940C3A0D94DF360D949F470D9434
:10042000F8390D94163A0D94BD360D94E4370D94B9
:10043000A3470D94EA370D94DF390D9400384E41EF
:100440004E494E495459494E46CDCCCC3D0AD7234E
:100450003C17B7D13877CC2B329595E6241FB14F96
:100460000A000020410000C84200401C4620BCBEDB
:100470004CCA1B0E5AAEC59D746364696E6F70736F
:100480007578585B00253364202563430025336469
:10049000202563430050757267652046696C616D65
:1004A000656E740A0053757266696E6720310A00C2
:1004B00053757266696E6720300A0047333400490D
:1004C0004E464F3A204245442043414C4942202D5C
:1004D000200053757266696E6720300A0047323813
:1004E000205830205930005430005431005430002E
:1004F00054300053757266696E6720300A004734C5
:100500003300473433004734310047343000473438
:1005100033004734330047343100473430004D381E
:1005200034004D3834004D3834005A32204F66665E
:100530007365743A20004F4B207365636F6E6420BF
:10054000457874727564657221005A20706F736902
:1005500074696F6E3A20005A20706F736974696F06
:100560006E3A20004D3834005A312050726F626567
:10057000206F66667365743A20004F4B206669727F
:10058000737420457874727564657221200A005A6C
:1005900020706F736974696F6E3A20005A20706F13
:1005A000736974696F6E3A200043616C63756C7592
:1005B000733A20200043616C63756C75733A202098
:1005C0000043616C63756C75733A20200043616C65
:1005D00063756C75733A2020005430005430005419
:1005E000300043616C6962726174696F6E2053758B
:1005F000636365737366756C0A005430004A756DE9
:1006000070206F7665722073637265773120616E3A
:100610006420736372657732200A004A756D70201A
:100620006F76657220736372657731200A004733F5
:1006300034004733340047333400543000473334F8
:1006400000494E464F3A204245442043414C4942DE
:10065000202D200036302064656772656573200A9E
:10066000004C6F6164696E670A0053757266696E4B
:100670006720300A0053757266696E6720300A0081
:1006800053757266696E6720300A00253364202531
:10069000634300253364202563430025336420250C
:1006A00063430050757267652046696C616D656EC5
:1006B000740A002533642025634300253364202514
:1006C00063430025336420256343002533642025DC
:1006D00063430025336420256343002533642025CC
:1006E00063430025336420256343002533642025BC
:1006F00063430053757266696E6720300A00537554
:100700007266696E6720300A00543000466F756E5D
:10071000640053757266696E6720300A004D333489
:100720000053757266696E6720300A004D323400DE
:100730004D32332025730053757266696E67203021
:100740000A0053757266696E6720300A005375722D
:1007500066696E6720300A00535543434553530A78
:10076000002533642025634300253364202563433B
:10077000002533642025634300253364202563432B
:10078000002533642025634300253364202563431B
:10079000002533642025634300253364202563430B
:1007A0000025336420256343004C6F6164696E67E4
:1007B0003A0A00253364202563430025336420254D
:1007C00063430025336420256343005075726765D9
:1007D0002046696C616D656E74200A005374617205
:1007E00074696E67205A2043616C69627261746932
:1007F0006F6E2057697A6172640047363920414331
:1008000054495641544544000A00205A3A200020D9
:10081000593A200020583A200042656400456E6431
:100820002066696C65206C69737400426567696E47
:100830002066696C65206C697374002E0044656CD9
:100840006574696F6E206661696C65642C20466909
:100850006C653A200046696C652064656C6574655A
:10086000643A002E006F70656E206661696C656485
:100870002C2046696C653A200047323820583020D9
:100880005930004649524D574152455F4E414D4502
:100890003A4D61726C696E2056313B20537072691B
:1008A0006E7465722F6772626C206D61736875700B
:1008B00020666F722067656E36204649524D57415B
:1008C00052455F55524C3A68747470733A2F2F67D3
:1008D00069746875622E636F6D2F4572696B5A611A
:1008E0006C6D2F4D61726C696E2F2050524F544FBA
:1008F000434F4C5F56455253494F4E3A312E3020AC
:100900004D414348494E455F545950453A4D656EF7
:1009100064656C2045585452554445525F434F55C9
:100920004E543A3220555549443A30303030303008
:1009300030302D303030302D303030302D303030C0
:10094000302D3030303030303030303030300A0000
:100950007A5F6D696E3A2000795F6D61783A2000A8
:10096000785F6D61783A2000785F6D696E3A20009B
:1009700053544154495354494353205245534554C9
:1009800000504F534954494F4E20484F4D453A204F
:10099000002200556E6B6E6F776E20636F6D6D6118
:1009A0006E643A202200466F726D2032210052653B
:1009B00061647920746F204C6F61642F556E6C6F89
:1009C0006164200A00256425250025336420256301
:1009D00043002533642025634300253364256343A6
:1009E000202F20253364256343002533642563438A
:1009F000202F20253364256343002533642563437A
:100A0000202F202533642563430053757266696E79
:100A1000672030200A0043616C6962726174696FFB
:100A20006E205375636365737366756C0A0054308A
:100A3000004D383420582059205A204500457874FC
:100A400072756465722072656C656173656420619E
:100A500063746976653A20005A205349474D412016
:100A6000486F6D65640045787472756465722061C5
:100A700063746976653A20002200656E7175656958
:100A80006E672022000000000000809343000000F9
:100A9000000000A0400000A0400000004020004DE9
:100AA0006F766520746F3A2000CDCC984300809318
:100AB0004300005243FF01FF20636F6C64206578A0
:100AC00074727573696F6E2070726576656E746589
:100AD00064006563686F3A006F6B004475616C2059
:100AE0004D6F6465204F464600436F6F6C696E67BB
:100AF00020446F776E20486561746572005072699A
:100B00006E7465722068616C7465642E206B696C0C
:100B10006C28292063616C6C656421004572726FDA
:100B2000723A00202D20496E76616C6964206578E8
:100B3000747275646572206E756D62657220210035
:100B40004572726F723A0067636F646520666F75F5
:100B50006E640020746F2053746172742044697352
:100B6000706C61792066726F6D20526573657400D8
:100B7000546F6F6B2000646973706C6179206F6EC5
:100B80006C696E652100646973706C6179206F66B1
:100B9000666C696E65210042434E33442053696799
:100BA0006D61007374617274006563686F3A003040
:100BB000312D312E322E37646576006572726F7278
:100BC0002077726974696E6720746F2066696C653E
:100BD00000205A3A0020593A0020583A00656E64C5
:100BE00073746F7073206869743A20006563686F6E
:100BF0003A00446F6E6520736176696E672066699E
:100C00006C652E006F6B004D32390024F4D43050E7
:100C1000C38E20C2A24017828B7011127A910D816F
:100C20006CD90AA861E108C7586607615143061EDE
:100C30004B5D05C145A7041A411104093D98037194
:100C40003931034036DB0265339102D430540280DF
:100C50002E1D02632CEE01752AC501B028A00110DB
:100C60002781018F2564012B244B01E0223401AC44
:100C7000211F018D200D01801FFC00841EED0097B7
:100C80001DDF00B81CD200E61BC600201BBC0064A0
:100C90001AB200B219A8000A19A0006A189900D166
:100CA00017910040178B00B516840031167E00B3F3
:100CB0001579003A157300C7146F0058146A00EED6
:100CC0001366008813630025135E00C7125B006C77
:100CD00012570015125400C111510070114F00211C
:100CE000114B00D61049008D1047004610440002F9
:100CF000104200C00F4000800F3E00420F3C000633
:100D00000F3B00CB0E3800930E37005C0E350027EA
:100D10000E3400F30D3200C10D3100900D30006033
:100D20000D2E00320D2D00050D2C00D90C2B00AE20
:100D30000C2900850C29005C0C2700350C27000EBF
:100D40000C2600E80B2400C40B2400A00B23007D1C
:100D50000B23005A0B2100390B2100180B2000F83F
:100D60000A1F00D90A1E00BB0A1E009D0A1D008032
:100D70000A1D00630A1C00470A1B002C0A1B0011F5
:100D80000A1A00F7091A00DD091900C4091900AB95
:100D9000091900920917007B091800630917004C14
:100DA00009160036091600200916000A091500F573
:100DB000081500E0081400CC081400B8081400A4BA
:100DC000081400900813007D0812006B08130058E7
:100DD00008120046081200340811002308110012FE
:100DE00008110001081100F0071000E0071000D002
:100DF000071000C0071000B0070F00A107100091F6
:100E0000070E0083070F0074070F0065070E0057D9
:100E1000070E0049070E003B070D002E070E0020AD
:100E2000070D0013070D0006070D00F9060C00ED75
:100E3000060D00E0060C00D4060C00C8060C00BC31
:100E4000060C00B0060C00A4060B0099060C008DE1
:100E5000060B0082060B0077060B006C060B006188
:100E6000060A0057060B004C060A0042060A003824
:100E7000060A002E060A0024060A001A060A0010B6
:100E800006090007060A00FD050900F4050900EB44
:100E9000050900E2050900D9050900D0050900C7C8
:100EA000050900BE050900B5050800AD050800A547
:100EB0000509009C050800940508008C05080084BD
:100EC0000508007C050800740508006C050700652E
:100ED0000508005D050700560508004E0507004798
:100EE0000507004005080038050700310507002AFE
:100EF000050700230507001C050600160507000F5F
:100F00000507000805060002050700FB040600F5BA
:100F1000040700EE040600E8040600E2040700DB14
:100F2000040600D5040600CF040600C9040600C369
:100F3000040600BD040600B7040600B1040500ACB9
:100F4000040600A6040600A00405009B0406009504
:100F5000040500900406008A04050085040500804D
:100F60000406007A04050075040500700405006B92
:100F700004050066040500610405005C04050057D3
:100F8000040500520405004D040500480405004313
:100F90000405003E0404003A040500350405003051
:100FA0000404002C04050027040400230405001E8B
:100FB0000404001A04040016040500110404000DC2
:100FC000040400090405000404040000040400FCF7
:100FD000030400F8030400F4030400F0030400EC2D
:100FE000030400E8030400E4030400E0030400DC5D
:100FF000030400D8030400D4030400D0030400CC8D
:10100000030400C8030300C503030024F404D9202B
:101010001BC40C5C0E9804C4095F0265077101F4DF
:1010200005F900FB04B30048048700C103690058B8
:1010300003550003034500BE023A00840231005309
:10104000022A002902250004022000E4011C00C835
:10105000011900AF011700980114008401130071F9
:101060000110006101100051010E0043010D003616
:10107000010B002B010B0020010B00150109000CD6
:1010800001090003010800FB000800F3000800EB61
:10109000000700E4000600DE000600D8000600D2CB
:1010A000000600CC000500C7000500C2000500BD19
:1010B000000400B9000400B5000400B1000400AD54
:1010C000000400A9000400A5000300A20003009F83
:1010D0000004009B000300980003009500020093A9
:1010E000000300900003008D0002008B00030088C5
:1010F0000002008600020084000300810002007FDD
:101100000002007D0002007B0002007900020077EF
:1011100000010076000200740002007200010071FC
:101120000002006F0002006D0001006C0002006A06
:10113000000100690002006700010066000100650F
:101140000001006400020062000100610001006013
:101150000001005F0002005D0001005C0001005B17
:101160000001005A00010059000100580001005719
:101170000001005600010055000100540001005319
:101180000000005300010052000100510001005016
:101190000001004F0001004E0000004E0001004D14
:1011A0000001004C0001004B0000004B0001004A10
:1011B000000100490001004800000048000100470C
:1011C0000001004600000046000100450000004507
:1011D0000001004400010043000000430001004200
:1011E00000000042000100410000004100010040F9
:1011F0000001003F0000003F0001003E0000003EF3
:101200000001003D0000003D0001003C0000003CEA
:101210000000003C0001003B0000003B0001003AE0
:101220000000003A000100390000003900010038D8
:1012300000000038000000380001003700000037CF
:1012400000010036000000360000003600010035C5
:1012500000000035000000350001003400000034BB
:1012600000000034000100330000003300000033B0
:1012700000010032000000320000003200010031A5
:10128000000000310000003100010030000000309B
:10129000000000300001002F0000002F0000002F90
:1012A0000000002F0001002E0000002E0000002E84
:1012B0000001002D0000002D0000002D0000002D79
:1012C0000001002C0000002C0000002C0000002C6D
:1012D0000001002B0000002B0000002B0000002B61
:1012E0000001002A0000002A0000002A0000002A55
:1012F0000001002900000029000000290000002949
:10130000000000290001002800000028000000283B
:10131000000000280000002800010027000000272E
:101320000000002700000027000000270001002621
:101330000000002600000026000000260000002615
:101340000001002500000025000000250000002508
:1013500000000025000000250001002400000024FA
:1013600000000024000000240000002400010023ED
:1013700000000023000000230000002300000023E1
:1013800000000023000000230001002200000022D2
:1013900000000022000000220000002200000022C5
:1013A00000010021000000210000002100000021B8
:1013B00000000021000000210000002100010020A9
:1013C000000000200000002000000020000000209D
:1013D0000000002000000020000000200001001F8D
:1013E0000000001F0000001F0000001F0000001F81
:1013F0000000001F0000001F0001001E0000001E72
:101400000000001E0000001E0000003B20472D438E
:101410006F64652067656E657261746564206279CA
:101420002053696D706C69667933442852292056BF
:10143000657273696F6E202564003B5072696E742B
:101440002074696D653A2025642025732025642069
:101450002573202564202573003B54494D453A20CF
:10146000256C64003B2020204275696C64207469FF
:101470006D653A202564202573202564202573009E
:101480003B202020506C6173746963207765696725
:1014900068743A2025642E256467003B46696C61B8
:1014A0006D656E7420757365643A2025642E25641D
:1014B0006D2025642E256467003B46696C616D656F
:1014C0006E7420757365643A20256C752E256C75D5
:1014D0006D005341564544205052494E54004361DB
:1014E0006E6E6F7420656E746572207375626469C8
:1014F000723A200057726974696E6720746F2066B3
:10150000696C653A20002E006F70656E2066616917
:101510006C65642C2046696C653A20002E006F7063
:10152000656E206661696C65642C2046696C653A5D
:10153000200046696C652073656C656374656400A2
:101540002053697A653A200046696C65206F7065A2
:101550006E65643A20002E006F70656E20666169CA
:101560006C65642C2046696C653A20004E6F7720CC
:1015700066726573682066696C653A20004E6F7705
:1015800020646F696E672066696C653A20002220CE
:10159000706F73002220706172656E743A2200537E
:1015A0005542524F5554494E452043414C4C2074AE
:1015B00061726765743A2200747279696E6720748B
:1015C0006F2063616C6C207375622D67636F646557
:1015D0002066696C6573207769746820746F6F206A
:1015E0006D616E79206C6576656C732E204D415867
:1015F000206C6576656C2069733A0042656420480A
:1016000065617465640020423A0020453A00543A0E
:10161000004578747275646572204865617465640C
:101620000020573A0020453A00543A002045002057
:101630005A00205900483D5800205A3A0020593A93
:101640000020436F756E7420583A200020453A0000
:10165000205A3A0020593A00583A00486F74656E93
:1016600064206F6666736574733A00504944204184
:1016700075746F74756E652066696E6973686564EC
:10168000212050757420746865206C617374204B40
:10169000702C204B6920616E64204B6420636F6E58
:1016A0007374616E74732066726F6D2061626F7601
:1016B0006520696E746F20436F6E6669677572612D
:1016C00074696F6E2E6800504944204175746F74C0
:1016D000756E65206661696C6564212074696D654D
:1016E0006F75740020403A006F6B20543A006F6BA6
:1016F00020423A00504944204175746F74756E65FC
:10170000206661696C6564212054656D7065726145
:101710007475726520746F6F206869676800204B6C
:10172000643A2000204B693A2000204B703A200098
:1017300020436C6173736963205049442000205436
:10174000753A2000204B753A2000206D61783A20D0
:1017500000206D696E3A200020643A200020626902
:1017600061733A20002C2073617665645F466C617A
:10177000675F66616E6C617965725F6D6972726FC9
:10178000723A20002C2073617665645F666565643B
:10179000726174653A20002C2073617665645F661F
:1017A000616E6C617965723A20002C2073617665F8
:1017B000645F74656D706265643A20002C2073610B
:1017C0007665645F74656D70303A20002C2073611B
:1017D0007665645F74656D70313A20002C2073610A
:1017E0007665645F66696C65706F736974696F6E46
:1017F0003A20002C2073617665645F655F706F73BB
:101800006974696F6E3A20002C2073617665645F9D
:10181000746F6F6C5F6163746976653A20002C2089
:1018200073617665645F7A5F706F736974696F6EF8
:101830003A20002C2073617665645F795F706F7366
:101840006974696F6E3A20002C2073617665645F5D
:10185000785F706F736974696F6E3A2000534156F8
:1018600045205052494E54204C4F473A006563681A
:101870006F3A005072696E74207265636F7665729C
:1018800079207570004E6F74207072696E742072CA
:1018900065636F76657279207570005355434345D3
:1018A00053530056616C756573206F7574206F66B5
:1018B0002072616E67650056616C756573206F7587
:1018C00074206F662072616E67650056616C756585
:1018D00073206F7574206F662072616E67650056A5
:1018E000616C756573206F7574206F662072616E10
:1018F000676500535543434553530056616C756506
:1019000073206F7574206F662072616E6765005674
:10191000616C756573206F7574206F662072616EDF
:1019200067650056616C756573206F7574206F660E
:101930002072616E67650056616C756573206F7506
:1019400074206F662072616E676500486F74656E03
:1019500064206F6666736574733A0054696D652020
:10196000696E61637469766500507572676520649D
:10197000697374616E6365005A204F66667365749F
:10198000206F6B005A204F6666736574203A200002
:101990007A5F6D61783A20007A5F6D696E3A200057
:1019A0005A204F666673657400504F534954494F2F
:1019B0004E20484F4D453A200053657474696E6758
:1019C000732053746F72656400204D696E75746581
:1019D00073203A0020204C617374207072696E7419
:1019E0002074696D652D3E20486F757273203A0032
:1019F0004C617374207072696E74206475726174C6
:101A0000696F6E002C205468697264204944206E0E
:101A1000756D62657220002C205365636F6E6420C3
:101A20004944206E756D6265723A20002020466937
:101A3000727374204944206E756D6265723A20009D
:101A4000554920496E666F726D6174696F6E2053DF
:101A5000657269616C204E756D6265723A00206D29
:101A60002C204531207072696E7420646973746132
:101A70006E63653A2000206B6D2C2045302070721B
:101A8000696E742064697374616E63653A20002026
:101A90006B6D2C2059207072696E742064697374A8
:101AA000616E63653A2000206B6D2C2058312070E8
:101AB00072696E742064697374616E63653A2000A4
:101AC00020432C0A205830207072696E742064699B
:101AD0007374616E63653A200020432C206D617839
:101AE0002074656D7020423A200020432C206D61E7
:101AF000782074656D7020523A20002C206D61783A
:101B00002074656D70204C3A2000682C207072693A
:101B10006E74732066696E69736865643A20002C80
:101B2000207072696E74696E672074696D653A2001
:101B30000020207072696E74733A2000535441542F
:101B4000533A0020432C20525F5052494E543A20C1
:101B50000020432C20525F4245443A200020432C71
:101B600020525F52454D4F56453A20002020525F8B
:101B7000494E534552543A200054656D7020284315
:101B8000293A0020432C204C5F5052494E543A20B1
:101B90000020432C204C5F4245443A200020432C37
:101BA000204C5F52454D4F56453A200020204C5F57
:101BB000494E534552543A200054656D70202843D5
:101BC000293A0020562856657273696F6E292000E5
:101BD00020522842656420726967687420736372BA
:101BE000657729200020204D353331204C2842656F
:101BF00064206C65667420736372657729200042E7
:101C00006564204F66667365747320286D6D293A8C
:101C1000002050285A2070726F62652900205A20D7
:101C2000002059200020204D353330205820004F0F
:101C300066667365747320286D6D293A0020440030
:101C4000204900202D204D3330312052494748543F
:101C500020500020440020490020204D3330312006
:101C60004C454654205000504944207365747469B3
:101C70006E67733A00205A0020590020204D323000
:101C800036205800486F6D65206F66667365742056
:101C9000286D6D293A00204500205A002058002068
:101CA000420020540020204D323035205300416442
:101CB00076616E636564207661726961626C6573DA
:101CC0003A20533D4D696E206665656472617465A6
:101CD00020286D6D2F73292C20543D4D696E207482
:101CE000726176656C206665656472617465202832
:101CF0006D6D2F73292C20423D6D696E696D756D78
:101D0000207365676D656E742074696D6520286D3C
:101D100073292C20583D6D6178696D756D20585977
:101D2000206A65726B20286D6D2F73292C20205A34
:101D30003D6D6178696D756D205A206A65726B2002
:101D4000286D6D2F73292C2020453D6D6178696DBC
:101D5000756D2045206A65726B20286D6D2F732983
:101D60000020540020204D32303420530041636362
:101D7000656C65726174696F6E3A20533D6163638F
:101D8000656C65726174696F6E2C20543D72657468
:101D90007261637420616363656C65726174696FFD
:101DA0006E00204500205A0020590020204D32307E
:101DB000312058004D6178696D756D204163636510
:101DC0006C65726174696F6E20286D6D2F73322996
:101DD0003A00204500205A0020590020204D323082
:101DE000332058004D6178696D756D2066656564B6
:101DF000726174657320286D6D2F73293A00204538
:101E000000205A0020590020204D3932205800531C
:101E1000746570732070657220756E69743A000A7B
:101E20000020616E7469686F726172690A3A2000FD
:101E300020686F726172690A20002F3800766F6C1B
:101E4000746573200020566F6C7465732063617233
:101E5000676F6C20333A200020616E7469686F727E
:101E60006172690A3A200020686F726172690A2003
:101E7000002F3800766F6C746573200020566F6CED
:101E800074657320636172676F6C20323A20000AB8
:101E90000020647A333A200020647A323A200054D9
:101EA00031005430005430005430000056756974CD
:101EB000656E73333A2020004170726F78333A2098
:101EC0002000566F6C746573333A202000005675FD
:101ED0006974656E73323A2020004170726F7832F7
:101EE0003A202000566F6C746573323A20200056F9
:101EF000616C6F7220645A333A20200056616C6F17
:101F00007220645A323A2020004E6577206F666650
:101F10007365742076657273696F6E3A20007A3348
:101F20005F313A20007A325F313A20005A7363728F
:101F30006F6C6C5F313A20007A335F303A20007A60
:101F4000325F303A20005A7363726F6C6C5F303AC4
:101F50002000706C616E654E6F726D616C5F312E2A
:101F60007A3A2000706C616E654E6F726D616C5FC5
:101F7000312E793A2000706C616E654E6F726D6122
:101F80006C5F312E783A2000706C616E654E6F7216
:101F90006D616C5F302E7A3A2000706C616E654E18
:101FA0006F726D616C5F302E793A2000706C616EDB
:101FB000654E6F726D616C5F302E783A20005A76F4
:101FC000616C756520616674657220686F6D653A35
:101FD00000486F6D6520582F59206265666F7265E5
:101FE000205A0043616C63756C75733A202000437E
:101FF000616C63756C75733A20200043616C637586
:102000006C75733A2020002200656E717565696EEB
:1020100067202200252033642025250025642068C0
:10202000202564206D0025203364202525002532DD
:102030006420256343002533642025634300253352
:10204000642025634300526561647920746F204CDD
:102050006F61642F556E6C6F6164200A00256425E2
:102060002500253364202563430025336420256340
:1020700043002053544F50205052494E54200A00E0
:10208000473238205830205930004D3335005265E2
:1020900073756D65206465746563746564200A00FA
:1020A00047373000A1524553554D4521200A00A124
:1020B000504155534521200A0025336420256343B0
:1020C00000253364202563430025336420256343C2
:1020D00000253364202563430025336420256343B2
:1020E00000253364202563430025336420256343A2
:1020F0000025336420256343002533642025634392
:10210000005052494E542053455454494E47532091
:102110000A00627566666572206F75743A20004227
:102120007566666572313A200043617264204E61C3
:102130006D653A20002F005344207072696E7469F7
:102140006E67206279746520004E6F7420534420BE
:102150007072696E74696E67002569206D696E2CF6
:1021600020256920736563000A0A005374616E6458
:1021700061726420446576696174696F6E3A20000B
:102180000A004D65616E3A20000A002020207A3A4C
:10219000200000793A2000783A20003F53706563B0
:1021A0006966696564206E756D626572206F662070
:1021B0006C65677320696E206D6F76656D656E74F2
:1021C000206E6F7420706C61757361626C652E0A8D
:1021D000003F537065636966696564205920706FBC
:1021E000736974696F6E206F7574206F66207261F9
:1021F0006E67652E0A003F537065636966696564A2
:10220000205820706F736974696F6E206F75742029
:102210006F662072616E67652E0A003F53706563BA
:1022200069666965642073616D706C652073697A95
:1022300065206E6F7420706C61757361626C652EC1
:102240000A0046756C6C20737570706F7274206133
:10225000743A20687474703A2F2F33647072696E08
:1022600074626F6172642E636F6D2F666F72756D2D
:102270002E7068700A004D3438205A2D50726F62EB
:1022800065205265706561746162696C697479205A
:10229000746573742E20202056657273696F6E20EA
:1022A000322E30300A003F566572626F7365204CE3
:1022B0006576656C206E6F7420706C6175736162F9
:1022C0006C652E0A002042403A0020403A00202F40
:1022D000003A00205400202F0020423A00202F0016
:1022E0006F6B20543A004D38340053746172746936
:1022F0006E6720582043616C6962726174696F6E09
:102300002057697A617264004D38340053746172E9
:1023100074696E6720592043616C696272617469E7
:102320006F6E2057697A617264004572726F72280D
:102330003833293A2042656420746865726D697388
:10234000746F72206E6F7420646574656374656465
:10235000004572726F72283832293A2052696768D4
:102360007420746865726D6973746F72206E6F7417
:10237000206465746563746564004572726F7228C9
:102380003831293A204C65667420746865726D692D
:1023900073746F72206E6F7420206465746563744B
:1023A0006564002053544F50205052494E54200A27
:1023B000004572726F72283833293A2042656420D2
:1023C000746865726D6973746F72206E6F742064C7
:1023D00065746563746564002053544F50205052F7
:1023E000494E54200A004572726F72283832293AD9
:1023F00020526967687420746865726D6973746FC0
:1024000072206E6F74206465746563746564002067
:1024100053544F50205052494E54200A0045727276
:102420006F72283831293A204C65667420746865CB
:10243000726D6973746F72206E6F7420206465749E
:1024400065637465640000002100240027002A00F1
:102450002D003000330001010000040107010A01D2
:1024600000002200250028002B002E00310034003F
:1024700002010000050108010B01000020002300FB
:10248000260029002C002F0032000001000003016B
:1024900006010901050505050705080808080202E7
:1024A00002020A0A080804040404010101010101EE
:1024B00001010303030303030303040707070C0CD1
:1024C0000C0C0C0C0C0C0202020206060606060698
:1024D00006060B0B0B0B0B0B0B0B0102102020083D
:1024E000081020401020408002010201080402016F
:1024F00001020408102040808040201008040201DE
:102500008004020180402010080402010804020136
:1025100001020408102040800102040810204080BD
:1025200000000A0B02090C0D0E080703040100004D
:10253000000000000000000000000000000000009B
:102540000000000000000000000000001211100058
:10255000000000000000000000000000000000007B
:102560000000000000007A70726F62653A2000532C
:10257000442063617264206F6B006F70656E526FF0
:102580006F74206661696C656400766F6C756D654B
:102590002E696E6974206661696C656400457272AB
:1025A0006F723A00534420696E6974206661696CE9
:1025B000006563686F3A004D3234004D3233202598
:1025C00073006175746F25692E67002E2E2E2054BE
:1025D000696D656F757421002A2A2A2047656E6926
:1025E000652057726974654F626A656374202A2A90
:1025F0002A202D2D2D3E002E2E2E204E414B202107
:10260000002A2A2A2047656E696520577269746519
:102610004F626A656374202A2A2A202D2D2D3E00E0
:102620002E2E2E2041434B2021002A2A2A204765A6
:102630006E69652057726974654F626A65637420BC
:102640002A2A2A202D2D2D3E0070012C01900127D1
:1026500001B0012201C0011D01F001180110021397
:102660000130020E016002090190020401C002FF64
:10267000000003FA004003F5008003F000D003EBF4
:10268000002004E6007004E100E004DC004005D70F
:1026900000C005D2004006CD00D006C8008007C3A8
:1026A000003008BE00F008B900C009B400B00AAF9D
:1026B00000B00BAA00D00CA500000EA000500F9B8C
:1026C00000C01096005012910000148C00C01587B5
:1026D00000B0178200B0197D00D01B7800001E7377
:1026E0000040206E0090226900F024640040275FC3
:1026F0000090295A00E02B5500102E500020304B3E
:102700000010324600E033410090353C001037376E
:102710000070383200A0392D00B03A2800A03B23C9
:1027200000603C1E00103D1900903D1400103E0F4B
:1027300000703E0A00C03E0500003F00004879736B
:10274000746572657369732074656D706572617408
:1027500075726500546865726D616C2072756E618A
:102760007761792070726F74656374696F6E20622F
:1027700079204865617465725F49443A002A2A2AC3
:102780002047656E69652042616420427974652046
:102790002A2A2A202D2D2D3E203078002056616CCB
:1027A00075653A200020496E6465783A20002A2A2F
:1027B0002A2047656E6965205265706F7274204FDC
:1027C000626A656374202A2A2A204F626A656374EC
:1027D0003A20002A2A2A2047656E696520436F6ED9
:1027E0006E6563746564202F2053796E6321202AFF
:1027F0002A2A002056616C75653A200020496E64D3
:1028000065783A20002A2A2A2047656E6965205299
:1028100065706F7274204576656E74202A2A2A20AE
:102820004F626A6563743A2000204C656E67746875
:102830003A20002A2A2A2047656E6965205265637E
:102840006569766564204D6167696320446F7562D0
:102850006C65204279746573202A2A2A20496E64A7
:1028600065783A2000204C656E6774683A20002A2B
:102870002A2A2047656E6965205265636569766519
:1028800064204D61676963204279746573202A2A48
:102890002A20496E6465783A20002A2A2A20476552
:1028A0006E6965204E414B205265636F7665727983
:1028B00020212121202A2A2A002A2A2A2047656E3F
:1028C000696520446973636F6E6E65637465642027
:1028D00066726F6D20446F4576656E747321202A91
:1028E0002A2A002A2A2A2047656E696520546F6FBC
:1028F0006B20746F6F206C6F6E6720746F20726531
:102900002D656E74657220446F4576656E7473280C
:10291000292C207265647563652064656C61797328
:1029200020696E20636F64652C2073656C662D7062
:10293000726F74656374696F6E20656E61626C6539
:10294000642E202A2A2A007C3C3E5E2B3D3F2F5BD2
:102950005D3B2C2A225C00504944204175746F7401
:10296000756E652066696E697368656421005049FB
:1029700044204175746F74756E65206661696C657D
:1029800064212074696D656F75740020403A006F92
:102990006B20543A006F6B20423A0050494420416A
:1029A00075746F74756E65206661696C656421204D
:1029B00054656D706572617475726520746F6F20F7
:1029C0006869676800204B643A2000204B693A2010
:1029D00000204B703A200020436C617373696320C0
:1029E00050494420002054753A2000204B753A206D
:1029F00000206D61783A2000206D696E3A20002039
:102A0000643A200020626961733A2000CDCC98437B
:102A100000809343000052430000000000000000CB
:102A2000000000000A00207A3A200020793A2000B5
:102A300020783A20004265640045787472756465B8
:102A4000722072656C656173656420616374697678
:102A5000653A20005A205349474D4120486F6D6523
:102A60006400457874727564657220616374697678
:102A7000653A20002564206974656D73002534640F
:102A80003A252E326468202F202564670000537495
:102A90006F7265642073657474696E677320726504
:102AA000747269657665640048617264636F646519
:102AB000642044656661756C742053657474696E36
:102AC0006773204C6F616465640048617264636F72
:102AD0006465642043616C696220616E64205049C2
:102AE000442044656661756C742053657474696E26
:102AF0006773204C6F61646564004D383420582042
:102B000059205A2045004D313037005430004D31A6
:102B1000303700256920686F757273202569206D34
:102B2000696E7574657300446F6E65207072696EAE
:102B300074696E672066696C65004D33330070619F
:102B4000757365206465746563746564200A004765
:102B50003639005072696E7465722073746F7070CC
:102B600065642064756520746F206572726F72737E
:102B70002E2046697820746865206572726F722015
:102B8000616E6420757365204D39393920746F206A
:102B9000726573746172742E202854656D7065724D
:102BA00061747572652069732072657365742E2077
:102BB0005365742069742061667465722072657350
:102BC00074617274696E6729006F6B004E6F204CE0
:102BD000696E65204E756D62657220776974682034
:102BE000636865636B73756D2C204C617374204C46
:102BF000696E653A20004E6F20436865636B73759C
:102C00006D2077697468206C696E65206E756D62E1
:102C100065722C204C617374204C696E653A2000FB
:102C2000636865636B73756D206D69736D61746343
:102C3000682C204C617374204C696E653A20004CFE
:102C4000696E65204E756D626572206973206E6FC6
:102C500074204C617374204C696E65204E756D62F2
:102C600065722B312C204C617374204C696E653A6F
:102C700020004D313130002A2A2A2047656E6965CF
:102C800020446973636F6E6E656374656420667259
:102C90006F6D204765744E657874427974652120A4
:102CA0002A2A2A002A2A2A2047656E696520456E4D
:102CB00061626C65204174746163684576656E7409
:102CC00048616E646C657220212121202A2A2A0025
:102CD000526573656E643A200000E9010302112415
:102CE0001FBECFEFD1E2DEBFCDBF00E00CBF17E0CB
:102CF000A0E0B2E0E6E7F0E603E00BBF02C0079019
:102D00000D92A236B107D9F729E1A2E6B7E001C0DA
:102D10001D92AD39B207E1F716E1CEE6D6E100E04B
:102D200006C021970109802FFE010F948AADCD3690
:102D3000D10780E00807A9F70F94118C0D942AB0F1
:102D40000C9400002F923F924F925F926F927F926D
:102D50008F929F92AF92BF92CF92DF92EF92FF92AB
:102D60000F931F93CF93DF93CDB7DEB7C153D140FD
:102D70000FB6F894DEBF0FBECDBF2DB63EB6909114
:102D80003319992391F08091311926E0829FF00147
:102D90001124EF52F74EF080018112818F5F8F7006
:102DA000809331199150909333198091A407811128
:102DB0000DC00F94613A6093A0077093A1078093B0
:102DC000A2079093A30781E08093A40780919807BE
:102DD00081110DC00F94613A609394077093950729
:102DE000809396079093970781E08093980737E048
:102DF000F3120C94DA6D013211F00C94E9588091C1
:102E00001D1681110C94575B90911E1691110C9414
:102E1000575B9091AC07992309F42CC38091B007BC
:102E2000823008F427C3173409F489C1B0F41B3287
:102E3000E1F140F4173109F4ADC0183109F4D1C003
:102E40000C94DA6D103309F47EC0153309F4D8C23E
:102E50001F3211F00C94DA6D4FC0103809F4E4C041
:102E6000D0F41E3509F49AC21F3511F00C94DA6DB6
:102E700014E41093B41040E050E06BE084E10F9450
:102E80003F3E40E050E065E18AE00F943F3E109302
:102E90001A110C94DA6D123809F424C108F4F3C045
:102EA0001B3A09F4F9C10C94DA6D0F94613A009160
:102EB0009407109195072091960730919707601716
:102EC00071078207930710F40C94DA6D0F94613A3E
:102ED000DC01CB0188539F4FAF4FBF4F80939407C6
:102EE00090939507A0939607B09397078EEF9FEF67
:102EF0000F94B09A0C94DA6D0F94613A0091940794
:102F000010919507209196073091970760177107E8
:102F10008207930710F40C94DA6D0F94613ADC0188
:102F2000CB0188539F4FAF4FBF4F8093940790932F
:102F30009507A0939607B09397078FEF9FEF0F9495
:102F4000B09A0C94DA6D0F94613A00919407109145
:102F500095072091960730919707601771078207B0
:102F6000930710F40C94DA6D0F94613ADC01CB01F5
:102F700088539F4FAF4FBF4F80939407909395070F
:102F8000A0939607B093970780E090E00F94B09AD3
:102F90000C94DA6D0F94613A0091940710919507A3
:102FA0002091960730919707601771078207930762
:102FB00010F40C94DA6D0F94613ADC01CB01885364
:102FC0009F4FAF4FBF4F8093940790939507A09367
:102FD0009607B093970781E090E00F94B09A0C9415
:102FE000DA6D0F94613A0091940710919507209142
:102FF0009607309197076017710782079307A0F033
:103000000F94613ADC01CB0188539F4FAF4FBF4F04
:103010008093940790939507A0939607B093970792
:1030200082E090E00F94B09A0F94613A0091940777
:1030300010919507209196073091970760177107B7
:103040008207930710F40C94DA6D0F94613ADC0157
:10305000CB0188539F4FAF4FBF4F809394079093FE
:103060009507A0939607B09397078DEF9FEF9093E6
:10307000B6108093B51040E050E06AE08AE00F940B
:103080003F3E0C94DA6D0F94613A009194071091D1
:10309000950720919607309197076017710782076F
:1030A000930710F40C94DA6D0F94613ADC01CB01B4
:1030B00088539F4FAF4FBF4F8093940790939507CE
:1030C000A0939607B093970783E090E09093B61093
:1030D0008093B51040E050E06AE08AE00F943F3EF4
:1030E0000C94DA6D0F94613A009194071091950752
:1030F0002091960730919707601771078207930711
:1031000010F40C94DA6D0F94613ADC01CB01885312
:103110009F4FAF4FBF4F8093940790939507A09315
:103120009607B09397071092B6101092B51040E032
:1031300050E06AE08AE00F943F3E0C94DA6D0F9401
:10314000613A00919407109195072091960730916C
:103150009707601771078207930710F40C94DA6DD4
:103160000F94613ADC01CB0188539F4FAF4FBF4FA3
:103170008093940790939507A0939607B093970731
:1031800040E050E068E08AE00F943F3E81E48093A5
:103190001A1141E061E081E00E94A8B110921A1179
:1031A0000F94BD4E0F942C971091B5108091B007DD
:1031B000823011F540E050E061E18AE00F943F3E3B
:1031C00080E580931A110091AD07010F0093AD07C0
:1031D000002E000C110B20E030E0A901CA01B9015A
:1031E0000F941C8240E050E069E18AE00F943F3E7A
:1031F00010921A110C94DA6D833029F540E050E0FA
:1032000061E18AE00F943F3E80E580931A110091BE
:10321000AE07010F0093AE07002E000C110B20E04B
:1032200030E04CE553EC60E070E088EA92EC0F94FB
:103230001C8240E050E069E18AE00F943F3E10922A
:103240001A110C94DA6D843011F00C94DA6D40E0B0
:1032500050E061E18AE00F943F3E80E580931A11CF
:103260000091AF07010F0093AF07002E000C110B68
:1032700020E030E04CE553EC60E070E084EA92E45A
:103280000F941C8240E050E069E18AE00F943F3ED9
:1032900010921A110C94DA6D10921A118091AD07E8
:1032A0004091AE07042F081B4091AF07142F181B45
:1032B000602F002E000C770B880B990B0F949FA2A8
:1032C0002DEC3CEC4CEC5DEB0F94989D6093B507B6
:1032D0007093B6078093B7079093B807612F012EBC
:1032E000000C770B880B990B0F949FA22DEC3CECF4
:1032F0004CEC5DEB0F94989D6093B1077093B2070F
:103300008093B3079093B4070023A1F040E050E00E
:103310006FE18AE00F943F3E07FF07C0202F33275D
:1033200021950CF4309508E0020F402F000F550B4B
:1033300064E015C01123B9F040E050E060E28AE09B
:103340000F943F3E17FF07C0812F992781950CF4FA
:10335000909518E0180F412F110F550B65E08BE188
:103360000F943F3E11C014E41093B41040E050E0BD
:103370006BE084E10F943F3E40E050E065E18AE07D
:103380000F943F3E10931A118EE790E09093AD108A
:103390008093AC100E94F1F90C94DA6D4091AF0764
:1033A0008091AD07142F181BC1F040E050E060E29F
:1033B0008AE00F943F3E17FF07C0A12FBB27A195BE
:1033C0000CF4B09518E01A0F412F110F550B65E062
:1033D0008BE10F943F3E0C94DA6D14E41093B4101B
:1033E00040E050E06BE084E10F943F3E40E050E06D
:1033F00065E18AE00F943F3E10931A110C94DA6D48
:103400008091B410843411F00C94DA6D1092B007EE
:103410001092AC0710921A11109272101092711043
:10342000109278101092771010927A1010927910F2
:103430001092921010928E11E2E4F7E084918F01C5
:10344000882351F0082E000C990B0F94433F0F5F17
:103450001F4FF8018491F4CF109254120F94FB097E
:1034600040E050E065E08AE00F943F3E1092B410D7
:103470000C94DA6D412F50E0493D510510F00C9449
:10348000DA6DFA018827EE58FF4F8F4F0D948AAD01
:1034900081E0809324080C94DA6D81E08093230806
:1034A0000C94DA6D81E0809322080C94DA6D81E04F
:1034B000809321080C94DA6D81E0809320080C94AD
:1034C000DA6D0F94613A009194071091950720915D
:1034D000960730919707601771078207930710F4DA
:1034E0000C94DA6D0E94CDD9009721F481E080938D
:1034F000250811C00197A1F481E08093250840E0E0
:1035000050E067E381E20F943F3E40E050E061E02D
:103510008BE10F943F3E8091641081508093641042
:103520000F94613ADC01CB0188539F4FAF4FBF4FDF
:103530008093940790939507A0939607B09397076D
:103540000C94DA6D0F94613A0091940710919507ED
:1035500020919607309197076017710782079307AC
:1035600010F40C94DA6D1092921010928E11E7E321
:10357000F7E084918F01882351F0082E000C990BFD
:103580000F94433F0F5F1F4FF8018491F4CF1092C7
:10359000541281E00F94FB0940E050E065E08AE0BE
:1035A0000F943F3E0F94613ADC01CB0188539F4F4B
:1035B000AF4FBF4F8093940790939507A0939607C2
:1035C000B09397070C94DA6D0F94613A00919407C9
:1035D0001091950720919607309197076017710712
:1035E0008207930708F45AC080911F16882309F4B4
:1035F00055C080916F16811151C0CDB6DEB6809155
:103600001E0890911F080F942245E0E2F6E1DF01C9
:103610000D900020E9F78DB79EB78A1B9B0B9C018C
:10362000245E394E0FB6F8943EBF0FBE2DBF0DB7C6
:103630001EB70F5F1F4FFF93EF9380E397E09F93B9
:103640008F931F930F930F9449A2780134E0E30EF8
:10365000F11C0F900F900F900F900F900F90F701AB
:103660008081882349F0082E000C990B0F9485AFB8
:10367000D7018D937D01F3CF80913111909132115B
:1036800004971CF4C8010E9441B18CE297E00F94AA
:10369000FE090FB6F894DEBE0FBECDBE0F94613AA0
:1036A000DC01CB0188539F4FAF4FBF4F80939407EE
:1036B00090939507A0939607B09397070C94DA6DB3
:1036C0000F94613A00919407109195072091960705
:1036D00030919707601771078207930710F40C94D5
:1036E000DA6D81E0809328080F94613ADC01CB0108
:1036F00088539F4FAF4FBF4F809394079093950788
:10370000A0939607B09397070C94DA6D0F94613AE3
:103710000091940710919507209196073091970793
:10372000601771078207930710F40C94DA6D81E03B
:10373000809327080F94613ADC01CB0188539F4F97
:10374000AF4FBF4F8093940790939507A093960730
:10375000B09397070C94DA6D0F94613A0091940737
:103760001091950720919607309197076017710780
:103770008207930710F40C94DA6D40E050E062E1A8
:103780008AE00F943F3E0F94613ADC01CB018853ED
:103790009F4FAF4FBF4F8093940790939507A0938F
:1037A0009607B09397070C94DA6D0F94613A0091E5
:1037B000940710919507209196073091970760170D
:1037C00071078207930710F40C94DA6D40E050E023
:1037D0006CE18AE00F943F3E80E00F94FB09109269
:1037E0003A08109239081092380881E080935412F8
:1037F0000F94613ADC01CB0188539F4FAF4FBF4F0D
:103800008093940790939507A0939607B09397079A
:103810000C94DA6D0F94613A00919407109195071A
:1038200020919607309197076017710782079307D9
:1038300010F40C94DA6D1092921010928E11E1E255
:10384000F7E084918F01882351F0082E000C990B2A
:103850000F94433F0F5F1F4FF8018491F4CF1092F4
:1038600054120E946F8D81E00F94FB0940E050E0FC
:1038700065E08AE00F943F3E0F94613ADC01CB0192
:1038800088539F4FAF4FBF4F8093940790939507F6
:10389000A0939607B09397070C94DA6D80917710F8
:1038A00090917810892B29F010927810109277104F
:1038B00008C0809186099091870990937810809331
:1038C000771010923A080C94DA6D809179109091EB
:1038D0007A10892B29F010927A101092791008C072
:1038E000809184099091850990937A108093791042
:1038F000109239080C94DA6D8091711090917210C9
:10390000892B29F010927210109271101CC08091B6
:1039100082099091830960918009709181096817EB
:1039200079072CF4BC01990F880B990B04C0072E62
:10393000000C880B990B0F949FA20F94BFAA709351
:10394000721060937110109238080C94DA6D0F9415
:10395000613A009194071091950720919607309154
:103960009707601771078207930710F40C94DA6DBC
:103970008DE197E00F94FE090F94613ADC01CB01D1
:1039800088539F4FAF4FBF4F8093940790939507F5
:10399000A0939607B09397070C94DA6D0F94613A51
:1039A0000091940710919507209196073091970701
:1039B000601771078207930710F40C94DA6D40E0EA
:1039C00050E06EE18AE00F943F3E0F94613ADC01D3
:1039D000CB0188539F4FAF4FBF4F80939407909375
:1039E0009507A0939607B09397070C94DA6D0F9400
:1039F000613A0091940710919507209196073091B4
:103A00009707601771078207930710F40C94DA6D1B
:103A100040E050E065E08AE00F943F3E1092921043
:103A200010928E11E2E1F7E084918F01882351F02A
:103A3000082E000C990B0F94433F0F5F1F4FF801A6
:103A40008491F4CF1092541288E793E090936D0222
:103A500080936C020E94F1F90F94613ADC01CB0172
:103A600088539F4FAF4FBF4F809394079093950714
:103A7000A0939607B09397070C94DA6D0F94613A70
:103A80000091940710919507209196073091970720
:103A9000601771078207930710F40C94DA6D0F9486
:103AA000613ADC01CB0188539F4FAF4FBF4F8093EA
:103AB000940790939507A0939607B093970740E0DB
:103AC00050E06AE18AE00F943F3E0F9457418091A5
:103AD0001F16882311F40C94DA6D80916310809383
:103AE00064102BE3E22E20E1F22E3FE4C32E30E1FE
:103AF000D32E00E010E04CE0842E47E0942E80911D
:103B0000631090E008171907ACF560E276E187E9E9
:103B100096E10F9469545701D7018D919D917D01D4
:103B20000F942245F50180819181D6018D939D935B
:103B30006D0180916F16811118C0F40184919CE091
:103B4000A92E97E0B92E882359F0082E000C990B66
:103B50000F94433FFFEFAF1ABF0AF5018491F3CFF3
:103B60008AE090E00F94433F02C00E94C2D50F5FED
:103B70001F4FC5CF87E090E00F9480690C94DA6DF9
:103B80000F94613A00919407109195072091960740
:103B900030919707601771078207930710F40C9410
:103BA000DA6D0F94613ADC01CB0180579E4FAF4F25
:103BB000BF4F8093940790939507A0939607B09377
:103BC000970780916C0290916D028036974041F486
:103BD00088E793E090936D0280936C020E94F1F964
:103BE00040E050E068E08AE00F943F3E81E480933B
:103BF0001A1180918808882331F140E061E081E06A
:103C00000E94A8B10F94BD4E80911A118E3411F408
:103C10000C94DA6D81E00F94FB0910921A1189E07F
:103C200097E00F94FE090F94BD4E80911A118E34C7
:103C300011F40C94DA6D40E050E06BE08AE00F94F0
:103C40003F3E0C94DA6D41E0D9CF0F94613A009178
:103C50009407109195072091960730919707601768
:103C600071078207930710F40C94DA6D40E050E07E
:103C700064E08AE00F943F3E0F94613ADC01CB018F
:103C800088539F4FAF4FBF4F8093940790939507F2
:103C9000A0939607B09397070C94DA6D0F94613A4E
:103CA00000919407109195072091960730919707FE
:103CB000601771078207930710F40C94DA6D0F9464
:103CC000613ADC01CB0180579E4FAF4FBF4F8093CD
:103CD000940790939507A0939607B093970740E0B9
:103CE00050E064E28AE00F943F3E81E080939107C8
:103CF00089E480931A111F921F928DE094E09F93A4
:103D00008F938E010F5F1F4F1F930F930F94FAAF86
:103D1000B8018EE20E94E5D460918609709187090E
:103D2000072E000C880B990B0F949FA200E010E067
:103D300028EC31E440E050E00F947F5C0E94F1F900
:103D400062E174E083E195E10F947E5C65E174E0EB
:103D500083E195E10F947E5C6091D1027091D20273
:103D60008091D3029091D40242E050E00E94CCDADC
:103D700069E174E083E195E10F947E5C2DEB37E31C
:103D800046E05EE36091C9027091CA028091CB0265
:103D90009091CC020F9413AA42E050E00E94CCDA3A
:103DA0006DE174E083E195E10F947E5C2DEB37E3E8
:103DB00046E05EE36091C1027091C2028091C3024D
:103DC0009091C4020F94989D42E050E00E94CCDA9A
:103DD0006091840970918509072E000C880B990B5E
:103DE0000F949FA200E010E028EC31E441E050E0A5
:103DF0000F947F5C0E94F1F962E174E083E195E148
:103E00000F947E5C65E174E083E195E10F947E5C44
:103E10006091D5027091D6028091D7029091D8021C
:103E200042E050E00E94CCDA69E174E083E195E180
:103E30000F947E5C2DEB37E346E05EE36091CD02AC
:103E40007091CE028091CF029091D0020F9413AA6C
:103E500042E050E00E94CCDA6DE174E083E195E14C
:103E60000F947E5C2DEB37E346E05EE36091C50284
:103E70007091C6028091C7029091C8020F94989DDC
:103E800042E050E00E94CCDA10921A110E946F8D2D
:103E900040E050E06BE084E10F943F3E40E050E0B2
:103EA00065E18AE00F943F3E84E48093B4108093F0
:103EB0001A110F900F900F900F900F900F900C947D
:103EC000DA6D0F94613A0091940710919507209153
:103ED000960730919707601771078207930710F4D0
:103EE0000C94DA6D1092921010928E11EEEFF6E0B3
:103EF00084918F01882351F0082E000C990B0F94A8
:103F0000433F0F5F1F4FF8018491F4CF109254127A
:103F10000E946F8D40E050E065E08AE00F943F3EE4
:103F20000F94613ADC01CB0188539F4FAF4FBF4FD5
:103F30008093940790939507A0939607B093970763
:103F40000C94DA6D0F94613A0091940710919507E3
:103F500020919607309197076017710782079307A2
:103F600010F40C94DA6D82E58093140281E0809362
:103F7000900740E050E06BE581E20F943F3E40E067
:103F800050E06CE581E20F943F3E40E050E060E09D
:103F90008BE10F943F3E40E050E06AE781E20F94EE
:103FA0003F3E40E050E069E781E20F943F3E40E051
:103FB00050E06DE18AE00F943F3E8FEF80931F0940
:103FC0000F94613ADC01CB0180579E4FAF4FBF4F3A
:103FD0008093940790939507A0939607B0939707C3
:103FE0000C94DA6D0F94613A009194071091950743
:103FF0002091960730919707601771078207930702
:1040000010F40C94DA6D40E050E062E18AE00F9425
:104010003F3E40E050E06BE581E20F943F3E40E0E0
:1040200050E06CE581E20F943F3E40E050E060E0FC
:104030008BE10F943F3E40E050E06AE781E20F944D
:104040003F3E40E050E069E781E20F943F3E10922E
:1040500090070F94613ADC01CB0188539F4FAF4F1B
:10406000BF4F8093940790939507A0939607B093C2
:1040700097070C94DA6D0F94613A009194071091B0
:10408000950720919607309197076017710782076F
:10409000930710F40C94DA6D1092921010928E1116
:1040A000E3EFF6E084918F01882351F0082E000C95
:1040B000990B0F94433F0F5F1F4FF8018491F4CF8A
:1040C0001092541240E050E065E08AE00F943F3EC9
:1040D00040E050E06BE581E20F943F3E40E050E06D
:1040E0006CE581E20F943F3E40E050E060E08BE100
:1040F0000F943F3E40E050E06AE781E20F943F3E7C
:1041000040E050E069E781E20F943F3E1092900753
:104110000F94613ADC01CB0188539F4FAF4FBF4FE3
:104120008093940790939507A0939607B093970771
:104130000C94DA6D0F94613A0091940710919507F1
:1041400020919607309197076017710782079307B0
:1041500010F40C94DA6D41E050E06BE581E20F94CD
:104160003F3E40E050E06CE581E20F943F3E41E08D
:1041700050E060E08BE10F943F3E41E050E06AE7A1
:1041800081E20F943F3E41E050E069E781E20F9405
:104190003F3E10921F090F94613ADC01CB01885316
:1041A0009F4FAF4FBF4F8093940790939507A09375
:1041B0009607B09397070C94DA6D0F94613A0091CB
:1041C00094071091950720919607309197076017F3
:1041D00071078207930710F40C94DA6D40E050E009
:1041E0006BE581E20F943F3E41E050E06CE581E2F7
:1041F0000F943F3E41E050E060E08BE10F943F3E82
:1042000041E050E06AE781E20F943F3E41E050E038
:1042100069E781E20F943F3E81E080931F090F948C
:10422000613ADC01CB0188539F4FAF4FBF4F809362
:10423000940790939507A0939607B09397070C94D3
:10424000DA6D0F94613A00919407109195072091CF
:10425000960730919707601771078207930710F44C
:104260000C94DA6D0F94613ADC01CB0188539F4FB7
:10427000AF4FBF4F8093940790939507A0939607F5
:10428000B093970780916C0290916D0280369740B1
:1042900041F488E793E090936D0280936C020E9452
:1042A000F1F900911F090F3F11F40C94DA6D01111F
:1042B0001DC08091A4109091A51060916C07709121
:1042C0006D07681779072CF4BC01990F880B990BBF
:1042D00004C0072E000C880B990B0F949FA20F941B
:1042E000BFAA709378106093771020C08091A810B7
:1042F0009091A91060916A0770916B076817790710
:104300002CF4BC01990F880B990B04C0072E000CEC
:10431000880B990B0F949FA210E0000F111F0958F2
:104320001F4E0F94BFAAD8016D937C9381E08093B8
:10433000181181E480931A1140E050E068E08AE0AF
:104340000F943F3E80918808882311F040E001C01F
:1043500041E061E081E00E94A8B180E090E0A3E448
:10436000B3E480934B1190934C11A0934D11B093F3
:104370004E1180900B0990900C09A0900D09B090FF
:104380000E092091471130914811409149115091E7
:104390004A1160914311709144118091451190919F
:1043A0004611E5E86E2EE0E17E2E7F926F92FFE4EB
:1043B000CF2EF1E1DF2EE12CF12C03E413E40E9477
:1043C000E49E80E090E0A0E2B1E4809347119093F6
:1043D0004811A0934911B0934A1180900709909019
:1043E0000809A0900909B0900A09E0904B11F090DB
:1043F0004C1100914D1110914E116091431170912B
:10440000441180914511909146117F926F9220E066
:1044100030E040E251E40E94E49E0F94BD4E0F90C4
:104420000F900F900F9080911A118E3411F40C940C
:10443000DA6D10921A110E946F8D6BEF73E08DE2AE
:104440000E94E5D440E050E068E28AE00F943F3EED
:1044500000911F0910E0F801EE0FFF1FEE0FFF1F84
:10446000EC5CFD4E60817181828193810F94BFAAC3
:104470007093310860933008000F111FF801E9585C
:10448000FF4E8081918190932F0880932E0888E4BD
:1044900080931A110E946F8D64EF71E080E090E0CC
:1044A0000F94293A81E0809332080C94DA6D0F94CE
:1044B000613A0091940710919507209196073091E9
:1044C0009707601771078207930710F40C94DA6D51
:1044D0000F94613ADC01CB0188539F4FAF4FBF4F20
:1044E0008093940790939507A0939607B0939707AE
:1044F00080916C0290916D028036974041F488E77C
:1045000093E090936D0280936C020E94F1F9E09128
:104510001F09EF3F11F40C94DA6D81E080931811BC
:10452000F0E0EE0FFF1FE958FF4E84E091E0918329
:10453000808381E480931A1140E050E068E08AE0D3
:104540000F943F3E80918808882311F040E001C01D
:1045500041E061E081E00E94A8B10F94BD4E8091DE
:104560001A118E3411F40C94DA6D80E090E0A3E41B
:10457000B3E480934B1190934C11A0934D11B093E1
:104580004E1180900B0990900C09A0900D09B090ED
:104590000E092091471130914811409149115091D5
:1045A0004A1160914311709144118091451190918D
:1045B0004611E5E86E2EE0E17E2E7F926F92FFE4D9
:1045C000CF2EF1E1DF2EE12CF12C03E413E40E9465
:1045D000E49E0F94BD4E0F900F9080911A118E346F
:1045E00011F40C94DA6D80E090E0A0E2B1E48093E5
:1045F000471190934811A0934911B0934A118090AC
:10460000070990900809A0900909B0900A09E09064
:104610004B11F0904C1100914D1110914E11609181
:1046200043117091441180914511909146117F92F0
:104630006F9220E030E040E251E40E94E49E0F944B
:10464000BD4E0F900F9080911A118E3411F40C947E
:10465000DA6D80911F09811103C080E090E002C0F3
:1046600081E090E00F941E7C80E090E0ABE1B3E449
:104670008093431190934411A0934511B093461138
:10468000E0904B11F0904C1100914D1110914E1192
:1046900020914711309148114091491150914A1190
:1046A0008FE199E09F938F93812C60E8962E6BE3C6
:1046B000A62E66E4B62E7FE4C72E71E1D72E60E009
:1046C00070E08BE193E40E94E49E0F94BD4E0F9046
:1046D0000F9080911A118E3411F40C94DA6D1092AF
:1046E0001A110E946F8D40E050E065E28AE00F945D
:1046F0003F3E0C94DA6D0F94613A0091940710914B
:1047000095072091960730919707601771078207E8
:10471000930710F40C94DA6D81E080932C081092CA
:104720002A0810922B0810922D080F94613ADC0190
:10473000CB0186509F4FAF4FBF4F8093940790930C
:104740009507A0939607B09397070C94DA6D0F9492
:10475000613A009194071091950720919607309146
:104760009707601771078207930710F40C94DA6DAE
:1047700010922C0881E080932A0810922B08109246
:104780002D080F94613ADC01CB0186509F4FAF4F4B
:10479000BF4F8093940790939507A0939607B0938B
:1047A00097070C94DA6D0F94613A00919407109179
:1047B0009507209196073091970760177107820738
:1047C000930710F40C94DA6D10922C0810922A08BA
:1047D00081E080932B0810922D080F94613ADC0140
:1047E000CB0186509F4FAF4FBF4F8093940790935C
:1047F0009507A0939607B09397070C94DA6D0F94E2
:10480000613A009194071091950720919607309195
:104810009707601771078207930710F40C94DA6DFD
:1048200010922C0810922A0810922B0881E0809395
:104830002D080F94613ADC01CB0186509F4FAF4F9A
:10484000BF4F8093940790939507A0939607B093DA
:1048500097070C94DA6D0F94613A009194071091C8
:104860009507209196073091970760177107820787
:10487000930710F40C94DA6D8FEF809315020E9469
:104880006F8D40E050E062E18AE00F943F3E0F946C
:10489000613ADC01CB0188539F4FAF4FBF4F8093EC
:1048A000940790939507A0939607B09397070C945D
:1048B000DA6D0F94613A0091940710919507209159
:1048C000960730919707601771078207930710F4D6
:1048D0000C94DA6D8FEF809315020E946F8D40E08B
:1048E00050E062E18AE00F943F3E0F94613ADC01B0
:1048F000CB0188539F4FAF4FBF4F80939407909346
:104900009507A0939607B09397070C94DA6D0F94D0
:10491000613A009194071091950720919607309184
:104920009707601771078207930710F40C94DA6DEC
:1049300041E050E06CE981E20F943F3E41E050E0FD
:104940006DE981E20F943F3E2091390230913A02A5
:104950008E010F5F1F4F8091771090917810109209
:104960003A02109239022130310509F052C0892BE8
:1049700041F48091860990918709909378108093F3
:10498000771041E050E06AE981E20F943F3E40E059
:1049900050E06BE981E20F943F3E1F9240EBF42E12
:1049A000FF92809178108F93809177108F938EEF84
:1049B00093E09F938F931F930F930F94FAAFB801D7
:1049C00085E00E94E5D4C8010E9411DA1F92FF928F
:1049D0006091341270913512809136129091371295
:1049E0000F94BFAA7F936F938BEE96E09F938F9364
:1049F0001F930F930F9449A2B8018AE00E94E5D457
:104A0000EDB7FEB770960FB6F894FEBF0FBEEDBFC0
:104A10004FC0892B41F4809186099091870990932A
:104A200078108093771041E050E06AE981E20F94BA
:104A30003F3E40E050E06BE981E20F943F3E1F9221
:104A400030EBF32EFF92809178108F938091771046
:104A50008F938EEF93E09F938F931F930F930F94F9
:104A6000FAAFB80185E00E94E5D41F92FF926091F1
:104A700034127091351280913612909137120F9442
:104A8000BFAA7F936F9383EE96E09F938F931F93BC
:104A90000F930F9449A2B8018AE00E94E5D42DB784
:104AA0003EB7205F3F4F0FB6F8943EBF0FBE2DBFFD
:104AB0000F94613ADC01CB0188539F4FAF4FBF4F3A
:104AC0008093940790939507A0939607B0939707C8
:104AD0000C94DA6D0F94613A009194071091950748
:104AE0002091960730919707601771078207930707
:104AF00010F40C94DA6D41E050E06CE981E20F941F
:104B00003F3E41E050E06DE981E20F943F3E20914D
:104B1000390230913A028E010F5F1F4F8091791058
:104B200090917A10232B09F059C021E030E03093A6
:104B30003A0220933902892B41F4809184099091A3
:104B4000850990937A108093791040E050E06AE9EB
:104B500081E20F943F3E41E050E06BE981E20F9427
:104B60003F3E1F9220EBF22EFF9280917A108F939E
:104B7000809179108F938BED96E09F938F931F9385
:104B80000F930F9449A2B80185E00E94E5D4C801B3
:104B90000E9411DA1F92FF926091381270913912BF
:104BA00080913A1290913B120F94BFAA7F936F931A
:104BB00083ED96E09F938F931F930F930F9449A2D9
:104BC000B80181E10E94E5D44DB75EB7405F5F4F09
:104BD0000FB6F8945EBF0FBE4DBF54C021E030E069
:104BE00030933A0220933902892B41F48091840951
:104BF0009091850990937A108093791040E050E06D
:104C00006AE981E20F943F3E41E050E06BE981E2C6
:104C10000F943F3E1F9290EBF92EFF9280917A10F5
:104C20008F93809179108F938BEC96E09F938F9365
:104C30001F930F930F9449A2B80185E00E94E5D419
:104C40001F92FF92609138127091391280913A123E
:104C500090913B120F94BFAA7F936F9383EC96E0E1
:104C60009F938F931F930F930F9449A2B80181E1F3
:104C70000E94E5D48DB79EB740960FB6F8949EBFBC
:104C80000FBE8DBF0F94613ADC01CB0188539F4F5B
:104C9000AF4FBF4F8093940790939507A0939607CB
:104CA000B09397070C94DA6DE0913902F0913A02D3
:104CB000EF3F9FEFF90711F40C94DA6DEE0FFF1F31
:104CC000E958FF4E808191818B33A1E09A0714F05F
:104CD0000C94DA6D0596918380831F9220EB2F93BD
:104CE0009F938F938BEB96E09F938F938E010F5F33
:104CF0001F4F1F930F930F9449A2B80185E00E94A4
:104D0000E5D4EDB7FEB738960FB6F894FEBF0FBEE8
:104D1000EDBF0C94DA6DE0913902F0913A02EF3F69
:104D20002FEFF20711F40C94DA6DEE0FFF1FE95824
:104D3000FF4E808191811816190614F00C94DA6DDB
:104D40000597918380831F9220EB2F939F938F93DE
:104D500083EB96E09F938F938E010F5F1F4F1F93FE
:104D60000F930F9449A2B80185E00E94E5D44DB796
:104D70005EB7485F5F4F0FB6F8945EBF0FBE4DBF82
:104D80000C94DA6D8091390290913A02019611F4F7
:104D90000C94DA6D90917F0980917E0998130C94A0
:104DA0003B5B0C943F5B8091390290913A020196F3
:104DB00011F40C94DA6D90917F0980917E0998131B
:104DC0000C943B5B0C94445B0F94613A0091940704
:104DD00010919507209196073091970760177107FA
:104DE0008207930710F40C94DA6D81E08093330806
:104DF00040E050E068E981E20F943F3E40E050E03F
:104E000067E981E20F943F3E40E050E06CE981E2C7
:104E10000F943F3E40E050E06DE981E20F943F3E49
:104E200040E050E067E881E20F943F3E40E050E010
:104E30006CE28AE00F943F3E8FEF9FEF90933A022F
:104E400080933902E3EAF6E084918F01882351F0E0
:104E5000082E000C990B0F94433F0F5F1F4FF80172
:104E60008491F4CF40E050E06AE981E20F943F3E44
:104E700040E050E06BE981E20F943F3E1F9210EB5F
:104E8000F12EFF926091341270913512809136129A
:104E9000909137120F94BFAA7F936F938BE996E09E
:104EA0009F938F938E010F5F1F4F1F930F930F944C
:104EB00049A2B8018AE00E94E5D4C8010E9411DA33
:104EC0001F92FF92609138127091391280913A12BC
:104ED00090913B120F94BFAA7F936F9383E996E062
:104EE0009F938F931F930F930F9449A2B80181E171
:104EF0000E94E5D4C8010E9411DA1F92FF921F920E
:104F00001F928BE896E09F938F931F930F930F94BC
:104F100049A2B80185E00E94E5D4C8010E9411DAD7
:104F20000F94613ADC01CB0188539F4FAF4FBF4FC5
:104F30008093940790939507A0939607B093970753
:104F40002DB73EB7285E3F4F0FB6F8943EBF0FBE59
:104F50002DBF0C94DA6D0F94613A00919407109173
:104F60009507209196073091970760177107820780
:104F7000930710F40C94DA6D109233080F947A4E64
:104F800081E00F94FB090E946F8D40E050E066E0E5
:104F90008AE00F943F3E0F94613ADC01CB018853C5
:104FA0009F4FAF4FBF4F8093940790939507A09367
:104FB0009607B09397070C94DA6D0F94613A0091BD
:104FC00094071091950720919607309197076017E5
:104FD00071078207930710F40C94DA6D109233086E
:104FE0000F947A4E1092921010928E1110925412C9
:104FF000E0E8F6E084918F01882351F0082E000C40
:10500000990B0F94433F0F5F1F4FF8018491F4CF2A
:1050100081E00F94FB090E946F8D40E050E065E055
:105020008AE00F943F3E0F94613ADC01CB01885334
:105030009F4FAF4FBF4F8093940790939507A093D6
:105040009607B09397070C94DA6D0F94613A00912C
:105050009407109195072091960730919707601754
:1050600071078207930710F40C94DA6D10928F0782
:1050700040E050E064E08AE00F943F3E0F94613AD4
:10508000DC01CB0188539F4FAF4FBF4F80939407F4
:1050900090939507A0939607B09397070C94DA6DB9
:1050A0000F94613A0091940710919507209196070B
:1050B00030919707601771078207930710F40C94DB
:1050C000DA6D82E5809314028FEF80931F0940E030
:1050D00050E066E18AE00F943F3E0F94613ADC01B4
:1050E000CB0188539F4FAF4FBF4F8093940790934E
:1050F0009507A0939607B09397070C94DA6D0F94D9
:10510000613A00919407109195072091960730918C
:105110009707601771078207930710F40C94DA6DF4
:1051200089E48093140240E050E06CE481E20F9443
:105130003F3E40E050E06BE481E20F943F3E40E0B0
:1051400050E061E481E20F943F3E40E050E066E4CD
:1051500081E20F943F3E40E050E06EE481E20F9424
:105160003F3E40E050E06FE481E20F943F3E40E07C
:1051700050E064E18AE00F943F3E8FEF80931F0977
:105180000F94613ADC01CB0188539F4FAF4FBF4F63
:105190008093940790939507A0939607B0939707F1
:1051A0000C94DA6D0F94613AC0909407D0909507F3
:1051B000E0909607F09097076C157D058E059F058A
:1051C00010F40C94DA6D0F94613ADC01CB01885332
:1051D0009F4FAF4FBF4F8093940790939507A09335
:1051E0009607B09397071A3519F410921F0903C058
:1051F00081E080931F0900911F0901111DC080915A
:10520000A4109091A51060916C0770916D076817BC
:1052100079072CF4BC01990F880B990B04C0072E59
:10522000000C880B990B0F949FA20F94BFAA709348
:1052300078106093771020C08091A8109091A910E9
:1052400060916A0770916B07681779072CF4BC01AD
:10525000990F880B990B04C0072E000C880B990B33
:105260000F949FA210E0000F111F09581F4E0F94BA
:10527000BFAAD8016D937C9381E480931A1140E01A
:1052800050E068E08AE00F943F3E809188088823D0
:1052900011F040E001C041E061E081E00E94A8B16E
:1052A00080E090E0A3E4B3E480934B1190934C1121
:1052B000A0934D11B0934E1180900B0990900C0962
:1052C000A0900D09B0900E0920914711309148111E
:1052D0004091491150914A116091431170914411CC
:1052E0008091451190914611E5E86E2EE0E17E2E09
:1052F0007F926F92FFE4CF2EF1E1DF2EE12CF12CB3
:1053000003E413E40E94E49E80E090E0A0E2B1E4B4
:105310008093471190934811A0934911B0934A117B
:105320008090070990900809A0900909B0900A0997
:10533000E0904B11F0904C1100914D1110914E11D5
:1053400060914311709144118091451190914611E3
:105350007F926F9220E030E040E251E40E94E49EB0
:105360000F94BD4E0F900F900F900F9080911A11D7
:105370008E3411F40C94DA6D10921A110E946F8D14
:105380006BEF73E08DE20E94E5D440E050E068E20C
:105390008AE00F943F3E00911F0910E0F801EE0FE4
:1053A000FF1FEE0FFF1FEC5CFD4E6081718182815B
:1053B00093810F94BFAA7093310860933008000F57
:1053C000111FF801E958FF4E8081918190932F08B9
:1053D00080932E080E946F8D88E480931A1164EFE9
:1053E00071E080E090E00F94293A81E080933208E8
:1053F0000C94DA6D8091B81081110C94DA6D0F94D1
:10540000613A009194071091950720919607309189
:105410009707601771078207930710F40C94DA6DF1
:1054200040E050E066E08AE00F943F3E0F94613A1E
:10543000DC01CB0188539F4FAF4FBF4F8093940740
:1054400090939507A0939607B09397070C94DA6D05
:105450000F94613A00919407109195072091960757
:1054600030919707601771078207930710F40C9427
:10547000DA6D40E050E066E08AE00F943F3E0F9422
:10548000613ADC01CB0188539F4FAF4FBF4F8093F0
:10549000940790939507A0939607B09397070C9461
:1054A000DA6D0F94613A009194071091950720915D
:1054B000960730919707601771078207930710F4DA
:1054C0000C94DA6D1092921010928E111092541268
:1054D000E5E7F6E084918F01882351F0082E000C57
:1054E000990B0F94433F0F5F1F4FF8018491F4CF46
:1054F00040E050E065E08AE00F943F3E0F94613A4F
:10550000DC01CB0188539F4FAF4FBF4F809394076F
:1055100090939507A0939607B09397070C94DA6D34
:105520008091B81081110C94DA6D0F94613A00915A
:10553000940710919507209196073091970760176F
:1055400071078207930710F40C94DA6D1092921091
:1055500010928E1110925412EAE6F6E084918F01B7
:10556000882351F0082E000C990B0F94433F0F5FD6
:105570001F4FF8018491F4CF40E050E065E08AE0ED
:105580000F943F3E0F94613ADC01CB0188539F4F4B
:10559000AF4FBF4F8093940790939507A0939607C2
:1055A000B09397070C94DA6D8091B81081110C9428
:1055B000DA6D0F94613AC0909407D0909507E0900F
:1055C0009607F09097076C157D058E059F0510F4E2
:1055D0000C94DA6D0F94613ADC01CB0188539F4F34
:1055E000AF4FBF4F8093940790939507A093960772
:1055F000B09397071B3419F410921F0903C081E080
:1056000080931F0980911402E0911F09893409F0E9
:105610004CC041E050E0E11124C06BE481E20F9402
:105620003F3E40E050E06CE481E20F943F3E41E0B9
:1056300050E061E481E20F943F3E41E050E066E4D7
:1056400081E20F943F3E41E050E06EE481E20F942E
:105650003F3E41E050E06FE481E20F943F3E0C9406
:10566000DA6D6CE481E20F943F3E40E050E06BE481
:1056700081E20F943F3E41E050E061E481E20F940B
:105680003F3E41E050E066E481E20F943F3E41E05E
:1056900050E06EE481E20F943F3E41E050E06FE461
:1056A00081E20F943F3E0C94DA6DE11109C08091C4
:1056B000A4109091A51090937810809377100BC050
:1056C000F0E0EE0FFF1FE958FF4E8091A810909177
:1056D000A9109183808381E480931A1140E050E007
:1056E00068E08AE00F943F3E80918808882311F09B
:1056F00040E001C041E061E081E00E94A8B180E0AB
:1057000090E0A3E4B3E480934B1190934C11A093E9
:105710004D11B0934E1180900B0990900C09A09000
:105720000D09B0900E092091471130914811409118
:10573000491150914A116091431170914411809127
:1057400045119091461115E8612E10E1712E7F925E
:105750006F920FE4C02E01E1D02EE12CF12C03E476
:1057600013E40E94E49E80E090E0A0E2B1E4809324
:10577000471190934811A0934911B0934A1180901A
:10578000070990900809A0900909B0900A09E090D3
:105790004B11F0904C1100914D1110914E116091F0
:1057A00043117091441180914511909146117F925F
:1057B0006F9220E030E040E251E40E94E49E0F94BA
:1057C000BD4E0F900F900F900F9080911A118E3454
:1057D00011F40C94DA6D10921A110E946F8D6BEF18
:1057E00073E08DE20E94E5D440E050E068E28AE098
:1057F0000F943F3E00911F0910E0F801EE0FFF1FCC
:10580000EE0FFF1FEC5CFD4E608171818281938100
:105810000F94BFAA7093310860933008000F111FD6
:10582000F801E958FF4E8081918190932F08809371
:105830002E0888E480931A110E946F8D64EF71E046
:1058400080E090E00F94293A81E0809332080C9434
:10585000DA6D0F94613A00919407109195072091A9
:10586000960730919707601771078207930710F426
:105870000C94DA6D88E793E090936D0280936C024C
:1058800080911F09813039F540E050E068E08AE0FE
:105890000F943F3E87ED90E09093850980938409B3
:1058A0009093AB108093AA108AEA90E09093A9108D
:1058B0008093A81081E490E09093810980938009FF
:1058C0000E94F1F98091AA109091AB1090937A10F8
:1058D0008093791028C0811128C040E050E068E032
:1058E0008AE00F943F3E87ED90E090938709809384
:1058F00086099093A7108093A6108AEA90E090936F
:10590000A5108093A41081E490E090938309809384
:1059100082090E94F1F98091A6109091A7109093AE
:105920007810809377100F94109B0F94613ADC01EC
:10593000CB0188539F4FAF4FBF4F809394079093F5
:105940009507A0939607B09397070C94DA6D0F9480
:10595000613A009194071091950720919607309134
:105960009707601771078207930710F40C94DA6D9C
:105970000F94613ADC01CB0188539F4FAF4FBF4F6B
:105980008093940790939507A0939607B0939707F9
:1059900088E793E090936D0280936C0280911F09D9
:1059A000813051F540E050E068E08AE00F943F3EDE
:1059B00084E091E090938509809384099093AB10E3
:1059C0008093AA1086EE90E09093A9108093A8107F
:1059D0008AE590E090938109809380090E94F1F913
:1059E0008091AA109091AB1090937A1080937910C7
:1059F0000F94109B0C94DA6D81110C94DA6D40E0D9
:105A000050E068E08AE00F943F3E84E091E090939C
:105A10008709809386099093A7108093A61086EE3D
:105A200090E09093A5108093A4108AE590E0909365
:105A30008309809382090E94F1F98091A6109091C8
:105A4000A71090937810809377100F94109B0C946C
:105A5000DA6D0F94613A00919407109195072091A7
:105A6000960730919707601771078207930710F424
:105A70000C94DA6D0F94613ADC01CB0188539F4F8F
:105A8000AF4FBF4F8093940790939507A0939607CD
:105A9000B093970788E793E090936D0280936C0230
:105AA00080911F09813061F540E050E068E08AE0B4
:105AB0000F943F3E8CED90E090938509809384098C
:105AC00086EE90E09093AB108093AA1080EA90E06D
:105AD0009093A9108093A8108CE390E09093810993
