:100000000C947D140C94AE140C94AE140C94AE1499
:100010000C94AE140C94AE140C94AE140C94AE1458
:100020000C94AE140C94AE140C94AE140C94AE1448
:100030000C94AE140C94AE140C94AE140C94AE1438
:100040000C94AE140D9481710C94AE140C94AE14F7
:100050000C94AE140C94AE140D94F28E0D94B795CE
:100060000C94AE140D94E7990D941D9A0C94AE1453
:100070000C94AE140C94AE140C94AE140C94AE14F8
:100080000C94AE140C94AE140C94AE140C94AE14E8
:100090000C94AE140C94AE140C94AE140C94711514
:1000A0000C94AE140C94AE140C94AE140C94AE14C8
:1000B0000C94AE140C94AE140C94AE140C94AE14B8
:1000C0000C94AE140C94AE140C94AE140D94929A3D
:1000D0000D94C89A0C94AE140C94AE140C94AE14F7
:1000E0000C94AE14230121010701F700E900EF0091
:1000F0003B01F5002B011901E700CF00E3002701C8
:10010000CD00F10031010B013901D90035012F017A
:10011000DF00FF00D10031011F0109011B010F01A8
:10012000C700D5002D01ED00E100FB0017012501FE
:100130001D013701FD00D700DB00E1000301F300E2
:100140001501084AD73B3BCE016E84BCBFFDC12FD1
:100150003D6C74319ABD56833DDA3D00C77F11BEB8
:10016000D9E4BB4C3E916BAAAABE000000803F05BB
:10017000A84CCDB2D44EB93836A9020C50B99186EC
:1001800088083CA6AAAA2ABE000000803F000D9461
:10019000A9970D94F19A0D944F9A0D9401970D948F
:1001A000ED960D945C970D942F6C0D9498970D948B
:1001B000C9970D9425970D94CD970D94469A0D945B
:1001C00043970D94E0970D94F2960D9477980D94C3
:1001D000FF8F0D94CA8F0D94FA9A0D94A2970D94E7
:1001E000D78F0D940B970D94D7970D94F38F0D9493
:1001F000B08F0D944A9B0D94AD970D94C5970D94B7
:1002000052970D9400990D94D3970D9421990D94C4
:10021000A38F0D9470970D9415970D9490980D944D
:10022000A6970D94A4980D94A3340D94DB970D9488
:10023000B1970D94F78F0D947A970D94BB970D9409
:1002400066970D94878F0D947A8F0D94B7970D94C0
:10025000F7960D94BB340D94F58F0D949C970D94E7
:1002600039970D9484970D9482980D942F970D943F
:10027000BF970D941D970D94F18F4D383420582061
:1002800059205A2045004D313037005430004D314F
:1002900030370043616E6E6F7420656E7465722036
:1002A0007375626469723A20005341564544205088
:1002B00052494E54004D3234004D323320257300E4
:1002C0006175746F25692E67006572726F72207791
:1002D000726974696E6720746F2066696C65004E80
:1002E0006F74205344207072696E74696E67002FBA
:1002F000005344207072696E74696E67206279746D
:100300006520002E0044656C6574696F6E2066611F
:10031000696C65642C2046696C653A200046696CFE
:10032000652064656C657465643A002E006F7065C5
:100330006E206661696C65642C2046696C653A20A4
:100340000057726974696E6720746F2066696C6506
:100350003A20002E006F70656E206661696C6564DE
:100360002C2046696C653A20002E006F70656E2067
:100370006661696C65642C2046696C653A200046AC
:10038000696C652073656C656374656400205369EE
:100390007A653A200046696C65206F70656E656409
:1003A0003A20002E006F70656E206661696C65648E
:1003B0002C2046696C653A20004E6F772066726586
:1003C00073682066696C653A20004E6F7720646F11
:1003D000696E672066696C653A20002220706F7331
:1003E000002220706172656E743A220053554252A9
:1003F0004F5554494E452043414C4C20746172671F
:1004000065743A2200747279696E6720746F206394
:10041000616C6C207375622D67636F64652066691B
:100420006C6573207769746820746F6F206D616EDE
:1004300079206C6576656C732E204D4158206C6573
:1004400076656C2069733A005344206361726420BE
:100450006F6B006F70656E526F6F74206661696CB0
:10046000656400766F6C756D652E696E69742066C3
:1004700061696C656400534420696E69742066612B
:10048000696C006563686F3A004572726F723A007A
:10049000535543434553530056616C756573206F44
:1004A0007574206F662072616E67650056616C75A9
:1004B0006573206F7574206F662072616E676500CA
:1004C00056616C756573206F7574206F662072615C
:1004D0006E67650056616C756573206F7574206F6B
:1004E000662072616E676500535543434553530060
:1004F00056616C756573206F7574206F662072612C
:100500006E67650056616C756573206F7574206F3A
:10051000662072616E67650056616C756573206F49
:100520007574206F662072616E67650056616C7528
:100530006573206F7574206F662072616E67650049
:1005400053544154495354494353205245534554FD
:100550000048617264636F6465642043616C696222
:1005600020616E64205049442044656661756C7456
:100570002053657474696E6773204C6F61646564A1
:100580000048617264636F646564204465666175E8
:100590006C742053657474696E6773204C6F61646A
:1005A00065640053746F7265642073657474696E5A
:1005B000677320726574726965766564002C2073B8
:1005C000617665645F66656564726174653A200092
:1005D0002C2073617665645F66616E6C617965720B
:1005E0003A20002C2073617665645F74656D7062DB
:1005F00065643A20002C2073617665645F74656DD4
:1006000070303A20002C2073617665645F74656DEC
:1006100070313A20002C2073617665645F66696CE6
:1006200065706F736974696F6E3A20002C20736176
:100630007665645F655F706F736974696F6E3A2089
:10064000002C2073617665645F746F6F6C5F61630B
:10065000746976653A20002C2073617665645F7A50
:100660005F706F736974696F6E3A20002C2073613C
:100670007665645F795F706F736974696F6E3A2035
:10068000002C2073617665645F785F706F736974A6
:10069000696F6E3A200053415645205052494E54DE
:1006A000204C4F473A00204D696E75746573203AAF
:1006B00000204C617374207072696E742074696DCF
:1006C000652D3E20486F757273203A004C6173743B
:1006D000207072696E74206475726174696F6E0047
:1006E0002C205468697264204944206E756D6265DF
:1006F0007220002C205365636F6E64204944206E85
:10070000756D6265723A20002046697273742049E3
:1007100044206E756D6265723A2000554920496E1D
:10072000666F726D6174696F6E2053657269616C7A
:10073000204E756D6265723A00206D2C2045312087
:100740007072696E742064697374616E63653A20B7
:1007500000206B6D2C204530207072696E7420640F
:10076000697374616E63653A2000206B6D2C2059AB
:10077000207072696E742064697374616E63653A87
:100780002000206B6D2C205831207072696E74200F
:1007900064697374616E63653A200020432C0A20FB
:1007A0005830207072696E742064697374616E636E
:1007B000653A200020432C206D61782074656D70AF
:1007C00020423A200020432C206D61782074656D12
:1007D0007020523A20002C206D61782074656D7075
:1007E000204C3A2000682C207072696E7473206669
:1007F000696E69736865643A20002C207072696EB6
:1008000074696E672074696D653A200020707269A2
:100810006E74733A200053544154533A0020432CD1
:1008200020525F5052494E543A200020432C20520F
:100830005F4245443A200020432C20525F52454DF0
:100840004F56453A200020525F494E534552543A84
:10085000200054656D70202843293A0020432C2045
:100860004C5F5052494E543A200020432C204C5F9C
:100870004245443A200020432C204C5F52454D4FC6
:1008800056453A2000204C5F494E534552543A2079
:100890000054656D70202843293A00205A20707258
:1008A0006F626500205A2000205920002058200047
:1008B0004F66667365747320286D6D293A00204475
:1008C00000204900202D204D333031205249474827
:1008D00054205000204400204900204D3330312066
:1008E0004C45465420500050494420736574746947
:1008F0006E67733A00205A0020590020204D323094
:1009000036205800486F6D65206F666673657420E9
:10091000286D6D293A00204500205A0020580020FB
:10092000420020540020204D3230352053004164D5
:1009300076616E636564207661726961626C65736D
:100940003A20533D4D696E20666565647261746539
:1009500020286D6D2F73292C20543D4D696E207415
:10096000726176656C2066656564726174652028C5
:100970006D6D2F73292C20423D6D696E696D756D0B
:10098000207365676D656E742074696D6520286DD0
:1009900073292C20583D6D6178696D756D2058590B
:1009A000206A65726B20286D6D2F73292C20205AC8
:1009B0003D6D6178696D756D205A206A65726B2096
:1009C000286D6D2F73292C2020453D6D6178696D50
:1009D000756D2045206A65726B20286D6D2F732917
:1009E0000020540020204D323034205300416363F6
:1009F000656C65726174696F6E3A20533D61636323
:100A0000656C65726174696F6E2C20543D726574FB
:100A10007261637420616363656C65726174696F90
:100A20006E00204500205A0020590020204D323011
:100A3000312058004D6178696D756D2041636365A3
:100A40006C65726174696F6E20286D6D2F73322929
:100A50003A00204500205A0020590020204D323015
:100A6000332058004D6178696D756D206665656449
:100A7000726174657320286D6D2F73293A002045CB
:100A800000205A0020590020204D393220580053B0
:100A9000746570732070657220756E69743A0053C6
:100AA000657474696E67732053746F726564006552
:100AB00063686F3A00204500205A00205900483DE5
:100AC00058005072696E7465722068616C74656458
:100AD0002E206B696C6C28292063616C6C65642125
:100AE000006F6B00526573656E643A2000486F7446
:100AF000656E64206F6666736574733A005A204FA2
:100B00006666736574203A20007A5F6D61783A20DA
:100B1000007A5F6D696E3A20005A204F66667365F1
:100B200074005A204F6666736574206F6B004E6FB9
:100B300074207072696E74207265636F7665727965
:100B4000207570005072696E74207265636F7665EF
:100B5000727920757000486F74656E64206F6666E8
:100B6000736574733A007A5F6D696E3A2000795F3D
:100B70006D61783A2000785F6D61783A2000785F87
:100B80006D696E3A2000205A3A0020593A002043FD
:100B90006F756E7420583A200020453A00205A3A6A
:100BA0000020593A00583A004649524D57415245A3
:100BB0005F4E414D453A4D61726C696E2056313B36
:100BC00020537072696E7465722F6772626C206D4B
:100BD000617368757020666F722067656E36204697
:100BE00049524D574152455F55524C3A68747470A2
:100BF000733A2F2F6769746875622E636F6D2F4586
:100C000072696B5A616C6D2F4D61726C696E2F2029
:100C100050524F544F434F4C5F56455253494F4EDD
:100C20003A312E30204D414348494E455F5459508A
:100C3000453A4D656E64656C20455854525544459F
:100C4000525F434F554E543A3220555549443A303D
:100C5000303030303030302D303030302D3030309A
:100C6000302D303030302D3030303030303030308A
:100C70003030300A0020423A0020453A00543A0011
:100C800020573A0020453A00543A002042403A00AA
:100C900020403A00202F003A00205400202F00204E
:100CA000423A00202F006F6B20543A000A0A00538A
:100CB00074616E6461726420446576696174696F01
:100CC0006E3A20000A004D65616E3A20000A00204D
:100CD00020207A3A200000793A2000783A20003F1C
:100CE000537065636966696564206E756D626572CF
:100CF000206F66206C65677320696E206D6F766566
:100D00006D656E74206E6F7420706C6175736162B6
:100D10006C652E0A003F53706563696669656420DF
:100D20005920706F736974696F6E206F7574206FCE
:100D3000662072616E67652E0A003F5370656369B5
:100D400066696564205820706F736974696F6E20DE
:100D50006F7574206F662072616E67652E0A003FA2
:100D60005370656369666965642073616D706C6555
:100D70002073697A65206E6F7420706C6175736181
:100D8000626C652E0A0046756C6C20737570706F0E
:100D900072742061743A20687474703A2F2F33642F
:100DA0007072696E74626F6172642E636F6D2F660C
:100DB0006F72756D2E7068700A004D3438205A2D90
:100DC00050726F6265205265706561746162696C12
:100DD00069747920746573742E20202056657273AF
:100DE000696F6E20322E30300A003F566572626F96
:100DF0007365204C6576656C206E6F7420706C6135
:100E0000757361626C652E0A002569206D696E2C10
:100E100020256920736563004732382058302059F7
:100E20003000456E642066696C65206C69737400DF
:100E3000426567696E2066696C65206C6973740031
:100E40000A00205A3A200020593A200020583A201F
:100E500000426564000A0020616E7469686F726107
:100E600072690A3A200020686F726172690A200074
:100E70002F3800766F6C746573200020566F6C7489
:100E8000657320636172676F6C20333A20002061C4
:100E90006E7469686F726172690A3A200020686F27
:100EA000726172690A20002F3800766F6C74657366
:100EB000200020566F6C74657320636172676F6CDD
:100EC00020323A200020616E7469686F7261726925
:100ED0000A3A200020686F726172690A20002F3878
:100EE00000766F6C746573200020566F6C746573A8
:100EF00020636172676F6C20313A20000A00206421
:100F00007A333A200020647A323A200020647A3121
:100F10003A20000A00207A633A2000543000486FDB
:100F20006D6520582F59206265666F7265205A00E2
:100F30000A00207A3A200020793A200020783A20CE
:100F40000042656400486F6D6520582F5920626526
:100F5000666F7265205A00457874727564657220F8
:100F60006163746976653A20002200556E6B6E6F7E
:100F7000776E20636F6D6D616E643A202200256983
:100F800020686F757273202569206D696E757465B0
:100F90007300446F6E65207072696E74696E6720AD
:100FA00066696C65004D333300706175736520644C
:100FB00065746563746564200A00473639005072B1
:100FC000696E7465722073746F70706564206475E7
:100FD0006520746F206572726F72732E2046697877
:100FE00020746865206572726F7220616E6420756E
:100FF0007365204D39393920746F207265737461BF
:1010000072742E202854656D7065726174757265F6
:101010002069732072657365742E2053657420698E
:10102000742061667465722072657374617274698C
:101030006E6729006F6B004E6F204C696E65204E05
:10104000756D626572207769746820636865636B8B
:1010500073756D2C204C617374204C696E653A2059
:10106000004E6F20436865636B73756D20776974FC
:1010700068206C696E65206E756D6265722C204CFF
:10108000617374204C696E653A2000636865636B18
:1010900073756D206D69736D617463682C204C618C
:1010A0007374204C696E653A20004C696E65204E61
:1010B000756D626572206973206E6F74204C617368
:1010C00074204C696E65204E756D6265722B312CF3
:1010D000204C617374204C696E653A20004D3131AB
:1010E00030004D383420582059205A20450053757F
:1010F0007266696E672030200A0043616C69627213
:101100006174696F6E205375636365737366756C84
:101110002C20676F696E67206261636B20746F209B
:101120006D61696E206D656E75200A005430002572
:1011300064206974656D73002564206974656D733E
:10114000002564206974656D73002534643A252E8A
:10115000326468202F202564670025642069746547
:101160006D7300526561647920746F20496E7365F8
:1011700072742F52656D6F7665200A0074656D700C
:10118000206F6B200A002564252500253364202567
:1011900063430025336420256343002533642563BE
:1011A00043202F20253364256343002533642563C2
:1011B00043202F20253364256343002533642563B2
:1011C00043202F20253364256343002520336420EA
:1011D00025250025642068202564206D0025203306
:1011E00064202525002532642025634300253364CF
:1011F0002025634300253364202563430052656145
:10120000647920746F20496E736572742F52656D16
:101210006F7665200A0074656D70206F6B200A0080
:101220002533642025634300253364202563430070
:101230002053544F50205052494E54200A004732F8
:1012400038205830205930004D33350052657375C1
:101250006D65206465746563746564200A004737B2
:101260003000EFBFBD524553554D4521200A00EFD8
:10127000BFBD504155534521200A00253364202528
:101280006343002533642025634300253364202510
:101290006343002533642025634300253364202500
:1012A00063430025336420256343002533642025F0
:1012B00063430025336420256343002533642025E0
:1012C0006343005052494E542053455454494E47AD
:1012D00053200A00446F6E6520736176696E672043
:1012E00066696C652E006F6B004D323900546520C5
:1012F00070696C6C650073746172740030312D31EB
:101300002E322E325243002200656E717565696E71
:10131000672022002200656E717565696E67202264
:10132000002533642025634300253364202563436F
:1013300000456E74657220696E2070757267652055
:101340006D6F6465200A0053757266696E6720319F
:10135000200A0053757266696E672030200A0047C4
:10136000333400494E464F3A204245442043414CD5
:101370004942202D200053757266696E6720302027
:101380000A0047323820583020593000543000537A
:10139000757266696E672030200A00473433004753
:1013A0003433004D383400473431004D3834004771
:1013B0003430005431005430005430005431005463
:1013C000310054300054300054310047343300476A
:1013D0003433004D383400473431004D3834004741
:1013E0003430004D3834004D3834004D3834005A14
:1013F00032204F66667365743A20004F4B20736548
:10140000636F6E6420457874727564657221005A4A
:1014100020706F736974696F6E3A20005A20706F84
:10142000736974696F6E3A20004D3834005A312068
:1014300050726F6265206F66667365743A20004F64
:101440004B20666972737420457874727564657296
:1014500021200A005A20706F736974696F6E3A20F8
:10146000005A20706F736974696F6E3A200043618F
:101470006C63756C75733A20200043616C63756C06
:1014800075733A20200043616C63756C75733A2064
:10149000200043616C63756C75733A2020004361D2
:1014A0006C63756C75733A20200043616C63756CD6
:1014B00075733A20200043616C63756C75733A2034
:1014C000200043616C63756C75733A2020004361A2
:1014D0006C63756C75733A20200043616C63756CA6
:1014E00075733A20200043616C63756C75733A2004
:1014F000200043616C63756C75733A202000436172
:101500006C63756C75733A20200043616C63756C75
:1015100075733A20200043616C63756C75733A20D3
:10152000200043616C63756C75733A202000436141
:101530006C63756C75733A20200043616C63756C45
:1015400075733A20200043616C63756C75733A20A3
:10155000200043616C63756C75733A202000436111
:101560006C63756C75733A20200043616C63756C15
:1015700075733A20200043616C63756C75733A2073
:10158000200043616C63756C75733A2020004361E1
:101590006C63756C75733A20200043616C63756CE5
:1015A00075733A20200043616C63756C75733A2043
:1015B000200043616C63756C75733A2020004361B1
:1015C0006C63756C75733A20200043616C63756CB5
:1015D00075733A20200043616C63756C75733A2013
:1015E000200043616C63756C75733A202000436181
:1015F0006C63756C75733A20200043616C63756C85
:1016000075733A20200046696C616D656E742052D6
:10161000656D6F7665642C20474F494E4720544FC7
:1016200020434C45414E20544845204E4F5A5A4580
:101630004C200A0046696C616D656E7420496E73BA
:1016400065727465642F52656D6F7665642C2072C7
:10165000657475726E696E6720746F204D61696E76
:10166000204D656E75200A0054300046696C616D2E
:10167000656E7420496E7365727465642F52656D72
:101680006F7665642C20676F696E6720746F2043E6
:10169000616C6962200A0054300046696C616D65B6
:1016A0006E7420496E7365727465642F52656D6F38
:1016B0007665642C20676F696E6720746F2074688C
:1016C00065206E6578742065787472756465722023
:1016D0000A0054300043616C6962726174696F6E14
:1016E000205375636365737366756C2C20676F692F
:1016F0006E67206261636B20746F206D61696E207C
:101700006D656E75200A005430004A756D70206F4B
:101710007665722073637265773120616E64207321
:101720006372657732200A004A756D70206F7665A6
:101730007220736372657731200A00473334005496
:101740003000473334005430004733340054300005
:1017500054300047333400494E464F3A2042454406
:101760002043414C4942202D2000363020646567DB
:1017700072656573200A00496E73657274696E67DD
:10178000203A2020200A0053757266696E67203067
:10179000200A0053757266696E672030200A005374
:1017A000757266696E672030200A00253364202533
:1017B00063430025336420256343002533642025DB
:1017C000634300456E74657220696E2070757267A0
:1017D00065206D6F6465200A00253364202563430E
:1017E00000253364202563430025336420256343AB
:1017F000002533642025634300253364202563439B
:10180000002533642025634300253364202563438A
:1018100000253364202563430046696C616D656E65
:10182000742052656D6F7665642C20474F494E4792
:1018300020544F20434C45414E20544845204E4FA4
:101840005A5A454C200A0053757266696E672030FB
:10185000200A0053757266696E672030200A0054B2
:10186000300054652070696C6C65004D3334005352
:10187000757266696E672030200A004D3234004D63
:1018800032332025730053757266696E67203020ED
:101890000A002534643A252E326468202F202564FE
:1018A0006700002534643A252E326468202F2025F5
:1018B000646700002534643A252E326468202F20A6
:1018C00025646700002534643A252E326468202F91
:1018D0002025646700002534643A252E3264682090
:1018E0002F20256467000053757266696E6720308B
:1018F000200A0053554343455353200A00253364BF
:101900002025634300253364202563430025336489
:101910002025634300253364202563430025336479
:101920002025634300253364202563430025336469
:101930002025634300253364202563430025336459
:101940002025634300496E73657274696E67203A9F
:101950002020200A002533642025634300253364BA
:1019600020256343002533642025634300456E74BE
:10197000657220696E207075726765206D6F646591
:10198000200A00FF01FF0000A0400000A04000006E
:101990000040CDCC984300809343000052430000A8
:1019A00000000080934300000000CDCC98430080ED
:1019B00093430000524300000000000000000000BC
:1019C00000006563686F3A004572726F723A0020DA
:1019D000636F6C6420657874727573696F6E2070C4
:1019E000726576656E746564006563686F3A003B86
:1019F000202020506C617374696320776569676883
:101A0000743A2025642E256467003B46696C616D3D
:101A1000656E7420757365643A2025642E25646DA7
:101A20002025642E256467003B2020204275696CC8
:101A3000642074696D653A20256420686F75722092
:101A40002564206D696E757465003B202020427509
:101A5000696C642074696D653A20256420686F752F
:101A600072202564206D696E75746573003B2020BB
:101A7000204275696C642074696D653A2025642084
:101A8000686F757273202564206D696E75746500CA
:101A90003B2020204275696C642074696D653A2092
:101AA000256420686F757273202564206D696E75DA
:101AB000746573003B5072696E742074696D653A89
:101AC000202564206D696E75746573003B507269E2
:101AD0006E742074696D653A20256420686F757294
:101AE000202564206D696E75746573003B507269C2
:101AF0006E742074696D653A20256420686F757274
:101B000073202564206D696E75746573003B507297
:101B1000696E742074696D653A202564206461796A
:101B20007320256420686F7572202564206D696EAE
:101B300075746573003B5072696E742074696D65CD
:101B40003A2025642064617920256420686F7572CD
:101B5000202564206D696E75746573003B50726951
:101B60006E742074696D653A202564206461792063
:101B7000256420686F757273202564206D696E7509
:101B8000746573003B5072696E742074696D653AB8
:101B9000202564206461797320256420686F757244
:101BA00073202564206D696E75746573003B204752
:101BB0002D436F64652067656E657261746564208E
:101BC00062792053696D706C6966793344285229B3
:101BD0002056657273696F6E202564007C3C3E5E02
:101BE0002B3D3F2F5B5D3B2C2A225C00205A3A00A4
:101BF00020593A0020583A00656E6473746F707310
:101C0000206869743A200024F4D43050C38E20C276
:101C1000A24017828B7011127A910D816CD90AA89B
:101C200061E108C7586607615143061E4B5D05C157
:101C300045A7041A411104093D9803713931034045
:101C400036DB0265339102D4305402802E1D0263CC
:101C50002CEE01752AC501B028A001102781018F43
:101C60002564012B244B01E0223401AC211F018D9E
:101C7000200D01801FFC00841EED00971DDF00B8C1
:101C80001CD200E61BC600201BBC00641AB200B2C6
:101C900019A8000A19A0006A189900D117910040EC
:101CA000178B00B516840031167E00B31579003A03
:101CB000157300C7146F0058146A00EE136600888D
:101CC00013630025135E00C7125B006C12570015EA
:101CD000125400C111510070114F0021114B00D658
:101CE0001049008D1047004610440002104200C009
:101CF0000F4000800F3E00420F3C00060F3B00CB20
:101D00000E3800930E37005C0E3500270E3400F3BA
:101D10000D3200C10D3100900D3000600D2E0032EB
:101D20000D2D00050D2C00D90C2B00AE0C290085C3
:101D30000C29005C0C2700350C27000E0C2600E84F
:101D40000B2400C40B2400A00B23007D0B23005A9E
:101D50000B2100390B2100180B2000F80A1F00D9B5
:101D60000A1E00BB0A1E009D0A1D00800A1D00639A
:101D70000A1C00470A1B002C0A1B00110A1A00F754
:101D8000091A00DD091900C4091900AB09190092EC
:101D90000917007B091800630917004C0916003663
:101DA000091600200916000A091500F5081500E0BB
:101DB000081400CC081400B8081400A408140090FB
:101DC0000813007D0812006B081300580812004623
:101DD0000812003408110023081100120811000134
:101DE000081100F0071000E0071000D0071000C035
:101DF000071000B0070F00A107100091070E008325
:101E0000070F0074070F0065070E0057070E004903
:101E1000070E003B070D002E070E0020070D0013D4
:101E2000070D0006070D00F9060C00ED060D00E099
:101E3000060C00D4060C00C8060C00BC060C00B052
:101E4000060C00A4060B0099060C008D060B008200
:101E5000060B0077060B006C060B0061060A0057A4
:101E6000060B004C060A0042060A0038060A002E3D
:101E7000060A0024060A001A060A001006090007CE
:101E8000060A00FD050900F4050900EB050900E25A
:101E9000050900D9050900D0050900C7050900BEDC
:101EA000050900B5050800AD050800A50509009C59
:101EB000050800940508008C050800840508007CCE
:101EC000050800740508006C050700650508005D3D
:101ED000050700560508004E0507004705070040A6
:101EE00005080038050700310507002A050700230B
:101EF0000507001C050600160507000F050700086A
:101F000005060002050700FB040600F5040700EEC5
:101F1000040600E8040600E2040700DB040600D51E
:101F2000040600CF040600C9040600C3040600BD71
:101F3000040600B7040600B1040500AC040600A6C0
:101F4000040600A00405009B04060095040500900B
:101F50000406008A04050085040500800406007A52
:101F600004050075040500700405006B0405006697
:101F7000040500610405005C0405005704050052D7
:101F80000405004D04050048040500430405003E17
:101F90000404003A04050035040500300404002C54
:101FA00004050027040400230405001E0404001A8D
:101FB00004040016040500110404000D04040009C3
:101FC0000405000404040000040400FC030400F8F9
:101FD000030400F4030400F0030400EC030400E82D
:101FE000030400E4030400E0030400DC030400D85D
:101FF000030400D4030400D0030400CC030400C88D
:10200000030300C503030024F404D9201BC40C5CA3
:102010000E9804C4095F0265077101F405F900FB1D
:1020200004B30048048700C1036900580355000346
:10203000034500BE023A008402310053022A0029FF
:1020400002250004022000E4011C00C8011900AFB1
:102050000117009801140084011300710110006140
:1020600001100051010E0043010D0036010B002B41
:10207000010B0020010B00150109000C01090003F0
:10208000010800FB000800F3000800EB000700E473
:10209000000600DE000600D8000600D2000600CCD4
:1020A000000500C7000500C2000500BD000400B91E
:1020B000000400B5000400B1000400AD000400A954
:1020C000000400A5000300A20003009F0004009B81
:1020D00000030098000300950002009300030090A5
:1020E0000003008D0002008B0003008800020086C0
:1020F00000020084000300810002007F0002007DD6
:102100000002007B000200790002007700010076E7
:102110000002007400020072000100710002006FF2
:102120000002006D0001006C0002006A00010069FD
:102130000002006700010066000100650001006404
:102140000002006200010061000100600001005F08
:102150000002005D0001005C0001005B0001005A0C
:10216000000100590001005800010057000100560D
:10217000000100550001005400010053000000530D
:102180000001005200010051000100500001004F09
:102190000001004E0000004E0001004D0001004C07
:1021A0000001004B0000004B0001004A0001004903
:1021B00000010048000000480001004700010046FF
:1021C00000000046000100450000004500010044F9
:1021D00000010043000000430001004200000042F3
:1021E0000001004100000041000100400001003FEB
:1021F0000000003F0001003E0000003E0001003DE5
:102200000000003D0001003C0000003C0000003CDC
:102210000001003B0000003B0001003A0000003AD2
:1022200000010039000000390001003800000038CA
:1022300000000038000100370000003700010036C0
:1022400000000036000000360001003500000035B7
:1022500000000035000100340000003400000034AC
:1022600000010033000000330000003300010032A1
:102270000000003200000032000100310000003197
:10228000000000310001003000000030000000308C
:102290000001002F0000002F0000002F0000002F81
:1022A0000001002E0000002E0000002E0001002D75
:1022B0000000002D0000002D0000002D0001002C6A
:1022C0000000002C0000002C0000002C0001002B5E
:1022D0000000002B0000002B0000002B0001002A52
:1022E0000000002A0000002A0000002A0001002946
:1022F000000000290000002900000029000000293A
:10230000000100280000002800000028000000282C
:10231000000000280001002700000027000000271F
:102320000000002700000027000100260000002612
:102330000000002600000026000000260001002505
:1023400000000025000000250000002500000025F9
:1023500000000025000100240000002400000024EB
:1023600000000024000000240001002300000023DE
:1023700000000023000000230000002300000023D1
:1023800000000023000100220000002200000022C3
:1023900000000022000000220000002200010021B5
:1023A00000000021000000210000002100000021A9
:1023B000000000210000002100010020000000209A
:1023C000000000200000002000000020000000208D
:1023D00000000020000000200001001F0000001F7E
:1023E0000000001F0000001F0000001F0000001F71
:1023F0000000001F0001001E0000001E0000001E63
:102400000000001E0000006563686F3A00546865B4
:10241000726D616C2052756E617761792C207379D1
:102420007374656D2073746F7070656421204865E6
:10243000617465725F49443A20002053544F502024
:102440005052494E54200A002053544F50205052AD
:10245000494E54200A002053544F50205052494EA8
:1024600054200A004572726F72283833293A20428C
:10247000656420746865726D6973746F72206E6F25
:1024800074206465746563746564004572726F726C
:10249000283832293A205269676874207468657256
:1024A0006D6973746F72206E6F74206465746563F8
:1024B000746564004572726F72283831293A204C75
:1024C00065667420746865726D6973746F72206ECE
:1024D0006F742020646574656374656400504944BA
:1024E000204175746F74756E652066696E697368D6
:1024F00065642100504944204175746F74756E65A0
:10250000206661696C6564212074696D656F7574FE
:102510000020403A006F6B20543A006F6B20423A23
:1025200000504944204175746F74756E6520666172
:10253000696C6564212054656D7065726174757293
:102540006520746F6F206869676800204B643A20CB
:1025500000204B693A2000204B703A200020436C49
:1025600061737369632050494420002054753A20F8
:1025700000204B753A2000206D61783A2000206DD4
:10258000696E3A200020643A200020626961733A43
:102590002000504944204175746F74756E65206643
:1025A000696E69736865642120507574207468656C
:1025B000206C617374204B702C204B6920616E6419
:1025C000204B6420636F6E7374616E747320667247
:1025D0006F6D2061626F766520696E746F20436F46
:1025E0006E66696775726174696F6E2E6800504916
:1025F00044204175746F74756E65206661696C6501
:1026000064212074696D656F75740020403A006F15
:102610006B20543A006F6B20423A005049442041ED
:1026200075746F74756E65206661696C65642120D0
:1026300054656D706572617475726520746F6F207A
:102640006869676800204B643A2000204B693A2093
:1026500000204B703A200020436C61737369632043
:1026600050494420002054753A2000204B753A20F0
:1026700000206D61783A2000206D696E3A200020BC
:10268000643A200020626961733A20004572726FDB
:10269000723A0070012C0190012701B0012201C0A3
:1026A000011D01F00118011002130130020E01603A
:1026B00002090190020401C002FF000003FA004079
:1026C00003F5008003F000D003EB002004E6007067
:1026D00004E100E004DC004005D700C005D2004062
:1026E00006CD00D006C8008007C3003008BE00F049
:1026F00008B900C009B400B00AAF00B00BAA00D0FE
:102700000CA500000EA000500F9B00C010960050BA
:1027100012910000148C00C0158700B0178200B021
:10272000197D00D01B7800001E730040206E0090C1
:10273000226900F024640040275F0090295A00E0DD
:102740002B5500102E500020304B0010324600E078
:1027500033410090353C001037370070383200A00C
:10276000392D00B03A2800A03B2300603C1E001029
:102770003D1900903D1400103E0F00703E0A00C04D
:102780003E0500003F000000000A0B02090C0D0E80
:102790000807030401000000000000000000000022
:1027A0000000000000000000000000000000000029
:1027B00000000012111000000000000000000000E6
:1027C00000000000000000000000000000010210F6
:1027D000202008081020401020408002010201083B
:1027E00004020101020408102040808040201008EB
:1027F0000402018004020180402010080402010844
:1028000004020101020408102040800102040810A3
:102810002040800505050507050808080802020292
:10282000020A0A080804040404010101010101016B
:10283000010303030303030303040707070C0C0C42
:102840000C0C0C0C0C02020202060606060606061A
:10285000060B0B0B0B0B0B0B0B00002000230026B1
:102860000029002C002F00320000010000030106A7
:1028700001090100002200250028002B002E003154
:1028800000340002010000050108010B01000021D5
:1028900000240027002A002D003000330001010031
:1028A00000040107010A014E414E494E495459495D
:1028B0004E46CDCCCC3D0AD7233C17B7D13877CC88
:1028C0002B329595E6241FB14F0A000020410000ED
:1028D000C84200401C4620BCBE4CCA1B0E5AAEC5A6
:1028E0009D746364696E6F70737578585B004515ED
:1028F0002D3E1301CB00EB00290111241FBECFEFA9
:10290000D1E2DEBFCDBF00E00CBF19E0A0E0B2E035
:10291000EAE9F0E603E00BBF02C007900D92A63C87
:10292000B107D9F72CE1A6ECB9E001C01D92A9349A
:10293000B207E1F718E2C8EFD8E200E006C022973C
:102940000109FE010BBF0F9489A4CE3ED10780E0A0
:102950000807A9F70F943E9B0D943BB00C94000020
:102960008091F50990E02091F609821B9109089564
:102970002091F6098091F509281750F4E22FF0E034
:10298000E950F64F808190E02F5F2093F60908957B
:102990008FEF9FEF0895E091F6098091F509E81710
:1029A00030F4F0E0E950F64F808190E008958FEF29
:1029B0009FEF08950895CF92DF92EF92FF920F93C9
:1029C0001F93CF93DF937C01CB018A012091D20921
:1029D000222389F0EB016B01C40ED51ECC15DD0559
:1029E00061F06991D701ED91FC910190F081E02DAA
:1029F000C7011995F3CF642F4BD0C801DF91CF9158
:102A00001F910F91FF90EF90DF90CF900895CF939B
:102A1000DF931F92CDB7DEB769832091D2092223BD
:102A2000D1F02091D309203240F021E030E0FC01C8
:102A30003383228380E090E014C08091D409E82F92
:102A4000F0E0EB52F64F998190838F5F8093D40929
:102A50008093D30904C061E0CE01019619D081E0D2
:102A600090E00F90DF91CF910895FC0113821282C4
:102A700048EE53E060E070E04483558366837783DB
:102A800082E593E091838083089586EC99E0EDCF11
:102A9000613298F42091840A243089F46093390AD1
:102AA000FC018BE39AE0DC012A2F281B261718F47F
:102AB00021912D93F9CF80E0089581E0089582E07F
:102AC000089585ED8093BC008091BC0084FDFCCF0F
:102AD0001092840A089585EC8093BC001092840AB9
:102AE00008951F920F920FB60F9211240BB60F92FA
:102AF0002F933F934F935F936F937F938F939F9306
:102B0000AF93BF93EF93FF938091B900887F803696
:102B100009F49DC070F5883209F45CC090F48031EE
:102B200009F455C038F4882309F4F3C0883009F457
:102B30004EC0F2C0883109F44DC0803209F45EC045
:102B4000EBC0803409F469C050F4803309F456C0F6
:102B5000883309F0E1C08093170ABDDFDDC08035FE
:102B600009F44FC0883509F45DC0883409F0D4C039
:102B7000D2C0883909F4C3C0A8F4883709F467C003
:102B800038F4883609F463C0803709F460C0C4C0E3
:102B9000883809F4B4C0803909F45FC0803809F07E
:102BA000BBC05BC0803B09F482C038F4803A09F4B2
:102BB00066C0883A09F47BC0AFC0803C09F4A3C06A
:102BC000883C09F4A0C0883B09F486C0A5C0809168
:102BD000830A10C090915C0A80915B0A981770F587
:102BE000E0915C0A81E08E0F80935C0AF0E0E35A8A
:102BF000F54F80818093BB0085EC82C08093170ADB
:102C00008AC0E0915C0A81E08E0F80935C0A80911B
:102C1000BB00F0E0E35AF54F808390915C0A80910D
:102C20005B0A6AC0E0915C0A81E08E0F80935C0AC7
:102C30008091BB00F0E0E35AF54F80838091820AD7
:102C4000811169C081E08093810A84EA5DC083E0DC
:102C50008093840A1092180ACFCF8091180A80328C
:102C600008F04DC0E091180A81E08E0F8093180A99
:102C70008091BB00F0E0E75EF54F8083BDCF2BDF96
:102C80008091180A803230F4E091180AF0E0E75E93
:102C9000F54F10826091180A70E0E0917D0AF09182
:102CA0007E0A89E19AE019951092180A35C084E0ED
:102CB0008093840A10923A0A1092390AE0917F0AAE
:102CC000F091800A19958091390A811105C081E03F
:102CD0008093390A10923B0AE0913A0A81E08E0F04
:102CE00080933A0AF0E0E55CF54F80818093BB0069
:102CF00090913A0A8091390A981708F47DCF85E8B7
:102D00008093BC0009C085EC8093BC001092840ABB
:102D100003C01092170AD5DEFF91EF91BF91AF91DA
:102D20009F918F917F916F915F914F913F912F91E3
:102D30000F900BBE0F900FBE0F901F901895FC01C7
:102D400014821782138212828EE898E09183808326
:102D50000895DC01ED91FC910190F081E02D199432
:102D60002EE838E0FC01318320832781222319F0EB
:102D700004960D94AD670895CF92DF92EF92FF9283
:102D80000F931F93CF93DF93EC01895A9F4FD7DFA7
:102D9000CE0188589F4FD3DF7E0127E9E20EF11C58
:102DA00087016E0133E3C31A3EEFD30AC801C7DFC0
:102DB000015E1F4F0C151D05C9F7FE01E153FE4FC3
:102DC00089E1818314823596178ACE018E509E4FF9
:102DD000B6DFFE01ED55FD4F108211821282138283
:102DE000389610821182128213821A821B821C82F0
:102DF000188219826E0189E5C81A8DEFD80AF6018A
:102E00001082118212821382F80111821082FE0157
:102E1000EF5EFD4F108286E391E0F7019C01119275
:102E200021503040E1F7FE01E155FD4F81E0808304
:102E3000CB5ADF4F198218820F94019668577C4E47
:102E40008F4F9F4FF6016083718382839383DF915D
:102E5000CF911F910F91FF90EF90DF90CF90089549
:102E6000FC0120E03EE2DB014C91403241F0283091
:102E700011F430833196DB014C91408331962F5F02
:102E80006F5F7F4F2B3079F7108208952F923F921A
:102E90004F925F926F927F928F929F92AF92BF926A
:102EA000CF92DF92EF92FF920F931F93CF93DF9316
:102EB000CDB7DEB7C858D1090FB6F894DEBF0FBE44
:102EC000CDBF8C016B017A01CA57DF4F1882C658FB
:102ED000D04084E0E80EF11C180192E1290E311C6B
:102EE000F801EC5AFF4FC957DF4FF983E883C75801
:102EF000D0405801F0E5AF1AFDEFBF0A38018EE46B
:102F0000681A8DEF780A80E4482E512C4C0E5D1E15
:102F100094E0490E511CA101BE016F5F7F4FC701B4
:102F20000F94176618160CF009C12C85322F3871D2
:102F3000303109F091C0F5018081918101970297AC
:102F400008F48AC0BE016F5F7F4FCE0187589F4F44
:102F500087DFA0961FAEA097F6018081811107C080
:102F60006EE573E0CE01815A9F4F0F94B3A9B6016D
:102F7000CE01815A9F4F0F94B3A9BE0167587F4F6E
:102F8000CE01815A9F4F0F94B3A96EE573E0CE0135
:102F9000815A9F4F0F94B3A9CE01805C9F4FCFDE23
:102FA00021E0AE0147585F4FB701C2010F94A469F9
:102FB00081112EC0F50180819181892B49F5E3E8CB
:102FC000F4E064914F01662361F0772767FD709507
:102FD00089E09BE1BEDEFFEF8F1A9F0AF401649146
:102FE000F2CF60E673E089E09BE10F94889B6AE092
:102FF00070E089E09BE1ADDEBE0167587F4F89E05C
:103000009BE10F94889B6AE070E089E09BE1A1DE80
:103010008BE1FE01EC5BFF4FDE01959601900D9276
:103020008A95E1F724968EAD9FAD24979CA38BA340
:103030008EE898E09AA389A3AE014F5D5F4FBE0171
:10304000615A7F4FC80122DFCE01819689DECE0111
:10305000805C9F4F85DE5FCF8981882309F46EC035
:10306000853E09F458CF8E3209F455CF8F3509F4D7
:1030700052CFF8018289882331F08E3209F44BCF88
:103080008F3509F448CF23FD46CF81E0303109F078
:1030900080E0C957DF4FE881F981C758D04080836D
:1030A000811108C08985873409F035CF8A858E372C
:1030B00009F431CF4801F5E08F0E911CBE016F5F1E
:1030C0007F4FC401CDDEF50180819181009781F4AD
:1030D000B60189E09BE10F94889BB40189E09BE1F4
:1030E0000F94889B6AE070E089E09BE132DE13CFA9
:1030F0008130910539F4F3018081918101969183AA
:10310000808309CF029709F006CFCA57DF4FF881B5
:10311000C658D0402F2F30E0F301808191812817CD
:10312000390761F0CA57DF4FF881C658D040FF5FBA
:10313000CA57DF4FF883C658D040EDCEC857DF4F8F
:103140000FB6F894DEBF0FBECDBFDF91CF911F91B8
:103150000F91FF90EF90DF90CF90BF90AF909F9036
:103160008F907F906F905F904F903F902F90089539
:103170000F931F93CF93DF93CDB7DEB76F970FB643
:10318000F894DEBF0FBECDBF8C01FC01E055FD4FB2
:103190001182108240E050E0BA01855A9F4F0F948F
:1031A000CA66C801895A9F4F2BE1FC013496DE01A3
:1031B000159601900D922A95E1F7FC018281938189
:1031C0009C838B838EE898E09A838983AE014F5F5E
:1031D0005F4F69EB79E0C80159DECE010196C0DD91
:1031E0006F960FB6F894DEBF0FBECDBFDF91CF91C3
:1031F0001F910F9108952BE1FB013496DC01149689
:1032000001900D922A95E1F7FB0122813381FC01A7
:10321000338322830895EF92FF920F931F93CF93EE
:10322000DF93EC011C82FC01E25AFF4F808188236E
:1032300029F0CE01855A9F4F0F94AD677E0181E33F
:10324000E81A8EEFF80A45E360E0C7010F942E629A
:1032500081113AC0E3E8F4E064918F01662359F0EC
:10326000772767FD709589E09BE173DD0F5F1F4F46
:10327000F8016491F3CFE6E7F4E064918F016623EF
:1032800059F0772767FD709589E09BE162DD0F5F5C
:103290001F4FF8016491F3CF6AE070E089E09BE191
:1032A00058DD8E01095A1F4FB801CE0188589F4F33
:1032B000A2DFCA58DF4F19830883DF91CF911F9196
:1032C0000F91FF90EF9008958E010C521E4F41E038
:1032D000B701C8010F94976F81112AC040E0B70170
:1032E000C8010F94976F811123C0E9E8F4E064915D
:1032F0008F01662359F0772767FD709589E09BE180
:1033000028DD0F5F1F4FF8016491F3CFE3E6F4E08F
:1033100064918F01662309F4BFCF772767FD70950D
:1033200089E09BE116DD0F5F1F4FF8016491F2CF3A
:10333000B801CE01855A9F4F0F94BB64811123C001
:10334000E9E8F4E064918F01662359F0772767FD7F
:10335000709589E09BE1FDDC0F5F1F4FF8016491E0
:10336000F3CFE3E5F4E064918F01662309F494CF91
:10337000772767FD709589E09BE1EBDC0F5F1F4FBE
:10338000F8016491F2CF81E08C83E3E8F4E064918A
:103390008F01662359F0772767FD709589E09BE1DF
:1033A000D8DC0F5F1F4FF8016491F3CFE8E4F4E03D
:1033B00064918F01662309F46FCF772767FD7095BD
:1033C00089E09BE1C6DC0F5F1F4FF8016491F2CFEB
:1033D000FC01128214820895CF93DF93EC018C815B
:1033E0008823B9F063E773E089E09BE10F94889B41
:1033F00040917E0D50917F0D6091800D7091810DF7
:1034000022E030E089E09BE10F94729D81E08A83A5
:103410001B82DF91CF910895FC018281882319F0EE
:10342000128281E083830895AF92BF92CF92DF92A0
:10343000EF92FF920F931F93CF93DF931F92CDB71D
:10344000DEB78C018FE2FB0181935F01D12C41E05B
:103450007801F3E3EF1AFEEFFF0A9FE1C92E2D2D4D
:1034600030E0F7018081918128173907D8F4C29E96
:10347000C001C39E900D112485569F4FB501800F4A
:10348000911F49830F946264C50149815C010196D3
:10349000F5012081222321F04D3810F44F5FF6CF43
:1034A000D394DDCF47FD11C0B501C8018A509E4FAE
:1034B0000F90DF91CF911F910F91FF90EF90DF90D0
:1034C000CF90BF90AF900D946264F50110820F9081
:1034D000DF91CF911F910F91FF90EF90DF90CF90F0
:1034E000BF90AF9008953F924F925F926F927F92FC
:1034F0008F929F92AF92BF92CF92DF92EF92FF9204
:103500000F931F93CF93DF93CDB7DEB7AC970FB672
:10351000F894DEBF0FBECDBF8C016B01342EFC01D1
:103520008481882309F4D0C2E750FE4F808188232C
:1035300009F407C12111D1C07801FFEEEF1AFDEFA8
:10354000FF0AF7018081882309F432C0E9E8F4E03A
:1035500064918F01662359F0772767FD709589E0A4
:103560009BE1F7DB0F5F1F4FF8016491F3CFE5E0BC
:10357000F4E064918F01662359F0772767FD709519
:1035800089E09BE1E6DB0F5F1F4FF8016491F3CF09
:103590004AE050E061E070E089E09BE10F94379CE5
:1035A0006AE070E089E09BE1D4DB0E94D39F8CC28B
:1035B000E3E8F4E064915F01662361F0772767FD3B
:1035C000709589E09BE1C5DBFFEFAF1ABF0AF501FB
:1035D0006491F2CFECEEF3E064915F01662361F059
:1035E000772767FD709589E09BE1B3DBFFEFAF1AAA
:1035F000BF0AF5016491F2CFB60189E09BE10F9417
:10360000889BE1EEF3E064915F01662361F0772728
:1036100067FD709589E09BE19CDBFFEFAF1ABF0A65
:10362000F5016491F2CFF70180812DE8B22EB80147
:10363000B89E600D711D11246A5E7D4FC801F4DED5
:10364000F7018081B801B89E600D711D11246A5E7A
:103650007D4F89E09BE10F94889BEBEDF3E0649153
:103660005F01662361F0772767FD709589E09BE134
:1036700070DBFFEFAF1ABF0AF5016491F2CF58017A
:10368000F5E5AF1AFDEFBF0AF50140815181628176
:1036900073812AE030E089E09BE10F94649C6AE04A
:1036A00070E089E09BE155DBF7012081F80184E0BF
:1036B000289FE00DF11D1124AF014E5E5D4FF50115
:1036C00080819181A281B381FA0180839183A28359
:1036D000B3832F5FF70120832EC0E3E8F4E0649109
:1036E0007F01662361F0772767FD709589E09BE194
:1036F00030DBFFEFEF1AFF0AF7016491F2CFEAEC3B
:10370000F3E064917F01662361F0772767FD709590
:1037100089E09BE11EDBFFEFEF1AFF0AF7016491DE
:10372000F2CFB60189E09BE10F94889B6AE070E0DC
:1037300089E09BE10EDBC8018A509E4F0F94AD6774
:1037400032C0F801EF5EFD4F1082E3E8F4E06491CF
:103750007F01662361F0772767FD709589E09BE123
:10376000F8DAFFEFEF1AFF0AF7016491F2CFE9EB05
:10377000F3E064917F01662361F0772767FD709520
:1037800089E09BE1E6DAFFEFEF1AFF0AF7016491A7
:10379000F2CFB60189E09BE10F94889B6AE070E06C
:1037A00089E09BE1D6DAF8011282CE0101965C0134
:1037B000C6DA280196E7490E511CC801895A9F4F65
:1037C000F20191838083F60180818F3209F07BC002
:1037D0006FE270E0C6010F94BEA901967C01E1146E
:1037E000F10409F476C06FE270E0C7010F94BEA93E
:1037F0004C01009709F46EC0E816F90608F06AC09B
:103800003C016E187F08A301B701CE0180960F948A
:10381000E7A9E0E2F0E0EC0FFD1FE60DF71D1082D6
:10382000BE01605E7F4F89E09BE10F94889B6AE058
:1038300070E089E09BE18DDAF201608171816115B0
:10384000710519F06C5F7F4F02C060E070E021E00D
:10385000AE01405E5F4FCE0105960F94A4698111C1
:103860002AC0E5EAF3E064918F01662359F07727D7
:1038700067FD709589E09BE16CDA0F5F1F4FF801DF
:103880006491F3CFBE01605E7F4F89E09BE10F94AE
:10389000889BE3EAF3E064918F01662309F40DC18C
:1038A000772767FD709589E09BE153DA0F5F1F4F23
:1038B000F8016491F2CFF201B182A0827401FFEFAE
:1038C000EF1AFF0A8CCFC80188589F4FF2019183ED
:1038D00080837601C8018A509E4F4C01F2016081BD
:1038E0007181332009F49AC06115710519F06C5F7C
:1038F0007F4F02C060E070E021E0A701C4010F9497
:10390000A469882309F462C0F40181899289A3899A
:10391000B489F801ED55FD4F80839183A283B38371
:10392000E5E9F3E064914F01C8018D559D4F6C01AD
:10393000662361F0772767FD709589E09BE109DADE
:103940009FEF891A990AF4016491F2CFB70189E0D7
:103950009BE10F94889BEDE8F3E064917F0166237F
:1039600061F0772767FD709589E09BE1F2D9FFEF61
:10397000EF1AFF0AF7016491F2CFF60140815181FD
:10398000628173812AE030E089E09BE10F94649CBE
:103990006AE070E089E09BE1DCD9F801E555FD4F74
:1039A0001082118212821382EFE7F3E064918F019B
:1039B000662309F482C0772767FD709589E09BE153
:1039C000C8D90F5F1F4FF8016491F2CFEBE6F3E027
:1039D00064918F01662359F0772767FD709589E020
:1039E0009BE1B7D90F5F1F4FF8016491F3CFB70187
:1039F00089E09BE10F94889BE9E6F3E064918F01F5
:103A0000662309F45AC0772767FD709589E09BE12A
:103A1000A0D90F5F1F4FF8016491F2CF61157105B6
:103A200019F06C5F7F4F02C060E070E026E5A701EF
:103A3000C4010F94A469811127C0E5E5F3E0649106
:103A40008F01662359F0772767FD709589E09BE128
:103A500080D90F5F1F4FF8016491F3CFB70189E060
:103A60009BE10F94889BE3E5F3E064918F0166236B
:103A700021F1772767FD709589E09BE16AD90F5F97
:103A80001F4FF8016491F3CF81E0F8018083E1E4F6
:103A9000F3E064918F01662359F0772767FD7095F5
:103AA00089E09BE156D90F5F1F4FF8016491F3CF76
:103AB000B60189E09BE10F94889B6AE070E089E0A1
:103AC0009BE147D9C5014CD9AC960FB6F894DEBF3F
:103AD0000FBECDBFDF91CF911F910F91FF90EF905F
:103AE000DF90CF90BF90AF909F908F907F906F901E
:103AF0005F904F903F90089521E0FC01218340E0CA
:103B0000F2CC4F925F926F927F928F929F92AF9280
:103B1000BF92CF92DF92EF92FF920F931F93CF93BA
:103B2000DF93CDB7DEB7AC970FB6F894DEBF0FBE0C
:103B3000CDBF7C015B01FC018481882309F4F9C0BD
:103B4000C7018A509E4F0F94AD67F7011282CE01D4
:103B500001966C01F4D8270196E7490E511CC70164
:103B6000895A9F4FF20191838083F50180818F32C2
:103B700009F077C06FE270E0C5010F94BEA98C0117
:103B80000F5F1F4F09F473C06FE270E0C8010F941C
:103B9000BEA94C01009709F46BC00817190708F07B
:103BA00067C03C01601A710AA301B801CE0180967A
:103BB0000F94E7A9E0E2F0E0EC0FFD1FE60DF71D22
:103BC0001082BE01605E7F4F89E09BE10F94889B6D
:103BD0006AE070E089E09BE1BCD8F201608171810C
:103BE0006115710519F06C5F7F4F02C060E070E0F5
:103BF00021E0AE01405E5F4FCE0105960F94A469AF
:103C000081112AC0EDE2F3E064918F01662359F03F
:103C1000772767FD709589E09BE19BD80F5F1F4F69
:103C2000F8016491F3CFBE01605E7F4F89E09BE1B4
:103C30000F94889BEBE2F3E064918F01662309F413
:103C400071C0772767FD709589E09BE182D80F5F8F
:103C50001F4FF8016491F2CFF201D182C08284013A
:103C60008FCFC70188589F4FF201918380838501D0
:103C7000F20180819181009711F0049602C080E0EA
:103C800090E0B8010F947A6A882321F1EDE1F3E026
:103C900064915F01662361F0772767FD709589E085
:103CA0009BE157D8FFEFAF1ABF0AF5016491F2CF3D
:103CB000B80189E09BE10F94889B6AE070E089E09D
:103CC0009BE147D8F701E555FD4F10821182128222
:103CD00013822DC0E5E0F3E064917F01662361F07B
:103CE000772767FD709589E09BE133D8FFEFEF1AE6
:103CF000FF0AF7016491F2CFB80189E09BE10F94CC
:103D0000889BE3E0F3E064918F01662359F0772705
:103D100067FD709589E09BE11CD80F5F1F4FF8018C
:103D20006491F3CF6AE070E089E09BE112D8C601AC
:103D300017D8AC960FB6F894DEBF0FBECDBFDF919B
:103D4000CF911F910F91FF90EF90DF90CF90BF9098
:103D5000AF909F908F907F906F905F904F9008955D
:103D60000F931F93CF93DF93EC018C81882309F489
:103D70003EC0E1EFF2E064918F01662361F07727A6
:103D800067FD709589E09BE10E94A9160F5F1F4FA8
:103D9000F8016491F2CFFE01E555FD4F408151815C
:103DA000628173812AE030E089E09BE10F94649C9A
:103DB000EFEEF2E064918F01662361F0772767FDF3
:103DC000709589E09BE10E94A9160F5F1F4FF801D3
:103DD0006491F2CFCD55DD4F488159816A817B8155
:103DE0002AE030E089E09BE10F94649C11C0EFED84
:103DF000F2E06491EF01662359F0772767FD709533
:103E000089E09BE10E94A9162196FE016491F3CFFF
:103E10006AE070E089E09BE1DF91CF911F910F9103
:103E20000C94A916AF92BF92CF92DF92EF92FF92BD
:103E30000F931F93CF93DF935C01EB01FB01019084
:103E40000020E9F78F0101501109061B170B6C01C7
:103E5000FAE0CF1AFEEFDF0AF60110826EE470E09E
:103E6000CE010F94BEA97C01009729F4F801319787
:103E7000EC0FFD1F0DC060E270E00F94BEA9EC01D5
:103E800021966AE270E0C7010F94BEA9FC01319748
:103E90008DE081838AE082831382BE01C5018E504A
:103EA0009E4F0F94406CF6018081882391F1E9E8E0
:103EB000F4E06491EF01662359F0772767FD709570
:103EC00089E09BE10E94A9162196FE016491F3CF3F
:103ED000E9ECF2E06491EF01662359F0772767FD82
:103EE000709589E09BE10E94A9162196FE016491DC
:103EF000F3CF6AE070E089E09BE1DF91CF911F9101
:103F00000F91FF90EF90DF90CF90BF90AF900C9407
:103F1000A916DF91CF911F910F91FF90EF90DF9045
:103F2000CF90BF90AF9008952F923F924F925F92A3
:103F30006F927F928F929F92AF92BF92CF92DF92B9
:103F4000EF92FF920F931F93CF93DF93CDB7DEB71E
:103F5000CC55D1090FB6F894DEBF0FBECDBF4C01D2
:103F60008C0101551D4F662339F0F8011082F401D0
:103F7000848181111DC015C0F8018081882309F456
:103F8000AFC0F401E955FD4FC080D180E280F380DD
:103F90000F940196C616D706E806F90608F4A0C0E5
:103FA000E4CFC40138D9F4018481882309F498C08E
:103FB0007401F5E5EF0EF11CF70181818F9380818B
:103FC0008F9380EC92E09F938F938E01015C1F4F43
:103FD0001F930F930F9424AA0F900F900F900F90A0
:103FE0000F900F90B12CF80101900020E9F7319764
:103FF000E01BF10BBE1684F46801CB0CD11CB7FC9E
:10400000DA94F6018081992787FD90950F945CA939
:10401000F6018083B394E7CFFBE58F0E911C40E05F
:1040200050E0BA01C4010F94CA66512CCE0101962A
:104030006C0139EB632E32E0732E5E0191E2A90E22
:10404000B11C40E050E0B601C4010F941766181689
:10405000DCF5412CF60101900020E9F73197EC19CD
:10406000FD094E1674F41601240C311C47FC3A94D9
:10407000F101808190E00F945CA9F1018083439469
:10408000E9CF8A858E37E9F245E050E0B801C601F4
:104090000F94D9A9892BA9F61F930F937F926F9242
:1040A000BF92AF920F9424AAC5010E944F4985EB9D
:1040B00092E00E94CB490F900F900F900F900F90BD
:1040C0000F9055245394BDCF511004C08FEF9FEF34
:1040D000F70104C0F701808191810196918380836B
:1040E000C45ADF4F0FB6F894DEBF0FBECDBFDF91CD
:1040F000CF911F910F91FF90EF90DF90CF90BF90E5
:10410000AF909F908F907F906F905F904F903F9077
:104110002F900895EF92FF920F931F93CF93DF9309
:104120001F92CDB7DEB78C017C018AE0E81A8EEFD2
:10413000F80AC70169830F946367C7010F94AD67DD
:10414000F801108211826981662309F4EFC0809121
:10415000AD0D9091AE0DA091AF0DB091B00D8093CB
:104160003D0E90933E0EA0933F0EB093400E809173
:10417000B10D9091B20DA091B30DB091B40D80939B
:10418000390E90933A0EA0933B0EB0933C0E809163
:10419000B50D9091B60DA091B70DB091B80D80936B
:1041A000350E9093360EA093370EB093380E809153
:1041B000130D90E09093340E8093330E4091B90D1F
:1041C0005091BA0D6091BB0D7091BC0D40932F0EB4
:1041D0005093300E6093310E7093320EF70180854C
:1041E0009185A285B38580932B0E90932C0EA0937E
:1041F0002D0EB0932E0E8091E31A9091E41A9093B5
:10420000280E8093270E8091E51A9091E61A9093DC
:104210002A0E8093290E8091E11A9091E21A9093D0
:10422000260E8093250E80915C0290915D02909302
:10423000220E8093210E8091110D9091120D90937A
:10424000240E8093230E8091F70D80930C0E8091A5
:10425000F80D9091F90D90930E0E80930D0E8091B4
:10426000FA0D9091FB0D9093100E80930F0E80919C
:10427000FC0D9091FD0D9093120E8093110E809184
:10428000FE0D9091FF0D9093140E8093130E80916C
:10429000000E9091010E9093160E8093150E809152
:1042A000020E9091030E9093180E8093170E80913A
:1042B000040E9091050E90931A0E8093190E809122
:1042C000060E9091070E90931C0E80931B0E80910A
:1042D000080E9091090E90931E0E80931D0E8091F2
:1042E0000A0E90910B0E9093200E80931F0EE9EA18
:1042F000F2E064918F01662361F0772767FD709586
:1043000089E09BE10E94A9160F5F1F4FF80164919D
:10431000F2CF6AE070E089E09BE10F90DF91CF91EE
:104320001F910F91FF90EF900C94A9160F90DF91C1
:10433000CF911F910F91FF90EF900895EF92FF9210
:104340000F931F93CF93DF93CDB7DEB76F970FB661
:10435000F894DEBF0FBECDBF8C017C0186E7E80E6E
:10436000F11CC80188589F4FF70191838083E65C58
:10437000FD4F22E030E031832083329670E071837C
:10438000608340E050E0BA0104960F94CA66F701DA
:10439000808191812BE1FC013496DE01159601901C
:1043A0000D922A95E1F7FC01828193819C838B8396
:1043B0008EE898E09A838983AE014F5F5F4F69EB87
:1043C00079E0C8010E944617CE0101960E94B016FE
:1043D0006F960FB6F894DEBF0FBECDBFDF91CF91C1
:1043E0001F910F91FF90EF900895CF92DF92EF927F
:1043F000FF920F931F93CF93DF93CDB7DEB76F97E5
:104400000FB6F894DEBF0FBECDBF8C016C0126E75E
:10441000C20ED11C88589F4FF60191838083E65CC1
:10442000FD4F21E030E0318320837801FEE4EF1A74
:10443000FDEFFF0AF7011182108240E050E0BA015F
:1044400004960F94CA66F601808191812BE1FC01EC
:104450003496DE01159601900D922A95E1F7FC0144
:10446000828193819C838B838EE898E09A838983F1
:10447000AE014F5F5F4F69EB79E0C8010E944617BC
:10448000CE0101960E94B016F701808191816F964E
:104490000FB6F894DEBF0FBECDBFDF91CF911F9155
:1044A0000F91FF90EF90DF90CF900895AF92BF9261
:1044B000CF92DF92EF92FF920F931F93CF93DF93F0
:1044C000CDB7DEB76F970FB6F894DEBF0FBECDBF86
:1044D0008C017B01CE0101960E949F16F801E158E4
:1044E000FF4F80816801811104C027E5C20ED11CF5
:1044F00003C088E7C80ED11C21E0A701B6016C5F9C
:104500007F4FCE0105960F94A469811136C0E3E870
:10451000F4E064918F01662361F0772767FD709561
:1045200089E09BE10E94A9160F5F1F4FF80164917B
:10453000F2CFE3E9F2E064918F01662361F077271F
:1045400067FD709589E09BE10E94A9160F5F1F4FE0
:10455000F8016491F2CFB70189E09BE10F94889B49
:104560006AE070E089E09BE10E94A916CE01019605
:104570000E94B0168FEF9FEF3AC0F801E353FE4F51
:10458000808191818A30910530F59C012F5F3F4FEA
:10459000318320832FE1289F7001299FF00C112483
:1045A000F7E9EF0EF11CE00EF11E5C01B701C70147
:1045B0004F960E94FB1821E0A21AB1088FE1E81A79
:1045C000F108EFEFAE16BE0689F7B601C8018956AD
:1045D0009F4F0E94FB18BE016F5F7F4FC801885834
:1045E0009F4F0E94FB18CE0101960E94B0166F9655
:1045F0000FB6F894DEBF0FBECDBFDF91CF911F91F4
:104600000F91FF90EF90DF90CF90BF90AF90089503
:10461000EF92FF920F931F93CF93DF93EC01C3535D
:10462000DE4F288139812115310529F121503109C9
:10463000398328838C0109561F4FB80188589F4F32
:104640000E94FB18C80100E010E0288139817C013C
:104650004FE1E40EF11C0217130738F40F5F1F4FF0
:10466000B7010E94FB18C701F0CF81E090E0232B37
:1046700021F080E002C08FEF9FEFDF91CF911F917B
:104680000F91FF90EF9008958F929F92AF92BF92FB
:10469000CF92DF92EF92FF920F931F93CF93DF930E
:1046A000EC011092C50D8091420D9091430D019641
:1046B0009093430D8093420DD0D28EE892E00E94F9
:1046C000CB490F9415797E018FEEE81A8DEFF80A29
:1046D000F70180818E010A501E4F8823D9F1C8014D
:1046E0000F94AD67F701808181508083BE01FDE8A2
:1046F0008F9F600D711D11246A5E7D4F21E041E0A6
:10470000CE010E94731AF7018081FE0194E0899F17
:10471000E00DF11D1124EE5EFD4F4081518162815B
:104720007381FE01E555FD4F40835183628373839E
:10473000C8010F94CA66CE01DF91CF911F910F91EE
:10474000FF90EF90DF90CF90BF90AF909F908F90B1
:104750000C94EC190F94A679C8010F94AD671A82D6
:1047600020E030E045E050E06AE070E08BE791E166
:104770000E94133B8BE892E00E94CB490F9415797D
:1047800086E892E00E94CB491092E41A1092E31A54
:104790001092E61A1092E51A1092E21A1092E11A9B
:1047A0001092600E10925F0E10925E0E6091480D96
:1047B0007091490D80914A0D90914B0D2CE330E0A2
:1047C00040E050E00F9474A33093450D2093440DC6
:1047D0007093470D6093460DC0909417D090951735
:1047E000E0909617F09097172091340D3091350D89
:1047F0004091360D5091370D6091380D7091390D03
:1048000080913A0D90913B0D0F94CB9F4B015C0131
:104810002091D8173091D9174091DA175091DB17B2
:104820006091DC177091DD178091DE179091DF1792
:104830000F940CA0A70196010F94F89E9B01AC0168
:10484000C501B4010F94189E0F94609F2093340DFE
:104850003093350D4093360D5093370D6093380DDE
:104860007093390D80933A0D90933B0D20912C0D50
:1048700030912D0D40912E0D50912F0D6091300DE6
:104880007091310D8091320D9091330D0F94CB9F2B
:104890004B015C012091D0173091D1174091D21774
:1048A0005091D3176091D4177091D5178091D61776
:1048B0009091D7170F940CA0A70196010F94F89E22
:1048C0009B01AC01C501B4010F94189E0F94609F29
:1048D00020932C0D30932D0D40932E0D50932F0DC2
:1048E0006093300D7093310D8093320D9093330DA2
:1048F0002091240D3091250D4091260D5091270DCA
:104900006091280D7091290D80912A0D90912B0DA9
:104910000F94CB9F6B017C012091C8173091C91770
:104920004091CA175091CB176091CC177091CD1759
:104930008091CE179091CF170F940CA020919817CB
:104940003091991740919A1750919B170F94F89EA8
:104950009B01AC01C701B6010F94189E0F94609F94
:104960002093240D3093250D4093260D5093270D51
:104970006093280D7093290D80932A0D90932B0D31
:10498000C090A017D090A117E090A217F090A317A5
:1049900020911C0D30911D0D40911E0D50911F0D49
:1049A0006091200D7091210D8091220D9091230D29
:1049B0000F94CB9F4B015C012091C0173091C11720
:1049C0004091C2175091C3176091C4177091C517D9
:1049D0008091C6179091C7170F940CA0A70196015C
:1049E0000F94F89E9B01AC01C501B4010F94189E71
:1049F0000F94609F20931C0D30931D0D40931E0D4E
:104A000050931F0D6093200D7093210D8093220D04
:104A10009093230D2091140D3091150D4091160D9A
:104A20005091170D6091180D7091190D80911A0D0C
:104A300090911B0D0F94CB9F4B015C012091B817F7
:104A40003091B9174091BA175091BB176091BC17BC
:104A50007091BD178091BE179091BF170F940CA055
:104A6000A70196010F94F89E9B01AC01C501B4010A
:104A70000F94189E0F94609F2093140D3093150D82
:104A80004093160D5093170D6093180D7093190DE8
:104A900080931A0D90931B0D1092D8171092D9176E
:104AA0001092DA171092DB171092DC171092DD17B4
:104AB0001092DE171092DF171092D0171092D117B4
:104AC0001092D2171092D3171092D4171092D517B4
:104AD0001092D6171092D7171092C8171092C917B4
:104AE0001092CA171092CB171092CC171092CD17B4
:104AF0001092CE171092CF171092C0171092C117B4
:104B00001092C2171092C3171092C4171092C517B3
:104B10001092C6171092C7171092B8171092B917B3
:104B20001092BA171092BB171092BC171092BD17B3
:104B30001092BE171092BF1790D08AE792E00E94A1
:104B4000CB4980912F178823F9F010922F17C0912D
:104B5000130DD0E0CC0FDD1FCD51D54E688179818A
:104B6000882777FD8095982F0F94D19F2091B202CE
:104B70003091B3024091B4025091B5020F9480A1DC
:104B8000181614F419821882DF91CF911F910F919A
:104B9000FF90EF90DF90CF90BF90AF909F908F905D
:104BA00008958D559D4FFC016081718182819381B3
:104BB000089585559D4FFC016081718182819381AB
:104BC0000895EF92FF920F931F93CF93DF931F925D
:104BD000CDB7DEB78C017B01460FF70161917F01F4
:104BE000F8018081918149830F9422AFF80180817F
:104BF000918101969183808349814E11EECF0F9070
:104C0000DF91CF911F910F91FF90EF900895EF9258
:104C1000FF920F931F93CF93DF931F92CDB7DEB711
:104C20008C017B01460FF8018081918149830F94AB
:104C30001AAFF70181937F01F8018081918101967C
:104C40009183808349814E11EECF0F90DF91CF91F8
:104C50001F910F91FF90EF9008950F931F93CF93A3
:104C6000DF93CDB7DEB768970FB6F894DEBF0FBEFF
:104C7000CDBF80E390E3A0E3B0E08D839E83AF835C
:104C8000B88704E610E0188F0F8B44E0BE016B5F1D
:104C90007F4FCE01479695DF40E164E977E1CE0191
:104CA00047968FDF40E164EA77E1CE01479689DFDE
:104CB00040E164E877E1CE01479683DF44E06CE7AA
:104CC00077E1CE0147967DDF44E064E777E1CE01EE
:104CD000479677DF44E060E877E1CE01479671DFE1
:104CE00044E064E677E1CE0147966BDF44E064EB95
:104CF00077E1CE01479665DF44E060E777E1CE01DA
:104D000047965FDF44E06CE677E1CE01479659DFD6
:104D100044E068E677E1CE01479653DF4CE061E975
:104D20007DE0CE0147964DDF87ED90E09E8B8D8B29
:104D30008DE290E09C8B8B8B1A8A198A80EF90E031
:104D4000988B8F8786E490E09E878D871C861B86D4
:104D500042E0BE016B5E7F4FCE01479632DF42E0FC
:104D6000BE016D5E7F4FCE0147962BDF42E0BE0154
:104D70006F5E7F4FCE01479624DF42E0BE01615F48
:104D80007F4FCE0147961DDF42E0BE01635F7F4F3C
:104D9000CE01479616DF42E0BE01655F7F4FCE0130
:104DA00047960FDF44E06EE77DE0CE01479609DFCE
:104DB00044E06BE272E0CE01479603DF44E063E338
:104DC00072E0CE014796FDDE44E06BE372E0CE0177
:104DD0004796F7DE42E060EF7DE0CE014796F1DED8
:104DE00042E064EF7DE0CE014796EBDE42E062EF09
:104DF0007DE0CE014796E5DE42E06EEE7DE0CE013D
:104E00004796DFDE42E060EE7DE0CE014796D9DED8
:104E100042E064EE7DE0CE014796D3DE42E062EEF2
:104E20007DE0CE014796CDDE42E06EED7DE0CE0125
:104E30004796C7DE42E068EE7DE0CE014796C1DED0
:104E400042E06CEE7DE0CE014796BBDE42E06AEECA
:104E50007DE0CE014796B5DE42E066EE7DE0CE0114
:104E60004796AFDE42E068ED7DE0CE014796A9DED1
:104E700042E06CED7DE0CE014796A3DE42E06AEDB4
:104E80007DE0CE0147969DDE42E066ED7DE0CE01FD
:104E9000479697DE44E061E173E0CE01479691DEEC
:104EA00044E069E073E0CE0147968BDE44E061E0C8
:104EB00073E0CE01479685DE44E065E173E0CE0104
:104EC00047967FDE44E06DE073E0CE01479679DEE1
:104ED00044E065E073E0CE01479673DE42E06EE4A5
:104EE0007DE0CE0147966DDE42E062E47DE0CE01DA
:104EF000479667DE42E060E47DE0CE01479661DEE2
:104F000042E06EE37DE0CE0147965BDE42E06CE47A
:104F10007DE0CE01479655DE42E06CE37DE0CE01B8
:104F200047964FDE80E290E09A87898742E0BE0193
:104F3000675F7F4FCE01479644DE42E068E67EE041
:104F4000CE0147963EDE44E064E67EE0CE01479621
:104F500038DE42E062E67EE0CE01479632DE42E095
:104F600066E47DE0CE0147962CDE42E064E47DE01D
:104F7000CE01479626DE48E064E37DE0CE01479609
:104F800020DE48E06CE27DE0CE0147961ADE48E084
:104F900064E27DE0CE01479614DE48E06CE17DE0FE
:104FA000CE0147960EDE48E064E17DE0CE014796F3
:104FB00008DE42E06EE672E0CE01479602DE42E095
:104FC00060E772E0CE014796FCDD44E06DE37EE0F1
:104FD000CE014796F6DD44E069E37EE0CE014796D8
:104FE000F0DD44E065E37EE0CE014796EADD42E095
:104FF00063E37EE0CE014796E4DD44E06FE27EE0CD
:10500000CE014796DEDD44E06BE27EE0CE014796BE
:10501000D8DD42E069E27EE0CE014796D2DD42E093
:1050200067E27EE0CE014796CCDD42E065E27EE0BD
:10503000CE014796C6DD42E063E27EE0CE014796B0
:10504000C0DD42E061E27EE0CE014796BADD41E09C
:105050006CE07EE0CE014796B4DD42E06DE07EE09C
:10506000CE014796AEDD42E06FE07EE0CE0147968E
:10507000A8DD42E061E17EE0CE014796A2DD42E09C
:1050800063E17EE0CE0147969CDD42E065E17EE093
:10509000CE01479696DD42E067E17EE0CE0147967D
:1050A00090DD42E069E17EE0CE0147968ADD42E094
:1050B0006BE17EE0CE01479684DD42E06DE17EE06B
:1050C000CE0147967EDD42E06FE17EE0CE0147965D
:1050D00078DD44E068E777E1CE01479672DD86E54A
:1050E00091E3A2E3B0E089839A83AB83BC83188FFA
:1050F0000F8B44E0BE016F5F7F4FCE01479661DDAD
:10510000EFEAFAE064918F01662361F0772767FD8B
:10511000709589E09BE10E94A9160F5F1F4FF8016F
:105120006491F2CFEFE9FAE064918F01662361F0B8
:10513000772767FD709589E09BE10E94A9160F5FB4
:105140001F4FF8016491F2CF6AE070E089E09BE1C3
:105150000E94A91668960FB6F894DEBF0FBECDBFA9
:10516000DF91CF911F910F9108950F931F93CF93CC
:10517000DF93CFEADAE0FE0164918E01662361F0ED
:10518000772767FD709589E09BE10E94A9160F5F64
:105190001F4FF8016491F2CFEFE8FAE064918F01BC
:1051A000662361F0772767FD709589E09BE10E9497
:1051B000A9160F5F1F4FF8016491F2CF6AE070E00B
:1051C00089E09BE10E94A916FE0164910FEA1AE0B2
:1051D000662361F0772767FD709589E09BE10E9467
:1051E000A9160F5F1F4FF8016491F2CF40919417F9
:1051F00050919517609196177091971787E89AE0EC
:105200000E94E348409198175091991760919A171E
:1052100070919B1784E89AE00E94E34840919C17A4
:1052200050919D1760919E1770919F1781E89AE0A9
:105230000E94E3484091A0175091A1176091A217D6
:105240007091A3178EE79AE00E94E34869EB79E03A
:1052500089E09BE10F94889B6AE070E089E09BE124
:105260000E94A916FE0164910FEA1AE0662361F01C
:10527000772767FD709589E09BE10E94A9160F5F73
:105280001F4FF8016491F2CFE4E6FAE064918F01D8
:10529000662361F0772767FD709589E09BE10E94A6
:1052A000A9160F5F1F4FF8016491F2CF6AE070E01A
:1052B00089E09BE10E94A916FE0164910FEA1AE0C1
:1052C000662361F0772767FD709589E09BE10E9476
:1052D000A9160F5F1F4FF8016491F2CF4091A417F8
:1052E0005091A5176091A6177091A7178BE59AE0CA
:1052F0000E94E3484091A8175091A9176091AA17FE
:105300007091AB1788E59AE00E94E3484091AC1792
:105310005091AD176091AE177091AF1785E59AE087
:105320000E94E3484091B0175091B1176091B217B5
:105330007091B31782E59AE00E94E34869EB79E047
:1053400089E09BE10F94889B6AE070E089E09BE133
:105350000E94A916FE0164910FEA1AE0662361F02B
:10536000772767FD709589E09BE10E94A9160F5F82
:105370001F4FF8016491F2CFE4E3FAE064918F01EA
:10538000662361F0772767FD709589E09BE10E94B5
:10539000A9160F5F1F4FF8016491F2CF6AE070E029
:1053A00089E09BE10E94A916FE0164910FEA1AE0D0
:1053B000662361F0772767FD709589E09BE10E9485
:1053C000A9160F5F1F4FF8016491F2CF4091841727
:1053D0005091851760918617709187178BE29AE03C
:1053E0000E942B49409188175091891760918A1724
:1053F00070918B1788E29AE00E942B4940918C179C
:1054000050918D1760918E1770918F1785E29AE0F9
:105410000E942B49409190175091911760919217DB
:105420007091931782E29AE00E942B4969EB79E030
:1054300089E09BE10F94889B6AE070E089E09BE142
:105440000E94A916FE0164910FEA1AE0662361F03A
:10545000772767FD709589E09BE10E94A9160F5F91
:105460001F4FF8016491F2CFEDEEF9E064918F01E6
:10547000662361F0772767FD709589E09BE10E94C4
:10548000A9160F5F1F4FF8016491F2CF6AE070E038
:1054900089E09BE10E94A916FE0164910FEA1AE0DF
:1054A000662361F0772767FD709589E09BE10E9494
:1054B000A9160F5F1F4FF8016491F2CF40917C173E
:1054C00050917D1760917E1770917F1784EE99E05F
:1054D0000E94E348409174175091751760917617B8
:1054E0007091771781EE99E00E94E34869EB79E0CB
:1054F00089E09BE10F94889B6AE070E089E09BE182
:105500000E94A916FE0164910FEA1AE0662361F079
:10551000772767FD709589E09BE10E94A9160F5FD0
:105520001F4FF8016491F2CFEEE2F9E064918F0130
:10553000662361F0772767FD709589E09BE10E9403
:10554000A9160F5F1F4FF8016491F2CF6AE070E077
:1055500089E09BE10E94A916FE0164910FEA1AE01E
:10556000662361F0772767FD709589E09BE10E94D3
:10557000A9160F5F1F4FF8016491F2CF4091801779
:1055800050918117609182177091831785E299E09D
:105590000E94E34840916417509165176091661727
:1055A0007091671782E299E00E94E3484091B41736
:1055B0005091B5176091B6177091B7178FE199E0C8
:1055C0000E942B494091701750917117609172178A
:1055D000709173178CE199E00E94E34840916C1739
:1055E00050916D1760916E1770916F1789E199E076
:1055F0000E94E348409168175091691760916A17BB
:1056000070916B1786E199E00E94E34869EB79E0BD
:1056100089E09BE10F94889B6AE070E089E09BE160
:105620000E94A916FE0164910FEA1AE0662361F058
:10563000772767FD709589E09BE10E94A9160F5FAF
:105640001F4FF8016491F2CFE4E0F9E064918F011B
:10565000662361F0772767FD709589E09BE10E94E2
:10566000A9160F5F1F4FF8016491F2CF6AE070E056
:1056700089E09BE10E94A916FE0164910FEA1AE0FD
:10568000662361F0772767FD709589E09BE10E94B2
:10569000A9160F5F1F4FF8016491F2CF4091910D51
:1056A0005091920D6091930D7091940D8BEF98E055
:1056B0000E94E3484091950D5091960D6091970D91
:1056C0007091980D88EF98E00E94E3484091990D01
:1056D00050919A0D60919B0D70919C0D85EF98E013
:1056E0000E94E34869EB79E089E09BE10F94889B95
:1056F0006AE070E089E09BE10E94A916FE016491D6
:105700000FEA1AE0662361F0772767FD709589E05C
:105710009BE10E94A9160F5F1F4FF8016491F2CF21
:10572000E7EEF8E064918F01662361F0772767FD6B
:10573000709589E09BE10E94A9160F5F1F4FF80149
:105740006491F2CF6AE070E089E09BE10E94A916C3
:10575000FE0164910FEA1AE0662361F0772767FD86
:10576000709589E09BE10E94A9160F5F1F4FF80119
:105770006491F2CF40911103509112036091130391
:10578000709114038AED98E00E94E3486091090348
:1057900070910A0380910B0390910C030F946B900E
:1057A000AB01BC0187ED98E00E94E34860910103E2
:1057B0007091020380910303909104030F947790FA
:1057C000AB01BC0184ED98E00E94E34840911503D1
:1057D00050911603609117037091180384EC98E0C0
:1057E0000E94E34860910D0370910E0380910F03B6
:1057F000909110030F946B90AB01BC0181EC98E089
:105800000E94E348609105037091060380910703AD
:10581000909108030F947790AB01BC018EEB98E058
:105820000E94E34869EB79E089E09BE10F94889B53
:105830006AE070E089E09BE10E94A916FE01649194
:105840000FEA1AE0662361F0772767FD709589E01B
:105850009BE10E94A9160F5F1F4FF8016491F2CFE0
:10586000E0EBF8E064918F01662361F0772767FD34
:10587000709589E09BE10E94A9160F5F1F4FF80108
:105880006491F2CF6AE070E089E09BE10E94A91682
:10589000FE0164910FEA1AE0662361F0772767FD45
:1058A000709589E09BE10E94A9160F5F1F4FF801D8
:1058B0006491F2CF40912B0250912C0260912D0205
:1058C00070912E028CEA98E00E94E34840913302E6
:1058D00050913402609135027091360288EA98E066
:1058E0000E94E34840913B0250913C0260913D028E
:1058F00070913E0284EA98E00E94E34840917E0D58
:1059000050917F0D6091800D7091810D8BE998E031
:105910000E94E34869EB79E089E09BE10F94889B62
:105920006AE070E089E09BE10E94A916FE016491A3
:105930000FEA1AE0662361F0772767FD709589E02A
:105940009BE10E94A9160F5F1F4FF8016491F2CFEF
:10595000E1E9F8E064918F01662361F0772767FD44
:10596000709589E09BE10E94A9160F5F1F4FF80117
:105970006491F2CF6AE070E089E09BE10E94A91691
:10598000FE0164910FEA1AE0662361F0772767FD54
:10599000709589E09BE10E94A9160F5F1F4FF801E7
:1059A0006491F2CF4091F40D5091F50D662757FDAB
:1059B0006095762F85E898E00E942B494091F20D82
:1059C0005091F30D662757FD6095762F86E798E096
:1059D0000E942B494091EE0D5091EF0D662757FD27
:1059E0006095762F8AE698E00E942B494091F00D51
:1059F0005091F10D662757FD6095762F8CE598E064
:105A00000E942B496CE773E089E09BE10F94889B2F
:105A10006AE070E089E09BE10E94A916FE016491B2
:105A20000FEA1AE0662361F0772767FD709589E039
:105A30009BE10E94A9160F5F1F4FF8016491F2CFFE
:105A4000E2E5F8E064918F01662361F0772767FD56
:105A5000709589E09BE10E94A9160F5F1F4FF80126
:105A60006491F2CF6AE070E089E09BE10E94A916A0
:105A7000FE0164910FEA1AE0662361F0772767FD63
:105A8000709589E09BE10E94A9160F5F1F4FF801F6
:105A90006491F2CF4091EC0D5091ED0D662757FDCA
:105AA0006095762F86E498E00E942B494091EA0D9C
:105AB0005091EB0D662757FD6095762F87E398E0B0
:105AC0000E942B494091E60D5091E70D662757FD46
:105AD0006095762F8BE298E00E942B494091E80D6B
