:100000000C9476140C94A7140C94A7140C94A714B5
:100010000C94A7140C94A7140C94A7140C94A71474
:100020000C94A7140C94A7140C94A7140C94A71464
:100030000C94A7140C94A7140C94A7140C94A71454
:100040000C94A7140D94826E0C94A7140C94A7140E
:100050000C94A7140C94A7140D94788B0D943D92D6
:100060000C94A7140D946D960D94A3960C94A7145C
:100070000C94A7140C94A7140C94A7140C94A71414
:100080000C94A7140C94A7140C94A7140C94A71404
:100090000C94A7140C94A7140C94A7140C946A1530
:1000A0000C94A7140C94A7140C94A7140C94A714E4
:1000B0000C94A7140C94A7140C94A7140C94A714D4
:1000C0000C94A7140C94A7140C94A7140D941897CF
:1000D0000D944E970C94A7140C94A7140C94A71489
:1000E0000C94A714250123010901F700E900EF0092
:1000F0003B01F5002B011B01E700CF00E3002901C4
:10010000CD00F10031010D013901D90035012F0178
:10011000DF000101D100310121010B011D0111019D
:10012000C700D5002D01ED00E100FB0017012701FC
:100130001F013701FF00D700DB00E1000501F300DC
:100140001501084AD73B3BCE016E84BCBFFDC12FD1
:100150003D6C74319ABD56833DDA3D00C77F11BEB8
:10016000D9E4BB4C3E916BAAAABE000000803F05BB
:10017000A84CCDB2D44EB93836A9020C50B99186EC
:1001800088083CA6AAAA2ABE000000803F000D9461
:100190002F940D9477970D94D5960D9487930D9485
:1001A00073930D94E2930D9430690D941E940D9405
:1001B0004F940D94AB930D9453940D94CC960D9451
:1001C000C9930D9466940D9478930D94FD940D94B9
:1001D000858C0D94508C0D9480970D9428940D94DB
:1001E0005D8C0D9491930D945D940D94798C0D9488
:1001F000368C0D94D0970D9433940D9440320D9419
:100200004B940D94D8930D9486950D9459940D9418
:10021000A7950D94298C0D94F6930D949B930D94B2
:1002200016950D942C940D942A950D9461940D942B
:1002300037940D9428320D947D8C0D9400940D9478
:1002400041940D94EC930D940D8C0D94008C0D94B1
:100250003D940D947D930D947B8C0D9422940D947C
:10026000BF930D940A940D9408950D94B5930D9435
:1002700045940D94A3930D94778C4D3834205820D9
:1002800059205A2045004D313037005430004D314F
:1002900030370043616E6E6F7420656E7465722036
:1002A0007375626469723A20005341564544205088
:1002B00052494E54004D3234004D323320257300E4
:1002C0006175746F25692E67006572726F72207791
:1002D000726974696E6720746F2066696C65004E80
:1002E0006F74205344207072696E74696E67002FBA
:1002F000005344207072696E74696E67206279746D
:100300006520002E0044656C6574696F6E2066611F
:10031000696C65642C2046696C653A200046696CFE
:10032000652064656C657465643A002E006F7065C5
:100330006E206661696C65642C2046696C653A20A4
:100340000057726974696E6720746F2066696C6506
:100350003A20002E006F70656E206661696C6564DE
:100360002C2046696C653A20002E006F70656E2067
:100370006661696C65642C2046696C653A200046AC
:10038000696C652073656C656374656400205369EE
:100390007A653A200046696C65206F70656E656409
:1003A0003A20002E006F70656E206661696C65648E
:1003B0002C2046696C653A20004E6F772066726586
:1003C00073682066696C653A20004E6F7720646F11
:1003D000696E672066696C653A20002220706F7331
:1003E000002220706172656E743A220053554252A9
:1003F0004F5554494E452043414C4C20746172671F
:1004000065743A2200747279696E6720746F206394
:10041000616C6C207375622D67636F64652066691B
:100420006C6573207769746820746F6F206D616EDE
:1004300079206C6576656C732E204D4158206C6573
:1004400076656C2069733A005344206361726420BE
:100450006F6B006F70656E526F6F74206661696CB0
:10046000656400766F6C756D652E696E69742066C3
:1004700061696C656400534420696E69742066612B
:10048000696C006563686F3A004572726F723A007A
:10049000535543434553530056616C756573206F44
:1004A0007574206F662072616E67650056616C75A9
:1004B0006573206F7574206F662072616E676500CA
:1004C00056616C756573206F7574206F662072615C
:1004D0006E67650056616C756573206F7574206F6B
:1004E000662072616E676500535543434553530060
:1004F00056616C756573206F7574206F662072612C
:100500006E67650056616C756573206F7574206F3A
:10051000662072616E67650056616C756573206F49
:100520007574206F662072616E67650056616C7528
:100530006573206F7574206F662072616E67650049
:1005400053544154495354494353205245534554FD
:100550000048617264636F6465642043616C696222
:1005600020616E64205049442044656661756C7456
:100570002053657474696E6773204C6F61646564A1
:100580000048617264636F646564204465666175E8
:100590006C742053657474696E6773204C6F61646A
:1005A00065640053746F7265642073657474696E5A
:1005B000677320726574726965766564002C2073B8
:1005C000617665645F66656564726174653A200092
:1005D0002C2073617665645F66616E6C617965720B
:1005E0003A20002C2073617665645F74656D7062DB
:1005F00065643A20002C2073617665645F74656DD4
:1006000070303A20002C2073617665645F74656DEC
:1006100070313A20002C2073617665645F66696CE6
:1006200065706F736974696F6E3A20002C20736176
:100630007665645F655F706F736974696F6E3A2089
:10064000002C2073617665645F746F6F6C5F61630B
:10065000746976653A20002C2073617665645F7A50
:100660005F706F736974696F6E3A20002C2073613C
:100670007665645F795F706F736974696F6E3A2035
:10068000002C2073617665645F785F706F736974A6
:10069000696F6E3A200053415645205052494E54DE
:1006A000204C4F473A00204D696E75746573203AAF
:1006B00000204C617374207072696E742074696DCF
:1006C000652D3E20486F757273203A004C6173743B
:1006D000207072696E74206475726174696F6E0047
:1006E0002C205468697264204944206E756D6265DF
:1006F0007220002C205365636F6E64204944206E85
:10070000756D6265723A20002046697273742049E3
:1007100044206E756D6265723A2000554920496E1D
:10072000666F726D6174696F6E2053657269616C7A
:10073000204E756D6265723A00206D2C2045312087
:100740007072696E742064697374616E63653A20B7
:1007500000206B6D2C204530207072696E7420640F
:10076000697374616E63653A2000206B6D2C2059AB
:10077000207072696E742064697374616E63653A87
:100780002000206B6D2C205831207072696E74200F
:1007900064697374616E63653A200020432C0A20FB
:1007A0005830207072696E742064697374616E636E
:1007B000653A200020432C206D61782074656D70AF
:1007C00020423A200020432C206D61782074656D12
:1007D0007020523A20002C206D61782074656D7075
:1007E000204C3A2000682C207072696E7473206669
:1007F000696E69736865643A20002C207072696EB6
:1008000074696E672074696D653A200020707269A2
:100810006E74733A200053544154533A0020432CD1
:1008200020525F5052494E543A200020432C20520F
:100830005F4245443A200020432C20525F52454DF0
:100840004F56453A200020525F494E534552543A84
:10085000200054656D70202843293A0020432C2045
:100860004C5F5052494E543A200020432C204C5F9C
:100870004245443A200020432C204C5F52454D4FC6
:1008800056453A2000204C5F494E534552543A2079
:100890000054656D70202843293A00205A20707258
:1008A0006F626500205A2000205920002058200047
:1008B0004F66667365747320286D6D293A00204475
:1008C00000204900202D204D333031205249474827
:1008D00054205000204400204900204D3330312066
:1008E0004C45465420500050494420736574746947
:1008F0006E67733A00205A0020590020204D323094
:1009000036205800486F6D65206F666673657420E9
:10091000286D6D293A00204500205A0020580020FB
:10092000420020540020204D3230352053004164D5
:1009300076616E636564207661726961626C65736D
:100940003A20533D4D696E20666565647261746539
:1009500020286D6D2F73292C20543D4D696E207415
:10096000726176656C2066656564726174652028C5
:100970006D6D2F73292C20423D6D696E696D756D0B
:10098000207365676D656E742074696D6520286DD0
:1009900073292C20583D6D6178696D756D2058590B
:1009A000206A65726B20286D6D2F73292C20205AC8
:1009B0003D6D6178696D756D205A206A65726B2096
:1009C000286D6D2F73292C2020453D6D6178696D50
:1009D000756D2045206A65726B20286D6D2F732917
:1009E0000020540020204D323034205300416363F6
:1009F000656C65726174696F6E3A20533D61636323
:100A0000656C65726174696F6E2C20543D726574FB
:100A10007261637420616363656C65726174696F90
:100A20006E00204500205A0020590020204D323011
:100A3000312058004D6178696D756D2041636365A3
:100A40006C65726174696F6E20286D6D2F73322929
:100A50003A00204500205A0020590020204D323015
:100A6000332058004D6178696D756D206665656449
:100A7000726174657320286D6D2F73293A002045CB
:100A800000205A0020590020204D393220580053B0
:100A9000746570732070657220756E69743A0053C6
:100AA000657474696E67732053746F726564006552
:100AB00063686F3A005072696E7465722068616C89
:100AC0007465642E206B696C6C28292063616C6CE2
:100AD000656421006F6B00526573656E643A200097
:100AE000486F74656E64206F6666736574733A0050
:100AF0005A204F6666736574203A20007A5F6D61F4
:100B0000783A20007A5F6D696E3A20005A204F666D
:100B100066736574005A204F6666736574206F6B48
:100B2000004E6F74207072696E74207265636F7608
:100B3000657279207570005072696E7420726563F9
:100B40006F7665727920757000486F74656E6420E9
:100B50006F6666736574733A007A5F6D696E3A20EA
:100B600000795F6D61783A2000785F6D61783A2096
:100B700000785F6D696E3A2000205A3A0020593A99
:100B80000020436F756E7420583A200020453A00CB
:100B9000205A3A0020593A00583A004649524D57D7
:100BA0004152455F4E414D453A4D61726C696E2030
:100BB00056313B20537072696E7465722F67726292
:100BC0006C206D617368757020666F722067656E4A
:100BD00036204649524D574152455F55524C3A686E
:100BE000747470733A2F2F6769746875622E636F1F
:100BF0006D2F4572696B5A616C6D2F4D61726C6916
:100C00006E2F2050524F544F434F4C5F5645525316
:100C1000494F4E3A312E30204D414348494E455FB1
:100C2000545950453A4D656E64656C204558545290
:100C3000554445525F434F554E543A32205555491D
:100C4000443A30303030303030302D303030302D8C
:100C5000303030302D303030302D3030303030309A
:100C60003030303030300A0020423A0020453A001F
:100C7000543A0020573A0020453A00543A002042A6
:100C8000403A0020403A00202F003A002054002033
:100C90002F0020423A00202F006F6B20543A000AA8
:100CA0000A005374616E6461726420446576696100
:100CB00074696F6E3A20000A004D65616E3A20003B
:100CC0000A002020207A3A200000793A2000783A61
:100CD00020003F537065636966696564206E756DB9
:100CE000626572206F66206C65677320696E206D87
:100CF0006F76656D656E74206E6F7420706C6175B3
:100D00007361626C652E0A003F53706563696669A2
:100D10006564205920706F736974696F6E206F75F8
:100D200074206F662072616E67652E0A003F5370F3
:100D300065636966696564205820706F73697469BA
:100D40006F6E206F7574206F662072616E67652EFE
:100D50000A003F5370656369666965642073616D5D
:100D6000706C652073697A65206E6F7420706C6199
:100D7000757361626C652E0A0046756C6C20737524
:100D800070706F72742061743A20687474703A2FB6
:100D90002F33647072696E74626F6172642E636F58
:100DA0006D2F666F72756D2E7068700A004D343845
:100DB000205A2D50726F62652052657065617461B2
:100DC00062696C69747920746573742E20202056D2
:100DD000657273696F6E20322E30300A003F56659F
:100DE00072626F7365204C6576656C206E6F74203F
:100DF000706C61757361626C652E0A002569206DE7
:100E0000696E2C20256920736563004732382058AD
:100E10003020593000456E642066696C65206C692D
:100E2000737400426567696E2066696C65206C6941
:100E30007374000A00205A3A200020593A200020FA
:100E4000583A2000426564000A0020616E746968A7
:100E50006F726172690A3A200020686F726172696C
:100E60000A20002F3800766F6C74657320002056BE
:100E70006F6C74657320636172676F6C20333A2006
:100E80000020616E7469686F726172690A3A2000AD
:100E900020686F726172690A20002F3800766F6CCB
:100EA000746573200020566F6C74657320636172E3
:100EB000676F6C20323A200020616E7469686F722F
:100EC0006172690A3A200020686F726172690A20B3
:100ED000002F3800766F6C746573200020566F6C9D
:100EE00074657320636172676F6C20313A20000A69
:100EF0000020647A333A200020647A323A200020BD
:100F0000647A313A20000A00207A633A2000543093
:100F100000486F6D6520582F59206265666F7265B5
:100F2000205A000A00207A3A200020793A20002036
:100F3000783A200042656400486F6D6520582F594B
:100F4000206265666F7265205A0045787472756418
:100F50006572206163746976653A20002200556EDF
:100F60006B6E6F776E20636F6D6D616E643A2022D9
:100F700000256920686F757273202569206D696E80
:100F80007574657300446F6E65207072696E746964
:100F90006E672066696C65007061757365206465B5
:100FA000746563746564200A0047363900507269BD
:100FB0006E7465722073746F7070656420647565FB
:100FC00020746F206572726F72732E2046697820CC
:100FD000746865206572726F7220616E642075732B
:100FE00065204D39393920746F20726573746172D0
:100FF000742E202854656D70657261747572652059
:1010000069732072657365742E205365742069744A
:101010002061667465722072657374617274696EA2
:101020006729006F6B004E6F204C696E65204E750E
:101030006D626572207769746820636865636B739D
:10104000756D2C204C617374204C696E653A2000DC
:101050004E6F20436865636B73756D2077697468A4
:10106000206C696E65206E756D6265722C204C6116
:101070007374204C696E653A2000636865636B7316
:10108000756D206D69736D617463682C204C61739C
:1010900074204C696E653A20004C696E65204E756F
:1010A0006D626572206973206E6F74204C61737479
:1010B000204C696E65204E756D6265722B312C2057
:1010C0004C617374204C696E653A20004D313130AB
:1010D000004D383420582059205A2045005375724D
:1010E00066696E672030200A0043616C6962726134
:1010F00074696F6E205375636365737366756C2CCA
:1011000020676F696E67206261636B20746F206D6A
:1011100061696E206D656E75200A0054300025648B
:10112000206974656D73002564206974656D7300B2
:101130002564206974656D73002534643A252E3268
:101140006468202F20256467002564206974656D1C
:101150007300526561647920746F20496E73657203
:10116000742F52656D6F7665200A0074656D70206E
:101170006F6B200A00256425250025336420256334
:1011800043002533642025634300253364256343EE
:10119000202F2025336425634300253364256343D2
:1011A000202F2025336425634300253364256343C2
:1011B000202F202533642563430025203364202518
:1011C000250025642068202564206D0025203364D7
:1011D0002025250025326420256343002533642023
:1011E0002563430025336420256343005265616411
:1011F0007920746F20496E736572742F52656D6F1C
:101200007665200A0074656D70206F6B200A0025DA
:101210003364202563430025336420256343002085
:1012200053544F50205052494E54200A00473238F0
:10123000205830205930004D333500526573756D9C
:1012400065206465746563746564200A00473730FF
:1012500000EFBFBD524553554D4521200A00EFBF59
:10126000BD504155534521200A0025336420256394
:101270004300253364202563430025336420256320
:101280004300253364202563430025336420256310
:101290004300253364202563430025336420256300
:1012A00043002533642025634300253364202563F0
:1012B00043005052494E542053455454494E4753CD
:1012C000200A00446F6E6520736176696E67206640
:1012D000696C652E006F6B004D32390054652070CB
:1012E000696C6C650073746172740030312D312E3D
:1012F000322E325243002200656E717565696E6749
:101300002022002200656E717565696E67202200DB
:10131000253364202563430025336420256343007F
:10132000456E74657220696E207075726765206DF8
:101330006F6465200A0053757266696E67203120FC
:101340000A0053757266696E672030200A004733C1
:101350003400494E464F3A204245442043414C49CF
:1013600042202D200053757266696E672030200A76
:10137000004732382058302059300054300053751F
:101380007266696E672030200A005430004733349B
:1013900000494E464F3A204245442043414C494281
:1013A000202D200047343300473433004D383400BB
:1013B000473431004D383400473430005431005444
:1013C0003000543000543100543100543000543057
:1013D0000054310047343300473433004D38340073
:1013E000473431004D383400473430004D38340034
:1013F0004D3834004D3834005A32204F66667365DC
:10140000743A20004F4B207365636F6E64204578FB
:1014100074727564657221005A20706F7369746903
:101420006F6E3A20005A20706F736974696F6E3A5C
:1014300020004D3834005A312050726F6265206FA1
:1014400066667365743A20004F4B20666972737448
:1014500020457874727564657221200A005A2070E4
:101460006F736974696F6E3A20005A20706F7369E8
:1014700074696F6E3A200043616C63756C75733AE2
:1014800020200043616C63756C75733A2020004323
:10149000616C63756C75733A20200043616C6375F1
:1014A0006C75733A20200043616C63756C75733AF8
:1014B00020200043616C63756C75733A20200043F3
:1014C000616C63756C75733A20200043616C6375C1
:1014D0006C75733A20200043616C63756C75733AC8
:1014E00020200043616C63756C75733A20200043C3
:1014F000616C63756C75733A20200043616C637591
:101500006C75733A20200043616C63756C75733A97
:1015100020200043616C63756C75733A2020004392
:10152000616C63756C75733A20200043616C637560
:101530006C75733A20200043616C63756C75733A67
:1015400020200043616C63756C75733A2020004362
:10155000616C63756C75733A20200043616C637530
:101560006C75733A20200043616C63756C75733A37
:1015700020200043616C63756C75733A2020004332
:10158000616C63756C75733A20200043616C637500
:101590006C75733A20200043616C63756C75733A07
:1015A00020200043616C63756C75733A2020004302
:1015B000616C63756C75733A20200043616C6375D0
:1015C0006C75733A20200043616C63756C75733AD7
:1015D00020200043616C63756C75733A20200043D2
:1015E000616C63756C75733A20200043616C6375A0
:1015F0006C75733A20200043616C63756C75733AA7
:1016000020200043616C63756C75733A202000469E
:10161000696C616D656E742052656D6F7665642CC2
:1016200020474F494E4720544F20434C45414E20C0
:10163000544845204E4F5A5A454C200A0046696C82
:10164000616D656E7420496E7365727465642F52A6
:10165000656D6F7665642C2072657475726E696E47
:101660006720746F204D61696E204D656E75200A8C
:101670000054300046696C616D656E7420496E736C
:1016800065727465642F52656D6F7665642C206792
:101690006F696E6720746F2043616C6962200A0075
:1016A00054300046696C616D656E7420496E7365D7
:1016B000727465642F52656D6F7665642C20676F58
:1016C000696E6720746F20746865206E6578742079
:1016D0006578747275646572200A00543000436145
:1016E0006C6962726174696F6E20537563636573B0
:1016F0007366756C2C20676F696E67206261636B1F
:1017000020746F206D61696E206D656E75200A0012
:101710005430004A756D70206F7665722073637265
:1017200065773120616E6420736372657732200AB9
:10173000004A756D70206F766572207363726577ED
:1017400031200A004733340054300047333400540A
:1017500030004733340054300041646A757374209C
:101760005A446F776E200A0041646A757374205A78
:101770005570200A003630206465677265657320F5
:101780000A00496E73657274696E67203A202020E2
:101790000A0053757266696E672030200A0053751F
:1017A0007266696E672030200A0053757266696E32
:1017B000672030200A0053757266696E67203020FA
:1017C0000A00253364202563430025336420256304
:1017D00043002533642025634300456E7465722001
:1017E000696E207075726765206D6F6465200A00F0
:1017F000253364202563430025336420256343009B
:10180000253364202563430025336420256343008A
:10181000253364202563430025336420256343007A
:10182000253364202563430025336420256343006A
:1018300046696C616D656E742052656D6F76656486
:101840002C20474F494E4720544F20434C45414E92
:1018500020544845204E4F5A5A454C200A00537593
:101860007266696E672030200A0053757266696E71
:10187000672030200A0054300054652070696C6C79
:1018800065004D33340053757266696E67203020F1
:101890000A004D3234004D323320257300537572E7
:1018A00066696E672030200A002534643A252E329E
:1018B0006468202F2025646700002534643A252EB3
:1018C000326468202F2025646700002534643A259F
:1018D0002E326468202F2025646700002534643A86
:1018E000252E326468202F2025646700002534648B
:1018F0003A252E326468202F202564670000537536
:101900007266696E672030200A0053554343455381
:1019100053200A00253364202563430025336420C7
:101920002563430025336420256343002533642069
:101930002563430025336420256343002533642059
:101940002563430025336420256343002533642049
:1019500025634300253364202563430041646A7591
:101960007374205A446F776E200A0041646A75735D
:1019700074205A5570200A00496E73657274696E3E
:1019800067203A2020200A00253364202563430085
:1019900025336420256343002533642025634300F9
:1019A000456E74657220696E207075726765206D72
:1019B0006F6465200A004D333300FF01FF0000A073
:1019C000400000A04000000040CDCC984300809330
:1019D00043000052430000000000809343000000D9
:1019E00000CDCC9843008093430000524300000098
:1019F0000000000000000000006563686F3A0045C9
:101A000072726F723A0020636F6C64206578747232
:101A10007573696F6E2070726576656E74656400AB
:101A20006563686F3A003B202020506C61737469D5
:101A300063207765696768743A2025642E2564679A
:101A4000003B46696C616D656E7420757365643A20
:101A50002025642E25646D2025642E256467003BB7
:101A60002020204275696C642074696D653A2025D8
:101A70006420686F7572202564206D696E757465C9
:101A800073003B2020204275696C642074696D6589
:101A90003A20256420686F757273202564206D6973
:101AA0006E75746573003B5072696E742074696D55
:101AB000653A202564206D696E75746573003B502E
:101AC00072696E742074696D653A20256420686FB0
:101AD0007572202564206D696E75746573003B50C6
:101AE00072696E742074696D653A20256420686F90
:101AF000757273202564206D696E75746573003B83
:101B00005072696E742074696D653A202564206492
:101B100061797320256420686F7572202564206DBB
:101B2000696E75746573003B5072696E74207469D8
:101B30006D653A2025642064617920256420686FF2
:101B40007572202564206D696E75746573003B5055
:101B500072696E742074696D653A20256420646131
:101B60007920256420686F757273202564206D6963
:101B70006E75746573003B5072696E742074696D84
:101B8000653A202564206461797320256420686F9C
:101B9000757273202564206D696E75746573003BE2
:101BA00020472D436F64652067656E6572617465BB
:101BB000642062792053696D706C696679334428BA
:101BC00052292056657273696F6E202564007C3C33
:101BD0003E5E2B3D3F2F5B5D3B2C2A225C00205A52
:101BE0003A0020593A0020583A00656E6473746FC9
:101BF0007073206869743A200024F4D43050C38E86
:101C000020C2A24017828B7011127A910D816CD97B
:101C10000AA861E108C7586607615143061E4B5D7B
:101C200005C145A7041A411104093D9803713931D2
:101C3000034036DB0265339102D4305402802E1DFE
:101C400002632CEE01752AC501B028A0011027817E
:101C5000018F2564012B244B01E0223401AC211FAC
:101C6000018D200D01801FFC00841EED00971DDFFB
:101C700000B81CD200E61BC600201BBC00641AB2D0
:101C800000B219A8000A19A0006A189900D117918A
:101C90000040178B00B516840031167E00B315790D
:101CA000003A157300C7146F0058146A00EE1366EB
:101CB000008813630025135E00C7125B006C125787
:101CC0000015125400C111510070114F0021114B29
:101CD00000D61049008D1047004610440002104203
:101CE00000C00F4000800F3E00420F3C00060F3B3B
:101CF00000CB0E3800930E37005C0E3500270E34F3
:101D000000F30D3200C10D3100900D3000600D2E3A
:101D100000320D2D00050D2C00D90C2B00AE0C2926
:101D200000850C29005C0C2700350C27000E0C26C2
:101D300000E80B2400C40B2400A00B23007D0B2320
:101D4000005A0B2100390B2100180B2000F80A1F44
:101D500000D90A1E00BB0A1E009D0A1D00800A1D34
:101D600000630A1C00470A1B002C0A1B00110A1AF8
:101D700000F7091A00DD091900C4091900AB091997
:101D800000920917007B091800630917004C091617
:101D90000036091600200916000A091500F5081575
:101DA00000E0081400CC081400B8081400A40814BB
:101DB00000900813007D0812006B081300580812E9
:101DC00000460812003408110023081100120811FF
:101DD0000001081100F0071000E0071000D0071004
:101DE00000C0071000B0070F00A107100091070EF8
:101DF0000083070F0074070F0065070E0057070EDA
:101E00000049070E003B070D002E070E0020070DAE
:101E10000013070D0006070D00F9060C00ED060D76
:101E200000E0060C00D4060C00C8060C00BC060C32
:101E300000B0060C00A4060B0099060C008D060BE2
:101E40000082060B0077060B006C060B0061060A89
:101E50000057060B004C060A0042060A0038060A24
:101E6000002E060A0024060A001A060A00100609B7
:101E70000007060A00FD050900F4050900EB050945
:101E800000E2050900D9050900D0050900C70509C8
:101E900000BE050900B5050800AD050800A5050947
:101EA000009C050800940508008C050800840508BE
:101EB000007C050800740508006C0507006505082E
:101EC000005D050700560508004E05070047050799
:101ED000004005080038050700310507002A0507FE
:101EE00000230507001C050600160507000F05075F
:101EF000000805060002050700FB040600F50407BC
:101F000000EE040600E8040600E2040700DB040615
:101F100000D5040600CF040600C9040600C3040669
:101F200000BD040600B7040600B1040500AC0406B9
:101F300000A6040600A00405009B04060095040505
:101F400000900406008A040500850405008004064C
:101F5000007A04050075040500700405006B040593
:101F60000066040500610405005C040500570405D3
:101F700000520405004D0405004804050043040513
:101F8000003E0404003A0405003504050030040452
:101F9000002C04050027040400230405001E04048B
:101FA000001A04040016040500110404000D0404C2
:101FB00000090405000404040000040400FC0304F8
:101FC00000F8030400F4030400F0030400EC03042D
:101FD00000E8030400E4030400E0030400DC03045D
:101FE00000D8030400D4030400D0030400CC03048D
:101FF00000C8030300C503030024F404D9201BC454
:102000000C5C0E9804C4095F0265077101F405F9C0
:1020100000FB04B30048048700C10369005803555E
:102020000003034500BE023A008402310053022A35
:10203000002902250004022000E4011C00C8011947
:1020400000AF011700980114008401130071011002
:10205000006101100051010E0043010D0036010B1B
:10206000002B010B0020010B00150109000C0109D8
:102070000003010800FB000800F3000800EB000764
:1020800000E4000600DE000600D8000600D20006CC
:1020900000CC000500C7000500C2000500BD00041B
:1020A00000B9000400B5000400B1000400AD000454
:1020B00000A9000400A5000300A20003009F000483
:1020C000009B0003009800030095000200930003AA
:1020D00000900003008D0002008B000300880002C6
:1020E000008600020084000300810002007F0002DD
:1020F000007D0002007B00020079000200770001F1
:1021000000760002007400020072000100710002FB
:10211000006F0002006D0001006C0002006A000107
:10212000006900020067000100660001006500010F
:102130000064000200620001006100010060000113
:10214000005F0002005D0001005C0001005B000117
:10215000005A000100590001005800010057000119
:10216000005600010055000100540001005300001A
:102170000053000100520001005100010050000115
:10218000004F0001004E0000004E0001004D000114
:10219000004C0001004B0000004B0001004A000110
:1021A000004900010048000000480001004700010C
:1021B0000046000000460001004500000045000107
:1021C0000044000100430000004300010042000001
:1021D00000420001004100000041000100400001F8
:1021E000003F0000003F0001003E0000003E0001F3
:1021F000003D0000003D0001003C0000003C0000EC
:10220000003C0001003B0000003B0001003A0000E0
:10221000003A0001003900000039000100380000D8
:1022200000380000003800010037000000370001CE
:1022300000360000003600000036000100350000C6
:1022400000350000003500010034000000340000BB
:1022500000340001003300000033000000330001AF
:1022600000320000003200000032000100310000A6
:10227000003100000031000100300000003000009B
:1022800000300001002F0000002F0000002F000090
:10229000002F0001002E0000002E0000002E000183
:1022A000002D0000002D0000002D0000002D000179
:1022B000002C0000002C0000002C0000002C00016D
:1022C000002B0000002B0000002B0000002B000161
:1022D000002A0000002A0000002A0000002A000155
:1022E000002900000029000000290000002900004A
:1022F000002900010028000000280000002800003C
:10230000002800000028000100270000002700002E
:102310000027000000270000002700010026000021
:102320000026000000260000002600000026000114
:102330000025000000250000002500000025000009
:1023400000250000002500010024000000240000FA
:1023500000240000002400000024000100230000ED
:1023600000230000002300000023000000230000E1
:1023700000230000002300010022000000220000D2
:1023800000220000002200000022000000220001C4
:1023900000210000002100000021000000210000B9
:1023A00000210000002100000021000100200000A9
:1023B000002000000020000000200000002000009D
:1023C000002000000020000000200001001F00008D
:1023D000001F0000001F0000001F0000001F000081
:1023E000001F0000001F0001001E0000001E000072
:1023F000001E0000001E0000006563686F3A005474
:102400006865726D616C2052756E617761792C2000
:1024100073797374656D2073746F707065642120B7
:102420004865617465725F49443A20002053544FF7
:1024300050205052494E54200A002053544F5020EF
:102440005052494E54200A002053544F50205052AD
:10245000494E54200A004572726F72283833293A67
:102460002042656420746865726D6973746F7220B0
:102470006E6F742064657465637465640045727280
:102480006F72283832293A2052696768742074685C
:1024900065726D6973746F72206E6F7420646574F9
:1024A0006563746564004572726F72283831293A29
:1024B000204C65667420746865726D6973746F7200
:1024C000206E6F74202064657465637465640050C9
:1024D0004944204175746F74756E652066696E6934
:1024E000736865642100504944204175746F7475A8
:1024F0006E65206661696C6564212074696D656F25
:1025000075740020403A006F6B20543A006F6B20C6
:10251000423A00504944204175746F74756E6520CD
:102520006661696C6564212054656D7065726174C3
:1025300075726520746F6F206869676800204B644E
:102540003A2000204B693A2000204B703A200020AE
:10255000436C6173736963205049442000205475B3
:102560003A2000204B753A2000206D61783A200017
:10257000206D696E3A200020643A20002062696173
:10258000733A2000504944204175746F74756E652C
:102590002066696E697368656421205075742074C3
:1025A0006865206C617374204B702C204B6920612E
:1025B0006E64204B6420636F6E7374616E7473205D
:1025C00066726F6D2061626F766520696E746F2030
:1025D000436F6E66696775726174696F6E2E68000D
:1025E000504944204175746F74756E652066616949
:1025F0006C6564212074696D656F75740020403AC4
:10260000006F6B20543A006F6B20423A00504944EF
:10261000204175746F74756E65206661696C6564C0
:10262000212054656D706572617475726520746FD8
:102630006F206869676800204B643A2000204B696E
:102640003A2000204B703A200020436C617373697C
:10265000632050494420002054753A2000204B75D7
:102660003A2000206D61783A2000206D696E3A2092
:102670000020643A200020626961733A20004572AC
:10268000726F723A0070012C0190012701B0012293
:1026900001C0011D01F00118011002130130020EEA
:1026A000016002090190020401C002FF000003FA68
:1026B000004003F5008003F000D003EB002004E6A7
:1026C000007004E100E004DC004005D700C005D242
:1026D000004006CD00D006C8008007C3003008BE09
:1026E00000F008B900C009B400B00AAF00B00BAAEE
:1026F00000D00CA500000EA000500F9B00C010964B
:10270000005012910000148C00C0158700B0178291
:1027100000B0197D00D01B7800001E730040206EB1
:102720000090226900F024640040275F0090295A3D
:1027300000E02B5500102E500020304B0010324688
:1027400000E033410090353C0010373700703832DC
:1027500000A0392D00B03A2800A03B2300603C1EA9
:1027600000103D1900903D1400103E0F00703E0A0D
:1027700000C03E0500003F000000000A0B02090CEB
:102780000D0E080703040100000000000000000017
:102790000000000000000000000000000000000039
:1027A00000000000001211100000000000000000F6
:1027B0000000000000000000000000000000000118
:1027C0000210202008081020401020408002010242
:1027D000010804020101020408102040808040200A
:1027E0001008040201800402018040201008040245
:1027F00001080402010102040810204080010204C3
:10280000081020408005050505070508080808028E
:102810000202020A0A080804040404010101010179
:102820000101010303030303030303040707070C68
:102830000C0C0C0C0C0C0C0202020206060606061E
:102840000606060B0B0B0B0B0B0B0B0000200023DB
:1028500000260029002C002F003200000100000398
:10286000010601090100002200250028002B002E8E
:10287000003100340002010000050108010B0100D5
:10288000002100240027002A002D00300033000121
:10289000010000040107010A014E414E494E49540E
:1028A00059494E46CDCCCC3D0AD7233C17B7D13839
:1028B00077CC2B329595E6241FB14F0A00002041BA
:1028C0000000C84200401C4620BCBE4CCA1B0E5A29
:1028D000AEC59D746364696E6F70737578585B00E4
:1028E0003E15843D1901CB00EB00FD0011241FBEF5
:1028F000CFEFD1E2DEBFCDBF00E00CBF19E0A0E01A
:10290000B2E0E6EAF9E503E00BBF02C007900D92E2
:10291000A03BB107D9F72CE1A0EBB9E001C01D92B3
:10292000A133B207E1F718E2CAEED8E200E006C030
:1029300022970109FE010BBF0F940FA1C03ED107E2
:1029400080E00807A9F70F94C4970D94C1AC0C94CC
:1029500000008091DF0990E02091E009821B91093D
:1029600008952091E0098091DF09281750F4E22FA3
:10297000F0E0EF51F64F808190E02F5F2093E00967
:1029800008958FEF9FEF0895E091E0098091DF09AE
:10299000E81730F4F0E0EF51F64F808190E00895B1
:1029A0008FEF9FEF08950895CF92DF92EF92FF92FD
:1029B0000F931F93CF93DF937C01CB018A0120916A
:1029C000BC09222389F0EB016B01C40ED51ECC1586
:1029D000DD0561F06991D701ED91FC910190F081E5
:1029E000E02DC7011995F3CF642F4BD0C801DF91BB
:1029F000CF911F910F91FF90EF90DF90CF900895AE
:102A0000CF93DF931F92CDB7DEB769832091BC09C6
:102A10002223D1F02091BD09203240F021E030E0A6
:102A2000FC013383228380E090E014C08091BE09D2
:102A3000E82FF0E0E154F64F998190838F5F809307
:102A4000BE098093BD0904C061E0CE01019619D092
:102A500081E090E00F90DF91CF910895FC01138207
:102A6000128248EE53E060E070E044835583668351
:102A7000778382E593E091838083089580EB99E0EA
:102A8000EDCF613298F420916E0A243089F460937E
:102A9000230AFC0185E29AE0DC012A2F281B261775
:102AA00018F421912D93F9CF80E0089581E00895E5
:102AB00082E0089585ED8093BC008091BC0084FD88
:102AC000FCCF10926E0A089585EC8093BC001092A2
:102AD0006E0A08951F920F920FB60F9211240BB633
:102AE0000F922F933F934F935F936F937F938F93A7
:102AF0009F93AF93BF93EF93FF938091B900887F2B
:102B0000803609F49DC070F5883209F45CC090F4F9
:102B1000803109F455C038F4882309F4F3C08830B3
:102B200009F44EC0F2C0883109F44DC0803209F476
:102B30005EC0EBC0803409F469C050F4803309F4FE
:102B400056C0883309F0E1C08093010ABDDFDDC0C3
:102B5000803509F44FC0883509F45DC0883409F028
:102B6000D4C0D2C0883909F4C3C0A8F4883709F4A6
:102B700067C038F4883609F463C0803709F460C050
:102B8000C4C0883809F4B4C0803909F45FC0803803
:102B900009F0BBC05BC0803B09F482C038F4803AC6
:102BA00009F466C0883A09F47BC0AFC0803C09F4E0
:102BB000A3C0883C09F4A0C0883B09F486C0A5C026
:102BC00080916D0A10C09091460A8091450A98172D
:102BD00070F5E091460A81E08E0F8093460AF0E09E
:102BE000E95BF54F80818093BB0085EC82C08093C8
:102BF000010A8AC0E091460A81E08E0F8093460A5E
:102C00008091BB00F0E0E95BF54F80839091460A2C
:102C10008091450A6AC0E091460A81E08E0F809358
:102C2000460A8091BB00F0E0E95BF54F808380911C
:102C30006C0A811169C081E080936B0A84EA5DC0EF
:102C400083E080936E0A1092020ACFCF8091020A2D
:102C5000803208F04DC0E091020A81E08E0F80932F
:102C6000020A8091BB00F0E0ED5FF54F8083BDCF9D
:102C70002BDF8091020A803230F4E091020AF0E00A
:102C8000ED5FF54F10826091020A70E0E091670AF3
:102C9000F091680A83E09AE019951092020A35C013
:102CA00084E080936E0A1092240A1092230AE09125
:102CB000690AF0916A0A19958091230A811105C069
:102CC00081E08093230A1092250AE091240A81E092
:102CD0008E0F8093240AF0E0EB5DF54F80818093A6
:102CE000BB009091240A8091230A981708F47DCFA5
:102CF00085E88093BC0009C085EC8093BC001092ED
:102D00006E0A03C01092010AD5DEFF91EF91BF91C8
:102D1000AF919F918F917F916F915F914F913F9173
:102D20002F910F900BBE0F900FBE0F901F90189514
:102D3000FC01148217821382128288E798E0918343
:102D400080830895DC01ED91FC910190F081E02DEC
:102D5000199428E738E0FC0131832083278122235E
:102D600019F004960D94AE640895CF92DF92EF921D
:102D7000FF920F931F93CF93DF93EC01895A9F4FDC
:102D8000D7DFCE0188589F4FD3DF7E0127E9E20EBF
:102D9000F11C87016E0133E3C31A3EEFD30AC80169
:102DA000C7DF015E1F4F0C151D05C9F7FE01E1537A
:102DB000FE4F89E1818314823596178ACE018E50A9
:102DC0009E4FB6DFFE01ED55FD4F1082118212823B
:102DD0001382389610821182128213821A821B8209
:102DE0001C82188219826E0189E5C81A8DEFD80AF3
:102DF000F6011082118212821382F8011182108270
:102E0000FE01EF5EFD4F108286E391E0F7019C0129
:102E1000119221503040E1F7FE01E155FD4F81E074
:102E20008083CB5ADF4F198218820F94879268579C
:102E30007C4E8F4F9F4FF601608371838283938313
:102E4000DF91CF911F910F91FF90EF90DF90CF9086
:102E50000895FC0120E03EE2DB014C91403241F05C
:102E6000283011F430833196DB014C914083319648
:102E70002F5F6F5F7F4F2B3079F7108208952F926D
:102E80003F924F925F926F927F928F929F92AF92FA
:102E9000BF92CF92DF92EF92FF920F931F93CF9347
:102EA000DF93CDB7DEB7C858D1090FB6F894DEBFAF
:102EB0000FBECDBF8C016B017A01CA57DF4F18825C
:102EC000C658D04084E0E80EF11C180192E1290EAA
:102ED000311CF801EC5AFF4FC957DF4FF983E883E3
:102EE000C758D0405801F0E5AF1AFDEFBF0A3801CE
:102EF0008EE4681A8DEF780A80E4482E512C4C0E2F
:102F00005D1E94E0490E511CA101BE016F5F7F4F11
:102F1000C7010F94186318160CF009C12C85322FC5
:102F20003871303109F091C0F501808191810197AC
:102F3000029708F48AC0BE016F5F7F4FCE018758A9
:102F40009F4F87DFA0961FAEA097F6018081811169
:102F500007C06EE573E0CE01815A9F4F0F9439A6EA
:102F6000B601CE01815A9F4F0F9439A6BE01675812
:102F70007F4FCE01815A9F4F0F9439A66EE573E0C3
:102F8000CE01815A9F4F0F9439A6CE01805C9F4F8E
:102F9000CFDE21E0AE0147585F4FB701C2010F9469
:102FA000A56681112EC0F50180819181892B49F59B
:102FB000E3E8F4E064914F01662361F0772767FD51
:102FC000709581EF9AE1BEDEFFEF8F1A9F0AF40140
:102FD0006491F2CF60E673E081EF9AE10F940E986E
:102FE0006AE070E081EF9AE1ADDEBE0167587F4F85
:102FF00081EF9AE10F940E986AE070E081EF9AE118
:10300000A1DE8BE1FE01EC5BFF4FDE0195960190A6
:103010000D928A95E1F724968EAD9FAD24979CA3DF
:103020008BA388E798E09AA389A3AE014F5D5F4F19
:10303000BE01615A7F4FC80122DFCE01819689DE31
:10304000CE01805C9F4F85DE5FCF8981882309F4A4
:103050006EC0853E09F458CF8E3209F455CF8F35B6
:1030600009F452CFF8018289882331F08E3209F4B5
:103070004BCF8F3509F448CF23FD46CF81E0303167
:1030800009F080E0C957DF4FE881F981C758D04087
:103090008083811108C08985873409F035CF8A85FE
:1030A0008E3709F431CF4801F5E08F0E911CBE0137
:1030B0006F5F7F4FC401CDDEF50180819181009764
:1030C00081F4B60181EF9AE10F940E98B40181EF7B
:1030D0009AE10F940E986AE070E081EF9AE132DE97
:1030E00013CF8130910539F4F301808191810196EC
:1030F0009183808309CF029709F006CFCA57DF4F2B
:10310000F881C658D0402F2F30E0F30180819181A3
:103110002817390761F0CA57DF4FF881C658D040E9
:10312000FF5FCA57DF4FF883C658D040EDCEC8576F
:10313000DF4F0FB6F894DEBF0FBECDBFDF91CF914A
:103140001F910F91FF90EF90DF90CF90BF90AF90C5
:103150009F908F907F906F905F904F903F902F90B7
:1031600008950F931F93CF93DF93CDB7DEB76F977B
:103170000FB6F894DEBF0FBECDBF8C01FC01E05549
:10318000FD4F1182108240E050E0BA01855A9F4FF6
:103190000F94CB63C801895A9F4F2BE1FC013496F1
:1031A000DE01159601900D922A95E1F7FC018281CE
:1031B00093819C838B8388E798E09A838983AE010F
:1031C0004F5F5F4F63EA79E0C80159DECE01019697
:1031D000C0DD6F960FB6F894DEBF0FBECDBFDF9196
:1031E000CF911F910F9108952BE1FB013496DC01E3
:1031F000149601900D922A95E1F7FB01228133810B
:10320000FC01338322830895EF92FF920F931F9363
:10321000CF93DF93EC011C82FC01E25AFF4F8081C7
:10322000882329F0CE01855A9F4F0F94AE647E010A
:1032300081E3E81A8EEFF80A45E360E0C7010F94D6
:103240002F5F81113AC0E3E8F4E064918F016623B7
:1032500059F0772767FD709581EF9AE173DD0F5F75
:103260001F4FF8016491F3CFE6E7F4E064918F011A
:10327000662359F0772767FD709581EF9AE162DD4B
:103280000F5F1F4FF8016491F3CF6AE070E081EFA8
:103290009AE158DD8E01095A1F4FB801CE018858B6
:1032A0009F4FA2DFCA58DF4F19830883DF91CF9168
:1032B0001F910F91FF90EF9008958E010C521E4FB9
:1032C00041E0B701C8010F94986C81112AC040E019
:1032D000B701C8010F94986C811123C0E9E8F4E0AC
:1032E00064918F01662359F0772767FD709581EF10
:1032F0009AE128DD0F5F1F4FF8016491F3CFE3E6F9
:10330000F4E064918F01662309F4BFCF772767FD4E
:10331000709581EF9AE116DD0F5F1F4FF801649100
:10332000F2CFB801CE01855A9F4F0F94BC61811135
:1033300023C0E9E8F4E064918F01662359F0772710
:1033400067FD709581EF9AE1FDDC0F5F1F4FF8017B
:103350006491F3CFE3E5F4E064918F01662309F40F
:1033600094CF772767FD709581EF9AE1EBDC0F5FD3
:103370001F4FF8016491F2CF81E08C83E3E8F4E021
:1033800064918F01662359F0772767FD709581EF6F
:103390009AE1D8DC0F5F1F4FF8016491F3CFE8E4A6
:1033A000F4E064918F01662309F46FCF772767FDFE
:1033B000709581EF9AE1C6DC0F5F1F4FF8016491B1
:1033C000F2CFFC01128214820895CF93DF93EC01B7
:1033D0008C818823B9F063E773E081EF9AE10F9461
:1033E0000E984091740D5091750D6091760D70910D
:1033F000770D22E030E081EF9AE10F94F89981E0B7
:103400008A831B82DF91CF910895FC0182818823FA
:1034100019F0128281E083830895AF92BF92CF9218
:10342000DF92EF92FF920F931F93CF93DF931F9240
:10343000CDB7DEB78C018FE2FB0181935F01D12C08
:1034400041E07801F3E3EF1AFEEFFF0A9FE1C92E96
:103450002D2D30E0F7018081918128173907D8F4AC
:10346000C29EC001C39E900D112485569F4FB50189
:10347000800F911F49830F946361C50149815C01ED
:103480000196F5012081222321F04D3810F44F5F81
:10349000F6CFD394DDCF47FD11C0B501C8018A50E6
:1034A0009E4F0F90DF91CF911F910F91FF90EF9062
:1034B000DF90CF90BF90AF900D946361F5011082C3
:1034C0000F90DF91CF911F910F91FF90EF90DF90C0
:1034D000CF90BF90AF9008953F924F925F926F92BE
:1034E0007F928F929F92AF92BF92CF92DF92EF9294
:1034F000FF920F931F93CF93DF93CDB7DEB7AC97B7
:103500000FB6F894DEBF0FBECDBF8C016B01342E19
:10351000FC018481882309F4D0C2E750FE4F8081EA
:10352000882309F407C12111D1C07801FFEEEF1AF9
:10353000FDEFFF0AF7018081882309F432C0E9E832
:10354000F4E064918F01662359F0772767FD709549
:1035500081EF9AE1F7DB0F5F1F4FF8016491F3CF22
:10356000E5E0F4E064918F01662359F0772767FD69
:10357000709581EF9AE1E6DB0F5F1F4FF8016491D0
:10358000F3CF4AE050E061E070E081EF9AE10F9400
:10359000BD986AE070E081EF9AE1D4DB0E94B49DAF
:1035A0008CC2E3E8F4E064915F01662361F0772761
:1035B00067FD709581EF9AE1C5DBFFEFAF1ABF0A97
:1035C000F5016491F2CFECEEF3E064915F016623C4
:1035D00061F0772767FD709581EF9AE1B3DBFFEF2C
:1035E000AF1ABF0AF5016491F2CFB60181EF9AE1FB
:1035F0000F940E98E1EEF3E064915F01662361F0B1
:10360000772767FD709581EF9AE19CDBFFEFAF1A9A
:10361000BF0AF5016491F2CFF70180812DE8B22E47
:10362000B801B89E600D711D11246A5E7D4FC801FE
:10363000F4DEF7018081B801B89E600D711D112480
:103640006A5E7D4F81EF9AE10F940E98EBEDF3E007
:1036500064915F01662361F0772767FD709581EFC4
:103660009AE170DBFFEFAF1ABF0AF5016491F2CF68
:103670005801F5E5AF1AFDEFBF0AF5014081518110
:10368000628173812AE030E081EF9AE10F94EA9839
:103690006AE070E081EF9AE155DBF7012081F801E3
:1036A00084E0289FE00DF11D1124AF014E5E5D4FB7
:1036B000F50180819181A281B381FA018083918398
:1036C000A283B3832F5FF70120832EC0E3E8F4E0E9
:1036D00064917F01662361F0772767FD709581EF24
:1036E0009AE130DBFFEFEF1AFF0AF7016491F2CFA6
:1036F000EAECF3E064917F01662361F0772767FDD0
:10370000709581EF9AE11EDBFFEFEF1AFF0AF701D8
:103710006491F2CFB60181EF9AE10F940E986AE0BE
:1037200070E081EF9AE10EDBC8018A509E4F0F9442
:10373000AE6432C0F801EF5EFD4F1082E3E8F4E0C2
:1037400064917F01662361F0772767FD709581EFB3
:103750009AE1F8DAFFEFEF1AFF0AF7016491F2CF6E
:10376000E9EBF3E064917F01662361F0772767FD61
:10377000709581EF9AE1E6DAFFEFEF1AFF0AF701A1
:103780006491F2CFB60181EF9AE10F940E986AE04E
:1037900070E081EF9AE1D6DAF8011282CE0101964B
:1037A0005C01C6DA280196E7490E511CC801895A06
:1037B0009F4FF20191838083F60180818F3209F05F
:1037C0007BC06FE270E0C6010F9444A601967C01B5
:1037D000E114F10409F476C06FE270E0C7010F94C0
:1037E00044A64C01009709F46EC0E816F90608F0EB
:1037F0006AC03C016E187F08A301B701CE01809614
:103800000F946DA6E0E2F0E0EC0FFD1FE60DF71D52
:103810001082BE01605E7F4F81EF9AE10F940E9897
:103820006AE070E081EF9AE18DDAF20160817181E6
:103830006115710519F06C5F7F4F02C060E070E0A8
:1038400021E0AE01405E5F4FCE0105960F94A56664
:1038500081112AC0E5EAF3E064918F01662359F0F3
:10386000772767FD709581EF9AE16CDA0F5F1F4F44
:10387000F8016491F3CFBE01605E7F4F81EF9AE162
:103880000F940E98E3EAF3E064918F01662309F444
:103890000DC1772767FD709581EF9AE153DA0F5FCD
:1038A0001F4FF8016491F2CFF201B182A08274013E
:1038B000FFEFEF1AFF0A8CCFC80188589F4FF20123
:1038C000918380837601C8018A509E4F4C01F2019A
:1038D00060817181332009F49AC06115710519F076
:1038E0006C5F7F4F02C060E070E021E0A701C4017F
:1038F0000F94A566882309F462C0F4018189928936
:10390000A389B489F801ED55FD4F80839183A2838B
:10391000B383E5E9F3E064914F01C8018D559D4FF4
:103920006C01662361F0772767FD709581EF9AE15E
:1039300009DA9FEF891A990AF4016491F2CFB7016D
:1039400081EF9AE10F940E98EDE8F3E064917F0126
:10395000662361F0772767FD709581EF9AE1F2D9D0
:10396000FFEFEF1AFF0AF7016491F2CFF6014081F1
:103970005181628173812AE030E081EF9AE10F94F6
:10398000EA986AE070E081EF9AE1DCD9F801E55548
:10399000FD4F1082118212821382EFE7F3E06491EF
:1039A0008F01662309F482C0772767FD709581EF48
:1039B0009AE1C8D90F5F1F4FF8016491F2CFEBE68F
:1039C000F3E064918F01662359F0772767FD7095C6
:1039D00081EF9AE1B7D90F5F1F4FF8016491F3CFE0
:1039E000B70181EF9AE10F940E98E9E6F3E0649154
:1039F0008F01662309F45AC0772767FD709581EF20
:103A00009AE1A0D90F5F1F4FF8016491F2CF6115C1
:103A1000710519F06C5F7F4F02C060E070E026E531
:103A2000A701C4010F94A566811127C0E5E5F3E065
:103A300064918F01662359F0772767FD709581EFB8
:103A40009AE180D90F5F1F4FF8016491F3CFB7015E
:103A500081EF9AE10F940E98E3E5F3E064918F0112
:103A6000662321F1772767FD709581EF9AE16AD986
:103A70000F5F1F4FF8016491F3CF81E0F80180835D
:103A8000E1E4F3E064918F01662359F0772767FD45
:103A9000709581EF9AE156D90F5F1F4FF80164913D
:103AA000F3CFB60181EF9AE10F940E986AE070E0CF
:103AB00081EF9AE147D9C5014CD9AC960FB6F8947D
:103AC000DEBF0FBECDBFDF91CF911F910F91FF9051
:103AD000EF90DF90CF90BF90AF909F908F907F90AE
:103AE0006F905F904F903F90089521E0FC012183FB
:103AF00040E0F2CC4F925F926F927F928F929F92B2
:103B0000AF92BF92CF92DF92EF92FF920F931F93EB
:103B1000CF93DF93CDB7DEB7AC970FB6F894DEBF87
:103B20000FBECDBF7C015B01FC018481882309F4B9
:103B3000F9C0C7018A509E4F0F94AE64F7011282FC
:103B4000CE0101966C01F4D8270196E7490E511C6D
:103B5000C701895A9F4FF20191838083F5018081CB
:103B60008F3209F077C06FE270E0C5010F9444A670
:103B70008C010F5F1F4F09F473C06FE270E0C80142
:103B80000F9444A64C01009709F46BC0081719075D
:103B900008F067C03C01601A710AA301B801CE01A8
:103BA00080960F946DA6E0E2F0E0EC0FFD1FE60DAD
:103BB000F71D1082BE01605E7F4F81EF9AE10F9486
:103BC0000E986AE070E081EF9AE1BCD8F201608162
:103BD00071816115710519F06C5F7F4F02C060E063
:103BE00070E021E0AE01405E5F4FCE0105960F947C
:103BF000A56681112AC0EDE2F3E064918F0166238E
:103C000059F0772767FD709581EF9AE19BD80F5F98
:103C10001F4FF8016491F3CFBE01605E7F4F81EFCB
:103C20009AE10F940E98EBE2F3E064918F01662322
:103C300009F471C0772767FD709581EF9AE182D80A
:103C40000F5F1F4FF8016491F2CFF201D182C08261
:103C500084018FCFC70188589F4FF20191838083E1
:103C60008501F20180819181009711F0049602C0D4
:103C700080E090E0B8010F947B67882321F1EDE1AB
:103C8000F3E064915F01662361F0772767FD70952B
:103C900081EF9AE157D8FFEFAF1ABF0AF50164919F
:103CA000F2CFB80181EF9AE10F940E986AE070E0CC
:103CB00081EF9AE147D8F701E555FD4F1082118257
:103CC000128213822DC0E5E0F3E064917F01662348
:103CD00061F0772767FD709581EF9AE133D8FFEFA8
:103CE000EF1AFF0AF7016491F2CFB80181EF9AE170
:103CF0000F940E98E3E0F3E064918F01662359F08E
:103D0000772767FD709581EF9AE11CD80F5F1F4FF1
:103D1000F8016491F3CF6AE070E081EF9AE112D884
:103D2000C60117D8AC960FB6F894DEBF0FBECDBF54
:103D3000DF91CF911F910F91FF90EF90DF90CF9087
:103D4000BF90AF909F908F907F906F905F904F90BB
:103D500008950F931F93CF93DF93EC018C818823F9
:103D600009F43EC0E1EFF2E064918F01662361F057
:103D7000772767FD709581EF9AE10E94A2160F5F89
:103D80001F4FF8016491F2CFFE01E555FD4F4081D0
:103D90005181628173812AE030E081EF9AE10F94D2
:103DA000EA98EFEEF2E064918F01662361F07727E5
:103DB00067FD709581EF9AE10E94A2160F5F1F4F79
:103DC000F8016491F2CFCD55DD4F488159816A8168
:103DD0007B812AE030E081EF9AE10F94EA9811C0EC
:103DE000EFEDF2E06491EF01662359F0772767FD6C
:103DF000709581EF9AE10E94A2162196FE016491CE
:103E0000F3CF6AE070E081EF9AE1DF91CF911F91EB
:103E10000F910C94A216AF92BF92CF92DF92EF92C5
:103E2000FF920F931F93CF93DF935C01EB01FB0194
:103E300001900020E9F78F0101501109061B170BB3
:103E40006C01FAE0CF1AFEEFDF0AF60110826EE491
:103E500070E0CE010F9444A67C01009729F4F8018C
:103E60003197EC0FFD1F0DC060E270E00F9444A687
:103E7000EC0121966AE270E0C7010F9444A6FC01B0
:103E800031978DE081838AE082831382BE01C50170
:103E90008E509E4F0F944169F6018081882391F1E5
:103EA000E9E8F4E06491EF01662359F0772767FDB4
:103EB000709581EF9AE10E94A2162196FE0164910D
:103EC000F3CFE9ECF2E06491EF01662359F0772734
:103ED00067FD709581EF9AE10E94A2162196FE017E
:103EE0006491F3CF6AE070E081EF9AE1DF91CF91C6
:103EF0001F910F91FF90EF90DF90CF90BF90AF9008
:103F00000C94A216DF91CF911F910F91FF90EF902B
:103F1000DF90CF90BF90AF9008952F923F924F9235
:103F20005F926F927F928F929F92AF92BF92CF9249
:103F3000DF92EF92FF920F931F93CF93DF93CDB752
:103F4000DEB7CC55D1090FB6F894DEBF0FBECDBF9A
:103F50004C018C0101551D4F662339F0F801108288
:103F6000F401848181111DC015C0F801808188236E
:103F700009F4AFC0F401E955FD4FC080D180E28063
:103F8000F3800F948792C616D706E806F90608F460
:103F9000A0C0E4CFC40138D9F4018481882309F496
:103FA00098C07401F5E5EF0EF11CF70181818F9344
:103FB00080818F9380EC92E09F938F938E01015CC0
:103FC0001F4F1F930F930F94AAA60F900F900F905F
:103FD0000F900F900F90B12CF80101900020E9F79D
:103FE0003197E01BF10BBE1684F46801CB0CD11C99
:103FF000B7FCDA94F6018081992787FD90950F949C
:10400000E2A5F6018083B394E7CFFBE58F0E911C08
:1040100040E050E0BA01C4010F94CB63512CCE01B3
:1040200001966C0139EB632E32E0732E5E0191E252
:10403000A90EB11C40E050E0B601C4010F94186312
:104040001816DCF5412CF60101900020E9F73197B4
:10405000EC19FD094E1674F41601240C311C47FCB2
:104060003A94F101808190E00F94E2A5F101808300
:104070004394E9CF8A858E37E9F245E050E0B801F4
:10408000C6010F945FA6892BA9F61F930F937F9209
:104090006F92BF92AF920F94AAA6C5010E94A64844
:1040A00085EB92E00E9422490F900F900F900F90A5
:1040B0000F900F9055245394BDCF511004C08FEF33
:1040C0009FEFF70104C0F7018081918101969183F0
:1040D0008083C45ADF4F0FB6F894DEBF0FBECDBF4A
:1040E000DF91CF911F910F91FF90EF90DF90CF90D4
:1040F000BF90AF909F908F907F906F905F904F9008
:104100003F902F900895EF92FF920F931F93CF93BC
:10411000DF931F92CDB7DEB78C017C018AE0E81AED
:104120008EEFF80AC70169830F946464C7010F9486
:10413000AE64F801108211826981662309F4F1C02E
:104140008091A30D9091A40DA091A50DB091A60D05
:104150008093350E9093360EA093370EB093380EA1
:104160008091A70D9091A80DA091A90DB091AA0DD5
:104170008093310E9093320EA093330EB093340E91
:104180008091AB0D9091AC0DA091AD0DB091AE0DA5
:1041900080932D0E90932E0EA0932F0EB093300E81
:1041A0008091090D90E090932C0E80932B0E4091FE
:1041B000AF0D5091B00D6091B10D7091B20D409363
:1041C000270E5093280E6093290E70932A0EF70144
:1041D00080859185A285B3858093230E9093240ECC
:1041E000A093250EB093260E8091CB1A9091CC1AF5
:1041F0009093200E80931F0E8091CD1A9091CE1A2D
:104200009093220E8093210E8091C91A9091CA1A20
:1042100090931E0E80931D0E0E942B4C6093170EE0
:104220007093180E8093190E90931A0E8091070DBB
:104230009091080D90931C0E80931B0E8091ED0DB4
:104240008093020E8091EE0D9091EF0D9093040EED
:104250008093030E8091F00D9091F10D9093060ED6
:104260008093050E8091F20D9091F30D9093080EBE
:104270008093070E8091F40D9091F50D90930A0EA6
:104280008093090E8091F60D9091F70D90930C0E8E
:1042900080930B0E8091F80D9091F90D90930E0E76
:1042A00080930D0E8091FA0D9091FB0D9093100E5E
:1042B00080930F0E8091FC0D9091FD0D9093120E46
:1042C0008093110E8091FE0D9091FF0D9093140E2E
:1042D0008093130E8091000E9091010E9093160E14
:1042E0008093150EE9EAF2E064918F01662361F094
:1042F000772767FD709581EF9AE10E94A2160F5F04
:104300001F4FF8016491F2CF6AE070E081EF9AE10B
:104310000F90DF91CF911F910F91FF90EF900C9430
:10432000A2160F90DF91CF911F910F91FF90EF9008
:104330000895EF92FF920F931F93CF93DF93CDB722
:10434000DEB76F970FB6F894DEBF0FBECDBF8C01FE
:104350007C0186E7E80EF11CC80188589F4FF701E1
:1043600091838083E65CFD4F22E030E0318320833F
:10437000329670E07183608340E050E0BA010496A9
:104380000F94CB63F701808191812BE1FC0134967E
:10439000DE01159601900D922A95E1F7FC018281CC
:1043A00093819C838B8388E798E09A838983AE010D
:1043B0004F5F5F4F63EA79E0C8010E943F17CE016B
:1043C00001960E94A9166F960FB6F894DEBF0FBE35
:1043D000CDBFDF91CF911F910F91FF90EF90089586
:1043E000CF92DF92EF92FF920F931F93CF93DF93C1
:1043F000CDB7DEB76F970FB6F894DEBF0FBECDBF57
:104400008C016C0126E7C20ED11C88589F4FF60123
:1044100091838083E65CFD4F21E030E0318320838F
:104420007801FEE4EF1AFDEFFF0AF7011182108216
:1044300040E050E0BA0104960F94CB63F60180810E
:1044400091812BE1FC013496DE01159601900D92CD
:104450002A95E1F7FC01828193819C838B8388E715
:1044600098E09A838983AE014F5F5F4F63EA79E0FA
:10447000C8010E943F17CE0101960E94A916F701BC
:10448000808191816F960FB6F894DEBF0FBECDBFCD
:10449000DF91CF911F910F91FF90EF90DF90CF9020
:1044A0000895AF92BF92CF92DF92EF92FF920F9357
:1044B0001F93CF93DF93CDB7DEB76F970FB6F89406
:1044C000DEBF0FBECDBF8C017B01CE0101960E94E5
:1044D0009816F801E158FF4F80816801811104C0EE
:1044E00027E5C20ED11C03C088E7C80ED11C21E00D
:1044F000A701B6016C5F7F4FCE0105960F94A566AC
:10450000811136C0E3E8F4E064918F01662361F025
:10451000772767FD709581EF9AE10E94A2160F5FE1
:104520001F4FF8016491F2CFE3E9F2E064918F014B
:10453000662361F0772767FD709581EF9AE10E940D
:10454000A2160F5F1F4FF8016491F2CFB70181EF00
:104550009AE10F940E986AE070E081EF9AE10E9470
:10456000A216CE0101960E94A9168FEF9FEF3AC0C6
:10457000F801E353FE4F808191818A30910530F537
:104580009C012F5F3F4F318320832FE1289F7001D3
:10459000299FF00C1124F7E9EF0EF11CE00EF11E3B
:1045A0005C01B701C7014F960E94F41821E0A21ADE
:1045B000B1088FE1E81AF108EFEFAE16BE0689F7F1
:1045C000B601C80189569F4F0E94F418BE016F5F63
:1045D0007F4FC80188589F4F0E94F418CE01019662
:1045E0000E94A9166F960FB6F894DEBF0FBECDBF1E
:1045F000DF91CF911F910F91FF90EF90DF90CF90BF
:10460000BF90AF900895EF92FF920F931F93CF93B7
:10461000DF93EC01C353DE4F288139812115310529
:1046200029F121503109398328838C0109561F4F04
:10463000B80188589F4F0E94F418C80100E010E0AC
:10464000288139817C014FE1E40EF11C0217130728
:1046500038F40F5F1F4FB7010E94F418C701F0CF65
:1046600081E090E0232B21F080E002C08FEF9FEFEC
:10467000DF91CF911F910F91FF90EF9008958F924E
:104680009F92AF92BF92CF92DF92EF92FF920F93E1
:104690001F93CF93DF93EC011092BB0D8091380DE7
:1046A0009091390D01969093390D8093380DD0D2A9
:1046B0008EE892E00E9422490F9416767E018FEEDA
:1046C000E81A8DEFF80AF70180818E010A501E4F1B
:1046D0008823D9F1C8010F94AE64F701808181501D
:1046E0008083BE01FDE88F9F600D711D11246A5EFD
:1046F0007D4F21E041E0CE010E946C1AF7018081DC
:10470000FE0194E0899FE00DF11D1124EE5EFD4F46
:104710004081518162817381FE01E555FD4F4083E7
:10472000518362837383C8010F94CB63CE01DF9101
:10473000CF911F910F91FF90EF90DF90CF90BF909E
:10474000AF909F908F900C94E5190F94A776C801B5
:104750000F94AE641A8220E030E045E050E06AE059
:1047600070E083E791E10E94FD3A8BE892E00E94BD
:1047700022490F94167686E892E00E942249109210
:10478000CC1A1092CB1A1092CE1A1092CD1A109207
:10479000CA1A1092C91A1092580E1092570E1092FF
:1047A000560E60913E0D70913F0D8091400D90919D
:1047B000410D2CE330E040E050E00F94FA9F30933D
:1047C0003B0D20933A0D70933D0D60933C0DC090CE
:1047D0007C17D0907D17E0907E17F0907F17209186
:1047E0002A0D30912B0D40912C0D50912D0D609183
:1047F0002E0D70912F0D8091300D9091310D0F94F1
:10480000519C4B015C012091C0173091C117409120
:10481000C2175091C3176091C4177091C51780914A
:10482000C6179091C7170F94929CA70196010F94F9
:104830007E9B9B01AC01C501B4010F949E9A0F941D
:10484000E69B20932A0D30932B0D40932C0D509313
:104850002D0D60932E0D70932F0D8093300D90933E
:10486000310D2091220D3091230D4091240D509156
:10487000250D6091260D7091270D8091280D909146
:10488000290D0F94519C4B015C012091B817309178
:10489000B9174091BA175091BB176091BC1770912E
:1048A000BD178091BE179091BF170F94929CA701DE
:1048B00096010F947E9B9B01AC01C501B4010F943E
:1048C0009E9A0F94E69B2093220D3093230D4093E4
:1048D000240D5093250D6093260D7093270D809322
:1048E000280D9093290D20911A0D30911B0D4091A8
:1048F0001C0D50911D0D60911E0D70911F0D80912A
:10490000200D9091210D0F94519C6B017C01209101
:10491000B0173091B1174091B2175091B317609111
:10492000B4177091B5178091B6179091B7170F947F
:10493000929C20918017309181174091821750915D
:1049400083170F947E9B9B01AC01C701B6010F94A6
:104950009E9A0F94E69B20931A0D30931B0D409363
:104960001C0D50931D0D60931E0D70931F0D8093B1
:10497000200D9093210DC0908817D0908917E0905A
:104980008A17F0908B172091120D3091130D4091E2
:10499000140D5091150D6091160D7091170D8091A9
:1049A000180D9091190D0F94519C4B015C012091B1
:1049B000A8173091A9174091AA175091AB17609191
:1049C000AC177091AD178091AE179091AF170F94FF
:1049D000929CA70196010F947E9B9B01AC01C5019F
:1049E000B4010F949E9A0F94E69B2093120D30937E
:1049F000130D4093140D5093150D6093160D709385
:104A0000170D8093180D9093190D20910A0D309178
:104A10000B0D40910C0D50910D0D60910E0D70918C
:104A20000F0D8091100D9091110D0F94519C4B0121
:104A30005C012091A0173091A1174091A2175091CD
:104A4000A3176091A4177091A5178091A617909154
:104A5000A7170F94929CA70196010F947E9B9B0130
:104A6000AC01C501B4010F949E9A0F94E69B20936C
:104A70000A0D30930B0D40930C0D50930D0D609368
:104A80000E0D70930F0D8093100D9093110D1092D9
:104A9000C0171092C1171092C2171092C31710922C
:104AA000C4171092C5171092C6171092C71710920C
:104AB000B8171092B9171092BA171092BB1710922C
:104AC000BC171092BD171092BE171092BF1710920C
:104AD000B0171092B1171092B2171092B31710922C
:104AE000B4171092B5171092B6171092B71710920C
:104AF000A8171092A9171092AA171092AB1710922C
:104B0000AC171092AD171092AE171092AF1710920B
:104B1000A0171092A1171092A2171092A31710922B
:104B2000A4171092A5171092A6171092A71790D04D
:104B30008AE792E00E94224980911B178823F9F0AE
:104B400010921B17C091090DD0E0CC0FDD1FC5538B
:104B5000D54E68817981882777FD8095982F0F94AD
:104B6000579C2091B2023091B3024091B40250910F
:104B7000B5020F94069E181614F419821882DF915C
:104B8000CF911F910F91FF90EF90DF90CF90BF904A
:104B9000AF909F908F9008958D559D4FFC0160813F
:104BA000718182819381089585559D4FFC016081BB
:104BB0007181828193810895EF92FF920F931F93E9
:104BC000CF93DF931F92CDB7DEB78C017B01460FE9
:104BD000F70161917F01F8018081918149830F94F0
:104BE000A8ABF801808191810196918380834981EE
:104BF0004E11EECF0F90DF91CF911F910F91FF904B
:104C0000EF900895EF92FF920F931F93CF93DF934E
:104C10001F92CDB7DEB78C017B01460FF801808172
:104C2000918149830F94A0ABF70181937F01F80133
:104C30008081918101969183808349814E11EECFCD
:104C40000F90DF91CF911F910F91FF90EF900895FA
:104C50000F931F93CF93DF93CDB7DEB768970FB64F
:104C6000F894DEBF0FBECDBF80E390E3A0E3B0E0D9
:104C70008D839E83AF83B88704E610E0188F0F8B77
:104C800044E0BE016B5F7F4FCE01479695DF40E168
:104C90006CE777E1CE0147968FDF40E16CE877E182
:104CA000CE01479689DF40E16CE677E1CE01479679
:104CB00083DF44E064E677E1CE0147967DDF44E0A0
:104CC00060E677E1CE01479677DF44E068E677E17A
:104CD000CE01479671DF44E060E577E1CE0147966B
:104CE0006BDF44E06CE977E1CE01479665DF44E095
:104CF0006CE577E1CE0147965FDF44E068E577E158
:104D0000CE01479659DF44E064E577E1CE0147964E
:104D100053DF4CE067E87DE0CE0147964DDF87ED3D
:104D200090E09E8B8D8B8DE290E09C8B8B8B1A8A12
:104D3000198A80EF90E0988B8F8786E490E09E87B9
:104D40008D871C861B8642E0BE016B5E7F4FCE01C5
:104D5000479632DF42E0BE016D5E7F4FCE0147963F
:104D60002BDF42E0BE016F5E7F4FCE01479624DF0E
:104D700042E0BE01615F7F4FCE0147961DDF42E0FA
:104D8000BE01635F7F4FCE01479616DF42E0BE0152
:104D9000655F7F4FCE0147960FDF44E064E77DE01B
:104DA000CE01479609DF44E06BE272E0CE01479600
:104DB00003DF44E063E372E0CE014796FDDE44E0AA
:104DC0006BE372E0CE014796F7DE42E066EE7DE0EF
:104DD000CE014796F1DE42E06AEE7DE0CE014796D5
:104DE000EBDE42E068EE7DE0CE014796E5DE42E094
:104DF00064EE7DE0CE014796DFDE42E066ED7DE0C9
:104E0000CE014796D9DE42E06AED7DE0CE014796BD
:104E1000D3DE42E068ED7DE0CE014796CDDE42E094
:104E200064ED7DE0CE014796C7DE42E06EED7DE0A9
:104E3000CE014796C1DE42E062EE7DE0CE014796AC
:104E4000BBDE42E060EE7DE0CE014796B5DE42E09B
:104E50006CED7DE0CE014796AFDE42E06EEC7DE08A
:104E6000CE014796A9DE42E062ED7DE0CE01479695
:104E7000A3DE42E060ED7DE0CE0147969DDE42E09C
:104E80006CEC7DE0CE01479697DE44E061E173E093
:104E9000CE01479691DE44E069E073E0CE0147968B
:104EA0008BDE44E061E073E0CE01479685DE44E0AE
:104EB00065E173E0CE0147967FDE44E06DE073E08C
:104EC000CE01479679DE44E065E073E0CE01479677
:104ED00073DE42E064E47DE0CE0147966DDE42E0A1
:104EE00068E37DE0CE01479667DE42E066E37DE061
:104EF000CE01479661DE42E064E37DE0CE01479655
:104F00005BDE42E062E47DE0CE01479655DE42E0A2
:104F100062E37DE0CE0147964FDE80E290E09A8723
:104F2000898742E0BE01675F7F4FCE01479644DE2E
:104F300042E060E67EE0CE0147963EDE44E06CE56E
:104F40007EE0CE01479638DE42E06AE57EE0CE01A3
:104F5000479632DE42E06CE37DE0CE0147962CDEE0
:104F600042E06AE37DE0CE01479626DE48E06AE251
:104F70007DE0CE01479620DE48E062E27DE0CE0192
:104F800047961ADE48E06AE17DE0CE01479614DEDE
:104F900048E062E17DE0CE0147960EDE48E06AE03F
:104FA0007DE0CE01479608DE42E06EE672E0CE017B
:104FB000479602DE42E060E772E0CE014796FCDDF4
:104FC00044E065E37EE0CE014796F6DD44E061E330
:104FD0007EE0CE014796F0DD44E06DE27EE0CE015A
:104FE0004796EADD42E06BE27EE0CE014796E4DDE3
:104FF00044E067E27EE0CE014796DEDD44E063E216
:105000007EE0CE014796D8DD42E061E27EE0CE014F
:105010004796D2DD42E06FE17EE0CE014796CCDDDF
:1050200042E06DE17EE0CE014796C6DD42E06BE1F5
:105030007EE0CE014796C0DD44E067E17EE0CE0130
:105040004796BADD41E062E07EE0CE014796B4DDEE
:1050500042E063E07EE0CE014796AEDD42E065E0EF
:105060007EE0CE014796A8DD42E067E07EE0CE011B
:105070004796A2DD42E069E07EE0CE0147969CDDE6
:1050800042E06BE07EE0CE01479696DD42E06DE0C7
:105090007EE0CE01479690DD42E06FE07EE0CE01FB
:1050A00047968ADD42E061E17EE0CE01479684DDED
:1050B00042E063E17EE0CE0147967EDD42E065E1BD
:1050C0007EE0CE01479678DD86E591E3A2E3B0E08D
:1050D00089839A83AB83BC83188F0F8B44E0BE0116
:1050E0006F5F7F4FCE01479667DDEFEAFAE064918C
:1050F0008F01662361F0772767FD709581EF9AE154
:105100000E94A2160F5F1F4FF8016491F2CFEFE9E2
:10511000FAE064918F01662361F0772767FD70954F
:1051200081EF9AE10E94A2160F5F1F4FF801649170
:10513000F2CF6AE070E081EF9AE10E94A2166896D1
:105140000FB6F894DEBF0FBECDBFDF91CF911F9198
:105150000F9108950F931F93CF93DF93CFEADAE077
:10516000FE0164918E01662361F0772767FD7095DB
:1051700081EF9AE10E94A2160F5F1F4FF801649120
:10518000F2CFEFE8FAE064918F01662361F07727B0
:1051900067FD709581EF9AE10E94A2160F5F1F4F85
:1051A000F8016491F2CF6AE070E081EF9AE10E9429
:1051B000A216FE0164910FEA1AE0662361F07727D8
:1051C00067FD709581EF9AE10E94A2160F5F1F4F55
:1051D000F8016491F2CF40917C1750917D17609156
:1051E0007E1770917F1787E89AE00E943A484091B5
:1051F000801750918117609182177091831784E80E
:105200009AE00E943A484091841750918517609126
:1052100086177091871781E89AE00E943A4840917A
:1052200088175091891760918A1770918B178EE7B4
:105230009AE00E943A4863EA79E081EF9AE10F949C
:105240000E986AE070E081EF9AE10E94A216FE01DA
:1052500064910FEA1AE0662361F0772767FD709585
:1052600081EF9AE10E94A2160F5F1F4FF80164912F
:10527000F2CFE4E6FAE064918F01662361F07727CC
:1052800067FD709581EF9AE10E94A2160F5F1F4F94
:10529000F8016491F2CF6AE070E081EF9AE10E9438
:1052A000A216FE0164910FEA1AE0662361F07727E7
:1052B00067FD709581EF9AE10E94A2160F5F1F4F64
:1052C000F8016491F2CF40918C1750918D17609145
:1052D0008E1770918F178BE59AE00E943A484091A3
:1052E000901750919117609192177091931788E5DC
:1052F0009AE00E943A484091941750919517609116
:1053000096177091971785E59AE00E943A48409168
:1053100098175091991760919A1770919B1782E591
:105320009AE00E943A4863EA79E081EF9AE10F94AB
:105330000E986AE070E081EF9AE10E94A216FE01E9
:1053400064910FEA1AE0662361F0772767FD709594
:1053500081EF9AE10E94A2160F5F1F4FF80164913E
:10536000F2CFE4E3FAE064918F01662361F07727DE
:1053700067FD709581EF9AE10E94A2160F5F1F4FA3
:10538000F8016491F2CF6AE070E081EF9AE10E9447
:10539000A216FE0164910FEA1AE0662361F07727F6
:1053A00067FD709581EF9AE10E94A2160F5F1F4F73
:1053B000F8016491F2CF40916C1750916D17609194
:1053C0006E1770916F178BE29AE00E9482484091AD
:1053D000701750917117609172177091731788E26E
:1053E0009AE00E948248409174175091751760911D
:1053F00076177091771785E29AE00E948248409173
:1054000078175091791760917A1770917B1782E223
:105410009AE00E94824863EA79E081EF9AE10F9472
:105420000E986AE070E081EF9AE10E94A216FE01F8
:1054300064910FEA1AE0662361F0772767FD7095A3
:1054400081EF9AE10E94A2160F5F1F4FF80164914D
:10545000F2CFEDEEF9E064918F01662361F07727DA
:1054600067FD709581EF9AE10E94A2160F5F1F4FB2
:10547000F8016491F2CF6AE070E081EF9AE10E9456
:10548000A216FE0164910FEA1AE0662361F0772705
:1054900067FD709581EF9AE10E94A2160F5F1F4F82
:1054A000F8016491F2CF40916417509165176091B3
:1054B00066177091671784EE99E00E943A48409110
:1054C000601750916117609162177091631781EEB8
:1054D00099E00E943A4863EA79E081EF9AE10F94FB
:1054E0000E986AE070E081EF9AE10E94A216FE0138
:1054F00064910FEA1AE0662361F0772767FD7095E3
:1055000081EF9AE10E94A2160F5F1F4FF80164918C
:10551000F2CFEEE2F9E064918F01662361F0772724
:1055200067FD709581EF9AE10E94A2160F5F1F4FF1
:10553000F8016491F2CF6AE070E081EF9AE10E9495
:10554000A216FE0164910FEA1AE0662361F0772744
:1055500067FD709581EF9AE10E94A2160F5F1F4FC1
:10556000F8016491F2CF40916817509169176091EA
:105570006A1770916B1785E299E00E943A48409152
:10558000501750915117609152177091531782E242
:1055900099E00E943A4840919C1750919D17609164
:1055A0009E1770919F178FE199E00E948248409169
:1055B0005C1750915D1760915E1770915F178CE1D9
:1055C00099E00E943A4840915817509159176091BC
:1055D0005A1770915B1789E199E00E943A4840910F
:1055E000541750915517609156177091571786E1CF
:1055F00099E00E943A4863EA79E081EF9AE10F94DA
:105600000E986AE070E081EF9AE10E94A216FE0116
:1056100064910FEA1AE0662361F0772767FD7095C1
:1056200081EF9AE10E94A2160F5F1F4FF80164916B
:10563000F2CFE4E0F9E064918F01662361F077270F
:1056400067FD709581EF9AE10E94A2160F5F1F4FD0
:10565000F8016491F2CF6AE070E081EF9AE10E9474
:10566000A216FE0164910FEA1AE0662361F0772723
:1056700067FD709581EF9AE10E94A2160F5F1F4FA0
:10568000F8016491F2CF4091870D5091880D60919F
:10569000890D70918A0D8BEF98E00E943A484091F5
:1056A0008B0D50918C0D60918D0D70918E0D88EF4A
:1056B00098E00E943A4840918F0D5091900D609172
:1056C000910D7091920D85EF98E00E943A4863EA3F
:1056D00079E081EF9AE10F940E986AE070E081EF33
:1056E0009AE10E94A216FE0164910FEA1AE0662375
:1056F00061F0772767FD709581EF9AE10E94A2160D
:105700000F5F1F4FF8016491F2CFE7EEF8E064916C
:105710008F01662361F0772767FD709581EF9AE12D
:105720000E94A2160F5F1F4FF8016491F2CF6AE04A
:1057300070E081EF9AE10E94A216FE0164910FEAE7
:105740001AE0662361F0772767FD709581EF9AE193
:105750000E94A2160F5F1F4FF8016491F2CF409193
:1057600011035091120360911303709114038AED99
:1057700098E00E943A486091090370910A03809171
:105780000B0390910C030F94F18CAB01BC0187EDDE
:1057900098E00E943A486091010370910203809161
:1057A0000303909104030F94FD8CAB01BC0184EDC5
:1057B00098E00E943A484091150350911603609179
:1057C00017037091180384EC98E00E943A486091A6
:1057D0000D0370910E0380910F03909110030F94AD
:1057E000F18CAB01BC0181EC98E00E943A486091D9
:1057F00005037091060380910703909108030F94AD
:10580000FD8CAB01BC018EEB98E00E943A4863EA44
:1058100079E081EF9AE10F940E986AE070E081EFF1
:105820009AE10E94A216FE0164910FEA1AE0662333
:1058300061F0772767FD709581EF9AE10E94A216CB
:105840000F5F1F4FF8016491F2CFE0EBF8E0649135
:105850008F01662361F0772767FD709581EF9AE1EC
:105860000E94A2160F5F1F4FF8016491F2CF6AE009
:1058700070E081EF9AE10E94A216FE0164910FEAA6
:105880001AE0662361F0772767FD709581EF9AE152
:105890000E94A2160F5F1F4FF8016491F2CF409152
:1058A0002B0250912C0260912D0270912E028CEAF5
:1058B00098E00E943A48409133025091340260913E
:1058C00035027091360288EA98E00E943A48409189
:1058D0003B0250913C0260913D0270913E0284EA8D
:1058E00098E00E943A484091740D5091750D609176
:1058F000760D7091770D8BE998E00E943A4863EA43
:1059000079E081EF9AE10F940E986AE070E081EF00
:105910009AE10E94A216FE0164910FEA1AE0662342
:1059200061F0772767FD709581EF9AE10E94A216DA
:105930000F5F1F4FF8016491F2CFE1E9F8E0649145
:105940008F01662361F0772767FD709581EF9AE1FB
:105950000E94A2160F5F1F4FF8016491F2CF6AE018
:1059600070E081EF9AE10E94A216FE0164910FEAB5
:105970001AE0662361F0772767FD709581EF9AE161
:105980000E94A2160F5F1F4FF8016491F2CF409161
:10599000EA0D5091EB0D662757FD6095762F85E84F
:1059A00098E00E9482484091E80D5091E90D6627E9
:1059B00057FD6095762F86E798E00E9482484091D7
:1059C000E40D5091E50D662757FD6095762F8AE628
:1059D00098E00E9482484091E60D5091E70D6627BD
:1059E00057FD6095762F8CE598E00E9482486CE721
:1059F00073E081EF9AE10F940E986AE070E081EF16
:105A00009AE10E94A216FE0164910FEA1AE0662351
:105A100061F0772767FD709581EF9AE10E94A216E9
:105A20000F5F1F4FF8016491F2CFE2E5F8E0649157
:105A30008F01662361F0772767FD709581EF9AE10A
:105A40000E94A2160F5F1F4FF8016491F2CF6AE027
:105A500070E081EF9AE10E94A216FE0164910FEAC4
:105A60001AE0662361F0772767FD709581EF9AE170
:105A70000E94A2160F5F1F4FF8016491F2CF409170
:105A8000E20D5091E30D662757FD6095762F86E471
:105A900098E00E9482484091E00D5091E10D662708
:105AA00057FD6095762F87E398E00E9482484091E9
:105AB000DC0D5091DD0D662757FD6095762F8BE24A
:105AC00098E00E9482484091DE0D5091DF0D6627DC
:105AD00057FD6095762F8DE198E00E9482486CE733
