:100000000C9476140C94A7140C94A7140C94A714B5
:100010000C94A7140C94A7140C94A7140C94A71474
:100020000C94A7140C94A7140C94A7140C94A71464
:100030000C94A7140C94A7140C94A7140C94A71454
:100040000C94A7140D94136F0C94A7140C94A7147C
:100050000C94A7140C94A7140D94098C0D94CE92B3
:100060000C94A7140D94FE960D9434970C94A71439
:100070000C94A7140C94A7140C94A7140C94A71414
:100080000C94A7140C94A7140C94A7140C94A71404
:100090000C94A7140C94A7140C94A7140C946A1530
:1000A0000C94A7140C94A7140C94A7140C94A714E4
:1000B0000C94A7140C94A7140C94A7140C94A714D4
:1000C0000C94A7140C94A7140C94A7140D94A9973E
:1000D0000D94DF970C94A7140C94A7140C94A714F8
:1000E0000C94A7140301C9002501DF002F01ED00C6
:1000F0003B0121013301EF0017011B01E900F5006D
:1001000005012D01D300DD00E5001101DB002B010D
:100110003501E3000701D300C700D7000D01CB0074
:10012000E100D1000901FF00CD00EB002301370100
:100130001901F900F100F700CF00CD003101FB00FB
:100140003901084AD73B3BCE016E84BCBFFDC12FAD
:100150003D6C74319ABD56833DDA3D00C77F11BEB8
:10016000D9E4BB4C3E916BAAAABE000000803F05BB
:10017000A84CCDB2D44EB93836A9020C50B99186EC
:1001800088083CA6AAAA2ABE000000803F000D9461
:100190007D940D949E8C0D94BD940D94F7940D94C4
:1001A000E4940D94AF940D949B940D94A7950D94A5
:1001B00087940D9411980D9446940D942C940D945D
:1001C000C78C0D94C0940D9469940D9434940D943F
:1001D00061980D9409940D94C4940D94EE8C0D9433
:1001E0000E8D0D94DC940D9466970D940E940D94E1
:1001F000E0940D94D6940D94EE940D94A3320D9446
:10020000B9940D94BB950D94918C0D9418940D9404
:1002100073940D94B3940D948E950D9491940D94C4
:1002200099950D943C940D948B320D945D970D949B
:10023000168D0D94D2940D9404940D94C1690D946F
:1002400017960D940A8D0D94C8940D94BA8C0D9444
:1002500008980D9438960D9450940D9422940D9412
:10026000E18C0D94EA940D940C8D0D945A940D9498
:10027000CE940D94F2940D94088D4D38342058206E
:1002800059205A2045004D313037005430004D314F
:1002900030370043616E6E6F7420656E7465722036
:1002A0007375626469723A20005341564544205088
:1002B00052494E54004D3234004D323320257300E4
:1002C0006175746F25692E67006572726F72207791
:1002D000726974696E6720746F2066696C65004E80
:1002E0006F74205344207072696E74696E67002FBA
:1002F000005344207072696E74696E67206279746D
:100300006520002E0044656C6574696F6E2066611F
:10031000696C65642C2046696C653A200046696CFE
:10032000652064656C657465643A002E006F7065C5
:100330006E206661696C65642C2046696C653A20A4
:100340000057726974696E6720746F2066696C6506
:100350003A20002E006F70656E206661696C6564DE
:100360002C2046696C653A20002E006F70656E2067
:100370006661696C65642C2046696C653A200046AC
:10038000696C652073656C656374656400205369EE
:100390007A653A200046696C65206F70656E656409
:1003A0003A20002E006F70656E206661696C65648E
:1003B0002C2046696C653A20004E6F772066726586
:1003C00073682066696C653A20004E6F7720646F11
:1003D000696E672066696C653A20002220706F7331
:1003E000002220706172656E743A220053554252A9
:1003F0004F5554494E452043414C4C20746172671F
:1004000065743A2200747279696E6720746F206394
:10041000616C6C207375622D67636F64652066691B
:100420006C6573207769746820746F6F206D616EDE
:1004300079206C6576656C732E204D4158206C6573
:1004400076656C2069733A005344206361726420BE
:100450006F6B006F70656E526F6F74206661696CB0
:10046000656400766F6C756D652E696E69742066C3
:1004700061696C656400534420696E69742066612B
:10048000696C006563686F3A004572726F723A007A
:10049000535543434553530056616C756573206F44
:1004A0007574206F662072616E67650056616C75A9
:1004B0006573206F7574206F662072616E676500CA
:1004C00056616C756573206F7574206F662072615C
:1004D0006E67650056616C756573206F7574206F6B
:1004E000662072616E676500535543434553530060
:1004F00056616C756573206F7574206F662072612C
:100500006E67650056616C756573206F7574206F3A
:10051000662072616E67650056616C756573206F49
:100520007574206F662072616E67650056616C7528
:100530006573206F7574206F662072616E67650049
:1005400053544154495354494353205245534554FD
:100550000048617264636F6465642043616C696222
:1005600020616E64205049442044656661756C7456
:100570002053657474696E6773204C6F61646564A1
:100580000048617264636F646564204465666175E8
:100590006C742053657474696E6773204C6F61646A
:1005A00065640053746F7265642073657474696E5A
:1005B000677320726574726965766564002C2073B8
:1005C000617665645F66656564726174653A200092
:1005D0002C2073617665645F66616E6C617965720B
:1005E0003A20002C2073617665645F74656D7062DB
:1005F00065643A20002C2073617665645F74656DD4
:1006000070303A20002C2073617665645F74656DEC
:1006100070313A20002C2073617665645F66696CE6
:1006200065706F736974696F6E3A20002C20736176
:100630007665645F655F706F736974696F6E3A2089
:10064000002C2073617665645F746F6F6C5F61630B
:10065000746976653A20002C2073617665645F7A50
:100660005F706F736974696F6E3A20002C2073613C
:100670007665645F795F706F736974696F6E3A2035
:10068000002C2073617665645F785F706F736974A6
:10069000696F6E3A200053415645205052494E54DE
:1006A000204C4F473A00204D696E75746573203AAF
:1006B00000204C617374207072696E742074696DCF
:1006C000652D3E20486F757273203A004C6173743B
:1006D000207072696E74206475726174696F6E0047
:1006E0002C205468697264204944206E756D6265DF
:1006F0007220002C205365636F6E64204944206E85
:10070000756D6265723A20002046697273742049E3
:1007100044206E756D6265723A2000554920496E1D
:10072000666F726D6174696F6E2053657269616C7A
:10073000204E756D6265723A00206D2C2045312087
:100740007072696E742064697374616E63653A20B7
:1007500000206B6D2C204530207072696E7420640F
:10076000697374616E63653A2000206B6D2C2059AB
:10077000207072696E742064697374616E63653A87
:100780002000206B6D2C205831207072696E74200F
:1007900064697374616E63653A200020432C0A20FB
:1007A0005830207072696E742064697374616E636E
:1007B000653A200020432C206D61782074656D70AF
:1007C00020423A200020432C206D61782074656D12
:1007D0007020523A20002C206D61782074656D7075
:1007E000204C3A2000682C207072696E7473206669
:1007F000696E69736865643A20002C207072696EB6
:1008000074696E672074696D653A200020707269A2
:100810006E74733A200053544154533A0020432CD1
:1008200020525F5052494E543A200020432C20520F
:100830005F4245443A200020432C20525F52454DF0
:100840004F56453A200020525F494E534552543A84
:10085000200054656D70202843293A0020432C2045
:100860004C5F5052494E543A200020432C204C5F9C
:100870004245443A200020432C204C5F52454D4FC6
:1008800056453A2000204C5F494E534552543A2079
:100890000054656D70202843293A00205A20707258
:1008A0006F626500205A2000205920002058200047
:1008B0004F66667365747320286D6D293A00204475
:1008C00000204900202D204D333031205249474827
:1008D00054205000204400204900204D3330312066
:1008E0004C45465420500050494420736574746947
:1008F0006E67733A00205A0020590020204D323094
:1009000036205800486F6D65206F666673657420E9
:10091000286D6D293A00204500205A0020580020FB
:10092000420020540020204D3230352053004164D5
:1009300076616E636564207661726961626C65736D
:100940003A20533D4D696E20666565647261746539
:1009500020286D6D2F73292C20543D4D696E207415
:10096000726176656C2066656564726174652028C5
:100970006D6D2F73292C20423D6D696E696D756D0B
:10098000207365676D656E742074696D6520286DD0
:1009900073292C20583D6D6178696D756D2058590B
:1009A000206A65726B20286D6D2F73292C20205AC8
:1009B0003D6D6178696D756D205A206A65726B2096
:1009C000286D6D2F73292C2020453D6D6178696D50
:1009D000756D2045206A65726B20286D6D2F732917
:1009E0000020540020204D323034205300416363F6
:1009F000656C65726174696F6E3A20533D61636323
:100A0000656C65726174696F6E2C20543D726574FB
:100A10007261637420616363656C65726174696F90
:100A20006E00204500205A0020590020204D323011
:100A3000312058004D6178696D756D2041636365A3
:100A40006C65726174696F6E20286D6D2F73322929
:100A50003A00204500205A0020590020204D323015
:100A6000332058004D6178696D756D206665656449
:100A7000726174657320286D6D2F73293A002045CB
:100A800000205A0020590020204D393220580053B0
:100A9000746570732070657220756E69743A0053C6
:100AA000657474696E67732053746F726564006552
:100AB00063686F3A005072696E7465722068616C89
:100AC0007465642E206B696C6C28292063616C6CE2
:100AD000656421006F6B00526573656E643A200097
:100AE000486F74656E64206F6666736574733A0050
:100AF0005A204F6666736574203A20007A5F6D61F4
:100B0000783A20007A5F6D696E3A20005A204F666D
:100B100066736574005A204F6666736574206F6B48
:100B2000004E6F74207072696E74207265636F7608
:100B3000657279207570005072696E7420726563F9
:100B40006F7665727920757000486F74656E6420E9
:100B50006F6666736574733A007A5F6D696E3A20EA
:100B600000795F6D61783A2000785F6D61783A2096
:100B700000785F6D696E3A2000205A3A0020593A99
:100B80000020436F756E7420583A200020453A00CB
:100B9000205A3A0020593A00583A004649524D57D7
:100BA0004152455F4E414D453A4D61726C696E2030
:100BB00056313B20537072696E7465722F67726292
:100BC0006C206D617368757020666F722067656E4A
:100BD00036204649524D574152455F55524C3A686E
:100BE000747470733A2F2F6769746875622E636F1F
:100BF0006D2F4572696B5A616C6D2F4D61726C6916
:100C00006E2F2050524F544F434F4C5F5645525316
:100C1000494F4E3A312E30204D414348494E455FB1
:100C2000545950453A4D656E64656C204558545290
:100C3000554445525F434F554E543A32205555491D
:100C4000443A30303030303030302D303030302D8C
:100C5000303030302D303030302D3030303030309A
:100C60003030303030300A0020423A0020453A001F
:100C7000543A0020573A0020453A00543A002042A6
:100C8000403A0020403A00202F003A002054002033
:100C90002F0020423A00202F006F6B20543A000AA8
:100CA0000A005374616E6461726420446576696100
:100CB00074696F6E3A20000A004D65616E3A20003B
:100CC0000A002020207A3A200000793A2000783A61
:100CD00020003F537065636966696564206E756DB9
:100CE000626572206F66206C65677320696E206D87
:100CF0006F76656D656E74206E6F7420706C6175B3
:100D00007361626C652E0A003F53706563696669A2
:100D10006564205920706F736974696F6E206F75F8
:100D200074206F662072616E67652E0A003F5370F3
:100D300065636966696564205820706F73697469BA
:100D40006F6E206F7574206F662072616E67652EFE
:100D50000A003F5370656369666965642073616D5D
:100D6000706C652073697A65206E6F7420706C6199
:100D7000757361626C652E0A0046756C6C20737524
:100D800070706F72742061743A20687474703A2FB6
:100D90002F33647072696E74626F6172642E636F58
:100DA0006D2F666F72756D2E7068700A004D343845
:100DB000205A2D50726F62652052657065617461B2
:100DC00062696C69747920746573742E20202056D2
:100DD000657273696F6E20322E30300A003F56659F
:100DE00072626F7365204C6576656C206E6F74203F
:100DF000706C61757361626C652E0A002569206DE7
:100E0000696E2C20256920736563004732382058AD
:100E10003020593000456E642066696C65206C692D
:100E2000737400426567696E2066696C65206C6941
:100E30007374000A00205A3A200020593A200020FA
:100E4000583A2000426564000A0020616E746968A7
:100E50006F726172690A3A200020686F726172696C
:100E60000A20002F3800766F6C74657320002056BE
:100E70006F6C74657320636172676F6C20333A2006
:100E80000020616E7469686F726172690A3A2000AD
:100E900020686F726172690A20002F3800766F6CCB
:100EA000746573200020566F6C74657320636172E3
:100EB000676F6C20323A200020616E7469686F722F
:100EC0006172690A3A200020686F726172690A20B3
:100ED000002F3800766F6C746573200020566F6C9D
:100EE00074657320636172676F6C20313A20000A69
:100EF0000020647A333A200020647A323A200020BD
:100F0000647A313A20000A00207A633A2000543093
:100F100000486F6D6520582F59206265666F7265B5
:100F2000205A000A00207A3A200020793A20002036
:100F3000783A200042656400486F6D6520582F594B
:100F4000206265666F7265205A0045787472756418
:100F50006572206163746976653A20002200556EDF
:100F60006B6E6F776E20636F6D6D616E643A2022D9
:100F700000256920686F757273202569206D696E80
:100F80007574657300446F6E65207072696E746964
:100F90006E672066696C65007061757365206465B5
:100FA000746563746564200A0047363900507269BD
:100FB0006E7465722073746F7070656420647565FB
:100FC00020746F206572726F72732E2046697820CC
:100FD000746865206572726F7220616E642075732B
:100FE00065204D39393920746F20726573746172D0
:100FF000742E202854656D70657261747572652059
:1010000069732072657365742E205365742069744A
:101010002061667465722072657374617274696EA2
:101020006729006F6B004E6F204C696E65204E750E
:101030006D626572207769746820636865636B739D
:10104000756D2C204C617374204C696E653A2000DC
:101050004E6F20436865636B73756D2077697468A4
:10106000206C696E65206E756D6265722C204C6116
:101070007374204C696E653A2000636865636B7316
:10108000756D206D69736D617463682C204C61739C
:1010900074204C696E653A20004C696E65204E756F
:1010A0006D626572206973206E6F74204C61737479
:1010B000204C696E65204E756D6265722B312C2057
:1010C0004C617374204C696E653A20004D313130AB
:1010D000004D383420582059205A2045005375724D
:1010E00066696E672030200A0043616C6962726134
:1010F00074696F6E205375636365737366756C2CCA
:1011000020676F696E67206261636B20746F206D6A
:1011100061696E206D656E75200A0054300025648B
:10112000206974656D73002564206974656D7300B2
:101130002564206974656D73002534643A252E3268
:101140006468202F20256467002564206974656D1C
:101150007300526561647920746F20496E73657203
:10116000742F52656D6F7665200A0074656D70206E
:101170006F6B200A00256425250025336420256334
:1011800043002533642025634300253364256343EE
:10119000202F2025336425634300253364256343D2
:1011A000202F2025336425634300253364256343C2
:1011B000202F202533642563430025203364202518
:1011C000250025642068202564206D0025203364D7
:1011D0002025250025326420256343002533642023
:1011E0002563430025336420256343005265616411
:1011F0007920746F20496E736572742F52656D6F1C
:101200007665200A0074656D70206F6B200A0025DA
:101210003364202563430025336420256343002085
:1012200053544F50205052494E54200A00473238F0
:10123000205830205930004D333500526573756D9C
:1012400065206465746563746564200A00473730FF
:1012500000EFBFBD524553554D4521200A00EFBF59
:10126000BD504155534521200A0025336420256394
:101270004300253364202563430025336420256320
:101280004300253364202563430025336420256310
:101290004300253364202563430025336420256300
:1012A00043002533642025634300253364202563F0
:1012B00043005052494E542053455454494E4753CD
:1012C000200A00446F6E6520736176696E67206640
:1012D000696C652E006F6B004D32390054652070CB
:1012E000696C6C650073746172740030312D312E3D
:1012F000322E325243002200656E717565696E6749
:101300002022002200656E717565696E67202200DB
:10131000253364202563430025336420256343007F
:10132000456E74657220696E207075726765206DF8
:101330006F6465200A0053757266696E67203120FC
:101340000A0053757266696E672030200A004733C1
:101350003400494E464F3A204245442043414C49CF
:1013600042202D200053757266696E672030200A76
:10137000004732382058302059300054300053751F
:101380007266696E672030200A005430004733349B
:1013900000494E464F3A204245442043414C494281
:1013A000202D200047343300473433004D383400BB
:1013B000473431004D383400473430005431005444
:1013C0003000543000543100543100543000543057
:1013D0000054310047343300473433004D38340073
:1013E000473431004D383400473430004D38340034
:1013F0004D3834004D3834005A32204F66667365DC
:10140000743A20004F4B207365636F6E64204578FB
:1014100074727564657221005A20706F7369746903
:101420006F6E3A20005A20706F736974696F6E3A5C
:1014300020004D3834005A312050726F6265206FA1
:1014400066667365743A20004F4B20666972737448
:1014500020457874727564657221200A005A2070E4
:101460006F736974696F6E3A20005A20706F7369E8
:1014700074696F6E3A200043616C63756C75733AE2
:1014800020200043616C63756C75733A2020004323
:10149000616C63756C75733A20200043616C6375F1
:1014A0006C75733A20200043616C63756C75733AF8
:1014B00020200043616C63756C75733A20200043F3
:1014C000616C63756C75733A20200043616C6375C1
:1014D0006C75733A20200043616C63756C75733AC8
:1014E00020200043616C63756C75733A20200043C3
:1014F000616C63756C75733A20200043616C637591
:101500006C75733A20200043616C63756C75733A97
:1015100020200043616C63756C75733A2020004392
:10152000616C63756C75733A20200043616C637560
:101530006C75733A20200043616C63756C75733A67
:1015400020200043616C63756C75733A2020004362
:10155000616C63756C75733A20200043616C637530
:101560006C75733A20200043616C63756C75733A37
:1015700020200043616C63756C75733A2020004332
:10158000616C63756C75733A20200043616C637500
:101590006C75733A20200043616C63756C75733A07
:1015A00020200043616C63756C75733A2020004302
:1015B000616C63756C75733A20200043616C6375D0
:1015C0006C75733A20200043616C63756C75733AD7
:1015D00020200043616C63756C75733A20200043D2
:1015E000616C63756C75733A20200043616C6375A0
:1015F0006C75733A20200043616C63756C75733AA7
:1016000020200043616C63756C75733A202000469E
:10161000696C616D656E742052656D6F7665642CC2
:1016200020474F494E4720544F20434C45414E20C0
:10163000544845204E4F5A5A454C200A0046696C82
:10164000616D656E7420496E7365727465642F52A6
:10165000656D6F7665642C2072657475726E696E47
:101660006720746F204D61696E204D656E75200A8C
:101670000054300046696C616D656E7420496E736C
:1016800065727465642F52656D6F7665642C206792
:101690006F696E6720746F2043616C6962200A0075
:1016A00054300046696C616D656E7420496E7365D7
:1016B000727465642F52656D6F7665642C20676F58
:1016C000696E6720746F20746865206E6578742079
:1016D0006578747275646572200A00543000436145
:1016E0006C6962726174696F6E20537563636573B0
:1016F0007366756C2C20676F696E67206261636B1F
:1017000020746F206D61696E206D656E75200A0012
:101710005430004A756D70206F7665722073637265
:1017200065773120616E6420736372657732200AB9
:10173000004A756D70206F766572207363726577ED
:1017400031200A004733340054300047333400540A
:1017500030004733340054300041646A757374209C
:101760005A446F776E200A0041646A757374205A78
:101770005570200A003630206465677265657320F5
:101780000A00496E73657274696E67203A202020E2
:101790000A0053757266696E672030200A0053751F
:1017A0007266696E672030200A0053757266696E32
:1017B000672030200A0053757266696E67203020FA
:1017C0000A00253364202563430025336420256304
:1017D00043002533642025634300456E7465722001
:1017E000696E207075726765206D6F6465200A00F0
:1017F000253364202563430025336420256343009B
:10180000253364202563430025336420256343008A
:10181000253364202563430025336420256343007A
:10182000253364202563430025336420256343006A
:1018300046696C616D656E742052656D6F76656486
:101840002C20474F494E4720544F20434C45414E92
:1018500020544845204E4F5A5A454C200A00537593
:101860007266696E672030200A0053757266696E71
:10187000672030200A0054300054652070696C6C79
:1018800065004D33340053757266696E67203020F1
:101890000A004D3234004D323320257300537572E7
:1018A00066696E672030200A002534643A252E329E
:1018B0006468202F2025646700002534643A252EB3
:1018C000326468202F2025646700002534643A259F
:1018D0002E326468202F2025646700002534643A86
:1018E000252E326468202F2025646700002534648B
:1018F0003A252E326468202F202564670000537536
:101900007266696E672030200A0053554343455381
:1019100053200A00253364202563430025336420C7
:101920002563430025336420256343002533642069
:101930002563430025336420256343002533642059
:101940002563430025336420256343002533642049
:1019500025634300253364202563430041646A7591
:101960007374205A446F776E200A0041646A75735D
:1019700074205A5570200A00496E73657274696E3E
:1019800067203A2020200A00253364202563430085
:1019900025336420256343002533642025634300F9
:1019A000456E74657220696E207075726765206D72
:1019B0006F6465200A004D333300FF01FF0000A073
:1019C000400000A04000000040CDCC984300809330
:1019D00043000052430000000000809343000000D9
:1019E00000CDCC9843008093430000524300000098
:1019F0000000000000000000006563686F3A0045C9
:101A000072726F723A0020636F6C64206578747232
:101A10007573696F6E2070726576656E74656400AB
:101A20006563686F3A003B202020506C61737469D5
:101A300063207765696768743A2025642E2564679A
:101A4000003B46696C616D656E7420757365643A20
:101A50002025642E25646D2025642E256467003BB7
:101A60002020204275696C642074696D653A2025D8
:101A70006420686F7572202564206D696E757465C9
:101A800073003B2020204275696C642074696D6589
:101A90003A20256420686F757273202564206D6973
:101AA0006E75746573003B5072696E742074696D55
:101AB000653A202564206D696E75746573003B502E
:101AC00072696E742074696D653A20256420686FB0
:101AD0007572202564206D696E75746573003B50C6
:101AE00072696E742074696D653A20256420686F90
:101AF000757273202564206D696E75746573003B83
:101B00005072696E742074696D653A202564206492
:101B100061797320256420686F7572202564206DBB
:101B2000696E75746573003B5072696E74207469D8
:101B30006D653A2025642064617920256420686FF2
:101B40007572202564206D696E75746573003B5055
:101B500072696E742074696D653A20256420646131
:101B60007920256420686F757273202564206D6963
:101B70006E75746573003B5072696E742074696D84
:101B8000653A202564206461797320256420686F9C
:101B9000757273202564206D696E75746573003BE2
:101BA00020472D436F64652067656E6572617465BB
:101BB000642062792053696D706C696679334428BA
:101BC00052292056657273696F6E202564007C3C33
:101BD0003E5E2B3D3F2F5B5D3B2C2A225C00205A52
:101BE0003A0020593A0020583A00656E6473746FC9
:101BF0007073206869743A200024F4D43050C38E86
:101C000020C2A24017828B7011127A910D816CD97B
:101C10000AA861E108C7586607615143061E4B5D7B
:101C200005C145A7041A411104093D9803713931D2
:101C3000034036DB0265339102D4305402802E1DFE
:101C400002632CEE01752AC501B028A0011027817E
:101C5000018F2564012B244B01E0223401AC211FAC
:101C6000018D200D01801FFC00841EED00971DDFFB
:101C700000B81CD200E61BC600201BBC00641AB2D0
:101C800000B219A8000A19A0006A189900D117918A
:101C90000040178B00B516840031167E00B315790D
:101CA000003A157300C7146F0058146A00EE1366EB
:101CB000008813630025135E00C7125B006C125787
:101CC0000015125400C111510070114F0021114B29
:101CD00000D61049008D1047004610440002104203
:101CE00000C00F4000800F3E00420F3C00060F3B3B
:101CF00000CB0E3800930E37005C0E3500270E34F3
:101D000000F30D3200C10D3100900D3000600D2E3A
:101D100000320D2D00050D2C00D90C2B00AE0C2926
:101D200000850C29005C0C2700350C27000E0C26C2
:101D300000E80B2400C40B2400A00B23007D0B2320
:101D4000005A0B2100390B2100180B2000F80A1F44
:101D500000D90A1E00BB0A1E009D0A1D00800A1D34
:101D600000630A1C00470A1B002C0A1B00110A1AF8
:101D700000F7091A00DD091900C4091900AB091997
:101D800000920917007B091800630917004C091617
:101D90000036091600200916000A091500F5081575
:101DA00000E0081400CC081400B8081400A40814BB
:101DB00000900813007D0812006B081300580812E9
:101DC00000460812003408110023081100120811FF
:101DD0000001081100F0071000E0071000D0071004
:101DE00000C0071000B0070F00A107100091070EF8
:101DF0000083070F0074070F0065070E0057070EDA
:101E00000049070E003B070D002E070E0020070DAE
:101E10000013070D0006070D00F9060C00ED060D76
:101E200000E0060C00D4060C00C8060C00BC060C32
:101E300000B0060C00A4060B0099060C008D060BE2
:101E40000082060B0077060B006C060B0061060A89
:101E50000057060B004C060A0042060A0038060A24
:101E6000002E060A0024060A001A060A00100609B7
:101E70000007060A00FD050900F4050900EB050945
:101E800000E2050900D9050900D0050900C70509C8
:101E900000BE050900B5050800AD050800A5050947
:101EA000009C050800940508008C050800840508BE
:101EB000007C050800740508006C0507006505082E
:101EC000005D050700560508004E05070047050799
:101ED000004005080038050700310507002A0507FE
:101EE00000230507001C050600160507000F05075F
:101EF000000805060002050700FB040600F50407BC
:101F000000EE040600E8040600E2040700DB040615
:101F100000D5040600CF040600C9040600C3040669
:101F200000BD040600B7040600B1040500AC0406B9
:101F300000A6040600A00405009B04060095040505
:101F400000900406008A040500850405008004064C
:101F5000007A04050075040500700405006B040593
:101F60000066040500610405005C040500570405D3
:101F700000520405004D0405004804050043040513
:101F8000003E0404003A0405003504050030040452
:101F9000002C04050027040400230405001E04048B
:101FA000001A04040016040500110404000D0404C2
:101FB00000090405000404040000040400FC0304F8
:101FC00000F8030400F4030400F0030400EC03042D
:101FD00000E8030400E4030400E0030400DC03045D
:101FE00000D8030400D4030400D0030400CC03048D
:101FF00000C8030300C503030024F404D9201BC454
:102000000C5C0E9804C4095F0265077101F405F9C0
:1020100000FB04B30048048700C10369005803555E
:102020000003034500BE023A008402310053022A35
:10203000002902250004022000E4011C00C8011947
:1020400000AF011700980114008401130071011002
:10205000006101100051010E0043010D0036010B1B
:10206000002B010B0020010B00150109000C0109D8
:102070000003010800FB000800F3000800EB000764
:1020800000E4000600DE000600D8000600D20006CC
:1020900000CC000500C7000500C2000500BD00041B
:1020A00000B9000400B5000400B1000400AD000454
:1020B00000A9000400A5000300A20003009F000483
:1020C000009B0003009800030095000200930003AA
:1020D00000900003008D0002008B000300880002C6
:1020E000008600020084000300810002007F0002DD
:1020F000007D0002007B00020079000200770001F1
:1021000000760002007400020072000100710002FB
:10211000006F0002006D0001006C0002006A000107
:10212000006900020067000100660001006500010F
:102130000064000200620001006100010060000113
:10214000005F0002005D0001005C0001005B000117
:10215000005A000100590001005800010057000119
:10216000005600010055000100540001005300001A
:102170000053000100520001005100010050000115
:10218000004F0001004E0000004E0001004D000114
:10219000004C0001004B0000004B0001004A000110
:1021A000004900010048000000480001004700010C
:1021B0000046000000460001004500000045000107
:1021C0000044000100430000004300010042000001
:1021D00000420001004100000041000100400001F8
:1021E000003F0000003F0001003E0000003E0001F3
:1021F000003D0000003D0001003C0000003C0000EC
:10220000003C0001003B0000003B0001003A0000E0
:10221000003A0001003900000039000100380000D8
:1022200000380000003800010037000000370001CE
:1022300000360000003600000036000100350000C6
:1022400000350000003500010034000000340000BB
:1022500000340001003300000033000000330001AF
:1022600000320000003200000032000100310000A6
:10227000003100000031000100300000003000009B
:1022800000300001002F0000002F0000002F000090
:10229000002F0001002E0000002E0000002E000183
:1022A000002D0000002D0000002D0000002D000179
:1022B000002C0000002C0000002C0000002C00016D
:1022C000002B0000002B0000002B0000002B000161
:1022D000002A0000002A0000002A0000002A000155
:1022E000002900000029000000290000002900004A
:1022F000002900010028000000280000002800003C
:10230000002800000028000100270000002700002E
:102310000027000000270000002700010026000021
:102320000026000000260000002600000026000114
:102330000025000000250000002500000025000009
:1023400000250000002500010024000000240000FA
:1023500000240000002400000024000100230000ED
:1023600000230000002300000023000000230000E1
:1023700000230000002300010022000000220000D2
:1023800000220000002200000022000000220001C4
:1023900000210000002100000021000000210000B9
:1023A00000210000002100000021000100200000A9
:1023B000002000000020000000200000002000009D
:1023C000002000000020000000200001001F00008D
:1023D000001F0000001F0000001F0000001F000081
:1023E000001F0000001F0001001E0000001E000072
:1023F000001E0000001E0000006563686F3A005474
:102400006865726D616C2052756E617761792C2000
:1024100073797374656D2073746F707065642120B7
:102420004865617465725F49443A20002053544FF7
:1024300050205052494E54200A002053544F5020EF
:102440005052494E54200A002053544F50205052AD
:10245000494E54200A004572726F72283833293A67
:102460002042656420746865726D6973746F7220B0
:102470006E6F742064657465637465640045727280
:102480006F72283832293A2052696768742074685C
:1024900065726D6973746F72206E6F7420646574F9
:1024A0006563746564004572726F72283831293A29
:1024B000204C65667420746865726D6973746F7200
:1024C000206E6F74202064657465637465640050C9
:1024D0004944204175746F74756E652066696E6934
:1024E000736865642100504944204175746F7475A8
:1024F0006E65206661696C6564212074696D656F25
:1025000075740020403A006F6B20543A006F6B20C6
:10251000423A00504944204175746F74756E6520CD
:102520006661696C6564212054656D7065726174C3
:1025300075726520746F6F206869676800204B644E
:102540003A2000204B693A2000204B703A200020AE
:10255000436C6173736963205049442000205475B3
:102560003A2000204B753A2000206D61783A200017
:10257000206D696E3A200020643A20002062696173
:10258000733A2000504944204175746F74756E652C
:102590002066696E697368656421205075742074C3
:1025A0006865206C617374204B702C204B6920612E
:1025B0006E64204B6420636F6E7374616E7473205D
:1025C00066726F6D2061626F766520696E746F2030
:1025D000436F6E66696775726174696F6E2E68000D
:1025E000504944204175746F74756E652066616949
:1025F0006C6564212074696D656F75740020403AC4
:10260000006F6B20543A006F6B20423A00504944EF
:10261000204175746F74756E65206661696C6564C0
:10262000212054656D706572617475726520746FD8
:102630006F206869676800204B643A2000204B696E
:102640003A2000204B703A200020436C617373697C
:10265000632050494420002054753A2000204B75D7
:102660003A2000206D61783A2000206D696E3A2092
:102670000020643A200020626961733A20004572AC
:10268000726F723A0070012C0190012701B0012293
:1026900001C0011D01F00118011002130130020EEA
:1026A000016002090190020401C002FF000003FA68
:1026B000004003F5008003F000D003EB002004E6A7
:1026C000007004E100E004DC004005D700C005D242
:1026D000004006CD00D006C8008007C3003008BE09
:1026E00000F008B900C009B400B00AAF00B00BAAEE
:1026F00000D00CA500000EA000500F9B00C010964B
:10270000005012910000148C00C0158700B0178291
:1027100000B0197D00D01B7800001E730040206EB1
:102720000090226900F024640040275F0090295A3D
:1027300000E02B5500102E500020304B0010324688
:1027400000E033410090353C0010373700703832DC
:1027500000A0392D00B03A2800A03B2300603C1EA9
:1027600000103D1900903D1400103E0F00703E0A0D
:1027700000C03E0500003F000000000A0B02090CEB
:102780000D0E080703040100000000000000000017
:102790000000000000000000000000000000000039
:1027A00000000000001211100000000000000000F6
:1027B0000000000000000000000000000000000118
:1027C0000210202008081020401020408002010242
:1027D000010804020101020408102040808040200A
:1027E0001008040201800402018040201008040245
:1027F00001080402010102040810204080010204C3
:10280000081020408005050505070508080808028E
:102810000202020A0A080804040404010101010179
:102820000101010303030303030303040707070C68
:102830000C0C0C0C0C0C0C0202020206060606061E
:102840000606060B0B0B0B0B0B0B0B0000200023DB
:1028500000260029002C002F003200000100000398
:10286000010601090100002200250028002B002E8E
:10287000003100340002010000050108010B0100D5
:10288000002100240027002A002D00300033000121
:10289000010000040107010A014E414E494E49540E
:1028A00059494E46CDCCCC3D0AD7233C17B7D13839
:1028B00077CC2B329595E6241FB14F0A00002041BA
:1028C0000000C84200401C4620BCBE4CCA1B0E5A29
:1028D000AEC59D746364696E6F70737578585B00E4
:1028E0003E15913D1301F300D900FD0011241FBED8
:1028F000CFEFD1E2DEBFCDBF00E00CBF19E0A0E01A
:10290000B2E0E8ECFAE503E00BBF02C007900D92DD
:10291000A83BB107D9F72CE1A8EBB9E001C01D92A3
:10292000AD33B207E1F718E2CAEED8E200E006C024
:1029300022970109FE010BBF0F94A0A1C03ED10751
:1029400080E00807A9F70F9455980D9452AD0C94A8
:1029500000008091E70990E02091E809821B91092D
:1029600008952091E8098091E709281750F4E22F93
:10297000F0E0E751F64F808190E02F5F2093E80967
:1029800008958FEF9FEF0895E091E8098091E7099E
:10299000E81730F4F0E0E751F64F808190E00895B9
:1029A0008FEF9FEF08950895CF92DF92EF92FF92FD
:1029B0000F931F93CF93DF937C01CB018A0120916A
:1029C000C409222389F0EB016B01C40ED51ECC157E
:1029D000DD0561F06991D701ED91FC910190F081E5
:1029E000E02DC7011995F3CF642F4BD0C801DF91BB
:1029F000CF911F910F91FF90EF90DF90CF900895AE
:102A0000CF93DF931F92CDB7DEB769832091C409BE
:102A10002223D1F02091C509203240F021E030E09E
:102A2000FC013383228380E090E014C08091C609CA
:102A3000E82FF0E0E953F64F998190838F5F809300
:102A4000C6098093C50904C061E0CE01019619D082
:102A500081E090E00F90DF91CF910895FC01138207
:102A6000128248EE53E060E070E044835583668351
:102A7000778382E593E091838083089588EB99E0E2
:102A8000EDCF613298F42091760A243089F4609376
:102A90002B0AFC018DE29AE0DC012A2F281B261765
:102AA00018F421912D93F9CF80E0089581E00895E5
:102AB00082E0089585ED8093BC008091BC0084FD88
:102AC000FCCF1092760A089585EC8093BC0010929A
:102AD000760A08951F920F920FB60F9211240BB62B
:102AE0000F922F933F934F935F936F937F938F93A7
:102AF0009F93AF93BF93EF93FF938091B900887F2B
:102B0000803609F49DC070F5883209F45CC090F4F9
:102B1000803109F455C038F4882309F4F3C08830B3
:102B200009F44EC0F2C0883109F44DC0803209F476
:102B30005EC0EBC0803409F469C050F4803309F4FE
:102B400056C0883309F0E1C08093090ABDDFDDC0BB
:102B5000803509F44FC0883509F45DC0883409F028
:102B6000D4C0D2C0883909F4C3C0A8F4883709F4A6
:102B700067C038F4883609F463C0803709F460C050
:102B8000C4C0883809F4B4C0803909F45FC0803803
:102B900009F0BBC05BC0803B09F482C038F4803AC6
:102BA00009F466C0883A09F47BC0AFC0803C09F4E0
:102BB000A3C0883C09F4A0C0883B09F486C0A5C026
:102BC0008091750A10C090914E0A80914D0A981715
:102BD00070F5E0914E0A81E08E0F80934E0AF0E08E
:102BE000E15BF54F80818093BB0085EC82C08093D0
:102BF000090A8AC0E0914E0A81E08E0F80934E0A46
:102C00008091BB00F0E0E15BF54F808390914E0A2C
:102C100080914D0A6AC0E0914E0A81E08E0F809348
:102C20004E0A8091BB00F0E0E15BF54F808380911C
:102C3000740A811169C081E08093730A84EA5DC0DF
:102C400083E08093760A10920A0ACFCF80910A0A15
:102C5000803208F04DC0E0910A0A81E08E0F809327
:102C60000A0A8091BB00F0E0E55FF54F8083BDCF9D
:102C70002BDF80910A0A803230F4E0910A0AF0E0FA
:102C8000E55FF54F108260910A0A70E0E0916F0AEB
:102C9000F091700A8BE09AE0199510920A0A35C0FB
:102CA00084E08093760A10922C0A10922B0AE0910D
:102CB000710AF091720A199580912B0A811105C051
:102CC00081E080932B0A10922D0AE0912C0A81E07A
:102CD0008E0F80932C0AF0E0E35DF54F80818093A6
:102CE000BB0090912C0A80912B0A981708F47DCF95
:102CF00085E88093BC0009C085EC8093BC001092ED
:102D0000760A03C01092090AD5DEFF91EF91BF91B8
:102D1000AF919F918F917F916F915F914F913F9173
:102D20002F910F900BBE0F900FBE0F901F90189514
:102D3000FC0114821782138212828FE798E091833C
:102D400080830895DC01ED91FC910190F081E02DEC
:102D500019942FE738E0FC01318320832781222357
:102D600019F004960D943F650895CF92DF92EF928B
:102D7000FF920F931F93CF93DF93EC01895A9F4FDC
:102D8000D7DFCE0188589F4FD3DF7E0127E9E20EBF
:102D9000F11C87016E0133E3C31A3EEFD30AC80169
:102DA000C7DF015E1F4F0C151D05C9F7FE01E1537A
:102DB000FE4F89E1818314823596178ACE018E50A9
:102DC0009E4FB6DFFE01ED55FD4F1082118212823B
:102DD0001382389610821182128213821A821B8209
:102DE0001C82188219826E0189E5C81A8DEFD80AF3
:102DF000F6011082118212821382F8011182108270
:102E0000FE01EF5EFD4F108286E391E0F7019C0129
:102E1000119221503040E1F7FE01E155FD4F81E074
:102E20008083CB5ADF4F198218820F94189368570A
:102E30007C4E8F4F9F4FF601608371838283938313
:102E4000DF91CF911F910F91FF90EF90DF90CF9086
:102E50000895FC0120E03EE2DB014C91403241F05C
:102E6000283011F430833196DB014C914083319648
:102E70002F5F6F5F7F4F2B3079F7108208952F926D
:102E80003F924F925F926F927F928F929F92AF92FA
:102E9000BF92CF92DF92EF92FF920F931F93CF9347
:102EA000DF93CDB7DEB7C858D1090FB6F894DEBFAF
:102EB0000FBECDBF8C016B017A01CA57DF4F18825C
:102EC000C658D04084E0E80EF11C180192E1290EAA
:102ED000311CF801EC5AFF4FC957DF4FF983E883E3
:102EE000C758D0405801F0E5AF1AFDEFBF0A3801CE
:102EF0008EE4681A8DEF780A80E4482E512C4C0E2F
:102F00005D1E94E0490E511CA101BE016F5F7F4F11
:102F1000C7010F94A96318160CF009C12C85322F34
:102F20003871303109F091C0F501808191810197AC
:102F3000029708F48AC0BE016F5F7F4FCE018758A9
:102F40009F4F87DFA0961FAEA097F6018081811169
:102F500007C06EE573E0CE01815A9F4F0F94CAA659
:102F6000B601CE01815A9F4F0F94CAA6BE01675881
:102F70007F4FCE01815A9F4F0F94CAA66EE573E032
:102F8000CE01815A9F4F0F94CAA6CE01805C9F4FFD
:102F9000CFDE21E0AE0147585F4FB701C2010F9469
:102FA000366781112EC0F50180819181892B49F509
:102FB000E3E8F4E064914F01662361F0772767FD51
:102FC00070958DEF9AE1BEDEFFEF8F1A9F0AF40134
:102FD0006491F2CF60E673E08DEF9AE10F949F98D1
:102FE0006AE070E08DEF9AE1ADDEBE0167587F4F79
:102FF0008DEF9AE10F949F986AE070E08DEF9AE16F
:10300000A1DE8BE1FE01EC5BFF4FDE0195960190A6
:103010000D928A95E1F724968EAD9FAD24979CA3DF
:103020008BA38FE798E09AA389A3AE014F5D5F4F12
:10303000BE01615A7F4FC80122DFCE01819689DE31
:10304000CE01805C9F4F85DE5FCF8981882309F4A4
:103050006EC0853E09F458CF8E3209F455CF8F35B6
:1030600009F452CFF8018289882331F08E3209F4B5
:103070004BCF8F3509F448CF23FD46CF81E0303167
:1030800009F080E0C957DF4FE881F981C758D04087
:103090008083811108C08985873409F035CF8A85FE
:1030A0008E3709F431CF4801F5E08F0E911CBE0137
:1030B0006F5F7F4FC401CDDEF50180819181009764
:1030C00081F4B6018DEF9AE10F949F98B4018DEFD2
:1030D0009AE10F949F986AE070E08DEF9AE132DEFA
:1030E00013CF8130910539F4F301808191810196EC
:1030F0009183808309CF029709F006CFCA57DF4F2B
:10310000F881C658D0402F2F30E0F30180819181A3
:103110002817390761F0CA57DF4FF881C658D040E9
:10312000FF5FCA57DF4FF883C658D040EDCEC8576F
:10313000DF4F0FB6F894DEBF0FBECDBFDF91CF914A
:103140001F910F91FF90EF90DF90CF90BF90AF90C5
:103150009F908F907F906F905F904F903F902F90B7
:1031600008950F931F93CF93DF93CDB7DEB76F977B
:103170000FB6F894DEBF0FBECDBF8C01FC01E05549
:10318000FD4F1182108240E050E0BA01855A9F4FF6
:103190000F945C64C801895A9F4F2BE1FC0134965F
:1031A000DE01159601900D922A95E1F7FC018281CE
:1031B00093819C838B838FE798E09A838983AE0108
:1031C0004F5F5F4F6AEA79E0C80159DECE01019690
:1031D000C0DD6F960FB6F894DEBF0FBECDBFDF9196
:1031E000CF911F910F9108952BE1FB013496DC01E3
:1031F000149601900D922A95E1F7FB01228133810B
:10320000FC01338322830895EF92FF920F931F9363
:10321000CF93DF93EC011C82FC01E25AFF4F8081C7
:10322000882329F0CE01855A9F4F0F943F657E0178
:1032300081E3E81A8EEFF80A45E360E0C7010F94D6
:10324000C05F81113AC0E3E8F4E064918F01662326
:1032500059F0772767FD70958DEF9AE173DD0F5F69
:103260001F4FF8016491F3CFE6E7F4E064918F011A
:10327000662359F0772767FD70958DEF9AE162DD3F
:103280000F5F1F4FF8016491F3CF6AE070E08DEF9C
:103290009AE158DD8E01095A1F4FB801CE018858B6
:1032A0009F4FA2DFCA58DF4F19830883DF91CF9168
:1032B0001F910F91FF90EF9008958E010C521E4FB9
:1032C00041E0B701C8010F94296D81112AC040E087
:1032D000B701C8010F94296D811123C0E9E8F4E01A
:1032E00064918F01662359F0772767FD70958DEF04
:1032F0009AE128DD0F5F1F4FF8016491F3CFE3E6F9
:10330000F4E064918F01662309F4BFCF772767FD4E
:1033100070958DEF9AE116DD0F5F1F4FF8016491F4
:10332000F2CFB801CE01855A9F4F0F944D628111A3
:1033300023C0E9E8F4E064918F01662359F0772710
:1033400067FD70958DEF9AE1FDDC0F5F1F4FF8016F
:103350006491F3CFE3E5F4E064918F01662309F40F
:1033600094CF772767FD70958DEF9AE1EBDC0F5FC7
:103370001F4FF8016491F2CF81E08C83E3E8F4E021
:1033800064918F01662359F0772767FD70958DEF63
:103390009AE1D8DC0F5F1F4FF8016491F3CFE8E4A6
:1033A000F4E064918F01662309F46FCF772767FDFE
:1033B00070958DEF9AE1C6DC0F5F1F4FF8016491A5
:1033C000F2CFFC01128214820895CF93DF93EC01B7
:1033D0008C818823B9F063E773E08DEF9AE10F9455
:1033E0009F9840917C0D50917D0D60917E0D709164
:1033F0007F0D22E030E08DEF9AE10F94899A81E011
:103400008A831B82DF91CF910895FC0182818823FA
:1034100019F0128281E083830895AF92BF92CF9218
:10342000DF92EF92FF920F931F93CF93DF931F9240
:10343000CDB7DEB78C018FE2FB0181935F01D12C08
:1034400041E07801F3E3EF1AFEEFFF0A9FE1C92E96
:103450002D2D30E0F7018081918128173907D8F4AC
:10346000C29EC001C39E900D112485569F4FB50189
:10347000800F911F49830F94F461C50149815C015C
:103480000196F5012081222321F04D3810F44F5F81
:10349000F6CFD394DDCF47FD11C0B501C8018A50E6
:1034A0009E4F0F90DF91CF911F910F91FF90EF9062
:1034B000DF90CF90BF90AF900D94F461F501108232
:1034C0000F90DF91CF911F910F91FF90EF90DF90C0
:1034D000CF90BF90AF9008953F924F925F926F92BE
:1034E0007F928F929F92AF92BF92CF92DF92EF9294
:1034F000FF920F931F93CF93DF93CDB7DEB7AC97B7
:103500000FB6F894DEBF0FBECDBF8C016B01342E19
:10351000FC018481882309F4D0C2E750FE4F8081EA
:10352000882309F407C12111D1C07801FFEEEF1AF9
:10353000FDEFFF0AF7018081882309F432C0E9E832
:10354000F4E064918F01662359F0772767FD709549
:103550008DEF9AE1F7DB0F5F1F4FF8016491F3CF16
:10356000E5E0F4E064918F01662359F0772767FD69
:1035700070958DEF9AE1E6DB0F5F1F4FF8016491C4
:10358000F3CF4AE050E061E070E08DEF9AE10F94F4
:103590004E996AE070E08DEF9AE1D4DB0E94FD9DC8
:1035A0008CC2E3E8F4E064915F01662361F0772761
:1035B00067FD70958DEF9AE1C5DBFFEFAF1ABF0A8B
:1035C000F5016491F2CFECEEF3E064915F016623C4
:1035D00061F0772767FD70958DEF9AE1B3DBFFEF20
:1035E000AF1ABF0AF5016491F2CFB6018DEF9AE1EF
:1035F0000F949F98E1EEF3E064915F01662361F020
:10360000772767FD70958DEF9AE19CDBFFEFAF1A8E
:10361000BF0AF5016491F2CFF70180812DE8B22E47
:10362000B801B89E600D711D11246A5E7D4FC801FE
:10363000F4DEF7018081B801B89E600D711D112480
:103640006A5E7D4F8DEF9AE10F949F98EBEDF3E06A
:1036500064915F01662361F0772767FD70958DEFB8
:103660009AE170DBFFEFAF1ABF0AF5016491F2CF68
:103670005801F5E5AF1AFDEFBF0AF5014081518110
:10368000628173812AE030E08DEF9AE10F947B999B
:103690006AE070E08DEF9AE155DBF7012081F801D7
:1036A00084E0289FE00DF11D1124AF014E5E5D4FB7
:1036B000F50180819181A281B381FA018083918398
:1036C000A283B3832F5FF70120832EC0E3E8F4E0E9
:1036D00064917F01662361F0772767FD70958DEF18
:1036E0009AE130DBFFEFEF1AFF0AF7016491F2CFA6
:1036F000EAECF3E064917F01662361F0772767FDD0
:1037000070958DEF9AE11EDBFFEFEF1AFF0AF701CC
:103710006491F2CFB6018DEF9AE10F949F986AE021
:1037200070E08DEF9AE10EDBC8018A509E4F0F9436
:103730003F6532C0F801EF5EFD4F1082E3E8F4E030
:1037400064917F01662361F0772767FD70958DEFA7
:103750009AE1F8DAFFEFEF1AFF0AF7016491F2CF6E
:10376000E9EBF3E064917F01662361F0772767FD61
:1037700070958DEF9AE1E6DAFFEFEF1AFF0AF70195
:103780006491F2CFB6018DEF9AE10F949F986AE0B1
:1037900070E08DEF9AE1D6DAF8011282CE0101963F
:1037A0005C01C6DA280196E7490E511CC801895A06
:1037B0009F4FF20191838083F60180818F3209F05F
:1037C0007BC06FE270E0C6010F94D5A601967C0124
:1037D000E114F10409F476C06FE270E0C7010F94C0
:1037E000D5A64C01009709F46EC0E816F90608F05A
:1037F0006AC03C016E187F08A301B701CE01809614
:103800000F94FEA6E0E2F0E0EC0FFD1FE60DF71DC1
:103810001082BE01605E7F4F8DEF9AE10F949F98FA
:103820006AE070E08DEF9AE18DDAF20160817181DA
:103830006115710519F06C5F7F4F02C060E070E0A8
:1038400021E0AE01405E5F4FCE0105960F943667D2
:1038500081112AC0E5EAF3E064918F01662359F0F3
:10386000772767FD70958DEF9AE16CDA0F5F1F4F38
:10387000F8016491F3CFBE01605E7F4F8DEF9AE156
:103880000F949F98E3EAF3E064918F01662309F4B3
:103890000DC1772767FD70958DEF9AE153DA0F5FC1
:1038A0001F4FF8016491F2CFF201B182A08274013E
:1038B000FFEFEF1AFF0A8CCFC80188589F4FF20123
:1038C000918380837601C8018A509E4F4C01F2019A
:1038D00060817181332009F49AC06115710519F076
:1038E0006C5F7F4F02C060E070E021E0A701C4017F
:1038F0000F943667882309F462C0F40181899289A4
:10390000A389B489F801ED55FD4F80839183A2838B
:10391000B383E5E9F3E064914F01C8018D559D4FF4
:103920006C01662361F0772767FD70958DEF9AE152
:1039300009DA9FEF891A990AF4016491F2CFB7016D
:103940008DEF9AE10F949F98EDE8F3E064917F0189
:10395000662361F0772767FD70958DEF9AE1F2D9C4
:10396000FFEFEF1AFF0AF7016491F2CFF6014081F1
:103970005181628173812AE030E08DEF9AE10F94EA
:103980007B996AE070E08DEF9AE1DCD9F801E555AA
:10399000FD4F1082118212821382EFE7F3E06491EF
:1039A0008F01662309F482C0772767FD70958DEF3C
:1039B0009AE1C8D90F5F1F4FF8016491F2CFEBE68F
:1039C000F3E064918F01662359F0772767FD7095C6
:1039D0008DEF9AE1B7D90F5F1F4FF8016491F3CFD4
:1039E000B7018DEF9AE10F949F98E9E6F3E06491B7
:1039F0008F01662309F45AC0772767FD70958DEF14
:103A00009AE1A0D90F5F1F4FF8016491F2CF6115C1
:103A1000710519F06C5F7F4F02C060E070E026E531
:103A2000A701C4010F943667811127C0E5E5F3E0D3
:103A300064918F01662359F0772767FD70958DEFAC
:103A40009AE180D90F5F1F4FF8016491F3CFB7015E
:103A50008DEF9AE10F949F98E3E5F3E064918F0175
:103A6000662321F1772767FD70958DEF9AE16AD97A
:103A70000F5F1F4FF8016491F3CF81E0F80180835D
:103A8000E1E4F3E064918F01662359F0772767FD45
:103A900070958DEF9AE156D90F5F1F4FF801649131
:103AA000F3CFB6018DEF9AE10F949F986AE070E032
:103AB0008DEF9AE147D9C5014CD9AC960FB6F89471
:103AC000DEBF0FBECDBFDF91CF911F910F91FF9051
:103AD000EF90DF90CF90BF90AF909F908F907F90AE
:103AE0006F905F904F903F90089521E0FC012183FB
:103AF00040E0F2CC4F925F926F927F928F929F92B2
:103B0000AF92BF92CF92DF92EF92FF920F931F93EB
:103B1000CF93DF93CDB7DEB7AC970FB6F894DEBF87
:103B20000FBECDBF7C015B01FC018481882309F4B9
:103B3000F9C0C7018A509E4F0F943F65F70112826A
:103B4000CE0101966C01F4D8270196E7490E511C6D
:103B5000C701895A9F4FF20191838083F5018081CB
:103B60008F3209F077C06FE270E0C5010F94D5A6DF
:103B70008C010F5F1F4F09F473C06FE270E0C80142
:103B80000F94D5A64C01009709F46BC008171907CC
:103B900008F067C03C01601A710AA301B801CE01A8
:103BA00080960F94FEA6E0E2F0E0EC0FFD1FE60D1C
:103BB000F71D1082BE01605E7F4F8DEF9AE10F947A
:103BC0009F986AE070E08DEF9AE1BCD8F2016081C5
:103BD00071816115710519F06C5F7F4F02C060E063
:103BE00070E021E0AE01405E5F4FCE0105960F947C
:103BF000366781112AC0EDE2F3E064918F016623FC
:103C000059F0772767FD70958DEF9AE19BD80F5F8C
:103C10001F4FF8016491F3CFBE01605E7F4F8DEFBF
:103C20009AE10F949F98EBE2F3E064918F01662391
:103C300009F471C0772767FD70958DEF9AE182D8FE
:103C40000F5F1F4FF8016491F2CFF201D182C08261
:103C500084018FCFC70188589F4FF20191838083E1
:103C60008501F20180819181009711F0049602C0D4
:103C700080E090E0B8010F940C68882321F1EDE119
:103C8000F3E064915F01662361F0772767FD70952B
:103C90008DEF9AE157D8FFEFAF1ABF0AF501649193
:103CA000F2CFB8018DEF9AE10F949F986AE070E02F
:103CB0008DEF9AE147D8F701E555FD4F108211824B
:103CC000128213822DC0E5E0F3E064917F01662348
:103CD00061F0772767FD70958DEF9AE133D8FFEF9C
:103CE000EF1AFF0AF7016491F2CFB8018DEF9AE164
:103CF0000F949F98E3E0F3E064918F01662359F0FD
:103D0000772767FD70958DEF9AE11CD80F5F1F4FE5
:103D1000F8016491F3CF6AE070E08DEF9AE112D878
:103D2000C60117D8AC960FB6F894DEBF0FBECDBF54
:103D3000DF91CF911F910F91FF90EF90DF90CF9087
:103D4000BF90AF909F908F907F906F905F904F90BB
:103D500008950F931F93CF93DF93EC018C818823F9
:103D600009F43EC0E1EFF2E064918F01662361F057
:103D7000772767FD70958DEF9AE10E94A2160F5F7D
:103D80001F4FF8016491F2CFFE01E555FD4F4081D0
:103D90005181628173812AE030E08DEF9AE10F94C6
:103DA0007B99EFEEF2E064918F01662361F0772753
:103DB00067FD70958DEF9AE10E94A2160F5F1F4F6D
:103DC000F8016491F2CFCD55DD4F488159816A8168
:103DD0007B812AE030E08DEF9AE10F947B9911C04E
:103DE000EFEDF2E06491EF01662359F0772767FD6C
:103DF00070958DEF9AE10E94A2162196FE016491C2
:103E0000F3CF6AE070E08DEF9AE1DF91CF911F91DF
:103E10000F910C94A216AF92BF92CF92DF92EF92C5
:103E2000FF920F931F93CF93DF935C01EB01FB0194
:103E300001900020E9F78F0101501109061B170BB3
:103E40006C01FAE0CF1AFEEFDF0AF60110826EE491
:103E500070E0CE010F94D5A67C01009729F4F801FB
:103E60003197EC0FFD1F0DC060E270E00F94D5A6F6
:103E7000EC0121966AE270E0C7010F94D5A6FC011F
:103E800031978DE081838AE082831382BE01C50170
:103E90008E509E4F0F94D269F6018081882391F154
:103EA000E9E8F4E06491EF01662359F0772767FDB4
:103EB00070958DEF9AE10E94A2162196FE01649101
:103EC000F3CFE9ECF2E06491EF01662359F0772734
:103ED00067FD70958DEF9AE10E94A2162196FE0172
:103EE0006491F3CF6AE070E08DEF9AE1DF91CF91BA
:103EF0001F910F91FF90EF90DF90CF90BF90AF9008
:103F00000C94A216DF91CF911F910F91FF90EF902B
:103F1000DF90CF90BF90AF9008952F923F924F9235
:103F20005F926F927F928F929F92AF92BF92CF9249
:103F3000DF92EF92FF920F931F93CF93DF93CDB752
:103F4000DEB7CC55D1090FB6F894DEBF0FBECDBF9A
:103F50004C018C0101551D4F662339F0F801108288
:103F6000F401848181111DC015C0F801808188236E
:103F700009F4AFC0F401E955FD4FC080D180E28063
:103F8000F3800F941893C616D706E806F90608F4CE
:103F9000A0C0E4CFC40138D9F4018481882309F496
:103FA00098C07401F5E5EF0EF11CF70181818F9344
:103FB00080818F9380EC92E09F938F938E01015CC0
:103FC0001F4F1F930F930F943BA70F900F900F90CD
:103FD0000F900F900F90B12CF80101900020E9F79D
:103FE0003197E01BF10BBE1684F46801CB0CD11C99
:103FF000B7FCDA94F6018081992787FD90950F949C
:1040000073A6F6018083B394E7CFFBE58F0E911C76
:1040100040E050E0BA01C4010F945C64512CCE0121
:1040200001966C0139EB632E32E0732E5E0191E252
:10403000A90EB11C40E050E0B601C4010F94A96381
:104040001816DCF5412CF60101900020E9F73197B4
:10405000EC19FD094E1674F41601240C311C47FCB2
:104060003A94F101808190E00F9473A6F10180836E
:104070004394E9CF8A858E37E9F245E050E0B801F4
:10408000C6010F94F0A6892BA9F61F930F937F9278
:104090006F92BF92AF920F943BA7C5010E94B348A5
:1040A00085EB92E00E942F490F900F900F900F9098
:1040B0000F900F9055245394BDCF511004C08FEF33
:1040C0009FEFF70104C0F7018081918101969183F0
:1040D0008083C45ADF4F0FB6F894DEBF0FBECDBF4A
:1040E000DF91CF911F910F91FF90EF90DF90CF90D4
:1040F000BF90AF909F908F907F906F905F904F9008
:104100003F902F900895EF92FF920F931F93CF93BC
:10411000DF931F92CDB7DEB78C017C018AE0E81AED
:104120008EEFF80AC70169830F94F564C7010F94F5
:104130003F65F801108211826981662309F4F1C09C
:104140008091AB0D9091AC0DA091AD0DB091AE0DE5
:1041500080933D0E90933E0EA0933F0EB093400E81
:104160008091AF0D9091B00DA091B10DB091B20DB5
:104170008093390E90933A0EA0933B0EB0933C0E71
:104180008091B30D9091B40DA091B50DB091B60D85
:104190008093350E9093360EA093370EB093380E61
:1041A0008091110D90E09093340E8093330E4091E6
:1041B000B70D5091B80D6091B90D7091BA0D409343
:1041C0002F0E5093300E6093310E7093320EF70124
:1041D00080859185A285B38580932B0E90932C0EBC
:1041E000A0932D0EB0932E0E8091D71A9091D81ACD
:1041F0009093280E8093270E8091D91A9091DA1A05
:1042000090932A0E8093290E8091D51A9091D61AF8
:104210009093260E8093250E0E94644C60931F0E8F
:104220007093200E8093210E9093220E80910F0D9B
:104230009091100D9093240E8093230E8091F50D94
:1042400080930A0E8091F60D9091F70D90930C0ECD
:1042500080930B0E8091F80D9091F90D90930E0EB6
:1042600080930D0E8091FA0D9091FB0D9093100E9E
:1042700080930F0E8091FC0D9091FD0D9093120E86
:104280008093110E8091FE0D9091FF0D9093140E6E
:104290008093130E8091000E9091010E9093160E54
:1042A0008093150E8091020E9091030E9093180E3C
:1042B0008093170E8091040E9091050E90931A0E24
:1042C0008093190E8091060E9091070E90931C0E0C
:1042D00080931B0E8091080E9091090E90931E0EF4
:1042E00080931D0EE9EAF2E064918F01662361F08C
:1042F000772767FD70958DEF9AE10E94A2160F5FF8
:104300001F4FF8016491F2CF6AE070E08DEF9AE1FF
:104310000F90DF91CF911F910F91FF90EF900C9430
:10432000A2160F90DF91CF911F910F91FF90EF9008
:104330000895EF92FF920F931F93CF93DF93CDB722
:10434000DEB76F970FB6F894DEBF0FBECDBF8C01FE
:104350007C0186E7E80EF11CC80188589F4FF701E1
:1043600091838083E65CFD4F22E030E0318320833F
:10437000329670E07183608340E050E0BA010496A9
:104380000F945C64F701808191812BE1FC013496EC
:10439000DE01159601900D922A95E1F7FC018281CC
:1043A00093819C838B838FE798E09A838983AE0106
:1043B0004F5F5F4F6AEA79E0C8010E943F17CE0164
:1043C00001960E94A9166F960FB6F894DEBF0FBE35
:1043D000CDBFDF91CF911F910F91FF90EF90089586
:1043E000CF92DF92EF92FF920F931F93CF93DF93C1
:1043F000CDB7DEB76F970FB6F894DEBF0FBECDBF57
:104400008C016C0126E7C20ED11C88589F4FF60123
:1044100091838083E65CFD4F21E030E0318320838F
:104420007801FEE4EF1AFDEFFF0AF7011182108216
:1044300040E050E0BA0104960F945C64F60180817C
:1044400091812BE1FC013496DE01159601900D92CD
:104450002A95E1F7FC01828193819C838B838FE70E
:1044600098E09A838983AE014F5F5F4F6AEA79E0F3
:10447000C8010E943F17CE0101960E94A916F701BC
:10448000808191816F960FB6F894DEBF0FBECDBFCD
:10449000DF91CF911F910F91FF90EF90DF90CF9020
:1044A0000895AF92BF92CF92DF92EF92FF920F9357
:1044B0001F93CF93DF93CDB7DEB76F970FB6F89406
:1044C000DEBF0FBECDBF8C017B01CE0101960E94E5
:1044D0009816F801E158FF4F80816801811104C0EE
:1044E00027E5C20ED11C03C088E7C80ED11C21E00D
:1044F000A701B6016C5F7F4FCE0105960F9436671A
:10450000811136C0E3E8F4E064918F01662361F025
:10451000772767FD70958DEF9AE10E94A2160F5FD5
:104520001F4FF8016491F2CFE3E9F2E064918F014B
:10453000662361F0772767FD70958DEF9AE10E9401
:10454000A2160F5F1F4FF8016491F2CFB7018DEFF4
:104550009AE10F949F986AE070E08DEF9AE10E94D3
:10456000A216CE0101960E94A9168FEF9FEF3AC0C6
:10457000F801E353FE4F808191818A30910530F537
:104580009C012F5F3F4F318320832FE1289F7001D3
:10459000299FF00C1124F7E9EF0EF11CE00EF11E3B
:1045A0005C01B701C7014F960E94F41821E0A21ADE
:1045B000B1088FE1E81AF108EFEFAE16BE0689F7F1
:1045C000B601C80189569F4F0E94F418BE016F5F63
:1045D0007F4FC80188589F4F0E94F418CE01019662
:1045E0000E94A9166F960FB6F894DEBF0FBECDBF1E
:1045F000DF91CF911F910F91FF90EF90DF90CF90BF
:10460000BF90AF900895EF92FF920F931F93CF93B7
:10461000DF93EC01C353DE4F288139812115310529
:1046200029F121503109398328838C0109561F4F04
:10463000B80188589F4F0E94F418C80100E010E0AC
:10464000288139817C014FE1E40EF11C0217130728
:1046500038F40F5F1F4FB7010E94F418C701F0CF65
:1046600081E090E0232B21F080E002C08FEF9FEFEC
:10467000DF91CF911F910F91FF90EF9008958F924E
:104680009F92AF92BF92CF92DF92EF92FF920F93E1
:104690001F93CF93DF93EC011092C30D8091400DD7
:1046A0009091410D01969093410D8093400DD0D291
:1046B0008EE892E00E942F490F94A7767E018FEE3C
:1046C000E81A8DEFF80AF70180818E010A501E4F1B
:1046D0008823D9F1C8010F943F65F701808181508B
:1046E0008083BE01FDE88F9F600D711D11246A5EFD
:1046F0007D4F21E041E0CE010E946C1AF7018081DC
:10470000FE0194E0899FE00DF11D1124EE5EFD4F46
:104710004081518162817381FE01E555FD4F4083E7
:10472000518362837383C8010F945C64CE01DF916F
:10473000CF911F910F91FF90EF90DF90CF90BF909E
:10474000AF909F908F900C94E5190F943877C80123
:104750000F943F651A8220E030E045E050E06AE0C7
:1047600070E08BE791E10E940A3B8BE892E00E94A7
:104770002F490F94A77686E892E00E942F49109265
:10478000D81A1092D71A1092DA1A1092D91A1092D7
:10479000D61A1092D51A1092600E10925F0E1092D7
:1047A0005E0E6091460D7091470D8091480D90917D
:1047B000490D2CE330E040E050E00F948BA03093A3
:1047C000430D2093420D7093450D6093440DC090AE
:1047D0008817D0908917E0908A17F0908B17209156
:1047E000320D3091330D4091340D5091350D609163
:1047F000360D7091370D8091380D9091390D0F94D1
:10480000E29C4B015C012091CC173091CD17409177
:10481000CE175091CF176091D0177091D11780911A
:10482000D2179091D3170F94239DA70196010F944F
:104830000F9C9B01AC01C501B4010F942F9B0F94F9
:10484000779C2093320D3093330D4093340D509369
:10485000350D6093360D7093370D8093380D90931E
:10486000390D20912A0D30912B0D40912C0D509136
:104870002D0D60912E0D70912F0D8091300D909126
:10488000310D0F94E29C4B015C012091C4173091D3
:10489000C5174091C6175091C7176091C8177091FE
:1048A000C9178091CA179091CB170F94239DA70128
:1048B00096010F940F9C9B01AC01C501B4010F94AC
:1048C0002F9B0F94779C20932A0D30932B0D4093B0
:1048D0002C0D50932D0D60932E0D70932F0D809302
:1048E000300D9093310D2091220D3091230D409188
:1048F000240D5091250D6091260D7091270D80910A
:10490000280D9091290D0F94E29C6B017C01209160
:10491000BC173091BD174091BE175091BF176091E1
:10492000C0177091C1178091C2179091C3170F944F
:10493000239D20918C1730918D1740918E175091A7
:104940008F170F940F9C9B01AC01C701B6010F9408
:104950002F9B0F94779C2093220D3093230D40932F
:10496000240D5093250D6093260D7093270D809391
:10497000280D9093290DC0909417D0909517E09032
:104980009617F090971720911A0D30911B0D4091BA
:104990001C0D50911D0D60911E0D70911F0D809189
:1049A000200D9091210D0F94E29C4B015C01209110
:1049B000B4173091B5174091B6175091B717609161
:1049C000B8177091B9178091BA179091BB170F94CF
:1049D000239DA70196010F940F9C9B01AC01C5017B
:1049E000B4010F942F9B0F94779C20931A0D309352
:1049F0001B0D40931C0D50931D0D60931E0D709365
:104A00001F0D8093200D9093210D2091120D309158
:104A1000130D4091140D5091150D6091160D70916C
:104A2000170D8091180D9091190D0F94E29C4B0178
:104A30005C012091AC173091AD174091AE175091A9
:104A4000AF176091B0177091B1178091B217909124
:104A5000B3170F94239DA70196010F940F9C9B0100
:104A6000AC01C501B4010F942F9B0F94779C209348
:104A7000120D3093130D4093140D5093150D609348
:104A8000160D7093170D8093180D9093190D1092B9
:104A9000CC171092CD171092CE171092CF171092FC
:104AA000D0171092D1171092D2171092D3171092DC
:104AB000C4171092C5171092C6171092C7171092FC
:104AC000C8171092C9171092CA171092CB171092DC
:104AD000BC171092BD171092BE171092BF171092FC
:104AE000C0171092C1171092C2171092C3171092DC
:104AF000B4171092B5171092B6171092B7171092FC
:104B0000B8171092B9171092BA171092BB171092DB
:104B1000AC171092AD171092AE171092AF171092FB
:104B2000B0171092B1171092B2171092B31790D01D
:104B30008AE792E00E942F49809123178823F9F099
:104B400010922317C091110DD0E0CC0FDD1FC95278
:104B5000D54E68817981882777FD8095982F0F94AD
:104B6000E89C2091B2023091B3024091B40250917E
:104B7000B5020F94979E181614F419821882DF91CB
:104B8000CF911F910F91FF90EF90DF90CF90BF904A
:104B9000AF909F908F9008958D559D4FFC0160813F
:104BA000718182819381089585559D4FFC016081BB
:104BB0007181828193810895EF92FF920F931F93E9
:104BC000CF93DF931F92CDB7DEB78C017B01460FE9
:104BD000F70161917F01F8018081918149830F94F0
:104BE00039ACF8018081918101969183808349815C
:104BF0004E11EECF0F90DF91CF911F910F91FF904B
:104C0000EF900895EF92FF920F931F93CF93DF934E
:104C10001F92CDB7DEB78C017B01460FF801808172
:104C2000918149830F9431ACF70181937F01F801A1
:104C30008081918101969183808349814E11EECFCD
:104C40000F90DF91CF911F910F91FF90EF900895FA
:104C50000F931F93CF93DF93CDB7DEB768970FB64F
:104C6000F894DEBF0FBECDBF80E390E3A0E3B0E0D9
:104C70008D839E83AF83B88704E610E0188F0F8B77
:104C800044E0BE016B5F7F4FCE01479695DF40E168
:104C900068E877E1CE0147968FDF40E168E977E188
:104CA000CE01479689DF40E168E777E1CE0147967C
:104CB00083DF44E060E777E1CE0147967DDF44E0A3
:104CC00068E677E1CE01479677DF44E064E777E175
:104CD000CE01479671DF44E068E577E1CE01479663
:104CE0006BDF44E068EA77E1CE01479665DF44E098
:104CF00064E677E1CE0147965FDF44E060E677E166
:104D0000CE01479659DF44E06CE577E1CE01479646
:104D100053DF4CE06FE87DE0CE0147964DDF87ED35
:104D200090E09E8B8D8B8DE290E09C8B8B8B1A8A12
:104D3000198A80EF90E0988B8F8786E490E09E87B9
:104D40008D871C861B8642E0BE016B5E7F4FCE01C5
:104D5000479632DF42E0BE016D5E7F4FCE0147963F
:104D60002BDF42E0BE016F5E7F4FCE01479624DF0E
:104D700042E0BE01615F7F4FCE0147961DDF42E0FA
:104D8000BE01635F7F4FCE01479616DF42E0BE0152
:104D9000655F7F4FCE0147960FDF44E06CE77DE013
:104DA000CE01479609DF44E06BE272E0CE01479600
:104DB00003DF44E063E372E0CE014796FDDE44E0AA
:104DC0006BE372E0CE014796F7DE42E06EEE7DE0E7
:104DD000CE014796F1DE42E062EF7DE0CE014796DC
:104DE000EBDE42E060EF7DE0CE014796E5DE42E09B
:104DF0006CEE7DE0CE014796DFDE42E06EED7DE0B9
:104E0000CE014796D9DE42E062EE7DE0CE014796C4
:104E1000D3DE42E060EE7DE0CE014796CDDE42E09B
:104E20006CED7DE0CE014796C7DE42E066EE7DE0A8
:104E3000CE014796C1DE42E06AEE7DE0CE014796A4
:104E4000BBDE42E068EE7DE0CE014796B5DE42E093
:104E500064EE7DE0CE014796AFDE42E066ED7DE098
:104E6000CE014796A9DE42E06AED7DE0CE0147968D
:104E7000A3DE42E068ED7DE0CE0147969DDE42E094
:104E800064ED7DE0CE01479697DE44E061E173E09A
:104E9000CE01479691DE44E069E073E0CE0147968B
:104EA0008BDE44E061E073E0CE01479685DE44E0AE
:104EB00065E173E0CE0147967FDE44E06DE073E08C
:104EC000CE01479679DE44E065E073E0CE01479677
:104ED00073DE42E06CE47DE0CE0147966DDE42E099
:104EE00060E47DE0CE01479667DE42E06EE37DE060
:104EF000CE01479661DE42E06CE37DE0CE0147964D
:104F00005BDE42E06AE47DE0CE01479655DE42E09A
:104F10006AE37DE0CE0147964FDE80E290E09A871B
:104F2000898742E0BE01675F7F4FCE01479644DE2E
:104F300042E068E67EE0CE0147963EDE44E064E66D
:104F40007EE0CE01479638DE42E062E67EE0CE01AA
:104F5000479632DE42E064E47DE0CE0147962CDEE7
:104F600042E062E47DE0CE01479626DE48E062E35F
:104F70007DE0CE01479620DE48E06AE27DE0CE018A
:104F800047961ADE48E062E27DE0CE01479614DEE5
:104F900048E06AE17DE0CE0147960EDE48E062E13E
:104FA0007DE0CE01479608DE42E06EE672E0CE017B
:104FB000479602DE42E060E772E0CE014796FCDDF4
:104FC00044E06DE37EE0CE014796F6DD44E069E320
:104FD0007EE0CE014796F0DD44E065E37EE0CE0161
:104FE0004796EADD42E063E37EE0CE014796E4DDEA
:104FF00044E06FE27EE0CE014796DEDD44E06BE206
:105000007EE0CE014796D8DD42E069E27EE0CE0147
:105010004796D2DD42E067E27EE0CE014796CCDDE6
:1050200042E065E27EE0CE014796C6DD42E063E203
:105030007EE0CE014796C0DD44E06FE17EE0CE0128
:105040004796BADD41E06AE07EE0CE014796B4DDE6
:1050500042E06BE07EE0CE014796AEDD42E06DE0DF
:105060007EE0CE014796A8DD42E06FE07EE0CE0113
:105070004796A2DD42E061E17EE0CE0147969CDDED
:1050800042E063E17EE0CE01479696DD42E065E1D5
:105090007EE0CE01479690DD42E067E17EE0CE0102
:1050A00047968ADD42E069E17EE0CE01479684DDE5
:1050B00042E06BE17EE0CE0147967EDD42E06DE1AD
:1050C0007EE0CE01479678DD44E06CE677E1CE01E4
:1050D000479672DD86E591E3A2E3B0E089839A8387
:1050E000AB83BC83188F0F8B44E0BE016F5F7F4F93
:1050F000CE01479661DDEFEAFAE064918F01662305
:1051000061F0772767FD70958DEF9AE10E94A216F6
:105110000F5F1F4FF8016491F2CFEFE9FAE064915D
:105120008F01662361F0772767FD70958DEF9AE117
:105130000E94A2160F5F1F4FF8016491F2CF6AE040
:1051400070E08DEF9AE10E94A21668960FB6F8946F
:10515000DEBF0FBECDBFDF91CF911F910F9108959C
:105160000F931F93CF93DF93CFEADAE0FE016491B0
:105170008E01662361F0772767FD70958DEF9AE1C8
:105180000E94A2160F5F1F4FF8016491F2CFEFE863
:10519000FAE064918F01662361F0772767FD7095CF
:1051A0008DEF9AE10E94A2160F5F1F4FF8016491E4
:1051B000F2CF6AE070E08DEF9AE10E94A216FE0144
:1051C00064910FEA1AE0662361F0772767FD709516
:1051D0008DEF9AE10E94A2160F5F1F4FF8016491B4
:1051E000F2CF409188175091891760918A1770917A
:1051F0008B1787E89AE00E94474840918C1750919E
:105200008D1760918E1770918F1784E89AE00E9435
:105210004748409190175091911760919217709163
:10522000931781E89AE00E94474840919417509163
:10523000951760919617709197178EE79AE00E94E4
:1052400047486AEA79E08DEF9AE10F949F986AE007
:1052500070E08DEF9AE10E94A216FE0164910FEAC0
:105260001AE0662361F0772767FD70958DEF9AE16C
:105270000E94A2160F5F1F4FF8016491F2CFE4E67F
:10528000FAE064918F01662361F0772767FD7095DE
:105290008DEF9AE10E94A2160F5F1F4FF8016491F3
:1052A000F2CF6AE070E08DEF9AE10E94A216FE0153
:1052B00064910FEA1AE0662361F0772767FD709525
:1052C0008DEF9AE10E94A2160F5F1F4FF8016491C3
:1052D000F2CF409198175091991760919A17709159
:1052E0009B178BE59AE00E94474840919C1750918C
:1052F0009D1760919E1770919F1788E59AE00E9414
:1053000047484091A0175091A1176091A217709142
:10531000A31785E59AE00E9447484091A417509151
:10532000A5176091A6177091A71782E59AE00E94D1
:1053300047486AEA79E08DEF9AE10F949F986AE016
:1053400070E08DEF9AE10E94A216FE0164910FEACF
:105350001AE0662361F0772767FD70958DEF9AE17B
:105360000E94A2160F5F1F4FF8016491F2CFE4E391
:10537000FAE064918F01662361F0772767FD7095ED
:105380008DEF9AE10E94A2160F5F1F4FF801649102
:10539000F2CF6AE070E08DEF9AE10E94A216FE0162
:1053A00064910FEA1AE0662361F0772767FD709534
:1053B0008DEF9AE10E94A2160F5F1F4FF8016491D2
:1053C000F2CF409178175091791760917A177091C8
:1053D0007B178BE29AE00E948F4840917C17509196
:1053E0007D1760917E1770917F1788E29AE00E9486
:1053F0008F4840918017509181176091821770916A
:10540000831785E29AE00E948F484091841750915B
:105410008517609186177091871782E29AE00E9443
:105420008F486AEA79E08DEF9AE10F949F986AE0DD
:1054300070E08DEF9AE10E94A216FE0164910FEADE
:105440001AE0662361F0772767FD70958DEF9AE18A
:105450000E94A2160F5F1F4FF8016491F2CFEDEE8C
:10546000F9E064918F01662361F0772767FD7095FD
:105470008DEF9AE10E94A2160F5F1F4FF801649111
:10548000F2CF6AE070E08DEF9AE10E94A216FE0171
:1054900064910FEA1AE0662361F0772767FD709543
:1054A0008DEF9AE10E94A2160F5F1F4FF8016491E1
:1054B000F2CF4091701750917117609172177091EF
:1054C000731784EE99E00E94474840916817509105
:1054D000691760916A1770916B1781EE99E00E94CD
:1054E00047486AEA79E08DEF9AE10F949F986AE065
:1054F00070E08DEF9AE10E94A216FE0164910FEA1E
:105500001AE0662361F0772767FD70958DEF9AE1C9
:105510000E94A2160F5F1F4FF8016491F2CFEEE2D6
:10552000F9E064918F01662361F0772767FD70953C
:105530008DEF9AE10E94A2160F5F1F4FF801649150
:10554000F2CF6AE070E08DEF9AE10E94A216FE01B0
:1055500064910FEA1AE0662361F0772767FD709582
:105560008DEF9AE10E94A2160F5F1F4FF801649120
:10557000F2CF409174175091751760917617709122
:10558000771785E299E00E9447484091581750915B
:10559000591760915A1770915B1782E299E00E9447
:1055A00047484091A8175091A9176091AA17709188
:1055B000AB178FE199E00E948F484091641750919A
:1055C000651760916617709167178CE199E00E94EA
:1055D0004748409160175091611760916217709130
:1055E000631789E199E00E94474840915C17509108
:1055F0005D1760915E1770915F1786E199E00E94D8
:1056000047486AEA79E08DEF9AE10F949F986AE043
:1056100070E08DEF9AE10E94A216FE0164910FEAFC
:105620001AE0662361F0772767FD70958DEF9AE1A8
:105630000E94A2160F5F1F4FF8016491F2CFE4E0C1
:10564000F9E064918F01662361F0772767FD70951B
:105650008DEF9AE10E94A2160F5F1F4FF80164912F
:10566000F2CF6AE070E08DEF9AE10E94A216FE018F
:1056700064910FEA1AE0662361F0772767FD709561
:105680008DEF9AE10E94A2160F5F1F4FF8016491FF
:10569000F2CF40918F0D5091900D6091910D7091CE
:1056A000920D8BEF98E00E9447484091930D5091E6
:1056B000940D6091950D7091960D88EF98E00E9481
:1056C00047484091970D5091980D6091990D7091B8
:1056D0009A0D85EF98E00E9447486AEA79E08DEFDD
:1056E0009AE10F949F986AE070E08DEF9AE10E9432
:1056F000A216FE0164910FEA1AE0662361F0772793
:1057000067FD70958DEF9AE10E94A2160F5F1F4F03
:10571000F8016491F2CFE7EEF8E064918F0166231F
:1057200061F0772767FD70958DEF9AE10E94A216D0
:105730000F5F1F4FF8016491F2CF6AE070E08DEFC8
:105740009AE10E94A216FE0164910FEA1AE0662314
:1057500061F0772767FD70958DEF9AE10E94A216A0
:105760000F5F1F4FF8016491F2CF409111035091E8
:10577000120360911303709114038AED98E00E9464
:1057800047486091090370910A0380910B0390913F
:105790000C030F94828DAB01BC0187ED98E00E9451
:1057A0004748609101037091020380910303909137
:1057B00004030F948E8DAB01BC0184ED98E00E9430
:1057C000474840911503509116036091170370915B
:1057D000180384EC98E00E94474860910D03709193
:1057E0000E0380910F03909110030F94828DAB01F3
:1057F000BC0181EC98E00E944748609105037091DC
:10580000060380910703909108030F948E8DAB01DE
:10581000BC018EEB98E00E9447486AEA79E08DEF80
:105820009AE10F949F986AE070E08DEF9AE10E94F0
:10583000A216FE0164910FEA1AE0662361F0772751
:1058400067FD70958DEF9AE10E94A2160F5F1F4FC2
:10585000F8016491F2CFE0EBF8E064918F016623E8
:1058600061F0772767FD70958DEF9AE10E94A2168F
:105870000F5F1F4FF8016491F2CF6AE070E08DEF87
:105880009AE10E94A216FE0164910FEA1AE06623D3
:1058900061F0772767FD70958DEF9AE10E94A2165F
:1058A0000F5F1F4FF8016491F2CF40912B0250918E
:1058B0002C0260912D0270912E028CEA98E00E94D9
:1058C0004748409133025091340260913502709103
:1058D000360288EA98E00E94474840913B02509186
:1058E0003C0260913D0270913E0284EA98E00E9481
:1058F000474840917C0D50917D0D60917E0D7091D7
:105900007F0D8BE998E00E9447486AEA79E08DEFC5
:105910009AE10F949F986AE070E08DEF9AE10E94FF
:10592000A216FE0164910FEA1AE0662361F0772760
:1059300067FD70958DEF9AE10E94A2160F5F1F4FD1
:10594000F8016491F2CFE1E9F8E064918F016623F8
:1059500061F0772767FD70958DEF9AE10E94A2169E
:105960000F5F1F4FF8016491F2CF6AE070E08DEF96
:105970009AE10E94A216FE0164910FEA1AE06623E2
:1059800061F0772767FD70958DEF9AE10E94A2166E
:105990000F5F1F4FF8016491F2CF4091F20D5091CB
:1059A000F30D662757FD6095762F85E898E00E94F5
:1059B0008F484091F00D5091F10D662757FD60958D
:1059C000762F86E798E00E948F484091EC0D509129
:1059D000ED0D662757FD6095762F8AE698E00E94C8
:1059E0008F484091EE0D5091EF0D662757FD609561
:1059F000762F8CE598E00E948F486CE773E08DEF7E
:105A00009AE10F949F986AE070E08DEF9AE10E940E
:105A1000A216FE0164910FEA1AE0662361F077276F
:105A200067FD70958DEF9AE10E94A2160F5F1F4FE0
:105A3000F8016491F2CFE2E5F8E064918F0166230A
:105A400061F0772767FD70958DEF9AE10E94A216AD
:105A50000F5F1F4FF8016491F2CF6AE070E08DEFA5
:105A60009AE10E94A216FE0164910FEA1AE06623F1
:105A700061F0772767FD70958DEF9AE10E94A2167D
:105A80000F5F1F4FF8016491F2CF4091EA0D5091E2
:105A9000EB0D662757FD6095762F86E498E00E940F
:105AA0008F484091E80D5091E90D662757FD6095AC
:105AB000762F87E398E00E948F484091E40D509143
:105AC000E50D662757FD6095762F8BE298E00E94E2
:105AD0008F484091E60D5091E70D662757FD609580
