:100000000C94A20B0C94CF0B0C94CF0B0C94CF0B35
:100010000C94CF0B0C94CF0B0C94CF0B0C94CF0BF8
:100020000C94CF0B0C94CF0B0C94CF0B0C94CF0BE8
:100030000C94CF0B0C94C5AA0C94CF0B0C94CF0B43
:100040000C94CF0B0C94BA880C94CF0B0C94CF0B60
:100050000C94CF0B0C94CF0B0C9489910C94E59ECF
:100060000C94CF0B0C941EA30C9472A40C94CF0B85
:100070000C94CF0B0C94CF0B0C94CF0B0C94CF0B98
:100080000C94CF0B0C94CF0B0C94CF0B0C94CF0B88
:100090000C945EA30C94B1A40C94CF0B0C94509DC3
:1000A0000C94CF0B0C94CF0B0C94CF0B0C94CF0B68
:1000B0000C94CF0B0C94CF0B0C94CF0B0C94CF0B58
:1000C0000C94CF0B0C94CF0B0C94CF0B0C949EA3E1
:1000D0000C94F0A40C94CF0B0C94DEA30C942FA5DD
:1000E0000C94CF0B084AD73B3BCE016E84BCBFFDBE
:1000F000C12F3D6C74319ABD56833DDA3D00C77FF8
:1001000011BED9E4BB4C3E916BAAAABE0000008090
:100110003F05A84CCDB2D44EB93836A9020C50B91F
:10012000918688083CA6AAAA2ABE000000803F4DFE
:10013000383420582059205A2045006563686F3AAA
:100140000043616E6E6F7420656E74657220737506
:10015000626469723A20004D3234004D32332025FA
:1001600073006175746F25692E67004572726F7236
:100170003A006572726F722077726974696E6720D7
:10018000746F2066696C65004E6F74205344207054
:1001900072696E74696E67002F0053442070726933
:1001A0006E74696E67206279746520002E00446564
:1001B0006C6574696F6E206661696C65642C20469D
:1001C000696C653A200046696C652064656C6574ED
:1001D00065643A002E006F70656E206661696C651B
:1001E000642C2046696C653A200057726974696E08
:1001F0006720746F2066696C653A20002E006F706E
:10020000656E206661696C65642C2046696C653A90
:1002100020002E006F70656E206661696C65642C2D
:100220002046696C653A200046696C652073656CF0
:100230006563746564002053697A653A20004669F5
:100240006C65206F70656E65643A20002E006F70DB
:10025000656E206661696C65642C2046696C653A40
:1002600020004E6F772066726573682066696C6542
:100270003A20004E6F7720646F696E672066696C64
:10028000653A20002220706F730022207061726531
:100290006E743A2200535542524F5554494E4520F0
:1002A00043414C4C207461726765743A2200747249
:1002B00079696E6720746F2063616C6C207375625E
:1002C0002D67636F64652066696C65732077697458
:1002D0006820746F6F206D616E79206C6576656C37
:1002E000732E204D4158206C6576656C2069733AF9
:1002F0000053442063617264206F6B006F70656E01
:10030000526F6F74206661696C656400766F6C75FE
:100310006D652E696E6974206661696C6564005351
:100320004420696E6974206661696C006563686F5A
:100330003A0048617264636F646564204465666175
:10034000756C742053657474696E6773204C6F61AB
:100350006465640053746F726564207365747469B6
:100360006E677320726574726965766564002044F7
:10037000002049002020204D3330312050005049CA
:10038000442073657474696E67733A00205A0020C4
:10039000590020204D323036205800486F6D6520BE
:1003A0006F666673657420286D6D293A00204500DC
:1003B000205A0020580020420020540020204D32B6
:1003C0003035205300416476616E63656420766148
:1003D000726961626C65733A20533D4D696E2066A7
:1003E0006565647261746520286D6D2F73292C20FA
:1003F000543D4D696E2074726176656C206665654A
:10040000647261746520286D6D2F73292C20423D24
:100410006D696E696D756D207365676D656E7420AD
:1004200074696D6520286D73292C20583D6D6178A5
:10043000696D756D205859206A65726B20286D6D45
:100440002F73292C20205A3D6D6178696D756D20C0
:100450005A206A65726B20286D6D2F73292C20201D
:10046000453D6D6178696D756D2045206A65726BDB
:1004700020286D6D2F73290020540020204D32302C
:1004800034205300416363656C65726174696F6EFB
:100490003A20533D616363656C65726174696F6E88
:1004A0002C20543D726574726163742061636365CE
:1004B0006C65726174696F6E00204500205A0020DF
:1004C000590020204D3230312058004D6178696D3F
:1004D000756D20416363656C65726174696F6E2030
:1004E000286D6D2F7332293A00204500205A0020D4
:1004F000590020204D3230332058004D6178696D0D
:10050000756D2066656564726174657320286D6D14
:100510002F73293A00204500205A0020590020203E
:100520004D39322058005374657073207065722005
:10053000756E69743A0053657474696E67732053FD
:10054000746F726564006563686F3A004572726F1C
:10055000723A005072696E7465722073746F7070B5
:1005600065642064756520746F206572726F7273A4
:100570002E2046697820746865206572726F72203B
:10058000616E6420757365204D39393920746F2090
:10059000726573746172742E202854656D70657273
:1005A00061747572652069732072657365742E209D
:1005B0005365742069742061667465722072657376
:1005C00074617274696E6729005072696E74657225
:1005D0002068616C7465642E206B696C6C2829201E
:1005E00063616C6C656421006F6B00526573656EAE
:1005F000643A20002200556E6B6E6F776E20636F39
:100600006D6D616E643A202200486F74656E6420DF
:100610006F6666736574733A005A204F6666736539
:1006200074203A20007A5F6D61783A20007A5F6D1D
:10063000696E3A20005A204F6666736574005A202E
:100640004F6666736574206F6B00486F74656E64E7
:10065000206F6666736574733A007A5F6D61783AED
:1006600020007A5F6D696E3A2000795F6D61783A9B
:100670002000795F6D696E3A2000785F6D61783A8D
:100680002000785F6D696E3A2000205A3A002059A8
:100690003A0020436F756E7420583A200020453A86
:1006A00000205A3A0020593A00583A004649524D23
:1006B000574152455F4E414D453A4D61726C696EEE
:1006C0002056313B20537072696E7465722F6772C9
:1006D000626C206D617368757020666F722067654B
:1006E0006E36204649524D574152455F55524C3A5D
:1006F00068747470733A2F2F6769746875622E631B
:100700006F6D2F4572696B5A616C6D2F4D61726C04
:10071000696E2F2050524F544F434F4C5F564552F5
:1007200053494F4E3A312E30204D414348494E45B2
:100730005F545950453A4D656E64656C2045585478
:1007400052554445525F434F554E543A3220555509
:1007500049443A30303030303030302D3030303065
:100760002D303030302D303030302D303030303092
:10077000303030303030300A0020423A0020453AE4
:1007800000543A0020573A0020453A00543A0020DD
:1007900042403A0020403A00202F003A0020540006
:1007A000202F0020423A00202F006F6B20543A0087
:1007B0002569206D696E2C202569207365630045CD
:1007C0006E642066696C65206C69737400426567AD
:1007D000696E2066696C65206C69737400FFFFFFA9
:1007E0000000484300008C43000016430000A04076
:1007F0000000A040000000400000F0C10000000028
:1008000000000000000000000000000000000000E8
:100810000000484300008C4300001643256920680F
:100820006F757273202569206D696E75746573002C
:10083000446F6E65207072696E74696E67206669B8
:100840006C65005072696E7465722073746F70709D
:1008500065642064756520746F206572726F7273B1
:100860002E2046697820746865206572726F722048
:10087000616E6420757365204D39393920746F209D
:10088000726573746172742E202854656D70657280
:1008900061747572652069732072657365742E20AA
:1008A0005365742069742061667465722072657383
:1008B00074617274696E6729006F6B004E6F204C13
:1008C000696E65204E756D62657220776974682067
:1008D000636865636B73756D2C204C617374204C79
:1008E000696E653A20004E6F20436865636B7375CF
:1008F0006D2077697468206C696E65206E756D6215
:1009000065722C204C617374204C696E653A20002E
:10091000636865636B73756D206D69736D61746376
:10092000682C204C617374204C696E653A20004C31
:10093000696E65204E756D626572206973206E6FF9
:1009400074204C617374204C696E65204E756D6225
:1009500065722B312C204C617374204C696E653AA2
:1009600020004D31313000446F6E6520736176692F
:100970006E672066696C652E006F6B004D32390022
:100980002020506C616E6E657242756666657242BB
:10099000797465733A20002046726565204D656D57
:1009A0006F72793A20004A616E203236203230313F
:1009B0003500436F6D70696C65643A2000286E6F76
:1009C0006E652C2064656661756C7420636F6E665D
:1009D00069672900207C20417574686F723A200095
:1009E0004A616E20323620323031352031343A358A
:1009F000323A323500204C61737420557064617452
:100A000065643A2000312E302E30004D61726C69E1
:100A10006E0020536F66747761726520526573654E
:100A20007400205761746368646F67205265736552
:100A300074002042726F776E206F75742052657358
:100A40006574002045787465726E616C2052657320
:100A5000657400506F7765725570007374617274BD
:100A6000002200656E717565696E672022002200A4
:100A7000656E717565696E672022004D38342058A7
:100A80002059205A20450054203000542031004D78
:100A9000383420582059205A2045004D3234004D1A
:100AA000323320257300473238006563686F3A009F
:100AB00020746F6F206C6F6E672065787472757329
:100AC000696F6E2070726576656E74656400206370
:100AD0006F6C6420657874727573696F6E207072C4
:100AE0006576656E746564007C3C3E5E2B3D3F2FF1
:100AF0005B5D3B2C2A225C0045303A20005A3A20AC
:100B000000593A2000583A20004D53312C4D5332B1
:100B10002050696E730A0024F404D9201BC40C5CB5
:100B20000E9804C4095F0265077101F405F900FB22
:100B300004B30048048700C103690058035500034B
:100B4000034500BE023A008402310053022A002904
:100B500002250004022000E4011C00C8011900AFB6
:100B60000117009801140084011300710110006145
:100B700001100051010E0043010D0036010B002B46
:100B8000010B0020010B00150109000C01090003F5
:100B9000010800FB000800F3000800EB000700E478
:100BA000000600DE000600D8000600D2000600CCD9
:100BB000000500C7000500C2000500BD000400B923
:100BC000000400B5000400B1000400AD000400A959
:100BD000000400A5000300A20003009F0004009B86
:100BE00000030098000300950002009300030090AA
:100BF0000003008D0002008B0003008800020086C5
:100C000000020084000300810002007F0002007DDA
:100C10000002007B000200790002007700010076EC
:100C20000002007400020072000100710002006FF7
:100C30000002006D0001006C0002006A0001006902
:100C40000002006700010066000100650001006409
:100C50000002006200010061000100600001005F0D
:100C60000002005D0001005C0001005B0001005A11
:100C70000001005900010058000100570001005612
:100C80000001005500010054000100530000005312
:100C90000001005200010051000100500001004F0E
:100CA0000001004E0000004E0001004D0001004C0C
:100CB0000001004B0000004B0001004A0001004908
:100CC0000001004800000048000100470001004604
:100CD00000000046000100450000004500010044FE
:100CE00000010043000000430001004200000042F8
:100CF0000001004100000041000100400001003FF0
:100D00000000003F0001003E0000003E0001003DE9
:100D10000000003D0001003C0000003C0000003CE1
:100D20000001003B0000003B0001003A0000003AD7
:100D300000010039000000390001003800000038CF
:100D400000000038000100370000003700010036C5
:100D500000000036000000360001003500000035BC
:100D600000000035000100340000003400000034B1
:100D700000010033000000330000003300010032A6
:100D8000000000320000003200010031000000319C
:100D90000000003100010030000000300000003091
:100DA0000001002F0000002F0000002F0000002F86
:100DB0000001002E0000002E0000002E0001002D7A
:100DC0000000002D0000002D0000002D0001002C6F
:100DD0000000002C0000002C0000002C0001002B63
:100DE0000000002B0000002B0000002B0001002A57
:100DF0000000002A0000002A0000002A000100294B
:100E0000000000290000002900000029000000293E
:100E10000001002800000028000000280000002831
:100E20000000002800010027000000270000002724
:100E30000000002700000027000100260000002617
:100E4000000000260000002600000026000100250A
:100E500000000025000000250000002500000025FE
:100E600000000025000100240000002400000024F0
:100E700000000024000000240001002300000023E3
:100E800000000023000000230000002300000023D6
:100E900000000023000100220000002200000022C8
:100EA00000000022000000220000002200010021BA
:100EB00000000021000000210000002100000021AE
:100EC000000000210000002100010020000000209F
:100ED0000000002000000020000000200000002092
:100EE00000000020000000200001001F0000001F83
:100EF0000000001F0000001F0000001F0000001F76
:100F00000000001F0001001E0000001E0000001E67
:100F10000000001E00000024F4D43050C38E20C214
:100F2000A24017828B7011127A910D816CD90AA898
:100F300061E108C7586607615143061E4B5D05C154
:100F400045A7041A411104093D9803713931034042
:100F500036DB0265339102D4305402802E1D0263C9
:100F60002CEE01752AC501B028A001102781018F40
:100F70002564012B244B01E0223401AC211F018D9B
:100F8000200D01801FFC00841EED00971DDF00B8BE
:100F90001CD200E61BC600201BBC00641AB200B2C3
:100FA00019A8000A19A0006A189900D117910040E9
:100FB000178B00B516840031167E00B31579003A00
:100FC000157300C7146F0058146A00EE136600888A
:100FD00013630025135E00C7125B006C12570015E7
:100FE000125400C111510070114F0021114B00D655
:100FF0001049008D1047004610440002104200C006
:101000000F4000800F3E00420F3C00060F3B00CB1C
:101010000E3800930E37005C0E3500270E3400F3B7
:101020000D3200C10D3100900D3000600D2E0032E8
:101030000D2D00050D2C00D90C2B00AE0C290085C0
:101040000C29005C0C2700350C27000E0C2600E84C
:101050000B2400C40B2400A00B23007D0B23005A9B
:101060000B2100390B2100180B2000F80A1F00D9B2
:101070000A1E00BB0A1E009D0A1D00800A1D006397
:101080000A1C00470A1B002C0A1B00110A1A00F751
:10109000091A00DD091900C4091900AB09190092E9
:1010A0000917007B091800630917004C0916003660
:1010B000091600200916000A091500F5081500E0B8
:1010C000081400CC081400B8081400A408140090F8
:1010D0000813007D0812006B081300580812004620
:1010E0000812003408110023081100120811000131
:1010F000081100F0071000E0071000D0071000C032
:10110000071000B0070F00A107100091070E008321
:10111000070F0074070F0065070E0057070E004900
:10112000070E003B070D002E070E0020070D0013D1
:10113000070D0006070D00F9060C00ED060D00E096
:10114000060C00D4060C00C8060C00BC060C00B04F
:10115000060C00A4060B0099060C008D060B0082FD
:10116000060B0077060B006C060B0061060A0057A1
:10117000060B004C060A0042060A0038060A002E3A
:10118000060A0024060A001A060A001006090007CB
:10119000060A00FD050900F4050900EB050900E257
:1011A000050900D9050900D0050900C7050900BED9
:1011B000050900B5050800AD050800A50509009C56
:1011C000050800940508008C050800840508007CCB
:1011D000050800740508006C050700650508005D3A
:1011E000050700560508004E0507004705070040A3
:1011F00005080038050700310507002A0507002308
:101200000507001C050600160507000F0507000866
:1012100005060002050700FB040600F5040700EEC2
:10122000040600E8040600E2040700DB040600D51B
:10123000040600CF040600C9040600C3040600BD6E
:10124000040600B7040600B1040500AC040600A6BD
:10125000040600A00405009B040600950405009008
:101260000406008A04050085040500800406007A4F
:1012700004050075040500700405006B0405006694
:10128000040500610405005C0405005704050052D4
:101290000405004D04050048040500430405003E14
:1012A0000404003A04050035040500300404002C51
:1012B00004050027040400230405001E0404001A8A
:1012C00004040016040500110404000D04040009C0
:1012D0000405000404040000040400FC030400F8F6
:1012E000030400F4030400F0030400EC030400E82A
:1012F000030400E4030400E0030400DC030400D85A
:10130000030400D4030400D0030400CC030400C889
:10131000030300C50303006563686F3A00205A3A6F
:101320000020593A0020583A00656E6473746F705B
:1013300073206869743A20004572726F723A0054E3
:10134000656D70657261747572652068656174653C
:101350006420626564207377697463686564206FD4
:1013600066662E204D415854454D50207472696771
:101370006765726564202121003A20457874727592
:10138000646572207377697463686564206F66664C
:101390002E204D494E54454D502074726967676543
:1013A0007265642021003A20457874727564657214
:1013B000207377697463686564206F66662E204DBC
:1013C000415854454D502074726967676572656471
:1013D000202100202D20496E76616C69642065789B
:1013E000747275646572206E756D6265722021007D
:1013F00070012C0190012701B0012201C0011D01E3
:10140000F00118011002130130020E0160020901FF
:1014100090020401C002FF000003FA004003F5003F
:101420008003F000D003EB002004E6007004E1002C
:10143000E004DC004005D700C005D2004006CD0026
:10144000D006C8008007C3003008BE00F008B9000D
:10145000C009B400B00AAF00B00BAA00D00CA500C0
:10146000000EA000500F9B00C0109600501291007B
:1014700000148C00C0158700B0178200B0197D00E1
:10148000D01B7800001E730040206E00902269007F
:10149000F024640040275F0090295A00E02B55009B
:1014A000102E500020304B0010324600E033410037
:1014B00090353C001037370070383200A0392D00CD
:1014C000B03A2800A03B2300603C1E00103D1900EC
:1014D000903D1400103E0F00703E0A00C03E050013
:1014E000003F0000504944204175746F74756E656B
:1014F0002066696E69736865642120507574207474
:101500006865206C617374204B702C204B692061DE
:101510006E64204B6420636F6E7374616E7473200D
:1015200066726F6D2061626F766520696E746F20E0
:10153000436F6E66696775726174696F6E2E6800BD
:10154000504944204175746F74756E6520666169F9
:101550006C6564212074696D656F75740020403A74
:10156000006F6B20543A006F6B20423A00504944A0
:10157000204175746F74756E65206661696C656471
:10158000212054656D706572617475726520746F89
:101590006F206869676800204B643A2000204B691F
:1015A0003A2000204B703A200020436C617373692D
:1015B000632050494420002054753A2000204B7588
:1015C0003A2000206D61783A2000206D696E3A2043
:1015D0000020643A200020626961733A2000000014
:1015E0002100240027002A002D00300033000101D3
:1015F0000000040107010A01000022002500280064
:101600002B002E003100340002010000050108010A
:101610000B01000020002300260029002C002F00D1
:10162000320000010000030106010901050505055E
:10163000070508080808020202020A0A080804044A
:101640000404010101010101010103030303030378
:101650000303040707070C0C0C0C0C0C0C0C020207
:10166000020206060606060606060B0B0B0B0B0B04
:101670000B0B010210202008081020401020408091
:101680000201020108040201010204081020408046
:1016900080402010080402018004020180402010D4
:1016A000080402010804020101020408102040801D
:1016B00001020408102040800000090A02080B0CF7
:1016C0000D070603040100000000000000000000F8
:1016D000000000000000000000000000000000000A
:1016E0000000000011100F000000000000000000CA
:1016F000000000000000000000000000000002499F
:101700004E46494E4954594E414ECDCCCC3D0AD758
:10171000233C17B7D13877CC2B329595E6241FB1EF
:101720004F0A000020410000C84200401C4620BC77
:10173000BE4CCA1B0E5AAEC59D74CE2B672EBF9CE5
:10174000A1A6622E11241FBECFEFD1E2DEBFCDBF16
:1017500000E00CBF15E0A0E0B2E0E6EEFAE601E042
:101760000BBF02C007900D92A63CB107D9F71BBE74
:1017700017E1A6ECB5E001C01D92A833B107E1F76F
:1017800017E1C2E4D7E104C02297FE010E9419B517
:10179000CA33D107C9F70E94D8A70C9467B50C9437
:1017A0000000A0E0B0E0E7EDFBE00C9436B5EC0102
:1017B0005B016115710519F0FB0191838083F9903C
:1017C0008F2D90E00E941DB5892BC9F7FDE2FF1611
:1017D00021F4F990EE24E39405C02BE2F21609F40B
:1017E000F990EE248E0101501040C8016FEF76E1B0
:1017F00043E050E069D2892BF9F48E010E5F1F4F50
:10180000C80162E077E145E050E05ED2892B19F42F
:101810008E01095F1F4FA114B10419F0F501118366
:101820000083E0FC04C070E090E080E813C070E04A
:1018300090E080E86FEF07C1C80167E077E143E01F
:1018400050E042D2892B69F4A114B10429F470E06C
:1018500090E080EC6FE7F7C02296F501D183C0835A
:10186000F6CF8824992440E050E060E070E0EF2D4E
:10187000E053EA30A0F5F2E0EF2A8E2D90E09C01D3
:1018800028703070E2FE06C0232B79F50894811C85
:10189000911C2BC0232B19F0089481089108DB01BF
:1018A000CA0112E0880F991FAA1FBB1F1A95D1F712
:1018B000480F591F6A1F7B1F440F551F661F771F54
:1018C0004E0F511D611D711D483929E9520729E943
:1018D000620729E1720748F084E0E82A06C0EE3F7B
:1018E00031F4E3FC39C098E0E92AF990C0CFE53340
:1018F00011F0E53189F529912D3219F4E0E1EE2A54
:1019000005C02B3219F081E090E003C0299182E0FC
:1019100090E0E22FE053EA3018F0C81BD90B1CC04E
:1019200020E030E0FCE020383F075CF4C901880F7C
:10193000991F880F991F280F391F220F331F2E0F51
:10194000311DE991E053EA3068F3E4FE03C03095BD
:1019500021953F4F820E931ECE2CDD24E1FE07C061
:10196000A114B10421F02197F501D183C083CB01EB
:10197000BA010E947EB17B018C01F3E0CF22DD240D
:1019800023E0C216D10421F417FB109517F9109526
:1019900057016801C801B70120E030E040E050E0A5
:1019A0000E94DEB0882309F44AC097FE0DC02EE1E4
:1019B000E22E27E1F22E9094819491089394C0E254
:1019C000D0E000E010E012C096E3E92E97E1F92E96
:1019D000F6CFF7012591359145915491C601B50196
:1019E0000E94BEB35B016C018C1A9D0A8C169D0689
:1019F00084F7D595C7950F5F1F4F0630110529F065
:101A00008CEF9FEFE80EF91EF1CFC501D6017C01E6
:101A10008D018C2D880F8D2D881F8F3F51F0C601B1
:101A2000B50120E030E040E050E00E94DEB08823C5
:101A300031F482E290E090933717809336177E2D31
:101A40009F2D802F612F272F392F482F562FB90117
:101A5000CA01CDB7DEB7ECE00C9452B52F923F929D
:101A60005F926F927F928F929F92AF92BF92CF922E
:101A7000DF92EF92FF920F931F93CF93DF938C012E
:101A80001B01EA016115710519F0FB019183808347
:101A9000209749F0CE010297839728F020E030E0AC
:101AA00040E050E0F6C0F801A1908F018A2D90E04F
:101AB0000E941DB5892BB9F7FDE2AF1631F4F8018C
:101AC000A1908F015524539407C0FBE2AF1619F47F
:101AD000F801A1908F015524209719F0C031D1054C
:101AE000C1F4F0E3AF1679F4F8018081883711F082
:101AF000883549F4F801A1800E5F1F4FF2E05F2A9C
:101B0000C0E1D0E006C0209721F480E3A816E9F4F4
:101B100027C0C830D10531F1C930D10524F4C23015
:101B2000D10531F50CC0CA30D10589F0C031D105DD
:101B3000F9F4C12CD12CE12CB8E0FB2E28C0C12C2B
:101B4000D12CE12CA0E4FA2E22C0CAE0D0E0FCECBB
:101B5000CF2EFCECDF2EFCECEF2EFCE0FF2E17C0AE
:101B6000C8E0D0E0C12CD12CE12CE0E1FE2E0FC06A
:101B70009E01442737FD4095542F60E070E080E0DF
:101B800090E80E94DAB4C901DA016C017D0120E01D
:101B900030E040E050E060E03E01882477FC809433
:101BA000982C70EDB72EBA0CE9E0EB1570F48A2D85
:101BB00081548A3118F499ECB92E06C08A2D8156C9
:101BC0008A3150F589EAB82EBA0C8B2D90E08C172B
:101BD0009D0714F56F3FE1F0C216D306E406F50643
:101BE000B0F0CA01B901A40193010E9494B49B0111
:101BF000AC012B0D311D411D511D2130F0E03F077F
:101C0000F0E04F07F0E85F0710F461E001C06FEF0C
:101C1000F801A1908F01C5CF2114310481F0662312
:101C200031F001501040F1011183008308C051FED2
:101C30001AC002501040F1011183008314C067FFE5
:101C400012C050FC05C02FEF3FEF4FEF5FE704C01D
:101C500020E030E040E050E882E290E090933717D7
:101C60008093361716C050FE08C0509540953095A9
:101C700021953F4F4F4F5F4F0CC057FF0AC082E284
:101C800090E090933717809336172FEF3FEF4FEF89
:101C90005FE7B901CA01DF91CF911F910F91FF90CA
:101CA000EF90DF90CF90BF90AF909F908F907F90FC
:101CB0006F905F903F902F900895FB01DC0105909D
:101CC0000D920020E1F70895FB01DC0141505040E6
:101CD00088F08D9181341CF08B350CF4805E659119
:101CE00061341CF06B350CF4605E861B611171F37E
:101CF000990B0895881BFCCFFB0155915523A9F042
:101D0000BF01DC014D9145174111E1F759F4CD01B7
:101D10000590002049F04D9140154111C9F3FB0198
:101D20004111EFCF81E090E001970895FB01DC01C4
:101D300004C08D910190801921F441505040C8F7A2
:101D4000881B990B0895FB01DC0102C001900D92E4
:101D500041505040D8F70895FB01DC010D90002060
:101D6000E9F7119701900D920020E1F70895FC0129
:101D70008191861721F08823D9F799270895319703
:101D8000CF010895FB01DC018D91019080190110B4
:101D9000D9F3990B0895FB01DC0101900D9200200D
:101DA000E1F70895FB01DC014150504030F08D9186
:101DB0000190801919F40020B9F7881B990B089538
:101DC000FB01DC014150504048F001900D92002091
:101DD000C9F701C01D9241505040E0F70895FB0142
:101DE0009F01E8944230C4F04532B4F44A3029F4FB
:101DF00097FB1EF4909581959F4F642F77270E9443
:101E0000B3B4805D8A330CF0895D8193CB01009778
:101E1000A1F716F45DE251931082C9012CC2AEE025
:101E2000B0E0E5E1FFE00C943EB50E891F8986E045
:101E30008C831A8309838FEF9FE79E838D839E0196
:101E4000265E3F4FCE010196688D798DA9012DD078
:101E50002F813885020F131FF80110822E96E4E0BF
:101E60000C945AB5AEE0B0E0E8E3FFE00C943EB568
:101E70000E891F898EE08C831A8309838FEF9FE779
:101E80009E838D839E01265E3F4FCE010196688D15
:101E9000798DA9010AD02F813885020F131FF8010F
:101EA00010822E96E4E00C945AB5ABE0B0E0EBE57E
:101EB000FFE00C9430B53C012B015A01FC01178264
:101EC0001682838181FD03C06FEF7FEFB9C19AE075
:101ED000892E1E010894211C311CF3012381F2017B
:101EE00023FD859123FF81912F01882309F4A5C14A
:101EF000853239F423FD859123FF81912F018532AD
:101F000021F490E0B301C7D1E8CF982FFF24EE244D
:101F10009924FFE1FF15D0F09B3269F09C3228F440
:101F2000903259F0933291F40EC09D3249F09033C3
:101F300069F441E024C052E0F52A84E0F82A28C080
:101F400098E0F92A25C0E0E1FE2A22C0F7FC29C06A
:101F5000892F80538A3070F4F6FE05C0989C902C2F
:101F60001124980E15C0E89CE02C1124E80EF0E234
:101F7000FF2A0EC09E3229F4F6FC5FC140E4F42A29
:101F800007C09C3619F450E8F52A02C0983649F487
:101F9000F20123FD959123FF91912F01992309F0DF
:101FA000B8CF892F8554833018F08052833038F4AD
:101FB00044E050E0A40EB51E5FE359830FC0933692
:101FC00031F0933779F0933509F052C01FC0F50115
:101FD0008081898342E050E0A40EB51E610101E0DA
:101FE00010E011C0F501C080D180F6FC03C06FEF96
:101FF0007FEF02C0692D70E042E050E0A40EB51EF4
:10200000C6012ED18C015FE7F52213C0F501C08017
:10201000D180F6FC03C06FEF7FEF02C0692D70E046
:1020200042E050E0A40EB51EC6010FD18C0150E86D
:10203000F52AF3FE06C018C080E290E0B3012BD170
:10204000EA948E2D90E008171907B0F30DC0F60141
:10205000F7FC8591F7FE81916F0190E0B3011BD1F0
:10206000E110EA94015010400115110581F7E2C01A
:10207000943611F0993661F5F7FE08C0F50120811C
:1020800031814281538184E090E00AC0F501808172
:1020900091819C01442737FD4095542F82E090E0C8
:1020A000A80EB91E9FE6F92257FF09C0509540952A
:1020B000309521953F4F4F4F5F4FE0E8FE2ACA0110
:1020C000B901A1012AE030E012D1D82ED2183FC0C8
:1020D000953729F41F2D1F7E2AE030E01DC01F2DEB
:1020E000197F9F3661F0903720F4983509F0A5C02C
:1020F0000FC0903739F0983709F09FC004C028E02E
:1021000030E00AC0106114FD146020E130E004C02A
:1021100014FD166020E132E017FF08C0F501608170
:1021200071818281938144E050E008C0F501808193
:102130009181BC0180E090E042E050E0A40EB51E29
:10214000A101D5D0D82ED2188FE7F82EF122F6FEB5
:102150000BC05EEFF522D91438F4F4FE07C0F2FC90
:1021600005C08FEEF82202C01D2D01C0192DF4FE0E
:102170000DC0FE01ED0DF11D8081803319F499EE43
:10218000F92208C01F5FF2FE05C003C08F2D8678BC
:1021900009F01F5F0F2DF3FC13C0F0FE0EC01E15DB
:1021A00010F09D2C0AC09D2C9E0C911A1E2D05C06E
:1021B00080E290E0B3016FD01F5F1E15C8F304C02A
:1021C0001E1510F4E11A01C0EE2404FF0EC080E3D6
:1021D00090E0B30160D002FF1BC001FD03C088E79F
:1021E00090E00EC088E590E00BC0802F867881F0EB
:1021F00001FF02C08BE201C080E2F7FC8DE290E0BB
:10220000B30149D005C080E390E0B30144D09A9473
:10221000D914C8F3DA94F101ED0DF11D808190E03D
:10222000B30139D0DD20B1F705C080E290E0B30101
:1022300032D0EA94EE20C9F750CEF301668177815F
:10224000CB012B96E2E10C944CB5FC01059061505A
:1022500070400110D8F7809590958E0F9F1F0895BC
:10226000FC016150704001900110D8F78095909565
:102270008E0F9F1F0895DC01FC01672F719177235A
:10228000E1F7329704C07C916D9370836291AE1731
:10229000BF07C8F308950F931F93CF93DF938C016B
:1022A000EB018B8181FF1BC082FF0DC02E813F811E
:1022B0008C819D812817390764F4E881F9810193A5
:1022C000F983E88306C0E885F985802F1995892B65
:1022D00031F48E819F8101969F838E8302C00FEF20
:1022E0001FEFC801DF91CF911F910F910895FA015F
:1022F000AA27283051F1203181F1E8946F936E7F45
:102300006E5F7F4F8F4F9F4FAF4FB1E03ED0B4E035
:102310003CD0670F781F891F9A1FA11D680F791F76
:102320008A1F911DA11D6A0F711D811D911DA11D87
:1023300020D009F468943F912AE0269F1124301997
:10234000305D3193DEF6CF010895462F4770405D32
:102350004193B3E00FD0C9F7F6CF462F4F70405DE1
:102360004A3318F0495D31FD4052419302D0A9F73C
:10237000EACFB4E0A6959795879577956795BA9536
:10238000C9F700976105710508959B01AC010A2EFC
:1023900006945795479537952795BA95C9F7620FD3
:1023A000731F841F951FA01D0895FC0112821482C3
:1023B0000895FC018481882319F081E082831382CF
:1023C0000895FC018281882319F0128281E08383C1
:1023D0000895FC01E458FD4F6081718182819381F1
:1023E0000895FC01EC57FD4F6081718182819381DA
:1023F0000895FC018CE995E091838083878188238F
:1024000021F0CF0104960C94EE7A0895EF92FF929A
:102410000F931F938C018FECE82E81E0F82EE00ED5
:10242000F11EC7010E94A17AC7010E94EE7AF8014D
:10243000108211821F910F91FF90EF900895BF922B
:10244000CF92DF92EF92FF920F931F93CF93DF9380
:102450008C01EB018FE28993EE24E394FF2426EABA
:10246000C22E21E0D22EC00ED11E9FE1B92E14C083
:10247000FB9CC00111248C589F4F800F911FBE01FF
:102480000E94FE7A02C02196E3948881882319F085
:102490008CE88E15C0F7F3942F2D30E0F601808183
:1024A00091812817390720F3E7FC07C0C801815341
:1024B0009E4FBE010E94FE7A01C01882DF91CF912B
:1024C0001F910F91FF90EF90DF90CF90BF900895F4
:1024D0000F931F93CF93DF93DC01D4961C92D49774
:1024E000D7961C92D797D3961C921E92D2978CE9BE
:1024F00095E0D1969C938E93D097AB5ABF4F1C9288
:1025000013961C92A855B040FD01EF5AFF4FAD5AEB
:10251000BF4F11961C921E92A355B04091838083A9
:10252000ED01C059DF4FFE0120E030E0482F14825A
:1025300017821382128240839183215E3F4F7F96E0
:1025400081E02633380799F7A755BE4F89E18C9370
:1025500013961C9258961C921B961C9213961C92D2
:10256000A25DB140FD01E553FE4FA353BE4F11964E
:102570001C921E9240839183A155BF4F1D921D92C4
:102580001D921C92139718961D921D921D921C92DB
:102590001397A458B24012961C92129713961C924D
:1025A000139714961C9214971C9211961C921197D3
:1025B0008D0100581D4FF801108211821282138282
:1025C000AA55BE4F11961C921E92AC5BBF4F1C9237
:1025D000FE01C90111920197E9F7A256BF4F81E0B0
:1025E0008C93A858B2409F961C921E929E970E9470
:1025F0002D9F68577C4E8F4F9F4FF80160837183EA
:1026000082839383DF91CF911F910F910895CF9291
:10261000DF92EF92FF920F931F93CF93DF937C0192
:102620006B01DB010D900020E9F78D010150104096
:10263000061B170BEFECF1E0EE0EFF1ED7011C920C
:10264000E1E3FEEFEE0EFF1ECB016EE470E08FDBE8
:10265000EC01009731F4F8013197EC0DFD1D860176
:102660000CC060E270E083DB8C010F5F1F4FCE0176
:102670006AE270E07CDBFC0131978DE081838AE0C7
:1026800082831382C70185539E4FB8010E94D38273
:102690008FEC91E0E80EF91ED7018C91882339F177
:1026A000EBE6F1E06491EF010AC0772767FD7095D2
:1026B00080E896E10E9461A62196FE01649166235E
:1026C000A1F7E2E7F1E06491EF010AC0772767FD27
:1026D000709580E896E10E9461A62196FE016491C2
:1026E0006623A1F780E896E16AE00E9461A6DF9187
:1026F000CF911F910F91FF90EF90DF90CF900895B1
:102700000F931F93CF93DF93EC018C81882309F4FF
:102710003FC0EAE9F1E064918F010BC0772767FDC4
:10272000709580E896E10E9461A60F5F1F4FF80147
:102730006491662399F7CC57DD4F488159816A81AE
:102740007B81C458D24080E896E12AE030E00E94C4
:10275000BEA8E8E9F1E064918F010BC0772767FD1F
:10276000709580E896E10E9461A60F5F1F4FF80107
:102770006491662399F7C458DD4F488159816A8175
:102780007B8180E896E12AE030E00E94BEA811C07B
:10279000E8E8F1E06491EF010AC0772767FD7095E2
:1027A00080E896E10E9461A62196FE01649166236D
:1027B000A1F780E896E16AE00E9461A6DF91CF91DF
:1027C0001F910F9108952F923F924F925F926F92B7
:1027D0007F928F929F92AF92BF92CF92DF92EF92B1
:1027E000FF920F931F93DF93CF93CDB7DEB7AC97D4
:1027F0000FB6F894DEBF0FBECDBF5C014B01FC01EC
:102800008481882309F42BC1C50181539E4F0E9406
:10281000EE7AF50112821A8A1D8A198A188A8CE9C1
:1028200095E09F878E87EFE4CE2ED12CCA0CDB1C5F
:1028300020E330E0A20EB31EF601B182A08220EDAB
:102840003FEFA20EB31EF40180818F3209F084C0E5
:10285000C4016FE270E08BDA7C010894E11CF11C8A
:102860003E010894611C711C260172E1272E312C57
:102870002C0E3D1E6CC0C7016FE270E078DA6C016F
:10288000009709F477C0E816F90608F073C08C01C8
:102890000E191F09C301B701A80192DA060D171D11
:1028A000F801108280E896E1B3010E9492A980E8C5
:1028B00096E16AE00E9461A6F20160817181611572
:1028C000710519F460E070E002C06C5F7F4FC101D8
:1028D000A30121E00E94DA81882371F5E6EDF1E0A1
:1028E00064917F010CC0772767FD709580E896E1C1
:1028F0000E9461A60894E11CF11CF7016491662313
:1029000091F780E896E1BE016F5F7F4F0E9492A928
:10291000E4EDF1E064917F010CC0772767FD7095CD
:1029200080E896E10E9461A60894E11CF11CF70181
:102930006491662391F78BC02EE030E02C0F3D1F91
:10294000F2013183208376010894E11CF11CE1142B
:10295000F10409F090CF0BC081E590E0A80EB91EFC
:10296000F601B182A0822FEA3FEFA20EB31ED82C4F
:10297000092D02C0DE2C0F2D8FE490E0A80EB91EA9
:10298000F5018081918121EB3FEFA20EB31E0097EC
:1029900019F480E090E001C004966D2D702F0E9424
:1029A000A682882341F1E6ECF1E064917F010CC03E
:1029B000772767FD709580E896E10E9461A60894EC
:1029C000E11CF11CF7016491662391F780E896E120
:1029D0006D2D702F0E9492A980E896E16AE00E9416
:1029E00061A624E832E0A20EB31EF5011082118226
:1029F0001282138231C0EEEAF1E064917F010CC0D3
:102A0000772767FD709580E896E10E9461A608949B
:102A1000E11CF11CF7016491662391F780E896E1CF
:102A20006D2D702F0E9492A9ECEAF1E064917F0174
:102A30000CC0772767FD709580E896E10E9461A63B
:102A40000894E11CF11CF7016491662391F780E87A
:102A500096E16AE00E9461A6CE010E96CADCAC96B1
:102A60000FB6F894DEBF0FBECDBFCF91DF911F919F
:102A70000F91FF90EF90DF90CF90BF90AF909F901D
:102A80008F907F906F905F904F903F902F90089520
:102A90002F923F924F925F926F927F928F929F926E
:102AA000AF92BF92CF92DF92EF92FF920F931F935C
:102AB000DF93CF93CDB7DEB7AD970FB6F894DEBFF7
:102AC0000FBECDBF5C014B014DA7DC0114968C916C
:102AD000882309F437C3E2EDF1E0AE0EBF1ED50145
:102AE0008C91EEE2FEEFAE0EBF1E882309F419C1F1
:102AF000222309F0E0C02AEE31E0A20EB31ED50178
:102B00008C91E6E1FEEFAE0EBF1E882309F436C0BD
:102B1000EBE6F1E064917F010CC0772767FD7095CB
:102B200080E896E10E9461A60894E11CF11CF7017F
:102B30006491662391F7EEEAF2E064917F010CC0A4
:102B4000772767FD709580E896E10E9461A608945A
:102B5000E11CF11CF7016491662391F780E896E18E
:102B600061E070E04AE050E00E9463A980E896E1ED
:102B70006AE00E9461A60E944938E4C2EBE3F1E0FA
:102B800064917F010CC0772767FD709580E896E11E
:102B90000E9461A60894E11CF11CF7016491662370
:102BA00091F7E5E9F2E064917F010CC0772767FDBA
:102BB000709580E896E10E9461A60894E11CF11CE2
:102BC000F7016491662391F780E896E1B4010E94D1
:102BD00092A9EAE8F2E064917F010CC0772767FDD3
:102BE000709580E896E10E9461A60894E11CF11CB2
:102BF000F7016491662391F7850106511E4FD801B4
:102C00006C918DE8F82E6F9DB001112461517E4FBB
:102C10006A0D7B1DC50113DCF80160816F9DB00159
:102C2000112461517E4F6A0D7B1D80E896E10E9460
:102C300092A9E4E8F2E064917F010CC0772767FD78
:102C4000709580E896E10E9461A60894E11CF11C51
:102C5000F7016491662391F785010C571D4FD80148
:102C60004D915D916D917C9180E896E12AE030E094
:102C70000E94BEA880E896E16AE00E9461A6A501D4
:102C800046515E4FFA012081E22FF0E0EE0FFF1F68
:102C9000EE0FFF1FEA0DFB1DE551FE4FD801CD9051
:102CA000DD90ED90FC90C082D182E282F3822F5FB2
:102CB000FA01208330C0EBE3F1E064917F010CC0A6
:102CC000772767FD709580E896E10E9461A60894D9
:102CD000E11CF11CF7016491662391F7E3E7F2E050
:102CE00064917F010CC0772767FD709580E896E1BD
:102CF0000E9461A60894E11CF11CF701649166230F
:102D000091F780E896E1B4010E9492A980E896E1EB
:102D10006AE00E9461A6C50181539E4F0E94EE7A2F
:102D20003AC02AEE31E0A20EB31ED5011C92E6E1B4
:102D3000FEEFAE0EBF1EEBE3F1E064917F010CC02D
:102D4000772767FD709580E896E10E9461A6089458
:102D5000E11CF11CF7016491662391F7E2E6F2E0D1
:102D600064917F010CC0772767FD709580E896E13C
:102D70000E9461A60894E11CF11CF701649166238E
:102D800091F780E896E1B4010E9492A980E896E16B
:102D90006AE00E9461A6D50112961C921A8A1D8AC9
:102DA000198A188A8CE995E09F878E87AFE4CA2E2E
:102DB000D12CCA0CDB1CE0E3F0E0AE0EBF1ED60146
:102DC000AD92BC92E0EDFFEFAE0EBF1ED4018C9130
:102DD0008F3209F087C0C4016FE270E00E94B70E25
:102DE0007C010894E11CF11C3E010894611C711CDB
:102DF0002601F2E12F2E312C2C0E3D1E6EC0C70194
:102E00006FE270E00E94B70E6C01009709F478C081
:102E1000E816F90608F074C08C010E191F09C301E9
:102E2000B701A8010E94E00E060D171DF8011082DF
:102E300080E896E1B3010E9492A980E896E16AE0F9
:102E40000E9461A6D2016D917C916115710519F402
:102E500060E070E002C06C5F7F4FC101A30121E020
:102E60000E94DA81882371F5EEE4F2E064917F013B
:102E70000CC0772767FD709580E896E10E9461A6F7
:102E80000894E11CF11CF7016491662391F780E836
:102E900096E1BE016F5F7F4F0E9492A9ECE4F2E0E1
:102EA00064917F010CC0772767FD709580E896E1FB
:102EB0000E9461A60894E11CF11CF701649166234D
:102EC00091F738C1EEE0F0E0EC0FFD1FD201ED9379
:102ED000FC9376010894E11CF11CE114F10409F063
:102EE0008ECF0BC021E530E0A20EB31ED601AD920D
:102EF000BC92EFEAFFEFAE0EBF1E082DD92C02C028
:102F00000E2DDF2CF501E15BFF4F2DA5222309F4E7
:102F1000B5C0608171816115710519F460E070E0E0
:102F200002C06C5F7F4FC50181539E4F402F5D2DC6
:102F300021E00E94DA81882309F473C0A501445876
:102F40005D4F80EE91E0A80EB91EF5018081918160
:102F5000A281B38120E23EEFA20EB31EFA0180836C
:102F60009183A283B383EEE3F2E064917F010CC00E
:102F7000772767FD709580E896E10E9461A6089426
:102F8000E11CF11CF7016491662391F780E896E15A
:102F9000602F7D2D0E9492A9E6E3F2E064917F010B
:102FA0000CC0772767FD709580E896E10E9461A6C6
:102FB0000894E11CF11CF7016491662391F72CE75A
:102FC00032E0A20EB31ED5014D915D916D917C91C1
:102FD00080E896E12AE030E00E94BEA880E896E111
:102FE0006AE00E9461A6E8E0F0E0AE0EBF1ED501E7
:102FF0001D921D921D921C921397E8E2F2E06491DB
:103000007F010CC0772767FD709580E896E10E94EC
:1030100061A60894E11CF11CF7016491662391F705
:1030200089C0E4E1F2E064917F010CC0772767FD7D
:10303000709580E896E10E9461A60894E11CF11C5D
:10304000F7016491662391F780E896E1602F7D2D6A
:103050000E9492A9E2E1F2E064917F010CC077271F
:1030600067FD709580E896E10E9461A60894E11CD6
:10307000F11CF7016491662391F75CC06081718156
:103080006115710519F460E070E002C06C5F7F4F5C
:10309000C50181539E4F402F5D2D26E50E94DA81A8
:1030A000882369F5EEEFF1E064917F010CC077278A
:1030B00067FD709580E896E10E9461A60894E11C86
:1030C000F11CF7016491662391F780E896E1602F87
:1030D0007D2D0E9492A9ECEFF1E064917F010CC07C
:1030E000772767FD709580E896E10E9461A60894B5
:1030F000E11CF11CF7016491662391F71BC081E08C
:10310000D5018C93EAEEF1E064917F010CC0772742
:1031100067FD709580E896E10E9461A60894E11C25
:10312000F11CF7016491662391F780E896E1B40100
:103130000E9492A980E896E16AE00E9461A6CE0111
:103140000E9657D9AD960FB6F894DEBF0FBECDBF21
:10315000CF91DF911F910F91FF90EF90DF90CF9073
:10316000BF90AF909F908F907F906F905F904F90A7
:103170003F902F900895EF92FF920F931F93CF935C
:10318000DF93EC010E949E888E0106511E4FD801EC
:103190008C913FECE32E31E0F32EEC0EFD1E8823E4
:1031A000A1F1C7010E94EE7AF8016081615060834D
:1031B0008DE8689FB001112461517E4F6C0F7D1F17
:1031C000CE0141E021E064DCD801EC91F0E0EE0FAB
:1031D000FF1FEE0FFF1FEC0FFD1FE551FE4F40815B
:1031E000518162817381CC57DD4F488359836A8353
:1031F0007B83C458D240C7010E94D7798C81882331
:1032000091F181E08A831B822EC00E947B88C701D6
:103210000E94EE7A1A828FE291E00E94FF5980911B
:10322000CE0B882301F11092CE0B80914F09C82F4D
:10323000D0E0CC0FDD1FC85EDC4E68817981882725
:1032400077FD8095982F0E9480B12091F6043091EF
:10325000F7044091F8045091F9040E94ECB218165A
:1032600014F419821882DF91CF911F910F91FF9072
:10327000EF900895FC0181E08183CF0140E021E0DF
:1032800007CCEF92FF920F931F93CF93DF937C01B4
:10329000FC01148287A9882321F0C701C4960E94EB
:1032A000EE7A870108551E4FC80160E045E30E9491
:1032B0009D78882319F5EBE3F1E06491EF010AC0F2
:1032C000772767FD709580E896E10E9461A62196B8
:1032D000FE0164916623A1F7EFE1F3E06491EF0151
:1032E0000AC0772767FD709580E896E10E9461A685
:1032F0002196FE0164916623A1F783C0E701C355BF
:10330000DE4FCE01B80141E00E946483882351F56D
:10331000CE01B80140E00E946483882319F5EBE6F2
:10332000F1E06491EF010AC0772767FD709580E8AE
:1033300096E10E9461A62196FE0164916623A1F7A1
:10334000ECE0F3E06491EF010AC0772767FD709528
:1033500080E896E10E9461A62196FE0164916623B1
:10336000A1F74FC0C701C496BE010E94E07D88232B
:1033700019F5EBE6F1E06491EF010AC0772767FDEC
:10338000709580E896E10E9461A62196FE01649105
:103390006623A1F7ECEFF2E06491EF010AC0772712
:1033A00067FD709580E896E10E9461A62196FE0176
:1033B00064916623A1F725C081E0F7018483EBE3E4
:1033C000F1E06491EF010AC0772767FD709580E80E
:1033D00096E10E9461A62196FE0164916623A1F701
:1033E000E1EFF2E06491EF010AC0772767FD709585
:1033F00080E896E10E9461A62196FE016491662311
:10340000A1F780E896E16AE00E9461A6D701AB5A75
:10341000BF4FF701F4968BE101900D928150E1F7D7
:10342000F70182A993A923E530E0E20EF31EF7012C
:10343000918380832DEA3FEFE20EF31EC701C09611
:10344000EFE4F0E0EE0EFF1EF70191838083DF9141
:10345000CF911F910F91FF90EF9008952F923F927F
:103460004F925F926F927F929F92AF92BF92CF9254
:10347000DF92EF92FF920F931F93DF93CF93CDB71D
:10348000DEB7CC55D0400FB6F894DEBF0FBECDBF2F
:103490006C01662311F528E832E0C20ED31ED60176
:1034A0008C91E8E7FDEFCE0EDF1E882309F4E3C020
:1034B00020E832E0C20ED31ED601ED90FD900D91B2
:1034C0001C91E0E8FDEFCE0EDF1E0E942D9FE61658
:1034D000F7060807190708F4CEC028E832E0C20E44
:1034E000D31ED6011C92E8E7FDEFCE0EDF1ED601FB
:1034F00014968C91882339F4C601C3DEF6018481C9
:10350000882309F4B8C000D000D0EDB7FEB73196DB
:103510007E010894E11CF11CADB7BEB71296FC9277
:10352000EE92119782E691E093838283D6019E9674
:103530008D919C919F97958384830E94320F870180
:10354000EDB7FEB736960FB6F894FEBF0FBEEDBFCF
:1035500057010AC0D8018C91992787FD90950E9448
:1035600025B5F80181938F01F50101900020E9F75D
:103570003197EA19FB09802F8E198E175CF374E3DB
:10358000A72EB12CAC0CBD1CC50140E050E060E0A2
:1035900070E00E94D77999246DE3E62EF12CEC0EB1
:1035A000FD1E2E010894411C511C5FE1652E712CFB
:1035B0006C0E7D1E4BE5242E41E0342E42C0D80116
:1035C0008C9190E00E9425B5F80181938F01D7017D
:1035D0000D900020E9F71197AE19BF09802F8E19C1
:1035E0008A176CF327968FAD27978E3751F1C70155
:1035F000B20145E050E00E94D20E009711F500D0D4
:1036000000D0EDB7FEB73196ADB7BEB712967C923B
:103610006E92119733822282558244820E94320F29
:10362000EDB7FEB736960FB6F894FEBF0FBEEDBFEE
:10363000C3010E947F5A87E591E00E94FF599924B7
:103640009394C501B70140E050E00E94FF7C18163A
:1036500014F48701BCCF992041F48FEF9FEFD6017E
:103660009F969C938E939E9706C0F60186A597A57C
:10367000019697A786A7C45ADF4F0FB6F894DEBF0E
:103680000FBECDBFCF91DF911F910F91FF90EF90B3
:10369000DF90CF90BF90AF909F907F906F905F90A2
:1036A0004F903F902F9008952F923F924F925F92AC
:1036B0006F927F928F929F92AF92BF92CF92DF9242
:1036C000EF92FF920F931F93DF93CF93CDB7DEB7A7
:1036D000CF58D0400FB6F894DEBF0FBECDBF7C01EF
:1036E0002B015A0184E090E0A80EB91EF7017296F2
:1036F000C757DF4FF983E883C958D040C701059603
:10370000CA57DF4F99838883C658D040C857DF4FC8
:103710001882C858D040B6E6CB2ED12CCC0EDD1E78
:10372000F6013B96C557DF4FF983E883CB58D0406D
:10373000A9E86A2EA2E07A2E6E0C7F1CFBE88F2E81
:10374000F2E09F2E8E0C9F1CE7E42E2E312C2C0EC7
:103750003D1EC1010496C357DF4F99838883CD581E
:10376000D040EBE3F1E09491C157DF4F9883CF58FD
:10377000D04035C1F6018385482F50E0BA01687109
:1037800070706031710509F038C1F3012081318119
:103790002130310509F431C12230310509F42DC140
:1037A000F601DE0111969081903239F08E2F8C193E
:1037B000883011F48EE28D939D933196C557DF4F7B
:1037C00088819981CB58D040E817F90761F71C929E
:1037D0001E86F2018081882331F4CE010E9660E0CE
:1037E00072E00E94AC0ECE010E96B2010E94AC0EA9
:1037F000CE010E96BE016F5F7F4F0E94AC0ECE01D0
:103800000E9660E072E00E94AC0E1CA61FA61BA6DE
:103810001AA68CE995E099A788A7CE018C96B501E8
:10382000AE014F5F5F4F21E00E94DA81882389F566
:10383000F30180819181892B61F5C157DF4F688148
:10384000CF58D0400BE311E00BC0772767FD709590
:1038500080E896E10E9461A60F5F1F4FF801649116
:10386000662399F780E896E162E072E00E9492A9EF
:1038700080E896E16AE00E9461A680E896E1BE01D8
:103880006F5F7F4F0E9492A980E896E16AE00E94F4
:1038900061A6C357DF4FA881B981CD58D040FE0142
:1038A000BC968BE101900D928150E1F78AA59BA512
:1038B000F101938382838CE995E091838083C70132
:1038C000BE01625F7F4FA101EFDEC1010E94F911CD
:1038D000CE0188960E94F91182C0953E09F47FC0FE
:1038E0009E3209F47CC09F3509F479C0F7019289B2
:1038F000992331F09E3209F472C09F3509F46FC0EC
:1039000043FD6DC080E06031710509F481E0F7018D
:1039100085A7882349F4F6018085873409F05FC0C4
:1039200081858E3709F45BC0CA57DF4FA881B98102
:10393000C658D040F6018081803241F08E2F8C191C
:10394000883011F48EE28D9380818D933196C55726
:10395000DF4F88819981CB58D040E817F90759F794
:103960001C92F301808191810097A9F480E896E18F
:10397000B2010E9492A980E896E1CA57DF4F6881A0
:103980007981C658D0400E9492A980E896E16AE009
:103990000E9461A624C08130910539F4F401808130
:1039A00091810196918380831AC00297C1F4C85710
:1039B000DF4FF881C858D0402F2F30E0F4018081CC
:1039C000918128173907F1F0C857DF4FF881C8589F
:1039D000D040FF5FC857DF4FF883C858D040C501BB
:1039E000B601C757DF4F48815981C958D0400E945E
:1039F000FF7C18160CF4BECE05C0F6019081992309
:103A000009F06BCFC157DF4F0FB6F894DEBF0FBE82
:103A1000CDBFCF91DF911F910F91FF90EF90DF907D
:103A2000CF90BF90AF909F908F907F906F905F905E
:103A30004F903F902F900895EF92FF920F931F9316
:103A4000DF93CF93CDB7DEB76F970FB6F894DEBF95
:103A50000FBECDBF7C018C01015B1F4F8F5A9F4F62
:103A6000F8019183808329E832E0E20EF31E21E021
:103A700030E0F701219331937F011182108225E715
:103A80003DEFE20EF31E049640E050E060E070E08F
:103A90000E94D779F80120813181DE011596F90164
:103AA00034968BE101900D928150E1F7F90182810A
:103AB00093819C838B838CE995E09A838983C701EA
:103AC00065E172E08E010F5F1F4FA801EDDDC801B7
:103AD0000E94F911F701E557FD4F808191816F96A2
:103AE0000FB6F894DEBF0FBECDBFCF91DF911F910F
:103AF0000F91FF90EF900895EF92FF920F931F9315
:103B0000DF93CF93CDB7DEB76F970FB6F894DEBFD4
:103B10000FBECDBF7C018C01015B1F4F8F5A9F4FA1
:103B2000F8019183808329E832E0E20EF31E22E05F
:103B300030E0F7013183208327E73DEFE20EF31EEB
:103B4000F701E557FD4F60831182049640E050E095
:103B500060E070E00E94D779F80120813181DE01B8
:103B60001596F90134968BE101900D928150E1F7A1
:103B7000F901828193819C838B838CE995E09A8300
:103B80008983C70165E172E08E010F5F1F4FA801B5
:103B90008BDDC8010E94F9116F960FB6F894DEBF55
:103BA0000FBECDBFCF91DF911F910F91FF90EF908E
:103BB0000895EF92FF920F931F93DF93CF93CDB7AA
:103BC000DEB76F970FB6F894DEBF0FBECDBF7C0196
:103BD00089E892E0E80EF91EF7011182108287E76A
:103BE0009DEFE80EF91E87010C5C1F4FC80140E0F5
:103BF00050E060E070E00E94D779DE011596F80190
:103C00008BE101900D928150E1F7F70182A993A910
:103C10009C838B838CE995E09A838983C70165E156
:103C200072E08E010F5F1F4FA8013EDDC8010E94A8
:103C3000F9116F960FB6F894DEBF0FBECDBFCF91CE
:103C4000DF911F910F91FF90EF9008950F931F93B5
:103C5000DF93CF93CDB7DEB766970FB6F894DEBF8C
:103C60000FBECDBF8091160290911702A09118024D
:103C7000B09119028F87988BA98BBA8BFE013F9662
:103C800024E630E08081F999FECF1FBA32BD21BD14
:103C900080BD0FB6F894FA9AF99A0FBE2F5F3F4F86
:103CA0002836310511F03196EDCFE2E7FBE0808157
:103CB000F999FECF1FBA32BD21BD80BD0FB6F89471
:103CC000FA9AF99A0FBE2F5F3F4F2837310511F04E
:103CD0003196EDCFE2E6FBE08081F999FECF1FBA85
:103CE00032BD21BD80BD0FB6F894FA9AF99A0FBE85
:103CF0002F5F3F4F2838310511F03196EDCFE2E8C4
:103D0000FBE08081F999FECF1FBA32BD21BD80BD95
:103D10000FB6F894FA9AF99A0FBE2F5F3F4F2839E1
:103D2000310511F03196EDCFE6E9FBE08081F9999C
:103D3000FECF1FBA32BD21BD80BD0FB6F894FA9AEE
:103D4000F99A0FBE2F5F3F4F2C39310511F0319694
:103D5000EDCFEAE9FBE08081F999FECF1FBA32BDD1
:103D600021BD80BD0FB6F894FA9AF99A0FBE2F5F65
:103D70003F4F203A310511F03196EDCFE2E9FBE0FB
:103D80008081F999FECF1FBA32BD21BD80BD0FB62B
:103D9000F894FA9AF99A0FBE2F5F3F4F243A3105F3
:103DA00011F03196EDCFEAEAFBE08081F999FECF80
:103DB0001FBA32BD21BD80BD0FB6F894FA9AF99AA8
:103DC0000FBE2F5F3F4F283A310511F03196EDCFEE
:103DD000EEE5FBE08081F999FECF1FBA32BD21BD2F
:103DE00080BD0FB6F894FA9AF99A0FBE2F5F3F4F35
:103DF0002C3A310511F03196EDCFEEE9FBE08081F0
:103E0000F999FECF1FBA32BD21BD80BD0FB6F8941F
:103E1000FA9AF99A0FBE2F5F3F4F203B310511F000
:103E20003196EDCFE2EAFBE08081F999FECF1FBA2F
:103E300032BD21BD80BD0FB6F894FA9AF99A0FBE33
:103E40002F5F3F4F243B310511F03196EDCFE6EA6D
:103E5000FBE08081F999FECF1FBA32BD21BD80BD44
:103E60000FB6F894FA9AF99A0FBE2F5F3F4F283B8E
:103E7000310511F03196EDCFE8E1F9E08081F99953
:103E8000FECF1FBA32BD21BD80BD0FB6F894FA9A9D
:103E9000F99A0FBE2F5F3F4F243C310511F0319648
:103EA000EDCF87ED90E09A8389838DE290E09C834B
:103EB0008B831E821D8280EF90E098878F8386E43B
:103EC00090E09A8789871C861B86FE013196808147
:103ED000F999FECF1FBA32BD21BD80BD0FB6F8944F
:103EE000FA9AF99A0FBE2F5F3F4F263C310571F7C2
:103EF000FE0133968081F999FECF1FBA32BD21BDF4
:103F000080BD0FB6F894FA9AF99A0FBE2F5F3F4F13
:103F1000283C310511F03196EDCFFE0135968081B8
:103F2000F999FECF1FBA32BD21BD80BD0FB6F894FE
:103F3000FA9AF99A0FBE2F5F3F4F2A3C310511F0D4
:103F40003196EDCFFE0137968081F999FECF1FBAE9
:103F500032BD21BD80BD0FB6F894FA9AF99A0FBE12
:103F60002F5F3F4F2C3C310511F03196EDCFFE0114
:103F700039968081F999FECF1FBA32BD21BD80BD2F
:103F80000FB6F894FA9AF99A0FBE2F5F3F4F2E3C66
:103F9000310511F03196EDCFFE013B968081F99904
:103FA000FECF1FBA32BD21BD80BD0FB6F894FA9A7C
:103FB000F99A0FBE2F5F3F4F203D310511F031962A
:103FC000EDCFE3E3F9E08081F999FECF1FBA32BD6E
:103FD00021BD80BD0FB6F894FA9AF99A0FBE2F5FF3
:103FE0003F4F243D310511F03196EDCFE3E0F5E090
:103FF0008081F999FECF1FBA32BD21BD80BD0FB6B9
:10400000F894FA9AF99A0FBE2F5F3F4F283D310579
:1040100011F03196EDCFE7E0F5E08081F999FECF20
:104020001FBA32BD21BD80BD0FB6F894FA9AF99A35
:104030000FBE2F5F3F4F2C3D310511F03196EDCF74
:10404000EBE0F5E08081F999FECF1FBA32BD21BDCA
:1040500080BD0FB6F894FA9AF99A0FBE2F5F3F4FC2
:10406000203E310511F03196EDCF80E290E09E8741
:104070008D87FE013D968081F999FECF1FBA32BD32
:1040800021BD80BD0FB6F894FA9AF99A0FBE213E71
:10409000310521F0319621EE30E0EDCF80911A020A
:1040A00090911B02A0911C02B0911D028B8B9C8BE6
:1040B000AD8BBE8BFE01739684E690E02081F9996A
:1040C000FECF1FBA92BD81BD20BD0FB6F894FA9AFB
:1040D000F99A0FBE8736910519F001963196EECF09
:1040E000ECE2F3E064918F010BC0772767FD7095D8
:1040F00080E896E10E9461A60F5F1F4FF80164916E
:10410000662399F7E6E3F5E064918F010BC077270A
:1041100067FD709580E896E10E9461A60F5F1F4FD2
:10412000F8016491662399F780E896E16AE00E94BD
:1041300061A666960FB6F894DEBF0FBECDBFCF91D5
:10414000DF911F910F910895EF92FF920F931F93AC
:10415000DF93CF93CDB7DEB7E0970FB6F894DEBF0D
:104160000FBECDBFDE011196E4E4F5E080E10190E1
:104170000D928150E1F7DE015196E4E3F5E080E134
:1041800001900D928150E1F7DE019196E4E2F5E0B5
:1041900080E101900D928150E1F789819A81AB8194
:1041A000BC818093720B9093730BA093740BB093AC
:1041B000750B89899A89AB89BC898093620B90932E
:1041C000630BA093640BB093650B89A19AA1ABA17B
:1041D000BCA18093820B9093830BA093840BB0932C
:1041E000850B8D819E81AF81B8858093760B9093EE
:1041F000770BA093780BB093790B8D899E89AF894B
:10420000B88D8093660B9093670BA093680BB09367
:10421000690B8DA19EA1AFA1B8A58093860B909349
:10422000870BA093880BB093890B89859A85AB8502
:10423000BC8580937A0B90937B0BA0937C0BB093FF
:104240007D0B898D9A8DAB8DBC8D80936A0B90937D
:104250006B0BA0936C0BB0936D0B89A59AA5ABA5C6
:10426000BCA580938A0B90938B0BA0938C0BB0937F
:104270008D0B8D859E85AF85B88980937E0B90933D
:104280007F0BA093800BB093810B8D8D9E8DAF8D96
:10429000B8A180936E0B90936F0BA093700BB093AB
:1042A000710B8DA59EA5AFA5B8A980938E0B909399
:1042B0008F0BA093900BB093910B0E948D6580E0C3
:1042C00090E8ABEBB4E48093960B9093970BA0939C
:1042D000980BB093990B80E090E0AAEFB4E4809340
:1042E0009A0B90939B0BA0939C0BB0939D0B20E09B
:1042F00030E040E050E02093920B3093930B4093DA
:10430000940B5093950B80E29EE4A0E0B0E0809384
:104310005E0B90935F0BA093600BB093610B2093A7
:10432000AA0B3093AB0B4093AC0B5093AD0B0F2EFD
:10433000F0E0EF2EF0E0FF2EF0EA0F2FF0E41F2F59
:10434000F02DE0929E0BF0929F0B0093A00B109328
:10435000A10B8DEC9CECACECBEE38093A20B909394
:10436000A30BA093A40BB093A50BE092A60BF09225
:10437000A70B0093A80B1093A90B2093200930934F
:104380002109409322095093230920931C0930935B
:104390001D0940931E0950931F092093180930935B
:1043A000190940931A0950931B09E0920305F092F2
:1043B0000405009305051093060561E77DE38AE88F
:1043C0009FE30E941A9360930705709308058093FA
:1043D000090590930A0560E070E084EE92E40E9483
:1043E000269360930B0570930C0580930D059093B5
:1043F0000E050E948D9080E090E0A0E8BFE38093DE
:104400000F0590931005A0931105B0931205ECE2EF
:10441000F3E064918F010BC0772767FD709580E80A
:1044200096E10E9461A60F5F1F4FF8016491662319
:1044300099F7E2E3F3E064918F010BC0772767FD02
:10444000709580E896E10E9461A60F5F1F4FF8010A
:104450006491662399F780E896E16AE00E9461A67C
:10446000E0960FB6F894DEBF0FBECDBFCF91DF91BF
:104470001F910F91FF90EF9008950F931F93DF937B
:10448000CF93CDB7DEB766970FB6F894DEBF0FBEF9
:10449000CDBF80911A0290911B02A0911C02B09195
:1044A0001D028B8B9C8BAD8BBE8BFE013F9604E671
:1044B00010E0F999FECF12BD01BDF89A80B5808356
:1044C0000F5F1F4F0836110511F03196F2CFCE0164
:1044D0004396BE01615F7F4F43E050E00E94D20EE1
:1044E000009709F09CC1E2E7FBE0F999FECF12BD0D
:1044F00001BDF89A80B580830F5F1F4F0837110503
:1045000011F03196F2CFE2E6FBE0F999FECF12BD51
:1045100001BDF89A80B580830F5F1F4F08381105E1
:1045200011F03196F2CFE2E8FBE0F999FECF12BD2F
:1045300001BDF89A80B580830F5F1F4F08391105C0
:1045400011F03196F2CF0E948D65E6E9FBE0F99912
:10455000FECF12BD01BDF89A80B580830F5F1F4F5B
:104560000C39110511F03196F2CFEAE9FBE0F99927
:10457000FECF12BD01BDF89A80B580830F5F1F4F3B
:10458000003A110511F03196F2CFE2E9FBE0F9991A
:10459000FECF12BD01BDF89A80B580830F5F1F4F1B
:1045A000043A110511F03196F2CFEAEAFBE0F999ED
:1045B000FECF12BD01BDF89A80B580830F5F1F4FFB
:1045C000083A110511F03196F2CFEEE5FBE0F999CA
:1045D000FECF12BD01BDF89A80B580830F5F1F4FDB
:1045E0000C3A110511F03196F2CFEEE9FBE0F999A2
:1045F000FECF12BD01BDF89A80B580830F5F1F4FBB
:10460000003B110511F03196F2CFE2EAFBE0F99997
:10461000FECF12BD01BDF89A80B580830F5F1F4F9A
:10462000043B110511F03196F2CFE6EAFBE0F9996F
:10463000FECF12BD01BDF89A80B580830F5F1F4F7A
:10464000083B110511F03196F2CFE8E1F9E0F99954
:10465000FECF12BD01BDF89A80B580830F5F1F4F5A
:10466000043C110511F03196F2CFFE013196F99913
:10467000FECF12BD01BDF89A80B580830F5F1F4F3A
:10468000063C110599F7FE013396F999FECF12BD4C
:1046900001BDF89A80B580830F5F1F4F083C11055C
:1046A00011F03196F2CFFE013596F999FECF12BD89
:1046B00001BDF89A80B580830F5F1F4F0A3C11053A
:1046C00011F03196F2CFFE013796F999FECF12BD67
:1046D00001BDF89A80B580830F5F1F4F0C3C110518
:1046E00011F03196F2CFFE013996F999FECF12BD45
:1046F00001BDF89A80B580830F5F1F4F0E3C1105F6
:1047000011F03196F2CFFE013B96F999FECF12BD22
:1047100001BDF89A80B580830F5F1F4F003D1105E2
:1047200011F03196F2CFE3E3F9E0F999FECF12BD33
:1047300001BDF89A80B580830F5F1F4F043D1105BE
:1047400011F03196F2CFE3E0F5E0F999FECF12BD1A
:1047500001BDF89A80B580830F5F1F4F083D11059A
:1047600011F03196F2CFE7E0F5E0F999FECF12BDF6
:1047700001BDF89A80B580830F5F1F4F0C3D110576
:1047800011F03196F2CFEBE0F5E0F999FECF12BDD2
:1047900001BDF89A80B580830F5F1F4F003E110561
:1047A00011F03196F2CFFE013D96F999FECF12BD80
:1047B00001BDF89A80B58083013E110521F0319644
:1047C00001EE10E0F2CF0E948D90ECE2F3E06491F4
:1047D0008F010BC0772767FD709580E896E10E94F6
:1047E00061A60F5F1F4FF8016491662399F7E4E516
:1047F000F3E064918F010BC0772767FD709580E827
:1048000096E10E9461A60F5F1F4FF8016491662335
:1048100099F780E896E16AE00E9461A601C094DC05
:1048200066960FB6F894DEBF0FBECDBFCF91DF9175
:104830001F910F9108950F931F93CF93DF930CE275
:1048400013E0F8016491E8010AC0772767FD7095CD
:1048500080E896E10E9461A62196FE01649166239C
:10486000A1F7E6E2F5E06491EF010AC0772767FD62
:10487000709580E896E10E9461A62196FE01649100
:104880006623A1F780E896E16AE00E9461A6F8013C
:104890006491CCE2D3E00AC0772767FD709580E889
:1048A00096E10E9461A62196FE0164916623A1F71C
:1048B0004091720B5091730B6091740B7091750B5A
:1048C0008EE195E00E94E6384091760B5091770B8F
:1048D0006091780B7091790B8BE195E00E94E6383E
:1048E00040917A0B50917B0B60917C0B70917D0B0A
:1048F00088E195E00E94E63840917E0B50917F0B55
:104900006091800B7091810B85E195E00E94E63803
:1049100080E896E16EE172E00E9492A980E896E15B
:104920006AE00E9461A6F8016491CCE2D3E00AC07B
:10493000772767FD709580E896E10E9461A6219631
:10494000FE0164916623A1F7EBEFF4E06491EF01BF
:104950000AC0772767FD709580E896E10E9461A6FE
:104960002196FE0164916623A1F780E896E16AE052
:104970000E9461A6F8016491CCE2D3E00AC07727D7
:1049800067FD709580E896E10E9461A62196FE0180
:1049900064916623A1F74091620B5091630B609183
:1049A000640B7091650B82EF94E00E94E6384091B1
:1049B000660B5091670B6091680B7091690B8FEEDD
:1049C00094E00E94E63840916A0B50916B0B609125
:1049D0006C0B70916D0B8CEE94E00E94E638409168
:1049E0006E0B50916F0B6091700B7091710B89EE93
:1049F00094E00E94E63880E896E16EE172E00E9461
:104A000092A980E896E16AE00E9461A6F8016491AB
:104A1000CCE2D3E00AC0772767FD709580E896E185
:104A20000E9461A62196FE0164916623A1F7EBEC3A
:104A3000F4E06491EF010AC0772767FD709580E884
:104A400096E10E9461A62196FE0164916623A1F77A
:104A500080E896E16AE00E9461A6F8016491CCE2E8
:104A6000D3E00AC0772767FD709580E896E10E9441
:104A700061A62196FE0164916623A1F74091820B05
:104A80005091830B6091840B7091850B82EC94E0C4
:104A90000E940D394091860B5091870B6091880BD5
:104AA0007091890B8FEB94E00E940D3940918A0B35
:104AB00050918B0B60918C0B70918D0B8CEB94E073
:104AC0000E940D3940918E0B50918F0B6091900B8D
:104AD0007091910B89EB94E00E940D3980E896E18A
:104AE0006EE172E00E9492A980E896E16AE00E947D
:104AF00061A6F8016491CCE2D3E00AC0772767FD94
:104B0000709580E896E10E9461A62196FE0164916D
:104B10006623A1F7E4E8F4E06491EF010AC0772787
:104B200067FD709580E896E10E9461A62196FE01DE
:104B300064916623A1F780E896E16AE00E9461A68D
:104B4000F8016491CCE2D3E00AC0772767FD709545
:104B500080E896E10E9461A62196FE016491662399
:104B6000A1F74091960B5091970B6091980B709123
:104B7000990B8BE794E00E94E63840919A0B509194
:104B80009B0B60919C0B70919D0B88E794E00E94B9
:104B9000E63880E896E16EE172E00E9492A980E832
:104BA00096E16AE00E9461A6F8016491CCE2D3E04C
:104BB0000AC0772767FD709580E896E10E9461A69C
:104BC0002196FE0164916623A1F7E5ECF3E0649180
:104BD000EF010AC0772767FD709580E896E10E9493
:104BE00061A62196FE0164916623A1F780E896E113
:104BF0006AE00E9461A6F8016491CCE2D3E00AC0A9
:104C0000772767FD709580E896E10E9461A621965E
:104C1000FE0164916623A1F74091920B5091930B92
:104C20006091940B7091950B8CEB93E00E94E638A9
:104C30004091AA0B5091AB0B6091AC0B7091AD0BF6
:104C400089EB93E00E94E63840915E0B50915F0B38
:104C50006091600B7091610B86EB93E00E940D39BF
:104C600040919E0B50919F0B6091A00B7091A10BF6
:104C700083EB93E00E94E6384091A20B5091A30B86
:104C80006091A40B7091A50B80EB93E00E94E63835
:104C90004091A60B5091A70B6091A80B7091A90BA6
:104CA0008DEA93E00E94E63880E896E16EE172E0DA
:104CB0000E9492A980E896E16AE00E9461A6F8014C
:104CC0006491CCE2D3E00AC0772767FD709580E855
:104CD00096E10E9461A62196FE0164916623A1F7E8
:104CE000EBE9F3E06491EF010AC0772767FD709567
:104CF00080E896E10E9461A62196FE0164916623F8
:104D0000A1F780E896E16AE00E9461A6F80164914B
:104D1000CCE2D3E00AC0772767FD709580E896E182
:104D20000E9461A62196FE0164916623A1F740913D
:104D300018095091190960911A0970911B0982E9AB
:104D400093E00E94E63840911C0950911D09609142
:104D50001E0970911F098FE893E00E94E638409188
:104D600020095091210960912209709123098CE852
:104D700093E00E94E63880E896E16EE172E00E94DE
:104D800092A980E896E16AE00E9461A6F801649128
:104D9000CCE2D3E00AC0772767FD709580E896E102
:104DA0000E9461A62196FE0164916623A1F7EEE7B9
:104DB000F3E06491EF010AC0772767FD709580E802
:104DC00096E10E9461A62196FE0164916623A1F7F7
:104DD00080E896E16AE00E9461A6F8016491CCE265
:104DE000D3E00AC0772767FD709580E896E10E94BE
:104DF00061A62196FE0164916623A1F74091030507
:104E000050910405609105057091060584E793E0D3
:104E10000E94E638609107057091080580910905A8
:104E200090910A050E942093AB01BC0181E793E0B9
:104E30000E94E63860910B0570910C0580910D057C
:104E400090910E050E942C93AB01BC018EE693E07D
:104E50000E94E63880E896E16EE172E00E9492A935
:104E600080E896E16AE00E9461A6DF91CF911F91F0
:104E70000F910895FC01EB58FF4F11821082E55706
:104E8000F040DF01A859BF4FED59FF4FED93FC9360
:104E9000379688EE93E0819391931192119211923B
:104EA00011921192118210820895FB01338120E04A
:104EB0008481280F311DC90108950F931F93CF934B
:104EC000DF93EC018C010D581F4FD801ED91FC913F
:104ED000A081B18114962D913C911597CF01F901D4
:104EE0001995892B49F4C259DF4F8DEF9FEF9983B4
:104EF00088832DEF3FEF0EC0D801ED91FC91A0818A
:104F0000B18116962D913C911797CF01F901199512
:104F1000282F30E0C901DF91CF911F910F910895A3
:104F2000FC01E259FF4F11821082EE56F040CF0192
:104F3000C4CFFC01E958FF4F718360830895CF937C
:104F4000DF93FC01ED58FF4F71836083E357F0401E
:104F50008091C6059091C70501969093C7058093EF
:104F6000C605CF0188599F4FEC01A881B9811196E0
:104F7000B983A883119711961C92E05AFF4F1192A2
:104F800011921082DF91CF910895CF93DF93DC01CE
:104F9000AE59BF4F8C91A256B0408E3000F5AF593C
:104FA000BF4F9C91A156B04086E0989FF00111241C
:104FB000EA0FFB1FEB0186E0099001928150E1F7B7
:104FC000FD01EF59FF4F80818F5F8F708083FD015E
:104FD000EE59FF4F80818F5F808381E007C0A25927
:104FE000BF4F8BEF9FEF8D939C9380E0DF91CF912C
:104FF0000895CF93DF93EC0193DF282FC259DF4F41
:1050000088819981CE56D0408D5F9F4F89F4CE59CB
:10501000DF4F8881C256D040882309F4E7C0C958C1
:10502000DF4FE881F981309709F4E0C01995DEC0BF
:10503000DE01A859BF4FED91FC911197808181301D
:1050400031F08130D0F1823009F07AC034C027309D
:10505000B9F1253191F0263009F0CBC0CD59DF4FA1
:10506000CE17DF0708F0C5C08FEF80838D919C912C
:10507000119701978D939C93A0C0CE018D599F4F9E
:105080008E179F0788F48FEF80838D919C911197E5
:1050900001978D939C938091C6059091C7050197C8
:1050A0009093C7058093C605C259DF4F8CEF9FEFE1
:1050B000998388839EC0253091F0273009F099C0EC
:1050C0008091C6059091C70501969093C70580937E
:1050D000C6053196ED93FC93319784E02BC0CE0149
:1050E0008D599F4F8E179F0788F48FEF80838D9186
:1050F0009C91119701978D939C938091C6059091F7
:10510000C70501979093C7058093C6058091C60592
:105110009091C70501969093C7058093C605DE015F
:10512000A859BF4FED91FC9111973196ED93FC93E7
:10513000319783E08183C059DF4F1882C057D04038
:10514000C859DF4FE881F981C856D040E081E3308B
:1051500019F0E43009F051C0C059DF4F9881C057B1
:10516000D040992311F4822F03C08091C805822773
:105170008093C805E92FF0E0E753FA4F208395307C
:1051800071F5882321F5CE0169EC75E0FEDEC0598A
:10519000DF4F1882C057D040FE01E859FF4FA08171
:1051A000B181CD59DF4FCA17DB0718F58FEF8C930C
:1051B000808191810197918380838091C605909130
:1051C000C70501979093C7058093C60512C0C259C1
:1051D000DF4F88EF9FEF99838883CE56D040FE0142
:1051E000E059FF4F80818F5F808303C020E030E073
:1051F00002C021E030E0C90100C0DF91CF910895E5
:10520000CF93DF93DC01AE59BF4F8C91A256B040D3
:105210008823F9F0A05ABF4F9C91A056B04086E079
:10522000989FF0011124EB01EA0FFB1F86E001902B
:1052300009928150E1F7FD01E05AFF4F80818F5FB5
:105240008F708083FD01EE59FF4F808181508083F4
:1052500081E0DF91CF910895AF92BF92CF92DF921C
:10526000EF92FF920F931F93CF93DF93EC010E9475
:105270002D9F7B018C01FE01E659FF4F80819181BA
:10528000AA2797FDA095BA2FE80EF91E0A1F1B1F2B
:105290005F0188E6C82ED12CCC0EDD1E19C0CE01D0
:1052A000A8DE019779F40E942D9F7B018C01D50126
:1052B0008D919C91AA2797FDA095BA2FE80EF91E13
:1052C0000A1F1B1FD601ED91FC918081882369F094
:1052D0000E942D9F6E157F058007910700F3C2592C
:1052E000DF4F8FEF9FEF99838883DF91CF911F91DD
:1052F0000F91FF90EF90DF90CF90BF90AF90089507
:105300008F929F92AF92BF92CF92DF92EF92FF92D5
:105310000F931F93CF93DF935C016B01942E852E27
:10532000E42FF52FEF0109900020E9F72197CE1B1C
:10533000DF0BCF3FD10521F01CF02FEF3FEF68C00E
:105340008BDF33E7E32EF12CEA0CFB1CD701ED9148
:10535000FC91A081B1812D913C91CF0162E0F901D6
:105360001995D701ED91FC91A081B1812D913C91CE
:10537000CF016C2DF9011995D701ED91FC91A08118
:10538000B1812D913C91CF016C2FF901199502E06B
:1053900010E00C271D270C251D25292D382DC901AE
:1053A000EC01670110C0D601ED91FC91A081B181A3
:1053B0002D913C91CF01F90119958991992787FD8C
:1053C0009095082719276881662369F7D701ED9121
:1053D000FC91A081B1812D913C91CF01602FF90109
:1053E00019958091C6059091C70501969093C705C0
:1053F0008093C605D501A859BF4FED91FC91119737
:105400003196ED93FC93319781E0818320E030E089
:10541000C901DF91CF911F910F91FF90EF90DF9025
:10542000CF90BF90AF909F908F900895CF92DF92D2
:10543000EF92FF920F931F937C016B010DDF8701A9
:105440000D581F4FD801ED91FC91A081B1812D9194
:105450003C91CF0164E0F9011995D801ED91FC91DF
:10546000A081B1812D913C91CF016C2DF90119954D
:10547000D801ED91FC91A081B18164E070E06C25D0
:105480007D252D913C91CF01F90119958091C6059B
:105490009091C70501969093C7058093C60588E64D
:1054A00090E0E80EF91ED701ED91FC91119731962D
:1054B000ED93FC93319781E081831F910F91FF90D1
:1054C000EF90DF90CF9008959F92AF92BF92CF92CE
:1054D000DF92EF92FF920F931F938C01D62EB42E82
:1054E000A22E932EB9DE02591F4FD8011D921C9295
:1054F0000E56104043E7E42EF12CE00EF11ED701CA
:10550000ED91FC91A081B1812D913C91CF0161E0A1
:10551000F9011995D701ED91FC91A081B1812D91EF
:105520003C91CF016D2DF9011995D701ED91FC91B9
:10553000A081B1812D913C91CF016B2DF90119957D
:10554000D701ED91FC91A081B1812D913C91CF01CA
:10555000692DF9011995D701ED91FC91A081B181D7
:105560002D913C91CF016A2DF9011995CC24C3945A
:10557000DC24DB24DA24D701ED91FC91A081B181F8
:10558000D9242D913C91CF016D2DF9011995809170
:10559000C6059091C70501969093C7058093C605EF
:1055A00008591F4FD801ED91FC9111973196ED9359
:1055B000FC933197C1821F910F91FF90EF90DF9084
:1055C000CF90BF90AF909F9008952F923F924F92AF
:1055D0005F926F927F928F929F92AF92BF92CF9283
:1055E000DF92EF92FF920F931F93DF93CF93CDB78C
:1055F000DEB73C011A012B01C901B801F301208279
:105600003182428253820483158326833783C08686
:10561000D186E286F38684869586A686B78620E0C4
:1056200030E040E050E00E94DEB0882311F410E04A
:1056300001C012E0F301608571858285938520E0C9
:1056400030E040E050E00E94DEB0882311F4EE2408
:1056500002C094E0E92EC501B40120E030E040E052
:1056600050E00E94DEB0882311F4FF2402C088E0DD
:10567000F82E00E0C201B10120E030E040E050E04F
:105680000E94DEB0811101E0102B1E291F29F301B9
:1056900011A360817181828193812091720B30917D
:1056A000730B4091740B5091750B0E94BEB30E9416
:1056B0004DB1F301608B718B828B938B648175810B
:1056C000868197812091760B3091770B4091780BF2
:1056D0005091790B0E94BEB30E944DB1F301648BCF
:1056E000758B868B978B60857185828593852091DC
:1056F0007A0B30917B0B40917C0B50917D0B0E947B
:10570000BEB30E944DB1F301608F718F828F938F72
:10571000648575858685978520917E0B30917F0BFA
:105720004091800B5091810B0E94BEB30E944DB1FD
:10573000F301648F758F868F978FCF91DF911F91C3
:105740000F91FF90EF90DF90CF90BF90AF909F9020
:105750008F907F906F905F904F903F902F90089523
:105760008F929F92AF92BF92CF92DF92EF92FF9271
:105770000F931F93DF93CF93CDB7DEB7FC0110A239
:1057800024DFCF91DF911F910F91FF90EF90DF9079
:10579000CF90BF90AF909F908F9008958F929F92DF
:1057A000AF92BF92CF92DF92EF92FF920F931F932F
:1057B0008FEC95E040E050E060E070E00AE919E924
:1057C00029E13EE36A017B014A015B01C9DF1F91C8
:1057D0000F91FF90EF90DF90CF90BF90AF909F9090
:1057E0008F9008952F923F924F925F926F927F9287
:1057F0008F929F92AF92BF92CF92DF92EF92FF92E1
:105800000F931F93DF93CF9300D00F92CDB7DEB7E6
:105810008C01009709F0FEC080914F09882309F49C
:1058200046C0E0903B09F0903C0900913D09109181
:105830003E09B701C80120E030E040E050E00E949E
:10584000ECB218162CF47E2D6F2D902F812F04C0F2
:1058500070E060E09CE583E4272F362F492F582F16
:10586000C901DA018093080990930909A0930A09F4
:10587000B0930B0980E090E0ACE8B2E48093240997
:1058800090932509A0932609B0932709B701C80171
:1058900020E030E04CE553E40E94ECB2181624F00E
:1058A000EE24FF240CE513E4C701D801AAC08091BF
:1058B000E7049091E804029709F0ACC0E8EFF7E044
:1058C00065917591859194912090180930901909EE
:1058D00040901A0950901B09A20191010E9405B045
:1058E000609308097093090980930A0990930B0942
:1058F000E4E0F8E06591759185919491A2019101A0
:105900000E9405B0609324097093250980932609AD
:1059100090932709E0E1F8E0E590F5900591149166
:10592000A0903B09B0903C09C0903D09D0903E0941
:10593000C601B50120E030E04CE553E40E94ECB232
:1059400018161CF4350146010AC00F2EF0E06F2E28
:10595000F0E07F2EFCE58F2EF3E49F2EF02D80915A
:10596000ED049091EE04A091EF04B091F0048983CE
:105970009A83AB83BC83C801B701A20191010E9445
:1059800005B07B018C01C401B30129813A814B81AF
:105990005C810E9404B09B01AC01C801B7010E9468
:1059A000DEB088235CF4E0E1F8E0659175918591C3
:1059B0009491A20191010E9405B01CC0C601B501DD
:1059C00020E030E04CE553E40E94ECB2181654F0AD
:1059D0000F2EF0E0AF2EF0E0BF2EFCE5CF2EF3E46B
:1059E000DF2EF02DC601B50129813A814B815C8102
:1059F0000E9404B0E62F2E2F372F482F592FC901B0
:105A0000DA018093D2049093D304A093D404B0938A
:105A1000D5044BC0000F111F000F111FF801E850F3
:105A2000F84F6591759185919491F801E85EF64F74
:105A3000C080D180E280F38038E0A32E39E0B32E1D
:105A4000A00EB11EA70196010E9405B0D5016D936D
:105A50007D938D939C931397F801EC5FF74F6591BD
:105A600075918591949124E2A22E29E0B22EA00E88
:105A7000B11EA70196010E9405B0F50160837183F4
:105A800082839383F801E05FF74F6591759185916B
:105A900094910E521B4FA70196010E9405B0D801A8
:105AA0006D937D938D939C9313970F900F900F9010
:105AB0000F90CF91DF911F910F91FF90EF90DF90AA
:105AC000CF90BF90AF909F908F907F906F905F909E
:105AD0004F903F902F900895EF92FF920F931F9356
